:10000000CEC40000F4C40000F2C40000F0C400003C
:10001000EEC40000ECC40000EAC400000C94E10D42
:10002000E6C400000C94960E37C70000D1C700004C
:10003000DEC40000DCC40000DAC40000D8C4000044
:10004000D6C40000D4C40000D2C40000D0C4000054
:10005000CEC40000CCC40000CAC400000C949C09AB
:10006000C6C40000C4C40000C2C40000C0C4000074
:10007000BEC40000BCC40000BAC40000B8C4000084
:10008000B6C40000B4C40000B2C40000B0C4000094
:10009000AEC40000ACC40000AAC40000A8C40000A4
:1000A000A6C40000A4C40000A2C400000000000018
:1000B000000000002A2B28000000000000000000C3
:1000C0000000000000000000000000002C9EB4A012
:1000D000A1A2A434A6A7A5AE362D3738271E1F200F
:1000E000212223242526B333B62EB7B89F848586D4
:1000F0008788898A8B8C8D8E8F9091929394959618
:100100009798999A9B9C9D2F3130A3AD3504050695
:100110000708090A0B0C0D0E0F10111213141516F7
:100120001718191A1B1C1DAFB1B0B5000904020045
:1001300001030000000921010100012265000705FB
:10014000840340000105010902A1010901A1008504
:100150000105091901290315002501950375018180
:10016000029501750581030501093009310938152A
:1001700081257F750895038106C0C005010906A188
:10018000018502050719E029E7150025017501958C
:1001900008810295017508810395067508150025EB
:1001A000650507190029658100C000C18081C11261
:1001B00001000202000040412336800001010200DC
:1001C00001120100020000004041233680000101BD
:1001D0000200011803410072006400750069006E9E
:1001E000006F0020004C004C0043002203410072CD
:1001F000006400750069006E006F0020004C00650F
:10020000006F006E006100720064006F000403095B
:1002100004080B00020202010009040000010202AE
:100220000000052400100105240101010424020638
:1002300005240600010705810310004009040100A0
:10024000020A0000000705020240000007058302C1
:10025000400000070605040100080A0B0C0D090008
:1002600000000200080E0000030401000B0000045F
:1002700008020110408040102040804080080204A5
:10028000018040201002011080102040400404042E
:10029000040403040502020202040302020202062D
:1002A00006060606060404020202040000000023FB
:1002B00000260029002C002F000000000025002847
:1002C000002B002E00310000000000240027002A2F
:1002D000002D00300041726475696E6F2072657385
:1002E0007461727465642100467269646765206494
:1002F0006F6F72206F70656E656400467269646727
:100300006520646F6F7220636C6F73656400506F5B
:10031000736974697665207065616B2064657465C6
:10032000637465642E004472696674696E67207533
:10033000702061667465722068656174696E6720FB
:10034000746F6F2073686F72742E005065616B3A22
:1003500020257320457374696D617465643A2025A6
:10036000732E204E657720657374696D61746F72AA
:100370003A202573004E6567617469766520706563
:10038000616B2064657465637465642E00447269F2
:100390006674696E6720646F776E2061667465723B
:1003A00020636F6F6C696E6720746F6F2073686F66
:1003B00072742E005065616B3A2025732E204573B0
:1003C00074696D617465643A2025732E204E6577DB
:1003D00020657374696D61746F723A202573002013
:1003E0002D2D2E2D00202D2D2E2D00202D2D2E2DAE
:1003F00000202D2D2E2D004D6F6465202020004201
:100400006565722020200046726964676520004699
:10041000726964676520436F6E73742E0042656570
:100420007220436F6E7374616E7400426565722052
:1004300050726F66696C6520004F66662020202030
:1004400020202020202000496E76616C6964206D98
:100450006F6465200049646C6520666F72202020FF
:1004600020202020202020202000537461727469F5
:100470006E672075702E2E2E202020202020004315
:100480006F6F6C696E6720666F72202020202020BD
:100490002020200048656174696E6720666F7220B5
:1004A000202020202020202000446F6F72206F70B9
:1004B000656E202020202020202020202000546550
:1004C0006D702E20636F6E74726F6C204F464620E5
:1004D000202000556E6B6E6F776E2073746174759B
:1004E0007321202020202000207300207300202072
:1004F00020202020004368616E67656420746F20AF
:1005000070726F66696C65206D6F646520696E201E
:100510006D656E752E0054656D7020636F6E74721C
:100520006F6C207475726E6564206F666620696EEC
:10053000206D656E752E0020202020202020202098
:100540002020202000426565722074656D70657200
:1005500061747572652073657474696E6720636871
:10056000616E67656420746F20257320696E204D6D
:10057000656E752E00202020202000467269646779
:10058000652074656D706572617475726520736540
:100590007474696E67206368616E67656420746F48
:1005A00020257320696E204D656E752E0020202059
:1005B000202000005EBCE2613FDD83C29C7E20A360
:1005C000FD1F419DC3217FFCA2401E5F01E3BD3E94
:1005D0006082DC237D9FC1421CFEA0E1BF5D0380E1
:1005E000DE3C62BEE0025CDF81633D7C22C09E1D7A
:1005F00043A1FF4618FAA427799BC584DA3866E53B
:10060000BB5907DB856739BAE406581947A5FB785B
:1006100026C49A653BD987045AB8E6A7F91B45C694
:10062000987A24F8A6441A99C7257B3A6486D85B41
:1006300005E7B98CD2306EEDB3510F4E10F2AC2FEE
:100640007193CD114FADF3702ECC92D38D6F31B22B
:10065000EC0E50AFF1134DCE90722C6D33D18F0C48
:1006600052B0EE326C8ED0530DEFB1F0AE4C129111
:10067000CF2D73CA947628ABF517490856B4EA69AA
:1006800037D58B5709EBB536688AD495CB2977F4E3
:10069000AA4816E9B7550B88D6346A2B7597C94A0C
:1006A00014F6A8742AC896154BA9F7B6E80A54D7C9
:1006B000896B3544656661756C7420636F6E737405
:1006C000616E7473206C6F616465642E00446566AE
:1006D00061756C742073657474696E6773206C6FD8
:1006E000616465642E004C3A0025733C42523E0022
:1006F0000A00496E76616C696420636F6D6D616E8E
:100700006420526563656976656420627920417270
:100710006475696E6F3A20256300543A7B22426506
:10072000657254656D70223A25732C00224265650E
:1007300072536574223A25732C002242656572411A
:100740006E6E223A6E756C6C2C00224265657241A9
:100750006E6E223A222573222C002246726964674B
:100760006554656D70223A25732C002246726964C7
:100770006765536574223A25732C002246726964BA
:100780006765416E6E223A6E756C6C7D0A0022467A
:100790007269646765416E6E223A222573227D0A72
:1007A00000443A000A00533A7B00222573223A257E
:1007B000737D0A00433A7B00222573223A25757D1A
:1007C0000A00563A7B00222573223A25737D0A00DF
:1007D000222573223A25732C00222573223A2225E2
:1007E00063222C00222573223A25752C0052656362
:1007F0006569766564206E65772073657474696ECB
:10080000673A202573203D202573004D6F646520D5
:1008100073657420746F20256320696E207765628C
:1008200020696E7465726661636500426565722059
:1008300074656D706572617475726520736574742A
:10084000696E67206368616E67656420746F202538
:10085000732062792074656D70657261747572655C
:100860002070726F66696C652E0042656572207437
:10087000656D7065726174757265207365747469F5
:100880006E67206368616E67656420746F202573EE
:1008900020696E2077656220696E74657266616397
:1008A000652E004672696467652074656D706572B7
:1008B00061747572652073657474696E672063680E
:1008C000616E67656420746F20257320696E2077E0
:1008D000656220696E746572666163652E00436FA0
:1008E000756C64206E6F742070726F636573732013
:1008F00073657474696E67006E756C6C0025642E88
:10090000253031640025642E253032640025642EA4
:100910002530336400556E61626C6520746F20660B
:10092000696E64206164647265737320666F7220FF
:1009300073656E736F72206F6E2070696E20256410
:100940000054656D70657261747572652073656EB3
:10095000736F72206F6E2070696E20256420646949
:1009600073636F6E6E65637465640054656D706566
:100970007261747572652073656E736F72206F6E2D
:100980002070696E202564207265636F6E6E6563EA
:1009900074656400F80C3D19241D4119271D1124AC
:1009A0001FBECFEFDAE0DEBFCDBF13E0A0E0B1E0C5
:1009B000E4E4FDE602C005900D92A634B107D9F734
:1009C00015E0A6E4B3E001C01D92A737B107E1F737
:1009D00019E0CAE9D9E004C02297FE010E94C130A3
:1009E000C439D107C9F70E949B0D0C9496360C941C
:1009F000A80D8091B2039091B3032091B40330917C
:100A0000B503821B930B8F73907008952091B203EE
:100A10003091B3038091B4039091B503281739073F
:100A200049F0E091B403F091B503EE58FC4F80819A
:100A300090E008958FEF9FEF08952091B2033091D9
:100A4000B3038091B4039091B50328173907A9F037
:100A5000E091B403F091B503EE58FC4F80812091F2
:100A6000B4033091B5032F5F3F4F2F733070309335
:100A7000B5032093B40390E008958FEF9FEF08959E
:100A80000F931F93CF93DF93EC01162FE881F98129
:100A90000480F581E02D0995082FE881F981068011
:100AA000F781E02DCE01612F0995802F90E0DF9135
:100AB000CF911F910F910895CF92DF92EF92FF9205
:100AC0000F931F93CF93DF936C017B01EA0100E04A
:100AD00010E00EC0D7016D917D01D601ED91FC9122
:100AE0000190F081E02DC6010995080F191F21978B
:100AF000209781F7C801DF91CF911F910F91FF904F
:100B0000EF90DF90CF9008958730C1F1883080F466
:100B10008330F9F0843030F4813029F1823009F0EB
:100B200050C024C08430C9F0863009F04AC022C0C9
:100B30008A3091F18B3030F4883031F1893009F00E
:100B400040C026C08C3091F18C3060F18E30C9F5F8
:100B500033C0809180008F7703C0809180008F7DAB
:100B600080938000089584B58F7702C084B58F7D0F
:100B700084BD08958091B0008F7703C08091B0004C
:100B80008F7D8093B0000895809190008F7707C08B
:100B9000809190008F7D03C080919000877F80932B
:100BA000900008958091C0008F7703C08091C000AD
:100BB0008F7D8093C00008958091C200877F8093CD
:100BC000C20008950895FC0104C08091F100819352
:100BD00061506623D1F7289884E6809362030895D4
:100BE0009FB7F89487708093E9008091F2009FBFCF
:100BF0000895909161039923B1F057FF1AC016C070
:100C00002898209362033091F10031936E17C1F759
:100C1000009739F02091F200222319F42BE620935B
:100C2000E800AFBF08958FEF9FEF08958FEF9FEF1C
:100C30000895AFB7F89487708093E9002091F2008F
:100C400030E0CA01241735070CF4C901FB01680F15
:100C500024E6DCCFCF93DF930F92CDB7DEB7BE0192
:100C60006F5F7F4F41E050E0C4DF8130910519F4A0
:100C7000898190E002C08FEF9FEF0F90DF91CF91BD
:100C8000089582E0E7DF2091B2033091B3032F5F34
:100C90003F4F2F7330704091B4035091B503241728
:100CA000350759F0E091B203F091B303EE58FC4FD1
:100CB00080833093B3032093B20308959FB7F894D1
:100CC00087708093E9008091E80085FF05C020913E
:100CD000F20080E4821B01C080E09FBF0895109263
:100CE000E9001092600310925F0390935E0380937B
:100CF0005D0308950F931F93CF93C82F8A01DB01E3
:100D00006EEF35C0CD010196C7FF04C0FD01DC01C7
:100D1000E49102C0EC91DC0120915F03309160030B
:100D200080915D0390915E0328173907ACF48091A0
:100D3000E8008570E1F38091E80082FD1DC0E0933A
:100D4000F10080915F039091600301968F73907022
:100D5000009711F46093E80080915F039091600325
:100D600001969093600380935F030150104001153A
:100D7000110541F6CA0102C08FEF9FEFCF911F917D
:100D80000F910895FC0180818E5F808380E861E18E
:100D900072E042E450E0AECF1F93CF93DF930F9207
:100DA000CDB7DEB79C01162F8091E80082FFFCCF03
:100DB000C901612F798307DF8BEF8093E800812FD2
:100DC0007981972F0F90DF91CF911F910895FC01AA
:100DD00081819081913A51F4813209F04DC080E0D7
:100DE0006AE073E047E050E085DF44C0913209F0EB
:100DF00043C0803231F48AE093E067E070E0CCDFFA
:100E000039C0823209F038C0828180931103809109
:100E10000A0390910B03A0910C03B0910D03803B4A
:100E200024E0920720E0A20720E0B20739F5809184
:100E3000110380FD12C087E797E790930108809324
:100E400000082BE088E190E00FB6F894A895809315
:100E500060000FBE209360000DC088E10FB6F894CB
:100E600080936000109260000FBEA8951092010858
:100E70001092000881E0089580E0089581E00895CF
:100E80008093E9008091F200882319F08AE380932F
:100E9000E800089583E0F4CF1F920F920FB60F92EF
:100EA00011242F933F934F935F936F937F938F936F
:100EB0009F93AF93BF93EF93FF938091E1001092C4
:100EC000E10083FF0FC01092E90091E09093EB00E6
:100ED0001092EC0092E39093ED001092610398E081
:100EE0009093F00082FF22C083E0CADF03C084E653
:100EF00093E0C7DE82E074DE8823C9F78091630344
:100F0000882341F080916303815080936303882399
:100F100009F45D9A80916203882341F08091620315
:100F2000815080936203882309F4289AFF91EF91FE
:100F3000BF91AF919F918F917F916F915F914F91F1
:100F40003F912F910F900FBE0F901F901895FC01AD
:100F500080818F5F808380E86CE271E049E150E03E
:100F6000C9CECF93DF930F92CDB7DEB71982CE01F2
:100F7000019608DFCE010196EADF898190E00F90AB
:100F8000DF91CF91089580E865E471E045E650E097
:100F9000B1CEFC0191818081813A31F481E09130C0
:100FA00091F0933089F413C0813271F49B3021F4B5
:100FB00082818093090305C09A3041F48281809335
:100FC000080381E00895089580E0089580E0089581
:100FD0001F920F920FB60F921124EF92FF920F9370
:100FE0001F932F933F934F935F936F937F938F93B1
:100FF0009F93AF93BF93EF93FF93CF93DF93CDB7BF
:10100000DEB76297DEBFCDBF1092E9008091E800A5
:1010100083FFE2C0CE01019668E0D5DD82EF8093C8
:10102000E800898187FF05C09091E80090FFFCCF20
:1010300003C09EEF9093E80090E09C012076307012
:101040002115310509F0B0C02A81222329F410921C
:10105000F1001092F100B9C0213009F4B6C023307C
:1010600009F4B3C0253049F48091E80080FFFCCF3B
:101070008B8180688093E300A8C0263009F068C0A7
:101080002C81EF80F884223049F580E090E02A8BB3
:1010900026DE67DF99E08E01075F1F4FF801392FC9
:1010A00011923A95E9F799872A892A8791E09E87D4
:1010B00090E8988B9AEF998B20915F0330916003B1
:1010C000275F3F4F3C872B878D87C70108DE80E075
:1010D000B80149E050E00EDE44DF77C0C7012A8B3B
:1010E000FEDD2A89223239F482E290E04CDF00975B
:1010F00009F06BC06EC0213079F48F8198858830FB
:10110000910519F481E080935C0380915C0388234E
:1011100089F06FEA71E016C0233009F05AC08B8164
:10112000882359F0823061F0813009F052C063EDBC
:1011300071E008C061EC71E005C06DE072E002C0D2
:101140006BEE71E0FB01449180E850E0D3DD3DC0DF
:10115000273009F43EC0283021F481E08093F1006B
:1011600034C0293091F583709070009791F581E03B
:1011700090E031E026E38093E9003093EB00FC013E
:10118000E655FE4FE491E093EC002093ED000196CC
:101190008530910581F78EE78093EA001092EA008E
:1011A0008B818093610311C08F81988598DD8D813B
:1011B000882321F4CE0101960ADE05C0823049F46D
:1011C000CE010196E6DE882321F08EEF8093E800C1
:1011D00003C081E28093EB006296DEBFCDBFDF915A
:1011E000CF91FF91EF91BF91AF919F918F917F919F
:1011F0006F915F914F913F912F911F910F91FF90B0
:10120000EF900F900FBE0F901F9018950F931F93A4
:10121000CF93DF938C01EB01CB010E944833AC01EB
:10122000D801ED91FC910280F381E02DC801BE014F
:101230000995DF91CF911F910F9108956F927F9241
:101240008F929F92AF92BF92CF92DF92EF92FF92D6
:101250000F931F93CF93DF93CDB7DEB7A1970FB650
:10126000F894DEBF0FBECDBF3C01E42ECB01F22EC1
:1012700019A221E02F1510F03AE0F32E21E2C22E40
:10128000D12CCC0EDD1E8F2C9924AA24BB2403C0A4
:10129000E02E512FC9016E2D752FA50194010E94DA
:1012A0006E3089019A01F09E802D1124E81A8E2D4E
:1012B0000894C108D1088A3010F4805D01C0895CAF
:1012C000D6018C93011511052105310509F7C601D9
:1012D0000E944833AC01D301ED91FC910280F3816F
:1012E000E02DC301B6010995A1960FB6F894DEBFB3
:1012F0000FBECDBFDF91CF911F910F91FF90EF9067
:10130000DF90CF90BF90AF909F908F907F906F9025
:1013100008952115310549F4DC01ED91FC9101900E
:10132000F081E02D642F0995089588CF0C94C53085
:1013300008950C945B3108951F920F920FB60F928F
:1013400011242F933F938F939F93AF93BF938091DB
:10135000460390914703A0914803B091490330910F
:10136000B603232F2D5F2D3720F40196A11DB11D4B
:1013700005C0232F2A570296A11DB11D2093B60345
:101380008093460390934703A0934803B093490387
:1013900080914A0390914B03A0914C03B0914D036F
:1013A0000196A11DB11D80934A0390934B03A09316
:1013B0004C03B0934D03BF91AF919F918F913F919B
:1013C0002F910F900FBE0F901F9018950F931F93A2
:1013D0008FB7F8940091460310914703209148037A
:1013E000309149038FBFB801C9011F910F91089532
:1013F0000F931F939FB7F89400914A0310914B03EA
:1014000020914C0330914D0386B5A89B06C08F3FB9
:1014100021F00F5F1F4F2F4F3F4F9FBF322F212FC4
:10142000102F0027080F111D211D311D52E0000F44
:10143000111F221F331F5A95D1F7B801C9011F91FF
:101440000F910895CF92DF92EF92FF92CF93DF93A7
:101450006B017C01CDDFDC01CB01EC010EC0C8DFEC
:101460006C1B7D0B83E0683E780738F00894C10858
:10147000D108E108F108C851DC4FC114D104E104DE
:10148000F10469F7DF91CF91FF90EF90DF90CF905B
:1014900008951092610381E08093D70080EA8093E1
:1014A000D80082E189BD89B580FFFDCF61E070E0A1
:1014B00080E090E0C7DF80E98093D8008CE08093E3
:1014C000E2001092E000559A209A08956F927F9260
:1014D0008F929F92AF92BF92CF92DF92EF92FF9244
:1014E0000F931F93CF93DF93F82E6A0180916103CE
:1014F000882309F46AC0EB018A016AEFE62E77E0DF
:10150000B72EBF208F2D90E0E0E26E2E712C682266
:101510007922FAE3AF2EA0E48A2E912C8822992218
:101520004AC08F2DCBDB882349F4EA9409F44DC0DF
:1015300061E070E080E090E085DF3DC0282F30E082
:10154000021713070CF4802F081B11099FB7F8949A
:10155000B092E9006114710439F003C01092F100F7
:1015600081508823D9F71AC0F7FC03C0282FFE0149
:1015700011C0482F9E0107C0F9012F5F3F4FE49132
:10158000E093F10041504423B9F706C03191309304
:10159000F10021502223D1F7C80FD11D8091E8001E
:1015A00085FF06C00115110529F48114910411F07D
:1015B000A092E8009FBF0115110509F0B2CF5D9818
:1015C00084E680936303C60102C08FEF9FEFDF9133
:1015D000CF911F910F91FF90EF90DF90CF90BF9030
:1015E000AF909F908F907F906F900895EF92FF92B1
:1015F0000F931F93CF93DF930F92CDB7DEB78983FD
:101600008B017A0184E0BE016F5F7F4F41E050E0C3
:101610005DDF84E4B801A70159DF0F90DF91CF911E
:101620001F910F91FF90EF90089582E048E050E005
:10163000DDCFFC0116821782108611861286138672
:101640001482BC016C5F7F4FF0CFCF93DF93DC013E
:10165000E62F683810F0E85825C0F0E067FF13C0A7
:10166000E058F04081E090E002C0880F991FEA95B1
:10167000E2F7809514969C911497982314969C9366
:101680001497E0E00FC0E455FF4FE491EE23F1F032
:10169000E7FF08C014968C9114978D7F14968C9355
:1016A0001497EF77ED0186E0EE2321F09E819E17DF
:1016B00009F41E82815021968823B1F7BD016C5F29
:1016C0007F4FCD01B2DF81E090E002C080E090E08A
:1016D000DF91CF910895CF93DF93DC01E62F683837
:1016E00010F0E85825C0F0E067FF12C0E058F04065
:1016F00081E090E002C0880F991FEA95E2F7149606
:101700009C911497982B14969C931497E0E010C02A
:10171000E455FF4FE491EE2309F441C0E7FF08C010
:1017200014968C911497826014968C931497EF778B
:1017300016968C9116978E1741F117968C911797E4
:101740008E1719F118968C9118978E17F1F019963B
:101750008C9119978E17C9F01A968C911A978E173B
:10176000A1F01B968C911B978E1779F080E090E08A
:10177000ED01C80FD91F2E81222311F4EE8305C07D
:10178000019686309105A1F70AC0BD016C5F7F4FBD
:10179000CD014BDF81E090E0DF91CF91089581E0B2
:1017A00090E013969C938E93129780E090E0F4CF94
:1017B0000F931F93CF93DF930F92CDB7DEB78C01BA
:1017C000698380911103882351F083E0BE016F5F2C
:1017D0007F4F41E050E07ADE181619063CF081E0B8
:1017E00090E0F8019383828380E090E00F90DF9196
:1017F000CF911F910F910895019739F0880F991F8C
:10180000880F991F02970197F1F70895789484B58E
:10181000826084BD84B5816084BD85B5826085BDEC
:1018200085B5816085BDEEE6F0E0808181608083D2
:10183000E1E8F0E0108280818260808380818160B5
:101840008083E0E8F0E0808181608083E1EBF0E07C
:10185000808184608083E0EBF0E080818160808320
:10186000E1E9F0E080818260808380818160808313
:10187000E0E9F0E0808181608083E1ECF0E080814C
:1018800084608083808182608083808181608083A6
:10189000E3ECF0E0808181608083E0ECF0E0808127
:1018A00082608083E2ECF0E0808181608083EAE7FF
:1018B000F0E0808184608083808182608083808189
:1018C00081608083808180688083089590E0FC013E
:1018D000E159FD4F249183579D4FFC01849188234A
:1018E00041F190E0880F991FFC01E953FD4F4591AC
:1018F0005491DA0187549D4FFC0185919491FC012C
:101900009FB7F8948C91662331F4209582238C93B1
:101910008081822308C0623049F4322F30958323BE
:101920008C938081822B80839FBF0895822B8C9320
:101930009FBF08950F931F93CF93DF930F92CDB75F
:10194000DEB7282F30E0F901E15AFD4F8491F9010B
:10195000E159FD4F1491F901E357FD4F0491002324
:10196000C9F0882319F06983CFD86981E02FF0E0AE
:10197000EE0FFF1FE754FD4F85919491DC019FB757
:10198000F8948C91662319F41095812301C0812B62
:101990008C939FBF0F90DF91CF911F910F9108956E
:1019A000CF93DF93282F30E0F901E15AFD4F849166
:1019B000F901E159FD4FC491F901E357FD4FD4916D
:1019C000DD2389F0882309F09FD8ED2FF0E0EE0F9A
:1019D000FF1FE555FD4F85919491FC0120812C233B
:1019E00081E090E011F480E090E0DF91CF910895E4
:1019F000109267031092660388EE93E0A0E0B0E0D7
:101A00008093680390936903A0936A03B0936B0378
:101A100086E193E0909365038093640310925A03E8
:101A2000109251031092500388E293E090934F0379
:101A300080934E030895CF93DF9384E693E060E0B4
:101A400071EEC0D886E061E075DF85E061E072DFAD
:101A500086E061E03BDF85E061E038DF84E060E064
:101A600035DF0E949B180E94F01822D438D660ED12
:101A700077E080E090E0E6DCCFE0D5E0CE010E94A8
:101A80002F1BCE010E94201CCE010E94891C8AD1EE
:101A900000D085ED92E0EDB7FEB7928381830E947E
:101AA000F3230F900F90CBEBD3E0CE0157D0CE01B4
:101AB00062E044EF51E055D0DF91CF91089586DC8C
:101AC000DC01CB014091B7035091B8036091B90399
:101AD0007091BA03841B950BA60BB70B893E23E0CC
:101AE000920720E0A20720E0B207E8F06FDCDC01FB
:101AF000CB018093B7039093B803A093B903B0933D
:101B0000BA03B3D30E94E815D3D3E9D586D58FE0C5
:101B100095E00E94891C8FE095E00E94031C8FE0F5
:101B200095E00E94581CD4D1882319F0D4D10E948A
:101B30007F200C94D02A6ADE8BE593E0AADC7BDF61
:101B4000C0E0D0E0BCDF2097E9F30E940000FACFAC
:101B50001F920F920FB60F921124FFCF83E061E026
:101B6000B5CEBF92CF92DF92EF92FF920F931F9369
:101B7000CF93DF93B62E00E010E06A01EE24FF243D
:101B8000C62FD0E0219711C084B5806284BDC70103
:101B9000B60158DC84B58F7D84BD0C171D071CF47D
:101BA000C701B6014FDC0F5F1F4F0B1568F3DF91C4
:101BB000CF911F910F91FF90EF90DF90CF90BF904A
:101BC00008951F920F920FB60F9211248F9381E008
:101BD0008093C8038F910F900FBE0F901F901895A0
:101BE0000F931F93CF93C82F03DCAB01BC0100916F
:101BF000C0031091C1032091C2033091C303401B65
:101C0000510B620B730B40328EE4580780E068077B
:101C100080E0780708F450C08091C7038093C50323
:101C2000C093C7039091C5038091C703981709F427
:101C300043C0DEDBDC01CB018093C0039093C10382
:101C4000A093C203B093C3039091C7038091C603CE
:101C5000981731F48091C9039091CA03019605C089
:101C60008091C9039091CA0301979093CA0380930E
:101C7000C9036091CF037091D0038091C903909103
:101C8000CA039B012F5F3F4F4091CD035091CE037C
:101C90002817390724F45093CA034093C90380914D
:101CA000C9039091CA03415050408417950724F40A
:101CB0007093CA036093C903CF911F910F91089548
:101CC0000F931F93CF93C82F93DBAB01BC010091FF
:101CD000BC031091BD032091BE033091BF03401B94
:101CE000510B620B730B40328EE4580780E068079B
:101CF00080E07807B8F08091C6038093C403C09356
:101D0000C6039091C4038091C603981759F070DB05
:101D1000DC01CB018093BC039093BD03A093BE0371
:101D2000B093BF03CF911F910F9108951F920F920F
:101D30000FB60F9211242F933F934F935F936F939E
:101D40007F938F939F93AF93BF93CF93DF93EF9343
:101D5000FF93D1E01C9BD0E0C1E01D9BC0E08091CF
:101D6000D103D81711F08D2F3BDF8091D203C81714
:101D700011F08C2FA5DFD093D103C093D203FF9134
:101D8000EF91DF91CF91BF91AF919F918F917F9113
:101D90006F915F914F913F912F910F900FBE0F90D8
:101DA0001F9018958FEF9FE79093D0038093CF03F8
:101DB00080E090E89093CE038093CD031092CC0303
:101DC0001092CB031092CA031092C9031092C80359
:101DD00081E08093C7038093C6038093C5038093FB
:101DE000C4031092C0031092C1031092C203109258
:101DF000C3031092BC031092BD031092BE03109255
:101E0000BF0388E060E062DD89E060E05FDD87E0DD
:101E100060E05CDD81E0E4DE81E052DFEAE6F0E0F4
:101E2000808180628083EE9AE8E6F0E080818160C4
:101E30008083EBE6F0E080818063808308952FB794
:101E4000F894880F991F9093CA038093C903660F73
:101E5000771F7093CE036093CD03440F551F5093AB
:101E6000D0034093CF039093CC038093CB032FBF39
:101E700008952FB7F8948091C9039091CA03809177
:101E8000C9039091CA03817029F08091CB0390918E
:101E9000CC030AC08091C9039091CA039595879598
:101EA0009093CC038093CB032FBF0895E2DF209162
:101EB000D3033091D4038217930739F0DADF90937C
:101EC000D4038093D30381E008958091C8030895DB
:101ED0008091C80308951092C80308958BE061E0D3
:101EE000F5DC8DE061E0F2DC8CB58F7D8CBD8CB5CE
:101EF000887F8CBD8DB58E7F8DBD8CB588608CBD87
:101F00008CB584608CBD8CB580618CBD8CB58064D3
:101F10008CBD0895CF93DF93EC01862F6C8361E035
:101F2000D5DC88E28E83CE01D9DF24E030E20DC01B
:101F3000FE01E80FF91F3587019684319105C1F73D
:101F400019A221506596222319F080E090E0F0CF8D
:101F5000DF91CF910895CF93DF93EC018C8160E006
:101F6000E9DC8D818EBD0DB407FEFDCF8C8161E073
:101F7000E1DCDF91CF910895CF93DF93EC018D8168
:101F800082608D83CE01E7DF81E090E035DC8D81DA
:101F90008D7F8D83CE01DFDFDF91CF910895CF93C9
:101FA000DF93EC018D816295607F8F70682B6D836C
:101FB000CE01D1DFCE01E0DFDF91CF9108951F93F5
:101FC000CF93DF93EC01162F8D81442311F08160B4
:101FD00001C08E7F8D83CE01BEDF212F30E044E033
:101FE000359527954A95E1F7CE01622FD8DFCE01CE
:101FF000612FD5DFDF91CF911F9108951F93CF936C
:10200000DF93EC01162F41E0DADF4B858A8590E003
:1020100025E130E0829FF001839FF00D929FF00D4B
:102020001124EC0FFD1FE40FF11D15874F5F4B8747
:1020300080EA9FE00197F1F781E090E0DF91CF9196
:102040001F91089540E0BBDF80EA9FE00197F1F720
:102050000895FC0160856E7F60876460F3CFFC01AA
:102060006085262F226020876660ECCFFC016781A7
:10207000262F246027836C60E5CFCF93DF9300D0B9
:1020800000D0CDB7DEB7198220E42A8324E12B8368
:1020900024E52C83FC012485421708F040E0FC0174
:1020A00042876387FE01E40FF11D2181260F20681E
:1020B000622FC8DF0F900F900F900F90DF91CF919C
:1020C0000895CF93DF93EC0162E0BCDF1A861B8694
:1020D000DF91CF91089561E0B5CFCF93DF93EC010D
:1020E0004C871A861B861D8236DF80E593EC84DBE5
:1020F000CE0163E054DF80E593EC7EDBCE0163E04C
:102100004EDF88EE93E078DBCE0163E048DF80E5C8
:1021100093EC72DBCE0162E042DF80E593EC6CDB96
:10212000CE0160E83CDF80E593EC66DBCE01D3DFD7
:10213000CE0195DFCE018DDFCE01C3DFCE0196DF6C
:10214000DF91CF910895DA0120E030E075E1679FDB
:10215000B0011124680F791F90EBFB01E20FF31F10
:1021600085858F3D11F49C9301C08C932F5F3F4F69
:1021700011962431310589F7FA01148A0895EF92F6
:10218000FF920F931F93CF93DF93EC0179836883C2
:102190000C960E942A1DCE0186960E942A1DCE0111
:1021A000805C9F4F0E942A1D1B821C821D821E8202
:1021B0001A828FEF8F838EE090E0B8D88C0168810F
:1021C0000E9426222AE5E22EF12CEC0EFD1EF701DC
:1021D0001183008387E090E00E94DE1A8C01F701F2
:1021E000608171810E944519C45ADF4F19830883A9
:1021F000DF91CF911F910F91FF90EF900895CF93B2
:10220000DF93EC01FC01E65AFF4F8081918191D868
:10221000FE01E45AFF4F808191810E94F11ACE01A4
:10222000805C9F4F0E94301DCE0186960E94301D1B
:10223000CE010C960E94301DDF91CF910895813020
:10224000910551F488EA94E063E170E098DF82E45C
:1022500094E062E170E093CF009731F482E494E07F
:10226000CEDF88EA94E0CBCF089588EA94E00E941C
:10227000262F88EA94E00E94232F882351F480912E
:102280000804823611F0863621F488EA94E00E9430
:102290005A2E82E494E00E94262F82E494E00E9469
:1022A000232F882321F482E494E00C945A2E08957D
:1022B0008F929F92AF92BF92CF92DF92EF92FF9256
:1022C00080910804823619F0803709F097C1C090D8
:1022D0000904D0900A0480E0C81680E8D80629F4E2
:1022E000D0920C04C0920B048FC188EA94E00E9443
:1022F0001730C81AD90AD092E703C092E60388EAD9
:1023000094E00E941A30FC019093ED038093EC035B
:1023100080910E05982F9F5F90930E058C3309F0E6
:1023200054C010920E052091E6033091E703D901C5
:1023300037FF04C0AA27BB27A21BB30B809124043C
:10234000909125044091E8035091E9036091EA03DC
:102350007091EB03A817B9071CF5809120049091A8
:1023600021048E179F07E4F08091220490912304AA
:10237000E817F907ACF0AB31B1053CF1C901AA2768
:1023800097FDA095BA2F840F951FA61FB71F8093A6
:10239000E8039093E903A093EA03B093EB0315C01D
:1023A000DB01CA01E3E0B595A79597958795EA9576
:1023B000D1F7481B590B6A0B7B0B4093E8035093F2
:1023C000E9036093EA037093EB032091E6033091F5
:1023D000E7038091FA039091FB03AA2797FDA0954C
:1023E000BA2F4427582F692F7A2F481B590B6A0B95
:1023F0007B0B37FF2BC08091180490911904AA27FA
:1024000097FDA095BA2F480F591F6A1F7B1F452FB4
:10241000562F672F772767FD7A955093FB034093DC
:10242000FA038091FC039091FD03AA2797FDA095E4
:10243000BA2F4427582F692F7A2F481B590B6A0B44
:102440007B0B80911C0490911D042AC0809116047E
:1024500090911704AA2797FDA095BA2F480F591FEE
:102460006A1F7B1F452F562F672F772767FD7A95A9
:102470005093FB034093FA038091FC039091FD037A
:10248000AA2797FDA095BA2F4427582F692F7A2F96
:10249000481B590B6A0B7B0B80911E0490911F0403
:1024A000AA2797FDA095BA2F480F591F6A1F7B1FB7
:1024B000452F562F672F772767FD7A955093FD0399
:1024C0004093FC036091FA037091FB03882777FD2A
:1024D0008095982F442737FD4095542F0E943C301B
:1024E0004B015C01F9E0B594A79497948794FA9511
:1024F000D1F78092EE039092EF03A092F003B09296
:10250000F10360911A0470911B04882777FD809570
:10251000982F2091E8033091E9034091EA0350910C
:10252000EB030E943C306B017C01A9E0F594E79439
:10253000D794C794AA95D1F7C092F203D092F3032F
:10254000E092F403F092F5036091FC037091FD03B7
:10255000882777FD8095982F2091EC033091ED032B
:10256000442737FD4095542F0E943C30AB01BC01FD
:10257000B9E07595679557954795BA95D1F740930A
:10258000F6035093F7036093F8037093F903809177
:10259000090490910A04AA2797FDA095BA2F880DE7
:1025A000991DAA1DBB1D8C0D9D1DAE1DBF1D840F49
:1025B000951FA61FB71F2091120430911304A90183
:1025C000662757FD6095762F84179507A607B707EE
:1025D00084F04091140450911504662757FD6095CE
:1025E000762F481759076A077B0714F4DB01CA01E5
:1025F0009C0130930C0420930B0406C080E090E80B
:1026000090930A0480930904FF90EF90DF90CF909D
:10261000BF90AF909F908F9008958091E503843094
:1026200038F4823088F4882331F0813069F406C0B0
:10263000843051F403C086E060E008C086E061E0C9
:1026400079D985E060E005C086E061E073D985E076
:1026500061E070C90F931F930E94E6098B019C01F2
:102660008091D5039091D603A091D703B091D80360
:10267000081B190B2A0B3B0BB801C9011F910F91C5
:1026800008950F931F930E94E6098B019C0180918E
:10269000D9039091DA03A091DB03B091DC03081B0E
:1026A000190B2A0B3B0BB801C9011F910F9108951B
:1026B0000F931F930E94E6098B019C018091DD031B
:1026C0009091DE03A091DF03B091E003081B190B8A
:1026D0002A0B3B0BB801C9011F910F9108958F92EE
:1026E0009F92AF92BF92CF92DF92EF92FF9284E0DF
:1026F00057D9009789F48091E503843059F000D0D0
:1027000088EE92E0EDB7FEB7928381830E94F323B7
:102710000F900F9084E005C0809108048F3621F45B
:1027200085E08093E503B2C180910B0490910C0485
:10273000F0E880309F0709F480C182E494E00E94B1
:10274000232F882309F479C188EA94E00E94232F7B
:10275000882309F089C180910804823609F46DC18B
:10276000803709F081C169C10E94E609DC01CB0113
:102770008093DD039093DE03A093DF03B093E00327
:1027800069DFDC01CB01813A2BEB92072DE0A20738
:1027900020E0B20720F48091E303882379F471DF0D
:1027A000DC01CB01813CE7E29E07E9E0AE07E0E017
:1027B000BE0748F48091E403882329F08091E50363
:1027C000833009F049C082E494E00E9414302091E3
:1027D0000B0430910C044091260450912704240FDF
:1027E000351F28173907A4F480910804863669F04C
:1027F00088EA94E00E9414302091090430910A0480
:10280000265E3F4F281739073CF51092E5033EC17D
:1028100082E494E00E94143020910B0430910C0467
:102820004091280450912904240F351F82179307E3
:102830009CF480910804863669F088EA94E00E944E
:1028400014302091090430910A042A513040821733
:10285000930714F481E065CFFDDEDC01CB01813408
:10286000F7E79F07FBE1AF07F0E0BF0710F010921A
:10287000E30307DFDC01CB01813A2BEB92072DE06C
:10288000A20720E0B20708F401C11092E403FEC0E1
:1028900081E08093E3030E94E609DC01CB01809391
:1028A000D5039093D603A093D703B093D803809019
:1028B000340490903504AA24BB24FADE28EEC22EFC
:1028C00023E0D22EE12CF12CA70196010E946E305C
:1028D00082169306A406B50628F42091340430919C
:1028E000350405C0E5DEA70196010E946E306091B7
:1028F0000F0470911004882777FD8095982F442746
:1029000037FD4095542F0E943C3020E13EE040E0EE
:1029100050E00E949030690182E494E00E941430FB
:10292000FC01EC19FD09F093FF03E093FE03C09056
:102930000B04D0900C0480912E0490912F042091D0
:10294000300430913104820F931F62E070E00E94E6
:102950005B306C0D7D1D6E177F070CF497C0D09215
:102960000104C092000469C08093E4030E94E60958
:10297000DC01CB018093D9039093DA03A093DB03AE
:10298000B093DC038090320490903304AA24BB24DB
:102990008FDEF8EECF2EF3E0DF2EE12CF12CA70135
:1029A00096010E946E3082169306A406B50628F49E
:1029B000209132043091330405C07ADEA7019601DC
:1029C0000E946E3060910D0470910E04882777FD8F
:1029D0008095982F442737FD4095542F0E943C3016
:1029E00020E13EE040E050E00E949030690182E446
:1029F00094E00E941430FC01EC0DFD1DF093FF03E8
:102A0000E093FE03C0900B04D0900C0480912A0444
:102A100090912B0420912C0430912D04820F931F50
:102A200062E070E00E945B306C0D7D1DE617F707D9
:102A30006CF1D0920304C092020482E072CE84E072
:102A40000E94D00C8130910509F500D08BEF92E007
:102A5000EDB7FEB7928381830E94F32382E08093D7
:102A6000E5030F900F9012C08091E503843048F485
:102A7000823008F079CE882309F40ACF813031F40E
:102A800073CF8430E1F2853009F46ECEFF90EF9081
:102A9000DF90CF90BF90AF909F908F90089588E087
:102AA00094E061E070E049E050E00E948D35809153
:102AB000090490910A049093E2038093E10308953E
:102AC0000F931F93CF93DF93EC01F5E07595679516
:102AD000FA95E1F766567E4F8B01222717FD209568
:102AE000322F0F3F11052105310571F06CF00B39C4
:102AF00081E0180780E0280780E038074CF00AE9F9
:102B000011E020E030E004C000E011E020E030E01F
:102B100068817981882777FD8095982FA901980190
:102B20000E943C30DC01CB01E9E0B595A795979573
:102B30008795EA95D1F799838883B1DFDF91CF91AB
:102B40001F910F9108950F931F93CF93DF93EC0183
:102B5000F5E075956795FA95E1F76A597D4F8B0118
:102B6000222717FD2095322F063682E0180780E0D5
:102B7000280780E038076CF0013083E0180780E018
:102B8000280780E038074CF000E013E020E030E058
:102B900004C006E612E020E030E0688179818827F1
:102BA00077FD8095982FA90198010E943C30DC01A7
:102BB000CB01E9E0B595A79597958795EA95D1F76B
:102BC000998388836CDFDF91CF911F910F910895D6
:102BD000AF92BF92CF92DF92EF92FF920F93CF937B
:102BE000DF93CDB7DEB76B970FB6F894DEBF0FBE9D
:102BF000CDBF8091E403882309F4D2C08091E5031E
:102C0000813009F4CDC082E494E00E942C307C0134
:102C100020E88030920751F18091020490910304E2
:102C200020912A0430912B04820F931F8E159F054B
:102C300034F4B701681B790B8DE094E084DF809158
:102C400002049091030420912C0430912D04820FF2
:102C5000931FE816F90634F4B701681B790B8DE071
:102C600094E02EDF00D08EE093E042C00ADDDC016C
:102C7000CB01813AE9ED9E07E8E0AE07E0E0BE0750
:102C800008F48EC0E7DCDC01CB018138FDE69F074C
:102C9000FDE0AF07F0E0BF0708F482C082E494E0F3
:102CA0000E941430209102043091030440912C04BE
:102CB00050912D04240F351F821793070CF070C01C
:102CC00082E494E00E9414307C018091020490918F
:102CD000030420912C0430912D04820F931FB7011F
:102CE000681B790B8DE094E0EBDE00D086E293E088
:102CF000ADB7BEB712969C938E9311970E941A247B
:102D00000F900F90A701662757FD6095762FCE0193
:102D1000439623E009E00E946E2C5C01409102047E
:102D200050910304662757FD6095762FCE010A96D1
:102D300023E00E946E2C6C0140910D0450910E0412
:102D4000662757FD6095762FCE01019623E00E94FD
:102D5000892BEDB7FEB738970FB6F894FEBF0FBEBC
:102D6000EDBF31962BE433E0ADB7BEB712963C937E
:102D70002E931197B382A282D582C48297838683D1
:102D80000E941A241092E403F0920704E0920604D1
:102D9000EDB7FEB738960FB6F894FEBF0FBEEDBF85
:102DA0008091E303882309F4CFC08091E503882351
:102DB00009F4CAC082E494E00E942F307C01F0E85C
:102DC00080309F0781F1809100049091010420914F
:102DD000300430913104820F931FE816F90634F461
:102DE000B701681B790B8FE094E0ADDE80910004A1
:102DF0009091010420912E0430912F04280F391F47
:102E00002E153F0564F42091300430913104280FD1
:102E1000391FB701621B730B8FE094E051DE00D0C5
:102E200085E793E039C02DDCDC01CB01813AE9ED87
:102E30009E07E8E0AE07E0E0BE0708F485C00ADCC4
:102E4000DC01CB018138FDE69F07FDE0AF07F0E034
:102E5000BF0708F479C082E494E00E941430209106
:102E600000043091010440912E0450912F04420F30
:102E7000531F481759070CF067C080913004909198
:102E80003104820F931FB701681B790B8FE094E028
:102E900017DE00D08DE893E0ADB7BEB712969C93D5
:102EA0008E9311970E941A240F900F90A701662706
:102EB00057FD6095762FCE01019623E009E00E9430
:102EC0006E2C5C014091000450910104662757FD6F
:102ED0006095762FCE010A9623E00E946E2C6C013D
:102EE00040910F0450911004662757FD6095762F8E
:102EF000CE01439623E00E94892BEDB7FEB73897A9
:102F00000FB6F894FEBF0FBEEDBF319624EB33E051
:102F1000ADB7BEB712963C932E931197B382A2829F
:102F2000D582C482978386830E941A241092E30379
:102F3000F0920504E0920404EDB7FEB738960FB6A0
:102F4000F894FEBF0FBEEDBF6B960FB6F894DEBFD0
:102F50000FBECDBFDF91CF910F91FF90EF90DF902B
:102F6000CF90BF90AF90089588E094E061E070E06A
:102F700049E050E00C94753582E68093080480E0C7
:102F800098E290930A048093090490930C04809330
:102F90000B0480E190E090930E0480930D0480E098
:102FA0009AE09093100480930F0479CD81E194E02E
:102FB0006AE070E041E350E00C948D3581E194E0EB
:102FC0006AE070E041E350E00C9475350F931F9375
:102FD000CF93DF9383E48093110488E592E090938C
:102FE00033048093320480EB94E090933504809313
:102FF000340480E09CE3909315048093140480E0F3
:1030000098E0909313048093120480E09EE19093E3
:1030100017048093160490931904809318048AE986
:1030200090E090931B0480931A0480E09AEF9093B1
:103030001D0480931C0490931F0480931E048AE156
:1030400090E090932104809320048DEC9FEF909367
:1030500023048093220420E031E030932504209360
:103060002404309327042093260420E03FEF30937C
:1030700029042093280426E630E030932B04209383
:103080002A0490932D0480932C0483E390E0909382
:103090002F0480932E048AE99FEF9093310480934C
:1030A000300481E096E09093370480933604C2E4C4
:1030B000D4E0CE0161E076E00E94323084E09CE012
:1030C0009093390480933804CE0164E07CE00E9440
:1030D000353003E01AE010933B0400933A04CE012C
:1030E00063E07AE00E94383082E098E090933D04FB
:1030F00080933C04C8EAD4E0CE0162E078E00E940C
:10310000323085E09EE090933F0480933E04CE01F0
:1031100065E07EE00E943530109341040093400446
:10312000CE0163E07AE00E94383040DFDF91CF913A
:103130001F910F91089580E090E00E9485358130C5
:1031400049F01ADF43DF80E090E061E00E94AE3595
:10315000A6DC2CCF09DF32CF809308048F56823053
:1031600050F480E090E890930A04809309049093CF
:103170000C0480930B0493CC8091080408958091F3
:10318000E503089588EA94E00C941430FBDF209165
:10319000090430910A04281739076CF48091180447
:1031A000909119049093FB038093FA0380911C047F
:1031B00090911D040CC08091160490911704909377
:1031C000FB038093FA0380911E0490911F04909357
:1031D000FD038093FC031092E4031092E30308952F
:1031E00083E08093E50388EA94E00E945A2E82E40B
:1031F00094E00E945A2E39D8C9CF80910904909149
:103200000A04089582E494E00C94143080910B0435
:1032100090910C040895CF93DF93EC018091090401
:1032200090910A04D0930A04C09309048C1B9D0B4F
:1032300097FF03C0909581959F4F813891050CF0C1
:10324000A5DF36D84CDA8091E1039091E2038C1B24
:103250009D0B97FF03C0909581959F4F81389105F5
:103260000CF01DDCDF91CF91089590930C048093B6
:103270000B048CDF1DD833DA12CC81E090E00C9483
:103280001F1180E090E00C941F11FC017683658390
:103290001482108289E090E09283818381E08383AD
:1032A0000895CF93DF93EB01CB0167E00E94CC221E
:1032B00091E02F81821390E0892FDF91CF910895C3
:1032C000EF92FF920F931F93CF93DF93EC018B014B
:1032D000E42E8D819E810E941922FF2406C0CE011A
:1032E000B801DFDF882359F414C08D819E81B801B5
:1032F0000E944922882329F0FE1459F4F0CF81E07E
:1033000001C080E0DF91CF911F910F91FF90EF906E
:103310000895F394EF14A8F3E8CFEF92FF920F9380
:103320001F93CF93DF93EC017B018A018D819E81F6
:1033300058D78D819E81B7010E94E9218D819E81A0
:103340006EEB40E0E8D78D819E810E94CE21F8018E
:1033500080838D819E810E94CE21F80181838D81A1
:103360009E810E94CE21F80182838D819E810E94E0
:10337000CE21F80183838D819E810E94CE21F801A8
:1033800084838D819E810E94CE21F80185838D8169
:103390009E810E94CE21F80186838D819E81FED779
:1033A000F80187838D819E81F9D7F80180878D810F
:1033B0009E8117D7DF91CF911F910F91FF90EF90D2
:1033C0000895CF93DF93EA01A8DFCE0168E00E9461
:1033D000CC2291E02885821390E0892FDF91CF9154
:1033E0000895EF92FF920F931F93CF93DF938C0179
:1033F000EB017A01FC0185819681F3D6F801858184
:103400009681BE01E6D7F801858196816EE440E0A1
:1034100082D7F80185819681F701628140E07BD7F0
:10342000F80185819681F701638140E074D7888136
:10343000803139F0F80185819681F701648140E09F
:103440006AD7F80185819681CCD6F801858196816D
:1034500068E4408160D7F8018081882331F06AE018
:1034600070E080E090E00E94220AF8018581968158
:10347000B8D6DF91CF911F910F91FF90EF900895F3
:10348000EF92FF920F931F93CF93DF93CDB7DEB7E9
:103490002A970FB6F894DEBF0FBECDBF7C018B011B
:1034A000242FAE014F5F5F4F2A878BDF2A85882349
:1034B000D9F0F80180818031C9F02A3051F02A30EA
:1034C00050F02B3021F02C3031F48FE705C08FE520
:1034D00003C08FE301C08FE18D83C701B801AE0146
:1034E0004F5F5F4F7EDF02C080E001C081E02A961F
:1034F0000FB6F894DEBF0FBECDBFDF91CF911F9105
:103500000F91FF90EF900895CF93DF93EC018D81A1
:103510009E8167D68D819E8189D78D819E8164E44D
:103520004881F9D68B81882321F189819A8189305C
:10353000910551F089309105B4F08A30910549F038
:103540008B30910581F40AC06EE570E080E090E078
:103550000EC06CEB70E080E090E009C067E771E0BE
:1035600080E090E004C06EEE72E080E090E00E94A7
:10357000220ADF91CF910895CF93DF93CDB7DEB7C5
:1035800029970FB6F894DEBF0FBECDBFAE014F5FD7
:103590005F4F17DF882339F03A8120E0898190E07E
:1035A000822B932B02C081E89FEF29960FB6F894E7
:1035B000DEBF0FBECDBFDF91CF9108950F931F9354
:1035C000CF93DF93EC010E94C5308C0160E070E086
:1035D000AE010E943033C801DF91CF911F910F914E
:1035E00008950C945B3108958130910559F410923F
:1035F00012051092110586E393E0909310058093D5
:103600000F050895009731F486E393E09093100539
:1036100080930F0508950F931F93CF93DF93CDB73A
:10362000DEB765970FB6F894DEBF0FBECDBF8C0135
:10363000CE01019644E150E00E941C33C801BE0156
:103640006F5F7F4F0E94060965960FB6F894DEBF44
:103650000FBECDBFDF91CF911F910F910895CF93F2
:10366000DF93EC01FC01EF59FF4F8FEF8083CE0118
:103670006AE00E948A0FCE0164E144E00E946D106E
:10368000CE010E946B10DF91CF9108958F929F928F
:10369000AF92BF92CF92DF92FF920F931F93CF937F
:1036A000DF93CDB7DEB729970FB6F894DEBF0FBE14
:1036B000CDBF4C01CB01AC01662757FD6095762F3D
:1036C0006E010894C11CD11CC60121E009E00E94D2
:1036D0006E2C00E010E0FC2CCD2C85E0A82EB12C47
:1036E00005C060E20E94FE0F0F5F1F4F8F2D9C2DC3
:1036F0000E9448339501281B390BC4010217130798
:1037000080F36F2D7C2D0E94060929960FB6F89440
:10371000DEBF0FBECDBFDF91CF911F910F91FF9004
:10372000DF90CF90BF90AF909F908F900895CF93F0
:10373000DF93D82FC92F6CE042E00E943D1066DD78
:10374000BC0180E86030780731F48D2F9C2F61EF49
:1037500073E061DF03C08D2F9C2F98DFDF91CF9145
:103760000895CF93DF93D82FC92F66E042E00E94DF
:103770003D1082E494E00E94232F882331F042DD43
:10378000BC018D2F9C2F82DF05C08D2F9C2F6BEEEF
:1037900073E041DFDF91CF910895CF93DF93D82F6E
:1037A000C92F6CE041E00E943D1027DDBC0180E89C
:1037B0006030780731F48D2F9C2F65EE73E02BDF9E
:1037C00003C08D2F9C2F62DFDF91CF910895CF939F
:1037D000DF93D82FC92F66E041E00E943D1088EAB0
:1037E00094E00E94232F882331F0CCDCBC018D2F84
:1037F0009C2F4CDF05C08D2F9C2F6FED73E00BDFEE
:10380000DF91CF910895CF93DF93EC01E0DFCE01FC
:10381000C4DFCE01A6DFCE018ADFDF91CF9108950C
:10382000CF93DF93D82FC92F6FED0E94FE0F8D2FFE
:103830009C2F609111040E94FE0FDF91CF9108959B
:10384000CF93DF93D82FC92F60E040E00E943D1056
:103850008D2F9C2F67EF73E0DEDE8D2F9C2F60E0B5
:1038600041E00E943D108D2F9C2F6FEF73E0D3DE5F
:103870008D2F9C2F60E042E00E943D108D2F9C2FE9
:1038800067E074E0C8DE8D2F9C2F62E141E00E946A
:103890003D108D2F9C2FC4DF8D2F9C2F62E142E0C5
:1038A0000E943D108D2F9C2FBBDFDF91CF9108959B
:1038B000CF93DF93D82FC92F67E040E00E943D10DF
:1038C0005BDC863651F0873618F48236D1F40AC0B4
:1038D0008F3691F08037A9F40AC08D2F9C2F6FE0AE
:1038E00074E013C08D2F9C2F6DE174E00EC08D2FFE
:1038F0009C2F6BE274E009C08D2F9C2F69E374E06C
:1039000004C08D2F9C2F67E474E085DEDF91CF919A
:103910000895CF92DF92EF92FF920F931F93CF9370
:10392000DF93EC012CDC182FFE01EF59FF4F808153
:103930001817C9F1CC2E0D2FCE0160E043E00E9494
:103940003D101DDC823071F0833028F4882391F023
:10395000813001F513C08430A9F0843038F085300F
:10396000C9F414C0CE0165E574E018C0CE016AE662
:1039700074E014C0CE016FE774E010C0CE0164E9BA
:1039800074E00CC0CE0169EA74E008C0CE016EEBB1
:1039900074E004C08C2D902F63ED74E03CDEFE01DA
:1039A000EF59FF4F1083123070F1123009F043C00D
:1039B0001C2F0D2FCE0169E043E00E943D100E94B4
:1039C0002A136B017C010E944113DC01CB01C81654
:1039D000D906EA06FB0618F40E942A1302C00E94C8
:1039E000411328EE33E040E050E00E946E30BA010F
:1039F000CE01A9012AE030E00E948909812F902F91
:103A000068EE74E017C0CE016CE043E00E943D1008
:103A10000E94581328EE33E040E050E00E946E30E0
:103A2000CE01BA01A9012AE030E00E948909CE0145
:103A30006BEE74E0F0DDDF91CF911F910F91FF905D
:103A4000EF90DF90CF90089581E090E0CDCD80E0C1
:103A500090E0CACDFC0188E0808F82E0818F0895DC
:103A60000895FC01708F618F08952F923F924F92BD
:103A70005F926F927F928F929F92AF92BF92CF92FE
:103A8000DF92EF92FF920F931F93CF93DF93FC018E
:103A90004480558066807780408651866286738632
:103AA00080809180A280B38084829582A682B78232
:103AB0004083518362837383C088D188E288F3880E
:103AC000C48AD58AE68AF78A84859585A685B785CE
:103AD000808B918BA28BB38BD18DC08D2C2E3324F8
:103AE0008C019D010C191D092E093F09080F191F92
:103AF0002A1F3B1F0D2E04C0B595A7959795879556
:103B00000A94D2F7081B190B2A0B3B0BD701C601ED
:103B100004C0B595A79597958795DA95D2F7080FC4
:103B2000191F2A1F3B1FDB01CA010C2E04C0B595CB
:103B3000A795979587950A94D2F7080F191F2A1F02
:103B40003B1FC1010197B501A40104C0759567959C
:103B5000579547958A95D2F7040F151F261F371FD3
:103B6000D301C20104C0B595A79597958795CA95CD
:103B7000D2F7080F191F2A1F3B1FC1010297B70177
:103B8000A60104C075956795579547958A95D2F714
:103B9000041B150B260B370B0487158726873787E1
:103BA000B801C901DF91CF911F910F91FF90EF9064
:103BB000DF90CF90BF90AF909F908F907F906F904D
:103BC0005F904F903F902F9008959B01A901662729
:103BD00057FD6095762FBA015527442746DFAB0184
:103BE000BC01AB01772757FD7095672FCA01089577
:103BF000FC014485558566857785AB01772757FDA0
:103C00007095672FCA010895FC01648575858685C6
:103C100097850895FC01CB01AA2797FDA095BA2F9F
:103C2000DC019927882780839183A283B3838483CF
:103C30009583A683B78380879187A287B38784877C
:103C40009587A687B787808B918BA28BB38B848B4C
:103C5000958BA68BB78B0895FC01408951896289A9
:103C6000738984859585A685B78584179507A607EA
:103C7000B7075CF484899589A689B78948175907DD
:103C80006A077B072CF0CB01089580E090E8089547
:103C900080E090E80895FC01408951896289738928
:103CA00084859585A685B785481759076A077B07D8
:103CB0005CF484899589A689B78984179507A60736
:103CC000B7072CF0CB01089580E090E8089580E0DC
:103CD00090E80895AF92BF92CF92DF92EF92FF9259
:103CE0000F931F93CF93DF93CDB7DEB729970FB60E
:103CF000F894DEBF0FBECDBF8FE095E0A1DD7DDA89
:103D00005C0120E88030920719F460E078E201C09D
:103D1000BC01882777FD8095982F0E94ED2D8C019E
:103D20006091120470911304882777FD8095982F75
:103D30000E94ED2D6C016091140470911504882788
:103D400077FD8095982F0E94ED2DAC01C801B6013A
:103D50000E941F0F0E94E6096B017C014DC00E946A
:103D6000560F882371F10E94E6096B017C010E94C5
:103D7000390F0E94232E4FDA8FE095E00EDD0E946E
:103D8000680F8823C9F10E946B0F37DAAC016627F0
:103D900057FD6095762FCE01019621E009E00E9443
:103DA0006E2C00D000D025E435E0EDB7FEB73283AD
:103DB000218394838383F1D40F900F900F900F9001
:103DC0002FC0112321F48FE095E0E7DC0DC01038FF
:103DD00059F48FE095E06CE041E00E943D108FE0E7
:103DE00095E065E775E017DC1F5F63E070E080E059
:103DF00090E00E94220A01C010E00E94E609DC0166
:103E0000CB018C199D09AE09BF098031F7E29F07EC
:103E1000F0E0AF07F0E0BF0708F4A1CFC501FBD980
:103E200029960FB6F894DEBF0FBECDBFDF91CF91BC
:103E30001F910F91FF90EF90DF90CF90BF90AF90C8
:103E40000895AF92BF92CF92DF92EF92FF920F93BD
:103E50001F93CF93DF93CDB7DEB729970FB6F894B2
:103E6000DEBF0FBECDBF8FE095E0EADCCFD95C01AD
:103E700020E88030920719F460E078E201C0BC01CC
:103E8000882777FD8095982F0E94ED2D8C016091F9
:103E9000120470911304882777FD8095982F0E9453
:103EA000ED2D6C016091140470911504882777FD45
:103EB0008095982F0E94ED2DAC01C801B6010E949B
:103EC0001F0F0E94E6096B017C014DC00E94560F36
:103ED000882371F10E94E6096B017C010E94390F71
:103EE0000E94232EC2D98FE095E021DC0E94680F4A
:103EF0008823C9F10E946B0F89D9AC01662757FD51
:103F00006095762FCE01019621E009E00E946E2C8B
:103F100000D000D02BE735E0EDB7FEB73283218328
:103F20009483838360D40F900F900F900F902FC0D5
:103F3000112321F48FE095E0FADB0DC0103859F41D
:103F40008FE095E06CE042E00E943D108FE095E04C
:103F50006DEA75E060DB1F5F63E070E080E090E099
:103F60000E94220A01C010E00E94E609DC01CB0198
:103F70008C199D09AE09BF098031F7E29F07F0E077
:103F8000AF07F0E0BF0708F4A1CFC5016ED92996AD
:103F90000FB6F894DEBF0FBECDBFDF91CF911F915A
:103FA0000F91FF90EF90DF90CF90BF90AF9008956A
:103FB000CF92DF92EF92FF920F931F93CF93DF93F5
:103FC00000D000D0CDB7DEB78FE095E039DCD4D893
:103FD000182FE82FE656EB3028F4F0E0E65CFC4FB3
:103FE000808101C080E090E060E070E043E050E05C
:103FF0000E941F0F82E6898386E68A8380E78B838F
:104000008FE68C830E94E6096B017C0157C00E94F9
:10401000560F882309F437C00E94E6096B017C0122
:104020000E94390FE1E0F0E0EC0FFD1FE80FF91FEF
:10403000808192D88FE095E03BDC0E94680F882356
:1040400009F43CC00E946B0F97D8823611F442DE0F
:1040500049C092D8863611F4F4DE44C08DD880373A
:1040600021F400D085EF94E006C086D88F36D1F5D4
:1040700000D086E195E0EDB7FEB7928381838DD3C2
:104080000F900F902FC0002321F48FE095E010DCFB
:104090000DC0003859F48FE095E067E040E00E94E1
:1040A0003D108FE095E067E375E0B5DA0F5F63E000
:1040B00070E080E090E00E94220A01C000E00E94CF
:1040C000E609DC01CB018C199D09AE09BF098031DD
:1040D000F7E29F07F0E0AF07F0E0BF0708F497CFE3
:1040E000812F3AD80F900F900F900F90DF91CF91C2
:1040F0001F910F91FF90EF90DF90CF900895CF9296
:10410000DF92EF92FF92CF9380E090E060E070E06A
:1041100042E050E00E941F0F0E94E6096B017C0103
:10412000C0E048C00E94560F882329F00E94E6098B
:104130006B017C0102C0CC2329F48FE095E080DB89
:10414000C0E00FC0C03869F40E94390F482F8FE0DB
:1041500095E060E00E943D108FE095E06EEE74E027
:104160005ADA0E94680F8823F1F00E946B0F0E94B8
:10417000390F8130910539F08230910561F0009757
:1041800091F416DF28C082E60E94AC188FE095E01B
:104190008FDBA0DD20C086E60E94AC188FE095E0A2
:1041A00087DB4FDE18C0CF5F63E070E080E090E017
:1041B0000E94220A0E94E609DC01CB018C199D09AC
:1041C000AE09BF09803127E2920720E0A20720E074
:1041D000B20708F4A7CFCF91FF90EF90DF90CF9078
:1041E0000895FF920F931F93CF93DF93FC011081EB
:1041F000C181D281F8948981012F00958023898320
:1042000078948DE7F82EFA9431F182E090E00E94E4
:10421000FC0B88818123B9F3F8948A8180238A83F7
:104220008981812B8983789484EF91E00E94FC0B33
:10423000F89489818023898380E590E00E94FC0BBB
:1042400088818123C1E009F0C0E0789484EA91E09C
:104250000E94FC0B01C0C0E08C2FDF91CF911F9119
:104260000F91FF9008951F93CF93DF93FC0110816E
:10427000C181D281912F9095F8948A8189238A8374
:104280008981812B898360FF0BC08AE090E00E94C6
:10429000FC0B8A81812B8A83789487E390E00AC0A3
:1042A00081E490E00E94FC0B8A81812B8A837894C0
:1042B00085E090E00E94FC0BDF91CF911F91089563
:1042C0000F931F93CF93DF93FC011081C181D281A3
:1042D000F8948981812B89838A81012F009580231D
:1042E0008A8383E090E00E94FC0B8981802389838C
:1042F0008AE090E00E94FC0BC881789485E390E00E
:104300000E94FC0B1C2381E009F480E0DF91CF9137
:104310001F910F910895CF92DF92EF92FF920F932A
:104320001F93CF93DF930F92CDB7DEB78C01F62E9C
:1043300028E0C22ED12CEE24E3948E2D8F2161E053
:1043400009F460E0C80149838EDFEE0C0894C108CF
:10435000D1084981C114D10481F74423A9F4F89408
:10436000D8011196ED91FC91129791818C918095D5
:10437000892381831196ED91FC91129792818C9102
:1043800080958923828378940F90DF91CF911F913C
:104390000F91FF90EF90DF90CF900895EF92FF92F2
:1043A0000F931F93CF93DF938C01C8E0D0E0FF24DD
:1043B000EE24E394C80184DF8111FE28EE0C2197DE
:1043C000C9F78F2DDF91CF911F910F91FF90EF9043
:1043D0000895CF92DF92EF92FF920F931F93CF93A6
:1043E000DF930F92CDB7DEB77C01C62E65E540E0C6
:1043F000798391DF0C2D7981172FCC24DD24F801EE
:1044000061918F01C70140E086DF0894C11CD11C77
:10441000F8E0CF16D10499F70F90DF91CF911F915B
:104420000F91FF90EF90DF90CF9008956CEC40E0FB
:1044300072CFFC01138615861486128611861086AB
:104440001782168215821482138208951F93CF93C8
:10445000DF93EC01162F862F60E00E94660C612F1F
:1044600070E0FB01E159FD4FE491E883FB01E35764
:10447000FD4FE491F0E0EE0FFF1FE555FD4F8591F4
:10448000949189839A83CE01D4DFDF91CF911F91DC
:104490000895BF92CF92DF92EF92FF920F931F93F6
:1044A000CF93DF93EC016B018D85882309F052C017
:1044B000CE0197DE882321F41B861D861C865BC0F7
:1044C000CE0160EF40E027DF01E0FF24EE2411E0A1
:1044D000CE01F6DEB82ECE01F3DE91E0B91619F466
:1044E0008130A9F42FC0B816D1F48B85181738F491
:1044F000FE01EF0DF11D8381802349F402C01817DE
:1045000031F060E0193008F040C01C873EC0FE0169
:10451000EF0DF11D8381802B838361E009C06B2D3A
:10452000FE01EF0DF11D902F9095838189238383E8
:10453000CE0199DE1F5F000F11F4F39401E087E0D4
:104540008F1530F6113430F0EB86EE2001F581E066
:104550008D871DC01B861D861C8680E0D60120E04D
:1045600030E0FE01E20FF31F93819D932F5F3F4FD9
:1045700028303105B1F7DF91CF911F910F91FF9056
:10458000EF90DF90CF90BF900895E12EC9CF8B813F
:10459000882301F381E0E2CFDC0180E007C0ED91E8
:1045A000E827F0E0ED54FA4F849161506623B9F7A3
:1045B0000895CF93DF93CDB7DEB7C058D0400FB684
:1045C000F894DEBF0FBECDBFFE01EB57FF4F419108
:1045D0005191CE01019660E870E09F010E947E3308
:1045E00084E693E0BE016F5F7F4F0E940609C058CA
:1045F000DF4F0FB6F894DEBF0FBECDBFDF91CF9176
:104600000895CF92DF92EF92FF920F93CF93DF93B3
:10461000CDB7DEB729970FB6F894DEBF0FBECDBF7A
:104620007C016B010E94C218AC01662757FD6095A2
:10463000762FCE01019622E009E00E946E2C00D078
:1046400000D02AE137E0EDB7FEB7328321839483AF
:104650008383AFDF0F900F900F900F900E94FD1893
:10466000AC01662757FD6095762FCE01019622E0BA
:104670000E946E2C00D000D02CE237E0EDB7FEB7E0
:10468000328321839483838394DF0F900F900F9064
:104690000F90E114F10459F400D08AE397E0EDB7EC
:1046A000FEB79283818385DF0F900F900FC000D0FB
:1046B00000D08AE497E0EDB7FEB792838183F4825D
:1046C000E38277DF0F900F900F900F900E940219F6
:1046D000AC01662757FD6095762FCE01019622E04A
:1046E00009E00E946E2C00D000D02AE537E0EDB73B
:1046F000FEB732832183948383835BDF0F900F9017
:104700000F900F900E940619AC01662757FD609527
:10471000762FCE01019622E00E946E2C00D000D0B0
:104720002BE637E0EDB7FEB7328321839483838392
:1047300040DF0F900F900F900F90C114D10459F4E7
:1047400000D08BE797E0EDB7FEB79283818331DF2E
:104750000F900F900FC000D000D08EE897E0EDB71B
:10476000FEB792838183D482C38223DF0F900F90A0
:104770000F900F9029960FB6F894DEBF0FBECDBFF5
:10478000DF91CF910F91FF90EF90DF90CF90089540
:1047900080E090E060E070E034CFCF93DF93CDB75E
:1047A000DEB7C058D0400FB6F894DEBF0FBECDBF05
:1047B000FE01EB57FF4F41915191CE01019660E808
:1047C00070E09F010E947E33CE01019660E070E0B0
:1047D00018DFC058DF4F0FB6F894DEBF0FBECDBF55
:1047E000DF91CF910895CF93DF93CDB7DEB7C05857
:1047F000D0400FB6F894DEBF0FBECDBFFE01EB5721
:10480000FF4F41915191CE01019660E870E09F0108
:104810000E947E3380E090E0BE016F5F7F4FF1DE4B
:10482000C058DF4F0FB6F894DEBF0FBECDBFDF918B
:10483000CF910895EF92FF920F931F93CF93DF9341
:10484000CDB7DEB7C058D0400FB6F894DEBF0FBE6C
:10485000CDBF8E0107571F4FF801E190F1908F01F6
:1048600000D081EA97E0EDB7FEB792838183A1DEA5
:104870000F900F90CE01019660E870E0A7019801BB
:104880000E947E3384E693E0BE016F5F7F4F0E94FB
:10489000060900D084EA97E0EDB7FEB792838183E2
:1048A00088DE0F900F90C058DF4F0FB6F894DEBF30
:1048B0000FBECDBFDF91CF911F910F91FF90EF9071
:1048C000089500D000D000D0EDB7FEB7319620EDAE
:1048D00037E0ADB7BEB712963C932E9311979383F2
:1048E00082837583648365DE8DB79EB706960FB6A7
:1048F000F8949EBF0FBE8DBF08950F93CF93DF93A3
:10490000CDB7DEB72C970FB6F894DEBF0FBECDBF84
:1049100000D082EC97E0ADB7BEB712969C938E9311
:10492000119747DE0F900F904091E6035091E703F7
:10493000662757FD6095762FCE01019623E00CE0A7
:104940000E947F2DBC0182E091E0BBDF4091E80333
:104950005091E9036091EA037091EB03CE01019657
:1049600023E00E947F2DBC018BE091E0AADF409103
:10497000EC035091ED03662757FD6095762FCE012D
:10498000019623E00E947F2DBC0188E191E099DF30
:104990004091EE035091EF036091F0037091F103A9
:1049A000CE01019623E0B5D6BC0182E291E089DF19
:1049B0004091F2035091F3036091F4037091F50379
:1049C000CE01019623E0A5D6BC0184E291E079DF17
:1049D0004091F6035091F7036091F8037091F90349
:1049E000CE01019623E095D6BC0186E291E069DF15
:1049F0004091FA035091FB03662757FD6095762F8F
:104A0000CE01019623E085D6BC0188E291E059DF12
:104A10004091FC035091FD03662757FD6095762F6A
:104A2000CE01019623E075D6BC018BE291E049DF0F
:104A30004091FE035091FF03662757FD6095762F46
:104A4000CE01019623E04AD7BC018EE291E039DF26
:104A50004091000450910104662757FD6095762F20
:104A6000CE01019623E03AD7BC018CE391E029DF27
:104A70004091020450910304662757FD6095762FFC
:104A8000CE01019623E02AD7BC018BE491E019DF27
:104A90004091040450910504662757FD6095762FD8
:104AA000CE01019623E01AD7BC018AE591E009DF27
:104AB0004091060450910704662757FD6095762FB4
:104AC000CE01019623E00AD700D000D000D0EDB788
:104AD000FEB7319626EC37E0ADB7BEB712963C93E1
:104AE0002E93119722E631E03383228395838483CA
:104AF00060DDEDB7FEB736960FB6F894FEBF0FBE79
:104B0000EDBF2C960FB6F894DEBF0FBECDBFDF9180
:104B1000CF910F91089500D000D000D0EDB7FEB72F
:104B2000319629ED37E0ADB7BEB712963C932E9380
:104B3000119793838283648315823BDD8DB79EB783
:104B400006960FB6F8949EBF0FBE8DBF08950F93C3
:104B5000CF93DF93CDB7DEB72C970FB6F894DEBFB7
:104B60000FBECDBF00D086EA97E0ADB7BEB71296B4
:104B70009C938E9311971DDD0F900F908AE691E024
:104B800060910804C8DF4091090450910A04662727
:104B900057FD6095762FCE01019622E00CE09ED65F
:104BA000BC018FE691E08DDE40910B0450910C0426
:104BB000662757FD6095762FCE01019622E08ED6AE
:104BC000BC018BE791E07DDE40910D0450910E0415
:104BD000662757FD6095762FCE01019623E099D583
:104BE000BC0189E891E06DDE40910F045091100402
:104BF000662757FD6095762FCE01019623E089D573
:104C000000D000D000D0EDB7FEB731962AEA37E0E9
:104C1000ADB7BEB712963C932E93119727E931E0BA
:104C20003383228395838483C4DCEDB7FEB7369645
:104C30000FB6F894FEBF0FBEEDBF2C960FB6F894DA
:104C4000DEBF0FBECDBFDF91CF910F91089500D091
:104C500000D000D0EDB7FEB7319624EE37E0ADB707
:104C6000BEB712963C932E931197938382837583DC
:104C700064839FDC8DB79EB706960FB6F8949EBFEF
:104C80000FBE8DBF08950F93CF93DF93CDB7DEB7DF
:104C90002C970FB6F894DEBF0FBECDBF00D084EBCB
:104CA00097E0ADB7BEB712969C938E93119781DCB7
:104CB0000F900F9085EA91E0609111042CDF4091F4
:104CC000120450911304662757FD6095762FCE018C
:104CD000019621E00CE002D6BC0180EB91E0F1DD11
:104CE0004091140450911504662757FD6095762F66
:104CF000CE01019621E0F2D5BC018FEB91E0E1DD20
:104D00004091160450911704662757FD6095762F41
:104D1000CE01019623E0FDD4BC018EEC91E0D1DD03
:104D20004091180450911904662757FD6095762F1D
:104D3000CE01019623E0EDD4BC0185ED91E0C1DD0B
:104D400040911A0450911B04662757FD6095762FF9
:104D5000CE01019623E0DDD4BC018CED91E0B1DD04
:104D600040911C0450911D04662757FD6095762FD5
:104D7000CE01019623E0CDD4BC018FED91E0A1DD01
:104D800040911E0450911F04662757FD6095762FB1
:104D9000CE01019623E0BDD4BC0186EE91E091DD09
:104DA0004091240450912504662757FD6095762F85
:104DB000CE01019623E0A3D6BC018DEE91E081DD0A
:104DC0004091200450912104662757FD6095762F6D
:104DD000CE01019623E093D6BC0187EF91E071DD0F
:104DE0004091220450912304662757FD6095762F49
:104DF000CE01019623E083D6BC0181E092E061DD23
:104E00004091260450912704662757FD6095762F20
:104E1000CE01019623E073D6BC018BE092E051DD18
:104E20004091280450912904662757FD6095762FFC
:104E3000CE01019623E063D6BC0189E192E041DD19
:104E400040912A0450912B04662757FD6095762FD8
:104E5000CE01019623E053D6BC0186E292E031DD1B
:104E600040912C0450912D04662757FD6095762FB4
:104E7000CE01019623E043D6BC0189E392E021DD17
:104E800040912E0450912F04662757FD6095762F90
:104E9000CE01019623E033D6BC018CE492E011DD13
:104EA0004091300450913104662757FD6095762F6C
:104EB000CE01019623E023D6BC018FE592E001DD0F
:104EC000609132047091330482E792E0C0DE609119
:104ED00034047091350489E892E0B9DE60913604BB
:104EE0007091370480EA92E0B2DE609138047091EC
:104EF000390481EB92E0ABDE60913A0470913B049F
:104F000082EC92E0A4DE60913C0470913D0484ED5B
:104F100092E09DDE60913E0470913F0483EE92E04A
:104F200096DE00D000D000D0EDB7FEB7319688EB0A
:104F300097E0ADB7BEB712969C938E93119782EF10
:104F400092E0938382838091400490914104958301
:104F500084832FDBEDB7FEB736960FB6F894FEBF0D
:104F60000FBEEDBF2C960FB6F894DEBF0FBECDBFBF
:104F7000DF91CF910F9108950F931F93CF93DF93FC
:104F8000EC018B0100D000D000D0EDB7FEB7319618
:104F90008DEE97E0ADB7BEB712969C938E931197A6
:104FA000D383C2837583648345DCEDB7FEB7369641
:104FB0000FB6F894FEBF0FBEEDBFCE016AE671E0FA
:104FC0000E943F330097B1F4D8018C910E94AC1835
:104FD00000D000D0EDB7FEB731968BE098E0ADB7CA
:104FE000BEB712969C938E931197D8018C918283B1
:104FF00013825DC0CE016FE671E00E943F330097DF
:10500000D1F5C8013ED5EC01809108048037F9F450
:105010008091090490910A04FE01E81BF90BCF016D
:10502000F7FF03C0909581959F4F85369105F4F069
:1050300000D000D08BE298E0ADB7BEB712969C933B
:105040008E93119714961C930E9313970AC000D059
:1050500000D08AE698E0EDB7FEB79283818314838F
:1050600003839BDB0F900F900F900F90D0930A0457
:10507000C093090400C2CE016BE771E00E943F3388
:105080000097D9F4C801FDD480910804863609F050
:10509000F2C100D000D083EA98E0ADB7BEB7129657
:1050A0009C938E93119714961C930E9313979BDBEE
:1050B0000F900F900F900F90DEC1CE0169E871E064
:1050C0000E943F33009749F4C80153D4DC01CB015F
:1050D00090930E0480930D04CEC1CE0167E971E078
:1050E0000E943F33009749F4C80143D4DC01CB014F
:1050F0009093100480930F04BEC1CE0165EA71E065
:105100000E943F33009749F4F80180818093110495
:105110008FE095E00E94201CAEC1CE0160EB71E0F3
:105120000E943F33009739F4C801ABD49093130425
:1051300080931204A0C1CE016FEB71E00E943F3357
:10514000009739F4C8019DD49093150480931404FA
:1051500092C1CE016EEC71E00E943F33009749F49A
:10516000C80107D4DC01CB01909317048093160487
:1051700082C1CE0165ED71E00E943F33009749F492
:10518000C801F7D3DC01CB01909319048093180474
:1051900072C1CE016CED71E00E943F33009749F47B
:1051A000C801E7D3DC01CB0190931B0480931A0460
:1051B00062C1CE016FED71E00E943F33009749F468
:1051C000C801D7D3DC01CB0190931D0480931C044C
:1051D00052C1CE0166EE71E00E943F33009749F460
:1051E000C801C7D3DC01CB0190931F0480931E0438
:1051F00042C1CE016DEE71E00E943F33009739F459
:10520000C801B1D4909325048093240434C1CE0105
:1052100067EF71E00E943F33009739F4C801A3D4CF
:10522000909321048093200426C1CE0161E072E0B6
:105230000E943F33009739F4C80195D4909323041A
:105240008093220418C1CE016BE072E00E943F33CC
:10525000009739F4C80187D49093270480932604DB
:105260000AC1CE0169E172E00E943F33009739F430
:10527000C80179D49093290480932804FCC0CE01FE
:1052800066E272E00E943F33009739F4C8016BD4A4
:1052900090932B0480932A04EEC0CE0169E372E060
:1052A0000E943F33009739F4C8015DD490932D04D8
:1052B00080932C04E0C0CE016CE472E00E943F3386
:1052C000009739F4C8014FD490932F0480932E0493
:1052D000D2C0CE016FE572E00E943F33009739F4EF
:1052E000C80141D49093310480933004C4C0CE01EE
:1052F00062E772E00E943F33009771F4C80160E0FA
:1053000070E04AE050E00E94F431DC01CB01909360
:10531000330480933204AFC0CE0169E872E00E948A
:105320003F33009771F4C80160E070E04AE050E05C
:105330000E94F431DC01CB01909335048093340456
:105340009AC0CE0160EA72E00E943F33009781F478
:10535000C80160E070E04AE050E00E94F431AB0127
:10536000BC01509337044093360482E494E044C077
:10537000CE0161EB72E00E943F33009781F4C801D7
:1053800060E070E04AE050E00E94F431AB01BC0103
:10539000509339044093380482E494E045C0CE0130
:1053A00062EC72E00E943F33009781F4C80160E034
:1053B00070E04AE050E00E94F431AB01BC01509330
:1053C0003B0440933A0482E494E046C0CE0164ED8D
:1053D00072E00E943F33009791F4C80160E070E0F2
:1053E0004AE050E00E94F431AB01BC0150933D040F
:1053F00040933C0488EA94E0BA0134D63CC0CE0124
:1054000063EE72E00E943F33009789F4C80160E0C8
:1054100070E04AE050E0E8D7AB01BC0150933F0494
:1054200040933E0488EA94E0BA011FD624C0CE011E
:1054300062EF72E00E943F33009789F4C80160E098
:1054400070E04AE050E0D0D7AB01BC01509341047A
:105450004093400488EA94E0BA010AD60CC000D018
:105460008EED98E0ADB7BEB712969C938E931197D0
:10547000E1D90F900F90DF91CF911F910F91089577
:105480000F931F93CF93DF93CDB7DEB7EC970FB693
:10549000F894DEBF0FBECDBF61E070E080E090E029
:1054A0000E94220A10E069C061E070E080E090E0B4
:1054B0000E94220A84E693E00E941D05182F8A3379
:1054C000C9F0803261F08B3751F0823241F0EFE168
:1054D000F0E0EC0FFD1FE00FF11D80830F5F0D3139
:1054E00010F053C000E084E693E00E94F90418161F
:1054F0001906D4F2EFE1F0E0EC0FFD1FE00FF11D13
:10550000108200E01DC061E070E080E090E00E9449
:10551000220A84E693E00E941D05182F8C32B9F010
:105520008D37A9F0803251F0823241F0E1E0F0E0B5
:10553000EC0FFD1FE00FF11D80830F5F0D3128F58B
:1055400084E693E00E94F90418161906E4F2E1E0FB
:10555000F0E0EC0FFD1FE00FF11D1082CE014F9621
:10556000BE016F5F7F4F08DD1D3739F40E944F1574
:105570000E94D617ECDA87DB08C084E693E00E942D
:10558000F904181619060CF4ADCFEC960FB6F89482
:10559000DEBF0FBECDBFDF91CF911F910F91089558
:1055A000EF92FF920F931F93CF93DF93CDB7DEB7A8
:1055B00066970FB6F894DEBF0FBECDBF84E693E0CA
:1055C0000E94F904181619060CF096C084E693E0C0
:1055D0000E941D058A3609F479C08B3640F4833564
:1055E00039F1833699F1833409F072C010C08337E2
:1055F00059F1843720F48C3609F06AC02BC0843707
:1056000021F0863709F064C023C0C2D875C00E945B
:10561000E6178FE095E00E94201C35DB00D083EB7D
:1056200096E0ADB7BEB712969C938E9311970AC0C1
:105630000E94BC178CDA00D08DEC96E0EDB7FEB777
:1056400092838183F7D83FC082DA56C01CDB54C0F6
:1056500054D952C000D086EE96E0ADB7BEB71296D0
:105660009C938E9311970E94D9220F900F9020E067
:105670008E010F5F1F4F39EEE32E36E0F32E8FE0E1
:1056800095E0622FA8012E8B0E94A31000D000D0BD
:10569000EDB7FEB7F282E182148303830E94D92220
:1056A0002E892F5F0F900F900F900F90243039F7B5
:1056B00000D080EF96E0ADB7BEB712969C938E9364
:1056C00011970E94D9220F900F9016C0D9DE14C0F6
:1056D00000D000D0EDB7FEB7319622EF36E0ADB77F
:1056E000BEB712963C932E93119782831382A2D851
:1056F0000F900F900F900F9066960FB6F894DEBF44
:105700000FBECDBFDF91CF911F910F91FF90EF9012
:105710000895AF92BF92CF92DF92EF92FF920F93D4
:10572000CF93DF935C0177FF0BC08DE2D5018C93A3
:1057300070956095509541955F4F6F4F7F4F03C0B7
:1057400080E2F50180836A017B01F9E0F594E7943A
:10575000D794C794FA95D1F7E601517060707070D4
:105760002130B1F5CB01BA012AE030E040E050E051
:1057700083D4DC01CB0180509F4FAF4FBF4FE9E096
:10578000B595A79597958795EA95D1F7BC018A308D
:10579000910519F4219660E070E08DB79EB70A97E5
:1057A0000FB6F8949EBF0FBE8DBFEDB7FEB7319612
:1057B000C5010196ADB7BEB712969C938E93119713
:1057C000802F90E00197938382838DEF98E037C01C
:1057D0002230E1F5CB01BA0124E630E040E050E0B0
:1057E0004BD4DC01CB0180509F4FAF4FBF4FF9E04E
:1057F000B595A79597958795FA95D1F7BC0184360D
:10580000910519F4219660E070E08DB79EB70A9774
:105810000FB6F8949EBF0FBE8DBFEDB7FEB73196A1
:10582000C5010196ADB7BEB712969C938E931197A2
:10583000802F90E001979383828385E099E09583A0
:105840008483D783C6837187608734C08DB79EB742
:105850000A970FB6F8949EBF0FBE8DBFCDB7DEB7C7
:105860002196C5010196ADB7BEB712969C938E9353
:105870001197802F90E001979B838A838DE099E0B8
:105880009D838C83DF82CE82CB01BA0128EE33E088
:1058900040E050E0F1D3DC01CB0180509F4FAF4F8F
:1058A000BF4FE9E0B595A79597958795EA95D1F70C
:1058B00099878887F6D6EDB7FEB73A960FB6F89473
:1058C000FEBF0FBEEDBFC501DF91CF910F91FF90DD
:1058D000EF90DF90CF90BF90AF900895CF92DF927E
:1058E000EF92FF920F931F93CF93DF93EC016A0126
:1058F0007B01122F403080E858078FEF68078FEF49
:10590000780729F4CE0168EF78E08FD628C080911F
:1059100011048634F1F4DB01CA0123E0880F991FDA
:10592000AA1FBB1F2A95D1F7840F951FA61FB71F6B
:10593000BC01CD0125E030E040E050E0F1D3690149
:105940007A0180E090E4A0E0B0E0C80ED91EEA1E23
:10595000FB1ECE01B701A601212FDBDEEC01CE013B
:10596000DF91CF911F910F91FF90EF90DF90CF903B
:1059700008952F923F924F925F926F927F928F92F3
:105980009F92AF92BF92CF92DF92EF92FF920F93CE
:105990001F93CF93DF9300D0CDB7DEB78C01FC010E
:1059A00080818D3229F40F5F1F4F77247A9402C0D3
:1059B00077247394C8016EE270E059D66C01C80177
:1059C00060E070E04AE050E00FD51B012C01C114EB
:1059D000D10469F186010F5F1F4FC801BE016F5FDF
:1059E0007F4F4AE050E000D56B017C016980601A6E
:1059F000F9E0CC0CDD1CEE1CFF1CFA95D1F700E0A1
:105A000010E0AAE08A2E912CA12CB12C0DC0C70168
:105A1000B6016B5F7F4F8F4F9F4FA501940180D3DD
:105A200069017A010F5F1F4F601689F703C0CC240C
:105A3000DD247601672D70E080E090E0A201910105
:105A4000E9E0220F331F441F551FEA95D1F72C0DB3
:105A50003D1D4E1D5F1D10D30F900F90DF91CF9114
:105A60001F910F91FF90EF90DF90CF90BF90AF907C
:105A70009F908F907F906F905F904F903F902F906E
:105A800008950F931F9375DF8B019C018091110482
:105A90008634D1F4D901C80142E0880F991FAA1FAA
:105AA000BB1F4A95D1F7800F911FA21FB31F8050D3
:105AB0009044A140B040BC01CD0129E030E040E07D
:105AC00050E02ED389019A01003080E818078FEF4B
:105AD00028078FEF38076CF0003080E8180780E067
