:100000009EC50000C4C50000C2C50000C0C50000F8
:10001000BEC50000BCC50000BAC500000C94220F8C
:10002000B6C500000C94C40F0C9431080C94CC0895
:10003000AEC50000ACC50000AAC50000A8C5000000
:10004000A6C50000A4C50000A2C50000A0C5000010
:100050009EC500009CC500009AC500000C94650A6E
:1000600096C5000094C5000092C5000090C5000030
:100070008EC500008CC500008AC5000088C5000040
:1000800086C5000084C5000082C5000080C5000050
:100090007EC500007CC500007AC5000078C5000060
:1000A00076C5000074C5000072C5000000000000A5
:1000B000000000002A2B28000000000000000000C3
:1000C0000000000000000000000000002C9EB4A012
:1000D000A1A2A434A6A7A5AE362D3738271E1F200F
:1000E000212223242526B333B62EB7B89F848586D4
:1000F0008788898A8B8C8D8E8F9091929394959618
:100100009798999A9B9C9D2F3130A3AD3504050695
:100110000708090A0B0C0D0E0F10111213141516F7
:100120001718191A1B1C1DAFB1B0B5000904020045
:1001300001030000000921010100012265000705FB
:10014000840340000105010902A1010901A1008504
:100150000105091901290315002501950375018180
:10016000029501750581030501093009310938152A
:1001700081257F750895038106C0C005010906A188
:10018000018502050719E029E7150025017501958C
:1001900008810295017508810395067508150025EB
:1001A000650507190029658100C000C18081C11261
:1001B00001000202000040412336800001010200DC
:1001C00001120100020000004041233680000101BD
:1001D0000200011803410072006400750069006E9E
:1001E000006F0020004C004C0043002203410072CD
:1001F000006400750069006E006F0020004C00650F
:10020000006F006E006100720064006F000403095B
:1002100004080B00020202010009040000010202AE
:100220000000052400100105240101010424020638
:1002300005240600010705810310004009040100A0
:10024000020A0000000705020240000007058302C1
:10025000400000070605040100080A0B0C0D090008
:1002600000000200080E0000030401000B00000063
:100270000000000000000000000000000004080270
:10028000011040804010204080408008020401801E
:100290004020100201108010204040040404040497
:1002A0000304050202020204030202020206060619
:1002B00006060604040202020400000000230026D1
:1002C0000029002C002F0000000000250028002B32
:1002D000002E00310000000000240027002A002D1D
:1002E00000300041726475696E6F207265737461CD
:1002F00072746564210046726964676520646F6F7B
:1003000072206F70656E656400467269646765206F
:10031000646F6F7220636C6F73656400506F7369F4
:1003200074697665207065616B20646574656374BB
:1003300065642E004472696674696E67207570206A
:1003400061667465722068656174696E6720746F98
:100350006F2073686F72742E005065616B3A2025B0
:100360007320457374696D617465643A2025732E3A
:10037000204E657720657374696D61746F723A20E1
:100380002573004E65676174697665207065616BE1
:100390002064657465637465642E004472696674D4
:1003A000696E6720646F776E206166746572206382
:1003B0006F6F6C696E6720746F6F2073686F7274F3
:1003C0002E005065616B3A2025732E2045737469A9
:1003D0006D617465643A2025732E204E6577206523
:1003E0007374696D61746F723A20257300202D2D2E
:1003F0002E2D004D6F64652020200042656572201F
:10040000202000467269646765200046726964674F
:100410006520436F6E73742E004265657220436FD2
:100420006E7374616E7400426565722050726F66FF
:10043000696C6520004F6666202020202020202047
:10044000202000496E76616C6964206D6F646520C0
:100450000049646C6520666F7220202020202020D7
:100460002020202020005374617274696E6720750B
:10047000702E2E2E20202020202000436F6F6C69CC
:100480006E6720666F722020202020202020200010
:1004900048656174696E6720666F72202020202095
:1004A0002020202000446F6F72206F70656E202026
:1004B0002020202020202020200054656D702E2038
:1004C000636F6E74726F6C204F464620202000557B
:1004D0006E6B6E6F776E207374617475732120205C
:1004E00020202000207300202020202020004368AE
:1004F000616E67656420746F2070726F66696C65E9
:10050000206D6F646520696E206D656E752E0054D8
:10051000656D7020636F6E74726F6C207475726E8F
:100520006564206F666620696E206D656E752E00AD
:100530002020202020202020202020202000426574
:1005400065722074656D702073657420746F20254A
:100550007320696E204D656E752E002020202020AE
:10056000004672696467652074656D7020736574F8
:1005700020746F20257320696E204D656E752E00E6
:10058000202020202000005EBCE2613FDD83C29C71
:100590007E20A3FD1F419DC3217FFCA2401E5F0161
:1005A000E3BD3E6082DC237D9FC1421CFEA0E1BF13
:1005B0005D0380DE3C62BEE0025CDF81633D7C2245
:1005C000C09E1D43A1FF4618FAA427799BC584DA73
:1005D0003866E5BB5907DB856739BAE40658194721
:1005E000A5FB7826C49A653BD987045AB8E6A7F9D3
:1005F0001B45C6987A24F8A6441A99C7257B3A6405
:1006000086D85B05E7B98CD2306EEDB3510F4E1032
:10061000F2AC2F7193CD114FADF3702ECC92D38DE0
:100620006F31B2EC0E50AFF1134DCE90722C6D3392
:10063000D18F0C52B0EE326C8ED0530DEFB1F0AEC4
:100640004C1291CF2D73CA947628ABF517490856F2
:10065000B4EA6937D58B5709EBB536688AD495CBA0
:100660002977F4AA4816E9B7550B88D6346A2B7552
:1006700097C94A14F6A8742AC896154BA9F7B6E884
:100680000A54D7896B3544656661756C7420636F55
:100690006E7374616E7473206C6F616465642E0098
:1006A00044656661756C742073657474696E6773F4
:1006B000206C6F616465642E004E3A222553220A35
:1006C00000302E312E30004C3A0025733C42523E11
:1006D000000A00496E76616C696420636F6D6D611C
:1006E0006E64207265636569766564206279204175
:1006F000726475696E6F3A20256300543A7B22421A
:1007000065657254656D70223A25732C002242652E
:100710006572536574223A25732C00224265657216
:10072000416E6E223A006E756C6C2C00222573228D
:100730002C002246726964676554656D70223A2503
:10074000732C0022467269646765536574223A25EA
:10075000732C0022467269646765416E6E223A000E
:100760006E756C6C2C00222573222C002253746150
:100770007465223A25757D0A00443A000A00533A0E
:100780007B006D6F646500626565725365747469A2
:100790006E670066726964676553657474696E6735
:1007A0000068656174457374696D61746F7200638C
:1007B0006F6F6C457374696D61746F7200433A7B3F
:1007C0000074656D70466F726D61740074656D7054
:1007D00053657474696E674D696E0074656D70530E
:1007E000657474696E674D6178004B70486561741B
:1007F000004B70436F6F6C004B69004B64436F6F2D
:100800006C004B644865617400694D617845727293
:100810006F720069646C6552616E676548696768EC
:100820000069646C6552616E67654C6F770068653E
:100830006174696E67546172676574557070657232
:100840000068656174696E675461726765744C6FA6
:1008500077657200636F6F6C696E6754617267656C
:1008600074557070657200636F6F6C696E67546168
:10087000726765744C6F776572006D617848656169
:100880007454696D65466F72457374696D61746502
:10089000006D6178436F6F6C54696D65466F72458A
:1008A0007374696D61746500667269646765466139
:1008B000737446696C746572006672696467655327
:1008C0006C6F7746696C74657200667269646765FF
:1008D000536C6F706546696C746572006265657211
:1008E0004661737446696C74657200626565725323
:1008F0006C6F7746696C7465720062656572536CE3
:100900006F706546696C74657200563A7B0062656B
:100910006572446966660064696666496E746567F7
:1009200072616C0062656572536C6F706500700077
:10093000690064004B70004B6400657374696D61FD
:100940007465645065616B006E65675065616B53DB
:10095000657474696E6700706F735065616B536581
:100960007474696E67006E65675065616B00706FC7
:10097000735065616B00222553223A25732C0022A7
:100980002553223A25737D0A00222553223A222537
:1009900063222C00222553223A222563227D0A005D
:1009A000222553223A25752C00222553223A2575FB
:1009B0007D0A00222553223A25752C002225532238
:1009C0003A25757D0A005265636569766564206E17
:1009D00065772073657474696E673A202573203DCE
:1009E000202573004D6F64652073657420746F203B
:1009F000256320696E2077656220696E7465726672
:100A000061636500426565722074656D7020736571
:100A10007420746F2025732062792074656D706571
:100A20007261747572652070726F66696C652E00F4
:100A3000426565722074656D702073657420746FF3
:100A400020257320696E2077656220696E74657257
:100A5000666163652E004672696467652074656D22
:100A6000702073657420746F20257320696E207761
:100A7000656220696E746572666163652E00436FFE
:100A8000756C64206E6F742070726F636573732071
:100A900073657474696E67006E756C6C0025642EE6
:100AA000253031640025642E253032640025642E03
:100AB0002530336400556E61626C6520746F20666A
:100AC000696E64206164647265737320666F72205E
:100AD00073656E736F72206F6E2070696E2025646F
:100AE0000054656D70657261747572652073656E12
:100AF000736F72206F6E2070696E202564206469A8
:100B000073636F6E6E65637465640054656D7065C4
:100B10007261747572652073656E736F72206F6E8B
:100B20002070696E202564207265636F6E6E656348
:100B300074656400B70D1E1AC31D211AC61D112449
:100B40001FBECFEFDAE0DEBFCDBF11E0A0E0B1E025
:100B5000EEE3FEE602C005900D92A235B107D9F78B
:100B600014E0A2E5B1E001C01D92A13BB107E1F79D
:100B70001BE0CAE3DBE004C02297FE010E943E3185
:100B8000C433D107C9F70E94610E0C9413370C943B
:100B90006E0E8091BE019091BF012091C0013091F5
:100BA000C101821B930B8F73907008952091BE0139
:100BB0003091BF018091C0019091C1012817390780
:100BC00049F0E091C001F091C101E258FE4F8081EF
:100BD00090E008958FEF9FEF08952091BE0130912E
:100BE000BF018091C0019091C10128173907A9F078
:100BF000E091C001F091C101E258FE4F8081209147
:100C0000C0013091C1012F5F3F4F2F73307030937F
:100C1000C1012093C00190E008958FEF9FEF0895E8
:100C20000F931F93CF93DF93EC01162FE881F98187
:100C30000480F581E02D0995082FE881F98106806F
:100C4000F781E02DCE01612F0995802F90E0DF9193
:100C5000CF911F910F910895CF92DF92EF92FF9263
:100C60000F931F93CF93DF936C017B01EA0100E0A8
:100C700010E00EC0D7016D917D01D601ED91FC9180
:100C80000190F081E02DC6010995080F191F2197E9
:100C9000209781F7C801DF91CF911F910F91FF90AD
:100CA000EF90DF90CF900895883071F1893068F42B
:100CB000823031F1833020F4813009F042C01DC010
:100CC000833089F08430E9F512C08B3059F18C30D3
:100CD00028F48930E9F08A30A1F51EC08C3031F15A
:100CE0008E3079F529C0809180008F7703C0809184
:100CF00080008F7D80938000089584B58F7702C037
:100D000084B58F7D84BD0895809190008F7707C052
:100D1000809190008F7D03C080919000877F8093A9
:100D2000900008958091C0008F7703C08091C0002B
:100D30008F7D8093C00008958091C200877F80934B
:100D4000C20008950F931F93CF93DF938C01EB01A3
:100D5000209771F0CB010E94C533AC01D801ED9111
:100D6000FC910280F381E02DC801BE01099502C00B
:100D700080E090E0DF91CF911F910F910895089549
:100D8000FC0104C08091F100819361506623D1F78A
:100D9000289884E680936E0108959FB7F894877031
:100DA0008093E9008091F2009FBF089590916D01BA
:100DB0009923B1F057FF1AC016C0289820936E01EE
:100DC0003091F10031936E17C1F7009739F02091FF
:100DD000F200222319F42BE62093E800AFBF089518
:100DE0008FEF9FEF08958FEF9FEF0895AFB7F894BF
:100DF00087708093E9002091F20030E0CA01241747
:100E000035070CF4C901FB01680F24E6DCCFCF9352
:100E1000DF930F92CDB7DEB7BE016F5F7F4F41E02A
:100E200050E0C4DF8130910519F4898190E002C05F
:100E30008FEF9FEF0F90DF91CF910895CF93DF93C6
:100E400011C082E0E4DF2FEF8F3F9207C9F0E091FD
:100E5000BE01F091BF01E258FE4F8083D093BF01E5
:100E6000C093BE01C091BE01D091BF012196CF7346
:100E7000D0708091C0019091C101C817D90709F7BE
:100E8000DF91CF9108959FB7F89487708093E90020
:100E90008091E80085FF05C02091F20080E4821B6C
:100EA00001C080E09FBF08951092E90010926C018C
:100EB00010926B0190936A018093690108950F93DA
:100EC0001F93CF93C82F8A01DB016EEF35C0CD0190
:100ED0000196C7FF04C0FD01DC01E49102C0EC9162
:100EE000DC0120916B0130916C018091690190913E
:100EF0006A0128173907ACF48091E8008570E1F3A6
:100F00008091E80082FD1DC0E093F10080916B01AB
:100F100090916C0101968F739070009711F460931B
:100F2000E80080916B0190916C01019690936C01A7
:100F300080936B01015010400115110541F6CA0163
:100F400002C08FEF9FEFCF911F910F910895FC0189
:100F500080818E5F808380E861E172E042E450E04E
:100F6000AECF1F93CF93DF930F92CDB7DEB79C0127
:100F7000162F8091E80082FFFCCFC901612F798391
:100F8000FFDE8BEF8093E800812F7981972F0F9000
:100F9000DF91CF911F910895FC0181819081913A59
:100FA00051F4813209F04DC080E066E171E047E024
:100FB00050E085DF44C0913209F043C0803231F403
:100FC00086E191E067E070E0CCDF39C0823209F061
:100FD00038C0828180931D01809116019091170184
:100FE000A0911801B0911901803B24E0920720E004
:100FF000A20720E0B20739F580911D0180FD12C0E3
:1010000087E797E790930108809300082BE088E139
:1010100090E00FB6F894A895809360000FBE2093DF
:1010200060000DC088E10FB6F894809360001092C4
:1010300060000FBEA895109201081092000881E090
:10104000089580E0089581E008958093E9008091FB
:10105000F200882319F08AE38093E800089583E082
:10106000F4CF1F920F920FB60F9211242F933F933C
:101070004F935F936F937F938F939F93AF93BF93A0
:10108000EF93FF938091E1001092E10083FF0FC086
:101090001092E90091E09093EB001092EC0092E343
:1010A0009093ED0010926D0198E09093F00082FF14
:1010B00021C083E0CADF82E070DE882319F080E778
:1010C00091E0BCDE80916F01882341F080916F0137
:1010D000815080936F01882309F45D9A80916E019D
:1010E000882341F080916E01815080936E018823A6
:1010F00009F4289AFF91EF91BF91AF919F918F9141
:101100007F916F915F914F913F912F910F900FBE03
:101110000F901F901895FC0180818F5F808380E87D
:101120006CE271E049E150E0CACECF93DF930F92B9
:10113000CDB7DEB71982CE01019609DFCE01019647
:10114000EADF898190E00F90DF91CF91089580E8E8
:1011500065E471E045E650E0B2CEFC01918180810A
:10116000813A31F481E0913091F0933089F413C0E9
:10117000813271F49B3021F482818093150105C086
:101180009A3041F482818093140181E0089508959A
:1011900080E0089580E008951F920F920FB60F929D
:1011A0001124EF92FF920F931F932F933F934F932E
:1011B0005F936F937F938F939F93AF93BF93EF93BF
:1011C000FF93CF93DF93CDB7DEB76297DEBFCDBF7E
:1011D0001092E9008091E80083FFE2C0CE01019601
:1011E00068E0CEDD82EF8093E800898187FF05C04B
:1011F0009091E80090FFFCCF03C09EEF9093E80031
:1012000090E09C01207630702115310509F0B0C0C6
:101210002A81222329F41092F1001092F100B9C022
:10122000213009F4B6C0233009F4B3C0253049F4A5
:101230008091E80080FFFCCF8B8180688093E30081
:10124000A8C0263009F068C02C81EF80F8842230D5
:1012500049F580E090E02A8B27DE67DF99E08E0178
:10126000075F1F4FF801392F11923A95E9F79987D7
:101270002A892A8791E09E8790E8988B9AEF998B2C
:1012800020916B0130916C01275F3F4F3C872B878A
:101290008D87C70109DE80E0B80149E050E00FDE2C
:1012A00044DF77C0C7012A8BFFDD2A89223239F457
:1012B00082E290E04CDF009709F06BC06EC02130F5
:1012C00079F48F8198858830910519F481E08093B5
:1012D000680180916801882389F06FEA71E016C087
:1012E000233009F05AC08B81882359F0823061F095
:1012F000813009F052C063ED71E008C061EC71E02B
:1013000005C06DE072E002C06BEE71E0FB0144913C
:1013100080E850E0D4DD3DC0273009F43EC02830DD
:1013200021F481E08093F10034C0293091F583707D
:101330009070009791F581E090E031E026E3809392
:10134000E9003093EB00FC01E655FE4FE491E09399
:10135000EC002093ED0001968530910581F78EE732
:101360008093EA001092EA008B8180936D0111C096
:101370008F81988599DD8D81882321F4CE01019696
:101380000BDE05C0823049F4CE010196E6DE8823EB
:1013900021F08EEF8093E80003C081E28093EB00A0
:1013A0006296DEBFCDBFDF91CF91FF91EF91BF91EC
:1013B000AF919F918F917F916F915F914F913F91ED
:1013C0002F911F910F91FF90EF900F900FBE0F90F4
:1013D0001F901895B7CC08954F925F926F927F92AD
:1013E000AF92BF92CF92DF92EF92FF920F931F9333
:1013F000CF93DF93CDB7DEB7A1970FB6F894DEBFDA
:101400000FBECDBF5C01E42ECB01F22E19A221E06C
:101410002F1510F03AE0F32E21E2C22ED12CCC0E83
:10142000DD1E4F2C55246624772403C0E02E512F57
:10143000C9016E2D752FA30192010E94EB30890125
:101440009A01F09E802D1124E81A8E2D0894C1086F
:10145000D1088A3010F4805D01C0895CF601808378
:10146000011511052105310509F7C501B6016ADC31
:10147000A1960FB6F894DEBF0FBECDBFDF91CF911E
:101480001F910F91FF90EF90DF90CF90BF90AF90A2
:101490007F906F905F904F9008952115310549F42A
:1014A000DC01ED91FC910190F081E02D642F099514
:1014B000089592CF9A01AB0160E070E0EECF0C94FA
:1014C000423108950C94D83108951F920F920FB6AF
:1014D0000F9211242F933F938F939F93AF93BF93BA
:1014E0008091520190915301A0915401B091550106
:1014F0003091C201232F2D5F2D3720F40196A11DBD
:10150000B11D05C0232F2A570296A11DB11D20939E
:10151000C2018093520190935301A0935401B09360
:1015200055018091560190915701A0915801B091B9
:1015300059010196A11DB11D809356019093570149
:10154000A0935801B0935901BF91AF919F918F9192
:101550003F912F910F900FBE0F901F9018950F93F2
:101560001F938FB7F894009152011091530120916D
:101570005401309155018FBFB801C9011F910F91DE
:1015800008950F931F939FB7F894009156011091FF
:101590005701209158013091590186B5A89B06C08A
:1015A0008F3F21F00F5F1F4F2F4F3F4F9FBF322FB5
:1015B000212F102F0027080F111D211D311D52E072
:1015C000000F111F221F331F5A95D1F7B801C9010F
:1015D0001F910F910895CF92DF92EF92FF92CF93D8
:1015E000DF936B017C01CDDFDC01CB01EC010EC090
:1015F000C8DF6C1B7D0B83E0683E780738F00894E9
:10160000C108D108E108F108C851DC4FC114D10468
:10161000E104F10469F7DF91CF91FF90EF90DF9043
:10162000CF90089510926D0181E08093D70080EAF9
:101630008093D80082E189BD89B580FFFDCF61E04C
:1016400070E080E090E0C7DF80E98093D8008CE014
:101650008093E2001092E000559A209A08956F92CC
:101660007F928F929F92AF92BF92CF92DF92EF9232
:10167000FF920F931F93CF93DF93F82E6A0180910F
:101680006D01882309F46AC0EB018A016AEFE62E36
:1016900077E0B72EBF208F2D90E0E0E26E2E712C08
:1016A00068227922FAE3AF2EA0E48A2E912C8822B8
:1016B00099224AC08F2DE7DB882349F4EA9409F484
:1016C0004DC061E070E080E090E085DF3DC0282FF4
:1016D00030E0021713070CF4802F081B11099FB785
:1016E000F894B092E9006114710439F003C01092CB
:1016F000F10081508823D9F71AC0F7FC03C0282FC6
:10170000FE0111C0482F9E0107C0F9012F5F3F4F16
:10171000E491E093F10041504423B9F706C03191C0
:101720003093F10021502223D1F7C80FD11D8091B1
:10173000E80085FF06C00115110529F48114910404
:1017400011F0A092E8009FBF0115110509F0B2CF7A
:101750005D9884E680936F01C60102C08FEF9FEF12
:10176000DF91CF911F910F91FF90EF90DF90CF907D
:10177000BF90AF909F908F907F906F900895EF9261
:10178000FF920F931F93CF93DF930F92CDB7DEB7E6
:1017900089838B017A0184E0BE016F5F7F4F41E056
:1017A00050E05DDF84E4B801A70159DF0F90DF91BD
:1017B000CF911F910F91FF90EF90089582E048E044
:1017C00050E0DDCFFC01168217821086118612864A
:1017D00013861482BC016C5F7F4FF0CFCF93DF93F1
:1017E000DC01E62F683810F0E85825C0F0E067FF0C
:1017F00013C0E058F04081E090E002C0880F991FCC
:10180000EA95E2F7809514969C9114979823149684
:101810009C931497E0E00FC0E455FF4FE491EE2352
:10182000F1F0E7FF08C014968C9114978D7F149601
:101830008C931497EF77ED0186E0EE2321F09E81E3
:101840009E1709F41E82815021968823B1F7BD01AD
:101850006C5F7F4FCD01B2DF81E090E002C080E09D
:1018600090E0DF91CF910895CF93DF93DC01E62FD5
:10187000683810F0E85825C0F0E067FF12C0E05863
:10188000F04081E090E002C0880F991FEA95E2F7EE
:1018900014969C911497982B14969C931497E0E0BF
:1018A00010C0E455FF4FE491EE2309F441C0E7FF77
:1018B00008C014968C911497826014968C93149798
:1018C000EF7716968C9116978E1741F117968C919B
:1018D00017978E1719F118968C9118978E17F1F0AB
:1018E00019968C9119978E17C9F01A968C911A97A0
:1018F0008E17A1F01B968C911B978E1779F080E0C4
:1019000090E0ED01C80FD91F2E81222311F4EE8340
:1019100005C0019686309105A1F70AC0BD016C5F34
:101920007F4FCD014BDF81E090E0DF91CF910895B3
:1019300081E090E013969C938E93129780E090E064
:10194000F4CF0F931F93CF93DF930F92CDB7DEB7F2
:101950008C01698380911D01882351F083E0BE01D1
:101960006F5F7F4F41E050E07ADE181619063CF0B9
:1019700081E090E0F8019383828380E090E00F9013
:10198000DF91CF911F910F910895019739F0880F42
:10199000991F880F991F02970197F1F7089578947E
:1019A00084B5826084BD84B5816084BD85B5826064
:1019B00085BD85B5816085BDEEE6F0E08081816002
:1019C0008083E1E8F0E01082808182608083808102
:1019D00081608083E0E8F0E0808181608083E1E9DC
:1019E000F0E0808182608083808181608083E0E993
:1019F000F0E0808181608083E1ECF0E080818460B0
:101A00008083808182608083808181608083E3EC39
:101A1000F0E0808181608083E0ECF0E08081826092
:101A20008083E2ECF0E0808181608083EAE7F0E08F
:101A300080818460808380818260808380818160F6
:101A40008083808180688083089590E0FC01E35862
:101A5000FD4F249185569D4FFC018491882341F1CF
:101A600090E0880F991FFC01EB52FD4F4591549176
:101A7000DA0189539D4FFC0185919491FC019FB738
:101A8000F8948C91662331F4209582238C93808185
:101A9000822308C0623049F4322F309583238C931F
:101AA0008081822B80839FBF0895822B8C939FBF60
:101AB00008950F931F93CF93DF930F92CDB7DEB7A7
:101AC000282F30E0F901E15AFD4F8491F901E358E4
:101AD000FD4F1491F901E556FD4F04910023C9F023
:101AE000882319F06983E0D86981E02FF0E0EE0FD8
:101AF000FF1FE953FD4F85919491DC019FB7F89446
:101B00008C91662319F41095812301C0812B8C934D
:101B10009FBF0F90DF91CF911F910F910895CF93A9
:101B2000DF93282F30E0F901E15AFD4F8491F9014C
:101B3000E358FD4FC491F901E556FD4FD491DD23E3
:101B400089F0882309F0B0D8ED2FF0E0EE0FFF1FE9
:101B5000E754FD4F85919491FC0120812C2381E075
:101B600090E011F480E090E0DF91CF910895109221
:101B700073011092720188EE93E0A0E0B0E08093D0
:101B8000740190937501A0937601B093770182E27E
:101B900091E0909371018093700110926601109210
:101BA0005D0110925C0184E391E090935B0180936E
:101BB0005A010895CF93DF9380E791E060E071EEE2
:101BC000DED886E061E075DF85E061E072DF86E007
:101BD00061E03BDF85E061E038DF84E060E035DF35
:101BE0000E947B190E94D1199ED6E6D460ED77E061
:101BF00080E090E0F0DCC7E4D4E0CE010E94061C57
:101C0000CE010E94E21CCE010E944C1D88EC91E0A6
:101C1000FBD100D083EE92E0EDB7FEB792838183D3
:101C20000E94AB240F900F90C7ECD1E0CE015CD0A6
:101C3000CE0162E044EF51E05AD0DF91CF91089598
:101C40008EDCDC01CB014091C3015091C401609155
:101C5000C5017091C601841B950BA60BB70B893E7D
:101C600023E0920720E0A20720E0B20740F177DCF2
:101C7000DC01CB018093C3019093C401A093C50103
:101C8000B093C60126D40E94F5164DD695D440D403
:101C90008091D001882321F01092D0010E94FD2074
:101CA00087E494E00E944C1D87E494E00E94C51CE8
:101CB00087E494E00E941A1D87E494E022D20C94F9
:101CC0002F2B6DDE87E691E0ADDC74DFC0E0D0E065
:101CD000B7DF2097E9F30E940000FACF1F920F921E
:101CE0000FB60F921124FFCF83E061E0AECEBF921A
:101CF000CF92DF92EF92FF920F931F93CF93DF93D8
:101D0000B62E00E010E06A01EE24FF24C62FD0E0DA
:101D1000219711C084B5806284BDC701B6015BDC28
:101D200084B58F7D84BD0C171D071CF4C701B60157
:101D300052DC0F5F1F4F0B1568F3DF91CF911F919E
:101D40000F91FF90EF90DF90CF90BF900895FC012E
:101D500098E0908F82E0818F92AB83ABDF01A45B30
:101D6000BF4F9C93E35BFF4F80830895FC01862F58
:101D7000880F8C5F808F618F82AB63ABDF01A45BC8
:101D8000BF4F8C93E35BFF4F60830895EF92FF9208
:101D90000F931F93CF93DF938C01F62FE72FC0E0B3
:101DA000D0E02AE1E22EF12CCE9D9001CF9D300DA6
:101DB000DE9D300D1124C801820F931F6F2F7E2FDF
:101DC0000E94C91DAB01F82FE92F2196C330D10520
:101DD00059F7DF91CF911F910F91FF90EF900895E8
:101DE0009B01A901662757FD6095762FBA015527FB
:101DF0004427CCDFAB01BC01AB01772757FD7095C1
:101E0000672FCA010895FC01E05CFF4F608171817A
:101E10008281938108950F931F93CF93DF93EC01F9
:101E20008B010E94791ECE014A96B8010E94791E4C
:101E3000CE01C496B8010E94791EDF91CF911F9107
:101E40000F9108951F920F920FB60F9211242F93A6
:101E50003F934F935F936F937F938F939F93AF9332
:101E6000BF93EF93FF9381E08093D00187E494E0E8
:101E7000D4D1FF91EF91BF91AF919F918F917F91BD
:101E80006F915F914F913F912F910F900FBE0F90E7
:101E90001F9018951F93CF93DF93EC01162F71DBE2
:101EA000DC01CB014D855E856F857889841B950BA0
:101EB000A60BB70B843F21E0920720E0A20720E0A9
:101EC000B207A0F189858B8719879B85898598172B
:101ED00069F157DBDC01CB018D879E87AF87B88B1B
:101EE00099858A85981721F48E819F81019603C078
:101EF0008E819F8101979F838E83688179812E8156
:101F00003F81CB0101964A815B818217930714F4CC
:101F10005F834E838E819F81415050408417950787
:101F200014F47F836E8387E494E077D1DF91CF91BF
:101F30001F9108951F93CF93DF93EC01162F21DBA0
:101F4000DC01CB0149895A896B897C89841B950BFB
:101F5000A60BB70B843F21E0920720E0A20720E008
:101F6000B20770F08A858C871A879C858A859817B6
:101F700039F007DBDC01CB01898B9A8BAB8BBC8BF7
:101F8000DF91CF911F9108951F920F920FB60F927C
:101F900011242F933F934F935F936F937F938F936E
:101FA0009F93AF93BF93CF93DF93EF93FF93D1E0D2
:101FB0001C9BD0E0C1E01D9BC0E08091DD01D817E3
:101FC00021F088EC91E06D2F65DF8091DE01C8176C
:101FD00021F088EC91E06C2FADDFD093DD01C09350
:101FE000DE01FF91EF91DF91CF91BF91AF919F9172
:101FF0008F917F916F915F914F913F912F910F90B2
:102000000FBE0F901F901895CF93DF93EC018FEFC9
:102010009FE79983888380E090E89B838A831D8271
:102020001C821F821E82188681E089878A878B879F
:102030008C871D861E861F86188A198A1A8A1B8A13
:102040001C8A88E060E001DD89E060E0FEDC87E07A
:1020500060E0FBDCCE0161E01DDFCE0161E06ADF04
:10206000EAE6F0E0808180628083EE9AE8E6F0E0C4
:10207000808181608083EBE6F0E0808180638083F3
:10208000DF91CF910895FC018FB7F894660F771F09
:1020900077836683440F551F53834283220F331F78
:1020A00031832083758364838FBF0895FC012FB72C
:1020B000F8948681978186819781817019F0848157
:1020C000958106C0868197819595879595838483B0
:1020D0002FBF0895CF93DF93EC01E8DF2091DF015C
:1020E0003091E0018217930741F0CE01DFDF90933A
:1020F000E0018093DF0181E001C08885DF91CF910D
:102100000895CF93DF93EC012ADA28EE33E040E024
:1021100050E00E94EB308D859E85885A9D4F821736
:10212000930718F48D81846002C08D818B7F8D832D
:10213000DF91CF910895DA0120E030E075E1679FEB
:10214000B0011124680F791F90EBFB01E20FF31F20
:1021500087858F3D11F49C9301C08C932F5F3F4F77
:1021600011962431310589F7FA01148A089580E126
:1021700061E06BDC8FE061E068DC81E161E065DCFF
:102180008CB58F7D8CBD8CB582608CBD8DB581602A
:102190008DBD8CB588608CBD8CB584608CBD8CB5D4
:1021A00080618CBD8CB580648CBD0895CF93DF9326
:1021B000EC01862F6C8361E048DC88E28E83CE01DF
:1021C000D6DFDE0124E030E20FC0FD01E80FF91F89
:1021D0003787019684319105C1F793961C929397A6
:1021E00021505596222319F080E090E0EECF1E8614
:1021F0001D86DF91CF910895CF93DF93EC018C8101
:1022000060E057DC8D818EBD0DB407FEFDCF8C8163
:1022100061E04FDCDF91CF910895CF93DF93EC0124
:102220009ED928EE33E040E050E00E94EB303E873C
:102230002D87CE0166DFCE01DFDFDF91CF910895DC
:10224000CF93DF93EC018D8182608D83CE01D4DF4B
:1022500081E090E09ADB8D818D7F8D83CE01CCDF94
:10226000DF91CF910895CF93DF93EC018D8162953B
:10227000607F8F70682B6D83CE01BEDFCE01E0DF03
:10228000DF91CF9108950F931F93CF93DF93EC01CC
:10229000162F0FB7F8948D81442311F0816001C08F
:1022A0008E7F8D83CE01A8DF212F30E044E035956D
:1022B00027954A95E1F7CE01622FD5DFCE01612F38
:1022C000D2DF0FBFDF91CF911F910F9108951F9320
:1022D000CF93DF93EC01162F41E0D5DF4B858A8544
:1022E00090E025E130E0829FF001839FF00D929F06
:1022F000F00D1124EC0FFD1FE40FF11D17874F5F48
:102300004B8780EA9FE00197F1F781E090E0DF9151
:10231000CF911F91089540E0B6DF80EA9FE00197DA
:10232000F1F70895FC0160856E7F60876460F3CFEC
:10233000FC016085262F226020876660ECCFFC01BF
:102340006781262F246027836C60E5CFCF93DF93CE
:1023500000D000D0CDB7DEB7198220E42A8324E173
:102360002B8324E52C83FC012485421708F040E0F0
:10237000FC0142876387FE01E40FF11D2181260FD6
:102380002068622FC8DF0F900F900F900F90DF91A1
:10239000CF910895CF93DF93EC0162E0BCDF1A8602
:1023A0001B86DF91CF91089561E0B5CFCF93DF9386
:1023B000EC014C871A861B8680E593ECE6DACE01A9
:1023C00063E051DF80E593ECE0DACE0163E04BDFC0
:1023D00088EE93E0DADACE0163E045DF80E593EC46
:1023E000D4DACE0162E03FDF80E593ECCEDACE01B5
:1023F00068E291DFCE01D8DFCE019ADFCE0192DF15
:10240000CE01C8DFCE019BDFDF91CF910895EF921F
:10241000FF920F931F93CF93DF93EC0168830B968A
:1024200096DCCE01875A9F4F92DCCE0189559F4F93
:102430008EDC1A821B821C821D8219828FEF8E8392
:102440008EE090E03CD88C0168810E94AA2225EFA2
:10245000E22EF12CEC0EFD1EF7011183008387E0C4
:1024600090E00E94B51B8C01F70160817181ECD76F
:10247000C950DF4F19830883DF91CF911F910F91CE
:10248000FF90EF900895CF93DF93EC01FC01EB50A8
:10249000FF4F8081918116D8C950DF4F8881998183
:1024A0000E94C81BDF91CF9108958130910541F4BE
:1024B00085E493E067E1ABDF84E492E066E1A7CFD7
:1024C000009731F484E492E0DEDF85E493E0DBCF33
:1024D000089585E493E00E949F2F8091460388230E
:1024E00051F480911402823611F0863621F485E48D
:1024F00093E00E94D22E84E492E00E949F2F80916C
:102500004502882321F484E492E00C94D22E0895AD
:102510008091F101833049F0843068F0843029F0F3
:10252000853049F486E060E008C086E061E0C1DA09
:1025300085E060E005C086E061E0BBDA85E061E04F
:10254000B8CA0DD828EE33E040E050E00E94EB30EE
:10255000C9014091E1015091E2016091E301709164
:10256000E401841B950B08950E94AF0A28EE33E026
:1025700040E050E00E94EB30C9014091E5015091EC
:10258000E6016091E7017091E801841B950B0895C5
:102590000E94AF0A28EE33E040E050E00E94EB30AA
:1025A000C9014091E9015091EA016091EB017091FC
:1025B000EC01841B950B0895CF93DF9384E0AFDA91
:1025C000009789F48091F101833059F000D086EFB3
:1025D00092E0EDB7FEB7928381830E94AB240F9007
:1025E0000F9083E005C0209114022F3621F482E081
:1025F0008093F10195C18091170290911802F0E843
:1026000080309F0709F469C180914502882309F44D
:1026100064C180914603882309F075C1223609F40C
:102620005CC1203709F06FC158C10E94AF0A28EE83
:1026300033E040E050E00E94EB30C901A0E0B0E0A0
:102640008093E9019093EA01A093EB01B093EC0130
:102650008091EF01882309F063C18091F001882304
:1026600009F05EC184E492E00E9499302091170243
:102670003091180240912E0250912F02240F351FE5
:10268000281739076CF580911402863659F459DF02
:1026900023E085389207E8F067DF32E08935930759
:1026A000E8F417C0C0911502D0911602699685E42E
:1026B00093E00E949930C817D9070CF031C141DF6F
:1026C000E1E08D329E0728F04FDFF2E089359F0769
:1026D00028F48091F101813009F022C185E088CF92
:1026E00084E492E00E949930209117023091180200
:1026F0004091300250913102240F351F8217930709
:102700000CF00EC1C0911502D0911602699785E4B4
:1027100093E00E9499308C179D070CF001C111DFE6
:1027200022E08935920728F01FDF31E08D329307D0
:1027300028F48091F101813009F0F2C084E058CF93
:1027400081E08093EF010E94AF0A28EE33E040E081
:1027500050E00E94EB30C901A0E0B0E08093E101BD
:102760009093E201A093E301B093E401C0913C0295
:10277000D0913D020DDFC817D90728F420913C0203
:1027800030913D0202C004DF9C0160911B027091F8
:102790001C02882777FD8095982F442737FD4095A8
:1027A000542F0E94B93020E13EE040E050E00E940A
:1027B0000D31E90184E492E00E949930FC01EC1BA8
:1027C000FD0BF0930B02E0930A02C0911702D09127
:1027D0001802809136029091370220913802309190
:1027E0003902820F931F62E070E00E94D8306C0FB4
:1027F0007D1F6E177F070CF493C0D0930D02C0931A
:102800000C02C6DEE1E08D329E0708F489C065C087
:1028100081E08093F0010E94AF0A28EE33E040E0AF
:1028200050E00E94EB30C901A0E0B0E08093E501E8
:102830009093E601A093E701B093E801C0913A02BA
:10284000D0913B02A5DEC817D90728F420913A029F
:1028500030913B0202C09CDE9C0160911902709194
:102860001A02882777FD8095982F442737FD4095D9
:10287000542F0E94B93020E13EE040E050E00E9439
:102880000D31E90184E492E00E949930FC01EC0FE3
:10289000FD1FF0930B02E0930A02C0911702D09142
:1028A00018028091320290913302209134023091CB
:1028B0003502820F931F62E070E00E94D8306C0FE7
:1028C0007D1FE617F70764F1D0930F02C0930E0245
:1028D0005FDEF1E08D329F0718F11092F10120C008
:1028E00084E01DD981309105D9F400D089E093E0CE
:1028F000EDB7FEB7928381830E94AB241092F10161
:102900000F900F900DC08091F101833049F3833017
:1029100008F48BCE843009F47BCF853009F410CFD6
:10292000DF91CF9108958F929F92AF92BF92CF92F5
:10293000DF92EF92FF92CF93DF9380911402823661
:1029400019F0803709F0BEC12091150230911602AE
:1029500080E82030380709F4B0C18091DE039091FF
:10296000DF03A091E003B091E1032A1B3B0B3093FE
:10297000F3012093F20185E493E00E94A730909345
:10298000F9018093F80180914604982F9F5F9093FE
:1029900046048C3309F07DC0109246048091F20108
:1029A0009091F30197FF03C0909581959F4F2091DF
:1029B0002C0230912D02821793070CF04DC0E8DDF8
:1029C00027E08930920708F064C08091F20190916D
:1029D000F30197FF0EC0C0911702D0911802C050AA
:1029E000DC4F84E492E00E949930C817D9070CF4B8
:1029F00050C08091F2019091F301181619066CF401
:102A0000C0911702D0911802C050D44084E492E0E3
:102A10000E9499308C179D07E4F14091F20150918A
:102A2000F301CA0157FF04C088279927841B950B1F
:102A30008B31910574F1662757FD6095762F809153
:102A4000F4019091F501A091F601B091F701840F86
:102A5000951FA61FB71F15C08091F4019091F50135
:102A6000A091F601B091F701AC01BD01D3E07595DD
:102A7000679557954795DA95D1F7841B950BA60B6B
:102A8000B70B8093F4019093F501A093F601B093F6
:102A9000F7012091F2013091F301809106029091AB
:102AA0000702AA2797FDA095BA2F4427582F692F10
:102AB0007A2F481B590B6A0B7B0B37FF2BC0809179
:102AC000240290912502AA2797FDA095BA2F480FBE
:102AD000591F6A1F7B1F452F562F672F772767FDCA
:102AE0007A955093070240930602809108029091D4
:102AF0000902AA2797FDA095BA2F4427582F692FBE
:102B00007A2F481B590B6A0B7B0B809128029091FE
:102B100029022AC08091220290912302AA2797FDC0
:102B2000A095BA2F480F591F6A1F7B1F452F562F9C
:102B3000672F772767FD7A95509307024093060227
:102B40008091080290910902AA2797FDA095BA2FBB
:102B50004427582F692F7A2F481B590B6A0B7B0B80
:102B600080912A0290912B02AA2797FDA095BA2F57
:102B7000480F591F6A1F7B1F452F562F672F772736
:102B800067FD7A955093090240930802609106020E
:102B900070910702882777FD8095982F442737FD8D
:102BA0004095542F0E94B9304B015C01F9E0B59477
:102BB000A79497948794FA95D1F78092FA0190920E
:102BC000FB01A092FC01B092FD0160912602709180
:102BD0002702882777FD8095982F2091F401309166
:102BE000F5014091F6015091F7010E94B9306B0157
:102BF0007C01A9E0F594E794D794C794AA95D1F7FE
:102C0000C092FE01D092FF01E0920002F092010218
:102C10006091080270910902882777FD8095982FAE
:102C20002091F8013091F901442737FD4095542F48
:102C30000E94B930AB01BC01B9E075956795579515
:102C40004795BA95D1F740930202509303026093DF
:102C50000402709305028091150290911602AA2732
:102C600097FDA095BA2F880D991DAA1DBB1D8C0D2F
:102C70009D1DAE1DBF1D840F951FA61FB71F209160
:102C80001E0230911F02A901662757FD6095762F1D
:102C900084179507A607B70784F04091200250914A
:102CA0002102662757FD6095762F481759076A0756
:102CB0007B0714F4DB01CA019C01309318022093B6
:102CC000170206C080E090E89093160280931502E8
:102CD000DF91CF91FF90EF90DF90CF90BF90AF90BA
:102CE0009F908F90089584E192E061E070E049E068
:102CF00050E00E940A36809115029091160290933E
:102D0000EE018093ED010895CF93DF93EC01F5E0A0
:102D100075956795FA95E1F78FEF6B3A78076CF048
:102D20001616170614F460E070E066557E4F9B019E
:102D3000442737FD4095542F04C025E531E040E09D
:102D400050E068817981882777FD8095982F0E94CF
:102D5000B930DC01CB01E9E0B595A795979587954A
:102D6000EA95D1F799838883BEDFDF91CF910895EB
:102D7000CF93DF93EC0135E0759567953A95E1F7D0
:102D800077FD0DC06B39710514F06AE970E06A597E
:102D90007D4F9B01442737FD4095542F04C026E604
:102DA00032E040E050E068817981882777FD8095A6
:102DB000982F0E94B930DC01CB0180302EEF9207B2
:102DC0002FEFA20720E0B20744F429E0B595A795BC
:102DD000979587952A95D1F702C08FEF9FE7998342
:102DE000888381DFDF91CF910895AF92BF92CF9218
:102DF000DF92EF92FF920F93CF93DF93CDB7DEB7C1
:102E00006B970FB6F894DEBF0FBECDBF8091F00177
:102E1000882309F4CEC08091F101843009F4C9C03F
:102E200081ED92E088D77C0120E88030920781F123
:102E300080910E0290910F02209132023091330264
:102E4000820F931F8E159F0534F4B701681B790B11
:102E500089E192E08DDF80910E0290910F02209126
:102E6000340230913502820F931FE816F90634F4CC
:102E7000B701681B790B89E192E046DF00D08CE155
:102E800093E0ADB7BEB712969C938E93119735C061
:102E90006BDB0A96B3E085389B0708F483C084E4B3
:102EA00092E00E94993020910E0230910F024091E1
:102EB000340250913502240F351F821793070CF00E
:102EC00071C084E492E00E9499307C0180910E02EE
:102ED00090910F022091340230913502820F931F9E
:102EE000B701681B790B89E192E00EDF00D084E323
:102EF00093E0EDB7FEB7928381830E94D2240F90B6
:102F00000F90A701662757FD6095762FCE01439657
:102F100023E009E00E94E62C5C0140910E025091F2
:102F20000F02662757FD6095762FCE010A9623E0A3
:102F30000E94E62C6C014091190250911A026627FA
:102F400057FD6095762FCE01019623E00E94012C5B
:102F50002DB73EB7285030400FB6F8943EBF0FBE95
:102F60002DBFEDB7FEB7319629E533E0ADB7BEB75B
:102F700012963C932E931197B382A282D582C4827B
:102F8000978386830E94D2241092F001F09213025C
:102F9000E0921202EDB7FEB738960FB6F894FEBF76
:102FA0000FBEEDBFE1DAF3E085389F0710F0109215
:102FB000F0018091EF01882309F4CBC08091F101E9
:102FC000853009F4C6C081ED92E0D4D67C0120E8BA
:102FD00080309207B1F180910C0290910D02209106
:102FE000380230913902820F931FE816F90634F443
:102FF000B701681B790B8BE192E0BADE80910C027D
:1030000090910D022091360230913702280F391F1E
:103010002E153F0564F42091380230913902280FB3
:10302000391FB701621B730B8BE192E06DDE00D09C
:1030300083E893E0ADB7BEB712969C938E93119739
:103040002CC07FDA0A96B7E089309B0708F47AC073
:1030500084E492E00E94993020910C0230910D029C
:103060004091360250913702420F531F48175907BB
:103070000CF068C08091380290913902820F931F42
:10308000B701681B790B8BE192E03EDE00D08BE943
:1030900093E0EDB7FEB7928381830E94D2240F9014
:1030A0000F90A701662757FD6095762FCE010196F8
:1030B00023E009E00E94E62C5C0140910C02509153
:1030C0000D02662757FD6095762FCE010A9623E004
:1030D0000E94E62C6C0140911B0250911C02662755
:1030E00057FD6095762FCE01439623E00E94012C78
:1030F0002DB73EB7285030400FB6F8943EBF0FBEF4
:103100002DBFEDB7FEB7319622EC33E0ADB7BEB7B9
:1031100012963C932E931197B382A282D582C482D9
:10312000978386830E94D2241092EF01F0921102BD
:10313000E0921002EDB7FEB738960FB6F894FEBFD6
:103140000FBEEDBFFED9F7E089309F0710F0109257
:10315000EF016B960FB6F894DEBF0FBECDBFDF91C7
:10316000CF910F91FF90EF90DF90CF90BF90AF90F5
:10317000089584E192E061E070E049E050E00C9451
:10318000F23582E68093140280E098E29093160272
:1031900080931502909318028093170280E190E0CB
:1031A00090931A028093190280E09AE090931C0297
:1031B00080931B0298CD8DE192E06AE070E047E2D7
:1031C00050E00C940A368DE192E06AE070E047E24C
:1031D00050E00C94F235CF9383E480931D0288E590
:1031E00092E090933B0280933A0280EB94E09093BC
:1031F0003D0280933C0280E09CE390932102809307
:10320000200280E092E090931F0280931E0280E0F3
:1032100098E2909323028093220290932502809358
:10322000240283E391E0909327028093260280E0BA
:103230009AEF909329028093280290932B02809317
:103240002A0280E091E090932D0280932C029093CB
:103250002F0280932E0280E09FEF909331028093A3
:10326000300286E690E090933302809332028DEC38
:103270009FEF909335028093340283E390E0909324
:103280003702809336028AE99FEF90933902809348
:10329000380281E080933E028FE492E061E00E9478
:1032A000B60E84E080933F028DE992E064E00E94D4
:1032B000B60EC3E0C09340028BEE92E063E00E9442
:1032C000B60E82E08093410280E593E062E00E94C6
:1032D000B60E85E0809342028EE993E065E00E949D
:1032E000B60EC09343028CEE93E063E00E94B60EEC
:1032F00062DFCF91089580E090E00E940236813035
:1033000049F03FDF68DF80E090E061E00E942B360B
:10331000EADC51CF2EDF57CF90911402891791F03C
:103320001092F101809314028F56823050F480E0A5
:1033300090E8909316028093150290931802809360
:103340001702D1CC089585E493E00C949930FBDF0B
:103350002091150230911602281739076CF48091DC
:103360002402909125029093070280930602809197
:103370002802909129020CC0809122029091230290
:10338000909307028093060280912A0290912B026B
:1033900090930902809308021092F0011092EF01BD
:1033A000089581E08093F10185E493E00E94D22E9C
:1033B00084E492E00E94D22E8CD8C9CF809115026D
:1033C00090911602089584E492E00C9499308091D3
:1033D0001702909118020895CF93DF93EC0180912A
:1033E000150290911602D0931602C09315028C1B01
:1033F0009D0B97FF03C0909581959F4F8138910554
:103400000CF0A5DF90DAD8D88091ED019091EE0113
:103410008C1B9D0B97FF03C0909581959F4F813822
:1034200091050CF060DCDF91CF9108959093180224
:10343000809317028CDF77DABFD855CC81E090E01B
:1034400034C880E090E031C8FC0176836583148243
:10345000108289E090E09283818381E083830895E4
:10346000CF93DF93EB01CB0167E00E94502391E003
:103470002F81821390E0892FDF91CF910895EF92F1
:10348000FF920F931F93CF93DF93EC018B01E42EF8
:103490008D819E810E949D22FF2406C0CE01B8012D
:1034A000DFDF882359F414C08D819E81B8010E940A
:1034B000CD22882329F0FE1459F4F0CF81E001C019
:1034C00080E0DF91CF911F910F91FF90EF900895D1
:1034D000F394EF14A8F3E8CFEF92FF920F931F93AA
:1034E000CF93DF93EC017B018A018D819E81FDD614
:1034F0008D819E81B701F1D78D819E816EEB40E079
:103500008ED78D819E81CED7F80180838D819E815B
:10351000C9D7F80181838D819E81C4D7F801828348
:103520008D819E81BFD7F80183838D819E81BAD71B
:10353000F80184838D819E81B5D7F80185838D81C3
:103540009E81B0D7F80186838D819E81ABD7F8012B
:1035500087838D819E81A6D7F80180878D819E818A
:10356000C4D6DF91CF911F910F91FF90EF900895F6
:10357000CF93DF93EA01B0DFCE0168E00E945023D1
:1035800091E02885821390E0892FDF91CF910895F3
:10359000EF92FF920F931F93CF93DF938C01EB0178
:1035A0007A01FC0185819681A0D6F80185819681FA
:1035B000BE0193D7F801858196816EE440E02FD754
:1035C000F80185819681F701628140E028D7F801F2
:1035D00085819681F701638140E021D78881803120
:1035E00039F0F80185819681F701648140E017D7B1
:1035F000F8018581968179D6F8018581968168E404
:1036000040810DD7F8018081882331F06AE070E0B5
:1036100080E090E00E94EB0AF8018581968165D6F2
:10362000DF91CF911F910F91FF90EF900895EF924E
:10363000FF920F931F93CF93DF93CDB7DEB72A97F7
:103640000FB6F894DEBF0FBECDBF7C018B01242FD7
:10365000AE014F5F5F4F2A878BDF2A858823D9F021
:10366000F80180818031C9F02A3051F02A3050F0C1
:103670002B3021F02C3031F48FE705C08FE503C0EB
:103680008FE301C08FE18D83C701B801AE014F5FA9
:103690005F4F7EDF02C080E001C081E02A960FB656
:1036A000F894DEBF0FBECDBFDF91CF911F910F9178
:1036B000FF90EF900895CF93DF93EC018D819E8171
:1036C00014D68D819E8136D78D819E8164E4488198
:1036D000A6D68B81882321F189819A818930910531
:1036E00051F089309105B4F08A30910549F08B3062
:1036F000910581F40AC06EE570E080E090E00EC0B4
:103700006CEB70E080E090E009C067E771E080E07A
:1037100090E004C06EEE72E080E090E00E94EB0A60
:10372000DF91CF910895CF93DF93CDB7DEB729977F
:103730000FB6F894DEBF0FBECDBFAE014F5F5F4F37
:1037400017DF882339F03A8120E0898190E0822BCD
:10375000932B02C081E89FEF29960FB6F894DEBF45
:103760000FBECDBFDF91CF9108950F931F93CF93DD
:10377000DF93EC010E9442318C0160E070E0AE0109
:103780000E94B633C801DF91CF911F910F91089528
:103790000C94D83108958130910559F410924A045F
:1037A0001092490482E491E0909348048093470486
:1037B0000895009731F482E491E090934804809357
:1037C000470408950F931F93CF93DF93CDB7DEB7D0
:1037D00065970FB6F894DEBF0FBECDBF8C01CE014A
:1037E000019644E150E00E94A233C801BE016F5F20
:1037F0007F4F0E94EA0965960FB6F894DEBF0FBEB0
:10380000CDBFDF91CF911F910F910895CF93DF939B
:10381000EC01FC01ED59FF4F8FEF8083CE016AE090
:103820000E94D610CE0164E144E00E94D611CE0180
:103830000E94D411DF91CF9108958F929F92AF9201
:10384000BF92CF92DF92FF920F931F93CF93DF939C
:10385000CDB7DEB729970FB6F894DEBF0FBECDBF48
:103860004C01CB01AC01662757FD6095762F6E01A8
:103870000894C11CD11CC60121E009E00E94E62C7D
:1038800000E010E0FC2CCD2C85E0A82EB12C05C06A
:1038900060E20E9467110F5F1F4F8F2D9C2D0E94C9
:1038A000C5339501281B390BC4010217130780F398
:1038B0006F2D7C2D0E94EA0929960FB6F894DEBF81
:1038C0000FBECDBFDF91CF911F910F91FF90DF9081
:1038D000CF90BF90AF909F908F9008956DEE73E062
:1038E00071CFCF93DF93EC016CE042E00E94A61110
:1038F0006EDDBC0180E86030780719F4CE01EEDFA0
:1039000002C0CE019ADFDF91CF910895CF93DF936C
:10391000EC0166E042E00E94A611809145028823F6
:1039200029F051DDBC01CE0188DF02C0CE01D6DF17
:10393000DF91CF910895CF93DF93EC016CE041E0EC
:103940000E94A6113BDDBC0180E86030780719F4C5
:10395000CE01C4DF02C0CE0170DFDF91CF910895A8
:10396000CF93DF93EC0166E041E00E94A6118091C5
:103970004603882329F0E7DCBC01CE015EDF02C0EC
:10398000CE01ACDFDF91CF910895CF93DF93EC01AF
:10399000E7DFCE01D0DFCE01B9DFCE01A2DFDF91BC
:1039A000CF910895CF93DF93D82FC92F6FED0E9449
:1039B00067118D2F9C2F60911D020E946711DF916E
:1039C000CF910895CF93DF93D82FC92F60E040E0C7
:1039D0000E94A6118D2F9C2F63EF73E0F3DE8D2FD5
:1039E0009C2F60E041E00E94A6118D2F9C2F6BEF71
:1039F00073E0E8DE8D2F9C2F60E042E00E94A6116C
:103A00008D2F9C2F63E074E0DDDE8D2F9C2F62E113
:103A100041E00E94A6118D2F9C2FC4DF8D2F9C2F7B
:103A200062E142E00E94A6118D2F9C2FBBDFDF9147
:103A3000CF910895CF93DF93D82FC92F67E040E04F
:103A40000E94A61180911402863651F0873618F430
:103A50008236D1F40AC08F3691F08037A9F40AC0BB
:103A60008D2F9C2F6BE074E013C08D2F9C2F69E18C
:103A700074E00EC08D2F9C2F67E274E009C08D2F7B
:103A80009C2F65E374E004C08D2F9C2F63E474E0E9
:103A900099DEDF91CF910895FF920F931F93CF93FB
:103AA000DF938C01C091F101FC01ED59FF4F808142
:103AB000C817D1F1F02ED12FC80160E043E00E9479
:103AC000A6118091F101823011F1833028F488230E
:103AD00051F0813001F50BC0843089F0843098F0CA
:103AE0008530C9F408C0C80161E574E018C0C80198
:103AF00066E674E014C0C8016BE774E010C0C8014A
:103B000060E974E00CC0C80165EA74E008C0C8014F
:103B10006AEB74E004C08F2D9D2F6FEC74E052DED1
:103B2000F801ED59FF4FC083CC2399F4C80169E037
:103B300043E00E94A6110E94A112EC010E94B4125F
:103B4000C817D90718F40E94A1120DC00E94B41220
:103B50000AC0C450C23088F4C8016CE043E00E943F
:103B6000A6110E94C812BC01C8014AE050E00E94A0
:103B70005A0AC80164EE74E025DEDF91CF911F91EF
:103B80000F91FF90089581E090E005CE80E090E0F5
:103B900002CE2F923F924F925F926F927F928F92BE
:103BA0009F92AF92BF92CF92DF92EF92FF920F93CC
:103BB0001F93CF93DF93FC0144805580668077800C
:103BC000408651866286738680809180A280B38011
:103BD00084829582A682B7824083518362837383F5
:103BE000C088D188E288F388C48AD58AE68AF78AB1
:103BF00084859585A685B785808B918BA28BB38BA9
:103C0000D18DC08D2C2E33248C019D010C191D09E2
:103C10002E093F09080F191F2A1F3B1F0D2E04C034
:103C2000B595A795979587950A94D2F7081B190B18
:103C30002A0B3B0BD701C60104C0B595A7959795F4
:103C40008795DA95D2F7080F191F2A1F3B1FDB0152
:103C5000CA010C2E04C0B595A795979587950A942F
:103C6000D2F7080F191F2A1F3B1FC1010197B50189
:103C7000A40104C075956795579547958A95D2F725
:103C8000040F151F261F371FD301C20104C0B595AD
:103C9000A79597958795CA95D2F7080F191F2A1FE0
:103CA0003B1FC1010297B701A60104C07595679536
:103CB000579547958A95D2F7041B150B260B370BA2
:103CC0000487158726873787B801C901DF91CF910F
:103CD0001F910F91FF90EF90DF90CF90BF90AF902A
:103CE0009F908F907F906F905F904F903F902F901C
:103CF0000895FC01CB01AA2797FDA095BA2FDC01FE
:103D00009927882780839183A283B38384839583B3
:103D1000A683B78380879187A287B3878487958797
:103D2000A687B787808B918BA28BB38B848B958B67
:103D3000A68BB78B0895FC014089518962897389EC
:103D400084859585A685B78584179507A607B70747
:103D50005CF484899589A689B789481759076A0749
:103D60007B072CF0CB01089580E090E8089580E077
:103D700090E80895FC01408951896289738984859E
:103D80009585A685B785481759076A077B075CF4B0
:103D900084899589A689B78984179507A607B707E7
:103DA0002CF0CB01089580E090E8089580E090E841
:103DB0000895AF92BF92CF92DF92EF92FF920F934E
:103DC0001F93CF93DF93CDB7DEB729970FB6F89443
:103DD000DEBF0FBECDBF87E494E0F4DDEFDA5C0117
:103DE00020E88030920719F460E078E201C0BC015D
:103DF000882777FD8095982F0E94652E8C01609111
:103E00001E0270911F02882777FD8095982F0E94CF
:103E1000652E6C016091200270912102882777FD48
:103E20008095982F0E94652E9C0188EC91E0B80146
:103E3000A6010E9443100E94AF0A6B017C0151C091
:103E400088EC91E00E946A10882381F10E94AF0AF9
:103E50006B017C0188EC91E00E9456100E949B2E21
:103E6000BBDA87E494E067DD8091D0018823C9F153
:103E70001092D001A3DAAC01662757FD6095762F2A
:103E8000CE01019621E009E00E94E62C00D000D08E
:103E90002EE335E0EDB7FEB732832183948383832D
:103EA00034D50F900F900F900F902FC0112321F455
:103EB00087E494E040DD0DC0103859F487E494E0C5
:103EC0006CE041E00E94A61187E494E06BE575E0A8
:103ED00079DC1F5F63E070E080E090E00E94EB0A15
:103EE00001C010E00E94AF0ADC01CB018C199D09D2
:103EF000AE09BF098031F7E29F07F0E0AF07F0E0BD
:103F0000BF0708F49DCFC50167DA29960FB6F8946C
:103F1000DEBF0FBECDBFDF91CF911F910F91FF90FC
:103F2000EF90DF90CF90BF90AF900895AF92BF9287
:103F3000CF92DF92EF92FF920F931F93CF93DF9375
:103F4000CDB7DEB729970FB6F894DEBF0FBECDBF51
:103F500087E494E037DD3BDA5C0120E880309207AB
:103F600019F460E078E201C0BC01882777FD8095F4
:103F7000982F0E94652E8C0160911E0270911F0285
:103F8000882777FD8095982F0E94652E6C0160919F
:103F9000200270912102882777FD8095982F0E943A
:103FA000652E9C0188EC91E0B801A6010E944310A7
:103FB0000E94AF0A6B017C0151C088EC91E00E9425
:103FC0006A10882381F10E94AF0A6B017C0188ECA2
:103FD00091E00E9456100E949B2E28DA87E494E01C
:103FE00080DC8091D0018823C9F11092D001EFD9F3
:103FF000AC01662757FD6095762FCE01019621E032
:1040000009E00E94E62C00D000D021E635E0EDB7B3
:10401000FEB732832183948383839DD40F900F90C6
:104020000F900F902FC0112321F487E494E059DC06
:104030000DC0103859F487E494E06CE042E00E942F
:10404000A61187E494E060E875E0BCDB1F5F63E0E5
:1040500070E080E090E00E94EB0A01C010E00E9456
:10406000AF0ADC01CB018C199D09AE09BF09803173
:10407000F7E29F07F0E0AF07F0E0BF0708F49DCF3D
:10408000C501D4D929960FB6F894DEBF0FBECDBFB7
:10409000DF91CF911F910F91FF90EF90DF90CF9024
:1040A000BF90AF900895CF92DF92EF92FF920F935F
:1040B0001F93CF93DF9300D000D0CDB7DEB787E456
:1040C00094E080DC10911402E12FE656EB3028F4E6
:1040D000F0E0EA5BFE4F608101C060E088EC91E0B7
:1040E00070E040E050E023E030E00E94431082E6C0
:1040F000898386E68A8380E78B838FE68C830E94A0
:10410000AF0A6B017C0158C088EC91E00E946A10F4
:104110008823B9F10E94AF0A6B017C0188EC91E021
:104120000E945610E1E0F0E0EC0FFD1FE80FF91FD0
:104130008081F2D887E494E07DDC8091D0018823EF
:1041400009F43AC01092D00180911402823611F421
:1041500030DE46C0863611F4E9DE42C0803721F4F5
:1041600000D08EEE94E005C08F36D1F500D08FE000
:1041700095E0EDB7FEB792838183C7D30F900F9080
:104180002FC0002321F487E494E054DC0DC00038F4
:1041900059F487E494E067E040E00E94A61187E4C8
:1041A00094E060E375E00EDB0F5F63E070E080E0B9
:1041B00090E00E94EB0A01C000E00E94AF0ADC011F
:1041C000CB018C199D09AE09BF098031F7E29F0729
:1041D000F0E0AF07F0E0BF0708F496CF812F9CD83E
:1041E0000F900F900F900F90DF91CF911F910F9133
:1041F000FF90EF90DF90CF900895CF92DF92EF92F3
:10420000FF92CF9388EC91E060E070E040E050E0F6
:1042100022E030E00E9443100E94AF0A6B017C0153
:10422000C0E04CC088EC91E00E946A10882329F01D
:104230000E94AF0A6B017C0102C0CC2329F487E401
:1042400094E0C0DBC0E011C0C03879F488EC91E0A4
:104250000E945610482F87E494E060E00E94A61167
:1042600087E494E067EE74E0ADDA8091D0018823B2
:10427000F1F01092D00188EC91E00E94561081304C
:10428000910539F08230910559F0009781F40BDFE8
:1042900026C082E641D887E494E0CCDB8ADD1FC0EB
:1042A00086E63AD887E494E0C5DB40DE18C0CF5FED
:1042B00063E070E080E090E00E94EB0A0E94AF0AA9
:1042C000DC01CB018C199D09AE09BF09803127E2C1
:1042D000920720E0A20720E0B20708F4A3CFCF9115
:1042E000FF90EF90DF90CF900895FF920F931F9370
:1042F000CF93DF93FC011081C181D281F894898131
:10430000012F00958023898378948DE7F82EFA9405
:1043100031F182E090E00E94C50C88818123B9F3DD
:10432000F8948A8180238A838981812B8983789478
:1043300084EF91E00E94C50CF894898180238983E1
:1043400080E590E00E94C50C88818123C1E009F0DE
:10435000C0E0789484EA91E00E94C50C01C0C0E0FE
:104360008C2FDF91CF911F910F91FF9008951F9394
:10437000CF93DF93FC011081C181D281912F909561
:10438000F8948A8189238A838981812B898360FFBC
:104390000BC08AE090E00E94C50C8A81812B8A8341
:1043A000789487E390E00AC081E490E00E94C50C15
:1043B0008A81812B8A83789485E090E00E94C50CE5
:1043C000DF91CF911F9108950F931F93CF93DF93A8
:1043D000FC011081C181D281F8948981812B89836C
:1043E0008A81012F009580238A8383E090E00E94D8
:1043F000C50C8981802389838AE090E00E94C50CE6
:10440000C881789485E390E00E94C50C1C2381E06C
:1044100009F480E0DF91CF911F910F910895CF9221
:10442000DF92EF92FF920F931F93CF93DF930F9240
:10443000CDB7DEB78C01F62E28E0C22ED12CEE24AB
:10444000E3948E2D8F2161E009F460E0C801498377
:104450008EDFEE0C0894C108D1084981C114D10443
:1044600081F74423A9F4F894D8011196ED91FC91B9
:10447000129791818C918095892381831196ED917A
:10448000FC91129792818C918095892382837894F4
:104490000F90DF91CF911F910F91FF90EF90DF90E0
:1044A000CF900895EF92FF920F931F93CF93DF93D6
:1044B0008C01C8E0D0E0FF24EE24E394C80184DF3F
:1044C0008111FE28EE0C2197C9F78F2DDF91CF9136
:1044D0001F910F91FF90EF900895CF92DF92EF928E
:1044E000FF920F931F93CF93DF930F92CDB7DEB759
:1044F0007C01C62E65E540E0798391DF0C2D798142
:10450000172FCC24DD24F80161918F01C70140E011
:1045100086DF0894C11CD11CF8E0CF16D10499F7AE
:104520000F90DF91CF911F910F91FF90EF90DF904F
:10453000CF9008956CEC40E072CFFC011386158695
:1045400014861286118610861782168215821482AE
:10455000138208951F93CF93DF93EC01162F862FBC
:1045600060E00E94250D612F70E0FB01E358FD4FD4
:10457000E491E883FB01E556FD4FE491F0E0EE0F96
:10458000FF1FE754FD4F8591949189839A83CE0153
:10459000D4DFDF91CF911F910895BF92CF92DF9228
:1045A000EF92FF920F931F93CF93DF93EC016B0178
:1045B0008D85882309F052C0CE0197DE882321F42F
:1045C0001B861D861C865BC0CE0160EF40E027DFA6
:1045D00001E0FF24EE2411E0CE01F6DEB82ECE017C
:1045E000F3DE91E0B91619F48130A9F42FC0B816A2
:1045F000D1F48B85181738F4FE01EF0DF11D83817E
:10460000802349F402C0181731F060E0193008F037
:1046100040C01C873EC0FE01EF0DF11D8381802B41
:10462000838361E009C06B2DFE01EF0DF11D902F1A
:104630009095838189238383CE0199DE1F5F000FCC
:1046400011F4F39401E087E08F1530F6113430F067
:10465000EB86EE2001F581E08D871DC01B861D864F
:104660001C8680E0D60120E030E0FE01E20FF31F5F
:1046700093819D932F5F3F4F28303105B1F7DF9134
:10468000CF911F910F91FF90EF90DF90CF90BF904F
:104690000895E12EC9CF8B81882301F381E0E2CF19
:1046A000DC0180E007C0ED91E827F0E0EA57FA4F1F
:1046B000849161506623B9F70895CF93DF93CDB706
:1046C000DEB7C058D0400FB6F894DEBF0FBECDBFE6
:1046D000FE01EB57FF4F41915191CE01019660E8E9
:1046E00070E09F010E94FB3380E791E0BE016F5FA5
:1046F0007F4F0E94EA09C058DF4F0FB6F894DEBF23
:104700000FBECDBFDF91CF910895CF92DF92EF9290
:10471000FF920F93CF93DF93CDB7DEB729970FB6F4
:10472000F894DEBF0FBECDBF7C016B010E94A319C0
:10473000AC01662757FD6095762FCE01019622E0E9
:1047400009E00E94E62C00D000D02BEF36E0ADB798
:10475000BEB712963C932E93119714969C938E930A
:104760001397ABDF0F900F900F900F900E94DE1900
:10477000AC01662757FD6095762FCE01019622E0A9
:104780000E94E62C00D000D02DE037E0EDB7FEB758
:10479000328321839483838390DF0F900F908BE18A
:1047A00097E0ADB7BEB712969C938E93119785DFB5
:1047B0000F900F90E114F10459F400D086E297E0D5
:1047C000EDB7FEB79283818378DF0F900F9013C00F
:1047D00000D000D08CE297E0ADB7BEB712969C93A4
:1047E0008E9311971496FC92EE92139766DF0F90BA
:1047F0000F900F900F900E94E319AC01662757FDB0
:104800006095762FCE01019622E009E00E94E62C09
:1048100000D000D022E337E0EDB7FEB7328321832A
:10482000948383834ADF0F900F900F900F900E9424
:10483000E719AC01662757FD6095762FCE010196EA
:1048400022E00E94E62C00D000D023E437E0ADB790
:10485000BEB712963C932E93119714969C938E9309
:1048600013972BDF0F900F9083E597E0EDB7FEB71E
:104870009283818322DF0F900F90C114D10469F4D9
:1048800000D080E697E0ADB7BEB712969C938E93AA
:10489000119713DF0F900F900FC000D000D086E665
:1048A00097E0EDB7FEB792838183D482C38205DFA0
:1048B0000F900F900F900F9000D000D0EDB7FEB783
:1048C00031968CE697E0ADB7BEB712969C938E9367
:1048D00011978091F10182831382EFDE0F900F9088
:1048E0000F900F9029960FB6F894DEBF0FBECDBF84
:1048F000DF91CF910F91FF90EF90DF90CF900895CF
:1049000080E090E060E070E000CFCF93DF93CDB720
:10491000DEB7C058D0400FB6F894DEBF0FBECDBF93
:10492000FE01EB57FF4F41915191CE01019660E896
:1049300070E09F010E94FB33CE01019660E070E0C1
:10494000E4DEC058DF4F0FB6F894DEBF0FBECDBF18
:10495000DF91CF910895CF93DF93CDB7DEB7C058E5
:10496000D0400FB6F894DEBF0FBECDBFFE01EB57AF
:10497000FF4F41915191CE01019660E870E09F0197
:104980000E94FB3380E090E0BE016F5F7F4FBDDE91
:10499000C058DF4F0FB6F894DEBF0FBECDBFDF911A
:1049A000CF910895EF92FF920F931F93CF93DF93D0
:1049B000CDB7DEB7C058D0400FB6F894DEBF0FBEFB
:1049C000CDBF8E0107571F4FF801E190F1908F0185
:1049D00000D089E797E0EDB7FEB7928381836DDE63
:1049E0000F900F90CE01019660E870E0A70198014A
:1049F0000E94FB3380E791E0BE016F5F7F4F0E9412
:104A0000EA0900D08CE797E0EDB7FEB79283818387
:104A100054DE0F900F90C058DF4F0FB6F894DEBFF2
:104A20000FBECDBFDF91CF911F910F91FF90EF90FF
:104A3000089500D000D000D0EDB7FEB7319626E73C
:104A400039E0ADB7BEB712963C932E93119793837E
:104A500082837583648331DE8DB79EB706960FB669
:104A6000F8949EBF0FBE8DBF089500D000D000D037
:104A7000EDB7FEB731962FE739E0ADB7BEB7129666
:104A80003C932E931197938382837583648315DE01
:104A90008DB79EB706960FB6F8949EBF0FBE8DBF1A
:104AA00008950F93CF93DF93CDB7DEB72C970FB652
:104AB000F894DEBF0FBECDBF00D08AE099E0EDB71D
:104AC000FEB792838183F9DD0F900F904091F20140
:104AD0005091F301662757FD6095762FCE01019620
:104AE00023E00CE00E94F72DBC018EE099E0A1DFED
:104AF0004091F4015091F5016091F6017091F70138
:104B0000CE01019623E00E94F72DBC0187E199E0D8
:104B100090DF4091F8015091F901662757FD6095AB
:104B2000762FCE01019623E00E94F72DBC0184E28E
:104B300099E07FDF4091FA015091FB016091FC0107
:104B40007091FD01CE01019623E05BD6BC018EE29F
:104B500099E06FDF4091FE015091FF0160910002EA
:104B600070910102CE01019623E04BD6BC0180E397
:104B700099E05FDF409102025091030260910402CC
:104B800070910502CE01019623E03BD6BC0182E381
:104B900099E04FDF4091060250910702662757FDCA
:104BA0006095762FCE01019623E02BD6BC0184E3DD
:104BB00099E03FDF4091080250910902662757FDB6
:104BC0006095762FCE01019623E01BD6BC0187E3CA
:104BD00099E02FDF40910A0250910B02662757FDA2
:104BE0006095762FCE01019623E0F0D6BC018AE3D2
:104BF00099E01FDF40910C0250910D02662757FD8E
:104C00006095762FCE01019623E0E0D6BC0188E4C2
:104C100099E00FDF40910E0250910F02662757FD79
:104C20006095762FCE01019623E0D0D6BC0187E5B2
:104C300099E0FFDE4091100250911102662757FD66
:104C40006095762FCE01019623E0C0D6BC0186E6A2
:104C500099E0EFDE4091120250911302662757FD52
:104C60006095762FCE01019623E0B0D6BC018EE68A
:104C700099E0FBDE2C960FB6F894DEBF0FBECDBFD9
:104C8000DF91CF910F91089500D000D000D0EDB703
:104C9000FEB7319629E839E0ADB7BEB712963C931E
:104CA0002E931197938382836483158206DD8DB7DB
:104CB0009EB706960FB6F8949EBF0FBE8DBF08959F
:104CC0000F93CF93DF93CDB7DEB72C970FB6F89441
:104CD000DEBF0FBECDBF00D08EE797E0EDB7FEB7C9
:104CE00092838183EADC0F900F9082E897E06091D5
:104CF0001402CADF4091150250911602662757FD33
:104D00006095762FCE01019622E00CE05FD6BC01C3
:104D100087E897E08EDE40911702509118026627CF
:104D200057FD6095762FCE01019622E04FD6BC014B
:104D300083E997E07EDE4091190250911A026627BE
:104D400057FD6095762FCE01019623E05AD5BC0120
:104D500081EA97E06EDE40911B0250911C026627AB
:104D600057FD6095762FCE01019623E04AD5BC0110
:104D70008FEA97E07ADE2C960FB6F894DEBF0FBE6E
:104D8000CDBFDF91CF910F91089500D000D000D01A
:104D9000EDB7FEB7319620EA39E0ADB7BEB712964F
:104DA0003C932E931197938382837583648385DC70
:104DB0008DB79EB706960FB6F8949EBF0FBE8DBFF7
:104DC000089500D000D000D0EDB7FEB7319623EBA8
:104DD00039E0ADB7BEB712963C932E9311979383EB
:104DE00082836483158269DC8DB79EB706960FB601
:104DF000F8949EBF0FBE8DBF089500D000D000D0A4
:104E0000EDB7FEB731962CEB39E0ADB7BEB71296D1
:104E10003C932E93119793838283648315824DDC98
:104E20008DB79EB706960FB6F8949EBF0FBE8DBF86
:104E300008950F93CF93DF93CDB7DEB72C970FB6BE
:104E4000F894DEBF0FBECDBF00D08DEB97E0EDB77D
:104E5000FEB79283818331DC0F900F9081EC97E055
:104E600060911D0211DF40911E0250911F026627C2
:104E700057FD6095762FCE01019621E00CE0A6D576
:104E8000BC018CEC97E0D5DD4091200250912102CD
:104E9000662757FD6095762FCE01019621E096D5C5
:104EA000BC018BED97E0C5DD4091220250912302B9
:104EB000662757FD6095762FCE01019623E0A1D499
:104EC000BC018AEE97E0B5DD4091240250912502A5
:104ED000662757FD6095762FCE01019623E091D489
:104EE000BC0181EF97E0A5DD409126025091270299
:104EF000662757FD6095762FCE01019623E081D479
:104F0000BC0188EF97E095DD40912802509129027D
:104F1000662757FD6095762FCE01019623E071D468
:104F2000BC018BEF97E085DD40912A0250912B0266
:104F3000662757FD6095762FCE01019623E061D458
:104F4000BC0182E098E075DD40912C0250912D0269
:104F5000662757FD6095762FCE01019623E047D650
:104F6000BC0189E098E065DD40912E0250912F024E
:104F7000662757FD6095762FCE01019623E037D640
:104F8000BC0183E198E055DD40913002509131023F
:104F9000662757FD6095762FCE01019623E027D630
:104FA000BC0181E298E045DD40913202509133022C
:104FB000662757FD6095762FCE01019623E017D620
:104FC000BC018EE298E035DD40913402509135020B
:104FD000662757FD6095762FCE01019623E007D610
:104FE000BC0181E498E025DD409136025091370202
:104FF000662757FD6095762FCE01019623E0F7D501
:10500000BC0184E598E015DD4091380250913902E9
:10501000662757FD6095762FCE01019623E0E7D5F0
:10502000BC0187E698E005DD60913A0270913B0291
:105030008AE798E0AADE60913C0270913D0281E926
:1050400098E0A3DE88EA98E060913E02BADE89EB40
:1050500098E060913F02B5DE8AEC98E060914002F2
:10506000B0DE8CED98E060914102ABDE8BEE98E013
:1050700060914202A6DE8AEF98E060914302BDDEB5
:105080002C960FB6F894DEBF0FBECDBFDF91CF9147
:105090000F9108950F931F93CF93DF93EC018B0132
:1050A00000D000D000D0EDB7FEB7319686EC99E085
:1050B000ADB7BEB712969C938E931197D383C283DC
:1050C000758364836FDCEDB7FEB736960FB6F89440
:1050D000FEBF0FBEEDBFCE0162E877E00E949233C3
:1050E0000097D9F4D8018C910E948C1900D000D07F
:1050F000EDB7FEB7319684EE99E0ADB7BEB7129624
:105100009C938E931197D8018C918283138223DC18
:105110000F900F900F900F900DC2CE0167E877E0CF
:105120000E9492330097D1F5C80123D5EC018091FC
:1051300014028037F9F48091150290911602FE0155
:10514000E81BF90BCF01F7FF03C0909581959F4FA6
:1051500085369105F4F000D000D084E09AE0ADB738
:10516000BEB712969C938E93119714961C930E9330
:1051700013970AC000D000D080E39AE0EDB7FEB7E5
:105180009283818314830383C0DB0F900F900F9071
:105190000F90D0931602C0931502CCC1CE0163E9E3
:1051A00077E00E9492330097F9F4C801E2D4EC0151
:1051B00080911402863699F400D000D086E59AE0FA
:1051C000ADB7BEB712969C938E93119714961C930D
:1051D0000E931397C0DB0F900F900F900F90D0930A
:1051E0001802C0931702A6C1CE0161EA77E00E94BF
:1051F0009233009749F4C80134D4DC01CB01909379
:105200001A028093190296C1CE016FEA77E00E94DC
:105210009233009749F4C80124D4DC01CB01909368
:105220001C0280931B0286C1CE0161EC77E00E94D4
:105230009233009749F4F801808180931D0287E43E
:1052400094E00E94E21C76C1CE016CEC77E00E94F3
:105250009233009739F4C8018CD490931F02809345
:105260001E0268C1CE016BED77E00E949233009779
:1052700039F4C8017ED490932102809320025AC150
:10528000CE016AEE77E00E949233009749F4C8019C
:10529000E8D3DC01CB0190932302809322024AC120
:1052A000CE0161EF77E00E949233009749F4C80184
:1052B000D8D3DC01CB0190932502809324023AC11C
:1052C000CE0168EF77E00E949233009749F4C8015D
:1052D000C8D3DC01CB0190932702809326022AC118
:1052E000CE016BEF77E00E949233009749F4C8013A
:1052F000B8D3DC01CB0190932902809328021AC114
:10530000CE0162E078E00E949233009749F4C80130
:10531000A8D3DC01CB0190932B0280932A020AC10F
:10532000CE0169E078E00E949233009739F4C80119
:1053300092D490932D0280932C02FCC0CE0163E1A5
:1053400078E00E949233009739F4C80184D4909396
:105350002F0280932E02EEC0CE0161E278E00E941F
:105360009233009739F4C80176D490933102809338
:105370003002E0C0CE016EE278E00E9492330097E6
:1053800039F4C80168D49093330280933202D2C0BA
:10539000CE0161E478E00E949233009739F4C801AD
:1053A0005AD49093350280933402C4C0CE0164E590
:1053B00078E00E949233009739F4C8014CD490935E
:1053C000370280933602B6C0CE0167E678E00E94CD
:1053D0009233009739F4C8013ED4909339028093F8
:1053E0003802A8C0CE016AE778E00E9492330097A5
:1053F00071F4C80160E070E04AE050E00E94713250
:10540000DC01CB0190933B0280933A0293C0CE0122
:1054100061E978E00E949233009771F4C80160E07E
:1054200070E04AE050E00E947132DC01CB019093C1
:105430003D0280933C027EC0CE0168EA78E00E9483
:105440009233009761F4C80160E070E04AE050E0F8
:105450000E94713260933E028FE492E05CC0CE0104
:1054600069EB78E00E949233009761F4C80160E034
:1054700070E04AE050E00E94713260933F028DE993
:1054800092E049C0CE016AEC78E00E949233009726
:1054900061F4C80160E070E04AE050E00E947132BF
:1054A000609340028BEE92E036C0CE016CED78E066
:1054B0000E949233009761F4C80160E070E04AE016
:1054C00050E00E9471326093410280E593E023C076
:1054D000CE016BEE78E00E949233009759F4C80138
:1054E00060E070E04AE050E0FCD7609342028EE951
:1054F00093E011C0CE016AEF78E00E9492330097EA
:1055000069F4C80160E070E04AE050E0EAD76093D7
:1055100043028CEE93E00E94B60E0CC000D08EE7E2
:105520009AE0ADB7BEB712969C938E9311973ADA74
:105530000F900F90DF91CF911F910F9108950F93CE
:105540001F93CF93DF93CDB7DEB7EC970FB6F894E8
:10555000DEBF0FBECDBF61E070E080E090E00E9452
:10556000EB0A10E069C061E070E080E090E00E942A
:10557000EB0A80E791E00E94ED05182F8A33C9F00D
:10558000803261F08B3751F0823241F0EFE1F0E090
:10559000EC0FFD1FE00FF11D80830F5F0D3110F048
:1055A00053C000E080E791E00E94C9051816190673
:1055B000D4F2EFE1F0E0EC0FFD1FE00FF11D1082DF
:1055C00000E01DC061E070E080E090E00E94EB0A26
:1055D00080E791E00E94ED05182F8C32B9F08D37ED
:1055E000A9F0803251F0823241F0E1E0F0E0EC0FBE
:1055F000FD1FE00FF11D80830F5F0D3128F580E75F
:1056000091E00E94C90518161906E4F2E1E0F0E005
:10561000EC0FFD1FE00FF11D1082CE014F96BE0171
:105620006F5F7F4F37DD1D3739F40E9473160E947C
:10563000DB1846DBFEDB08C080E791E00E94C9056D
:10564000181619060CF4ADCFEC960FB6F894DEBF21
:105650000FBECDBFDF91CF911F910F910895EF92B3
:10566000FF920F931F93CF93DF93CDB7DEB766976B
:105670000FB6F894DEBF0FBECDBF80E791E00E9469
:10568000C905181619060CF0AFC080E791E00E941A
:10569000ED058C3609F456C08D3670F4833569F10A
:1056A000843520F4833409F08BC016C0833699F119
:1056B0008A3609F085C082C0833759F1843720F4D7
:1056C0008E3609F07DC02BC0843721F0863709F073
:1056D00077C023C015D988C00E94EB1887E494E0F6
:1056E0000E94E21CA6DB00D086E896E0ADB7BEB70C
:1056F00012969C938E9311970AC00E94C118E0DA0B
:1057000000D080EA96E0EDB7FEB7928381834AD954
:1057100052C0D6DA69C08DDB67C0C3D965C000D07E
:1057200000D089EB96E0ADB7BEB712969C938E93EE
:10573000119781EC96E014969C938E9313970E9498
:105740005D234EC000D087EC96E0EDB7FEB79283A4
:1057500081830E945D230F900F9020E08E010F5FE8
:105760001F4F3AECE32E36E0F32E87E494E0622FED
:10577000A8012E8B0E949B1000D000D0ADB7BEB701
:105780001296FC92EE92119714961C930E93139717
:105790000E945D232E892F5F0F900F900F900F9026
:1057A000243019F700D081ED96E0EDB7FEB7928373
:1057B00081830E945D230F900F9016C0C0DE14C03D
:1057C00000D000D0EDB7FEB7319623ED36E0ADB78F
:1057D000BEB712963C932E93119782831382E2D820
:1057E0000F900F900F900F9066960FB6F894DEBF53
:1057F0000FBECDBFDF91CF911F910F91FF90EF9022
:105800000895AF92BF92CF92DF92EF92FF920F93E3
:10581000CF93DF935C0177FF0BC08DE2D5018C93B2
:1058200070956095509541955F4F6F4F7F4F03C0C6
:1058300080E2F50180836A017B01F9E0F594E79449
:10584000D794C794FA95D1F7E601517060707070E3
:105850002130B1F5CB01BA012AE030E040E050E060
:1058600088D4DC01CB0180509F4FAF4FBF4FE9E0A0
:10587000B595A79597958795EA95D1F7BC018A309C
:10588000910519F4219660E070E08DB79EB70A97F4
:105890000FB6F8949EBF0FBE8DBFEDB7FEB7319621
:1058A000C5010196ADB7BEB712969C938E93119722
:1058B000802F90E00197938382838DE99AE037C02F
:1058C0002230E1F5CB01BA0124E630E040E050E0BF
:1058D00050D4DC01CB0180509F4FAF4FBF4FF9E058
:1058E000B595A79597958795FA95D1F7BC0184361C
:1058F000910519F4219660E070E08DB79EB70A9784
:105900000FB6F8949EBF0FBE8DBFEDB7FEB73196B0
:10591000C5010196ADB7BEB712969C938E931197B1
:10592000802F90E001979383828385EA9AE09583A4
:105930008483D783C6837187608734C08DB79EB751
:105940000A970FB6F8949EBF0FBE8DBFCDB7DEB7D6
:105950002196C5010196ADB7BEB712969C938E9362
:105960001197802F90E001979B838A838DEA9AE0BC
:105970009D838C83DF82CE82CB01BA0128EE33E097
:1059800040E050E0F6D3DC01CB0180509F4FAF4F99
:10599000BF4FE9E0B595A79597958795EA95D1F71B
:1059A00099878887FBD6EDB7FEB73A960FB6F8947D
:1059B000FEBF0FBEEDBFC501DF91CF910F91FF90EC
:1059C000EF90DF90CF90BF90AF900895CF92DF928D
:1059D000EF92FF920F931F93CF93DF93EC016A0135
:1059E0007B01122F403080E858078FEF68078FEF58
:1059F000780729F4CE0168E97AE09DD628C0809125
:105A00001D028634F1F4DB01CA0123E0880F991FDF
:105A1000AA1FBB1F2A95D1F7840F951FA61FB71F7A
:105A2000BC01CD0125E030E040E050E0F6D3690153
:105A30007A0180E090E4A0E0B0E0C80ED91EEA1E32
:105A4000FB1ECE01B701A601212FDBDEEC01CE014A
:105A5000DF91CF911F910F91FF90EF90DF90CF904A
:105A600008952F923F924F925F926F927F928F9202
:105A70009F92AF92BF92CF92DF92EF92FF920F93DD
:105A80001F93CF93DF9300D0CDB7DEB78C01FC011D
:105A900080818D3229F40F5F1F4F77247A9402C0E2
:105AA00077247394C8016EE270E067D66C01C80178
:105AB00060E070E04AE050E014D51B012C01C114F5
:105AC000D10469F186010F5F1F4FC801BE016F5FEE
:105AD0007F4F4AE050E005D56B017C016980601A78
