:100000005FC3000084C3000082C300000C94B809E1
:100010007EC300000C9430097AC3000078C300004E
:1000200076C3000074C3000072C3000070C30000F8
:100030006EC300006CC300006AC3000068C3000008
:10004000F6C5000064C3000076C40000B5C400001B
:100050005EC300005CC300005AC3000058C3000028
:1000600056C3000054C30000000000070002010056
:100070000003040600000000000000000102040864
:100080001020408001020408102001020408102002
:10009000040404040404040402020202020203032E
:1000A00003030303000000002300260029000000D2
:1000B0000000250028002B0000000000240027007D
:1000C0002A0041726475696E6F2072657374617283
:1000D000746564210046726964676520646F6F729D
:1000E000206F70656E6564004672696467652064A0
:1000F0006F6F7220636C6F73656400506F73697407
:10010000697665207065616B2064657465637465EC
:10011000642E005065616B3A202573204573746925
:100120006D617465643A2025732E204E65772065D5
:100130007374696D61746F723A202573004E656740
:100140006174697665207065616B206465746563B0
:100150007465642E005065616B3A2025732E20452E
:100160007374696D617465643A2025732E204E6541
:100170007720657374696D61746F723A202573001E
:10018000202D2D2E2D004D6F64652020200042650E
:1001900065722020200046726964676520004672FF
:1001A0006964676520436F6E73742E0042656572E3
:1001B00020436F6E7374616E7400426565722050E7
:1001C000726F66696C6520004F66662020202020D3
:1001D000202020202000496E76616C6964206D6FBC
:1001E0006465200049646C6520666F7220202020C1
:1001F0002020202020202020005374617274696E1A
:10020000672075702E2E2E20202020202000436F86
:100210006F6C696E6720666F72202020202020207E
:1002200020200048656174696E6720666F72202027
:100230002020202020202000446F6F72206F7065E6
:100240006E20202020202020202020200054656DBA
:10025000702E20636F6E74726F6C204F46462020A4
:100260002000556E6B6E6F776E20737461747573BA
:10027000212020202020002073002020202020206A
:10028000004368616E67656420746F2070726F66EA
:10029000696C65206D6F646520696E206D656E7593
:1002A0002E0054656D7020636F6E74726F6C2074D5
:1002B00075726E6564206F666620696E206D656E6E
:1002C000752E0020202020202020202020202020EB
:1002D00000426565722074656D70207365742074CA
:1002E0006F20257320696E204D656E752E002020CD
:1002F000202020004672696467652074656D702057
:1003000073657420746F20257320696E204D656EAF
:10031000752E00202020202000005EBCE2613FDD21
:1003200083C29C7E20A3FD1F419DC3217FFCA24070
:100330001E5F01E3BD3E6082DC237D9FC1421CFE47
:10034000A0E1BF5D0380DE3C62BEE0025CDF816352
:100350003D7C22C09E1D43A1FF4618FAA427799B2D
:10036000C584DA3866E5BB5907DB856739BAE40628
:10037000581947A5FB7826C49A653BD987045AB813
:10038000E6A7F91B45C6987A24F8A6441A99C7250A
:100390007B3A6486D85B05E7B98CD2306EEDB351F9
:1003A0000F4E10F2AC2F7193CD114FADF3702ECCD8
:1003B00092D38D6F31B2EC0E50AFF1134DCE9072DF
:1003C0002C6D33D18F0C52B0EE326C8ED0530DEFBA
:1003D000B1F0AE4C1291CF2D73CA947628ABF517BD
:1003E000490856B4EA6937D58B5709EBB536688AA0
:1003F000D495CB2977F4AA4816E9B7550B88D6349B
:100400006A2B7597C94A14F6A8742AC896154BA981
:10041000F7B6E80A54D7896B3544656661756C7424
:1004200020636F6E7374616E7473206C6F616465AA
:10043000642E0044656661756C742073657474691C
:100440006E6773206C6F616465642E004C3A002502
:10045000733C42523E000A00496E76616C6964202A
:10046000636F6D6D616E6420726563656976656446
:100470002062792041726475696E6F3A20256300AD
:10048000543A7B224265657254656D70223A257339
:100490002C002242656572536574223A25732C0044
:1004A0002242656572416E6E223A006E756C6C2C4C
:1004B00000222573222C0022467269646765546508
:1004C0006D70223A25732C00224672696467655369
:1004D0006574223A25732C0022467269646765416F
:1004E0006E6E223A006E756C6C7D0A0022257322B6
:1004F0007D0A00443A000A00533A7B002225732209
:100500003A25737D0A00433A7B00222573223A255F
:10051000757D0A00563A7B00222573223A25737DA9
:100520000A00222573223A25732C00222573223AD1
:10053000222563222C00222573223A25752C0022C5
:100540002573223A25752C005265636569766564CA
:10055000206E65772073657474696E673A20257321
:10056000203D202573004D6F6465207365742074F1
:100570006F20256320696E2077656220696E74653F
:10058000726661636500426565722074656D7020F6
:1005900073657420746F2025732062792074656DF3
:1005A00070657261747572652070726F66696C65D2
:1005B0002E00426565722074656D7020736574202D
:1005C000746F20257320696E2077656220696E74D0
:1005D0006572666163652E004672696467652074A2
:1005E000656D702073657420746F20257320696EAB
:1005F0002077656220696E746572666163652E009E
:10060000436F756C64206E6F742070726F636573D6
:10061000732073657474696E67006E756C6C002569
:10062000642E253031640025642E25303264002587
:10063000642E2530336400556E61626C6520746FE2
:100640002066696E64206164647265737320666FEE
:10065000722073656E736F72206F6E2070696E20EA
:1006600025640054656D70657261747572652073E0
:10067000656E736F72206F6E2070696E2025642026
:10068000646973636F6E6E65637465640054656D51
:1006900070657261747572652073656E736F722018
:1006A0006F6E2070696E202564207265636F6E6EB8
:1006B0006563746564009B074C13F0164F13F316C3
:1006C00011241FBECFEFD8E0DEBFCDBF13E0A0E006
:1006D000B1E0E4ECF0E602C005900D92A833B1075A
:1006E000D9F716E0A8E3B3E001C01D92AC3DB10715
:1006F000E1F716E0CCEBD6E004C02297FE010E94A1
:10070000812AC63BD107C9F7DDD40C945630E3C427
:10071000FC0124853585F901E05CFF4F80819181E2
:100720002E5B3F4FF90120813181821B930B8F7328
:1007300090700895FC0144855585FA01E05CFF4FF7
:1007400080819181FA01EE5BFF4F20813181821718
:10075000930741F00190F081E02DE40FF51F8081B7
:1007600090E008958FEF9FEF0895FC014485558533
:10077000FA01E05CFF4F20813181FA01EE5BFF4F0F
:10078000808191812817390779F0A081B181A40F68
:10079000B51F8C91208131812F5F3F4F2F733070B7
:1007A0003183208390E008958FEF9FEF0895FC013F
:1007B00081A1882329F0A489B5898C9186FFFBCF7C
:1007C00011A20895CF93DF93DC011E964D915C91A9
:1007D0001F97EA01C05CDF4F288139812F5F3F4FAF
:1007E0002F733070FA01EE5BFF4F808191812817E3
:1007F0003907D9F3E881F981E40FF51F60831E966C
:10080000ED91FC911F97E05CFF4F3183208356965A
:10081000ED91FC915797208181E090E05F960C90DC
:100820005F9702C0880F991F0A94E2F7282B208354
:1008300081E091968C9391975496ED91FC91559708
:1008400080818064808381E090E0DF91CF91089582
:10085000CF92DF92EF92FF920F931F93CF93DF938C
:100860006C017B01EA0100E010E00EC0D7016D9140
:100870007D01D601ED91FC910190F081E02DC60142
:100880000995080F191F2197209781F7C801DF915B
:10089000CF911F910F91FF90EF90DF90CF9008952F
:1008A000833071F0843028F48130A1F0823021F55A
:1008B00014C08630B1F08730D1F08430E9F404C040
:1008C000809180008F7703C0809180008F7D80931E
:1008D0008000089584B58F7702C084B58F7D84BD74
:1008E00008958091B0008F778093B0000895809133
:1008F000B0008F7D8093B00008950F931F93CF9326
:10090000DF938C01EB01209771F0CB010E94082D41
:10091000AC01D801ED91FC910280F381E02DC8017A
:10092000BE01099502C080E090E0DF91CF911F9158
:100930000F91089508951F920F920FB60F921124F0
:100940002F933F934F938F939F93EF93FF938091B8
:10095000C00082FD1CC04091C6008091E6039091CA
:10096000E70301968F7390702091E8033091E903BB
:100970008217930771F0E091E603F091E703EA55DF
:10098000FC4F40839093E7038093E60302C080917D
:10099000C600FF91EF919F918F914F913F912F91C1
:1009A0000F900FBE0F901F90189580E493E0B0DE7B
:1009B000009709F0BFCF08951F920F920FB60F92C4
:1009C00011242F933F938F939F93EF93FF93209145
:1009D000A2033091A3038091A4039091A50328174B
:1009E000390731F48091C1008F7D8093C10014C01C
:1009F000E091A403F091A503EE59FC4F2081809172
:100A0000A4039091A50301968F7390709093A50312
:100A10008093A4032093C600FF91EF919F918F9143
:100A20003F912F910F900FBE0F901F901895BF927E
:100A3000CF92DF92EF92FF920F931F93CF93DF93AA
:100A4000EC016A017B01BB24B394403081EE58076E
:100A500080E0680780E0780749F4BB24EC89FD89D1
:100A6000108260E874E88EE190E00FC0EC89FD89A7
:100A700081E090E008A002C0880F991F0A94E2F775
:100A8000808360E079E08DE390E0A70196010E9409
:100A90002E2A89019A01015010402040304036959D
:100AA00027951795079580E10030180710F0BB20B7
:100AB000A1F6E889F9891083EA89FB89008319A2E4
:100AC000EE89FF89408121E030E0C9010C8C02C031
:100AD000880F991F0A94E2F7482B4083EE89FF891B
:100AE0004081C9010D8C02C0880F991F0A94E2F75A
:100AF000482B4083EE89FF894081C9010E8C02C0DA
:100B0000880F991F0A94E2F7482B4083EE89FF89EA
:100B100080810F8C02C0220F331F0A94E2F72095C8
:100B200028232083DF91CF911F910F91FF90EF90A9
:100B3000DF90CF90BF900895E0CE08954F925F92DE
:100B40006F927F92AF92BF92CF92DF92EF92FF921D
:100B50000F931F93CF93DF93CDB7DEB7A1970FB657
:100B6000F894DEBF0FBECDBF5C01E42ECB01F22EA8
:100B700019A221E02F1510F03AE0F32E21E2C22E47
:100B8000D12CCC0EDD1E4F2C55246624772403C0B7
:100B9000E02E512FC9016E2D752FA30192010E94E5
:100BA0002E2A89019A01F09E802D1124E81A8E2D9B
:100BB0000894C108D1088A3010F4805D01C0895CB6
:100BC000F6018083011511052105310509F7C501DD
:100BD000B60193DEA1960FB6F894DEBF0FBECDBF6F
:100BE000DF91CF911F910F91FF90EF90DF90CF9009
:100BF000BF90AF907F906F905F904F9008952115B8
:100C0000310549F4DC01ED91FC910190F081E02D7A
:100C1000642F0995089592CF9A01AB0160E070E0CE
:100C2000EECF0C94852A08950C941B2B08951F92E7
:100C30000F920FB60F9211242F933F938F939F9390
:100C4000AF93BF938091380390913903A0913A03F9
:100C5000B0913B033091EA03232F2D5F2D3720F411
:100C60000196A11DB11D05C0232F2A570296A11D73
:100C7000B11D2093EA038093380390933903A09326
:100C80003A03B0933B0380913C0390913D03A091C4
:100C90003E03B0913F030196A11DB11D80933C031B
:100CA00090933D03A0933E03B0933F03BF91AF9158
:100CB0009F918F913F912F910F900FBE0F901F909A
:100CC00018950F931F938FB7F894009138031091E4
:100CD000390320913A0330913B038FBFB801C9011A
:100CE0001F910F9108950F931F939FB7F894009150
:100CF0003C0310913D0320913E0330913F0386B5A4
:100D0000A89B06C08F3F21F00F5F1F4F2F4F3F4F13
:100D10009FBF322F212F102F0027080F111D211DDB
:100D2000311D52E0000F111F221F331F5A95D1F7BA
:100D3000B801C9011F910F910895CF92DF92EF92F0
:100D4000FF92CF93DF936B017C01CDDFDC01CB0100
:100D5000EC010EC0C8DF6C1B7D0B83E0683E78079A
:100D600038F00894C108D108E108F108C851DC4FF7
:100D7000C114D104E104F10469F7DF91CF91FF9030
:100D8000EF90DF90CF900895019739F0880F991F69
:100D9000880F991F02970197F1F70895789484B509
:100DA000826084BD84B5816084BD85B5826085BD67
:100DB00085B5816085BDEEE6F0E08081816080834D
:100DC000E1E8F0E010828081826080838081816030
:100DD0008083E0E8F0E0808181608083E1EBF0E0F7
:100DE000808184608083E0EBF0E08081816080839B
:100DF000EAE7F0E080818460808380818260808384
:100E00008081816080838081806880831092C100AE
:100E1000089590E0FC01E458FF4F249180579F4FC4
:100E2000FC018491882341F190E0880F991FFC0117
:100E3000E854FF4F45915491DA0182559F4FFC01D0
:100E400085919491FC019FB7F8948C91662331F4BD
:100E5000209582238C938081822308C0623049F4DC
:100E6000322F309583238C938081822B80839FBF88
:100E70000895822B8C939FBF08950F931F93CF9358
:100E8000DF930F92CDB7DEB7282F30E0F901E85994
:100E9000FF4F8491F901E458FF4F1491F901E05795
:100EA000FF4F04910023C9F0882319F06983F8DC0F
:100EB0006981E02FF0E0EE0FFF1FE255FF4F8591B3
:100EC0009491DC019FB7F8948C91662319F41095E6
:100ED000812301C0812B8C939FBF0F90DF91CF9115
:100EE0001F910F910895CF93DF93282F30E0F901E0
:100EF000E859FF4F8491F901E458FF4FC491F9017B
:100F0000E057FF4FD491DD2389F0882309F0C8DC36
:100F1000ED2FF0E0EE0FFF1FEC55FF4F8591949100
:100F2000FC0120812C2381E090E011F480E090E02E
:100F3000DF91CF910895109243031092420388EEFF
:100F400093E0A0E0B0E08093440390934503A09326
:100F50004603B0934703E2E4F3E088E193E0929321
:100F6000829386EA93E09587848782E693E0978769
:100F7000868785EC90E0918B808B84EC90E0938B5E
:100F8000828B80EC90E0958B848B81EC90E0978B4A
:100F9000868B82EC90E0918F808F86EC90E0938F2F
:100FA000828F84E0848F83E0858F87E0868F85E061
:100FB000878F81E080A30895CF93DF9380E493E04F
:100FC00040E051EE60E070E032DD86E061E055DF48
:100FD00085E061E052DF86E061E01BDF85E061E0F3
:100FE00018DF84E060E015DF0E94B0120E94FF125B
:100FF00059D462D660ED77E080E090E09EDEC3E7F2
:10100000D6E0CE010E943415CE010E941016CE010A
:101010000E947A1680EF93E0EAD100D082EC90E053
:10102000EDB7FEB7928381830E94B21D0F900F909F
:10103000CFEED3E0CE0155D0CE0162E044EF51E0D7
:1010400060D0DF91CF9108953CDEDC01CB0140916F
:10105000EB035091EC036091ED037091EE03841B60
:10106000950BA60BB70B893E23E0920720E0A20761
:1010700020E0B20728F125DEDC01CB018093EB03F1
:101080009093EC03A093ED03B093EE03ECD30E9496
:10109000911008D411D6BAD58091F803882321F095
:1010A0001092F8030E942A1A83E796E00E947A16AB
:1010B00083E796E00E94F31583E796E00E944816C6
:1010C0000C948B246BDE78DFC5EDD4E0BDDF209778
:1010D000E9F36BDCFBCF1F920F920FB60F92112436
:1010E000FFCF83E061E095DE81E28093B0008BE08A
:1010F0008093B1008DE78093B3008EE38093B400BA
:101100000895BF92CF92DF92EF92FF920F931F93B9
:10111000CF93DF93B62E00E010E06A01EE24FF24A7
:10112000C62FD0E0219715C08091B00080628093D7
:10113000B000C701B60101DE8091B0008F7D8093C1
:10114000B0000C171D071CF4C701B601F6DD0F5FD8
:101150001F4F0B1548F3DF91CF911F910F91FF9017
:10116000EF90DF90CF90BF900895FC0198E0908FB2
:1011700082E0818F92AB83ABDF01A45BBF4F9C9376
:10118000E35BFF4F80830895FC01862F880F8C5FFF
:10119000808F618F82AB63ABDF01A45BBF4F8C9309
:1011A000E35BFF4F60830895EF92FF920F931F93CD
:1011B000CF93DF938C01F62FE72FC0E0D0E02AE138
:1011C000E22EF12CCE9D9001CF9D300DDE9D300D95
:1011D0001124C801820F931F6F2F7E2F0E94F616D5
:1011E000AB01F82FE92F2196C330D10559F7DF91D4
:1011F000CF911F910F91FF90EF9008959B01A9014E
:10120000662757FD6095762FBA0155274427CCDF16
:10121000AB01BC01AB01772757FD7095672FCA0161
:101220000895FC01E05CFF4F6081718182819381B0
:1012300008950F931F93CF93DF93EC018B010E94CE
:10124000A617CE014A96B8010E94A617CE01C496F1
:10125000B8010E94A617DF91CF911F910F910895B9
:101260001F920F920FB60F9211248F934F9903C0C4
:1012700081E08093F8038F910F900FBE0F901F9025
:1012800018951F93CF93DF93EC01162F2CDDDC0113
:10129000CB014D855E856F857889841B950BA60BE8
:1012A000B70B80322EE4920720E0A20720E0B207BD
:1012B00088F189858B8719879B858985981751F1D6
:1012C00012DDDC01CB018D879E87AF87B88B9985B6
:1012D0008A85981721F48E819F81019603C08E81A3
:1012E0009F8101979F838E83688179812E813F81C1
:1012F000CB0101964A815B818217930714F45F83C7
:101300004E838E819F81415050408417950714F47D
:101310007F836E83DF91CF911F9108951F93CF93A9
:10132000DF93EC01162FDFDCDC01CB0149895A8900
:101330006B897C89841B950BA60BB70B80322EE43E
:10134000920720E0A20720E0B20770F08A858C8720
:101350001A879C858A85981739F0C5DCDC01CB019A
:10136000898B9A8BAB8BBC8BDF91CF911F910895AA
:101370001F920F920FB60F9211242F933F934F930A
:101380005F936F937F938F939F93AF93BF93CF930D
:10139000DF93EF93FF93C3B1C170D1E0199BD0E00D
:1013A00080910504C81721F080EF93E06C2F69DF6E
:1013B00080910604D81721F080EF93E06D2FAEDF07
:1013C000C0930504D0930604FF91EF91DF91CF9174
:1013D000BF91AF919F918F917F916F915F914F914D
:1013E0003F912F910F900FBE0F901F901895CF93A4
:1013F000DF93EC018FEF9FE79983888380E090E88B
:101400009B838A831D821C821F821E82188681E034
:1014100089878A878B878C871D861E861F86188AF8
:10142000198A1A8A1B8A1C8A88E060E0F2DC89E04B
:1014300060E0EFDC87E060E0ECDCCE0161E021DF22
:10144000CE0161E06BDFE8E6F0E0808185608083BB
:10145000EBE6F0E0808183608083EDE6F0E0808160
:1014600080688083DF91CF910895FC018FB7F89455
:10147000660F771F77836683440F551F538342831C
:10148000220F331F31832083758364838FBF0895B8
:10149000FC012FB7F89486819781868197818170AE
:1014A00019F08481958106C08681978195958795ED
:1014B000958384832FBF0895CF93DF93EC01E8DFFA
:1014C00020910704309108048217930741F0CE0160
:1014D000DFDF909308048093070481E001C08885D2
:1014E000DF91CF9108958BE061E093DC8DE061E0C6
:1014F00090DC8AE061E08DDC8CB58F7D8CBD8CB595
:1015000082608CBD8DB581608DBD8CB588608CBDD1
:101510008CB584608CBD8CB580618CBD8CB58064CD
:101520008CBD0895CF93DF93EC01862F1D866C83CD
:1015300061E06FDC88E28E83CE01D5DF24E030E20B
:101540000DC0FE01E80FF91F368701968431910521
:10155000C1F71AA221506596222319F080E090E08D
:10156000F0CFDF91CF910895CF93DF93EC018C8181
:1015700060E083DC8D818EBD0DB407FEFDCF8C81D4
:1015800061E07BDCDF91CF910895CF93DF93EC0195
:101590008D8182608D83CE01E7DF81E090E0F4DB16
:1015A0008D818D7F8D83CE01DFDFDF91CF91089517
:1015B000CF93DF93EC018D816295607F8F70682BF4
:1015C0006D83CE01D1DFCE01E0DFDF91CF910895B1
:1015D0001F93CF93DF93EC01162F8D81442311F0DD
:1015E000816001C08E7F8D83CE01BEDF212F30E070
:1015F00044E0359527954A95E1F7CE01622FD8DF73
:10160000CE01612FD5DFDF91CF911F9108951F93F8
:10161000CF93DF93EC01162F41E0DADF4B858A850B
:1016200090E025E130E0829FF001839FF00D929FD2
:10163000F00D1124EC0FFD1FE40FF11D16874F5F15
:101640004B8780EA9FE00197F1F781E090E0DF911E
:10165000CF911F91089540E0BBDF80EA9FE00197A2
:10166000F1F70895FC0160856E7F60876460F3CFB9
:10167000FC016085262F226020876660ECCFFC018C
:101680006781262F246027836C60E5CFCF93DF939B
:1016900000D000D0CDB7DEB7198220E42A8324E140
:1016A0002B8324E52C83FC012485421708F040E0BD
:1016B000FC0142876387FE01E40FF11D2181260FA3
:1016C0002068622FC8DF0F900F900F900F90DF916E
:1016D000CF910895CF93DF93EC0162E0BCDF1A86CF
:1016E0001B86DF91CF91089561E0B5CFCF93DF9353
:1016F000EC014C871A861B868D85813011F081E0C4
:101700008D878D85882311F080E001C084E08D8372
:10171000CE012ADF80E593EC37DBCE0163E048DFC2
:1017200080E593EC31DBCE0163E042DF88EE93E0AD
:101730002BDBCE0163E03CDF80E593EC25DBCE01C3
:1017400062E036DF80E593EC1FDBCE0168E283DFE9
:10175000CE01CADFCE018CDFCE0184DFCE01BADF3D
:10176000CE018DDFDF91CF910895DA0120E030E0E6
:1017700075E1679FB0011124680F791F90EBFB01A1
:10178000E20FF31F86858F3D11F49C9301C08C936B
:101790002F5F3F4F11962431310589F7FA01148AE2
:1017A0000895EF92FF920F931F93CF93DF93EC0175
:1017B00068830B96DADCCE01875A9F4FD6DCCE01C8
:1017C00089559F4FD2DC1A821B821C821D8219828E
:1017D0008FEF8E838EE090E024DA8C0168810E9486
:1017E000D71B25EFE22EF12CEC0EFD1EF701118325
:1017F000008387E090E00E94E3148C01F701608190
:10180000718150D7C950DF4F19830883DF91CF9181
:101810001F910F91FF90EF900895CF93DF93EC010C
:10182000FC01EB50FF4F80819181FED9C950DF4F01
:10183000888199810E94F614DF91CF9108958130BB
:10184000910541F481E795E063E1ABDF80E794E047
:1018500062E1A7CF009731F480E794E0DEDF81E713
:1018600095E0DBCF089581E795E00E94E228809122
:101870007205882351F480913C04823611F086363B
:1018800021F481E795E00E94152880E794E00E940A
:10189000E22880917104882321F480E794E00C947D
:1018A000152808958F929F92AF92BF92CF92DF92A8
:1018B000EF92FF9280913C04823619F0803709F054
:1018C00096C120913D0430913E0480E820303807D5
:1018D00009F488C180910A0690910B06A0910C062C
:1018E000B0910D062A1B3B0B30931B0420931A0466
:1018F00081E795E00E94EA29FC01909321048093FE
:10190000200480917206982F9F5F909372068C330B
:1019100009F054C01092720620911A0430911B04F1
:10192000D90137FF04C0AA27BB27A21BB30B8091A4
:1019300058049091590440911C0450911D046091E9
:101940001E0470911F04A817B9071CF58091540458
:10195000909155048E179F07E4F080915604909162
:101960005704E817F907ACF0AB31B1053CF1C901F8
:10197000AA2797FDA095BA2F840F951FA61FB71F02
:1019800080931C0490931D04A0931E04B0931F0425
:1019900015C0DB01CA01E3E0B595A795979587953A
:1019A000EA95D1F7481B590B6A0B7B0B40931C043B
:1019B00050931D0460931E0470931F0420911A0419
:1019C00030911B0480912E0490912F04AA2797FD3B
:1019D000A095BA2F4427582F692F7A2F481B590BEF
:1019E0006A0B7B0B37FF2BC080914C0490914D0408
:1019F000AA2797FDA095BA2F480F591F6A1F7B1F72
:101A0000452F562F672F772767FD7A9550932F0420
:101A100040932E048091300490913104AA2797FDC1
:101A2000A095BA2F4427582F692F7A2F481B590B9E
:101A30006A0B7B0B80915004909151042AC08091D5
:101A40004A0490914B04AA2797FDA095BA2F480FFE
:101A5000591F6A1F7B1F452F562F672F772767FD5A
:101A60007A9550932F0440932E04809130049091E6
:101A70003104AA2797FDA095BA2F4427582F692F24
:101A80007A2F481B590B6A0B7B0B80915204909163
:101A90005304AA2797FDA095BA2F480F591F6A1F14
:101AA0007B1F452F562F672F772767FD7A95509319
:101AB00031044093300460912E0470912F048827E4
:101AC00077FD8095982F442737FD4095542F0E942D
:101AD000FC294B015C01F9E0B594A7949794879495
:101AE000FA95D1F78092220490922304A0922404C4
:101AF000B092250460914E0470914F04882777FDC1
:101B00008095982F20911C0430911D0440911E0453
:101B100050911F040E94FC296B017C01A9E0F594FF
:101B2000E794D794C794AA95D1F7C0922604D0928F
:101B30002704E0922804F092290460913004709107
:101B40003104882777FD8095982F209120043091CB
:101B50002104442737FD4095542F0E94FC29AB01F6
:101B6000BC01B9E07595679557954795BA95D1F73A
:101B700040932A0450932B0460932C0470932D04FB
:101B800080913D0490913E04AA2797FDA095BA2F1D
:101B9000880D991DAA1DBB1D8C0D9D1DAE1DBF1D61
:101BA000840F951FA61FB71F20914604309147044C
:101BB000A901662757FD6095762F84179507A6071C
:101BC000B70784F04091480450914904662757FDB7
:101BD0006095762F481759076A077B0714F4DB01D5
:101BE000CA019C013093400420933F0406C080E06A
:101BF00090E890933E0480933D04FF90EF90DF9037
:101C0000CF90BF90AF909F908F90089580911904CE
:101C1000843038F4823088F4882331F0813069F4DC
:101C200006C0843051F403C086E060E008C086E05E
:101C300061E023D985E060E005C086E061E01DD960
:101C400085E061E01AC93DD828EE33E040E050E07D
:101C50000E942E2AC9014091090450910A04609102
:101C60000B0470910C04841B950B08952AD828EE60
:101C700033E040E050E00E942E2AC90140910D045B
:101C800050910E0460910F0470911004841B950B09
:101C9000089517D828EE33E040E050E00E942E2A45
:101CA000C901409111045091120460911304709184
:101CB0001404841B950B0895CF93DF9384E013D90C
:101CC000009789F480911904843059F000D085ED93
:101CD00090E0EDB7FEB7928381830E94B21D0F9012
:101CE0000F9084E005C020913C042F3621F485E05C
:101CF000809319047AC180913F0490914004F0E8E8
:101D000080309F0709F448C180917104882309F449
:101D100043C180917205882309F055C1223609F428
:101D20003BC1203709F04FC137C10E94610628EE40
:101D300033E040E050E00E942E2AC901A0E0B0E06C
:101D40008093110490931204A0931304B09314048D
:101D50007ADF23E08538920768F0809117048823A2
:101D600049F484DF32E08935930720F0809118042C
:101D7000882329F080911904833009F049C080E755
:101D800094E00E94DC2920913F043091400440916E
:101D90005A0450915B04240F351F28173907A4F407
:101DA00080913C04863669F081E795E00E94DC2949
:101DB00020913D0430913E04265E3F4F281739079D
:101DC0003CF51092190411C180E794E00E94DC29CF
:101DD00020913F043091400440915C0450915D0497
:101DE000240F351F821793079CF480913C0486369C
:101DF00069F081E795E00E94DC2920913D04309153
:101E00003E042A5130408217930714F481E070CFCA
:101E10001ADF2CDFEAC081E0809317040E9461067C
:101E200028EE33E040E050E00E942E2AC901A0E0F5
:101E3000B0E08093090490930A04A0930B04B0933C
:101E40000C04C0916804D091690423DFC817D90736
:101E500028F4209168043091690402C01ADF9C01C3
:101E60006091430470914404882777FD8095982FF2
:101E7000442737FD4095542F0E94FC2920E13EE085
:101E800040E050E00E94502AE90180E794E00E947F
:101E9000DC29FC01EC1BFD0BF0933304E0933204CE
:101EA000C0913F04D09140048091620490916304FA
:101EB0002091640430916504820F931F62E070E00A
:101EC0000E941B2A6C0F7D1F6E177F070CF48DC0BC
:101ED000D0933504C09334045FC0809318040E94EB
:101EE000610628EE33E040E050E00E942E2AC9014E
:101EF000A0E0B0E080930D0490930E04A0930F0433
:101F0000B0931004C0916604D0916704C2DEC81774
:101F1000D90728F4209166043091670402C0B9DE25
:101F20009C016091410470914204882777FD80955F
:101F3000982F442737FD4095542F0E94FC2920E11B
:101F40003EE040E050E00E94502AE90180E794E042
:101F50000E94DC29FC01EC0FFD1FF0933304E09399
:101F60003204C0913F04D091400480915E0490916E
:101F70005F042091600430916104820F931F62E03E
:101F800070E00E941B2A6C0F7D1FE617F7076CF1AB
:101F9000D0933704C093360482E0AACE84E00E9436
:101FA00073078130910509F500D088EE90E0EDB718
:101FB000FEB7928381830E94B21D82E08093190450
:101FC0000F900F9012C080911904843048F4823031
:101FD00008F0ABCE882309F41ECF813031F47DCFD9
:101FE0008430E1F2853009F4A0CEDF91CF910895DD
:101FF0008CE394E061E070E049E050E00E944D2FF6
:1020000080913D0490913E049093160480931504B2
:1020100008950F931F93CF93DF93EC01A5E075957F
:102020006795AA95E1F766567E4F8B01222717FD2B
:102030002095322F0F3F11052105310571F06CF00D
:102040000B3981E0180780E0280780E038074CF062
:102050000AE911E020E030E004C000E011E020E0F7
:1020600030E068817981882777FD8095982FA901D4
:1020700098010E94FC29DC01CB01F9E0B595A795F8
:1020800097958795FA95D1F799838883B1DFDF918A
:10209000CF911F910F9108950F931F93CF93DF93CB
:1020A000EC01F5E075956795FA95E1F76A597D4F72
:1020B0008B01222717FD2095322F063682E0180764
:1020C00080E0280780E038076CF0013083E01807D3
:1020D00080E0280780E038074CF000E013E020E0C3
:1020E00030E004C006E612E020E030E0688179814B
:1020F000882777FD8095982FA90198010E94FC29D7
:10210000DC01CB01E9E0B595A79597958795EA9510
:10211000D1F7998388836CDFDF91CF911F910F9165
:102120000895AF92BF92CF92DF92EF92FF920F93FA
:10213000CF93DF93CDB7DEB76B970FB6F894DEBFC2
:102140000FBECDBF80911804882309F491C08091FF
:102150001904813009F48CC08DEF94E019D77C010B
:1021600020E88030920709F482C080913604909173
:10217000370420915E0430915F04820F931F8E1507
:102180009F0534F4B701681B790B81E494E084DF88
:10219000809136049091370420916004309161045D
:1021A000820F931FE816F90634F4B701681B790B08
:1021B00081E494E02EDF00D08BEF90E0ADB7BEB7A6
:1021C00012969C938E9311970E94D91D0F900F9099
:1021D000A701662757FD6095762FCE01439623E031
:1021E00009E00E9429265C01409136045091370491
:1021F000662757FD6095762FCE010A9623E00E9450
:1022000029266C014091410450914204662757FDF4
:102210006095762FCE01019623E00E944425EDB70C
:10222000FEB738970FB6F894FEBF0FBEEDBF3196DC
:1022300023E131E0ADB7BEB712963C932E931197D0
:10224000B382A282D582C482978386830E94D91DDD
:1022500010921804F0923B04E0923A04EDB7FEB7F6
:1022600038960FB6F894FEBF0FBEEDBF01C0FEDC7E
:1022700080911704882309F497C08091190488235A
:1022800009F492C08DEF94E0A2D67C01F0E8803092
:102290009F0709F488C080913404909135042091FF
:1022A000640430916504820F931FE816F90634F434
:1022B000B701681B790B83E494E0EEDE809134046F
:1022C000909135042091620430916304280F391FE6
:1022D0002E153F0564F42091640430916504280FA5
:1022E000391FB701621B730B83E494E092DE00D0C8
:1022F0008DE391E0ADB7BEB712969C938E93119784
:102300000E94D91D0F900F90A701662757FD609579
:10231000762FCE01019623E009E00E9429265C0178
:102320004091340450913504662757FD6095762F0F
:10233000CE010A9623E00E9429266C0140914304B5
:1023400050914404662757FD6095762FCE01439641
:1023500023E00E944425EDB7FEB738970FB6F894F6
:10236000FEBF0FBEEDBF319625E531E0ADB7BEB77C
:1023700012963C932E931197B382A282D582C48287
:10238000978386830E94D91D10921704F092390416
:10239000E0923804EDB7FEB738960FB6F894FEBF5A
:1023A0000FBEEDBF01C062DC6B960FB6F894DEBFC6
:1023B0000FBECDBFDF91CF910F91FF90EF90DF90D7
:1023C000CF90BF90AF9008958CE394E061E070E00F
:1023D00049E050E00C94352F82E680933C0480E085
:1023E00098E290933E0480933D0490934004809340
:1023F0003F0480E190E0909342048093410480E0A8
:102400009AE09093440480934304F2CD85E494E0F1
:102410006AE070E04BE250E00C944D2F85E494E0CC
:102420006AE070E04BE250E00C94352FCF9383E4E8
:102430008093450488E592E0909367048093660456
:1024400080EB94E0909369048093680480E09CE3BF
:10245000909349048093480480E098E09093470467
:102460008093460480E09EE190934B0480934A045D
:1024700090934D0480934C048AE990E090934F042C
:1024800080934E0480E09AEF90935104809350041F
:1024900090935304809352048AE190E09093550402
:1024A000809354048DEC9FEF9093570480935604CF
:1024B00020E031E0309359042093580430935B04BA
:1024C00020935A0420E03FEF30935D0420935C0496
:1024D00026E630E030935F0420935E04909361041D
:1024E0008093600483E390E090936304809362049C
:1024F0008AE99FEF909365048093640481E0809360
:102500006A048BE794E061E00E94C40884E0809351
:102510006B0489EC94E064E00E94C408C3E0C093BB
:102520006C0487E195E063E00E94C40882E0809338
:102530006D048CE795E062E00E94C40885E080931A
:102540006E048AEC95E065E00E94C408C0936F04B5
:1025500088E196E063E00E94C40858DFCF910895B7
:1025600080E090E00E94452F813049F035DF5EDF4A
:1025700080E090E061E00E946E2F3ADD47CF24DFDB
:102580004DCF80933C048F56823050F480E090E829
:1025900090933E0480933D049093400480933F04C5
:1025A00027CD81E795E00C94DC29FBDF20913D04E9
:1025B00030913E04281739076CF480914C049091B7
:1025C0004D0490932F0480932E0480915004909199
:1025D00051040CC080914A0490914B0490932F04B5
:1025E00080932E048091520490915304909331046F
:1025F000809330041092180410921704089583E019
:102600008093190481E795E00E94152880E794E003
:102610000E94152828D9C9CF80913D0490913E048D
:10262000089580E794E00C94DC2980913F04909118
:1026300040040895CF93DF93EC0180913D04909185
:102640003E04D0933E04C0933D048C1B9D0B97FF2A
:1026500003C0909581959F4F813891050CF0A5DFBF
:1026600021D92ADB80911504909116048C1B9D0BB7
:1026700097FF03C0909581959F4F813891050CF08D
:10268000B7DCDF91CF9108959093400480933F048D
:102690008CDF08D911DBACCC81E090E0D0C880E0C1
:1026A00090E0CDC8FC01768365831482108289E0B6
:1026B00090E09283818381E083830895CF93DF93B9
:1026C000EB01CB0167E00E947D1C91E02F8182131A
:1026D00090E0892FDF91CF910895EF92FF920F93B1
:1026E0001F93CF93DF93EC018B01E42E8D819E81AC
:1026F0000E94CA1BFF2406C0CE01B801DFDF882379
:1027000059F414C08D819E81B8010E94FA1B882360
:1027100029F0FE1459F4F0CF81E001C080E0DF9190
:10272000CF911F910F91FF90EF900895F394EF14C4
:10273000A8F3E8CFEF92FF920F931F93CF93DF930D
:10274000EC017B018A018D819E81FCD68D819E8169
:10275000B701F0D78D819E816EEB40E08DD78D81E2
:102760009E81CDD7F80180838D819E81C8D7F801E5
:1027700081838D819E81C3D7F80182838D819E8163
:10278000BED7F80183838D819E81B9D7F8018483F8
:102790008D819E81B4D7F80185838D819E81AFD7CD
:1027A000F80186838D819E81AAD7F80187838D8168
:1027B0009E81A5D7F80180878D819E81C3D6DF9148
:1027C000CF911F910F91FF90EF900895CF93DF93DA
:1027D000EA01B0DFCE0168E00E947D1C91E028850F
:1027E000821390E0892FDF91CF910895EF92FF92AD
:1027F0000F931F93CF93DF938C01EB017A01FC01C0
:10280000858196819FD6F80185819681BE0192D7F8
:10281000F801858196816EE440E02ED7F80185812C
:102820009681F701628140E027D7F8018581968182
:10283000F701638140E020D78881803139F0F801C9
:1028400085819681F701648140E016D7F801858182
:10285000968178D6F8018581968168E440810CD70D
:10286000F8018081882331F06AE070E080E090E038
:102870000E949D06F8018581968164D6DF91CF91F3
:102880001F910F91FF90EF900895EF92FF920F9399
:102890001F93CF93DF93CDB7DEB72A970FB6F89487
:1028A000DEBF0FBECDBF7C018B01242FAE014F5F79
:1028B0005F4F2A878BDF2A858823D9F0F801808132
:1028C0008031C9F02A3051F02A3050F02B3021F0FD
:1028D0002C3031F48FE705C08FE503C08FE301C0D2
:1028E0008FE18D83C701B801AE014F5F5F4F7EDF7F
:1028F00002C080E001C081E02A960FB6F894DEBFE6
:102900000FBECDBFDF91CF911F910F91FF90EF9040
:102910000895CF93DF93EC018D819E8113D68D8135
:102920009E8135D78D819E8164E44881A5D68B81B7
:10293000882321F189819A818930910551F089306C
:102940009105B4F08A30910549F08B30910581F4FE
:102950000AC06EE570E080E090E00EC06CEB70E0C5
:1029600080E090E009C067E771E080E090E004C09B
:102970006EEE72E080E090E00E949D06DF91CF91C4
:102980000895CF93DF93CDB7DEB729970FB6F894AC
:10299000DEBF0FBECDBFAE014F5F5F4F17DF882395
:1029A00039F03A8120E0898190E0822B932B02C09C
:1029B00081E89FEF29960FB6F894DEBF0FBECDBF1A
:1029C000DF91CF9108950F931F93CF93DF93EC0185
:1029D0000E94852A8C0160E070E0AE010E94F02C1C
:1029E000C801DF91CF911F910F9108950C941B2B7B
:1029F00008958130910559F410927606109275066B
:102A000088E293E09093740680937306089500978C
:102A100031F488E293E090937406809373060895EE
:102A20000F931F93CF93DF93CDB7DEB765970FB6A4
:102A3000F894DEBF0FBECDBF8C01CE01019644E1FC
:102A400050E00E94DC2CC801BE016F5F7F4F0E94E6
:102A50009C0565960FB6F894DEBF0FBECDBFDF9123
:102A6000CF911F910F910895CF93DF93EC01FC015B
:102A7000EE59FF4F8FEF8083CE016AE00E94920AE9
:102A8000CE0164E144E00E94760BCE010E94740BFB
:102A9000DF91CF9108958F929F92AF92BF92CF9284
:102AA000DF92FF920F931F93CF93DF93CDB7DEB7E3
:102AB00029970FB6F894DEBF0FBECDBF4C01CB01F6
:102AC000AC01662757FD6095762F6E010894C11CF6
:102AD000D11CC60121E009E00E94292600E010E097
:102AE000FC2CCD2C85E0A82EB12C05C060E20E9404
:102AF000070B0F5F1F4F8F2D9C2D0E94082D9501F6
:102B0000281B390BC4010217130780F36F2D7C2D8E
:102B10000E949C0529960FB6F894DEBF0FBECDBF6C
:102B2000DF91CF911F910F91FF90DF90CF90BF90D9
:102B3000AF909F908F90089560E871E071CFCF9330
:102B4000DF93EC016CE042E00E94460B6EDDBC01BD
:102B500080E86030780719F4CE01EEDF02C0CE01C4
:102B60009ADFDF91CF910895CF93DF93EC0166E078
:102B700042E00E94460B80917104882329F051DDC8
:102B8000BC01CE0188DF02C0CE01D6DFDF91CF913C
:102B90000895CF93DF93EC016CE041E00E94460B77
:102BA0003BDDBC0180E86030780719F4CE01C4DF5A
:102BB00002C0CE0170DFDF91CF910895CF93DF93F4
:102BC000EC0166E041E00E94460B8091720588238B
:102BD00029F0E7DCBC01CE015EDF02C0CE01ACDF34
:102BE000DF91CF910895CF93DF93EC01E7DFCE0122
:102BF000D0DFCE01B9DFCE01A2DFDF91CF91089502
:102C0000CF93DF93D82FC92F6FED0E94070B8D2F25
:102C10009C2F609145040E94070BDF91CF9108958E
:102C2000CF93DF93D82FC92F60E040E00E94460B7E
:102C30008D2F9C2F66E871E0F3DE8D2F9C2F60E0D6
:102C400041E00E94460B8D2F9C2F6EE871E0E8DE7C
:102C50008D2F9C2F60E042E00E94460B8D2F9C2F11
:102C600066E971E0DDDE8D2F9C2F62E141E00E947C
:102C7000460B8D2F9C2FC4DF8D2F9C2F62E142E0ED
:102C80000E94460B8D2F9C2FBBDFDF91CF910895C3
:102C9000CF93DF93D82FC92F67E040E00E94460B07
:102CA00080913C04863651F0873618F48236D1F490
:102CB0000AC08F3691F08037A9F40AC08D2F9C2F5F
:102CC0006EE971E013C08D2F9C2F6CEA71E00EC08D
:102CD0008D2F9C2F6AEB71E009C08D2F9C2F68EC23
:102CE00071E004C08D2F9C2F66ED71E099DEDF91BD
:102CF000CF910895FF920F931F93CF93DF938C0191
:102D0000C0911904FC01EE59FF4F8081C817D1F121
:102D1000F02ED12FC80160E043E00E94460B809165
:102D20001904823071F0833028F4882391F08130C7
:102D300001F513C08430A9F0843038F08530C9F42F
:102D400014C0C80164EE71E018C0C80169EF71E0F9
:102D500014C0C8016EE072E010C0C80163E272E006
:102D60000CC0C80168E372E008C0C8016DE472E0FD
:102D700004C08F2D9D2F62E672E052DEF801EE59FD
:102D8000FF4FC083C23099F4C80169E043E00E945C
:102D9000460B0E94230EEC010E94360EC817D9077D
:102DA00018F40E94230E0CC00E94360E09C0C230D7
:102DB00088F4C8016CE043E00E94460B0E94490E73
:102DC000BC01C8014AE050E00E940C06C80167E758
:102DD00072E026DEDF91CF911F910F91FF90089551
:102DE00081E090E006CE80E090E003CE2F923F920B
:102DF0004F925F926F927F928F929F92AF92BF920B
:102E0000CF92DF92EF92FF920F931F93CF93DF93B6
:102E1000FC014480558066807780408651866286BA
:102E2000738680809180A280B38084829582A682FE
:102E3000B7824083518362837383C088D188E288DC
:102E4000F388C48AD58AE68AF78A84859585A6851B
:102E5000B785808B918BA28BB38BD18DC08D2C2E9F
:102E600033248C019D010C191D092E093F09080FFF
:102E7000191F2A1F3B1F0D2E04C0B595A7959795C6
:102E800087950A94D2F7081B190B2A0B3B0BD70125
:102E9000C60104C0B595A79597958795DA95D2F7A1
:102EA000080F191F2A1F3B1FDB01CA010C2E04C08B
:102EB000B595A795979587950A94D2F7080F191F8E
:102EC0002A1F3B1FC1010197B501A40104C07595DC
:102ED0006795579547958A95D2F7040F151F261FBA
:102EE000371FD301C20104C0B595A7959795879563
:102EF000CA95D2F7080F191F2A1F3B1FC10102975D
:102F0000B701A60104C075956795579547958A95B1
:102F1000D2F7041B150B260B370B04871587268762
:102F20003787B801C901DF91CF911F910F91FF90B1
:102F3000EF90DF90CF90BF90AF909F908F907F9059
:102F40006F905F904F903F902F900895FC01CB01C0
:102F5000AA2797FDA095BA2FDC019927882780839F
:102F60009183A283B38384839583A683B783808769
:102F70009187A287B38784879587A687B787808B39
:102F8000918BA28BB38B848B958BA68BB78B08957B
:102F9000FC01408951896289738984859585A6855C
:102FA000B78584179507A607B7075CF484899589C8
:102FB000A689B789481759076A077B072CF0CB0108
:102FC000089580E090E8089580E090E80895FC017D
:102FD000408951896289738984859585A685B785DD
:102FE000481759076A077B075CF484899589A68985
:102FF000B78984179507A607B7072CF0CB0108956A
:1030000080E090E8089580E090E80895AF92BF9244
:10301000CF92DF92EF92FF920F931F93CF93DF93A4
:10302000CDB7DEB729970FB6F894DEBF0FBECDBF80
:1030300083E796E0F5DDF0DA5C0120E88030920766
:1030400019F460E078E201C0BC01882777FD809523
:10305000982F0E94A8278C01609146047091470424
:10306000882777FD8095982F0E94A8276C01609192
:10307000480470914904882777FD8095982F0E9415
:10308000A8279C0180EF93E0B801A6010E94350AB1
:103090000E9461066B017C0151C080EF93E00E94A9
:1030A0005C0A882381F10E9461066B017C0180EF3C
:1030B00093E00E94480A0E94DE27BCDA83E796E08C
:1030C00068DD8091F8038823C9F11092F803A4DA2F
:1030D000AC01662757FD6095762FCE01019621E061
:1030E00009E00E94292600D000D021ED32E0EDB7A2
:1030F000FEB732832183948383830ED50F900F9084
:103100000F900F902FC0112321F483E796E041DD4B
:103110000DC0103859F483E796E06CE041E00E945E
:10312000460B83E796E06EEE72E07ADC1F5F63E0A9
:1031300070E080E090E00E949D0601C010E00E94D7
:103140006106DC01CB018C199D09AE09BF098031F4
:10315000F7E29F07F0E0AF07F0E0BF0708F49DCF6C
:10316000C50168DA29960FB6F894DEBF0FBECDBF51
:10317000DF91CF911F910F91FF90EF90DF90CF9053
:10318000BF90AF900895AF92BF92CF92DF92EF922F
:10319000FF920F931F93CF93DF93CDB7DEB729979D
:1031A0000FB6F894DEBF0FBECDBF83E796E038DDE3
:1031B0003CDA5C0120E88030920719F460E078E2A4
:1031C00001C0BC01882777FD8095982F0E94A82711
:1031D0008C016091460470914704882777FD8095A3
:1031E000982F0E94A8276C016091480470914904AF
:1031F000882777FD8095982F0E94A8279C0180EF53
:1032000093E0B801A6010E94350A0E9461066B0195
:103210007C0151C080EF93E00E945C0A882381F119
:103220000E9461066B017C0180EF93E00E94480AD6
:103230000E94DE2729DA83E796E081DC8091F8039B
:103240008823C9F11092F803F0D9AC01662757FD25
:103250006095762FCE01019621E009E00E94292693
:1032600000D000D024EF32E0EDB7FEB732832183E7
:103270009483838377D40F900F900F900F902FC07B
:10328000112321F483E796E05ADC0DC0103859F47D
:1032900083E796E06CE042E00E94460B83E796E00D
:1032A00063E173E0BDDB1F5F63E070E080E090E00E
:1032B0000E949D0601C010E00E946106DC01CB0166
:1032C0008C199D09AE09BF098031F7E29F07F0E034
:1032D000AF07F0E0BF0708F49DCFC501D5D9299607
:1032E0000FB6F894DEBF0FBECDBFDF91CF911F9117
:1032F0000F91FF90EF90DF90CF90BF90AF90089527
:10330000CF92DF92EF92FF920F931F93CF93DF93B1
:1033100000D000D0CDB7DEB783E796E081DC109116
:103320003C04E12FE656EB3028F4F0E0E45DFC4F7E
:10333000608101C060E080EF93E070E040E050E029
:1033400023E030E00E94350A82E6898386E68A839C
:1033500080E78B838FE68C830E9461066B017C0182
:1033600058C080EF93E00E945C0A8823B9F10E9464
:1033700061066B017C0180EF93E00E94480AE1E066
:10338000F0E0EC0FFD1FE80FF91F8081FAD883E70A
:1033900096E07EDC8091F803882309F43AC010920D
:1033A000F80380913C04823611F430DE46C0863644
:1033B00011F4E9DE42C0803721F400D081E892E0C8
:1033C00005C08F36D1F500D082EA92E0EDB7FEB7A6
:1033D00092838183A1D30F900F902FC0002321F4FB
:1033E00083E796E055DC0DC0003859F483E796E09A
:1033F00067E040E00E94460B83E796E063EC72E0F2
:103400000FDB0F5F63E070E080E090E00E949D06BC
:1034100001C000E00E946106DC01CB018C199D090E
:10342000AE09BF098031F7E29F07F0E0AF07F0E097
:10343000BF0708F496CF812FA4D80F900F900F905C
:103440000F90DF91CF911F910F91FF90EF90DF9040
:10345000CF900895CF92DF92EF92FF92CF9380EFBB
:1034600093E060E070E040E050E022E030E00E9455
:10347000350A0E9461066B017C01C0E04CC080EF00
:1034800093E00E945C0A882329F00E9461066B0188
:103490007C0102C0CC2329F483E796E0C1DBC0E0C5
:1034A00011C0C03879F480EF93E00E94480A482F99
:1034B00083E796E060E00E94460B83E796E06AE7C8
:1034C00072E0AEDA8091F8038823F1F01092F803ED
:1034D00080EF93E00E94480A8130910539F08230F4
:1034E000910559F0009781F40BDF26C082E649D898
:1034F00083E796E0CDDB8ADD1FC086E642D883E70E
:1035000096E0C6DB40DE18C0CF5F63E070E080E08D
:1035100090E00E949D060E946106DC01CB018C199F
:103520009D09AE09BF09803127E2920720E0A2077A
:1035300020E0B20708F4A3CFCF91FF90EF90DF9087
:10354000CF900895FF920F931F93CF93DF93FC01C9
:103550001081C181D281F8948981012F0095802347
:10356000898378948DE7F82EFA9431F182E090E027
:103570000E94C40688818123B9F3F8948A8180234C
:103580008A838981812B8983789484EF91E00E94DA
:10359000C406F89489818023898380E590E00E94A5
:1035A000C40688818123C1E009F0C0E0789484EAF0
:1035B00091E00E94C40601C0C0E08C2FDF91CF9142
:1035C0001F910F91FF9008951F93CF93DF93FC01FC
:1035D0001081C181D281912F9095F8948A8189239D
:1035E0008A838981812B898360FF0BC08AE090E008
:1035F0000E94C4068A81812B8A83789487E390E0B5
:103600000AC081E490E00E94C4068A81812B8A83EB
:10361000789485E090E00E94C406DF91CF911F91DD
:1036200008950F931F93CF93DF93FC011081C18105
:10363000D281F8948981812B89838A81012F009519
:1036400080238A8383E090E00E94C40689818023DE
:1036500089838AE090E00E94C406C881789485E35B
:1036600090E00E94C4061C2381E009F480E0DF9111
:10367000CF911F910F910895CF92DF92EF92FF9219
:103680000F931F93CF93DF930F92CDB7DEB78C01CB
:10369000F62E28E0C22ED12CEE24E3948E2D8F211D
:1036A00061E009F460E0C80149838EDFEE0C089404
:1036B000C108D1084981C114D10481F74423A9F478
:1036C000F894D8011196ED91FC91129791818C910B
:1036D0008095892381831196ED91FC9112979281B7
:1036E0008C9180958923828378940F90DF91CF917C
:1036F0001F910F91FF90EF90DF90CF900895EF9280
:10370000FF920F931F93CF93DF938C01C8E0D0E01B
:10371000FF24EE24E394C80184DF8111FE28EE0C1F
:103720002197C9F78F2DDF91CF911F910F91FF90B6
:10373000EF900895CF92DF92EF92FF920F931F9335
:10374000CF93DF930F92CDB7DEB77C01C62E65E530
:1037500040E0798391DF0C2D7981172FCC24DD2473
:10376000F80161918F01C70140E086DF0894C11C18
:10377000D11CF8E0CF16D10499F70F90DF91CF91CB
:103780001F910F91FF90EF90DF90CF9008956CEC18
:1037900040E072CFFC0113861586148612861186CE
:1037A00010861782168215821482138208951F9341
:1037B000CF93DF93EC01162F862F60E00E9409075C
:1037C000612F70E0FB01E458FF4FE491E883FB01B7
:1037D000E057FF4FE491F0E0EE0FFF1FEC55FF4F75
:1037E0008591949189839A83CE01D4DFDF91CF9123
:1037F0001F910895BF92CF92DF92EF92FF920F93A5
:103800001F93CF93DF93EC016B018D85882309F023
:1038100052C0CE0197DE882321F41B861D861C86AC
:103820005BC0CE0160EF40E027DF01E0FF24EE2423
:1038300011E0CE01F6DEB82ECE01F3DE91E0B9162E
:1038400019F48130A9F42FC0B816D1F48B8518175C
:1038500038F4FE01EF0DF11D8381802349F402C08D
:10386000181731F060E0193008F040C01C873EC0E6
:10387000FE01EF0DF11D8381802B838361E009C080
:103880006B2DFE01EF0DF11D902F90958381892303
:103890008383CE0199DE1F5F000F11F4F39401E0E2
:1038A00087E08F1530F6113430F0EB86EE2001F50D
:1038B00081E08D871DC01B861D861C8680E0D60199
:1038C00020E030E0FE01E20FF31F93819D932F5F14
:1038D0003F4F28303105B1F7DF91CF911F910F9104
:1038E000FF90EF90DF90CF90BF900895E12EC9CF69
:1038F0008B81882301F381E0E2CFDC0180E007C007
:10390000ED91E827F0E0E75EFC4F8491615066237B
:10391000B9F70895CF93DF93CDB7DEB7C058D04045
:103920000FB6F894DEBF0FBECDBFFE01EB57FF4FC1
:1039300041915191CE01019660E870E09F010E9493
:103940003E2D80E493E0BE016F5F7F4F0E949C0597
:10395000C058DF4F0FB6F894DEBF0FBECDBFDF916A
:10396000CF910895CF92DF92EF92FF920F93CF9372
:10397000DF93CDB7DEB729970FB6F894DEBF0FBE41
:10398000CDBF7C016B010E94D112AC01662757FDAF
:103990006095762FCE01019622E009E00E9429264B
:1039A00000D000D020E834E0EDB7FEB732832183A9
:1039B00094838383AFDF0F900F900F900F900E943E
:1039C0000C13AC01662757FD6095762FCE0101964A
:1039D00022E00E94292600D000D022E934E0EDB791
:1039E000FEB7328321839483838394DF0F900F90FB
:1039F00080EA94E0EDB7FEB7928381838BDF0F906E
:103A00000F90E114F10459F400D08BEA94E0EDB783
:103A1000FEB7928381837EDF0F900F900FC000D09E
:103A200000D081EB94E0EDB7FEB792838183F482FE
:103A3000E38270DF0F900F900F900F900E94111390
:103A4000AC01662757FD6095762FCE01019622E0E6
:103A500009E00E94292600D000D027EB34E0EDB722
:103A6000FEB7328321839483838354DF0F900F90BA
:103A70000F900F900E941513AC01662757FD6095BB
:103A8000762FCE01019622E00E94292600D000D098
:103A900028EC34E0EDB7FEB732832183948383832F
:103AA00039DF0F900F9088ED94E0EDB7FEB7928369
:103AB000818330DF0F900F90C114D10459F400D0EE
:103AC00085EE94E0EDB7FEB79283818323DF0F90FC
:103AD0000F900FC000D000D08CEE94E0EDB7FEB791
:103AE00092838183D482C38215DF0F900F900F9051
:103AF0000F9029960FB6F894DEBF0FBECDBFDF91B1
:103B0000CF910F91FF90EF90DF90CF90089580E0DC
:103B100090E060E070E026CFCF93DF93CDB7DEB7C3
:103B2000C058D0400FB6F894DEBF0FBECDBFFE0127
:103B3000EB57FF4F41915191CE01019660E870E043
:103B40009F010E943E2DCE01019660E070E00ADFE9
:103B5000C058DF4F0FB6F894DEBF0FBECDBFDF9168
:103B6000CF910895CF93DF93CDB7DEB7C058D04043
:103B70000FB6F894DEBF0FBECDBFFE01EB57FF4F6F
:103B800041915191CE01019660E870E09F010E9441
:103B90003E2D80E090E0BE016F5F7F4FE3DEC058B6
:103BA000DF4F0FB6F894DEBF0FBECDBFDF91CF91D0
:103BB0000895EF92FF920F931F93CF93DF93CDB7AA
:103BC000DEB7C058D0400FB6F894DEBF0FBECDBFF1
:103BD0008E0107571F4FF801E190F1908F0100D03F
:103BE00083EF94E0EDB7FEB79283818393DE0F906D
:103BF0000F90CE01019660E870E0A70198010E9445
:103C00003E2D80E493E0BE016F5F7F4F0E949C05D4
:103C100000D086EF94E0EDB7FEB7928381837ADE21
:103C20000F900F90C058DF4F0FB6F894DEBF0FBE55
:103C3000CDBFDF91CF911F910F91FF90EF9008952D
:103C400000D000D000D0EDB7FEB7319622E235E0CB
:103C5000ADB7BEB712963C932E9311979383828390
:103C60007583648357DE8DB79EB706960FB6F894BA
:103C70009EBF0FBE8DBF08950F93CF93DF93CDB737
:103C8000DEB72C970FB6F894DEBF0FBECDBF00D0C5
:103C900084E195E0ADB7BEB712969C938E931197D1
:103CA00039DE0F900F9040911A0450911B04662743
:103CB00057FD6095762FCE01019623E00CE00E941F
:103CC0003A27BC018EE091E0BBDF40911C0450918B
:103CD0001D0460911E0470911F04CE01019623E023
:103CE0000E943A27BC0187E191E0AADF40912004BD
:103CF00050912104662757FD6095762FCE010196DD
:103D000023E00E943A27BC0184E291E099DF4091D0
:103D10002204509123046091240470912504CE0163
:103D2000019623E0B1D6BC018EE291E089DF40919B
:103D30002604509127046091280470912904CE0133
:103D4000019623E0A1D6BC0180E391E079DF4091A8
:103D50002A0450912B0460912C0470912D04CE0103
:103D6000019623E091D6BC0182E391E069DF4091A6
:103D70002E0450912F04662757FD6095762FCE01B3
:103D8000019623E081D6BC0184E391E059DF4091A4
:103D9000300450913104662757FD6095762FCE018F
:103DA000019623E071D6BC0187E391E049DF4091A1
:103DB000320450913304662757FD6095762FCE016B
:103DC000019623E046D7BC018AE391E039DF4091B8
:103DD000340450913504662757FD6095762FCE0147
:103DE000019623E036D7BC0188E491E029DF4091B9
:103DF000360450913704662757FD6095762FCE0123
:103E0000019623E026D7BC0187E591E019DF4091B8
:103E1000380450913904662757FD6095762FCE01FE
:103E2000019623E016D7BC0186E691E009DF4091B8
:103E30003A0450913B04662757FD6095762FCE01DA
:103E4000019623E006D700D000D000D0EDB7FEB732
:103E5000319628E135E0ADB7BEB712963C932E936C
:103E600011972EE631E0338322839583848352DDDC
:103E7000EDB7FEB736960FB6F894FEBF0FBEEDBF96
:103E80002C960FB6F894DEBF0FBECDBFDF91CF9159
:103E90000F91089500D000D000D0EDB7FEB7319655
:103EA0002BE235E0ADB7BEB712963C932E93119737
:103EB00093838283648315822DDD8DB79EB706962A
:103EC0000FB6F8949EBF0FBE8DBF08950F93CF938A
:103ED000DF93CDB7DEB72C970FB6F894DEBF0FBED9
:103EE000CDBF00D088EF94E0ADB7BEB712969C93DB
:103EF0008E9311970FDD0F900F9086E791E0609100
:103F00003C04C8DF40913D0450913E04662757FDB4
:103F10006095762FCE01019622E00CE09AD6BC0186
:103F20008BE791E08DDE40913F045091400466277D
:103F300057FD6095762FCE01019622E08AD6BC010E
:103F400087E891E07DDE409141045091420466276C
:103F500057FD6095762FCE01019623E095D5BC01E3
:103F600085E991E06DDE4091430450914404662759
:103F700057FD6095762FCE01019623E085D500D0C0
:103F800000D000D0EDB7FEB731962CEF34E0ADB7DE
:103F9000BEB712963C932E93119723EA31E03383F8
:103FA000228395838483B6DCEDB7FEB736960FB6D1
:103FB000F894FEBF0FBEEDBF2C960FB6F894DEBF8F
:103FC0000FBECDBFDF91CF910F91089500D000D0EB
:103FD00000D0EDB7FEB7319626E335E0ADB7BEB7FA
:103FE00012963C932E9311979383828375836483F7
:103FF00091DC8DB79EB706960FB6F8949EBF0FBEA4
:104000008DBF089500D000D000D0EDB7FEB7319637
:104010002FE335E0ADB7BEB712963C932E931197C0
:10402000938382836483158275DC8DB79EB7069671
:104030000FB6F8949EBF0FBE8DBF08950F93CF9318
:10404000DF93CDB7DEB72C970FB6F894DEBF0FBE67
:10405000CDBF00D086E095E0ADB7BEB712969C9379
:104060008E93119757DC0F900F9081EB91E0609148
:10407000450410DF4091460450914704662757FDE0
:104080006095762FCE01019621E00CE0E2D5BC01CF
:104090008CEB91E0D5DD40914804509149046627AE
:1040A00057FD6095762FCE01019621E0D2D5BC0157
:1040B0008BEC91E0C5DD40914A0450914B0466279A
:1040C00057FD6095762FCE01019623E0DDD4BC012B
:1040D0008AED91E0B5DD40914C0450914D04662786
:1040E00057FD6095762FCE01019623E0CDD4BC011B
:1040F00081EE91E0A5DD40914E0450914F0466277A
:1041000057FD6095762FCE01019623E0BDD4BC010A
:1041100088EE91E095DD409150045091510466275E
:1041200057FD6095762FCE01019623E0ADD4BC01FA
:104130008BEE91E085DD4091520450915304662747
:1041400057FD6095762FCE01019623E09DD4BC01EA
:1041500082EF91E075DD4091580450915904662733
:1041600057FD6095762FCE01019623E083D6BC01E2
:1041700089EF91E065DD4091540450915504662724
:1041800057FD6095762FCE01019623E073D6BC01D2
:1041900083E092E055DD4091560450915704662724
:1041A00057FD6095762FCE01019623E063D6BC01C2
:1041B0008DE092E045DD40915A0450915B04662702
:1041C00057FD6095762FCE01019623E053D6BC01B2
:1041D00087E192E035DD40915C0450915D046627F3
:1041E00057FD6095762FCE01019623E043D6BC01A2
:1041F00085E292E025DD40915E0450915F046627E0
:1042000057FD6095762FCE01019623E033D6BC0191
:1042100082E392E015DD40916004509161046627CD
:1042200057FD6095762FCE01019623E023D6BC0181
:1042300085E492E005DD40916204509163046627B5
:1042400057FD6095762FCE01019623E013D6BC0171
:1042500088E592E0F5DC409164045091650466279E
:1042600057FD6095762FCE01019623E003D6BC0161
:104270008BE692E0E5DC60916604709167048EE75E
:1042800092E0A4DE609168047091690485E992E08F
:104290009DDE8CEA92E060916A04B4DE8DEB92E0E0
:1042A00060916B04AFDE8EEC92E060916C04AADE4C
:1042B00080EE92E060916D04A5DE8FEE92E0609159
:1042C0006E04A0DE00D000D000D0EDB7FEB731966E
:1042D0008AE095E0ADB7BEB712969C938E93119786
:1042E0008EEF92E09383828380916F0484831582A2
:1042F00011DBEDB7FEB736960FB6F894FEBF0FBED2
:10430000EDBF2C960FB6F894DEBF0FBECDBFDF9188
:10431000CF910F9108950F931F93CF93DF93EC01EB
:104320008B0100D000D000D0EDB7FEB7319688E405
:1043300095E0ADB7BEB712969C938E931197D38339
:10434000C2837583648335DCEDB7FEB736960FB64E
:10435000F894FEBF0FBEEDBFCE0166E771E00E948C
:10436000FF2C0097D9F4D8018C910E94C11200D083
:1043700000D0EDB7FEB7319686E695E0ADB7BEB793
:1043800012969C938E931197D8018C9182831382FD
:10439000E9DB0F900F900F900F9028C2CE016BE7D2
:1043A00071E00E94FF2C0097D1F5C80125D5EC01E2
:1043B00080913C048037F9F480913D0490913E0453
:1043C000FE01E81BF90BCF01F7FF03C09095819523
:1043D0009F4F85369105F4F000D000D086E895E037
:1043E000ADB7BEB712969C938E93119714961C93FB
:1043F0000E9313970AC000D000D082EB95E0EDB782
:10440000FEB7928381831483038386DB0F900F9022
:104410000F900F90D0933E04C0933D04E7C1CE01AE
:1044200067E871E00E94FF2C0097F9F4C801E4D41A
:10443000EC0180913C04863699F400D000D088EDE0
:1044400095E0ADB7BEB712969C938E9311971496D4
:104450001C930E93139786DB0F900F900F900F9085
:10446000D0934004C0933F04C1C1CE0165E971E01F
:104470000E94FF2C009749F4C80136D4DC01CB011F
:104480009093420480934104B1C1CE0163EA71E08C
:104490000E94FF2C009749F4C80126D4DC01CB010F
:1044A0009093440480934304A1C1CE0161EB71E079
:1044B0000E94FF2C009749F4F80180818093450405
:1044C00083E796E00E94101691C1CE016CEB71E07B
:1044D0000E94FF2C009739F4C8018ED490934704B2
:1044E0008093460483C1CE016BEC71E00E94FF2CE7
:1044F000009739F4C80180D490934904809348040C
:1045000075C1CE016AED71E00E94FF2C009749F45D
:10451000C801EAD3DC01CB0190934B0480934A0499
:1045200065C1CE0161EE71E00E94FF2C009749F455
:10453000C801DAD3DC01CB0190934D0480934C0485
:1045400055C1CE0168EE71E00E94FF2C009749F43E
:10455000C801CAD3DC01CB0190934F0480934E0471
:1045600045C1CE016BEE71E00E94FF2C009749F42B
:10457000C801BAD3DC01CB0190935104809350045D
:1045800035C1CE0162EF71E00E94FF2C009749F423
:10459000C801AAD3DC01CB01909353048093520449
:1045A00025C1CE0169EF71E00E94FF2C009739F41C
:1045B000C80194D4909359048093580417C1CE0134
:1045C00063E072E00E94FF2C009739F4C80186D4A2
:1045D000909355048093540409C1CE016DE072E0BC
:1045E0000E94FF2C009739F4C80178D490935704A7
:1045F00080935604FBC0CE0167E172E00E94FF2C5D
:10460000009739F4C8016AD490935B0480935A04EC
:10461000EDC0CE0165E272E00E94FF2C009739F4F4
:10462000C8015CD490935D0480935C04DFC0CE012C
:1046300062E372E00E94FF2C009739F4C8014ED467
:1046400090935F0480935E04D1C0CE0165E472E074
:104650000E94FF2C009739F4C80140D49093610464
:1046600080936004C3C0CE0168E572E00E94FF2C15
:10467000009739F4C80132D49093630480936204A4
:10468000B5C0CE016BE672E00E94FF2C009739F4B2
:10469000C80124D49093650480936404A7C0CE011C
:1046A0006EE772E00E94FF2C009771F4C80160E091
:1046B00070E04AE050E00E94B42BDC01CB01909303
:1046C00067048093660492C0CE0165E972E00E949F
:1046D000FF2C009771F4C80160E070E04AE050E000
:1046E0000E94B42BDC01CB01909369048093680491
:1046F0007DC0CE016CEA72E00E94FF2C009761F44D
:10470000C80160E070E04AE050E00E94B42B609382
:104710006A048BE794E05BC0CE016DEB72E00E940F
:10472000FF2C009761F4C80160E070E04AE050E0BF
:104730000E94B42B60936B0489EC94E048C0CE01D6
:104740006EEC72E00E94FF2C009761F4C80160E0FB
:1047500070E04AE050E00E94B42B60936C0487E163
:1047600095E035C0CE0160EE72E00E94FF2C00970C
:1047700059F4C80160E070E04AE050E0F5D760937A
:104780006D048CE795E023C0CE016FEE72E00E94CD
:10479000FF2C009759F4C80160E070E04AE050E057
:1047A000E3D760936E048AEC95E011C0CE016EEF02
:1047B00072E00E94FF2C009769F4C80160E070E08D
:1047C0004AE050E0D1D760936F0488E196E00E9400
:1047D000C4080CC000D080E096E0ADB7BEB712961A
:1047E0009C938E931197E5D90F900F90DF91CF9105
:1047F0001F910F9108950F931F93CF93DF93CDB720
:10480000DEB7EC970FB6F894DEBF0FBECDBF61E008
:1048100070E080E090E00E949D0610E069C061E0D9
:1048200070E080E090E00E949D0680E493E00E94AA
:10483000B503182F8A33C9F0803261F08B3751F0FD
:10484000823241F0EFE1F0E0EC0FFD1FE00FF11DCF
:1048500080830F5F0D3110F053C000E080E493E0DF
:104860000E94880318161906D4F2EFE1F0E0EC0F6D
:10487000FD1FE00FF11D108200E01DC061E070E03F
:1048800080E090E00E949D0680E493E00E94B503E2
:10489000182F8C32B9F08D37A9F0803251F0823266
:1048A00041F0E1E0F0E0EC0FFD1FE00FF11D80832F
:1048B0000F5F0D3128F580E493E00E9488031816FD
:1048C0001906E4F2E1E0F0E0EC0FFD1FE00FF11D4E
:1048D0001082CE014F96BE016F5F7F4F1CDD1D37EA
:1048E00039F40E94F80F0E940612F0DAA7DB08C024
:1048F00080E493E00E948803181619060CF4ADCFEB
:10490000EC960FB6F894DEBF0FBECDBFDF91CF910E
:104910001F910F910895EF92FF920F931F93CF93E2
:10492000DF93CDB7DEB766970FB6F894DEBF0FBE44
:10493000CDBF80E493E00E948803181619060CF09E
:1049400096C080E493E00E94B5038A3609F479C0EA
:104950008B3640F4833539F1833699F1833409F08D
:1049600072C010C0833759F1843720F48C3609F0B7
:104970006AC02BC0843721F0863709F064C023C099
:10498000C6D875C00E94161283E796E00E941016E2
:1049900055DB00D089E194E0ADB7BEB712969C9389
:1049A0008E9311970AC00E94EC1190DA00D083E335
:1049B00094E0EDB7FEB792838183FBD83FC086DADF
:1049C00056C03CDB54C058D952C000D08CE494E0AF
:1049D000ADB7BEB712969C938E9311970E948A1C16
:1049E0000F900F9020E08E010F5F1F4F3FE4E32EEA
:1049F00034E0F32E83E796E0622FA8012E8B0E940D
:104A0000B50B00D000D0EDB7FEB7F282E18214837F
:104A100003830E948A1C2E892F5F0F900F900F90A6
:104A20000F90243039F700D086E594E0ADB7BEB7DB
:104A300012969C938E9311970E948A1C0F900F9050
:104A400016C0D9DE14C000D000D0EDB7FEB7319645
:104A500028E534E0ADB7BEB712963C932E9311977C
:104A600082831382A6D80F900F900F900F906696B6
:104A70000FB6F894DEBF0FBECDBFDF91CF911F916F
:104A80000F91FF90EF900895AF92BF92CF92DF9277
:104A9000EF92FF920F93CF93DF935C0177FF0BC0F0
:104AA0008DE2D5018C9370956095509541955F4F3F
:104AB0006F4F7F4F03C080E2F50180836A017B0165
:104AC000F9E0F594E794D794C794FA95D1F7E60105
:104AD0005170607070702130B1F5CB01BA012AE0DD
:104AE00030E040E050E088D4DC01CB0180509F4FA3
:104AF000AF4FBF4FE9E0B595A79597958795EA9594
:104B0000D1F7BC018A30910519F4219660E070E07C
:104B10008DB79EB70A970FB6F8949EBF0FBE8DBF94
:104B2000EDB7FEB73196C5010196ADB7BEB7129687
:104B30009C938E931197802F90E0019793838283AB
:104B40008FE196E037C02230E1F5CB01BA0124E6CF
:104B500030E040E050E050D4DC01CB0180509F4F6A
:104B6000AF4FBF4FF9E0B595A79597958795FA9503
:104B7000D1F7BC018436910519F4219660E070E00C
:104B80008DB79EB70A970FB6F8949EBF0FBE8DBF24
:104B9000EDB7FEB73196C5010196ADB7BEB7129617
:104BA0009C938E931197802F90E00197938382833B
:104BB00087E296E095838483D783C6837187608775
:104BC00034C08DB79EB70A970FB6F8949EBF0FBE3C
:104BD0008DBFCDB7DEB72196C5010196ADB7BEB783
:104BE00012969C938E931197802F90E001979B8350
:104BF0008A838FE296E09D838C83DF82CE82CB0115
:104C0000BA0128EE33E040E050E0F6D3DC01CB01FE
:104C100080509F4FAF4FBF4FE9E0B595A79597954F
:104C20008795EA95D1F799878887FBD6EDB7FEB7C8
:104C30003A960FB6F894FEBF0FBEEDBFC501DF91E7
:104C4000CF910F91FF90EF90DF90CF90BF90AF90FA
:104C50000895CF92DF92EF92FF920F931F93CF931D
:104C6000DF93EC016A017B01122F403080E8580786
:104C70008FEF68078FEF780729F4CE016AE176E0BD
:104C800094D628C0809145048634F1F4DB01CA0132
:104C900023E0880F991FAA1FBB1F2A95D1F7840F05
:104CA000951FA61FB71FBC01CD0125E030E040E0F5
:104CB00050E0F6D369017A0180E090E4A0E0B0E032
:104CC000C80ED91EEA1EFB1ECE01B701A601212F78
:104CD000DBDEEC01CE01DF91CF911F910F91FF90B0
:104CE000EF90DF90CF9008952F923F924F925F9276
:104CF0006F927F928F929F92AF92BF92CF92DF92EC
:104D0000EF92FF920F931F93CF93DF9300D0CDB715
:104D1000DEB78C01FC0180818D3229F40F5F1F4FBB
:104D200077247A9402C077247394C8016EE270E00D
:104D30005ED66C01C80160E070E04AE050E014D536
:104D40001B012C01C114D10469F186010F5F1F4FB3
:104D5000C801BE016F5F7F4F4AE050E005D56B018F
:104D60007C016980601AF9E0CC0CDD1CEE1CFF1C94
:104D7000FA95D1F700E010E0AAE08A2E912CA12C40
:104D8000B12C0DC0C701B6016B5F7F4F8F4F9F4F96
:104D9000A501940185D369017A010F5F1F4F601649
:104DA00089F703C0CC24DD247601672D70E080E014
:104DB00090E0A2019101E9E0220F331F441F551F2B
:104DC000EA95D1F72C0D3D1D4E1D5F1D15D30F909B
:104DD0000F90DF91CF911F910F91FF90EF90DF9097
:104DE000CF90BF90AF909F908F907F906F905F908B
:104DF0004F903F902F9008950F931F9375DF8B0175
:104E00009C01809145048634D1F4D901C80142E067
:104E1000880F991FAA1FBB1F4A95D1F7800F911FBA
:104E2000A21FB31F80509044A140B040BC01CD01EF
:104E300029E030E040E050E033D389019A010030AE
:104E400080E818078FEF28078FEF38076CF00030E5
:104E500080E8180780E0280780E038073CF00FEF73
:104E60001FE720E030E002C000E010E8C8011F9119
:104E70000F910895AF92BF92CF92DF92EF92FF927F
:104E80000F93CF935C016A017B01C22F809145048F
:104E90008634B1F4DB01CA0153E0880F991FAA1FC1
:104EA000BB1F5A95D1F78C0D9D1DAE1DBF1DBC01BA
:104EB000CD0125E030E040E050E0F2D269017A0116
:104EC000C501B701A6012C2FDFDDCF910F91FF9017
:104ED000EF90DF90CF90BF90AF9008950F931F9306
:104EE00003DF8B019C01809145048634B1F4D90124
:104EF000C80162E0880F991FAA1FBB1F6A95D1F7EE
:104F0000800F911FA21FB31FBC01CD0129E030E02B
:104F100040E050E0C5D289019A01003080E81807CE
:104F20008FEF28078FEF38076CF0003080E8180704
:104F300080E0280780E038073CF00FEF1FE720E013
:104F400030E002C000E010E8C8011F910F91089501
:104F50000F931F938B019C01809145048634D1F4FB
:104F6000D901C80173E0880F991FAA1FBB1F7A954A
:104F7000D1F7800F911FA21FB31FBC01CD0125E007
:104F800030E040E050E08CD289019A010050104C92
:104F90002F4F3F4FC901B8012AE030E040E050E018
:104FA0002BD260507F4F8F4F9F4F20E032E040E088
:104FB00050E076D2C9011F910F9108950F931F936E
:104FC00020914504AC01BA01882777FD8095982F80
:104FD0002634B9F420E03AE040E050E00DD26050D1
:104FE00070488C40904029E030E040E050E058D2DA
:104FF00089019A010B5F1F4F2F4F3F4FC901B80125
:105000000BC0E9E0660F771F881F991FEA95D1F75B
:105010006B5F7F4F8F4F9F4F2AE030E040E050E0C2
:105020003FD2C9011F910F910895CF92DF92EF9265
:10503000FF920F931F93CF93DF937C01FC01EB5002
:10504000FF4F808191810E94A21A29EFC22ED12C9C
:10505000CE0CDF1CE701C950DF4F88819981B60172
:1050600040E00E946D13882319F50E94610628EE26
:1050700033E040E050E0F2D12430310508F099C02F
:1050800000D000D0EDB7FEB7319687E396E0ADB71C
:10509000BEB712969C938E931197D7018C91828301
:1050A00013820E94D91D0F900F900F900F9081C016
:1050B00088819981B6014CE00E94451488819981CC
:1050C000FC0113820E9489140E946106DC01CB015D
:1050D000F70182839383A483B5836EEE72E080E050
:1050E00090E00E949D0688819981B6010E94C114BA
:1050F0008C010E946106DC01CB01F70142815381E2
:1051000064817581841B950BA60BB70B813DF7E07D
:105110009F07F0E0AF07F0E0BF0728F0D701119636
:105120001C92119746C0BFEF01381B07E1F288813E
:1051300099810E9489146EEE72E080E090E00E94F6
:105140009D0688819981B6010E94C114EC0181E01D
:10515000F7018183FCEFC030DF0764F024E0C0304A
:10516000D20714F0CFEFD3E085E0CC0FDD1F8A9596
:10517000E1F702C0C0E0D0E8C7010B96BE010E9473
:1051800019098701075A1F4FC801BE010E9419095A
:10519000C70189559F4F60E070E00E941909C8015E
:1051A0000E941109DC01CB01F70187839087A18759
:1051B000B287DF91CF911F910F91FF90EF90DF9019
:1051C000CF900895EF92FF920F931F93CF93DF93A9
:1051D0008C010E946106DC01CB01F8014281538100
:1051E00064817581841B950BA60BB70B8938F3E19D
:1051F0009F07F0E0AF07F0E0BF07B0F0F801E9501B
:10520000FF4F808191810E9489140E946106DC0118
:10521000CB01F80182839383A483B5836EEE72E0A1
:1052200080E090E00E949D0659EFE52EF12CE00E03
:10523000F11EE801C950DF4F88819981B7010E94B2
:10524000C114D80111962C911197BFEF81389B079B
:10525000E1F42223B9F000D000D0EDB7FEB73196CB
:1052600083E696E0ADB7BEB712969C938E931197E6
:10527000D8018C91828313820E94D91D0F900F90C8
:105280000F900F90F801118290C0222321F560ED5C
:1052900077E080E090E00E949D06C801C6DE00D065
:1052A00000D0EDB7FEB731968DE896E0ADB7BEB74A
:1052B00012969C938E931197D8018C9182831382BE
:1052C0000E94D91D0F900F900F900F9088819981A7
:1052D000B7010E94C114BCEF80309B076CF0E4E082
:1052E00080309E0714F08FEF93E0EC0145E0CC0F87
:1052F000DD1F4A95E1F702C0C0E0D0E8C8010B9677
:10530000BE010E94FE0839E5E32EF12CE00EF11EED
:10531000C701BE010E94FE08D80116968C9116970F
:10532000815016968C9316978D3051F4C7010E94C8
:105330001109DC01CB01F80187839087A187B2872F
:10534000D80116968C9116978823F9F4C7010E940C
:105350001109AB01BC01F80187819085A185B28557
:10536000481B590B6A0B7B0BC80189559F4F0E9444
:10537000D408C7010E941109DC01CB01F801878321
:105380009087A187B2878CE08683F801E950FF4FB0
:10539000808191810E9489140E946106DC01CB0109
:1053A000F80182839383A483B583DF91CF911F910A
:1053B0000F91FF90EF900895FC01E55BFF4F408156
:1053C000518162817381AB01772757FD7095672FFB
:1053D000CA01089589559F4F0E9411092CE231E0BE
:1053E00040E050E009D0AB01BC01AB01772757FD8D
:1053F0007095672FCA010895629FD001739FF001D5
:10540000829FE00DF11D649FE00DF11D929FF00D54
:10541000839FF00D749FF00D659FF00D9927729F8B
:10542000B00DE11DF91F639FB00DE11DF91FBD0116
:10543000CF011124089597FB092E07260AD077FD86
:1054400004D049D006D000201AF4709561957F4FA2
:105450000895F6F7909581959F4F0895A1E21A2E31
:10546000AA1BBB1BFD010DC0AA1FBB1FEE1FFF1F08
:10547000A217B307E407F50720F0A21BB30BE40B58
:10548000F50B661F771F881F991F1A9469F760959F
:105490007095809590959B01AC01BD01CF01089559
:1054A00097FB092E05260ED057FD04D0D7DF0AD072
:1054B000001C38F450954095309521953F4F4F4F43
:1054C0005F4F0895F6F790958095709561957F4FA1
:1054D0008F4F9F4F0895AA1BBB1B51E107C0AA1F06
:1054E000BB1FA617B70710F0A61BB70B881F991F85
:1054F0005A95A9F780959095BC01CD010895EE0FBE
:10550000FF1F0590F491E02D0994CF93DF93AC0138
:105510008230910510F442E050E0E091D806F0911D
:10552000D90620E030E0A0E0B0E024C08081918185
:1055300084179507D0F08417950771F482819381C1
:10554000109729F013969C938E9312972CC09093EA
:10555000D9068093D80627C02115310519F0821786
:10556000930718F49C01BD01EF0192818381DF0153
:10557000E92FF82F3097D1F621153105F9F0C9013F
:10558000841B950B8430910580F48A819B81611581
:10559000710521F0FB019383828304C09093D906A7
:1055A0008093D806FE01329642C0FE01E80FF91F33
:1055B0004193519302979983888339C08091D6068D
:1055C0009091D706009741F48091100390911103B8
:1055D0009093D7068093D60620910E0330910F0347
:1055E0002115310541F42DB73EB7809112039091FA
:1055F0001303281B390BE091D606F091D706E2176A
:10560000F30798F42E1B3F0B2417350770F0CA01DF
:1056100002962817390748F08E0F9F1F9093D706E0
:105620008093D6064193519302C0E0E0F0E0CF01B1
:10563000DF91CF9108950F931F93CF93DF939C0138
:10564000009709F48CC0DC01129713961C921E92ED
:1056500012976091D8067091D9066115710589F489
:105660008D919C911197820F931F2091D6063091B6
:10567000D7062817390769F5B093D706A093D60641
:105680006EC0FB0140E050E001C0FC01EA17FB07DF
:1056900030F482819381AF010097B9F71FC0E9010F
:1056A0002297FB83EA8308811981C901800F911F2A
:1056B0008E179F0759F480819181800F911F029668
:1056C00099838883828193819B838A8341155105C5
:1056D00029F4B093D906A093D80641C0FA01B38348
:1056E000A283C191D191EC0FFD1FAE17BF0781F4CA
:1056F000F901929182918C0F9D1F0296DA01119609
:105700009C938E938281938113969C938E93129790
:10571000E0E0F0E002C0FB01BC01DB0112968D91DC
:105720009C9113970097B9F7CB0102962D913C916C
:105730001197820F931F2091D6063091D706281714
:10574000390769F4309729F41092D9061092D806D7
:1057500002C0138212827093D7066093D606DF913F
:10576000CF911F910F910895A4E0B0E0E9EBFBE227
:1057700067C42B017A016115710529F0DB018C9357
:1057800011969C931197E114F10439F0970122507E
:1057900030402332310508F0F8C06C0186010894CE
:1057A000C11CD11CF80130803601832D90E0F5D06A
:1057B0000097A1F7FDE23F1661F4D80111963C90E5
:1057C000119792E0692E712C600E711ECC24C39447
:1057D0000BC0BBE23B1639F4F801318082E0682E41
:1057E000712C600E711ECC24E114F10421F0F0E163
:1057F000EF16F104F9F480E3381691F4D3018C919B
:10580000883711F0883561F4F301318082E090E04F
:10581000680E791E92E0C92AB0E1EB2EF12C0AC085
:10582000E114F10439F4A0E33A16D1F0AAE0EA2E2B
:10583000F12C2FC0BAE0EB16F10459F1E0E1EE16BD
:10584000F10429F0F8E0EF16F104B1F409C0FFEF1C
:105850008F2EFFEF9F2EFFEFAF2EFFE0BF2E21C058
:1058600078E0E72EF12CEFEF8E2EEFEF9E2EEFEF8C
:10587000AE2EEFE1BE2E15C09701442737FD4095AF
:10588000542F6FEF7FEF8FEF9FEFE8DD49015A0153
:1058900008C069E9862E69E9962E69E9A62E69E1B4
:1058A000B62E40E000E010E09801C701AA2797FD5E
:1058B000A095BA2F89839A83AB83BC8350EDD52EF4
:1058C000D30C99E09D1570F4832D81548A3118F41E
:1058D00099ECD92E06C0832D81568A3160F589EA6C
:1058E000D82ED30C8D2D90E08E159F0524F54F3FBB
:1058F000F1F080169106A206B306B0F0C901B80116
:1059000029813A814B815C8177DD8B019C018D2D52
:1059100090E0A0E0B0E0080F191F2A1F3B1F0817F6
:1059200019072A073B0710F44FEF01C041E0D301EC
:105930003D903D01C3CF4114510489F0442339F017
:10594000089461087108F2017182608208C0C1FE8A
:1059500006C0C3010297D20111969C938E93C0FE9C
:1059600007C030952095109501951F4F2F4F3F4F41
:1059700047FF0EC082E290E09093DB068093DA0648
:105980000FEF1FEF2FEF3FEF03C000E010E0980193
:10599000B801C9012496E1E16FC39111ADC2803213
:1059A00019F089508550D0F70895FB01DC0105906E
:1059B0000D920020E1F70895DC01FB0141505040B9
:1059C00058F049F005900D920020C1F7E61BF70B47
:1059D0003197CF0108951C9205900020E9F7F6CF8A
:1059E000DC0101C06D9341505040E0F70895FC0187
:1059F000019006160110E1F73197CF010895FB01E0
:105A0000DC018D91019080190110D9F3990B089553
:105A1000FC0101900020E9F7809590958E0F9F1F63
:105A20000895AEE0B0E0E6E1FDE217C30D891E89FE
:105A30008F89988D2EE02C831A83098397FF02C0EB
:105A400080E090E801979E838D83AE01455E5F4FB5
:105A5000CE010196698D7A8D39D04D815E8157FDD9
:105A60000AC02F813885421753070CF49A01020FA0
:105A7000131FF80110822E96E4E00BC3AEE0B0E0F5
:105A8000E3E4FDE2EAC28C018EE08C831A83098391
:105A900077FF02C060E070E8615070407E836D83E4
:105AA000CE010196BA01A90111D04D815E8157FD49
:105AB0000AC02F813885421753070CF49A01020F50
:105AC000131FF80110822E96E4E0E3C2ADE0B0E0CF
:105AD000EBE6FDE2B4C23C017D876C875A01FC0114
