:100000001DC4000042C4000040C400000C94970AC4
:100010003CC400000C94F30938C4000036C400004E
:1000200034C4000032C4000030C400002EC40000FC
:100030002CC400002AC4000028C4000026C400000C
:10004000BCC6000022C4000034C5000073C5000017
:100050001CC400001AC4000018C4000016C400002C
:1000600014C4000012C400000000000700020100D8
:100070000003040600000000000000000102040864
:100080001020408001020408102001020408102002
:10009000040404040404040402020202020203032E
:1000A00003030303000000002300260029000000D2
:1000B0000000250028002B0000000000240027007D
:1000C0002A0041726475696E6F2072657374617283
:1000D000746564210046726964676520646F6F729D
:1000E000206F70656E6564004672696467652064A0
:1000F0006F6F7220636C6F73656400506F73697407
:10010000697665207065616B2064657465637465EC
:10011000642E004472696674696E67207570206190
:10012000667465722068656174696E6720746F6FAC
:100130002073686F72742E005065616B3A202573CE
:1001400020457374696D617465643A2025732E20AF
:100150004E657720657374696D61746F723A2025FE
:1001600073004E65676174697665207065616B2008
:1001700064657465637465642E00447269667469AD
:100180006E6720646F776E20616674657220636F9E
:100190006F6C696E6720746F6F2073686F72742E56
:1001A000005065616B3A2025732E20457374696D8C
:1001B000617465643A2025732E204E65772065733F
:1001C00074696D61746F723A20257300202D2D2E95
:1001D0002D004D6F6465202020004265657220204F
:1001E000200046726964676520004672696467652D
:1001F00020436F6E73742E004265657220436F6EEC
:100200007374616E7400426565722050726F666926
:100210006C6520004F6666202020202020202020B2
:100220002000496E76616C6964206D6F6465200002
:1002300049646C6520666F722020202020202020D9
:1002400020202020005374617274696E67207570DD
:100250002E2E2E20202020202000436F6F6C696EF0
:100260006720666F72202020202020202020004858
:10027000656174696E6720666F72202020202020DF
:1002800020202000446F6F72206F70656E20202048
:1002900020202020202020200054656D702E206317
:1002A0006F6E74726F6C204F464620202000556E92
:1002B0006B6E6F776E2073746174757321202020CC
:1002C000202000207300202020202020004368618F
:1002D0006E67656420746F2070726F66696C65204C
:1002E0006D6F646520696E206D656E752E005465B6
:1002F0006D7020636F6E74726F6C207475726E65B2
:1003000064206F666620696E206D656E752E002014
:100310002020202020202020202020200042656551
:10032000722074656D702073657420746F2025735E
:1003300020696E204D656E752E0020202020200043
:100340004672696467652074656D702073657420FA
:10035000746F20257320696E204D656E752E002008
:100360002020202000005EBCE2613FDD83C29C7E35
:1003700020A3FD1F419DC3217FFCA2401E5F01E31E
:10038000BD3E6082DC237D9FC1421CFEA0E1BF5DBB
:100390000380DE3C62BEE0025CDF81633D7C22C004
:1003A0009E1D43A1FF4618FAA427799BC584DA381D
:1003B00066E5BB5907DB856739BAE406581947A5D6
:1003C000FB7826C49A653BD987045AB8E6A7F91B7F
:1003D00045C6987A24F8A6441A99C7257B3A6486BC
:1003E000D85B05E7B98CD2306EEDB3510F4E10F2E9
:1003F000AC2F7193CD114FADF3702ECC92D38D6F86
:1004000031B2EC0E50AFF1134DCE90722C6D33D152
:100410008F0C52B0EE326C8ED0530DEFB1F0AE4C6B
:100420001291CF2D73CA947628ABF517490856B4AC
:10043000EA6937D58B5709EBB536688AD495CB294D
:1004400077F4AA4816E9B7550B88D6346A2B759706
:10045000C94A14F6A8742AC896154BA9F7B6E80A33
:1004600054D7896B3544656661756C7420636F6E13
:100470007374616E7473206C6F616465642E0044E4
:10048000656661756C742073657474696E6773203A
:100490006C6F616465642E004E3A25530A00302E5D
:1004A000312E30002225732200496E76616C69641A
:1004B00020636F6D6D616E6420726563656976653A
:1004C000642062792041726475696E6F3A202563F9
:1004D00000543A7B224265657254656D70223A255C
:1004E000732C002242656572536574223A25732C81
:1004F000002242656572416E6E223A006E756C6C28
:100500002C00222573222C002246726964676554F0
:10051000656D70223A25732C002246726964676506
:10052000536574223A25732C00224672696467650C
:10053000416E6E223A006E756C6C2C00222573227F
:100540002C00225374617465223A25757D0A007D62
:100550000A006D6F646500626565725365740066BC
:100560007269646765536574006865617445737486
:1005700000636F6F6C4573740074656D70466F72C5
:100580006D61740074656D705365744D696E0074AF
:10059000656D705365744D6178004B70004B690058
:1005A0004B6400694D61784572720069646C6552F4
:1005B000616E6765480069646C6552616E67654C81
:1005C00000686561745461726765744800686561AC
:1005D000745461726765744C00636F6F6C54617220
:1005E0006765744800636F6F6C5461726765744C23
:1005F000006D61784865617454696D65466F724538
:100600007374006D6178436F6F6C54696D65466FEC
:1006100072457374006672696467654661737446F7
:10062000696C7400667269646765536C6F774669BC
:100630006C7400667269646765536C6F70654669B7
:100640006C7400626565724661737446696C74000F
:1006500062656572536C6F7746696C74006265659C
:1006600072536C6F706546696C74006265657244A4
:100670006966660064696666496E74656772616C76
:100680000062656572536C6F70650070006900648C
:10069000006573745065616B006E65675065616BD2
:1006A00045737400706F735065616B457374006EB1
:1006B00065675065616B00706F735065616B0022F8
:1006C000257522005265636569766564206E6577DD
:1006D0002073657474696E673A202573203D202568
:1006E00073004D6F64652073657420746F202563FB
:1006F00020696E2077656220696E74657266616339
:100700006500426565722074656D702073657420A4
:10071000746F2025732062792074656D7065726135
:10072000747572652070726F66696C652E00426523
:1007300065722074656D702073657420746F202558
:100740007320696E2077656220696E7465726661D8
:1007500063652E004672696467652074656D70205C
:1007600073657420746F20257320696E207765622D
:1007700020696E746572666163652E00436F756CE7
:1007800064206E6F742070726F636573732073657D
:100790007474696E67006E756C6C0025642E25306C
:1007A00031640025642E253032640025642E253006
:1007B000336400556E61626C6520746F2066696EEB
:1007C00064206164647265737320666F7220736560
:1007D0006E736F72206F6E2070696E2025640054F6
:1007E000656D70657261747572652073656E736F87
:1007F00072206F6E2070696E2025642064697363B7
:100800006F6E6E65637465640054656D70657261CA
:10081000747572652073656E736F72206F6E2070D1
:10082000696E202564207265636F6E6E6563746502
:10083000640061081F14C4172214C71711241FBEB7
:10084000CFEFD8E0DEBFCDBF11E0A0E0B1E0E6EB36
:10085000F0E602C005900D92AA33B107D9F714E073
:10086000AAE3B1E001C01D92A43DB107E1F718E091
:10087000C8E3D8E004C02297FE010E947A2AC2335E
:10088000D107C9F7E2D40C944F30E8C4FC012485A9
:100890003585F901E05CFF4F808191812E5B3F4FF0
:1008A000F90120813181821B930B8F739070089521
:1008B000FC0144855585FA01E05CFF4F8081918100
:1008C000FA01EE5BFF4F208131818217930741F0DF
:1008D0000190F081E02DE40FF51F808190E00895F4
:1008E0008FEF9FEF0895FC0144855585FA01E05C88
:1008F000FF4F20813181FA01EE5BFF4F80819181B2
:100900002817390779F0A081B181A40FB51F8C9108
:10091000208131812F5F3F4F2F73307031832083CF
:1009200090E008958FEF9FEF0895FC0181A1882347
:1009300029F0A489B5898C9186FFFBCF11A2089577
:10094000CF93DF93DC011E964D915C911F97EA01D6
:10095000C05CDF4F288139812F5F3F4F2F7330708C
:10096000FA01EE5BFF4F8081918128173907D9F397
:10097000E881F981E40FF51F60831E96ED91FC91EB
:100980001F97E05CFF4F318320835696ED91FC91D9
:100990005797208181E090E05F960C905F9702C0AE
:1009A000880F991F0A94E2F7282B208381E0919603
:1009B0008C9391975496ED91FC915597808180642A
:1009C000808381E090E0DF91CF910895CF92DF9214
:1009D000EF92FF920F931F93CF93DF936C017B01F4
:1009E000EA0100E010E00EC0D7016D917D01D60153
:1009F000ED91FC910190F081E02DC6010995080F61
:100A0000191F2197209781F7C801DF91CF911F917E
:100A10000F91FF90EF90DF90CF900895833071F0A9
:100A2000843028F48130A1F0823021F514C0863062
:100A3000B1F08730D1F08430E9F404C080918000B7
:100A40008F7703C0809180008F7D80938000089510
:100A500084B58F7702C084B58F7D84BD0895809161
:100A6000B0008F778093B00008958091B0008F7DA3
:100A70008093B00008950F931F93CF93DF938C0161
:100A8000EB01209771F0CB010E94012DAC01D80140
:100A9000ED91FC910280F381E02DC801BE01099522
:100AA00002C080E090E0DF91CF911F910F910895F7
:100AB00008951F920F920FB60F9211242F933F9318
:100AC0004F938F939F93EF93FF938091C00082FD8C
:100AD0001CC04091C6008091E8019091E901019607
:100AE0008F7390702091EA013091EB018217930788
:100AF00071F0E091E801F091E901E855FE4F408383
:100B00009093E9018093E80102C08091C600FF91B3
:100B1000EF919F918F914F913F912F910F900FBE29
:100B20000F901F90189582E491E0B0DE009709F0D5
:100B3000BFCF08951F920F920FB60F9211242F93DB
:100B40003F938F939F93EF93FF932091A401309154
:100B5000A5018091A6019091A7012817390731F4CA
:100B60008091C1008F7D8093C10014C0E091A601E7
:100B7000F091A701EC59FE4F20818091A601909140
:100B8000A70101968F7390709093A7018093A6019F
:100B90002093C600FF91EF919F918F913F912F91EC
:100BA0000F900FBE0F901F901895BF92CF92DF92BB
:100BB000EF92FF920F931F93CF93DF93EC016A01A3
:100BC0007B01BB24B394403081EE580780E0680776
:100BD00080E0780749F4BB24EC89FD89108260E845
:100BE00074E88EE190E00FC0EC89FD8981E090E02F
:100BF00008A002C0880F991F0A94E2F7808360E082
:100C000079E08DE390E0A70196010E943B2A8901DB
:100C10009A01015010402040304036952795179595
:100C2000079580E10030180710F0BB20A1F6E88995
:100C3000F9891083EA89FB89008319A2EE89FF896B
:100C4000408121E030E0C9010C8C02C0880F991F5F
:100C50000A94E2F7482B4083EE89FF894081C9015D
:100C60000D8C02C0880F991F0A94E2F7482B40832D
:100C7000EE89FF894081C9010E8C02C0880F991F3F
:100C80000A94E2F7482B4083EE89FF8980810F8C1C
:100C900002C0220F331F0A94E2F7209528232083F5
:100CA000DF91CF911F910F91FF90EF90DF90CF9048
:100CB000BF900895E0CE0895DC01ED91FC91019084
:100CC000F081E02D099508954F925F926F927F9287
:100CD000AF92BF92CF92DF92EF92FF920F931F934A
:100CE000CF93DF93CDB7DEB7A1970FB6F894DEBFF1
:100CF0000FBECDBF5C01E42ECB01F22E19A221E084
:100D00002F1510F03AE0F32E21E2C22ED12CCC0E9A
:100D1000DD1E4F2C55246624772403C0E02E512F6E
:100D2000C9016E2D752FA30192010E943B2A8901F2
:100D30009A01F09E802D1124E81A8E2D0894C10886
:100D4000D1088A3010F4805D01C0895CF60180838F
:100D5000011511052105310509F7C501B6018BDE25
:100D6000A1960FB6F894DEBF0FBECDBFDF91CF9135
:100D70001F910F91FF90EF90DF90CF90BF90AF90B9
:100D80007F906F905F904F9008952115310549F441
:100D9000DC01ED91FC910190F081E02D642F09952B
:100DA000089592CF9A01AB0160E070E0EECF0C9411
:100DB0007E2A08950C94142B08951F920F920FB65B
:100DC0000F9211242F933F938F939F93AF93BF93D1
:100DD00080913A0190913B01A0913C01B0913D017D
:100DE0003091EC01232F2D5F2D3720F40196A11DAA
:100DF000B11D05C0232F2A570296A11DB11D2093B6
:100E0000EC0180933A0190933B01A0933C01B09395
:100E10003D0180913E0190913F01A0914001B09130
:100E200041010196A11DB11D80933E0190933F01A8
:100E3000A0934001B0934101BF91AF919F918F91D9
:100E40003F912F910F900FBE0F901F9018950F9309
:100E50001F938FB7F89400913A0110913B012091B4
:100E60003C0130913D018FBFB801C9011F910F9125
:100E700008950F931F939FB7F89400913E0110912E
:100E80003F01209140013091410186B5A89B06C0E9
:100E90008F3F21F00F5F1F4F2F4F3F4F9FBF322FCC
:100EA000212F102F0027080F111D211D311D52E089
:100EB000000F111F221F331F5A95D1F7B801C90126
:100EC0001F910F910895CF92DF92EF92FF92CF93EF
:100ED000DF936B017C01CDDFDC01CB01EC010EC0A7
:100EE000C8DF6C1B7D0B83E0683E780738F0089400
:100EF000C108D108E108F108C851DC4FC114D10480
:100F0000E104F10469F7DF91CF91FF90EF90DF905A
:100F1000CF900895019739F0880F991F880F991F76
:100F200002970197F1F70895789484B5826084BDA3
:100F300084B5816084BD85B5826085BD85B58160DD
:100F400085BDEEE6F0E0808181608083E1E8F0E03D
:100F50001082808182608083808181608083E0E86C
:100F6000F0E0808181608083E1EBF0E0808184604B
:100F70008083E0EBF0E0808181608083EAE7F0E04D
:100F800080818460808380818260808380818160B1
:100F900080838081806880831092C100089590E0F2
:100FA000FC01E458FF4F249180579F4FFC0184912E
:100FB000882341F190E0880F991FFC01E854FF4F0E
:100FC00045915491DA0182559F4FFC01859194918E
:100FD000FC019FB7F8948C91662331F4209582230D
:100FE0008C938081822308C0623049F4322F30957F
:100FF00083238C938081822B80839FBF0895822BD3
:101000008C939FBF08950F931F93CF93DF930F92FD
:10101000CDB7DEB7282F30E0F901E859FF4F8491B2
:10102000F901E458FF4F1491F901E057FF4F049183
:101030000023C9F0882319F06983F0DC6981E02F6F
:10104000F0E0EE0FFF1FE255FF4F85919491DC0118
:101050009FB7F8948C91662319F41095812301C0F1
:10106000812B8C939FBF0F90DF91CF911F910F9198
:101070000895CF93DF93282F30E0F901E859FF4F0F
:101080008491F901E458FF4FC491F901E057FF4FF3
:10109000D491DD2389F0882309F0C0DCED2FF0E046
:1010A000EE0FFF1FEC55FF4F85919491FC012081BD
:1010B0002C2381E090E011F480E090E0DF91CF916B
:1010C0000895109245011092440188EE93E0A0E04B
:1010D000B0E08093460190934701A0934801B093FC
:1010E0004901E4E4F1E08AE191E09293829388EA95
:1010F00091E09587848784E691E09787868785ECE1
:1011000090E0918B808B84EC90E0938B828B80ECD1
:1011100090E0958B848B81EC90E0978B868B82ECB2
:1011200090E0918F808F86EC90E0938F828F84E0A7
:10113000848F83E0858F87E0868F85E0878F81E0CD
:1011400080A30895CF93DF930E945E1D86E061E047
:101150005ADF85E061E057DF86E061E020DF85E06F
:1011600061E01DDF84E060E01ADF0E94B313A6D4C3
:101170009CD603D560ED77E080E090E0A4DEC9E680
:10118000D4E0CE010E940716CE010E94E316CE01E4
:101190000E944D1782EF91E009D200D082EC90E0DE
:1011A000EDB7FEB7928381830E94B41E0F900F901B
:1011B000C1EFD1E0CE0158D0CE0162E044EF51E062
:1011C00063D0DF91CF91089542DEDC01CB014091E5
:1011D000ED015091EE016091EF017091F001841BDF
:1011E000950BA60BB70B893E23E0920720E0A207E0
:1011F00020E0B20740F12BDEDC01CB018093ED0152
:101200009093EE01A093EF01B093F00138D40E94C7
:1012100034114BD6B2D45FD48091FA01882321F0E7
:101220001092FA010E94FE1A89E694E00E944D177E
:1012300089E694E00E94C61689E694E00E941B1796
:1012400089E694E02FD20C948F246EDE7BDFC3E915
:10125000D5E0BADF2097E9F366DCFBCF1F920F924F
:101260000FB60F921124FFCF83E061E098DE81E298
:101270008093B0008BE08093B1008DE78093B30042
:101280008EE38093B4000895BF92CF92DF92EF92E5
:10129000FF920F931F93CF93DF93B62E00E010E0E1
:1012A0006A01EE24FF24C62FD0E0219715C080915B
:1012B000B00080628093B000C701B60104DE809167
:1012C000B0008F7D8093B0000C171D071CF4C70180
:1012D000B601F9DD0F5F1F4F0B1548F3DF91CF917A
:1012E0001F910F91FF90EF90DF90CF90BF900895E6
:1012F000FC0198E0908F82E0818F92AB83ABDF019D
:10130000A45BBF4F9C93E35BFF4F80830895FC0178
:10131000862F880F8C5F808F618F82AB63ABDF017C
:10132000A45BBF4F8C93E35BFF4F60830895EF9204
:10133000FF920F931F93CF93DF938C01F62FE72F2C
:10134000C0E0D0E02AE1E22EF12CCE9D9001CF9DAD
:10135000300DDE9D300D1124C801820F931F6F2FB9
:101360007E2F0E94CA17AB01F82FE92F2196C330B8
:10137000D10559F7DF91CF911F910F91FF90EF9019
:1013800008959B01A901662757FD6095762FBA0144
:1013900055274427CCDFAB01BC01AB01772757FDB4
:1013A0007095672FCA010895FC01E05CFF4F6081D2
:1013B00071818281938108950F931F93CF93DF935F
:1013C000EC018B010E947A18CE014A96B8010E9466
:1013D0007A18CE01C496B8010E947A18DF91CF9195
:1013E0001F910F9108951F920F920FB60F92112423
:1013F0002F933F934F935F936F937F938F939F931D
:10140000AF93BF93EF93FF934F9906C081E0809312
:10141000FA0189E694E0D2D1FF91EF91BF91AF91AB
:101420009F918F917F916F915F914F913F912F91FC
:101430000F900FBE0F901F9018951F93CF93DF93BF
:10144000EC01162F16DDDC01CB014D855E856F8525
:101450007889841B950BA60BB70B843F21E092077C
:1014600020E0A20720E0B207A0F189858B871987C9
:101470009B858985981769F1FCDCDC01CB018D87A0
:101480009E87AF87B88B99858A85981721F48E81BE
:101490009F81019603C08E819F8101979F838E83D8
:1014A000688179812E813F81CB0101964A815B81E0
:1014B0008217930714F45F834E838E819F8141507E
:1014C00050408417950714F47F836E8389E694E077
:1014D00075D1DF91CF911F9108951F93CF93DF9323
:1014E000EC01162FC6DCDC01CB0149895A896B89D6
:1014F0007C89841B950BA60BB70B843F21E09207D8
:1015000020E0A20720E0B20770F08A858C871A8756
:101510009C858A85981739F0ACDCDC01CB01898B7E
:101520009A8BAB8BBC8BDF91CF911F9108951F924B
:101530000F920FB60F9211242F933F934F935F9307
:101540006F937F938F939F93AF93BF93CF93DF93CB
:10155000EF93FF93C3B1C170D1E0199BD0E08091AC
:101560000702C81721F082EF91E06C2F66DF8091AF
:101570000802D81721F082EF91E06D2FAEDFC09303
:101580000702D0930802FF91EF91DF91CF91BF91B5
:10159000AF919F918F917F916F915F914F913F910B
:1015A0002F910F900FBE0F901F901895CF93DF9340
:1015B000EC018FEF9FE79983888380E090E89B831D
:1015C0008A831D821C821F821E82188681E0898781
:1015D0008A878B878C871D861E861F86188A198AA4
:1015E0001A8A1B8A1C8A88E060E0D9DC89E060E006
:1015F000D6DC87E060E0D3DCCE0161E01EDFCE0107
:1016000061E06BDFE8E6F0E0808185608083EBE6F7
:10161000F0E0808183608083EDE6F0E08081806887
:101620008083DF91CF910895FC018FB7F894660F06
:10163000771F77836683440F551F53834283220F9E
:10164000331F31832083758364838FBF0895FC012A
:101650002FB7F8948681978186819781817019F0E0
:101660008481958106C0868197819595879595831C
:1016700084832FBF0895CF93DF93EC01E8DF20919F
:10168000090230910A028217930741F0CE01DFDF91
:1016900090930A028093090281E001C08885DF915E
:1016A000CF910895CF93DF93EC01D1DB28EE33E0A7
:1016B00040E050E00E943B2A8D859E85885A9D4FD0
:1016C0008217930718F48D81846002C08D818B7F0F
:1016D0008D83DF91CF910895DA0120E030E075E14C
:1016E000679FB0011124680F791F90EBFB01E20F97
:1016F000F31F87858F3D11F49C9301C08C932F5F5E
:101700003F4F11962431310589F7FA01148A089563
:101710008BE061E044DC8DE061E041DC8AE061E087
:101720003EDC8CB58F7D8CBD8CB582608CBD8DB55B
:1017300081608DBD8CB588608CBD8CB584608CBD9E
:101740008CB580618CBD8CB580648CBD0895CF93C1
:10175000DF93EC01862F6C8361E021DC88E28E83CD
:10176000CE01D6DFDE0124E030E20FC0FD01E80F3C
:10177000F91F3787019684319105C1F793961C9222
:10178000939721505596222319F080E090E0EECFF8
:101790001E861D86DF91CF910895CF93DF93EC01D4
:1017A0008C8160E030DC8D818EBD0DB407FEFDCFF5
:1017B0008C8161E028DCDF91CF910895CF93DF9396
:1017C000EC0145DB28EE33E040E050E00E943B2A8C
:1017D0003E872D87CE0166DFCE01DFDFDF91CF911F
:1017E0000895CF93DF93EC018D8182608D83CE01CC
:1017F000D4DF81E090E08EDB8D818D7F8D83CE0103
:10180000CCDFDF91CF910895CF93DF93EC018D81F1
:101810006295607F8F70682B6D83CE01BEDFCE0135
:10182000E0DFDF91CF9108950F931F93CF93DF9364
:10183000EC01162F0FB7F8948D81442311F08160CD
:1018400001C08E7F8D83CE01A8DF212F30E044E0E0
:10185000359527954A95E1F7CE01622FD5DFCE0168
:10186000612FD2DF0FBFDF91CF911F910F910895AC
:101870001F93CF93DF93EC01162F41E0D5DF4B850B
:101880008A8590E025E130E0829FF001839FF00D92
:10189000929FF00D1124EC0FFD1FE40FF11D17872F
:1018A0004F5F4B8780EA9FE00197F1F781E090E07E
:1018B000DF91CF911F91089540E0B6DF80EA9FE06D
:1018C0000197F1F70895FC0160856E7F6087646081
:1018D000F3CFFC016085262F226020876660ECCF65
:1018E000FC016781262F246027836C60E5CFCF93AE
:1018F000DF9300D000D0CDB7DEB7198220E42A8371
:1019000024E12B8324E52C83FC012485421708F075
:1019100040E0FC0142876387FE01E40FF11D218155
:10192000260F2068622FC8DF0F900F900F900F9046
:10193000DF91CF910895CF93DF93EC0162E0BCDF9C
:101940001A861B86DF91CF91089561E0B5CFCF93C2
:10195000DF93EC014C871A861B8680E593ECDADA7C
:10196000CE0163E051DF80E593ECD4DACE0163E091
:101970004BDF88EE93E0CEDACE0163E045DF80E511
:1019800093ECC8DACE0162E03FDF80E593ECC2DA87
:10199000CE0168E291DFCE01D8DFCE019ADFCE0121
:1019A00092DFCE01C8DFCE019BDFDF91CF9108959A
:1019B000EF92FF920F931F93CF93DF93EC01688315
:1019C0000B9696DCCE01875A9F4F92DCCE0189554B
:1019D0009F4F8EDC1A821B821C821D8219828FEF20
:1019E0008E838EE090E0E3D98C0168810E94AB1C6D
:1019F00025EFE22EF12CEC0EFD1EF7011183008382
:101A000087E090E00E94B6158C01F701608171813A
:101A10001CD7C950DF4F19830883DF91CF911F91E5
:101A20000F91FF90EF900895CF93DF93EC01FC01AD
:101A3000EB50FF4F80819181BDD9C950DF4F888124
:101A400099810E94C915DF91CF9108958130910548
:101A500041F487E693E063E1ABDF86E692E062E182
:101A6000A7CF009731F486E692E0DEDF87E693E0C9
:101A7000DBCF089510921A0210921902089587E69A
:101A800093E00E94022980916803882351F4809199
:101A90003A02823611F0863621F487E693E00E94FE
:101AA000352886E692E00E94022980916702882309
:101AB00021F486E692E00C943528089581E0809325
:101AC0001B0287E693E00E94352886E692E00E949A
:101AD0003528D5DFCFCF80911B02833049F0843089
:101AE00068F0843029F0853049F486E060E008C071
:101AF00086E061E088DA85E060E005C086E061E0CC
:101B000082DA85E061E07FCAA2D928EE33E040E0C6
:101B100050E00E943B2AC90140910B0250910C02F7
:101B200060910D0270910E02841B950B08958FD960
:101B300028EE33E040E050E00E943B2AC90140918A
:101B40000F02509110026091110270911202841BD9
:101B5000950B08957CD928EE33E040E050E00E94D8
:101B60003B2AC90140911302509114026091150261
:101B700070911602841B950B0895CF93DF9384E038
:101B800078DA009789F480911B02833059F000D0F5
:101B900085ED90E0EDB7FEB7928381830E94B41E7D
:101BA0000F900F9083E005C020913A022F3621F468
:101BB00082E080931B0276C180913D0290913E02AB
:101BC000F0E880309F0709F44AC1809167028823BA
:101BD00009F445C180916803882309F056C1223673
:101BE00009F43DC1203709F050C139C130D928EE80
:101BF00033E040E050E00E943B2AC901A0E0B0E0A1
:101C00008093130290931402A0931502B0931602CE
:101C100080911902882309F045C180911A02882316
:101C200009F040C186E692E00E94FC2920913D0225
:101C300030913E024091500250915102240F351FC5
:101C40002817390764F580913A02863659F45CDF2B
:101C500023E085389207E0F06ADF32E089359307A8
:101C6000E0F416C087E693E00E94FC2920913B0235
:101C700030913C02821793070CF414C145DFE1E078
:101C80008D329E0728F053DFF2E089359F0728F454
:101C900080911B02813009F005C185E08ACF86E67C
:101CA00092E00E94FC2920913D0230913E02409139
:101CB000520250915302240F351F821793070CF0E4
:101CC000F1C087E693E00E94FC2920913B0230910D
:101CD0003C02281739070CF4E5C016DF22E08935ED
:101CE000920728F024DF31E08D32930728F48091A9
:101CF0001B02813009F0D6C084E05BCF81E0809385
:101D00001902A5D828EE33E040E050E00E943B2ABB
:101D1000C901A0E0B0E080930B0290930C02A09365
:101D20000D02B0930E02C0915E02D0915F0212DFED
:101D3000C817D90728F420915E0230915F0202C0D3
:101D400009DF9C016091410270914202882777FD72
:101D50008095982F442737FD4095542F0E941C2AC8
:101D600020E13EE040E050E00E945D2AE90186E685
:101D700092E00E94FC298C1B9D0B90933102809372
:101D8000300220913D0230913E02281739070CF4B1
:101D900089C0E0DEE1E08D329E0708F483C08091C7
:101DA000300290913102909333028093320257C0F7
:101DB00081E080931A024BD828EE33E040E050E0F7
:101DC0000E943B2AC901A0E0B0E080930F029093EB
:101DD0001002A0931102B0931202C0915C02D09144
:101DE0005D02B8DEC817D90728F420915C02309153
:101DF0005D0202C0AFDE9C0160913F027091400223
:101E0000882777FD8095982F442737FD4095542FDC
:101E10000E941C2A20E13EE040E050E00E945D2A42
:101E2000E90186E692E00E94FC29C80FD91FD093F1
:101E30003102C093300280913D0290913E02C8175A
:101E4000D90784F187DEF1E08D329F0758F1809148
:101E500030029091310290933502809334021092B7
:101E60001B0220C084E005D981309105D9F400D04F
:101E700088EE90E0EDB7FEB7928381830E94B41E96
:101E800010921B020F900F900DC080911B028330A7
:101E900049F3833008F4AACE843009F489CF853021
:101EA00009F42CCFDF91CF9108958F929F92AF923A
:101EB000BF92CF92DF92EF92FF92CF93DF93809108
:101EC0003A02823619F0803709F03BC120913B027B
:101ED00030913C0280E82030380709F42DC1809110
:101EE000000490910104A0910204B09103042A1B04
:101EF0003B0B30931D0220931C0287E693E00E9467
:101F00000A2A909323028093220280916804982FDA
:101F10009F5F909368048C3309F073C0109268043B
:101F200080911C0290911D0297FF03C090958195AE
:101F30009F4F20914E0230914F02821793070CF071
:101F400043C008DE27E08930920708F05AC080912C
:101F50001C0290911D0297FF0EC0C0913D02D091CE
:101F60003E02C050DC4F86E692E00E94FC29C81772
:101F7000D9070CF446C080911C0290911D021816DE
:101F800019066CF4C0913D02D0913E02C050D4407D
:101F900086E692E00E94FC298C179D0794F14091FF
:101FA0001C0250911D02662757FD6095762F809187
:101FB0001E0290911F02A0912002B0912102840F75
:101FC000951FA61FB71F15C080911E0290911F027A
:101FD000A0912002B0912102AC01BD01C3E0759532
:101FE000679557954795CA95D1F7841B950BA60B16
:101FF000B70B80931E0290931F02A0932002B09310
:1020000021026091480270914902882777FD8095EE
:10201000982F20911C0230911D02442737FD4095D6
:10202000542F0E941C2A4B015C01E9E0B594A7944F
:1020300097948794EA95D1F7809224029092250292
:10204000A0922602B092270260914A0270914B0240
:10205000882777FD8095982F20911E0230911F02CE
:1020600040912002509121020E941C2A6B017C01A8
:10207000F9E0F594E794D794C794FA95D1F7C09214
:102080002802D0922902E0922A02F0922B0260915B
:102090004C0270914D02882777FD8095982F2091F2
:1020A000220230912302442737FD4095542F0E948D
:1020B0001C2AAB01BC01A9E075956795579547951A
:1020C000AA95D1F740932C0250932D0260932E02D3
:1020D00070932F0280913B0290913C02AA2797FDBA
:1020E000A095BA2F880D991DAA1DBB1D8C0D9D1D95
:1020F000AE1DBF1D840F951FA61FB71F2091440260
:1021000030914502A901662757FD6095762F841707
:102110009507A607B70784F0409146025091470201
:10212000662757FD6095762F481759076A077B0782
:1021300014F4DB01CA019C0130933E0220933D025E
:1021400006C080E090E890933C0280933B02DF91D0
:10215000CF91FF90EF90DF90CF90BF90AF909F9086
:102160008F9008958AE392E061E070E049E050E0EA
:102170000E94462F80913B0290913C02909318025E
:10218000809317020895CF93DF93EC01F5E07595E6
:102190006795FA95E1F78FEF6B3A78076CF01616B2
:1021A000170614F460E070E066557E4F9B014427EB
:1021B00037FD4095542F04C025E531E040E050E064
:1021C00068817981882777FD8095982F0E941C2A45
:1021D000DC01CB01E9E0B595A79597958795EA9540
:1021E000D1F799838883BEDFDF91CF910895CF9394
:1021F000DF93EC0135E0759567953A95E1F777FD4A
:102200000DC06B39710514F06AE970E06A597D4FB1
:102210009B01442737FD4095542F04C026E632E049
:1022200040E050E068817981882777FD8095982F7C
:102230000E941C2ADC01CB0180302EEF92072FEF89
:10224000A20720E0B20744F429E0B595A795979539
:1022500087952A95D1F702C08FEF9FE799838883EE
:1022600081DFDF91CF910895AF92BF92CF92DF923D
:10227000EF92FF920F93CF93DF93CDB7DEB76B97BB
:102280000FB6F894DEBF0FBECDBF80911A0288232F
:1022900009F4CEC080911B02843009F4C9C083EFD9
:1022A00092E04AD77C0120E88030920781F180914A
:1022B0003402909135022091540230915502820FE0
:1022C000931F8E159F0534F4B701681B790B8FE3BC
:1022D00092E08DDF80913402909135022091560278
:1022E00030915702820F931FE816F90634F4B701B4
:1022F000681B790B8FE392E046DF00D08BEF90E014
:10230000ADB7BEB712969C938E93119735C00FDC74
:102310000A96B3E085389B0708F483C086E692E00E
:102320000E94FC29209134023091350240915602DE
:1023300050915702240F351F821793070CF071C07C
:1023400086E692E00E94FC297C0180913402909103
:1023500035022091560230915702820F931FB70128
:10236000681B790B8FE392E00EDF00D083E191E0F0
:10237000EDB7FEB7928381830E94F81E0F900F90F5
:10238000A701662757FD6095762FCE01439623E07F
:1023900009E00E9444265C014091340250913502CC
:1023A000662757FD6095762FCE010A9623E00E949E
:1023B00044266C0140913F0250914002662757FD30
:1023C0006095762FCE01019623E00E945F252DB700
:1023D0003EB7285030400FB6F8943EBF0FBE2DBF19
:1023E000EDB7FEB7319628E331E0ADB7BEB7129630
:1023F0003C932E931197B382A282D582C482978395
:1024000086830E94F81E10921A02F0923902E0921E
:102410003802EDB7FEB738960FB6F894FEBF0FBE80
:10242000EDBF85DBF3E085389F0710F010921A02AC
:1024300080911902882309F4CBC080911B0285305A
:1024400009F4C6C083EF92E096D67C0120E8803084
:102450009207B1F1809132029091330220915A0299
:1024600030915B02820F931FE816F90634F4B7012E
:10247000681B790B81E492E0BADE80913202909180
:1024800033022091580230915902280F391F2E151E
:102490003F0564F420915A0230915B02280F391FE6
:1024A000B701621B730B81E492E06DDE00D082E61F
:1024B00091E0ADB7BEB712969C938E9311972CC046
:1024C00023DB0A96B7E089309B0708F47AC086E6DA
:1024D00092E00E94FC292091320230913302409117
:1024E000580250915902420F531F481759070CF0D8
:1024F00068C080915A0290915B02820F931FB701CE
:10250000681B790B81E492E03EDE00D08AE791E01F
:10251000EDB7FEB7928381830E94F81E0F900F9053
:10252000A701662757FD6095762FCE01019623E01F
:1025300009E00E9444265C0140913202509133022E
:10254000662757FD6095762FCE010A9623E00E94FC
:1025500044266C014091410250914202662757FD8A
:102560006095762FCE01439623E00E945F252DB71C
:102570003EB7285030400FB6F8943EBF0FBE2DBF77
:10258000EDB7FEB7319621EA31E0ADB7BEB712968E
:102590003C932E931197B382A282D582C4829783F3
:1025A00086830E94F81E10921902F0923702E09280
:1025B0003602EDB7FEB738960FB6F894FEBF0FBEE1
:1025C000EDBFA2DAF7E089309F0710F010921902F0
:1025D0006B960FB6F894DEBF0FBECDBFDF91CF91E3
:1025E0000F91FF90EF90DF90CF90BF90AF90089544
:1025F0008AE392E061E070E049E050E00C942E2F15
:1026000082E680933A0280E098E290933C028093C5
:102610003B0290933E0280933D0286E690E09093C9
:10262000400280933F0280E09AE0909342028093C0
:10263000410298CD83E492E06AE070E043E250E02A
:102640000C94462F83E492E06AE070E043E250E0AD
:102650000C942E2FCF93DF9383E48093430288E57D
:1026600092E090935D0280935C0280EB94E0909303
:102670005F0280935E0280E09CE390934702809328
:10268000460280E092E0909345028093440220E06D
:1026900038E2309349022093480223E331E030933B
:1026A0004B0220934A0220E03AEF30934D022093F0
:1026B0004C0220E031E030934F0220934E02909381
:1026C00051028093500280E09EEF909353028093DA
:1026D00052028AE990E090935502809354028AE96D
:1026E0009FEF909357028093560286E690E0909376
:1026F00059028093580286E69FEF90935B02809385
:102700005A0281E08093600281E792E061E00E94DA
:102710008709C4E0C09361028FEB92E064E00E94FD
:102720008709D3E0D09362028DE093E063E00E94DA
:102730008709D093630282E793E063E00E948709F0
:1027400085E08093640280EC93E065E00E94870955
:10275000C09365028EE094E064E00E9487096ADF1E
:10276000DF91CF91089580E090E00E943E2F81306C
:1027700049F046DF6FDF80E090E061E00E94672F64
:10278000F1DC58CF35DF5ECF90913A02891791F096
:1027900010921B0280933A028F56823050F480E0F0
:1027A00090E890933C0280933B0290933E0280938A
:1027B0003D02D8CC089587E693E00C94FC298091E3
:1027C0003B0290913C02089586E692E00C94FC292D
:1027D00080913D0290913E020895CF93DF93EC01EA
:1027E00080913B0290913C02D0933C02C0933B020B
:1027F0008C1B9D0B97FF03C0909581959F4F81384F
:1028000091050CF037D951DBB8D98091170290911E
:1028100018028C1B9D0B97FF03C0909581959F4FCD
:10282000813891050CF09EDCDF91CF910895909353
:102830003E0280933D021ED938DB9FD993CC81E0C4
:1028400090E004C980E090E001C9FC0176836583D3
:102850001482108289E090E09283818381E08383F7
:102860000895CF93DF93EB01CB0167E00E94511DE8
:1028700091E02F81821390E0892FDF91CF9108950D
:10288000EF92FF920F931F93CF93DF93EC018B0195
:10289000E42E8D819E810E949E1CFF2406C0CE01E5
:1028A000B801DFDF882359F414C08D819E81B801FF
:1028B0000E94CE1C882329F0FE1459F4F0CF81E049
:1028C00001C080E0DF91CF911F910F91FF90EF90B9
:1028D0000895F394EF14A8F3E8CFEF92FF920F93CB
:1028E0001F93CF93DF93EC017B018A018D819E8141
:1028F000FDD68D819E81B701F1D78D819E816EEBD2
:1029000040E08ED78D819E81CED7F80180838D8166
:102910009E81C9D7F80181838D819E81C4D7F8013A
:1029200082838D819E81BFD7F80183838D819E81B3
:10293000BAD7F80184838D819E81B5D7F80185834C
:102940008D819E81B0D7F80186838D819E81ABD722
:10295000F80187838D819E81A6D7F80180878D81BC
:102960009E81C4D6DF91CF911F910F91FF90EF9080
:102970000895CF93DF93EA01B0DFCE0168E00E94B3
:10298000511D91E02885821390E0892FDF91CF912E
:102990000895EF92FF920F931F93CF93DF938C01D3
:1029A000EB017A01FC0185819681A0D6F801858131
:1029B0009681BE0193D7F801858196816EE440E04F
:1029C0002FD7F80185819681F701628140E028D7F1
:1029D000F80185819681F701638140E021D78881E4
:1029E000803139F0F80185819681F701648140E0FA
:1029F00017D7F8018581968179D6F801858196816E
:102A000068E440810DD7F8018081882331F06AE0C5
:102A100070E080E090E00E946307F8018581968174
:102A200065D6DF91CF911F910F91FF90EF900895A0
:102A3000EF92FF920F931F93CF93DF93CDB7DEB743
:102A40002A970FB6F894DEBF0FBECDBF7C018B0175
:102A5000242FAE014F5F5F4F2A878BDF2A858823A3
:102A6000D9F0F80180818031C9F02A3051F02A3044
:102A700050F02B3021F02C3031F48FE705C08FE57A
:102A800003C08FE301C08FE18D83C701B801AE01A0
:102A90004F5F5F4F7EDF02C080E001C081E02A9679
:102AA0000FB6F894DEBF0FBECDBFDF91CF911F915F
:102AB0000F91FF90EF900895CF93DF93EC018D81FC
:102AC0009E8114D68D819E8136D78D819E8164E44E
:102AD0004881A6D68B81882321F189819A8189300A
:102AE000910551F089309105B4F08A30910549F093
:102AF0008B30910581F40AC06EE570E080E090E0D3
:102B00000EC06CEB70E080E090E009C067E771E018
:102B100080E090E004C06EEE72E080E090E00E9401
:102B20006307DF91CF910895CF93DF93CDB7DEB7E1
:102B300029970FB6F894DEBF0FBECDBFAE014F5F31
:102B40005F4F17DF882339F03A8120E0898190E0D8
:102B5000822B932B02C081E89FEF29960FB6F89441
:102B6000DEBF0FBECDBFDF91CF9108950F931F93AE
:102B7000CF93DF93EC010E947E2A8C0160E070E02D
:102B8000AE010E94F22CC801DF91CF911F910F91ED
:102B900008950C94142B08958130910559F41092E6
:102BA0006C0410926B048AE291E090936A04809323
:102BB00069040895009731F48AE291E090936A04E1
:102BC0008093690408950F931F93CF93DF93CDB73C
:102BD000DEB765970FB6F894DEBF0FBECDBF8C0190
:102BE000CE01019644E150E00E94DE2CC801BE01F6
:102BF0006F5F7F4F0E945A0665960FB6F894DEBF4E
:102C00000FBECDBFDF91CF911F910F910895CF934C
:102C1000DF93EC01FC01ED59FF4F8FEF8083CE0174
:102C20006AE00E94A70BCE0164E144E00E94A70C79
:102C3000CE010E94A50CDF91CF9108958F929F92B3
:102C4000AF92BF92CF92DF92FF920F931F93CF93D9
:102C5000DF93CDB7DEB729970FB6F894DEBF0FBE6E
:102C6000CDBF4C01CB01AC01662757FD6095762F97
:102C70006E010894C11CD11CC60121E009E00E942C
:102C8000442600E010E0FC2CCD2C85E0A82EB12CD1
:102C900005C060E20E94380C0F5F1F4F8F2D9C2DE6
:102CA0000E94012D9501281B390BC401021713073F
:102CB00080F36F2D7C2D0E945A0629960FB6F8944A
:102CC000DEBF0FBECDBFDF91CF911F910F91FF905F
:102CD000DF90CF90BF90AF909F908F9008956CEC55
:102CE00071E071CFCF93DF93EC016CE042E00E9482
:102CF000770C6EDDBC0180E86030780719F4CE01F6
:102D0000EEDF02C0CE019ADFDF91CF910895CF931D
:102D1000DF93EC0166E042E00E94770C809167024D
:102D2000882329F051DDBC01CE0188DF02C0CE012D
:102D3000D6DFDF91CF910895CF93DF93EC016CE064
:102D400041E00E94770C3BDDBC0180E860307807F1
:102D500019F4CE01C4DF02C0CE0170DFDF91CF9144
:102D60000895CF93DF93EC0166E041E00E94770C79
:102D700080916803882329F01EDDBC01CE015EDF4F
:102D800002C0CE01ACDFDF91CF910895CF93DF93E6
:102D9000EC01E7DFCE01D0DFCE01B9DFCE01A2DF4B
:102DA000DF91CF910895CF93DF93D82FC92F6FED87
:102DB0000E94380C8D2F9C2F609143020E94380C8A
:102DC000DF91CF910895CF93DF93D82FC92F60E083
:102DD00040E00E94770C8D2F9C2F62ED71E0F3DEB6
:102DE0008D2F9C2F60E041E00E94770C8D2F9C2F4F
:102DF0006AED71E0E8DE8D2F9C2F60E042E00E94DA
:102E0000770C8D2F9C2F62EE71E0DDDE8D2F9C2FD5
:102E100062E141E00E94770C8D2F9C2FC4DF8D2F43
:102E20009C2F62E142E00E94770C8D2F9C2FBBDF2C
:102E3000DF91CF910895CF93DF93D82FC92F67E00B
:102E400040E00E94770C80913A02863651F0873636
:102E500018F48236D1F40AC08F3691F08037A9F485
:102E60000AC08D2F9C2F6AEE71E013C08D2F9C2F0E
:102E700068EF71E00EC08D2F9C2F66E072E009C0F4
:102E80008D2F9C2F64E172E004C08D2F9C2F62E295
:102E900072E099DEDF91CF910895FF920F931F9317
:102EA000CF93DF938C01C0911B02FC01ED59FF4FC2
:102EB0008081C817D1F1F02ED12FC80160E043E026
:102EC0000E94770C80911B02823011F1833028F42C
:102ED000882351F0813001F50BC0843089F08430B3
:102EE00098F08530C9F408C0C80160E372E018C0EA
:102EF000C80165E472E014C0C8016AE572E010C060
:102F0000C8016FE672E00CC0C80164E872E008C056
:102F1000C80169E972E004C08F2D9D2F6EEA72E04E
:102F200052DEF801ED59FF4FC083CC2399F4C8015C
:102F300069E043E00E94770C0E94840DEC010E943E
:102F4000970DC817D90718F40E94840D0DC00E9470
:102F5000970D0AC0C450C23088F4C8016CE043E049
:102F60000E94770C0E94AA0DBC01C8014AE050E003
:102F70000E94D206C80163EC72E025DEDF91CF919A
:102F80001F910F91FF90089581E090E005CE80E0C1
:102F900090E002CE2F923F924F925F926F927F927B
:102FA0008F929F92AF92BF92CF92DF92EF92FF9259
:102FB0000F931F93CF93DF93FC014480558066806D
:102FC0007780408651866286738680809180A28059
:102FD000B38084829582A682B782408351836283C4
:102FE0007383C088D188E288F388C48AD58AE68A48
:102FF000F78A84859585A685B785808B918BA28B72
:10300000B38BD18DC08D2C2E33248C019D010C19D6
:103010001D092E093F09080F191F2A1F3B1F0D2EDE
:1030200004C0B595A795979587950A94D2F7081B84
:10303000190B2A0B3B0BD701C60104C0B595A79508
:1030400097958795DA95D2F7080F191F2A1F3B1F0E
:10305000DB01CA010C2E04C0B595A79597958795FD
:103060000A94D2F7080F191F2A1F3B1FC1010197AD
:10307000B501A40104C075956795579547958A9544
:10308000D2F7040F151F261F371FD301C20104C03A
:10309000B595A79597958795CA95D2F7080F191FEB
:1030A0002A1F3B1FC1010297B701A60104C07595F5
:1030B0006795579547958A95D2F7041B150B260BF4
:1030C000370B0487158726873787B801C901DF9139
:1030D000CF911F910F91FF90EF90DF90CF90BF9015
:1030E000AF909F908F907F906F905F904F903F90A8
:1030F0002F900895FC01CB01AA2797FDA095BA2F28
:10310000DC019927882780839183A283B3838483FA
:103110009583A683B78380879187A287B3878487A7
:103120009587A687B787808B918BA28BB38B848B77
:10313000958BA68BB78B0895FC01408951896289D4
:10314000738984859585A685B78584179507A60715
:10315000B7075CF484899589A689B7894817590708
:103160006A077B072CF0CB01089580E090E8089572
:1031700080E090E80895FC01408951896289738953
:1031800084859585A685B785481759076A077B0703
:103190005CF484899589A689B78984179507A60761
:1031A000B7072CF0CB01089580E090E8089580E007
:1031B00090E80895AF92BF92CF92DF92EF92FF9284
:1031C0000F931F93CF93DF93CDB7DEB729970FB639
:1031D000F894DEBF0FBECDBF89E694E0F4DDEFDAF0
:1031E0005C0120E88030920719F460E078E201C0C9
:1031F000BC01882777FD8095982F0E94C8278C01F5
:103200006091440270914502882777FD8095982F40
:103210000E94C8276C01609146027091470288277E
:1032200077FD8095982F0E94C8279C0182EF91E03E
:10323000B801A6010E94140B0E9427076B017C01B4
:1032400051C082EF91E00E943B0B882381F10E94E4
:1032500027076B017C0182EF91E00E94270B0E94FF
:10326000FE27BBDA89E694E067DD8091FA018823C6
:10327000C9F11092FA01A3DAAC01662757FD6095F7
:10328000762FCE01019621E009E00E94442600D06D
:1032900000D02DE133E0EDB7FEB732832183948374
:1032A00083833CD50F900F900F900F902FC0112368
:1032B00021F489E694E040DD0DC0103859F489E628
:1032C00094E06CE041E00E94770C89E694E06AE3C8
:1032D00073E079DC1F5F63E070E080E090E00E94C3
:1032E000630701C010E00E942707DC01CB018C19A5
:1032F0009D09AE09BF098031F7E29F07F0E0AF07F3
:10330000F0E0BF0708F49DCFC50167DA29960FB634
:10331000F894DEBF0FBECDBFDF91CF911F910F910B
:10332000FF90EF90DF90CF90BF90AF900895AF9255
:10333000BF92CF92DF92EF92FF920F931F93CF93A2
:10334000DF93CDB7DEB729970FB6F894DEBF0FBE77
:10335000CDBF89E694E037DD3BDA5C0120E88030C0
:10336000920719F460E078E201C0BC01882777FD7C
:103370008095982F0E94C8278C016091440270911B
:103380004502882777FD8095982F0E94C8276C01F9
:103390006091460270914702882777FD8095982FAB
:1033A0000E94C8279C0182EF91E0B801A6010E940B
:1033B000140B0E9427076B017C0151C082EF91E042
:1033C0000E943B0B882381F10E9427076B017C013F
:1033D00082EF91E00E94270B0E94FE2728DA89E6FF
:1033E00094E080DC8091FA018823C9F11092FA01FF
:1033F000EFD9AC01662757FD6095762FCE01019677
:1034000021E009E00E94442600D000D020E433E00F
:10341000EDB7FEB73283218394838383A5D40F90C5
:103420000F900F900F902FC0112321F489E694E0A4
:1034300059DC0DC0103859F489E694E06CE042E0A4
:103440000E94770C89E694E06FE573E0BCDB1F5FB8
:1034500063E070E080E090E00E94630701C010E04C
:103460000E942707DC01CB018C199D09AE09BF0919
:103470008031F7E29F07F0E0AF07F0E0BF0708F404
:103480009DCFC501D4D929960FB6F894DEBF0FBEE3
:10349000CDBFDF91CF911F910F91FF90EF90DF9003
:1034A000CF90BF90AF900895CF92DF92EF92FF92AE
:1034B0000F931F93CF93DF9300D000D0CDB7DEB72B
:1034C00089E694E080DC10913A02E12FE656EB3079
:1034D00028F4F0E0E25DFE4F608101C060E082EF21
:1034E00091E070E040E050E023E030E00E94140BF7
:1034F00082E6898386E68A8380E78B838FE68C83E6
:103500000E9427076B017C0158C082EF91E00E9466
:103510003B0B8823B9F10E9427076B017C0182EFE6
:1035200091E00E94270BE1E0F0E0EC0FFD1FE80FB7
:10353000F91F808129D989E694E07DDC8091FA0128
:10354000882309F43AC01092FA0180913A02823637
:1035500011F430DE46C0863611F4E9DE42C0803711
:1035600021F400D08DEC92E005C08F36D1F500D06B
:103570008EEE92E0EDB7FEB792838183CFD30F90AA
:103580000F902FC0002321F489E694E054DC0DC095
:10359000003859F489E694E067E040E00E94770C37
:1035A00089E694E06FE073E00EDB0F5F63E070E0AC
:1035B00080E090E00E94630701C000E00E942707BE
:1035C000DC01CB018C199D09AE09BF098031F7E2FE
:1035D0009F07F0E0AF07F0E0BF0708F496CF812F18
:1035E000D3D80F900F900F900F90DF91CF911F9134
:1035F0000F91FF90EF90DF90CF900895CF92DF92E0
:10360000EF92FF92CF9382EF91E060E070E040E0B4
:1036100050E022E030E00E94140B0E9427076B016B
:103620007C01C0E04CC082EF91E00E943B0B8823FC
:1036300029F00E9427076B017C0102C0CC2329F4EA
:1036400089E694E0C0DBC0E011C0C03879F482EFB5
:1036500091E00E94270B482F89E694E060E00E94E9
:10366000770C89E694E066EC72E0ADDA8091FA01BD
:103670008823F1F01092FA0182EF91E00E94270B6B
:103680008130910539F08230910559F0009781F42D
:103690000BDF26C082E678D889E694E0CCDB8ADDB1
:1036A0001FC086E671D889E694E0C5DB40DE18C00D
:1036B000CF5F63E070E080E090E00E9463070E94CB
:1036C0002707DC01CB018C199D09AE09BF098031A8
:1036D00027E2920720E0A20720E0B20708F4A3CF78
:1036E000CF91FF90EF90DF90CF900895FF920F93CE
:1036F0001F93CF93DF93FC011081C181D281F89495
:103700008981012F00958023898378948DE7F82E95
:10371000FA9431F182E090E00E948A078881812347
:10372000B9F3F8948A8180238A838981812B8983E4
:10373000789484EF91E00E948A07F894898180232D
:10374000898380E590E00E948A0788818123C1E017
:1037500009F0C0E0789484EA91E00E948A0701C0F1
:10376000C0E08C2FDF91CF911F910F91FF900895B2
:103770001F93CF93DF93FC011081C181D281912FE0
:103780009095F8948A8189238A838981812B898302
:1037900060FF0BC08AE090E00E948A078A81812B3B
:1037A0008A83789487E390E00AC081E490E00E94E5
:1037B0008A078A81812B8A83789485E090E00E9431
:1037C0008A07DF91CF911F9108950F931F93CF9395
:1037D000DF93FC011081C181D281F8948981812B12
:1037E00089838A81012F009580238A8383E090E07A
:1037F0000E948A078981802389838AE090E00E9461
:103800008A07C881789485E390E00E948A071C2388
:1038100081E009F480E0DF91CF911F910F9108952D
:10382000CF92DF92EF92FF920F931F93CF93DF938C
:103830000F92CDB7DEB78C01F62E28E0C22ED12C28
:10384000EE24E3948E2D8F2161E009F460E0C8013D
:1038500049838EDFEE0C0894C108D1084981C11458
:10386000D10481F74423A9F4F894D8011196ED917D
:10387000FC91129791818C91809589238183119677
:10388000ED91FC91129792818C918095892382838E
:1038900078940F90DF91CF911F910F91FF90EF904F
:1038A000DF90CF900895EF92FF920F931F93CF93E5
:1038B000DF938C01C8E0D0E0FF24EE24E394C8013C
:1038C00084DF8111FE28EE0C2197C9F78F2DDF913F
:1038D000CF911F910F91FF90EF900895CF92DF92BB
:1038E000EF92FF920F931F93CF93DF930F92CDB779
:1038F000DEB77C01C62E65E540E0798391DF0C2DB3
:103900007981172FCC24DD24F80161918F01C70143
:1039100040E086DF0894C11CD11CF8E0CF16D1042A
:1039200099F70F90DF91CF911F910F91FF90EF903A
:10393000DF90CF9008956CEC40E072CFFC011386CD
:1039400015861486128611861086178216821582B5
:103950001482138208951F93CF93DF93EC01162FE7
:10396000862F60E00E94CF07612F70E0FB01E458D2
:10397000FF4FE491E883FB01E057FF4FE491F0E053
:10398000EE0FFF1FEC55FF4F8591949189839A8329
:10399000CE01D4DFDF91CF911F910895BF92CF92D6
:1039A000DF92EF92FF920F931F93CF93DF93EC017F
:1039B0006B018D85882309F052C0CE0197DE8823E4
:1039C00021F41B861D861C865BC0CE0160EF40E0A3
:1039D00027DF01E0FF24EE2411E0CE01F6DEB82E51
:1039E000CE01F3DE91E0B91619F48130A9F42FC0AD
:1039F000B816D1F48B85181738F4FE01EF0DF11DC0
:103A00008381802349F402C0181731F060E0193037
:103A100008F040C01C873EC0FE01EF0DF11D838100
:103A2000802B838361E009C06B2DFE01EF0DF11D3A
:103A3000902F9095838189238383CE0199DE1F5F28
:103A4000000F11F4F39401E087E08F1530F6113484
:103A500030F0EB86EE2001F581E08D871DC01B86DE
:103A60001D861C8680E0D60120E030E0FE01E20FDA
:103A7000F31F93819D932F5F3F4F28303105B1F79E
:103A8000DF91CF911F910F91FF90EF90DF90CF903A
:103A9000BF900895E12EC9CF8B81882301F381E087
:103AA000E2CFDC0180E007C0ED91E827F0E0EB59C0
:103AB000FC4F849161506623B9F7089582E491E048
:103AC00040E051EE60E070E00C94D505CF93DF93B9
:103AD000CDB7DEB7C058D0400FB6F894DEBF0FBEEA
:103AE000CDBFFE01EB57FF4F41915191CE010196A1
:103AF00060E870E09F010E94372D82E491E0BE01F2
:103B00006F5F7F4F0E945A06C058DF4F0FB6F89480
:103B1000DEBF0FBECDBFDF91CF910895CF92DF9270
:103B2000EF92FF920F93CF93DF93CDB7DEB7299734
:103B30000FB6F894DEBF0FBECDBF7C016B010E94B3
:103B4000DB13AC01662757FD6095762FCE010196F9
:103B500022E009E00E94442600D000D021ED34E0AC
:103B6000ADB7BEB712963C932E93119714969C93C3
:103B70008E931397ABDF0F900F900F900F900E94D2
:103B8000DF13AC01662757FD6095762FCE010196B5
:103B900022E00E94442600D000D023EE34E0EDB7AE
:103BA000FEB7328321839483838390DF0F900F903D
:103BB00081EF94E0ADB7BEB712969C938E931197A8
:103BC00085DF0F900F90E114F10459F400D08CEFD1
:103BD00094E0EDB7FEB79283818378DF0F900F906A
:103BE00013C000D000D082E095E0ADB7BEB712960A
:103BF0009C938E9311971496FC92EE92139766DF26
:103C00000F900F900F900F900E94E413AC01662765
:103C100057FD6095762FCE01019622E009E00E94C3
:103C2000442600D000D028E035E0EDB7FEB732835F
:103C30002183948383834ADF0F900F900F900F901E
:103C40000E94E813AC01662757FD6095762FCE01E0
:103C5000019622E00E94442600D000D029E135E000
:103C6000ADB7BEB712963C932E93119714969C93C2
:103C70008E9313972BDF0F900F9089E295E0EDB7AD
:103C8000FEB79283818322DF0F900F90C114D1047D
:103C900069F400D086E395E0ADB7BEB712969C9369
:103CA0008E93119713DF0F900F900FC000D000D0AC
:103CB0008CE395E0EDB7FEB792838183D482C38213
:103CC00005DF0F900F900F900F9000D000D0EDB750
:103CD000FEB7319682E495E0ADB7BEB712969C93DD
:103CE0008E93119780911B0282831382EFDE0F90D7
:103CF0000F900F900F9029960FB6F894DEBF0FBE6D
:103D0000CDBFDF91CF910F91FF90EF90DF90CF90DB
:103D1000089580E090E060E070E000CFCF93DF9303
:103D2000CDB7DEB7C058D0400FB6F894DEBF0FBE97
:103D3000CDBFFE01EB57FF4F41915191CE0101964E
:103D400060E870E09F010E94372DCE01019660E08F
:103D500070E0E4DEC058DF4F0FB6F894DEBF0FBE50
:103D6000CDBFDF91CF910895CF93DF93CDB7DEB76D
:103D7000C058D0400FB6F894DEBF0FBECDBFFE01D5
:103D8000EB57FF4F41915191CE01019660E870E0F1
:103D90009F010E94372D80E090E0BE016F5F7F4F52
:103DA000BDDEC058DF4F0FB6F894DEBF0FBECDBFEB
:103DB000DF91CF91089500D08FE495E0EDB7FEB785
:103DC0009283818383DE0F900F900895CF93DF93CA
:103DD000682FC2E4D1E0CE010E945C06CE016AE306
:103DE0000E945C0681E08093CD04DF91CF9108951D
:103DF000EF92FF920F931F93CF93DF93CDB7DEB770
:103E0000C058D0400FB6F894DEBF0FBECDBF8E01B4
:103E100007571F4FF801E190F1908F0184E4D6DF3E
:103E2000CE01019660E870E0A70198010E94372D4D
:103E300002E411E0C801BE016F5F7F4F0E945A0685
:103E4000C8016AE00E945C06C058DF4F0FB6F894C4
:103E5000DEBF0FBECDBFDF91CF911F910F91FF90BD
:103E6000EF900895CF93DF93EC018091CD048823E8
:103E700011F06BE701C06CE282E491E00E945C0605
:103E80001092CD0482E491E062E20E945C0600D0D0
:103E9000EDB7FEB7D283C18319DE0F900F9082E495
:103EA00091E062E20E945C0682E491E06AE30E9493
:103EB0005C06DF91CF910895CF93DF93EB01D2DFC2
:103EC00082E491E0BE010E945A06DF91CF910895ED
:103ED0000F93CF93DF93CDB7DEB72C970FB6F8943F
:103EE000DEBF0FBECDBF86E571DF40911C02509151
:103EF0001D02662757FD6095762FCE01019623E0BF
:103F00000CE0D8D7BC018BE696E0D6DF40911E02CC
:103F100050911F026091200270912102CE01019602
:103F200023E0C8D7BC0184E796E0C6DF40912202B7
:103F300050912302662757FD6095762FCE0101969A
:103F400023E0B8D7BC0181E896E0B6DF40912402B7
:103F5000509125026091260270912702CE010196B0
:103F600023E0ADD5BC018BE896E0A6DF40912802A6
:103F70005091290260912A0270912B02CE01019684
:103F800023E09DD5BC018DE896E096DF40912C02A0
:103F900050912D0260912E0270912F02CE01019658
:103FA00023E08DD5BC018FE896E086DF409130029A
:103FB00050913102662757FD6095762FCE0101960C
:103FC00023E062D6BC0181E996E076DF40913202BF
:103FD00050913302662757FD6095762FCE010196EA
:103FE00023E052D6BC0189E996E066DF40913402B5
:103FF00050913502662757FD6095762FCE010196C8
:1040000023E042D6BC0184EA96E056DF40913602B6
:1040100050913702662757FD6095762FCE010196A5
:1040200023E032D6BC018FEA96E046DF40913802A9
:1040300050913902662757FD6095762FCE01019683
:1040400023E022D6BC0187EB96E036DFB4DE2C9667
:104050000FB6F894DEBF0FBECDBFDF91CF910F91A9
:1040600008951F93CF93DF93162FFCDEC2E4D1E0B7
:10407000CE0162E20E945C06CE01612F0E945C06C6
:10408000CE0162E20E945C06DF91CF911F910895FC
:104090000F93CF93DF93CDB7DEB72C970FB6F8947D
:1040A000DEBF0FBECDBF83E591DE82E595E0609176
:1040B0003A02D7DF40913B0250913C02662757FD00
:1040C0006095762FCE01019622E00CE0DDD5BC0193
:1040D00087E595E0F1DE40913D0250913E02662772
:1040E00057FD6095762FCE01019622E0CDD5BC011B
:1040F0008FE595E0E1DE40913F0250914002662756
:1041000057FD6095762FCE01019623E0D8D4BC01EF
:1041100089E695E0D1DE4091410250914202662746
:1041200057FD6095762FCE01019623E0C8D4BC01DF
:1041300081E795E0C1DE3FDE2C960FB6F894DEBF36
:104140000FBECDBFDF91CF910F910895CF93DF9335
:10415000EB0188DE00D000D08FEB96E0EDB7FEB724
:1041600092838183D483C383B1DC0F900F900F902F
:104170000F90DF91CF9108950F93CF93DF93CDB739
:10418000DEB72C970FB6F894DEBF0FBECDBF83E429
:104190001DDE89E795E06091430263DF40914402B0
:1041A00050914502662757FD6095762FCE01019606
:1041B00021E00CE069D5BC0184E895E07DDE40910A
:1041C000460250914702662757FD6095762FCE0133
:1041D000019621E059D5BC018FE895E06DDE409154
:1041E000480250914902662757FD6095762FCE010F
:1041F000019623E064D4BC018AE995E05DDE40913C
:104200004A0250914B02662757FD6095762FCE01EA
:10421000019623E054D4BC018DE995E04DDE409138
:104220004C0250914D02662757FD6095762FCE01C6
:10423000019623E044D4BC0180EA95E03DDE409144
:104240004E0250914F02662757FD6095762FCE01A2
:10425000019623E02FD6BC0183EA95E02DDE409144
:10426000500250915102662757FD6095762FCE017E
:10427000019623E01FD6BC018BEA95E01DDE40913C
:10428000520250915302662757FD6095762FCE015A
:10429000019623E00FD6BC0186EB95E00DDE409140
:1042A000540250915502662757FD6095762FCE0136
:1042B000019623E0FFD5BC0181EC95E0FDDD409146
:1042C000560250915702662757FD6095762FCE0112
:1042D000019623E0EFD5BC018DEC95E0EDDD40913A
:1042E000580250915902662757FD6095762FCE01EE
:1042F000019623E0DFD5BC0189ED95E0DDDD40913D
:104300005A0250915B02662757FD6095762FCE01C9
:10431000019623E0CFD5BC0185EE95E0CDDD60911F
:104320005C0270915D0281EF95E010DF60915E02AA
:1043300070915F0283E096E009DF6091600285E1A1
:1043400096E070E003DF6091610284E296E070E045
:10435000FDDE6091620283E396E070E0F7DE60913B
:10436000630283E496E070E0F1DE6091640280E530
:1043700096E070E0EBDE609165028DE596E070E01E
:10438000E5DE19DD2C960FB6F894DEBF0FBECDBF6B
:10439000DF91CF910F9108950F931F93CF93DF93E8
:1043A000EC018B0100D000D000D0EDB7FEB7319604
:1043B00084EC96E0ADB7BEB712969C938E9311979E
:1043C000D383C2837583648313DDEDB7FEB736965E
:1043D0000FB6F894FEBF0FBEEDBFCE0162E575E0EB
:1043E0000E94CE2C0097D9F4D8018C910E94C4135E
:1043F00000D000D0EDB7FEB7319682EE96E0ADB7B3
:10440000BEB712969C938E931197D8018C9182839C
:104410001382AADC0F900F900F900F90EBC1CE018A
:1044200067E575E00E94CE2C0097D1F5C80104D550
:10443000EC0180913A028037F9F480913B0290912F
:104440003C02FE01E81BF90BCF01F7FF03C090957A
:1044500081959F4F85369105F4F000D000D082E021
:1044600097E0ADB7BEB712969C938E9311971496B2
:104470001C930E9313970AC000D000D08EE297E0F1
:10448000EDB7FEB7928381831483038347DC0F90DB
:104490000F900F900F90D0933C02C0933B02AAC1A3
:1044A000CE016FE575E00E94CE2C0097F9F4C801AB
:1044B000C3D4EC0180913A02863699F400D000D042
:1044C00084E597E0ADB7BEB712969C938E93119793
:1044D00014961C930E93139747DC0F900F900F9038
:1044E0000F90D0933E02C0933D0284C1CE0169E695
:1044F00075E00E94CE2C009749F4C80110D4DC016D
:10450000CB019093400280933F0274C1CE0161E7DA
:1045100075E00E94CE2C009749F4C80100D4DC015C
:10452000CB01909342028093410264C1CE0169E7BE
:1045300075E00E94CE2C009749F4F80180818093A9
:10454000430289E694E00E94E31654C1CE0164E878
:1045500075E00E94CE2C009739F4C8016DD4909379
:1045600045028093440246C1CE016FE875E00E9487
:10457000CE2C009739F4C8015FD490934702809302
:10458000460238C1CE016AE975E00E94CE2C009740
:1045900049F4C801C4D3DC01CB0190934902809354
:1045A000480228C1CE016DE975E00E94CE2C00972B
:1045B00049F4C801B4D3DC01CB0190934B02809342
:1045C0004A0218C1CE0160EA75E00E94CE2C009725
:1045D00049F4C801A4D3DC01CB0190934D02809330
:1045E0004C0208C1CE0163EA75E00E94CE2C009710
:1045F00039F4C80193D490934F0280934E02FAC0CD
:10460000CE016BEA75E00E94CE2C009739F4C80108
:1046100085D49093510280935002ECC0CE0166EB9A
:1046200075E00E94CE2C009739F4C80177D490939E
:10463000530280935202DEC0CE0161EC75E00E940D
:10464000CE2C009739F4C80169D490935502809319
:104650005402D0C0CE016DEC75E00E94CE2C0097C4
:1046600039F4C8015BD49093570280935602C2C0BC
:10467000CE0169ED75E00E94CE2C009739F4C80197
:104680004DD49093590280935802B4C0CE0165EE88
:1046900075E00E94CE2C009739F4C8013FD4909366
:1046A0005B0280935A02A6C0CE0161EF75E00E94C2
:1046B000CE2C009771F4C80160E070E04AE050E051
:1046C0000E94AD2BDC01CB0190935D0280935C02D4
:1046D00091C0CE0163E076E00E94CE2C009771F489
:1046E000C80160E070E04AE050E00E94AD2BDC01C0
:1046F000CB0190935F0280935E027CC0CE0165E1A6
:1047000076E00E94CE2C009761F4C80160E070E072
:104710004AE050E00E94AD2B6093600281E792E096
:104720005AC0CE0164E276E00E94CE2C009761F47C
:10473000C80160E070E04AE050E00E94AD2B609359
:1047400061028FEB92E047C0CE0163E376E00E9406
:10475000CE2C009759F4C80160E070E04AE050E0C8
:10476000FCD7609362028DE093E035C0CE0163E434
:1047700076E00E94CE2C009759F4C80160E070E00A
:104780004AE050E0EAD76093630282E793E023C0F7
:10479000CE0160E576E00E94CE2C009759F4C80166
:1047A00060E070E04AE050E0D8D76093640280ECAB
:1047B00093E011C0CE016DE576E00E94CE2C00970B
:1047C00069F4C80160E070E04AE050E0C6D7609349
:1047D00065028EE094E00E9487090CC000D08CE74F
:1047E00097E0ADB7BEB712969C938E93119700DBFE
:1047F0000F900F90DF91CF911F910F9108950F931C
:104800001F93CF93DF93CDB7DEB7EC970FB6F89435
:10481000DEBF0FBECDBF61E070E080E090E00E949F
:10482000630710E069C061E070E080E090E00E9402
:10483000630782E491E00E947304182F8A33C9F061
:10484000803261F08B3751F0823241F0EFE1F0E0DD
:10485000EC0FFD1FE00FF11D80830F5F0D3110F095
:1048600053C000E082E491E00E9446041816190645
:10487000D4F2EFE1F0E0EC0FFD1FE00FF11D10822C
:1048800000E01DC061E070E080E090E00E946307FE
:1048900082E491E00E947304182F8C32B9F08D37B6
:1048A000A9F0803251F0823241F0E1E0F0E0EC0F0B
:1048B000FD1FE00FF11D80830F5F0D3128F582E4AD
:1048C00091E00E94460418161906E4F2E1E0F0E0D7
:1048D000EC0FFD1FE00FF11D1082CE014F96BE01BF
:1048E0006F5F7F4F59DD1D3739F40E94B2100E946F
:1048F0001A13CEDB41DC08C082E491E00E9446043A
:10490000181619060CF4ADCFEC960FB6F894DEBF6E
:104910000FBECDBFDF91CF911F910F910895DF9210
:10492000EF92FF920F931F93CF93DF93CDB7DEB734
:1049300065970FB6F894DEBF0FBECDBF82E491E05D
:104940000E944604181619060CF0ABC082E491E0F0
:104950000E9473048C3609F457C08D3670F4833589
:1049600069F1843520F4833409F087C016C083369A
:10497000A9F18A3609F081C07EC0833769F1843796
:1049800020F48E3609F079C02DC0843721F08637A7
:1049900009F073C025C0BDD984C00E942A1389E6DE
:1049A00094E00E94E316E8DB00D085E694E0ADB722
:1049B000BEB712969C938E9311970AC00E94001363
:1049C00067DB00D08FE794E0EDB7FEB79283818379
:1049D0000FDA0F900F9065C05BDB63C0CDDB61C069
:1049E00077DA5FC000D000D088E994E0ADB7BEB7F9
:1049F00012969C938E9311978EE994E014969C9353
:104A00008E93139763D849C08CE4E0D982E491E097
:104A10006BE50E945C06DD248E010F5F1F4F84EA68
:104A2000E82E84E0F82E89E694E06D2DA8010E941E
:104A30006C0B00D000D0EDB7FEB7F282E182148398
:104A4000038344D80F900F900F900F90F3E0DF1680
:104A500011F06CE201C06DE582E491E00E945C0619
:104A6000D39484E0D816F9F682E491E06EE071E028
:104A70000E945A0616C0C3DE14C000D000D0EDB7A5
:104A8000FEB7319629EA34E0ADB7BEB712963C9333
:104A90002E93119782831382ABD90F900F900F90B2
:104AA0000F9065960FB6F894DEBF0FBECDBFDF91B5
:104AB000CF911F910F91FF90EF90DF900895AF92EB
:104AC000BF92CF92DF92EF92FF920F93CF93DF933B
:104AD0005C0177FF0BC08DE2D5018C9370956095DA
:104AE000509541955F4F6F4F7F4F03C080E2F501B6
:104AF00080836A017B01F9E0F594E794D794C79429
:104B0000FA95D1F7E6015170607070702130B1F5FF
:104B1000CB01BA012AE030E040E050E08DD4DC0166
:104B2000CB0180509F4FAF4FBF4FE9E0B595A795A0
:104B300097958795EA95D1F7BC018A30910519F4CC
:104B4000219660E070E08DB79EB70A970FB6F89493
:104B50009EBF0FBE8DBFEDB7FEB73196C501019662
:104B6000ADB7BEB712969C938E931197802F90E0AD
:104B70000197938382838BE997E037C02230E1F578
:104B8000CB01BA0124E630E040E050E055D4DC012E
:104B9000CB0180509F4FAF4FBF4FF9E0B595A79520
:104BA00097958795FA95D1F7BC018436910519F44C
:104BB000219660E070E08DB79EB70A970FB6F89423
:104BC0009EBF0FBE8DBFEDB7FEB73196C5010196F2
:104BD000ADB7BEB712969C938E931197802F90E03D
:104BE00001979383828383EA97E095838483D783B5
:104BF000C6837187608734C08DB79EB70A970FB69A
:104C0000F8949EBF0FBE8DBFCDB7DEB72196C5010C
:104C10000196ADB7BEB712969C938E931197802FD5
:104C200090E001979B838A838BEA97E09D838C8336
:104C3000DF82CE82CB01BA0128EE33E040E050E0C3
:104C4000FBD3DC01CB0180509F4FAF4FBF4FE9E05A
:104C5000B595A79597958795EA95D1F79987888710
:104C6000D9D6EDB7FEB73A960FB6F894FEBF0FBE91
:104C7000EDBFC501DF91CF910F91FF90EF90DF90D5
:104C8000CF90BF90AF900895CF92DF92EF92FF92B6
:104C90000F931F93CF93DF93EC016A017B01122FD7
:104CA000403080E858078FEF68078FEF780729F4C6
:104CB000CE0166E977E07BD628C080914302863436
:104CC000F1F4DB01CA0123E0880F991FAA1FBB1F63
:104CD0002A95D1F7840F951FA61FB71FBC01CD01E0
:104CE00025E030E040E050E0E8D369017A0180E05F
:104CF00090E4A0E0B0E0C80ED91EEA1EFB1ECE0173
:104D0000B701A601212FDBDEEC01CE01DF91CF91AF
:104D10001F910F91FF90EF90DF90CF9008952F9209
:104D20003F924F925F926F927F928F929F92AF923B
:104D3000BF92CF92DF92EF92FF920F931F93CF9388
:104D4000DF9300D0CDB7DEB78C01FC0180818D32BE
:104D500029F40F5F1F4F7724739401C07724C80193
:104D60006EE270E046D66C01C80160E070E04AE097
:104D700050E0F3D41B012C01C114D10469F1860168
:104D80000F5F1F4FC801BE016F5F7F4F4AE050E0C9
:104D9000E4D46B017C016980601A69E0CC0CDD1CF5
:104DA000EE1CFF1C6A95D1F700E010E07AE0872E38
:104DB000912CA12CB12C0DC0C701B6016B5F7F4FA8
:104DC0008F4F9F4FA501940178D369017A010F5F3E
:104DD0001F4F601689F703C0CC24DD2476019201B1
:104DE000810149E0000F111F221F331F4A95D1F79F
:104DF0000C0D1D1D2E1D3F1D772039F0309520957F
:104E0000109501951F4F2F4F3F4FB801C9010F90CB
:104E10000F90DF91CF911F910F91FF90EF90DF9056
:104E2000CF90BF90AF909F908F907F906F905F904A
:104E30004F903F902F9008950F931F9370DF8B0139
:104E40009C01809143028634D1F4D901C801E2E08B
:104E5000880F991FAA1FBB1FEA95D1F7800F911FDA
:104E6000A21FB31F80509044A140B040BC01CD01AF
:104E700029E030E040E050E020D389019A01003081
:104E800080E818078FEF28078FEF38076CF00030A5
:104E900080E8180780E0280780E038073CF00FEF33
:104EA0001FE720E030E002C000E010E8C8011F91D9
:104EB0000F910895AF92BF92CF92DF92EF92FF923F
:104EC0000F93CF935C016A017B01C22F8091430253
:104ED0008634B1F4DB01CA01F3E0880F991FAA1FE1
:104EE000BB1FFA95D1F7840F951FA61FB71FBC01F2
:104EF000CD0125E030E040E050E0DFD269017A01E9
:104F0000C501B701A6012C2FDADDCF910F91FF90DB
:104F1000EF90DF90CF90BF90AF9008950F931F93C5
:104F2000FEDE8B019C01809143028634B1F4D901ED
:104F3000C80142E0880F991FAA1FBB1F4A95D1F7ED
:104F4000800F911FA21FB31FBC01CD0129E030E0EB
:104F500040E050E0B2D289019A01003080E81807A1
:104F60008FEF28078FEF38076CF0003080E81807C4
:104F700080E0280780E038073CF00FEF1FE720E0D3
:104F800030E002C000E010E8C8011F910F910895C1
:104F90000F931F938B019C01809143028634D1F4BF
:104FA000D901C80153E0880F991FAA1FBB1F5A954A
:104FB000D1F7800F911FA21FB31FBC01CD0125E0C7
:104FC00030E040E050E079D289019A010050104C65
:104FD0002F4F3F4FC901B8012AE030E040E050E0D8
:104FE0002BD260507F4F8F4F9F4F20E032E040E048
:104FF00050E063D2C9011F910F9108950F931F9341
:1050000020914302AC01BA01882777FD8095982F43
:105010002634B9F420E03AE040E050E00DD2605090
:1050200070488C40904029E030E040E050E045D2AC
:1050300089019A010B5F1F4F2F4F3F4FC901B801E4
:105040000BC0E9E0660F771F881F991FEA95D1F71B
:105050006B5F7F4F8F4F9F4F2AE030E040E050E082
:105060002CD2C9011F910F910895CF92DF92EF9238
:10507000FF920F931F93CF93DF937C01FC01EB50C2
:10508000FF4F808191810E94761B29EFC22ED12C87
:10509000CE0CDF1CE701C950DF4F88819981B60132
:1050A00040E00E944014882319F50E94270728EE4B
:1050B00033E040E050E0DFD12430310508F099C002
:1050C00000D000D0EDB7FEB7319683EB97E0ADB7D7
:1050D000BEB712969C938E931197D7018C918283C1
:1050E00013820E94F81E0F900F900F900F9081C0B6
:1050F00088819981B6014CE00E94181588819981B8
:10510000FC0113820E945C150E942707DC01CB0181
:10511000F70182839383A483B5836EEE72E080E00F
:1051200090E00E94630788819981B6010E949415DE
:105130008C010E942707DC01CB01F70142815381DA
:1051400064817581841B950BA60BB70B813DF7E03D
:105150009F07F0E0AF07F0E0BF0728F0D7011196F6
:105160001C92119746C0BFEF01381B07E1F28881FE
:1051700099810E945C156EEE72E080E090E00E94E2
:10518000630788819981B6010E949415EC0181E042
:10519000F7018183FCEFC030DF0764F024E0C0300A
:1051A000D20714F0CFEFD3E085E0CC0FDD1F8A9556
:1051B000E1F702C0C0E0D0E8C7010B96BE010E9433
:1051C000DC098701075A1F4FC801BE010E94DC0994
:1051D000C70189559F4F60E070E00E94DC09C8015B
:1051E0000E94D409DC01CB01F70187839087A18756
:1051F000B287DF91CF911F910F91FF90EF90DF90D9
:10520000CF900895EF92FF920F931F93CF93DF9368
:105210008C010E942707DC01CB01F80142815381F8
:1052200064817581841B950BA60BB70B8938F3E15C
:105230009F07F0E0AF07F0E0BF07B0F0F801E950DA
:10524000FF4F808191810E945C150E942707DC013D
:10525000CB01F80182839383A483B5836EEE72E061
:1052600080E090E00E94630759EFE52EF12CE00EFC
:10527000F11EE801C950DF4F88819981B7010E9472
:105280009415D80111962C911197BFEF81389B0787
:10529000E1F42223B9F000D000D0EDB7FEB731968B
:1052A0008FED97E0ADB7BEB712969C938E93119792
:1052B000D8018C91828313820E94F81E0F900F9068
:1052C0000F900F90F801118290C0222321F560ED1C
:1052D00077E080E090E00E946307C801C6DE00D05E
:1052E00000D0EDB7FEB7319689E098E0ADB7BEB714
:1052F00012969C938E931197D8018C91828313827E
:105300000E94F81E0F900F900F900F908881998146
:10531000B7010E949415BCEF80309B076CF0E4E06D
:1053200080309E0714F08FEF93E0EC0145E0CC0F46
:10533000DD1F4A95E1F702C0C0E0D0E8C8010B9636
:10534000BE010E94C10939E5E32EF12CE00EF11EE9
:10535000C701BE010E94C109D80116968C9116970B
:10536000815016968C9316978D3051F4C7010E9488
:10537000D409DC01CB01F80187839087A187B2872C
:10538000D80116968C9116978823F9F4C7010E94CC
:10539000D409AB01BC01F80187819085A185B28554
:1053A000481B590B6A0B7B0BC80189559F4F0E9404
:1053B0009709C7010E94D409DC01CB01F80187835A
:1053C0009087A187B2878CE08683F801E950FF4F70
:1053D000808191810E945C150E942707DC01CB012E
:1053E000F80182839383A483B583DF91CF911F91CA
:1053F0000F91FF90EF900895FC01E55BFF4F408116
:10540000518162817381AB01772757FD7095672FBA
:10541000CA01089589559F4F0E94D4092CE231E0BA
:1054200040E050E009D0AB01BC01AB01772757FD4C
:105430007095672FCA010895629FD001739FF00194
:10544000829FE00DF11D649FE00DF11D929FF00D14
:10545000839FF00D749FF00D659FF00D9927729F4B
:10546000B00DE11DF91F639FB00DE11DF91FBD01D6
:10547000CF0111240895A1E21A2EAA1BBB1BFD0126
:105480000DC0AA1FBB1FEE1FFF1FA217B307E40723
:10549000F50720F0A21BB30BE40BF50B661F771F7B
:1054A000881F991F1A9469F760957095809590955B
:1054B0009B01AC01BD01CF01089597FB092E052684
:1054C0000ED057FD04D0D7DF0AD0001C38F4509519
:1054D0004095309521953F4F4F4F5F4F0895F6F718
:1054E00090958095709561957F4F8F4F9F4F089550
:1054F000EE0FFF1F0590F491E02D0994CF93DF93F9
:10550000AC018230910510F442E050E0E091D0040B
:10551000F091D10420E030E0A0E0B0E024C0808130
:10552000918184179507D0F08417950771F48281D3
:105530009381109729F013969C938E9312972CC009
:105540009093D1048093D00427C02115310519F020
:105550008217930718F49C01BD01EF0192818381AA
:10556000DF01E92FF82F3097D1F621153105F9F039
:10557000C901841B950B8430910580F48A819B813D
:105580006115710521F0FB019383828304C0909320
:10559000D1048093D004FE01329642C0FE01E80F90
:1055A000F91F4193519302979983888339C0809161
:1055B000CE049091CF04009741F480911201909114
:1055C00013019093CF048093CE0420911001309169
:1055D00011012115310541F42DB73EB78091140119
:1055E00090911501281B390BE091CE04F091CF0466
:1055F000E217F30798F42E1B3F0B2417350770F0C2
:10560000CA0102962817390748F08E0F9F1F909302
:10561000CF048093CE044193519302C0E0E0F0E0C8
:10562000CF01DF91CF9108950F931F93CF93DF9315
:105630009C01009709F48CC0DC01129713961C9210
:105640001E9212976091D0047091D104611571057A
:1056500089F48D919C911197820F931F2091CE0414
:105660003091CF042817390769F5B093CF04A09380
:10567000CE046EC0FB0140E050E001C0FC01EA171F
:10568000FB0730F482819381AF010097B9F71FC007
:10569000E9012297FB83EA8308811981C901800F00
:1056A000911F8E179F0759F480819181800F911F60
:1056B000029699838883828193819B838A83411593
:1056C000510529F4B093D104A093D00441C0FA014C
:1056D000B383A283C191D191EC0FFD1FAE17BF0719
:1056E00081F4F901929182918C0F9D1F0296DA014B
:1056F00011969C938E938281938113969C938E93A3
:105700001297E0E0F0E002C0FB01BC01DB01129661
:105710008D919C9113970097B9F7CB0102962D912B
:105720003C911197820F931F2091CE043091CF04AA
:105730002817390769F4309729F41092D104109290
:10574000D00402C0138212827093CF046093CE04FF
:10575000DF91CF911F910F910895A4E0B0E0E2EBAB
:10576000FBE267C42B017A016115710529F0DB01A9
:105770008C9311969C931197E114F10439F09701E1
:10578000225030402332310508F0F8C06C01860108
:105790000894C11CD11CF80130803601832D90E0A3
:1057A000F5D00097A1F7FDE23F1661F4D8011196FC
:1057B0003C90119792E0692E712C600E711ECC24E2
:1057C000C3940BC0BBE23B1639F4F801318082E090
:1057D000682E712C600E711ECC24E114F10421F0AE
:1057E000F0E1EF16F104F9F480E3381691F4D301F7
:1057F0008C91883711F0883561F4F301318082E0B3
:1058000090E0680E791E92E0C92AB0E1EB2EF12CEF
:105810000AC0E114F10439F4A0E33A16D1F0AAE089
:10582000EA2EF12C2FC0BAE0EB16F10459F1E0E1B9
:10583000EE16F10429F0F8E0EF16F104B1F409C016
:10584000FFEF8F2EFFEF9F2EFFEFAF2EFFE0BF2E5B
:1058500021C078E0E72EF12CEFEF8E2EEFEF9E2E99
:10586000EFEFAE2EEFE1BE2E15C09701442737FDB6
:105870004095542F6FEF7FEF8FEF9FEFFCDD4901D5
:105880005A0108C069E9862E69E9962E69E9A62EB3
:1058900069E1B62E40E000E010E09801C701AA27B8
:1058A00097FDA095BA2F89839A83AB83BC8350ED73
:1058B000D52ED30C99E09D1570F4832D81548A3137
:1058C00018F499ECD92E06C0832D81568A3160F5E3
:1058D00089EAD82ED30C8D2D90E08E159F0524F5E6
:1058E0004F3FF1F080169106A206B306B0F0C90151
:1058F000B80129813A814B815C819EDD8B019C013D
:105900008D2D90E0A0E0B0E0080F191F2A1F3B1F6B
:10591000081719072A073B0710F44FEF01C041E0B1
:10592000D3013D903D01C3CF4114510489F044237C
:1059300039F0089461087108F2017182608208C030
:10594000C1FE06C0C3010297D20111969C938E93AB
:10595000C0FE07C030952095109501951F4F2F4F21
:105960003F4F47FF0EC082E290E09093D3048093B4
:10597000D2040FEF1FEF2FEF3FEF03C000E010E066
:105980009801B801C9012496E1E16FC39111ADC23C
:10599000803219F089508550D0F70895FB01DC0161
:1059A0008D91059080190110D9F3990B0895FB0191
:1059B000DC0105900D920020E1F70895DC01FB0168
:1059C0004150504058F049F005900D920020C1F729
:1059D000E61BF70B3197CF0108951C92059000202C
:1059E000E9F7F6CFDC0101C06D9341505040E0F77C
:1059F0000895FC01019006160110E1F73197CF01DF
:105A00000895FC0101900020E9F7809590958E0F94
:105A10009F1F0895AEE0B0E0EFE0FDE217C30D89EF
:105A20001E898F89988D2EE02C831A83098397FF16
:105A300002C080E090E801979E838D83AE01455EB1
:105A40005F4FCE010196698D7A8D39D04D815E818F
:105A500057FD0AC02F813885421753070CF49A016D
:105A6000020F131FF80110822E96E4E00BC3AEE084
:105A7000B0E0ECE3FDE2EAC28C018EE08C831A8395
:105A8000098377FF02C060E070E8615070407E8358
:105A90006D83CE010196BA01A90111D04D815E81BD
:105AA00057FD0AC02F813885421753070CF49A011D
:105AB000020F131FF80110822E96E4E0E3C2ADE05E
:105AC000B0E0E4E6FDE2B4C23C017D876C875A0198
:105AD000FC0117821682838181FFBBC12E010894CD
