:100000001DC4000042C4000040C400000C948E0ACD
:100010003CC400000C94ED0938C4000036C4000054
:1000200034C4000032C4000030C400002EC40000FC
:100030002CC400002AC4000028C4000026C400000C
:10004000B2C6000022C4000039C5000078C5000017
:100050001CC400001AC4000018C4000016C400002C
:1000600014C4000012C400000000000700020100D8
:100070000003040600000000000000000102040864
:100080001020408001020408102001020408102002
:10009000040404040404040402020202020203032E
:1000A00003030303000000002300260029000000D2
:1000B0000000250028002B0000000000240027007D
:1000C0002A0041726475696E6F2072657374617283
:1000D000746564210046726964676520646F6F729D
:1000E000206F70656E6564004672696467652064A0
:1000F0006F6F7220636C6F73656400506F73697407
:10010000697665207065616B2064657465637465EC
:10011000642E004472696674696E67207570206190
:10012000667465722068656174696E6720746F6FAC
:100130002073686F72742E005065616B3A202573CE
:1001400020457374696D617465643A2025732E20AF
:100150004E657720657374696D61746F723A2025FE
:1001600073004E65676174697665207065616B2008
:1001700064657465637465642E00447269667469AD
:100180006E6720646F776E20616674657220636F9E
:100190006F6C696E6720746F6F2073686F72742E56
:1001A000005065616B3A2025732E20457374696D8C
:1001B000617465643A2025732E204E65772065733F
:1001C00074696D61746F723A20257300202D2D2E95
:1001D0002D004D6F6465202020004265657220204F
:1001E000200046726964676520004672696467652D
:1001F00020436F6E73742E004265657220436F6EEC
:100200007374616E7400426565722050726F666926
:100210006C6520004F6666202020202020202020B2
:100220002000496E76616C6964206D6F6465200002
:1002300049646C6520666F722020202020202020D9
:1002400020202020005374617274696E67207570DD
:100250002E2E2E20202020202000436F6F6C696EF0
:100260006720666F72202020202020202020004858
:10027000656174696E6720666F72202020202020DF
:1002800020202000446F6F72206F70656E20202048
:1002900020202020202020200054656D702E206317
:1002A0006F6E74726F6C204F464620202000556E92
:1002B0006B6E6F776E2073746174757321202020CC
:1002C000202000207300202020202020004368618F
:1002D0006E67656420746F2070726F66696C65204C
:1002E0006D6F646520696E206D656E752E005465B6
:1002F0006D7020636F6E74726F6C207475726E65B2
:1003000064206F666620696E206D656E752E002014
:100310002020202020202020202020200042656551
:10032000722074656D702073657420746F2025735E
:1003300020696E204D656E752E0020202020200043
:100340004672696467652074656D702073657420FA
:10035000746F20257320696E204D656E752E002008
:100360002020202000005EBCE2613FDD83C29C7E35
:1003700020A3FD1F419DC3217FFCA2401E5F01E31E
:10038000BD3E6082DC237D9FC1421CFEA0E1BF5DBB
:100390000380DE3C62BEE0025CDF81633D7C22C004
:1003A0009E1D43A1FF4618FAA427799BC584DA381D
:1003B00066E5BB5907DB856739BAE406581947A5D6
:1003C000FB7826C49A653BD987045AB8E6A7F91B7F
:1003D00045C6987A24F8A6441A99C7257B3A6486BC
:1003E000D85B05E7B98CD2306EEDB3510F4E10F2E9
:1003F000AC2F7193CD114FADF3702ECC92D38D6F86
:1004000031B2EC0E50AFF1134DCE90722C6D33D152
:100410008F0C52B0EE326C8ED0530DEFB1F0AE4C6B
:100420001291CF2D73CA947628ABF517490856B4AC
:10043000EA6937D58B5709EBB536688AD495CB294D
:1004400077F4AA4816E9B7550B88D6346A2B759706
:10045000C94A14F6A8742AC896154BA9F7B6E80A33
:1004600054D7896B3544656661756C7420636F6E13
:100470007374616E7473206C6F616465642E0044E4
:10048000656661756C742073657474696E6773203A
:100490006C6F616465642E004E3A25530A00302E5D
:1004A000312E30002225732200496E76616C69641A
:1004B00020636F6D6D616E6420726563656976653A
:1004C000642062792041726475696E6F3A202563F9
:1004D00000543A7B224265657254656D70223A255C
:1004E000732C002242656572536574223A25732C81
:1004F000002242656572416E6E223A006E756C6C28
:100500002C00222573222C002246726964676554F0
:10051000656D70223A25732C002246726964676506
:10052000536574223A25732C00224672696467650C
:10053000416E6E223A006E756C6C2C00222573227F
:100540002C00225374617465223A25757D0A007D62
:100550000A006D6F646500626565725365740066BC
:100560007269646765536574006865617445737486
:1005700000636F6F6C4573740074656D70466F72C5
:100580006D61740074656D705365744D696E0074AF
:10059000656D705365744D6178004B70004B690058
:1005A0004B6400694D61784572720069646C6552F4
:1005B000616E6765480069646C6552616E67654C81
:1005C00000686561745461726765744800686561AC
:1005D000745461726765744C00636F6F6C54617220
:1005E0006765744800636F6F6C5461726765744C23
:1005F000006D61784865617454696D65466F724538
:100600007374006D6178436F6F6C54696D65466FEC
:1006100072457374006672696467654661737446F7
:10062000696C7400667269646765536C6F774669BC
:100630006C7400667269646765536C6F70654669B7
:100640006C7400626565724661737446696C74000F
:1006500062656572536C6F7746696C74006265659C
:1006600072536C6F706546696C74006265657244A4
:100670006966660064696666496E74656772616C76
:100680000062656572536C6F70650070006900648C
:10069000006573745065616B006E65675065616BD2
:1006A00045737400706F735065616B457374006EB1
:1006B00065675065616B00706F735065616B0022F8
:1006C000257522005265636569766564206E6577DD
:1006D0002073657474696E673A202573203D202568
:1006E00073004D6F64652073657420746F202563FB
:1006F00020696E2077656220696E74657266616339
:100700006500426565722074656D702073657420A4
:10071000746F2025732062792074656D7065726135
:10072000747572652070726F66696C652E00426523
:1007300065722074656D702073657420746F202558
:100740007320696E2077656220696E7465726661D8
:1007500063652E004672696467652074656D70205C
:1007600073657420746F20257320696E207765622D
:1007700020696E746572666163652E00436F756CE7
:1007800064206E6F742070726F636573732073657D
:100790007474696E67006E756C6C0025642E25306C
:1007A00031640025642E253032640025642E253006
:1007B000336400556E61626C6520746F2066696EEB
:1007C00064206164647265737320666F7220736560
:1007D0006E736F72206F6E2070696E2025640054F6
:1007E000656D70657261747572652073656E736F87
:1007F00072206F6E2070696E2025642064697363B7
:100800006F6E6E65637465640054656D70657261CA
:10081000747572652073656E736F72206F6E2070D1
:10082000696E202564207265636F6E6E6563746502
:100830006400580897131D179F13281711241FBE13
:10084000CFEFD8E0DEBFCDBF11E0A0E0B1E0E8EB34
:10085000FCE502C005900D92AC32B107D9F724E057
:10086000ACE2B1E001C01D92A63CB207E1F718E08E
:10087000C8E3D8E004C02297FE010E948F28C2334B
:10088000D107C9F7E3D40C94502EE9C4FC01848548
:100890009585FC01E05CFF4F20813181FC01EE5B1E
:1008A000FF4F80819181281B390B2F733327C9019A
:1008B0000895FC0184859585FC01E05CFF4F408133
:1008C0005181FC01EE5BFF4F2081318142175307BC
:1008D00041F00190F081E02DE80FF91F208130E018
:1008E00002C02FEF3FEFC9010895FC018485958573
:1008F000FC01E05CFF4F40815181FC01EE5BFF4F4A
:10090000208131814217530781F0A081B181A80F66
:10091000B91F8C91208131812F5F3F4F2F73332777
:1009200031832083282F30E002C02FEF3FEFC90131
:100930000895FC0181A1882329F0A489B5898C91AF
:1009400086FFFBCF11A20895CF93DF93FC0126858C
:100950003785D901A05CBF4F8D919C91119701966D
:100960008F739927E901CE5BDF4F48815981841746
:100970009507D9F30D90BC91A02DA20FB31F6C93D6
:10098000A685B785A05CBF4F11969C938E93A689D0
:10099000B7892C9181E090E0078C02C0880F991FE5
:1009A0000A94E2F7282B2C9381E081A30488F5892F
:1009B000E02D80818064808381E090E0DF91CF91A1
:1009C0000895CF92DF92EF92FF920F931F93CF93F0
:1009D000DF936C01EB017A01E60EF71E00E010E0F8
:1009E0000BC06991D601ED91FC910190F081E02D51
:1009F000C6010995080F191FCE15DF0591F7C8012B
:100A0000DF91CF911F910F91FF90EF90DF90CF90EA
:100A10000895833069F028F48130A1F0823011F517
:100A200014C08630B1F08730C1F08430D9F404C0EE
:100A3000809180008F7703C0809180008F7D8093AC
:100A40008000089584B58F7702C084B58F7D84BD02
:100A500008958091B0008F7703C08091B0008F7DA2
:100A60008093B00008950F931F93CF93DF9300D02E
:100A7000CDB7DEB78C0161157105B1F0CB0169838B
:100A80007A830E94F42AD801ED91FC910280F381CF
:100A9000E02DAC0169817A81C8010F900F90DF9140
:100AA000CF911F910F91099480E090E00F900F90EB
:100AB000DF91CF911F910F91089508951F920F928A
:100AC0000FB60F9211242F933F934F938F939F93C1
:100AD000EF93FF938091C00082FD1CC04091C6003F
:100AE0008091DA019091DB0101968F739927209113
:100AF000DC013091DD018217930771F0E091DA019A
:100B0000F091DB01E656FE4F40839093DB0180932A
:100B1000DA0102C08091C600FF91EF919F918F9101
:100B20004F913F912F910F900FBE0F901F901895EE
:100B300084E391E0ABDE892B09F0BFCF08951F92CB
:100B40000F920FB60F9211242F933F938F939F9381
:100B5000EF93FF9320919601309197018091980136
:100B6000909199012817390731F48091C1008F7D48
:100B70008093C10014C0E0919801F0919901EA5A64
:100B8000FE4F2081809198019091990101968F7379
:100B9000992790939901809398012093C600FF9123
:100BA000EF919F918F913F912F910F900FBE0F90DA
:100BB0001F901895CF92DF92EF92FF92CF93DF9321
:100BC000EC016A017B01411581EE58076105710551
:100BD000F9F0EC89FD8981E090E008A002C0880F5F
:100BE000991F0A94E2F7808360E079E08DE390E05A
:100BF000A70196010E942828215031094109510975
:100C00005695479537952795211580E1380798F037
:100C1000EC89FD89108260E874E88EE190E0A7011C
:100C200096010E9428282150310941095109569501
:100C3000479537952795E889F9893083EA89FB89B3
:100C4000208319A2EE89FF89408181E090E09C0118
:100C50000C8C02C0220F331F0A94E2F7422B408310
:100C6000EE89FF8940819C010D8C02C0220F331F49
:100C70000A94E2F7422B4083EE89FF8940819C0170
:100C80000E8C02C0220F331F0A94E2F7422B4083DE
:100C9000EE89FF8920810F8C02C0880F991F0A946A
:100CA000E2F7809582238083DF91CF91FF90EF90D0
:100CB000DF90CF900895D7CEDC01ED91FC910190AB
:100CC000F081E02D09944F925F926F927F929F92F4
:100CD000AF92BF92CF92DF92EF92FF920F931F934A
:100CE000CF93DF93CDB7DEB7A1970FB6F894DEBFF1
:100CF0000FBECDBF5C016A017B01922E19A281E07B
:100D0000821710F0EAE09E2E8E010F5D1F4F492CD6
:100D1000512C612C712CC701B601A30192010E94D4
:100D200028288C2D929E80191124015011098A3097
:100D300010F4805D01C0895CF801808369017A014B
:100D4000C114D104E104F10431F7B801C5018BDE0F
:100D5000A1960FB6F894DEBF0FBECDBFDF91CF9145
:100D60001F910F91FF90EF90DF90CF90BF90AF90C9
:100D70009F907F906F905F904F900895211531055F
:100D800041F4DC01ED91FC910190F081E02D642FA4
:100D9000099499CF9A01AB0160E070E0EFCF0C9419
:100DA00093280C942E291F920F920FB60F921124A4
:100DB0002F933F938F939F93AF93BF9380912C0179
:100DC00090912D01A0912E01B0912F013091DE0163
:100DD000232F2D5F2D3720F40196A11DB11D05C0D5
:100DE000232F2A570296A11DB11D2093DE01809367
:100DF0002C0190932D01A0932E01B0932F0180918F
:100E0000300190913101A0913201B09133010196EE
:100E1000A11DB11D8093300190933101A093320147
:100E2000B0933301BF91AF919F918F913F912F91DB
:100E30000F900FBE0F901F9018950F931F938FB7B1
:100E4000F89400912C0110912D0120912E013091E8
:100E50002F018FBFB801C9011F910F9108950F9302
:100E60001F939FB7F89400913001109131012091A8
:100E700032013091330186B5A89B06C08F3F21F027
:100E80000F5F1F4F2F4F3F4F9FBF322F212F102F2C
:100E90000027080F111D211D311DA2E0000F111F99
:100EA000221F331FAA95D1F7B801C9011F910F91D5
:100EB0000895CF92DF92EF92FF92CF93DF936B0171
:100EC0007C01CDDFEB010DC0CADF6C1B7D0B683EE2
:100ED000734038F081E0C81AD108E108F108C85120
:100EE000DC4FC114D104E104F10471F7DF91CF911B
:100EF000FF90EF90DF90CF900895019739F0880F21
:100F0000991F880F991F02970197F1F70895789418
:100F100084B5826084BD84B5816084BD85B58260FE
:100F200085BD85B5816085BDEEE6F0E0808181609C
:100F30008083E1E8F0E0108280818260808380819C
:100F400081608083E0E8F0E0808181608083E1EB74
:100F5000F0E0808184608083E0EBF0E0808181605C
:100F60008083EAE7F0E08081846080838081826012
:100F700080838081816080838081806880831092FB
:100F8000C1000895CF93DF9390E0FC01E458FF4F38
:100F90004491FC01E057FF4F8491882341F190E098
:100FA000880F991FFC01E854FF4F25913491D90116
:100FB00082559F4FFC0185919491C82FD92F9FB7DF
:100FC000F8948C91611106C0409584238C9388819C
:100FD000842308C0623041F4242F209582238C930F
:100FE0008881842B888302C0842B8C939FBFDF91E0
:100FF000CF9108950F931F93CF93DF931F92CDB797
:10100000DEB7282F30E0F901E859FF4F8491F9014C
:10101000E458FF4F1491F901E057FF4F049100236A
:10102000C9F0882319F06983F4DC6981E02FF0E0CE
:10103000EE0FFF1FE255FF4F85919491DC019FB7A2
:10104000F8948C91611103C01095812301C0812B0C
:101050008C939FBF0F90DF91CF911F910F910895B7
:10106000CF93DF93282F30E0F901E859FF4F8491A7
:10107000F901E458FF4FD491F901E057FF4FC491B3
:10108000CC2381F08111C5DCEC2FF0E0EE0FFF1FC7
:10109000EC55FF4F85919491DC018C918D2321E0DB
:1010A00030E011F420E030E0C901DF91CF910895E4
:1010B000109237011092360188EE93E0A0E0B0E084
:1010C0008093380190933901A0933A01B0933B018A
:1010D0008AE091E090933501809334018AE991E0B0
:1010E000909341018093400186E591E09093430104
:1010F0008093420185EC90E09093450180934401F8
:1011000084EC90E0909347018093460180EC90E05E
:10111000909349018093480181EC90E090934B01BA
:1011200080934A0182EC90E090934D0180934C01B2
:1011300086EC90E090934F0180934E0184E0809381
:10114000500183E08093510187E08093520185E054
:101150008093530181E08093540108950E94D51C2F
:1011600061E086E047DF61E085E044DF61E086E042
:1011700009DF61E085E006DF60E084E003DF0E94D4
:10118000291374D428D6A8D460ED77E080E090E0ED
:1011900090DE8BE594E00E9471158BE594E00E944F
:1011A00049168BE594E00E94A81684EE91E0F5D1F3
:1011B00082EC90E09F938F930E94E61D83EE91E076
:1011C00054D00F900F9044EF51E062E083EE91E035
:1011D0005CC00F931F9331DE0091DF011091E0019D
:1011E0002091E1013091E201601B710B820B930BA6
:1011F000693E73408105910528F11FDE6093DF0190
:101200007093E0018093E1019093E2010FD4E3D762
:10121000E2D562D438D48091EC01882321F0109279
:10122000EC010E94731A8BE594E00E94A8168BE5EE
:1012300094E00E942E168BE594E00E9480168BE5C8
:1012400094E028D21F910F910C947C2360DE86DFFE
:10125000C8E9D5E0BEDF2097E9F36ADCFBCF1F9237
:101260000F920FB60F921124FFCF61E083E08ADE68
:1012700081E28093B0008BE08093B1008DE7809392
:10128000B3008EE38093B4000895BF92CF92DF92B3
:10129000EF92FF920F931F93CF93DF93B62EC0E090
:1012A000D0E06A01E12CF12C062F10E00150110969
:1012B00014C08091B00080628093B000C701B60175
:1012C000F8DD8091B0008F7D8093B000C017D1070A
:1012D0001CF4C701B601EDDD2196CB1550F3DF916B
:1012E000CF911F910F91FF90EF90DF90CF90BF9023
:1012F0000895FC0198E0908F82E0818F92AB83ABE0
:10130000DF01A45BBF4F9C93E35BFF4F8083089595
:10131000FC01862F880F8C5F808F618F82AB63AB5F
:10132000DF01A45BBF4F8C93E35BFF4F60830895A5
:10133000FF920F931F93CF93DF938C01CB01C0E0FB
:10134000D0E02AE1F22EFC9E9001FD9E300D11248A
:10135000BC01C801820F931F0E942F17AB01219679
:10136000C330D10581F7DF91CF911F910F91FF908D
:101370000895AB01662757FD6095762FBA01552772
:101380004427D6DFAC01772757FD7095672FCA0138
:101390000895FC01E05CFF4F60817181828193813F
:1013A00008950F931F93CF93DF93EC018B010E945D
:1013B000DC17B801CE014A960E94DC17B801CE01B5
:1013C000C496DF91CF911F910F910C94DC1721E00F
:1013D000FC0120878BE594E0E4C11F920F920FB6C9
:1013E0000F9211242F933F934F935F936F937F93AB
:1013F0008F939F93AF93BF93EF93FF934F9903C046
:1014000084EE91E0E4DFFF91EF91BF91AF919F9166
:101410008F917F916F915F914F913F912F910F909D
:101420000FBE0F901F901895FF920F931F93CF93AD
:10143000DF93EC01F62E13DD0D851E852F8538898F
:10144000601B710B820B930B643F7140810591050A
:10145000C0F189858B87F9869B858985981789F1E5
:10146000FEDC6D877E878F87988B99858A85981398
:1014700004C08E819F81019603C08E819F81019758
:101480009F838E83888199814E815F81BC016F5FCC
:101490007F4F2A813B816417750714F43F832E83A5
:1014A0004E815F81215031094217530714F49F8305
:1014B0008E838BE594E0DF91CF911F910F91FF9088
:1014C00070C1DF91CF911F910F91FF900895FF920E
:1014D0000F931F93CF93DF93EC01F62EC0DC0989A5
:1014E0001A892B893C89601B710B820B930B643F1B
:1014F00071408105910560F08A858C87FA869C850C
:101500008A85981729F0ABDC698B7A8B8B8B9C8B47
:10151000DF91CF911F910F91FF9008951F920F922D
:101520000FB60F9211242F933F934F935F936F93B6
:101530007F938F939F93AF93BF93CF93DF93EF935B
:10154000FF93C3B1C170D3B1D695D1708091F90129
:10155000C81721F06C2F84EE91E066DF8091FA01CC
:10156000D81721F06D2F84EE91E0B1DFC093F9011F
:10157000D093FA01FF91EF91DF91CF91BF91AF919D
:101580009F918F917F916F915F914F913F912F919B
:101590000F900FBE0F901F901895CF93DF93EC0123
:1015A0008FEF9FE79983888380E090E89B838A830D
:1015B0001D821C821F821E82188681E089878A878D
:1015C0008B878C871D861E861F86188A198A1A8A21
:1015D0001B8A1C8A60E088E0D5DC60E089E0D2DC10
:1015E00060E087E0CFDC61E0CE011EDF61E0CE018C
:1015F0006EDFE8E6F0E0808185608083EBE6F0E076
:10160000808183608083EDE6F0E080818068808364
:10161000DF91CF910895FC018FB7F894660F771F83
:1016200077836683440F551F53834283220F331FF2
:1016300031832083758364838FBF0895FC014FB786
:10164000F8948681978186819781817019F0248131
:10165000358106C0268137813595279535832483CA
:101660004FBFC9010895CF93DF93EC01E7DF2091CD
:10167000FB013091FC018217930741F0CE01DEDFC0
:101680009093FC018093FB0181E001C08885DF918C
:10169000CF910895CF93DF93EC018D859E850E94B5
:1016A00018288935924018F08D81846002C08D81A0
:1016B0008B7F8D83DF91CF910895FA0125E1629FA1
:1016C000800D911D112420E030E070EBDC01A20FB1
:1016D000B31F1F966C916F3D11F4708301C060833E
:1016E0002F5F3F4F31962431310581F7FA01148A7B
:1016F000089561E08BE046DC61E08DE043DC61E071
:101700008AE040DC8CB58F7D8CBD8CB582608CBD51
:101710008DB581608DBD8CB588608CBD8CB58460C5
:101720008CBD8CB580618CBD8CB580648CBD0895FA
:10173000CF93DF93EC01862F6C8361E023DC88E29A
:101740008E83CE01D6DF80E090E040E20FC0DF0163
:10175000A20FB31F1F964C932F5F3F4F24313105CB
:10176000B1F713A245968435910531F020E030E0C1
:10177000FE01E80FF91FEBCF1E861D86DF91CF918A
:101780000895CF93DF93EC0160E08C8133DC8D8191
:101790008EBD0DB407FEFDCF61E08C81DF91CF914E
:1017A00029CCCF93DF93EC0148DB28EE33E040E017
:1017B00050E00E9428283E872D87CE016BDFCE01A6
:1017C000DF91CF91DECFCF93DF93EC018D818260EB
:1017D0008D83CE01D6DF81E090E08FDB8D818D7F20
:1017E0008D83CE01DF91CF91CCCFCF93DF93EC01EE
:1017F0008D8190E1699FB00111248F70862B8D83BC
:10180000CE01BFDFCE01DF91CF91DDCF0F931F93CC
:10181000CF93DF93EC01162F0FB7F8948D814423FB
:1018200011F0816001C08E7F8D83CE01AADF612F10
:1018300070E084E0759567958A95E1F7CE01D5DF74
:10184000612FCE01D2DF0FBFDF91CF911F910F919A
:1018500008951F93CF93DF93EC01162F41E0D6DF5D
:101860008B859A85FE0125E1929FE00DF11D1124E3
:10187000E80FF11D17878F5F8B8780EA9FE0019744
:10188000F1F781E090E0DF91CF911F91089540E062
:10189000BDDF80EA9FE00197F1F70895FC016085C4
:1018A0006E7F60876460F3CFFC016085262F226025
:1018B00020876660ECCFFC016781262F2460278398
:1018C0006C60E5CFCF93DF9300D000D0CDB7DEB70B
:1018D000198220E42A8324E12B8324E52C83FC0154
:1018E0002485421708F040E0FC0142876387FE012F
:1018F000E40FF11D2181260F2068622F0F900F90B9
:101900000F900F90DF91CF91C2CFCF93DF93EC0177
:1019100062E0BDDF1A861B86DF91CF91089561E0FA
:10192000B6CFCF93DF93EC014C871A861B8680E5F8
:1019300093ECE3DA63E0CE0158DF80E593ECDDDA87
:1019400063E0CE0152DF88EE93E0D7DA63E0CE01A8
:101950004CDF80E593ECD1DA62E0CE0146DF80E532
:1019600093ECCBDA68E2CE0192DFCE01D8DFCE0174
:101970009BDFCE0193DFCE01C8DFCE01DF91CF9197
:101980009ACF80914D0390914E030BDA80914F03D3
:10199000909150030E944B1580914E0490914F04FA
:1019A00000DA80915004909151040C944B15EF9201
:1019B000FF920F931F93CF93DF93EC0168830B96F5
:1019C00098DCCE01875A9F4F94DCCE0189559F4FFA
:1019D00090DC1A821B821C821D8219828FEF8E83FB
:1019E0008EE090E0DCD97C0168810E94221C8E018F
:1019F0000B501F4FF801F182E08287E090E00E94D7
:101A000038157C01F801608171819AD6C950DF4F89
:101A1000F982E882DF91CF911F910F91FF90EF90B3
:101A2000089510920C0210920B02089589E593E03C
:101A30000E94332780915A03811106C080912C02A5
:101A4000823671F0863661F088E592E00E94332795
:101A500080915902811109C088E592E00C947126A9
:101A600089E593E00E947126EFCF089581E080938D
:101A70000D0289E593E00E94712688E592E00E94BC
:101A80007126D4DFCECF80910D02833041F008F46F
:101A90000BC0843021F0853039F460E006C061E08D
:101AA00086E0A8DA60E004C061E086E0A3DA61E0E5
:101AB00085E0A0CA8091FD019091FE010C94182848
:101AC00080910102909102020C94182880910502E5
:101AD000909106020C941828EF92FF920F931F9397
:101AE000CF93DF9384E0BCDA892B71F480910D02EF
:101AF000833041F085ED90E09F938F930E94E61D27
:101B00000F900F9083E05EC120912C022F3611F4CC
:101B100082E058C180912F02909130028115904847
:101B200009F43EC180915902882309F439C180919A
:101B30005A03811138C1223609F432C1203709F025
:101B400032C12EC17AD928EE33E040E050E00E9445
:101B500028284427552720930502309306024093F6
:101B600007025093080280910B0281112DC18091D0
:101B70000C02811129C188E592E00E94FA27209188
:101B80002F02309130024091420250914302240FC3
:101B9000351F281739072CF580912C02863629F439
:101BA00089DF85389340B8F410C089E593E00E943E
:101BB000FA2720912D0230912E02821793070CF400
:101BC00003C178DF8D32914030F480910D02813075
:101BD00009F0FAC0F4C074DF8935924008F0EFC014
:101BE000F4CF88E592E00E94FA2720912F023091ED
:101BF00030024091440250914502240F351F821754
:101C000093070CF0E1C089E593E00E94FA27209148
:101C10002D0230912E02281739070CF4D5C04ADF67
:101C20008935924030F480910D02813009F0CCC0AA
:101C3000C8C046DF8D32914008F0C3C0F4CF81E0C8
:101C400080930B02FAD828EE33E040E050E00E9487
:101C50002828442755272093FD013093FE01409307
:101C6000FF0150930002C0915002D09151022EDF2B
:101C7000C817D90728F4809150029091510201C0F1
:101C800025DF7C01009133021091340288E592E057
:101C90000E94FA27EC019801D7010E94652820E1F3
:101CA0003EE040E050E00E944A28C21BD30BD09394
:101CB0002302C093220280912F02909130028C1750
:101CC0009D070CF481C002DF8D32914008F47CC086
:101CD0008091220290912302909325028093240206
:101CE0005FC081E080930C02A8D828EE33E040E08A
:101CF00050E00E9428284427552720930102309362
:101D000002024093030250930402C0914E02D0910C
:101D10004F02DCDEC817D90728F480914E0290915B
:101D20004F0201C0D3DE7C010091310210913202DA
:101D300088E592E00E94FA27EC019801D7010E9401
:101D4000652820E13EE040E050E00E944A28C20FB2
:101D5000D31FD0932302C093220280912F0290912F
:101D60003002C817D90784F1B1DE8D32914060F19D
:101D70008091220290912302909327028093260261
:101D80000FC084E06DD90197F9F488EE90E09F933D
:101D90008F930E94E61D10920D020F900F9014C0B9
:101DA00010920D0211C080910D02833051F308F49E
:101DB000C9CE843009F495CF853031F440CF85E029
:101DC00001C084E080930D02DF91CF911F910F91AC
:101DD000FF90EF9008954F925F926F927F928F9253
:101DE0009F92AF92BF92CF92DF92EF92FF9280913B
:101DF0002C02823619F0803709F058C120912D024B
:101E000030912E02211580E8380709F44AC18091EB
:101E1000F2039091F303A091F403B091F5032A1B10
:101E20003B0B30930F0220930E0289E593E00E9452
:101E30000828909315028093140280915A04982FD9
:101E40009F5F90935A048C3309F0A3C010925A04F8
:101E500020910E0230910F02A90137FF04C04427E0
:101E60005527421B530B60914002709141028091B3
:101E7000100290911102A0911202B0911302461724
:101E800057070CF071C0AC01BD01409550956095AD
:101E90007095442777FD4395552766277727E32FCD
:101EA000EE1FEE27EE1FE41709F448C00FDEE090A6
:101EB0002F02F09030028091380290913902E8169A
:101EC000F90641F48091360290913702E816F9063E
:101ED00009F45FC080910E0290910F0297FFEDC050
:101EE00088E592E00E94FA272CEFF21AE816F9062C
:101EF0000CF44FC0E2C0E0902F02F090300284E07A
:101F0000F81A88E592E00E94FA278E159F050CF4D6
:101F100040C040910E0250910F02662757FD609518
:101F2000762F8091100290911102A0911202B0912F
:101F30001302840F951FA61FB71F23C0A901440FCA
:101F4000551F440F551F662757FD6095762F480F84
:101F5000591F6A1F7B1F4093100250931102609318
:101F600012027093130215C0AC01BD0133E07595E8
:101F70006795579547953A95D1F7841B950BA60B16
:101F8000B70B8093100290931102A0931202B093AA
:101F9000130220913A0230913B02A0910E02B091BF
:101FA0000F020E9465286B017C0189E0F594E7949B
:101FB000D794C7948A95D1F7C0921602D09217028F
:101FC000E0921802F0921902A0913C02B0913D02F9
:101FD000209110023091110240911202509113028F
:101FE0000E9487284B015C0199E0B594A7949794CF
:101FF00087949A95D1F780921A0290921B02A09230
:102000001C02B0921D0220913E0230913F02A0912D
:102010001402B09115020E94652829E095958795D4
:10202000779567952A95D1F760931E0270931F02EA
:10203000809320029093210220912D0230912E0254
:102040002901662457FC6094762C4C0C5D1C6E1C98
:102050007F1C480C591C6A1C7B1C460E571E681EB0
:10206000791E2091360230913702A901662757FD6B
:102070006095762F441655066606770694F04091D3
:10208000380250913902662757FD6095762FD301AB
:10209000C201441555056605770514F4DB01CA0134
:1020A0009C013093300220932F0210C080E090E812
:1020B00090932E0280932D0209C080910E02909180
:1020C0000F02181619060CF416CF23CFFF90EF90CD
:1020D000DF90CF90BF90AF909F908F907F906F9048
:1020E0005F904F90089549E050E061E070E08CE22D
:1020F00092E00E94382D80912D0290912E029093B3
:102100000A02809309020895FC01CB0177FF03C006
:10211000919581959109B5E095958795BA95E1F7E7
:1021200097FD0EC08635910514F085E590E02AEA0A
:1021300031E0281B390B442737FD4095542F04C04C
:102140002AEA31E040E050E0A081B1810E94872876
:10215000A9E09595879577956795AA95D1F77183AD
:102160006083C1CFFC019B0177FF03C031952195AE
:10217000310945E0359527954A95E1F737FD0CC0C3
:102180002B39310514F02AE930E02A593D4F442714
:1021900037FD4095542F04C026E632E040E050E081
:1021A000A081B1810E94872861152EEF72072FEF61
:1021B000820791055CF4DC01CB0129E0B595A79578
:1021C000979587952A95D1F7BC0102C06FEF7FE7FD
:1021D0007183608388CFBF92CF92DF92EF92FF929C
:1021E0000F931F93CF93DF93CDB7DEB76B970FB6E7
:1021F000F894DEBF0FBECDBF80910C02882309F496
:102200004AC080910D02843009F445C085EE92E009
:10221000F5D67C0180912602909127028701081B48
:10222000190BE11420E8F206C9F080914602909162
:1022300047028017910724F4B80181E392E092DF0E
:1022400080914802909149020817190724F4B801B7
:1022500081E392E059DF8BEF90E079C031DC0A96A0
:102260008538934090F088E592E00E94FA2720910B
:102270002602309127024091480250914902240FD2
:10228000351F821793070CF457C01ADC853893402A
:1022900010F010920C0280910B02882309F4EBC01D
:1022A00080910D02853009F4E6C085EE92E0C7D634
:1022B0007C0180912402909125028701081B190B53
:1022C000E11480E8F806C9F080914C0290914D022B
:1022D0000817190724F4B80183E392E043DF8091E3
:1022E0004A0290914B028017910724F4B80183E3CE
:1022F00092E00ADF82E691E077C0DCDB0A96893063
:10230000974090F088E592E00E94FA2720912402FD
:102310003091250240914A0250914B02240F351F03
:10232000281739070CF45AC0C5DB8930974008F4E8
:10233000A2C010920B029FC088E592E00E94FA278B
:102340007C01B80181E392E0DFDE83E191E09F93BD
:102350008F930E94231E0F900F9040913102509155
:102360003202662757FD6095762F09E023E0CE0103
:1023700001960E943424C82EB92E40912602509115
:102380002702662757FD6095762F23E0CE010A9637
:102390000E94E424182FD92EA701662757FD6095C7
:1023A000762F23E0CE0143960E94E424BF92CF9281
:1023B000DF921F939F938F9388E391E09F938F9376
:1023C0000E94231E10920C02F0922B02E0922A022D
:1023D0000FB6F894DEBF0FBECDBF57CFB80183E371
:1023E00092E092DE8AE791E09F938F930E94231EF2
:1023F0000F900F904091330250913402662757FDA1
:102400006095762F09E023E0CE0101960E943424E6
:10241000C82EB92E4091240250912502662757FDFF
:102420006095762F23E0CE010A960E94E424182FAF
:10243000D92EA701662757FD6095762F23E0CE01A0
:1024400043960E94E424BF92CF92DF921F939F9302
:102450008F9381EA91E09F938F930E94231E1092A5
:102460000B02F0922902E09228020FB6F894DEBF28
:102470000FBECDBF59CF6B960FB6F894DEBF0FBE1F
:10248000CDBFDF91CF911F910F91FF90EF90DF9023
:10249000CF90BF90089549E050E061E070E08CE299
:1024A00092E00E94202D6091520283E692E00E9409
:1024B00088096091530281EB92E00E948809609143
:1024C00054028FEF92E00E9488096091550284E6E1
:1024D00093E00E9488096091560282EB93E00E948B
:1024E00088096091570280E094E00C94880982E6A4
:1024F00080932C0280E098E290932E0280932D022C
:102500009093300280932F0286E690E090933202FF
:102510008093310280E09AE09093340280933302FA
:10252000E2CD43E250E06AE070E085E392E00C9493
:10253000382D43E250E06AE070E085E392E00C94CD
:10254000202DCF93DF9383E48093350288E592E0DA
:1025500090934F0280934E0280EB94E0909351024F
:102560008093500280E09CE390933902809338027C
:1025700080E092E0909337028093360220E038E2C8
:1025800030933B0220933A0223E331E030933D0243
:1025900020933C0220E03AEF30933F0220933E022A
:1025A00020E031E0309341022093400290934302B7
:1025B0008093420280E09EEF909345028093440214
:1025C0008AE990E090934702809346028AE99FEF60
:1025D000909349028093480286E690E090934B02E4
:1025E00080934A0286E69FEF90934D0280934C02BF
:1025F00081E08093520261E083E692E00E948809C4
:10260000C4E0C093530264E081EB92E00E94880929
:10261000D3E0D093540263E08FEF92E00E948809E8
:10262000D093550263E084E693E00E94880985E038
:102630008093560265E082EB93E00E948809C09384
:10264000570264E080E094E00E948809DF91CF9116
:1026500068CF80E090E00E94302D813049F047DF64
:1026600070DF61E080E090E00E94592D3CDD59CFA1
:1026700012DF5FCF90912C02891791F010920D021A
:1026800080932C028F56823050F480E090E8909333
:102690002E0280932D029093300280932F0223CD3F
:1026A000089589E593E00C94FA27EDE2F2E0808149
:1026B0009181089588E592E00C94FA27EFE2F2E028
:1026C000808191810895CF93DF93EC0120912D02B9
:1026D00030912E0290932E0280932D02281B390BED
:1026E00037FF03C0319521953109213831050CF0B0
:1026F00098D971DBF1D92091090230910A022C1B83
:102700003D0B37FF03C03195219531092138310543
:102710001CF0DF91CF91E7CCDF91CF91089590939A
:10272000300280932F027DD956DBD6D9DCCC63E111
:1027300089E593E03CD962E188E592E038C921C996
:10274000FC01768365831482108289E090E0928395
:10275000818381E083830895CF93DF93EB0167E06A
:10276000CE010E94C91C91E02F81821390E0892F35
:10277000DF91CF910895EF92FF920F931F93CF9324
:10278000DF93EC018B01E42E8D819E810E94151C4C
:10279000F12C06C0B801CE01DFDF811109C00AC0EB
:1027A000B8018D819E810E94441C811107C009C01F
:1027B00081E008C0F394EF1420F0F2CFFE10FACFBE
:1027C000E9CF80E0DF91CF911F910F91FF90EF90C3
:1027D0000895EF92FF920F931F93CF93DF9300D052
:1027E000CDB7DEB77C018A01FC01858196816983C2
:1027F0007A83F8D669817A81F70185819681E7D756
:1028000040E06EEBF7018581968185D7F7018581E0
:102810009681C2D7F8018083F70185819681BCD764
:10282000F8018183F70185819681B6D7F80182830B
:10283000F70185819681B0D7F8018383F7018581FF
:102840009681AAD7F8018483F70185819681A4D760
:10285000F8018583F701858196819ED7F8018683EB
:10286000F7018581968198D7F8018783F7018581E3
:10287000968192D7F8018087F701858196810F9024
:102880000F90DF91CF911F910F91FF90EF90AAC60B
:10289000CF93DF93EA019DDF68E0CE010E94C91C5F
:1028A00091E02885821390E0892FDF91CF910895E0
:1028B000EF92FF920F931F93CF93DF93EC017B0175
:1028C0008A018D819E818ED6B7018D819E817FD7B1
:1028D00040E06EE48D819E811ED740E0F801628168
:1028E0008D819E8118D740E0F80163818D819E81A2
:1028F00012D7F7018081803131F040E0F801648126
:102900008D819E8108D78D819E816CD6488168E437
:102910008D819E8100D78881882331F06AE070E044
:1029200080E090E00E9459078D819E81DF91CF91D8
:102930001F910F91FF90EF9055C6EF92FF920F936A
:102940001F93CF93DF93CDB7DEB72A970FB6F894D6
:10295000DEBF0FBECDBF7C018B01242FAE014F5FC8
:102960005F4F2A8795DF2A858823D1F0F80180817F
:102970008031C1F02A3049F050F02B3021F02C305A
:1029800031F48FE705C08FE503C08FE301C08FE10D
:102990008D83AE014F5F5F4FB801C70189DF02C071
:1029A00080E001C081E02A960FB6F894DEBF0FBE2A
:1029B000CDBFDF91CF911F910F91FF90EF900895C0
:1029C000CF93DF93EC018D819E810CD68D819E810A
:1029D00029D7488164E48D819E819DD68B8188238F
:1029E00019F189819A818930910539F0ACF08A30EA
:1029F000910541F00B9781F40AC06EE570E080E02C
:102A000090E00EC06CEB70E080E090E009C067E7FA
:102A100071E080E090E004C06EEE72E080E090E053
:102A2000DF91CF910C945907DF91CF910895CF9307
:102A3000DF93CDB7DEB729970FB6F894DEBF0FBE90
:102A4000CDBFAE014F5F5F4F23DF882329F03A816E
:102A500020E08981282B02C021E83FEFC901299697
:102A60000FB6F894DEBF0FBECDBFDF91CF910895B2
:102A70000F931F93CF93DF93EC010E9493288C0157
:102A8000AE0160E070E00E94E52AC801DF91CF91BD
:102A90001F910F9108950C942E290F931F93CF939C
:102AA000DF93CDB7DEB765970FB6F894DEBF0FBEE4
:102AB000CDBF8C0144E150E0CE0101960E94D12AA5
:102AC000BE016F5F7F4FC8010E945B0665960FB61F
:102AD000F894DEBF0FBECDBFDF91CF911F910F9154
:102AE0000895CF93DF93EC01FC01ED59FF4F8FEF79
:102AF00080836AE0CE010E94980B44E064E1CE013D
:102B00000E94910CCE01DF91CF910C948F0CAF926B
:102B1000BF92CF92DF92EF92FF920F931F93CF93CA
:102B2000DF93CDB7DEB729970FB6F894DEBF0FBE9F
:102B3000CDBF6C01AB01662757FD6095762F09E08C
:102B400021E0EE24E394F12CEC0EFD1EC7010E945F
:102B5000E42400E010E0BE2CAF2C95E0E92EF12C2F
:102B600006C060E2C6010E94290C0F5F1F4F8B2D2B
:102B70009A2D0E94F42A9701281B390B021713077C
:102B800080F36B2D7A2DC6010E945B0629960FB645
:102B9000F894DEBF0FBECDBFDF91CF911F910F9193
:102BA000FF90EF90DF90CF90BF90AF9008956CECC6
:102BB00071E073CFCF93DF93EC0142E06CE00E94B1
:102BC000620C7CDD811520E8920721F4CE01DF91B3
:102BD000CF91EDCFBC01CE01DF91CF9198CFCF93B4
:102BE000DF93EC0142E066E00E94620C80915902A2
:102BF000882331F05FDDBC01CE01DF91CF9187CF1B
:102C0000CE01DF91CF91D3CFCF93DF93EC0141E0A1
:102C10006CE00E94620C49DD811520E8920721F4E6
:102C2000CE01DF91CF91C3CFBC01CE01DF91CF9117
:102C30006ECFCF93DF93EC0141E066E00E94620C1F
:102C400080915A03882331F02CDDBC01CE01DF9145
:102C5000CF915DCFCE01DF91CF91A9CFCF93DF93FD
:102C6000EC01E7DFCE01D0DFCE01B9DFCE01DF918D
:102C7000CF91A0CFCF93DF93D82FC92F6FED0E94B4
:102C8000290C609135028D2F9C2FDF91CF910C94F0
:102C9000290CCF93DF93D82FC92F40E060E00E942A
:102CA000620C62ED71E08D2F9C2FF7DE41E060E059
:102CB0008D2F9C2F0E94620C6AED71E08D2F9C2F4E
:102CC000ECDE42E060E08D2F9C2F0E94620C62EEF1
:102CD00071E08D2F9C2FE1DE41E062E18D2F9C2F72
:102CE0000E94620C8D2F9C2FC5DF42E062E18D2F88
:102CF0009C2F0E94620C8D2F9C2FDF91CF91BACF19
:102D0000CF93DF93D82FC92F40E067E00E94620C79
:102D100080912C02863649F018F4823691F408C06E
:102D20008F3661F0803769F406C06AEE71E00BC03F
:102D300068EF71E008C066E072E005C064E172E02F
:102D400002C062E272E08D2F9C2FDF91CF91A5CE61
:102D5000FF920F931F93CF93DF93EC0110910D021D
:102D6000FC01ED59FF4F8081181799F1FC2E0D2FB2
:102D700043E060E0CE010E94620C20910D022230FF
:102D8000D9F028F4222349F02130D1F409C02430AD
:102D900069F078F02530A1F406C060E372E00EC05F
:102DA00065E472E00BC06AE572E008C06FE672E0AD
:102DB00005C064E872E002C069E972E0CE0104C0B7
:102DC0006EEA72E08F2D902F68DEFE01ED59FF4F05
:102DD0001083111113C043E069E0CE010E94620C20
:102DE0000E945A0D8C010E94600D0817190718F4F3
:102DF0000E945A0D0DC00E94600D0AC0145012307E
:102E0000B0F443E06CE0CE010E94620C0E94660DBB
:102E10004AE050E0BC01CE010E94CA0663EC72E0B9
:102E2000CE01DF91CF911F910F91FF9036CEDF91B0
:102E3000CF911F910F91FF90089510925E04109210
:102E40005D048AE191E090935C0480935B040895B3
:102E50008AE191E090935C0480935B0408952F9243
:102E60003F924F925F926F927F928F929F92AF921A
:102E7000BF92CF92DF92EF92FF920F931F93CF9367
:102E8000DF93FC01448055806680778040865186C0
:102E90006286738680819181A281B38184839583C8
:102EA000A683B7834083518362837383C088D188AC
:102EB000E288F388C48AD58AE68AF78A848495846E
:102EC000A684B784808A918AA28AB38AC18DD08D64
:102ED0002D2E312C950184010C191D092E093F0955
:102EE000080D191D2A1D3B1D0C2E04C0B594A79476
:102EF000979487940A94D2F7081919092A093B096B
:102F00004601570104C0B594A79497948794CA9535
:102F1000D2F7080D191D2A1D3B1D4A015B010D2E1C
:102F200004C0B594A794979487940A94D2F7080D97
:102F3000191D2A1D3B1DA101415051094C015D0184
:102F400004C0B594A794979487944A95D2F7080D36
:102F5000191D2A1D3B1D04C075946794579447940E
:102F6000DA95D2F7040D151D261D371DC1010297F4
:102F700004C0F594E794D794C7948A95D2F70C19B6
:102F80001D092E093F090487158726873787B80151
:102F9000C901DF91CF911F910F91FF90EF90DF90CA
:102FA000CF90BF90AF909F908F907F906F905F90E9
:102FB0004F903F902F900895FC01AB01662757FD7D
:102FC0006095762FBA015527442740835183628349
:102FD00073834483558366837783408751876287F1
:102FE00073874487558766877787408B518B628BC1
:102FF000738B448B558B668B778B08950F931F9340
:10300000FC0140895189628973890485158526856B
:10301000378504171507260737075CF484899589D7
:10302000A689B789481759076A077B0714F09B01DF
:1030300002C020E030E8C9011F910F9108950F935D
:103040001F93FC0140895189628973890485158524
:103050002685378540175107620773075CF484891A
:103060009589A689B78984179507A607B70714F02D
:103070009B0102C020E030E8C9011F910F91089523
:10308000AF92BF92CF92DF92EF92FF920F931F9376
:10309000CF93DF93CDB7DEB729970FB6F894DEBF95
:1030A0000FBECDBF8BE594E0F4DDFFDA8C01811516
:1030B00020E8920721F4A12C88E2B82E01C05C011F
:1030C0006091380270913902882777FD8095982F9A
:1030D0000E9425267C016091360270913702882774
:1030E00077FD8095982F0E9425266C01B5018827D1
:1030F00077FD8095982F0E9425269701A601BC0197
:1031000084EE91E00E940B0B0E941D076B017C0175
:103110004EC084EE91E00E94330B882361F10E943F
:103120001D076B017C0184EE91E00E941E0B0E9442
:103130004326C9DA8BE594E067DD8091EC018823B2
:10314000B1F11092EC01B1DAAC01662757FD609540
:10315000762F09E021E0CE0101960E94E4249F939E
:103160008F938DE193E09F938F930AD50F900F90EB
:103170000F900F902BC0B11004C08BE594E044DD9C
:103180000EC080E8B8120BC041E06CE08BE594E023
:103190000E94620C6AE373E08BE594E07EDCB394FA
:1031A00063E070E080E090E00E94590701C0B12C1C
:1031B0000E941D076C197D098E099F0960317742B5
:1031C0008105910508F4A5CFC8017DDA29960FB6CF
:1031D000F894DEBF0FBECDBFDF91CF911F910F914D
:1031E000FF90EF90DF90CF90BF90AF900895AF9297
:1031F000BF92CF92DF92EF92FF920F931F93CF93E4
:10320000DF93CDB7DEB729970FB6F894DEBF0FBEB8
:10321000CDBF8BE594E03DDD51DA8C01811520E8CE
:10322000920721F4A12C98E2B92E01C05C016091B3
:10323000380270913902882777FD8095982F0E9477
:1032400025267C016091360270913702882777FD30
:103250008095982F0E9425266C01B501882777FD5F
:103260008095982F0E9425269701A601BC0184EE27
:1032700091E00E940B0B0E941D076B017C014EC068
:1032800084EE91E00E94330B882361F10E941D07B8
:103290006B017C0184EE91E00E941E0B0E9443268C
:1032A0003EDA8BE594E086DC8091EC018823B1F175
:1032B0001092EC0103DAAC01662757FD6095762F7A
:1032C00009E021E0CE0101960E94E4249F938F93B0
:1032D00080E493E09F938F9379D40F900F900F9099
:1032E0000F902BC0B11004C08BE594E063DC0EC0DE
:1032F00080E8B8120BC042E06CE08BE594E00E94DD
:10330000620C6FE573E08BE594E0C7DBB39463E098
:1033100070E080E090E00E94590701C0B12C0E944B
:103320001D076C197D098E099F096031774281055F
:10333000910508F4A5CFC801F2D929960FB6F894E3
:10334000DEBF0FBECDBFDF91CF911F910F91FF90D8
:10335000EF90DF90CF90BF90AF900895CF92DF9223
:10336000EF92FF920F931F93CF93DF9300D000D083
:10337000CDB7DEB78BE594E08CDC00912C02E02F1A
:10338000E656EB3028F4F0E0E25EFE4F608101C0CB
:1033900060E023E030E040E050E070E084EE91E057
:1033A0000E940B0B82E6898386E68A8380E78B8303
:1033B0008FE68C830E941D076B017C016CC084EE3C
:1033C00091E00E94330B882309F44AC00E941D0734
:1033D0006B017C0184EE91E00E941E0BE1E0F0E0C5
:1033E000EC0FFD1FE80FF91F808144D98BE594E0B5
:1033F00087DC8091EC01882309F44DC01092EC0128
:1034000080912C02823669F40F900F900F900F90EC
:10341000DF91CF911F910F91FF90EF90DF90CF90B0
:103420002FCE863669F40F900F900F900F90DF919A
:10343000CF911F910F91FF90EF90DF90CF90D7CE5B
:10344000803719F48DEC92E005C08F3609F03EC04C
:103450008EEE92E09F938F9393D30F900F9036C090
:10346000111104C08BE594E04BDC0DC0103859F409
:1034700040E067E08BE594E00E94620C6FE073E04F
:103480008BE594E00ADB1F5F63E070E080E090E092
:103490000E94590701C010E00E941D076C197D09A8
:1034A0008E099F09603177428105910508F487CF25
:1034B000802F0F900F900F900F90DF91CF911F9161
:1034C0000F91FF90EF90DF90CF90D4C80F900F90A6
:1034D0000F900F90DF91CF911F910F91FF90EF9080
:1034E000DF90CF900895CF92DF92EF92FF92CF932B
:1034F00022E030E040E050E060E070E084EE91E0F7
:103500000E940B0B0E941D076B017C01C0E058C09C
:1035100084EE91E00E94330B882329F00E941D075E
:103520006B017C0102C0C11105C08BE594E0B1DBE9
:10353000C0E011C0C03879F484EE91E00E941E0B07
:10354000482F60E08BE594E00E94620C66EC72E02C
:103550008BE594E0A2DA8091EC01882351F110927E
:10356000EC0184EE91E00E941E0B8130910559F030
:103570008230910599F0892BE1F4CF91FF90EF9083
:10358000DF90CF90EBCE82E675D88BE594E0B8DB88
:10359000CF91FF90EF90DF90CF9072CD86E66AD802
:1035A0008BE594E0ADDBCF91FF90EF90DF90CF9073
:1035B0001ECECF5F63E070E080E090E00E9459078C
:1035C0000E941D076C197D098E099F0960317742A1
:1035D0008105910508F49CCFCF91FF90EF90DF908B
:1035E000CF900895FF920F931F93CF93DF93FC0129
:1035F0001081C181D281F8948981012F00958023A7
:10360000898378948DE7F82EFA9431F182E090E086
:103610000E947D0788818123B9F3F8948A818023F1
:103620008A838981812B8983789484EF91E00E9439
:103630007D07F89489818023898380E590E00E944A
:103640007D0788818123C1E009F0C0E0789484EA95
:1036500091E00E947D0701C0C0E08C2FDF91CF91E7
:103660001F910F91FF9008951F93CF93DF93FC015B
:103670001081C181D281912F9095F8948A818923FC
:103680008A838981812B898360FF0BC08AE090E067
:103690000E947D078A81812B8A83789487E390E05A
:1036A0000AC081E490E00E947D078A81812B8A8391
:1036B000789485E090E0DF91CF911F910C947D0785
:1036C0000F931F93CF93DF93FC011081C181D281AF
:1036D000F8948981812B89838A81012F0095802329
:1036E0008A8383E090E00E947D078981802389831B
:1036F0008AE090E00E947D07C881789485E390E09D
:103700000E947D071C2381E009F480E0DF91CF91C6
:103710001F910F910895CF92DF92EF92FF920F9336
:103720001F93CF93DF931F92CDB7DEB76C01E62EC8
:1037300008E010E0FF24F3949F2D9E2161E009F43E
:1037400060E0C601498390DFFF0C015011094981F7
:103750000115110589F7411115C0F894D60111968C
:10376000ED91FC91129791818C91809589238183B1
:103770001196ED91FC91129792818C9180958923FD
:10378000828378940F90DF91CF911F910F91FF90DA
:10379000EF90DF90CF900895EF92FF920F931F93D9
:1037A000CF93DF938C01C8E0D0E0F12CEE24E394BA
:1037B000C80186DF8111FE28EE0C2197C9F78F2DF5
:1037C000DF91CF911F910F91FF90EF900895CF92CD
:1037D000DF92EF92FF920F931F93CF93DF931F928D
:1037E000CDB7DEB77C01162F40E065E5798393DF26
:1037F000C12E7981D72E00E010E0F60161916F01B2
:1038000040E0C70188DF0F5F1F4F08301105A9F79F
:103810000F90DF91CF911F910F91FF90EF90DF906C
:10382000CF90089540E06CEC76CFFC0113861586AE
:1038300014861286118610861782168215821482CB
:10384000138208951F93CF93DF93EC01162F60E04E
:10385000812F0E94C207612F70E0FB01E458FF4FE7
:10386000E491E883FB01E057FF4FE491F0E0EE0FB5
:10387000FF1FEC55FF4F8591949189839A83CE0168
:10388000DF91CF911F91D1CFBF92CF92DF92EF9274
:10389000FF920F931F93CF93DF93EC01C62EB72EA9
:1038A0008D85811151C0CE019DDE811104C01B8622
:1038B0001D861C8664C040E060EFCE012CDF01E075
:1038C000F12CE12C11E0CE01FBDED82ECE01F8DE8A
:1038D00091E0D91203C08130A1F42EC0D81219C0D2
:1038E0008B85181738F4FE01EF0DF11D83818023BD
:1038F00041F402C0181729F060E01930C8F51C87A0
:1039000037C0FE01EF0DF11D8381802B838361E0C1
:1039100009C06D2DFE01EF0DF11D202F2095938123
:1039200092239383CE01A0DE1F5F000F11F4F39466
:1039300001E087E08F1538F6113430F0EB86E110A6
:1039400019C081E08D8716C01B861D861C8680E00D
:10395000EC2DFB2D20E030E0DE01A20FB31F13960B
:103960009C9191932F5F3F4F28303105A9F707C0F5
:10397000E12ED0CF8B81882339F381E0E9CFDF912D
:10398000CF911F910F91FF90EF90DF90CF90BF905C
:103990000895DC0180E006C0ED91E827F0E0EB59E6
:1039A000FC4F84916150C0F7089540E051EE60E013
:1039B00070E084E391E00C94DA05CF93DF93CDB708
:1039C000DEB7C058D1090FB6F894DEBF0FBECDBF29
:1039D000FE01EB57FF4F419151919F0160E870E06C
:1039E000CE0101960E942A2BBE016F5F7F4F84E3B8
:1039F00091E00E945B06C058DF4F0FB6F894DEBF1F
:103A00000FBECDBFDF91CF910895CF92DF92EF929D
:103A1000FF920F93CF93DF93CDB7DEB729970FB601
:103A2000F894DEBF0FBECDBF6C017B010E94511325
:103A3000AC01662757FD6095762F09E022E0CE01A4
:103A40000196C2D79F938F9381ED94E09F938F93BC
:103A5000B4DF0E945513AC01662757FD6095762FA1
:103A600022E0CE010196B0D79F938F9383EE94E02E
:103A70009F938F93A2DF81EF94E09F938F939DDFBD
:103A80000FB6F894DEBF0FBECDBFC114D10441F410
:103A90008CEF94E09F938F9390DF0F900F900BC06B
:103AA000DF92CF9282E095E09F938F9386DF0F9015
:103AB0000F900F900F900E945A13AC01662757FD8C
:103AC0006095762F09E022E0CE0101967DD79F9385
:103AD0008F9388E095E09F938F936FDF0E945E1332
:103AE000AC01662757FD6095762F22E0CE01019646
:103AF0006BD79F938F9389E195E09F938F935DDFC1
:103B000089E295E09F938F9358DF0FB6F894DEBF5C
:103B10000FBECDBFE114F10441F486E395E09F931D
:103B20008F934BDF0F900F900BC0FF92EF928CE3BF
:103B300095E09F938F9341DF0F900F900F900F9020
:103B400080910D021F928F9382E495E09F938F9353
:103B500034DF0F900F900F900F9029960FB6F894C6
:103B6000DEBF0FBECDBFDF91CF910F91FF90EF90E1
:103B7000DF90CF90089560E070E080E090E045CF66
:103B8000CF93DF93CDB7DEB7C058D1090FB6F89405
:103B9000DEBF0FBECDBFFE01EB57FF4F41915191EC
:103BA0009F0160E870E0CE0101960E942A2B60E040
:103BB00070E0CE01019629DFC058DF4F0FB6F894B0
:103BC000DEBF0FBECDBFDF91CF910895CF93DF93BE
:103BD000CDB7DEB7C058D1090FB6F894DEBF0FBE1F
:103BE000CDBFFE01EB57FF4F419151919F0160E81E
:103BF00070E0CE0101960E942A2BBE016F5F7F4FBD
:103C000080E090E002DFC058DF4F0FB6F894DEBFCF
:103C10000FBECDBFDF91CF9108958FE495E09F93C4
:103C20008F93CBDE0F900F900895682F84E391E07F
:103C30000E945C066AE384E391E00E945C0681E0F6
:103C40008093BF0408950F931F93CF93DF93CDB755
:103C5000DEB7C058D1090FB6F894DEBF0FBECDBF96
:103C60008E0109571F4FF801819191918F0184E4D2
:103C7000DCDF9801C957DF4F48815981C758D040D0
:103C800060E870E0CE0101960E942A2BBE016F5FB2
:103C90007F4F84E391E00E945B066AE084E391E059
:103CA0000E945C06C058DF4F0FB6F894DEBF0FBE0F
:103CB000CDBFDF91CF911F910F910895CF93DF93E7
:103CC000EC018091BF04882311F06BE701C06CE226
:103CD00084E391E00E945C061092BF0462E284E3F8
:103CE00091E00E945C06DF93CF9367DE62E284E39B
:103CF00091E00E945C060F900F906AE384E391E0EC
:103D0000DF91CF910C945C06CF93DF9300D0CDB7B9
:103D1000DEB769837A83D2DF69817A8184E391E0B7
:103D20000F900F90DF91CF910C945B060F93CF9380
:103D3000DF93CDB7DEB72C970FB6F894DEBF0FBE7A
:103D4000CDBF86E572DF40910E0250910F026627CB
:103D500057FD6095762F0CE023E0CE01019623D726
:103D6000BC018BE696E0D0DF409110025091110229
:103D7000609112027091130223E0CE01019613D7D5
:103D8000BC0184E796E0C0DF409114025091150217
:103D9000662757FD6095762F23E0CE01019603D765
:103DA000BC0181E896E0B0DF409116025091170205
:103DB000609118027091190223E0CE01019654D54A
:103DC000BC018BE896E0A0DF40911A0250911B02E3
:103DD00060911C0270911D0223E0CE01019644D532
:103DE000BC018DE896E090DF40911E0250911F02C9
:103DF000609120027091210223E0CE01019634D51A
:103E0000BC018FE896E080DF4091220250912302AE
:103E1000662757FD6095762F23E0CE010196D4D515
:103E2000BC0181E996E070DF4091240250912502A7
:103E3000662757FD6095762F23E0CE010196C4D505
:103E4000BC0189E996E060DF40912602509127028B
:103E5000662757FD6095762F23E0CE010196B4D5F5
:103E6000BC0184EA96E050DF40912802509129027B
:103E7000662757FD6095762F23E0CE010196A4D5E5
:103E8000BC018FEA96E040DF40912A0250912B025C
:103E9000662757FD6095762F23E0CE01019694D5D5
:103EA000BC0187EB96E030DFB8DE2C960FB6F894B5
:103EB000DEBF0FBECDBFDF91CF910F910895CF939D
:103EC000C62FFCDE62E284E391E00E945C066C2F68
:103ED00084E391E00E945C0662E284E391E0CF918A
:103EE0000C945C060F93CF93DF93CDB7DEB72C977E
:103EF0000FB6F894DEBF0FBECDBF83E596DE6091AE
:103F00002C0282E595E0DBDF40912D0250912E02DC
:103F1000662757FD6095762F0CE022E0CE010196D2
:103F200053D5BC0187E595E0EFDE40912F0250911B
:103F30003002662757FD6095762F22E0CE0101966C
:103F400043D5BC018FE595E0DFDE40913102509111
:103F50003202662757FD6095762F23E0CE01019649
:103F600083D4BC0189E695E0CFDE409133025091C5
:103F70003402662757FD6095762F23E0CE01019627
:103F800073D4BC0181E795E0BFDE47DE2C960FB607
:103F9000F894DEBF0FBECDBFDF91CF910F91089592
:103FA000CF93DF9300D0CDB7DEB769837A8386DE07
:103FB0007A817F9369816F938FEB96E09F938F93C4
:103FC000FCDC0F900F900F900F900F900F90DF91EF
:103FD000CF9108950F93CF93DF93CDB7DEB72C9792
:103FE0000FB6F894DEBF0FBECDBF83E41EDE609136
:103FF000350289E795E063DF409136025091370240
:10400000662757FD6095762F0CE021E0CE010196E2
:10401000DBD4BC0184E895E077DE40913802509112
:104020003902662757FD6095762F21E0CE01019673
:10403000CBD4BC018FE895E067DE40913A02509105
:104040003B02662757FD6095762F23E0CE0101964F
:104050000BD4BC018AE995E057DE40913C025091B7
:104060003D02662757FD6095762F23E0CE0101962D
:10407000FBD3BC018DE995E047DE40913E025091B3
:104080003F02662757FD6095762F23E0CE0101960B
:10409000EBD3BC0180EA95E037DE409140025091BD
:1040A0004102662757FD6095762F23E0CE010196E9
:1040B0007AD5BC0183EA95E027DE40914202509117
:1040C0004302662757FD6095762F23E0CE010196C7
:1040D0006AD5BC018BEA95E017DE4091440250910D
:1040E0004502662757FD6095762F23E0CE010196A5
:1040F0005AD5BC0186EB95E007DE4091460250910F
:104100004702662757FD6095762F23E0CE01019682
:104110004AD5BC0181EC95E0F7DD40914802509111
:104120004902662757FD6095762F23E0CE01019660
:104130003AD5BC018DEC95E0E7DD40914A02509103
:104140004B02662757FD6095762F23E0CE0101963E
:104150002AD5BC0189ED95E0D7DD40914C02509104
:104160004D02662757FD6095762F23E0CE0101961C
:104170001AD5BC0185EE95E0C7DD60914E027091C5
:104180004F0281EF95E00CDF609150027091510277
:1041900083E096E005DF6091520270E085E196E0F1
:1041A000FFDE6091530270E084E296E0F9DE6091F8
:1041B000540270E083E396E0F3DE6091550270E014
:1041C00083E496E0EDDE6091560270E080E596E0D3
:1041D000E7DE6091570270E08DE596E0E1DE1DDDDF
:1041E0002C960FB6F894DEBF0FBECDBFDF91CF91F6
:1041F0000F9108950F931F93CF93DF938C01EB01E1
:10420000DF936F931F930F9324EC36E03F932F932C
:104210001ADD62E575E0C8010E94C12A0F900F9077
:104220000F900F900F900F90892B81F488810E943E
:104230003A1388811F928F9382EE96E09F938F931B
:10424000C5DC0F900F900F900F90C1C167E575E02E
:10425000C8010E94C12A892B59F5CE0179D48C015D
:1042600080912C028037A1F480912D0290912E0232
:104270009801281B390B37FF03C03195219531096F
:104280002536310584F0DF93CF9382E097E004C0B8
:10429000DF93CF938EE297E09F938F9371DC0F9023
:1042A0000F900F900F9010932E0200932D028FC14C
:1042B0006FE575E0C8010E94C12A892BB9F4CE01CF
:1042C00047D48C0180912C02863659F4DF93CF932A
:1042D00024E537E03F932F9379DC0F900F900F90F8
:1042E0000F901093300200932F0271C169E675E0C0
:1042F000C8010E94C12A892B39F4CE01A5D370933D
:1043000032026093310263C161E775E0C8010E9427
:10431000C12A892B39F4CE0197D37093340260936C
:10432000330255C169E775E0C8010E94C12A892B93
:1043300059F48881809335028BE594E0DF91CF9129
:104340001F910F910C94491664E875E0C8010E9412
:10435000C12A892B39F4CE01FBD390933702809385
:10436000360235C16FE875E0C8010E94C12A892B69
:1043700039F4CE01EDD3909339028093380227C1EE
:104380006AE975E0C8010E94C12A892B39F4CE017F
:104390005BD370933B0260933A0219C16DE975E0FB
:1043A000C8010E94C12A892B39F4CE014DD37093E4
:1043B0003D0260933C020BC160EA75E0C8010E94B7
:1043C000C12A892B39F4CE013FD370933F02609309
:1043D0003E02FDC063EA75E0C8010E94C12A892B34
:1043E00039F4CE010AD49093410280934002EFC089
:1043F0006BEA75E0C8010E94C12A892B39F4CE010D
:10440000FCD39093430280934202E1C066EB75E0D7
:10441000C8010E94C12A892B39F4CE01EED39093B2
:10442000450280934402D3C061EC75E0C8010E944C
:10443000C12A892B39F4CE01E0D3909347028093AF
:104440004602C5C06DEC75E0C8010E94C12A892BE7
:1044500039F4CE01D2D39093490280934802B7C079
:1044600069ED75E0C8010E94C12A892B39F4CE019B
:10447000C4D390934B0280934A02A9C065EE75E0C5
:10448000C8010E94C12A892B39F4CE01B6D390937A
:104490004D0280934C029BC061EF75E0C8010E9401
:1044A000C12A892B59F44AE050E060E070E0CE0167
:1044B00071D770934F0260934E0289C063E076E03B
:1044C000C8010E94C12A892B59F44AE050E060E0FB
:1044D00070E0CE015FD7709351026093500277C0B5
:1044E00065E176E0C8010E94C12A892B59F44AE0AF
:1044F00050E060E070E0CE014DD76093520283E659
:1045000092E058C064E276E0C8010E94C12A892B7B
:1045100059F44AE050E060E070E0CE013BD7609390
:10452000530281EB92E046C063E376E0C8010E944B
:10453000C12A892B59F44AE050E060E070E0CE01D6
:1045400029D7609354028FEF92E034C063E476E0A1
:10455000C8010E94C12A892B59F44AE050E060E06A
:1045600070E0CE0117D76093550284E693E022C035
:1045700060E576E0C8010E94C12A892B59F44AE01F
:1045800050E060E070E0CE0105D76093560282EB08
:1045900093E010C06DE576E0C801F3D7892B81F474
:1045A0004AE050E060E070E0CE01F4D6609357023C
:1045B00080E094E0DF91CF911F910F910C948809D6
:1045C0008CE797E09F938F933EDB0F900F90DF91E6
:1045D000CF911F910F9108950F931F93CF93DF9366
:1045E000CDB7DEB7EC970FB6F894DEBF0FBECDBFE8
:1045F00061E070E080E090E00E94590710E069C03F
:1046000061E070E080E090E00E94590784E391E06F
:104610000E947504182F8A33C9F0803261F08B37FD
:1046200051F0823241F0EFE1F0E0EC0FFD1FE00FBE
:10463000F11D80830F5F0D3110F053C000E084E363
:1046400091E00E94460418161906D4F2EFE1F0E05A
:10465000EC0FFD1FE00FF11D108200E01DC061E0B6
:1046600070E080E090E00E94590784E391E00E94AE
:104670007504182F8C32B9F08D37A9F0803251F0C3
:10468000823241F0E1E0F0E0EC0FFD1FE00FF11DA0
:1046900080830F5F0D3128F584E391E00E9446048A
:1046A00018161906E4F2E1E0F0E0EC0FFD1FE00F50
:1046B000F11D1082BE016F5F7F4FCE014F969ADDD4
:1046C0001D3739F40E9473100E9491120BDC82DCBA
:1046D00008C084E391E00E944604181619060CF401
:1046E000ADCFEC960FB6F894DEBF0FBECDBFDF9115
:1046F000CF911F910F910895DF92EF92FF920F9348
:104700001F93CF93DF93CDB7DEB765970FB6F894BD
:10471000DEBF0FBECDBF84E391E00E9446041816B1
:1047200019060CF093C084E391E00E947504992768
:104730008C36910509F44AC08CF48335910559F102
:104740002CF48334910509F076C01BC083369105A3
:1047500079F18A36910509F06EC06BC083379105F7
:1047600029F12CF48E36910509F065C025C08437F7
:10477000910529F08637910509F05DC01BC0FBD972
:1047800065C00E94A1128BE594E00E94491622DCCC
:1047900085E694E005C00E947712A4DB8FE794E0E1
:1047A0009F938F9350DA0F900F9050C09BDB4EC0B9
:1047B00011DC4CC0BBDA4AC08EE994E09F938F9322
:1047C00088E994E09F938F93F8D83CC08CE42DDA6D
:1047D0006BE584E391E00E945C06D12C8E010F5FB3
:1047E0001F4F84EAE82E84E0F82EA8016D2D8BE59A
:1047F00094E00E945D0B1F930F93FF92EF92DDD820
:104800000F900F900F900F9083E0D81611F06CE28C
:1048100001C06DE584E391E00E945C06D39484E0DE
:10482000D812E3CF69E271E084E391E00E945B0675
:104830000DC0D2DE0BC09F938F9389EA94E09F93C3
:104840008F9301DA0F900F900F900F9065960FB62F
:10485000F894DEBF0FBECDBFDF91CF911F910F91B6
:10486000FF90EF90DF9008950F931F93CF93DF9306
:10487000EC01122F77FF0AC08DE288837095609556
:10488000509541955F4F6F4F7F4F02C080E2888304
:10489000DB01CA01E9E0B595A79597958795EA955B
:1048A000D1F7FC019A01AB01317044275527113033
:1048B00071F5AAE0B0E021D47F5F8F4F9F4F49E0B0
:1048C00095958795779567954A95D1F76A307105E3
:1048D00019F4319660E070E07F936F93FF93EF934C
:1048E0008BE997E09F938F9310E0015011091F937C
:1048F0000F93CE0101969F938F937FD68DB79EB76E
:104900000A960FB6F8949EBF0FBE8DBF57C01230E7
:1049100071F5A4E6B0E0F1D37F5F8F4F9F4F39E090
:1049200095958795779567953A95D1F76436710592
:1049300019F4319660E070E07F936F93FF93EF93EB
:1049400083EA97E09F938F9310E0015011091F9322
:104950000F93CE0101969F938F934FD68DB79EB73D
:104960000A960FB6F8949EBF0FBE8DBF27C0A8EE63
:10497000B3E0C3D37F5F8F4F9F4F29E09595879515
:10498000779567952A95D1F77F936F93FF93EF9370
:104990008BEA97E09F938F9310E0015011091F93CA
:1049A0000F93CE0101969F938F9327D68DB79EB715
:1049B0000A960FB6F8949EBF0FBE8DBFCE01DF9151
:1049C000CF911F910F910895CF92DF92EF92FF92B6
:1049D0000F931F93CF93DF93D82FC92F6A017B01C9
:1049E000122F411580E858078FEF6807780729F4E0
:1049F00066E977E08D2FCED51CC0809135028634D4
:104A000081F4A9E0B0E09A01AB0177D325E030E072
:104A100040E050E03FD369017A0180E4D80EE11C08
:104A2000F11C212FB701A6018D2F9C2F1DDFD82F40
:104A3000C92F8D2F9C2FDF91CF911F910F91FF9048
:104A4000EF90DF90CF9008954F925F926F927F9298
:104A5000AF92BF92CF92DF92EF92FF920F931F938C
:104A6000CF93DF9300D0CDB7DEB78C01FC018081FE
:104A70008D3229F40F5F1F4FBB24B39401C0B12CBA
:104A80006EE270E0C801A8D53C014AE050E060E069
:104A900070E0C8017FD46B017C016114710469F17D
:104AA00083010F5F1F4F4AE050E0BE016F5F7F4FF1
:104AB000C80170D4AB01BC01A980A01A9A01AB0156
:104AC000A9E0220F331F441F551FAA95D1F700E01C
:104AD00010E0BAE04B2E512C612C712C0BC0CA0196
:104AE000B9016B5F7F4F8F4F9F4FA3019201D2D2CD
:104AF0000F5F1F4FA012F3CF03C020E030E0A901E9
:104B0000F9E0CC0CDD1CEE1CFF1CFA95D1F7C20EAF
:104B1000D31EE41EF51EBB2041F0F094E094D09427
:104B2000C094C11CD11CE11CF11CB601C7010F903F
:104B30000F90DF91CF911F910F91FF90EF90DF9039
:104B4000CF90BF90AF907F906F905F904F900895FF
:104B50007BDF9B01AC0180913502863459F4A5E0DE
:104B6000B0E0CBD270548140910929E030E040E0C0
:104B700050E090D2211580E838078FEF480758079A
:104B800074F0DA01C901811520E89207A105B10589
:104B900024F08FEF9FE7A0E0B0E09C0102C020E08E
:104BA00030E8C9010895CF92DF92EF92FF920F9300
:104BB0001F93CF93DF93EC016A017B01122F809149
:104BC0003502863461F4A9E0B0E09A01AB0195D2D8
:104BD00025E030E040E050E05DD269017A01212F0C
:104BE000B701A601CE0140DEDF91CF911F910F9159
:104BF000FF90EF90DF90CF90089526DF9B01AC01EE
:104C000080913502863441F4A5E0B0E076D229E007
:104C100030E040E050E03ED2211580E838078FEFC9
:104C20004807580774F0DA01C901811520E8920796
:104C3000A105B10524F08FEF9FE7A0E0B0E09C0153
:104C400002C020E030E8C90108959B01AC018091C9
:104C50003502863459F4A9E0B0E04FD225E030E0C7
:104C600040E050E017D2305C4F4F5F4FAAE0B0E019
:104C700044D27F5F8F4F9F4F20E032E040E050E012
:104C800009D2C9010895DC0180913502863491F47E
:104C900020E03AE02CD270588C40910929E030E0B5
:104CA00040E050E0F7D12B5F3F4F4F4F5F4FCA01BD
:104CB000B90110C0BD01882777FD8095982F29E0A4
:104CC000660F771F881F991F2A95D1F76B5F7F4F5B
:104CD0008F4F9F4F2AE030E040E050E0DBD1C90128
:104CE00008958F929F92AF92BF92CF92DF92EF92F0
:104CF000FF920F931F93CF93DF93EC01FC01EB50D6
:104D0000FF4F808191810E94F21A8E0107501F4F40
:104D10007E0127EFE20EF11C40E0B801F70180812F
:104D200091810E94BB13811119C00E941D0728EEBA
:104D300033E040E050E08CD12430310508F086C0EB
:104D400088811F928F9383EB97E09F938F930E94AC
:104D5000231E0F900F900F900F9078C04CE0B80179
:104D6000F701808191810E949D14F70180819181DA
:104D7000FC0113820E94E0140E941D076A837B835A
:104D80008C839D836EEE72E080E090E00E94590774
:104D9000B801F701808191810E9417156C010E9472
:104DA0001D078A809B80AC80BD80681979098A09BB
:104DB0009B09613D77408105910510F0198246C03D
:104DC00021E8C2162FEFD20619F3F70180819181F5
:104DD0000E94E0146EEE72E080E090E00E945907BD
:104DE000B801F701808191810E94171521E0298384
:104DF0008115FCEF9F076CF08C01811524E0920770
:104E000014F00FEF13E085E0000F111F8A95E1F712
:104E100002C000E010E8B801CE010B960E94D10953
:104E20007E0189E5E80EF11CB801C7010E94D10995
:104E300060E070E0CE0189559F4F0E94D109C70103
:104E40000E94C9096F83788789879A87DF91CF91FC
:104E50001F910F91FF90EF90DF90CF90BF90AF9098
:104E60009F908F900895EF92FF920F931F93CF938F
:104E7000DF93EC010E941D070A811B812C813D817B
:104E8000601B710B820B930B69387341810591058F
:104E900098F0FE01E950FF4F808191810E94E0145B
:104EA0000E941D076A837B838C839D836EEE72E074
:104EB00080E090E00E9459077E0139EFE30EF11C7B
:104EC0008E0109501F4FB701F801808191810E9426
:104ED000171529818138FFEF9F0789F4222369F094
:104EE00088811F928F938FED97E09F938F930E94FD
:104EF000231E0F900F900F900F90198274C02111F4
:104F00001BC060ED77E080E090E00E945907CE0181
:104F1000E8DE88811F928F9389E098E09F938F93BA
:104F20000E94231EB701F801808191810E9417150C
:104F30000F900F900F900F908115FCEF9F076CF072
:104F4000811524E0920714F08FEF93E07C0125E0B7
:104F5000EE0CFF1C2A95E1F703C0E12C90E8F92E36
:104F6000B701CE010B960E94B9098E01075A1F4F57
:104F7000B701C8010E94B9098E8181508E838D309E
:104F800039F4C8010E94C9096F83788789879A8795
:104F90008E8181111BC0C8010E94C909AB01BC01EF
:104FA0008F819885A985BA85481B590B6A0B7B0BA5
:104FB000CE0189559F4F0E949809C8010E94C909D6
:104FC0006F83788789879A878CE08E83FE01E9500A
:104FD000FF4F808191810E94E0140E941D076A8327
:104FE0007B838C839D83DF91CF911F910F91FF90E5
:104FF000EF900895855B9F4FFC0140815181628154
:105000007381AB01772757FD7095672FCA0108950B
:1050100089559F4F0E94C9099B01AC01ACE2B1E0E8
:105020006CD0AC01772757FD7095672FCA010895A2
:10503000CF93DF93EC010E941D0728EE33E040E0A0
:1050400050E006D02C1B3D0BC901DF91CF91089594
:10505000A1E21A2EAA1BBB1BFD010DC0AA1FBB1F7C
:10506000EE1FFF1FA217B307E407F50720F0A21BEE
:10507000B30BE40BF50B661F771F881F991F1A945B
:1050800069F760957095809590959B01AC01BD0185
:10509000CF010895052E97FB16F4009406D057FD16
:1050A0000CD0D6DF07FC09D07EF4909580957095E2
:1050B00061957F4F8F4F9F4F089550954095309544
:1050C00021953F4F4F4F5F4F089505D0332312F482
:1050D0008A1B9B0B0DC0A29FB001B39FC001A39F71
:1050E00001D0B29F700D811D1124911D0895F3DF31
:1050F000B7FF0895821B930B0895EDDFA59F900DD8
:10510000B49F900DA49F800D911D11240895B7FFA9
:10511000F4CFF3DF821B930B0895EE0FFF1F059072
:10512000F491E02D09940F931F93CF93DF93823076
:10513000910510F482E090E0E091C204F091C30484
:1051400020E030E0C0E0D0E023C04081518148172A
:105150005907A8F04817590761F482819381209775
:1051600019F09B838A832EC09093C3048093C2045A
:1051700029C02115310529F04217530710F0A90164
:1051800002C0BE01DF0102811381EF019A01F80123
:105190003097D9F62115310509F1281B390B243038
:1051A000310590F412968D919C91139761157105BC
:1051B00021F0FB019383828304C09093C304809306
:1051C000C204FD01329644C0FD01E20FF31F81933A
:1051D0009193225031092D933C933AC02091C00401
:1051E0003091C104232B41F420910201309103013D
:1051F0003093C1042093C00420910001309101013B
:105200002115310541F42DB73EB74091040150916D
:105210000501241B350BE091C004F091C104E21795
:10522000F307A0F42E1B3F0B2817390778F0AC01C9
:105230004E5F5F4F2417350748F04E0F5F1F5093A6
:10524000C1044093C0048193919302C0E0E0F0E078
:10525000CF01DF91CF911F910F910895EF92FF92AF
:105260000F931F93CF93DF93009709F48FC0DC0156
:10527000129713961C921E921297E090C204F0901F
:10528000C304E114F10489F42D913C911197280F86
:10529000391F8091C0049091C1048217930789F54A
:1052A000B093C104A093C00471C0E70120E030E0D6
:1052B00001C0EA01CA17DB0738F44A815B819E010D
:1052C00041155105B1F722C0BC0162507109FB01C3
:1052D000D383C28300811181AC01400F511F4C1751
:1052E0005D0761F448815981400F511F4E5F5F4F48
:1052F000518340834A815B81538342832115310569
:1053000029F4B093C304A093C20440C0F901B3834D
:10531000A283E90169917991C60FD71FAC17BD0728
:1053200079F4DC015E914E91460F571F4E5F5F4F3F
:105330005183408312968D919C911397938382831E
:10534000A0E0B0E002C0D7017C01F7018281938127
:105350000097C9F7C701029620813181820F931F00
:105360002091C0043091C1042817390779F41097AF
:1053700029F41092C3041092C20404C013961C9224
:105380001E921297F092C104E092C004CDB7DEB72E
:10539000E6E077C4A0E0B0E0EFECF9E24CC45B01DA
:1053A000EA016115710519F0FB0180839183209753
:1053B00039F09E01225031092332310508F0BEC078
:1053C0007C01F70191907F018F01892D90E0D1D070
:1053D000892BB9F7FDE29F1206C0F70191908F016A
:1053E0008824839407C0FBE29F1203C0F7019190C9
:1053F0008F01812C209709F4ABC0C031D10581F415
:10540000AEC0F8018081883719F0883509F09AC05C
:10541000F80191800E5F1F4FF2E08F2AC0E1D0E0CB
:10542000CA30D10519F1C031D10521F0C830D105FC
:1054300089F407C0CC24CA94DC2CEC2C3FE0F32E7A
:105440001BC0C8E0D0E0CC24CA94DC2CEC2C2FE1AB
:10545000F22E12C09E01442737FD4095542F6FEF66
:105460007FEFCB01F5DD69017A0106C099E9C92E0C
:10547000DC2CEC2C99E1F92E60E020E030E0A90171
:105480002E01662457FC6094762CE92DE053EA3017
:1054900060F0892D81548A3110F4E75006C0892DBF
:1054A00081568A3138F5E92DE7558E2F90E08C171B
:1054B0009D0704F56F3FD1F0C216D306E406F5064A
:1054C00090F0C301B201A6D39B01AC018E2F90E0F6
:1054D000A0E0B0E0280F391F4A1F5B1F28173907CB
:1054E0004A075B0710F46FEF01C061E0F80191908B
:1054F0008F01CBCFA114B10461F0662319F00150E4
:10550000110904C081FE05C002501109F501118383
:10551000008380FE07C050954095309521953F4F00
:105520004F4F5F4F67FF1FC082E290E09093C5042A
:105530008093C4042FEF3FEFA90115C020E030E0B5
:10554000A90111C080E3982E209709F47ACF68CF83
:10555000F0E39F1609F455CFCAE0D0E087CF80E38F
:1055600098125ECF4ECFB901CA01CDB7DEB7E0E1E8
:105570007EC39111ACC2803219F089508550D0F7AA
:105580000895FB01DC018D91059080190110D9F37C
:10559000990B0895FB01DC0105900D920020E1F7C5
:1055A0000895DC01FB014150504058F049F005904E
:1055B0000D920020C1F7E61BF70B3197CF0108953C
:1055C0001C9205900020E9F7F6CFDC0101C06D9335
:1055D00041505040E0F70895FC010190061601107B
:1055E000E1F73197CF010895FC0101900020E9F720
:1055F000809590958E0F9F1F0895AEE0B0E0E2E099
:10560000FBE225C30D891E898F89988D2EE02C839E
:105610001A83098397FF02C080E090E801979E8378
:105620008D83CE014B96AC01698D7A8DCE010196AA
:105630003AD04D815E8157FD0AC02F8138854217CF
:1056400053070CF49A01F801E20FF31F10822E9613
:10565000E4E019C3AEE0B0E0EFE2FBE2F8C28C0197
:10566000CA014EE04C831A83098377FF02C060E0D1
:1056700070E8615071097E836D83A901BC01CE0180
:10568000019611D04D815E8157FD0AC02F8138856A
:10569000421753070CF49A01F801E20FF31F10822E
:1056A0002E96E4E0F0C2ACE0B0E0E8E5FBE2C1C277
:1056B0007C016B018A01FC0117821682838181FFC4
:1056C000B9C188248394912C8C0E9D1EF70193817F
:1056D000F60193FD859193FF81916F01882309F471
:1056E000A5C1853239F493FD859193FF81916F01B6
:1056F000853221F4B70190E003D2E8CF512C312C50
:1057000020E02032A8F48B3261F028F4803251F08E
:10571000833271F40BC08D3239F0803349F421604B
:1057200028C02260246025C0286023C0206121C0D9
:1057300027FD27C0382F30533A3078F426FF06C0B3
:10574000FAE05F9E300D1124532E13C08AE0389E7C
:10575000300D1124332E20620CC08E3221F426FD30
:1057600065C1206406C08C3611F4206802C08836FA
:1057700041F4F60193FD859193FF81916F018111B1
:10578000C0CF982F9554933018F09052933028F44E
:105790000C5F1F4FFFE3F9830DC0833631F0833771
:1057A00071F0833509F05AC022C0F80180818983E5
:1057B0000E5F1F4F44244394512C540114C03801F0
:1057C000F2E06F0E711CF801A080B18026FF03C0CB
:1057D000652D70E002C06FEF7FEFC5012C8785D18A
:1057E0002C0183012C856FE7262E222217C0380159
:1057F000F2E06F0E711CF801A080B18026FF03C09B
:10580000652D70E002C06FEF7FEFC5012C8762D17C
:105810002C012C8550E8252E222A830123FC1AC056
:1058200005C0B70180E290E06BD13A94832D90E0FF
:1058300048165906B0F30EC0F50127FC859127FEE6
:1058400081915F01B70190E05BD131103A94F1E0B2
:105850004F1A51084114510479F7E5C0843611F00C
:10586000893639F5F80127FF07C06081718182818F
:1058700093810C5F1F4F08C060817181882777FD7D
:105880008095982F0E5F1F4F4FE6B42EB22297FFE0
:1058900009C090958095709561957F4F8F4F9F4F70
:1058A000F0E8BF2A2AE030E0A40156D1A82EA818BB
:1058B00042C0853731F43FEEB32EB2222AE030E009
:1058C00024C099EFB92EB2228F36B9F020F4883572
:1058D00009F0ACC00DC0803721F0883709F0A6C0B0
:1058E00002C020E1B22AB4FE0BC084E0B82A08C08E
:1058F00024FF09C0E6E0BE2A06C028E030E005C06B
:1059000020E130E002C020E132E0F801B7FE07C03C
:1059100060817181828193810C5F1F4F06C060811D
:10592000718180E090E00E5F1F4FA40115D1A82E79
:10593000A818FFE7BF22B6FE0BC02B2D2E7FA514A3
:1059400050F4B4FE0AC0B2FC08C02B2D2E7E05C058
:105950007A2C2B2D03C07A2C01C0752C24FF0DC08E
:10596000FE01EA0DF11D8081803311F4297E09C00A
:1059700022FF06C07394739404C0822F867809F0C6
:10598000739423FD13C020FF0EC05A2C731458F4D7
:10599000530C5718732C07C0B70180E290E02C8796
:1059A000AFD073942C857314B8F304C0731410F43F
:1059B000371801C0312C24FF11C0B70180E390E0FB
:1059C0002C879ED02C8522FF1CC021FF03C088E5B8
:1059D00090E002C088E790E0B7010CC0822F867883
:1059E00081F021FD02C080E201C08BE227FD8DE243
:1059F000B70190E085D005C0B70180E390E080D08A
:105A00005A94A514C8F3AA94F401EA0DF11DB70144
:105A1000808190E075D0A110F6CF05C0B70180E27B
:105A200090E06ED03A943110F9CF50CEF701268134
:105A3000378102C02FEF3FEFC9012C96E2E115C17B
:105A4000DC01CB01FC01F999FECF06C0F2BDE1BD3E
:105A5000F89A319600B40D9241505040B8F708952D
:105A6000F999FECF92BD81BDF89A992780B5089526
:105A7000DC01A40FB51F4150504040F0CB01840F12
:105A8000951F2E9105D041505040D8F70895262FEC
:105A9000F999FECF92BD81BDF89A019700B4021624
:105AA00039F01FBA20BD0FB6F894FA9AF99A0FBED2
:105AB0000895262FF999FECF1FBA92BD81BD20BD52
:105AC0000FB6F894FA9AF99A0FBE0196089599279D
:105AD00088270895FC010590615070400110D8F7A7
