:1000000085C30000AAC30000A8C300000C943F0AE7
:10001000A4C300000C948809A0C300009EC3000084
:100020009CC300009AC3000098C3000096C3000060
:1000300094C3000092C3000090C300008EC3000070
:1000400017C600008AC300009CC40000DBC4000087
:1000500084C3000082C3000080C300007EC3000090
:100060007CC300007AC3000000000007000201000A
:100070000003040600000000000000000102040864
:100080001020408001020408102001020408102002
:10009000040404040404040402020202020203032E
:1000A00003030303000000002300260029000000D2
:1000B0000000250028002B0000000000240027007D
:1000C0002A0041726475696E6F2072657374617283
:1000D000746564210046726964676520646F6F729D
:1000E000206F70656E6564004672696467652064A0
:1000F0006F6F7220636C6F73656400506F73697407
:10010000697665207065616B2064657465637465EC
:10011000642E004472696674696E67207570206190
:10012000667465722068656174696E6720746F6FAC
:100130002073686F72742E005065616B3A202573CE
:1001400020457374696D617465643A2025732E20AF
:100150004E657720657374696D61746F723A2025FE
:1001600073004E65676174697665207065616B2008
:1001700064657465637465642E00447269667469AD
:100180006E6720646F776E20616674657220636F9E
:100190006F6C696E6720746F6F2073686F72742E56
:1001A000005065616B3A2025732E20457374696D8C
:1001B000617465643A2025732E204E65772065733F
:1001C00074696D61746F723A20257300202D2D2E95
:1001D0002D004D6F6465202020004265657220204F
:1001E000200046726964676520004672696467652D
:1001F00020436F6E73742E004265657220436F6EEC
:100200007374616E7400426565722050726F666926
:100210006C6520004F6666202020202020202020B2
:100220002000496E76616C6964206D6F6465200002
:1002300049646C6520666F722020202020202020D9
:1002400020202020005374617274696E67207570DD
:100250002E2E2E20202020202000436F6F6C696EF0
:100260006720666F72202020202020202020004858
:10027000656174696E6720666F72202020202020DF
:1002800020202000446F6F72206F70656E20202048
:1002900020202020202020200054656D702E206317
:1002A0006F6E74726F6C204F464620202000556E92
:1002B0006B6E6F776E2073746174757321202020CC
:1002C000202000207300202020202020004368618F
:1002D0006E67656420746F2070726F66696C65204C
:1002E0006D6F646520696E206D656E752E005465B6
:1002F0006D7020636F6E74726F6C207475726E65B2
:1003000064206F666620696E206D656E752E002014
:100310002020202020202020202020200042656551
:10032000722074656D702073657420746F2025735E
:1003300020696E204D656E752E0020202020200043
:100340004672696467652074656D702073657420FA
:10035000746F20257320696E204D656E752E002008
:100360002020202000005EBCE2613FDD83C29C7E35
:1003700020A3FD1F419DC3217FFCA2401E5F01E31E
:10038000BD3E6082DC237D9FC1421CFEA0E1BF5DBB
:100390000380DE3C62BEE0025CDF81633D7C22C004
:1003A0009E1D43A1FF4618FAA427799BC584DA381D
:1003B00066E5BB5907DB856739BAE406581947A5D6
:1003C000FB7826C49A653BD987045AB8E6A7F91B7F
:1003D00045C6987A24F8A6441A99C7257B3A6486BC
:1003E000D85B05E7B98CD2306EEDB3510F4E10F2E9
:1003F000AC2F7193CD114FADF3702ECC92D38D6F86
:1004000031B2EC0E50AFF1134DCE90722C6D33D152
:100410008F0C52B0EE326C8ED0530DEFB1F0AE4C6B
:100420001291CF2D73CA947628ABF517490856B4AC
:10043000EA6937D58B5709EBB536688AD495CB294D
:1004400077F4AA4816E9B7550B88D6346A2B759706
:10045000C94A14F6A8742AC896154BA9F7B6E80A33
:1004600054D7896B3544656661756C7420636F6E13
:100470007374616E7473206C6F616465642E0044E4
:10048000656661756C742073657474696E6773203A
:100490006C6F616465642E004C3A0025733C4252D7
:1004A0003E000A00496E76616C696420636F6D6D71
:1004B000616E642072656365697665642062792087
:1004C00041726475696E6F3A20256300543A7B224D
:1004D0004265657254656D70223A25732C00224284
:1004E000656572536574223A25732C002242656556
:1004F00072416E6E223A006E756C6C2C0022257370
:10050000222C002246726964676554656D70223A38
:1005100025732C0022467269646765536574223A1C
:1005200025732C0022467269646765416E6E223A1B
:10053000006E756C6C7D0A00222573227D0A0044D2
:100540003A000A00533A7B00222573223A25737D34
:100550000A00433A7B00222573223A25757D0A0062
:10056000563A7B00222573223A25737D0A00222504
:1005700073223A25732C00222573223A2225632206
:100580002C00222573223A25752C00222573223A4D
:1005900025752C005265636569766564206E657704
:1005A0002073657474696E673A202573203D202599
:1005B00073004D6F64652073657420746F2025632C
:1005C00020696E2077656220696E7465726661636A
:1005D0006500426565722074656D702073657420D6
:1005E000746F2025732062792074656D7065726167
:1005F000747572652070726F66696C652E00426555
:1006000065722074656D702073657420746F202589
:100610007320696E2077656220696E746572666109
:1006200063652E004672696467652074656D70208D
:1006300073657420746F20257320696E207765625E
:1006400020696E746572666163652E00436F756C18
:1006500064206E6F742070726F63657373207365AE
:100660007474696E67006E756C6C0025642E25309D
:1006700031640025642E253032640025642E253037
:10068000336400556E61626C6520746F2066696E1C
:1006900064206164647265737320666F7220736591
:1006A0006E736F72206F6E2070696E202564005427
:1006B000656D70657261747572652073656E736FB8
:1006C00072206F6E2070696E2025642064697363E8
:1006D0006F6E6E65637465640054656D70657261FC
:1006E000747572652073656E736F72206F6E207003
:1006F000696E202564207265636F6E6E6563746534
:100700006400BC07C4148218C814851811241FBEC5
:10071000CFEFD8E0DEBFCDBF13E0A0E0B1E0E6E26E
:10072000F4E602C005900D92A833B107D9F716E0A0
:10073000A8E3B3E001C01D92AB3DB107E1F717E0BC
:10074000C8E0D7E004C02297FE010E94322CC230DC
:10075000D107C9F7D4D40C940732DAC4FC0124853C
:100760003585F901E05CFF4F808191812E5B3F4F21
:10077000F90120813181821B930B8F739070089552
:10078000FC0144855585FA01E05CFF4F8081918131
:10079000FA01EE5BFF4F208131818217930741F010
:1007A0000190F081E02DE40FF51F808190E0089525
:1007B0008FEF9FEF0895FC0144855585FA01E05CB9
:1007C000FF4F20813181FA01EE5BFF4F80819181E3
:1007D0002817390779F0A081B181A40FB51F8C913A
:1007E000208131812F5F3F4F2F7330703183208301
:1007F00090E008958FEF9FEF0895FC0181A1882379
:1008000029F0A489B5898C9186FFFBCF11A20895A8
:10081000CF93DF93DC011E964D915C911F97EA0107
:10082000C05CDF4F288139812F5F3F4F2F733070BD
:10083000FA01EE5BFF4F8081918128173907D9F3C8
:10084000E881F981E40FF51F60831E96ED91FC911C
:100850001F97E05CFF4F318320835696ED91FC910A
:100860005797208181E090E05F960C905F9702C0DF
:10087000880F991F0A94E2F7282B208381E0919634
:100880008C9391975496ED91FC915597808180645B
:10089000808381E090E0DF91CF910895CF92DF9245
:1008A000EF92FF920F931F93CF93DF936C017B0125
:1008B000EA0100E010E00EC0D7016D917D01D60184
:1008C000ED91FC910190F081E02DC6010995080F92
:1008D000191F2197209781F7C801DF91CF911F91B0
:1008E0000F91FF90EF90DF90CF900895833071F0DB
:1008F000843028F48130A1F0823021F514C0863094
:10090000B1F08730D1F08430E9F404C080918000E8
:100910008F7703C0809180008F7D80938000089541
:1009200084B58F7702C084B58F7D84BD0895809192
:10093000B0008F778093B00008958091B0008F7DD4
:100940008093B00008950F931F93CF93DF938C0192
:10095000EB01209771F0CB010E94B92EAC01D801B8
:10096000ED91FC910280F381E02DC801BE01099553
:1009700002C080E090E0DF91CF911F910F91089528
:1009800008951F920F920FB60F9211242F933F9349
:100990004F938F939F93EF93FF938091C00082FDBD
:1009A0001CC04091C6008091E6039091E703019638
:1009B0008F7390702091E8033091E90382179307B9
:1009C00071F0E091E603F091E703EA55FC4F4083B4
:1009D0009093E7038093E60302C08091C600FF91E5
:1009E000EF919F918F914F913F912F910F900FBE5B
:1009F0000F901F90189580E493E0B0DE009709F007
:100A0000BFCF08951F920F920FB60F9211242F930C
:100A10003F938F939F93EF93FF932091A203309185
:100A2000A3038091A4039091A5032817390731F4FB
:100A30008091C1008F7D8093C10014C0E091A40318
:100A4000F091A503EE59FC4F20818091A403909171
:100A5000A50301968F7390709093A5038093A403D0
:100A60002093C600FF91EF919F918F913F912F911D
:100A70000F900FBE0F901F901895BF92CF92DF92EC
:100A8000EF92FF920F931F93CF93DF93EC016A01D4
:100A90007B01BB24B394403081EE580780E06807A7
:100AA00080E0780749F4BB24EC89FD89108260E876
:100AB00074E88EE190E00FC0EC89FD8981E090E060
:100AC00008A002C0880F991F0A94E2F7808360E0B3
:100AD00079E08DE390E0A70196010E94DF2B890168
:100AE0009A010150104020403040369527951795C7
:100AF000079580E10030180710F0BB20A1F6E889C7
:100B0000F9891083EA89FB89008319A2EE89FF899C
:100B1000408121E030E0C9010C8C02C0880F991F90
:100B20000A94E2F7482B4083EE89FF894081C9018E
:100B30000D8C02C0880F991F0A94E2F7482B40835E
:100B4000EE89FF894081C9010E8C02C0880F991F70
:100B50000A94E2F7482B4083EE89FF8980810F8C4D
:100B600002C0220F331F0A94E2F720952823208326
:100B7000DF91CF911F910F91FF90EF90DF90CF9079
:100B8000BF900895E0CE08954F925F926F927F924A
:100B9000AF92BF92CF92DF92EF92FF920F931F938B
:100BA000CF93DF93CDB7DEB7A1970FB6F894DEBF32
:100BB0000FBECDBF5C01E42ECB01F22E19A221E0C5
:100BC0002F1510F03AE0F32E21E2C22ED12CCC0EDC
:100BD000DD1E4F2C55246624772403C0E02E512FB0
:100BE000C9016E2D752FA30192010E94DF2B89018F
:100BF0009A01F09E802D1124E81A8E2D0894C108C8
:100C0000D1088A3010F4805D01C0895CF6018083D0
:100C1000011511052105310509F7C501B60193DE5E
:100C2000A1960FB6F894DEBF0FBECDBFDF91CF9176
:100C30001F910F91FF90EF90DF90CF90BF90AF90FA
:100C40007F906F905F904F9008952115310549F482
:100C5000DC01ED91FC910190F081E02D642F09956C
:100C6000089592CF0C94362C08950C94CC2C0895B2
:100C70001F920F920FB60F9211242F933F938F93D1
:100C80009F93AF93BF938091380390913903A091C4
:100C90003A03B0913B033091EA03232F2D5F2D37A8
:100CA00020F40196A11DB11D05C0232F2A570296DD
:100CB000A11DB11D2093EA0380933803909339035B
:100CC000A0933A03B0933B0380913C0390913D0382
:100CD000A0913E03B0913F030196A11DB11D8093E9
:100CE0003C0390933D03A0933E03B0933F03BF9119
:100CF000AF919F918F913F912F910F900FBE0F90C9
:100D00001F9018950F931F938FB7F8940091380395
:100D10001091390320913A0330913B038FBFB80102
:100D2000C9011F910F9108950F931F939FB7F894D6
:100D300000913C0310913D0320913E0330913F030D
:100D400086B5A89B06C08F3F21F00F5F1F4F2F4F26
:100D50003F4F9FBF322F212F102F0027080F111D4B
:100D6000211D311D52E0000F111F221F331F5A9504
:100D7000D1F7B801C9011F910F910895CF92DF9269
:100D8000EF92FF92CF93DF936B017C01CDDFDC010B
:100D9000CB01EC010EC0C8DF6C1B7D0B83E0683E0D
:100DA000780738F00894C108D108E108F108C85163
:100DB000DC4FC114D104E104F10469F7DF91CF9154
:100DC000FF90EF90DF90CF900895019739F0880F52
:100DD000991F880F991F02970197F1F7089578944A
:100DE00084B5826084BD84B5816084BD85B5826030
:100DF00085BD85B5816085BDEEE6F0E080818160CE
:100E00008083E1E8F0E010828081826080838081CD
:100E100081608083E0E8F0E0808181608083E1EBA5
:100E2000F0E0808184608083E0EBF0E0808181608D
:100E30008083EAE7F0E08081846080838081826043
:100E4000808380818160808380818068808310922C
:100E5000C100089590E0FC01E458FF4F24918057B1
:100E60009F4FFC018491882341F190E0880F991FE6
:100E7000FC01E854FF4F45915491DA0182559F4F90
:100E8000FC0185919491FC019FB7F8948C916623A5
:100E900031F4209582238C938081822308C06230B4
:100EA00049F4322F309583238C938081822B808369
:100EB0009FBF0895822B8C939FBF08950F931F931C
:100EC000CF93DF930F92CDB7DEB7282F30E0F90133
:100ED000E859FF4F8491F901E458FF4F1491F9014B
:100EE000E057FF4F04910023C9F0882319F069836C
:100EF000FDDC6981E02FF0E0EE0FFF1FE255FF4FB0
:100F000085919491DC019FB7F8948C91662319F434
:100F10001095812301C0812B8C939FBF0F90DF918F
:100F2000CF911F910F910895CF93DF93282F30E039
:100F3000F901E859FF4F8491F901E458FF4FC4913A
:100F4000F901E057FF4FD491DD2389F0882309F0A0
:100F5000CDDCED2FF0E0EE0FFF1FEC55FF4F85913C
:100F60009491FC0120812C2381E090E011F480E039
:100F700090E0DF91CF9108951092430310924203C5
:100F800088EE93E0A0E0B0E08093440390934503A3
:100F9000A0934603B0934703E2E4F3E088E193E0D3
:100FA0009293829386EA93E09587848782E693E022
:100FB0009787868785EC90E0918B808B84EC90E01E
:100FC000938B828B80EC90E0958B848B81EC90E00E
:100FD000978B868B82EC90E0918F808F86EC90E0EF
:100FE000938F828F84E0848F83E0858F87E0868F64
:100FF00085E0878F81E080A30895CF93DF9380E41D
:1010000093E040E051EE60E070E037DD86E061E0C3
:1010100055DF85E061E052DF86E061E01BDF85E0BF
:1010200061E018DF84E060E015DF0E9422140E9476
:101030007714DED4F4D660ED77E080E090E09EDEB9
:10104000C3E7D6E0CE010E94B216CE010E949217ED
:10105000CE010E94FB174ED200D082EC90E0EDB79B
:10106000FEB7928381830E944D1F0F900F90CFEEA9
:10107000D3E0CE0153D0CE0162E044EF51E05ED028
:10108000DF91CF9108953EDEDC01CB014091EB036F
:101090005091EC036091ED037091EE03841B950B6E
:1010A000A60BB70B893E23E0920720E0A20720E0C1
:1010B000B207E8F027DEDC01CB018093EB039093CD
:1010C000EC03A093ED03B093EE036FD40E9488115C
:1010D0008FD4A5D642D683E796E00E94FB1783E71C
:1010E00096E00E94751783E796E00E94CA1797D290
:1010F000882319F097D20E94CD1B0C9428266FDE0E
:101100007CDFCBEFD4E0BFDF2097E9F374DCFBCFCB
:101110001F920F920FB60F921124FFCF83E061E070
:1011200099DE81E28093B0008BE08093B1008DE77F
:101130008093B3008EE38093B4000895BF92CF9262
:10114000DF92EF92FF920F931F93CF93DF93B62E10
:1011500000E010E06A01EE24FF24C62FD0E02197C2
:1011600015C08091B00080628093B000C701B601C5
:1011700005DE8091B0008F7D8093B0000C171D07B5
:101180001CF4C701B601FADD0F5F1F4F0B1548F3C2
:10119000DF91CF911F910F91FF90EF90DF90CF9053
:1011A000BF900895EF92FF920F931F93CF93DF9319
:1011B000EC010E9488188E01065E1F4FC8010E9434
:1011C000881824E3E22EF12CEC0EFD1EC7010E94CC
:1011D0008818CE0162E00E948F18C80162E00E9468
:1011E0008F18C70162E00E948F18DF91CF911F9185
:1011F0000F91FF90EF9008950F931F93CF93DF937C
:101200008C01009759F0EC01C25BDF4FC017D1078A
:1012100029F06A97CE010E948E18F8CFDF91CF9106
:101220001F910F9108951F93CF93DF93EC01162F19
:101230000E948F18CE014A96612F0E948F18CE010E
:10124000C496612F0E948F18DF91CF911F9108954E
:10125000EF92FF920F931F93CF93DF938C01F62FA2
:10126000E72FC0E0D0E03AE1E32EF12CCE9D9001D3
:10127000CF9D300DDE9D300D1124C801820F931FCC
:101280006F2F7E2F0E949618AB01F82FE92F219621
:10129000C330D10559F7DF91CF911F910F91FF9086
:1012A000EF9008959B01A901662757FD6095762F61
:1012B000BA0155274427CCDFAB01BC01AB0177272E
:1012C00057FD7095672FCA010895C4960C9446196E
:1012D000C4960C9452190F931F93CF93DF93EC0194
:1012E0008B010E945819CE014A96B8010E945819E4
:1012F000CE01C496B8010E945819DF91CF911F9179
:101300000F910895C4960C947A19C4960C94991967
:101310001F920F920FB60F9211248F934F9903C013
:1013200081E08093FC038F910F900FBE0F901F9070
:1013300018950F931F93CF93C82FF6DCAB01BC0118
:101340000091F4031091F5032091F6033091F70317
:10135000401B510B620B730B40328EE4580780E048
:10136000680780E0780708F450C08091FB03809301
:10137000F903C093FB039091F9038091FB03981745
:1013800009F443C0D1DCDC01CB018093F4039093DA
:10139000F503A093F603B093F7039091FB038091BC
:1013A000FA03981731F48091FD039091FE030196A2
:1013B00005C08091FD039091FE0301979093FE0379
:1013C0008093FD0360910304709104048091FD03F8
:1013D0009091FE039B012F5F3F4F4091010450917C
:1013E00002042817390724F45093FE034093FD03A9
:1013F0008091FD039091FE03415050408417950762
:1014000024F47093FE036093FD03CF911F910F911D
:1014100008950F931F93CF93C82F86DCAB01BC01B7
:101420000091F0031091F1032091F2033091F30346
:10143000401B510B620B730B40328EE4580780E067
:10144000680780E07807B8F08091FA038093F8038A
:10145000C093FA039091F8038091FA03981759F01A
:1014600063DCDC01CB018093F0039093F103A09344
:10147000F203B093F303CF911F910F9108951F9240
:101480000F920FB60F9211242F933F934F935F93B8
:101490006F937F938F939F93AF93BF93CF93DF937C
:1014A000EF93FF93C3B1C170D1E0199BD0E080915D
:1014B0000504C81711F08C2F3CDF80910604D81763
:1014C00011F08D2FA6DFC0930504D0930604FF9181
:1014D000EF91DF91CF91BF91AF919F918F917F91CC
:1014E0006F915F914F913F912F910F900FBE0F9091
:1014F0001F9018958FEF9FE7909304048093030447
:1015000080E090E89093020480930104109200041C
:101510001092FF031092FE031092FD031092FC0341
:1015200081E08093FB038093FA038093F903809317
:10153000F8031092F4031092F5031092F603109240
:10154000F7031092F0031092F1031092F20310923D
:10155000F30388E060E07EDC89E060E07BDC87E02C
:1015600060E078DC81E0E5DE81E053DFE8E6F0E092
:10157000808185608083EBE6F0E0808183608083FA
:10158000EDE6F0E080818068808308952FB7F894BD
:10159000880F991F9093FE038093FD03660F771FBA
:1015A0007093020460930104440F551F5093040488
:1015B00040930304909300048093FF032FBF08958A
:1015C0002FB7F8948091FD039091FE038091FD0365
:1015D0009091FE03817029F08091FF0390910004A7
:1015E0000AC08091FD039091FE0395958795909395
:1015F00000048093FF032FBF0895E2DF20910704CA
:10160000309108048217930739F0DADF90930804C9
:101610008093070481E008958091FC0308958091F0
:10162000FC0308951092FC0308958BE061E012DC46
:101630008DE061E00FDC8AE061E00CDC8CB58F7D31
:101640008CBD8CB582608CBD8DB581608DBD8CB537
:1016500088608CBD8CB584608CBD8CB580618CBD80
:101660008CB580648CBD0895CF93DF93EC01862FF9
:101670006C8361E0EFDB88E28E83CE01D6DF24E06D
:1016800030E20DC0FE01E80FF91F35870196843165
:101690009105C1F719A221506596222319F080E027
:1016A00090E0F0CFDF91CF910895CF93DF93EC01DD
:1016B0008C8160E003DC8D818EBD0DB407FEFDCF13
:1016C0008C8161E0FBDBDF91CF910895CF93DF93B5
:1016D000EC018D8182608D83CE01E7DF81E090E0B7
:1016E00074DB8D818D7F8D83CE01DFDFDF91CF9124
:1016F0000895CF93DF93EC018D816295607F8F70A9
:10170000682B6D83CE01D1DFCE01E0DFDF91CF9179
:1017100008951F93CF93DF93EC01162F8D814423FF
:1017200011F0816001C08E7F8D83CE01BEDF212F3D
:1017300030E044E0359527954A95E1F7CE01622FD8
:10174000D8DFCE01612FD5DFDF91CF911F910895B2
:101750001F93CF93DF93EC01162F41E0DADF4B8527
:101760008A8590E025E130E0829FF001839FF00DB3
:10177000929FF00D1124EC0FFD1FE40FF11D158752
:101780004F5F4B8780EA9FE00197F1F781E090E09F
:10179000DF91CF911F91089540E0BBDF80EA9FE089
:1017A0000197F1F70895FC0160856E7F60876460A2
:1017B000F3CFFC016085262F226020876660ECCF86
:1017C000FC016781262F246027836C60E5CFCF93CF
:1017D000DF9300D000D0CDB7DEB7198220E42A8392
:1017E00024E12B8324E52C83FC012485421708F097
:1017F00040E0FC0142876387FE01E40FF11D218177
:10180000260F2068622FC8DF0F900F900F900F9067
:10181000DF91CF910895CF93DF93EC0162E0BCDFBD
:101820001A861B86DF91CF91089561E0B5CFCF93E3
:10183000DF93EC014C871A861B861D8236DF80E51C
:1018400093ECC3DACE0163E054DF80E593ECBDDABC
:10185000CE0163E04EDF88EE93E0B7DACE0163E0BD
:1018600048DF80E593ECB1DACE0162E042DF80E54B
:1018700093ECABDACE0168E28FDFCE01D6DFCE018A
:1018800098DFCE0190DFCE01C6DFCE0199DFDF9178
:10189000CF910895DA0120E030E075E1679FB00153
:1018A0001124680F791F90EBFB01E20FF31F858570
:1018B0008F3D11F49C9301C08C932F5F3F4F119685
:1018C0002431310589F7FA01148A0895EF92FF92C5
:1018D0000F931F93CF93DF93EC0168830B9662DC29
:1018E000CE01875A9F4F5EDCCE0189559F4F5ADC4F
:1018F0001A821B821C821D8219828FEF8E838EE0DA
:1019000090E0B0D98C0168810E94721D25EFE22E13
:10191000F12CEC0EFD1EF7011183008387E090E0AF
:101920000E9461168C01F701608171810E94CC14C4
:10193000C950DF4F19830883DF91CF911F910F9119
:10194000FF90EF900895CF93DF93EC01FC01EB50F3
:10195000FF4F8081918189D9FE01E950FF4F80813D
:1019600091810E947416CE0189559F4F45DCCE01AE
:10197000875A9F4F41DCCE010B963EDCDF91CF9121
:1019800008958130910541F481E795E063E19EDFA0
:1019900080E794E062E19ACF009731F480E794E029
:1019A000D2DF81E795E0CFCF089581E795E00E94EF
:1019B000872A81E795E00E94842A882351F4809148
:1019C0003C04823611F0863621F481E795E00E94CE
:1019D000B22980E794E00E94872A80E794E00E9481
:1019E000842A882321F480E794E00C94B229089596
:1019F0008F929F92AF92BF92CF92DF92EF92FF921F
:101A000080913C04823619F0803709F097C1C0906C
:101A10003D04D0903E0480E0C81680E8D80629F442
:101A2000D0924004C0923F048FC181E795E00E94AC
:101A3000842BC81AD90AD0921B04C0921A0481E7D9
:101A400095E00E94882BFC01909321048093200450
:101A500080917206982F9F5F909372068C3309F0E5
:101A600054C01092720620911A0430911B04D901BF
:101A700037FF04C0AA27BB27A21BB30B80915804D1
:101A80009091590440911C0450911D0460911E04D2
:101A900070911F04A817B9071CF580915404909108
:101AA00055048E179F07E4F08091560490915704D7
:101AB000E817F907ACF0AB31B1053CF1C901AA2731
:101AC00097FDA095BA2F840F951FA61FB71F80936F
:101AD0001C0490931D04A0931E04B0931F0415C012
:101AE000DB01CA01E3E0B595A79597958795EA953F
:101AF000D1F7481B590B6A0B7B0B40931C04509386
:101B00001D0460931E0470931F0420911A043091E9
:101B10001B0480912E0490912F04AA2797FDA09575
:101B2000BA2F4427582F692F7A2F481B590B6A0B5D
:101B30007B0B37FF2BC080914C0490914D04AA275A
:101B400097FDA095BA2F480F591F6A1F7B1F452F7D
:101B5000562F672F772767FD7A9550932F04409370
:101B60002E048091300490913104AA2797FDA0950E
:101B7000BA2F4427582F692F7A2F481B590B6A0B0D
:101B80007B0B80915004909151042AC080914A04AB
:101B900090914B04AA2797FDA095BA2F480F591F83
:101BA0006A1F7B1F452F562F672F772767FD7A9572
:101BB00050932F0440932E0480913004909131046F
:101BC000AA2797FDA095BA2F4427582F692F7A2F5F
:101BD000481B590B6A0B7B0B809152049091530464
:101BE000AA2797FDA095BA2F480F591F6A1F7B1F80
:101BF000452F562F672F772767FD7A95509331042D
:101C00004093300460912E0470912F04882777FD53
:101C10008095982F442737FD4095542F0E94AD2B77
:101C20004B015C01F9E0B594A79497948794FA95D9
:101C3000D1F78092220490922304A0922404B092BF
:101C4000250460914E0470914F04882777FD80959C
:101C5000982F20911C0430911D0440911E04509136
:101C60001F040E94AD2B6B017C01A9E0F594E79461
:101C7000D794C794AA95D1F7C0922604D09227048E
:101C8000E0922804F09229046091300470913104AC
:101C9000882777FD8095982F20912004309121048A
:101CA000442737FD4095542F0E94AD2BAB01BC015A
:101CB000B9E07595679557954795BA95D1F74093D3
:101CC0002A0450932B0460932C0470932D0480916C
:101CD0003D0490913E04AA2797FDA095BA2F880D48
:101CE000991DAA1DBB1D8C0D9D1DAE1DBF1D840F12
:101CF000951FA61FB71F2091460430914704A901E4
:101D0000662757FD6095762F84179507A607B707B6
:101D100084F04091480450914904662757FD60952E
:101D2000762F481759076A077B0714F4DB01CA01AD
:101D30009C013093400420933F0406C080E090E86B
:101D400090933E0480933D04FF90EF90DF90CF90FE
:101D5000BF90AF909F908F90089580911904843028
:101D600038F4823088F4882331F0813069F406C079
:101D7000843051F403C086E060E008C086E061E092
:101D80009DD885E060E005C086E061E097D885E0F9
:101D900061E094C80F931F930E9482068B019C01FF
:101DA0008091090490910A04A0910B04B0910C0455
:101DB000081B190B2A0B3B0BB801C9011F910F918E
:101DC00008950F931F930E9482068B019C018091BE
:101DD0000D0490910E04A0910F04B0911004081B03
:101DE000190B2A0B3B0BB801C9011F910F910895E4
:101DF0000F931F930E9482068B019C018091110416
:101E000090911204A0911304B0911404081B190BB3
:101E10002A0B3B0BB801C9011F910F9108958F92B6
:101E20009F92AF92BF92CF92DF92EF92FF9284E0A7
:101E30007BD8009789F480911904843059F000D040
:101E400085ED90E0EDB7FEB7928381830E944D1F30
:101E50000F900F9084E005C080913C048F3621F4F0
:101E600085E080931904B2C180913F0490914004B1
:101E7000F0E880309F0709F480C180E794E00E9479
:101E8000842A882309F479C181E795E00E94842A95
:101E9000882309F089C180913C04823609F46DC120
:101EA000803709F081C169C10E948206DC01CB0143
:101EB0008093110490931204A0931304B09314041C
:101EC00069DFDC01CB01813A2BEB92072DE0A20701
:101ED00020E0B20798F080911704882379F471DF2D
:101EE000DC01CB01813CE7E29E07E9E0AE07E0E0E0
:101EF000BE0720F080911804882329F080911904EE
:101F0000833009F049C080E794E00E94812B209142
:101F10003F043091400440915A0450915B04240FD7
:101F2000351F28173907A4F480913C04863669F0E0
:101F300081E795E00E94812B20913D0430913E0481
:101F4000265E3F4F281739073CF5109219043EC111
:101F500080E794E00E94812B20913F04309140045F
:101F600040915C0450915D04240F351F8217930744
:101F70009CF480913C04863669F081E795E00E94EC
:101F8000812B20913D0430913E042A51304082172C
:101F9000930714F481E065CFFDDEDC01CB018134D1
:101FA000F7E79F07FBE1AF07F0E0BF0710F01092E3
:101FB000170407DFDC01CB01813A2BEB92072DE000
:101FC000A20720E0B20708F401C110921804FEC075
:101FD00081E0809317040E948206DC01CB0180938C
:101FE000090490930A04A0930B04B0930C0480900E
:101FF000680490906904AA24BB24FADE28EEC22E5D
:1020000023E0D22EE12CF12CA70196010E94DF2BB8
:1020100082169306A406B50628F420916804309130
:10202000690405C0E5DEA70196010E94DF2B6091DF
:10203000430470914404882777FD8095982F4427A6
:1020400037FD4095542F0E94AD2B20E13EE040E04B
:1020500050E00E94012C690180E794E00E94812BEE
:10206000FC01EC19FD09F0933304E0933204C090B5
:102070003F04D090400480916204909163042091C9
:10208000640430916504820F931F62E070E00E9447
:10209000CC2B6C0D7D1D6E177F070CF497C0D09272
:1020A0003504C092340469C0809318040E948206EB
:1020B000DC01CB0180930D0490930E04A0930F04D8
:1020C000B09310048090660490906704AA24BB2407
:1020D0008FDEF8EECF2EF3E0DF2EE12CF12CA701FE
:1020E00096010E94DF2B82169306A406B50628F4FB
:1020F000209166043091670405C07ADEA70196013D
:102100000E94DF2B6091410470914204882777FD83
:102110008095982F442737FD4095542F0E94AD2B72
:1021200020E13EE040E050E00E94012C690180E7A0
:1021300094E00E94812BFC01EC0DFD1DF093330413
:10214000E0933204C0903F04D090400480915E043C
:1021500090915F042091600430916104820F931F7D
:1021600062E070E00E94CC2B6C0D7D1DE617F70736
:102170006CF1D0923704C092360482E072CE84E0D3
:102180000E9494078130910509F500D088EE90E017
:10219000EDB7FEB7928381830E944D1F82E080934A
:1021A00019040F900F9012C080911904843048F4E4
:1021B000823008F079CE882309F40ACF813031F4D7
:1021C00073CF8430E1F2853009F46ECEFF90EF904A
:1021D000DF90CF90BF90AF909F908F9008958CE349
:1021E00094E061E070E049E050E00E94FE308091B0
:1021F0003D0490913E049093160480931504089535
:102200000F931F93CF93DF93EC01F5E075956795DE
:10221000FA95E1F766567E4F8B01222717FD209530
:10222000322F0F3F11052105310571F06CF00B398C
:1022300081E0180780E0280780E038074CF00AE9C1
:1022400011E020E030E004C000E011E020E030E0E8
:1022500068817981882777FD8095982FA901980159
:102260000E94AD2BDC01CB01E9E0B595A7959795D0
:102270008795EA95D1F799838883B1DFDF91CF9174
:102280001F910F9108950F931F93CF93DF93EC014C
:10229000F5E075956795FA95E1F76A597D4F8B01E1
:1022A000222717FD2095322F063682E0180780E09E
:1022B000280780E038076CF0013083E0180780E0E1
:1022C000280780E038074CF000E013E020E030E021
:1022D00004C006E612E020E030E0688179818827BA
:1022E00077FD8095982FA90198010E94AD2BDC0104
:1022F000CB01E9E0B595A79597958795EA95D1F734
:10230000998388836CDFDF91CF911F910F9108959E
:10231000AF92BF92CF92DF92EF92FF920F93CF9343
:10232000DF93CDB7DEB76B970FB6F894DEBF0FBE65
:10233000CDBF80911804882309F4D2C0809119047C
:10234000813009F4CDC080E794E00E949A2B7C0193
:1023500020E88030920751F1809136049091370443
:1023600020915E0430915F04820F931F8E159F05AC
:1023700034F4B701681B790B81E494E084DF809129
:102380003604909137042091600430916104820FEB
:10239000931FE816F90634F4B701681B790B81E442
:1023A00094E02EDF00D08BEF90E042C00ADDDC012C
:1023B000CB01813AE9ED9E07E8E0AE07E0E0BE0719
:1023C00008F48EC0E7DCDC01CB018138FDE69F0715
:1023D000FDE0AF07F0E0BF0708F482C080E794E0BB
:1023E0000E94812B20913604309137044091600483
:1023F00050916104240F351F821793070CF070C0B1
:1024000080E794E00E94812B7C01809136049091BA
:1024100037042091600430916104820F931FB7014B
:10242000681B790B81E494E0EBDE00D083E191E05E
:10243000ADB7BEB712969C938E9311970E94741FEE
:102440000F900F90A701662757FD6095762FCE015C
:10245000439623E009E00E94C6275C0140913604C0
:1024600050913704662757FD6095762FCE010A9666
:1024700023E00E94C6276C01409141045091420420
:10248000662757FD6095762FCE01019623E00E94C6
:10249000E126EDB7FEB738970FB6F894FEBF0FBE32
:1024A000EDBF319628E331E0ADB7BEB712963C934D
:1024B0002E931197B382A282D582C482978386839A
:1024C0000E94741F10921804F0923B04E0923A04A8
:1024D000EDB7FEB738960FB6F894FEBF0FBEEDBF4E
:1024E00080911704882309F4CFC0809119048823B0
:1024F00009F4CAC080E794E00E949E2B7C01F0E8BA
:1025000080309F0781F180913404909135042091AF
:10251000640430916504820F931FE816F90634F4C1
:10252000B701681B790B83E494E0ADDE809134043D
:10253000909135042091620430916304280F391F73
:102540002E153F0564F42091640430916504280F32
:10255000391FB701621B730B83E494E051DE00D096
:1025600082E691E039C02DDCDC01CB01813AE9ED56
:102570009E07E8E0AE07E0E0BE0708F485C00ADC8D
:10258000DC01CB018138FDE69F07FDE0AF07F0E0FD
:10259000BF0708F479C080E794E00E94812B209166
:1025A0003404309135044091620450916304420F29
:1025B000531F481759070CF067C08091640490912D
:1025C0006504820F931FB701681B790B83E494E0C5
:1025D00017DE00D08AE791E0ADB7BEB712969C93A4
:1025E0008E9311970E94741F0F900F90A70166277A
:1025F00057FD6095762FCE01019623E009E00E94F9
:10260000C6275C014091340450913504662757FD7C
:102610006095762FCE010A9623E00E94C6276C01B2
:102620004091430450914404662757FD6095762FEE
:10263000CE01439623E00E94E126EDB7FEB738971E
:102640000FB6F894FEBF0FBEEDBF319621EA31E020
:10265000ADB7BEB712963C932E931197B382A28268
:10266000D582C482978386830E94741F10921704B8
:10267000F0923904E0923804EDB7FEB738960FB601
:10268000F894FEBF0FBEEDBF6B960FB6F894DEBF99
:102690000FBECDBFDF91CF910F91FF90EF90DF90F4
:1026A000CF90BF90AF9008958CE394E061E070E02C
:1026B00049E050E00C94E63082E680933C0480E0F0
:1026C00098E290933E0480933D049093400480935D
:1026D0003F0480E190E0909342048093410480E0C5
:1026E0009AE0909344048093430479CD85E494E088
:1026F0006AE070E04BE250E00C94FE3085E494E038
:102700006AE070E04BE250E00C94E6301F93CF9308
:10271000DF9383E48093450488E592E09093670417
:102720008093660480EB94E090936904809368043E
:1027300080E09CE3909349048093480480E098E013
:10274000909347048093460480E09EE190934B046D
:1027500080934A0490934D0480934C048AE990E05E
:1027600090934F0480934E0480E09AEF909351042D
:102770008093500490935304809352048AE190E034
:1027800090935504809354048DEC9FEF90935704DD
:102790008093560420E031E030935904209358048C
:1027A00030935B0420935A0420E03FEF30935D04A4
:1027B00020935C0426E630E030935F0420935E04AF
:1027C000909361048093600483E390E090936304AA
:1027D000809362048AE99FEF909365048093640478
:1027E00081E080936A04C0E7D4E0CE0161E00E94FA
:1027F000A22B84E080936B04CE0164E00E94A52BA1
:1028000013E010936C04CE0163E00E94A92B82E0D8
:1028100080936D04C1E7D5E0CE0162E00E94A22B57
:1028200085E080936E04CE0165E00E94A52B109395
:102830006F04CE0163E00E94A92B58DFDF91CF9196
:102840001F91089580E090E00E94F630813049F0B9
:1028500033DF5CDF80E090E061E00E941F31BFDC8D
:1028600045CF22DF4BCF80933C048F56823050F40B
:1028700080E090E890933E0480933D049093400460
:1028800080933F04ACCC80913C040895809119045E
:10289000089581E795E00C94812BFBDF20913D04A6
:1028A00030913E04281739076CF480914C049091C4
:1028B0004D0490932F0480932E04809150049091A6
:1028C00051040CC080914A0490914B0490932F04C2
:1028D00080932E048091520490915304909331047C
:1028E000809330041092180410921704089583E026
:1028F0008093190481E795E00E94B22980E794E073
:102900000E94B22952D8C9CF80913D0490913E04D3
:10291000089580E794E00C94812B80913F0490917E
:1029200040040895CF93DF93EC0180913D04909192
:102930003E04D0933E04C0933D048C1B9D0B97FF37
:1029400003C0909581959F4F813891050CF0A5DFCC
:102950004FD865DA80911504909116048C1B9D0B5D
:1029600097FF03C0909581959F4F813891050CF09A
:1029700036DCDF91CF9108959093400480933F041B
:102980008CDF36D84CDA2BCC81E090E00C94C10C73
:1029900080E090E00C94C10CFC0176836583148286
:1029A000108289E090E09283818381E0838308959F
:1029B000CF93DF93EB01CB0167E00E94181E91E0FB
:1029C0002F81821390E0892FDF91CF910895EF92AC
:1029D000FF920F931F93CF93DF93EC018B01E42EB3
:1029E0008D819E810E94651DFF2406C0CE01B80125
:1029F000DFDF882359F414C08D819E81B8010E94C5
:102A0000951D882329F0FE1459F4F0CF81E001C010
:102A100080E0DF91CF911F910F91FF90EF9008958B
:102A2000F394EF14A8F3E8CFEF92FF920F931F9364
:102A3000CF93DF93EC017B018A018D819E811DD7AD
:102A40008D819E81B7010E94351D8D819E816EEB27
:102A500040E0ADD78D819E81EDD7F80180838D81D7
:102A60009E81E8D7F80181838D819E81E3D7F801AB
:102A700082838D819E81DED7F80183838D819E8143
:102A8000D9D7F80184838D819E81D4D7F8018583BD
:102A90008D819E81CFD7F80186838D819E81CAD793
:102AA000F80187838D819E81C5D7F80180878D814C
:102AB0009E81E3D6DF91CF911F910F91FF90EF9010
:102AC0000895CF93DF93EA01AFDFCE0168E00E9463
:102AD000181E91E02885821390E0892FDF91CF9115
:102AE0000895EF92FF920F931F93CF93DF938C0182
:102AF000EB017A01FC0185819681BFD6F8018581C1
:102B00009681BE01B2D7F801858196816EE440E0DE
:102B10004ED7F80185819681F701628140E047D761
:102B2000F80185819681F701638140E040D7888173
:102B3000803139F0F80185819681F701648140E0A8
:102B400036D7F8018581968198D6F80185819681DE
:102B500068E440812CD7F8018081882331F06AE055
:102B600070E080E090E00E94BE06F80185819681C9
:102B700084D6DF91CF911F910F91FF90EF90089530
:102B8000EF92FF920F931F93CF93DF93CDB7DEB7F2
:102B90002A970FB6F894DEBF0FBECDBF7C018B0124
:102BA000242FAE014F5F5F4F2A878BDF2A85882352
:102BB000D9F0F80180818031C9F02A3051F02A30F3
:102BC00050F02B3021F02C3031F48FE705C08FE529
:102BD00003C08FE301C08FE18D83C701B801AE014F
:102BE0004F5F5F4F7EDF02C080E001C081E02A9628
:102BF0000FB6F894DEBF0FBECDBFDF91CF911F910E
:102C00000F91FF90EF900895FC0163830895CF9397
:102C1000DF93EC018D819E8130D68D819E8152D7CC
:102C20008D819E8164E44881C2D68B81882321F105
:102C300089819A818930910551F089309105B4F0EC
:102C40008A30910549F08B30910581F40AC06EE518
:102C500070E080E090E00EC06CEB70E080E090E00F
:102C600009C067E771E080E090E004C06EEE72E0BA
:102C700080E090E00E94BE06DF91CF910895CF934F
:102C8000DF93CDB7DEB729970FB6F894DEBF0FBE3E
:102C9000CDBFAE014F5F5F4F14DF882339F03A811B
:102CA00020E0898190E0822B932B02C081E89FEF86
:102CB00029960FB6F894DEBF0FBECDBFDF91CF913E
:102CC00008950F931F93CF93DF93EC010E94362C4E
:102CD0008C0160E070E0AE010E94A12EC801DF917E
:102CE000CF911F910F9108950C94CC2C08958130B1
:102CF000910559F4109276061092750688E293E0D9
:102D000090937406809373060895009731F488E2D7
:102D100093E0909374068093730608950F931F9326
:102D2000CF93DF93CDB7DEB765970FB6F894DEBFCC
:102D30000FBECDBF8C01CE01019644E150E00E9450
:102D40008D2EC801BE016F5F7F4F0E94C205659640
:102D50000FB6F894DEBF0FBECDBFDF91CF911F91AC
:102D60000F910895CF93DF93EC01FC01EF59FF4FD2
:102D70008FEF8083CE016AE00E94340BCE0164E1C4
:102D800044E00E94170CCE010E94150CDF91CF91F8
:102D900008958F929F92AF92BF92CF92DF92FF924F
:102DA0000F931F93CF93DF93CDB7DEB729970FB65D
:102DB000F894DEBF0FBECDBF4C01CB01AC0166273E
:102DC00057FD6095762F6E010894C11CD11CC60179
:102DD00021E009E00E94C62700E010E0FC2CCD2C89
:102DE00085E0A82EB12C05C060E20E94A80B0F5F01
:102DF0001F4F8F2D9C2D0E94B92E9501281B390B3A
:102E0000C4010217130780F36F2D7C2D0E94C205A9
:102E100029960FB6F894DEBF0FBECDBFDF91CF91DC
:102E20001F910F91FF90DF90CF90BF90AF909F9038
:102E30008F9008956CEC71E071CFCF93DF93EC012C
:102E40006CE042E00E94E70B68DDBC0180E8603086
:102E5000780719F4CE01EEDF02C0CE019ADFDF91D0
:102E6000CF910895CF93DF93EC0166E042E00E949A
:102E7000E70B80E794E00E94842A882329F049DD4B
:102E8000BC01CE0186DF02C0CE01D4DFDF91CF913D
:102E90000895CF93DF93EC016CE041E00E94E70BD3
:102EA00033DDBC0180E86030780719F4CE01C2DF61
:102EB00002C0CE016EDFDF91CF910895CF93DF93F3
:102EC000EC0166E041E00E94E70B81E795E00E949B
:102ED000842A882329F0DDDCBC01CE015ADF02C040
:102EE000CE01A8DFDF91CF910895CF93DF93EC015E
:102EF000E5DFCE01CEDFCE01B5DFCE019EDFDF9173
:102F0000CF910895CF93DF93D82FC92F6FED0E94F3
:102F1000A80B8D2F9C2F609145040E94A80BDF9178
:102F2000CF910895CF93DF93D82FC92F60E040E071
:102F30000E94E70B8D2F9C2F62ED71E0EFDE8D2F4D
:102F40009C2F60E041E00E94E70B8D2F9C2F6AEDE3
:102F500071E0E4DE8D2F9C2F60E042E00E94E70BE1
:102F60008D2F9C2F62EE71E0D9DE8D2F9C2F62E1B8
:102F700041E00E94E70B8D2F9C2FC4DF8D2F9C2FEB
:102F800062E142E00E94E70B8D2F9C2FBBDFDF91B7
:102F9000CF910895CF93DF93D82FC92F67E040E0FA
:102FA0000E94E70B70DC863651F0873618F48236C3
:102FB000D1F40AC08F3691F08037A9F40AC08D2F62
:102FC0009C2F6AEE71E013C08D2F9C2F68EF71E08B
:102FD0000EC08D2F9C2F66E072E009C08D2F9C2FB4
:102FE00064E172E004C08D2F9C2F62E272E096DEF5
:102FF000DF91CF910895CF92DF92EF92FF920F93DE
:103000001F93CF93DF93EC0141DC182FFE01EF59A2
:10301000FF4F80811817C9F10C2FCD2ECE0160E033
:1030200043E00E94E70B32DC823071F0833028F4F9
:10303000882391F0813001F513C08430A9F08430E9
:1030400038F08530C9F414C0CE0160E372E018C0D6
:10305000CE0165E472E014C0CE016AE572E010C0F2
:10306000CE016FE672E00CC0CE0164E872E008C0E9
:10307000CE0169E972E004C0802F9C2D6EEA72E0F7
:103080004DDEFE01EF59FF4F10831230C1F4CE0127
:1030900069E043E00E94E70B0E94CA0E6B017C01CD
:1030A0000E94E10EDC01CB01C816D906EA06FB0638
:1030B00018F40E94CA0E0CC00E94E10E09C0123022
:1030C000C0F4CE016CE043E00E94E70B0E94F80ED2
:1030D00028EE33E040E050E00E94DF2BCE01BA0141
:1030E000A9012AE030E00E942506CE0163EC72E0DF
:1030F00015DEDF91CF911F910F91FF90EF90DF9040
:10310000CF90089581E090E0F2CD80E090E0EFCDA7
:10311000FC0188E0808F82E0818F08950895FC0192
:10312000862F880F8C5F808F618F08952F923F923A
:103130004F925F926F927F928F929F92AF92BF92C7
:10314000CF92DF92EF92FF920F931F93CF93DF9373
:10315000FC01448055806680778040865186628677
:10316000738680809180A280B38084829582A682BB
:10317000B7824083518362837383C088D188E28899
:10318000F388C48AD58AE68AF78A84859585A685D8
:10319000B785808B918BA28BB38BD18DC08D2C2E5C
:1031A00033248C019D010C191D092E093F09080FBC
:1031B000191F2A1F3B1F0D2E04C0B595A795979583
:1031C00087950A94D2F7081B190B2A0B3B0BD701E2
:1031D000C60104C0B595A79597958795DA95D2F75E
:1031E000080F191F2A1F3B1FDB01CA010C2E04C048
:1031F000B595A795979587950A94D2F7080F191F4B
:103200002A1F3B1FC1010197B501A40104C0759598
:103210006795579547958A95D2F7040F151F261F76
:10322000371FD301C20104C0B595A795979587951F
:10323000CA95D2F7080F191F2A1F3B1FC101029719
:10324000B701A60104C075956795579547958A956E
:10325000D2F7041B150B260B370B0487158726871F
:103260003787B801C901DF91CF911F910F91FF906E
:10327000EF90DF90CF90BF90AF909F908F907F9016
:103280006F905F904F903F902F900895FC01448580
:10329000558566857785AB01772757FD7095672F34
:1032A000CA010895FC016485758586859785089512
:1032B000FC01CB01AA2797FDA095BA2FDC01992725
:1032C000882780839183A283B38384839583A68395
:1032D000B78380879187A287B38784879587A687DE
:1032E000B787808B918BA28BB38B848B958BA68BAE
:1032F000B78B0895FC01408951896289738984855F
:103300009585A685B78584179507A607B7075CF44A
:1033100084899589A689B789481759076A077B0761
:103320002CF0CB01089580E090E8089580E090E8CB
:103330000895FC0140895189628973898485958546
:10334000A685B785481759076A077B075CF4848907
:103350009589A689B78984179507A607B7072CF022
:10336000CB01089580E090E8089580E090E808950A
:10337000AF92BF92CF92DF92EF92FF920F931F9383
:10338000CF93DF93CDB7DEB729970FB6F894DEBFA2
:103390000FBECDBF83E796E0C5DDB6DA5C0120E85D
:1033A0008030920719F460E078E201C0BC01882700
:1033B00077FD8095982F0E9445298C0160914604E5
:1033C00070914704882777FD8095982F0E944529A2
:1033D0006C016091480470914904882777FD8095BD
:1033E000982F0E944529AC01C801B6010E94C60A67
:1033F0000E9482066B017C014DC00E94FD0A882359
:1034000071F10E9482066B017C010E94E00A0E9419
:103410007B2988DA83E796E03CDD0E940F0B882346
:10342000C9F10E94120B70DAAC01662757FD609556
:10343000762FCE01019621E009E00E94C62700D038
:1034400000D02DE133E0EDB7FEB7328321839483C2
:103450008383FDD40F900F900F900F902FC01123F6
:1034600021F483E796E015DD0DC0103859F483E7A9
:1034700096E06CE041E00E94E70B83E796E06AE3A8
:1034800073E04CDC1F5F63E070E080E090E00E943E
:10349000BE0601C010E00E948206DC01CB018C193F
:1034A0009D09AE09BF098031F7E29F07F0E0AF0741
:1034B000F0E0BF0708F4A1CFC50134DA29960FB6B2
:1034C000F894DEBF0FBECDBFDF91CF911F910F915A
:1034D000FF90EF90DF90CF90BF90AF900895AF92A4
:1034E000BF92CF92DF92EF92FF920F931F93CF93F1
:1034F000DF93CDB7DEB729970FB6F894DEBF0FBEC6
:10350000CDBF83E796E00EDD08DA5C0120E880306D
:10351000920719F460E078E201C0BC01882777FDCA
:103520008095982F0E9445298C01609146047091E6
:103530004704882777FD8095982F0E9445296C01C4
:103540006091480470914904882777FD8095982FF1
:103550000E944529AC01C801B6010E94C60A0E941A
:1035600082066B017C014DC00E94FD0A882371F127
:103570000E9482066B017C010E94E00A0E947B2966
:10358000FBD983E796E059DC0E940F0B8823C9F131
:103590000E94120BC2D9AC01662757FD6095762FA9
:1035A000CE01019621E009E00E94C62700D000D09C
:1035B00020E433E0EDB7FEB7328321839483838325
:1035C0006CD40F900F900F900F902FC0112321F407
:1035D00083E796E032DC0DC0103859F483E796E0BB
:1035E0006CE042E00E94E70B83E796E06FE573E052
:1035F00095DB1F5F63E070E080E090E00E94BE0614
:1036000001C010E00E948206DC01CB018C199D09EB
:10361000AE09BF098031F7E29F07F0E0AF07F0E0A5
:10362000BF0708F4A1CFC501A7D929960FB6F89412
:10363000DEBF0FBECDBFDF91CF911F910F91FF90E5
:10364000EF90DF90CF90BF90AF900895CF92DF9230
:10365000EF92FF920F931F93CF93DF9300D000D090
:10366000CDB7DEB783E796E05DDC0DD9182FE82FE4
:10367000E656EB3028F4F0E0E45DFC4F808101C0B9
:1036800080E090E060E070E043E050E00E94C60A15
:1036900082E6898386E68A8380E78B838FE68C8344
:1036A0000E9482066B017C0157C00E94FD0A88239C
:1036B00009F437C00E9482066B017C010E94E00A77
:1036C000E1E0F0E0EC0FFD1FE80FF91F8081CBD89F
:1036D00083E796E05FDC0E940F0B882309F43CC06F
:1036E0000E94120BD0D8823611F442DE49C0CBD8EA
:1036F000863611F4F4DE44C0C6D8803721F400D0F9
:103700008DEC92E006C0BFD88F36D1F500D08EEE9A
:1037100092E0EDB7FEB79283818399D30F900F901B
:103720002FC0002321F483E796E034DC0DC000387D
:1037300059F483E796E067E040E00E94E70B83E7F7
:1037400096E06FE073E0EADA0F5F63E070E080E03C
:1037500090E00E94BE0601C000E00E948206DC01EB
:10376000CB018C199D09AE09BF098031F7E29F0793
:10377000F0E0AF07F0E0BF0708F497CF812F73D8D0
:103780000F900F900F900F90DF91CF911F910F919D
:10379000FF90EF90DF90CF900895CF92DF92EF925D
:1037A000FF92CF9380E090E060E070E042E050E074
:1037B0000E94C60A0E9482066B017C01C0E046C0DE
:1037C0000E94FD0A882329F00E9482066B017C0179
:1037D00002C0CC2329F483E796E0A4DBC0E00FC04D
:1037E000C03869F40E94E00A482F83E796E060E061
:1037F0000E94E70B83E796E066EC72E08FDA0E94A6
:103800000F0B8823E1F00E94120B0E94E00A813026
:10381000910539F08230910559F0009781F416DF57
:1038200026C082E620D883E796E0B4DBA1DD1FC086
:1038300086E619D883E796E0ADDB51DE18C0CF5F8E
:1038400063E070E080E090E00E94BE060E94820685
:10385000DC01CB018C199D09AE09BF09803127E23B
:10386000920720E0A20720E0B20708F4A9CFCF9189
:10387000FF90EF90DF90CF900895FF920F931F93EA
:10388000CF93DF93FC011081C181D281F8948981AB
:10389000012F00958023898378948DE7F82EFA9480
:1038A00031F182E090E00E94E50688818123B9F33E
:1038B000F8948A8180238A838981812B89837894F3
:1038C00084EF91E00E94E506F89489818023898342
:1038D00080E590E00E94E50688818123C1E009F03F
:1038E000C0E0789484EA91E00E94E50601C0C0E05F
:1038F0008C2FDF91CF911F910F91FF9008951F930F
:10390000CF93DF93FC011081C181D281912F9095DB
:10391000F8948A8189238A838981812B898360FF36
:103920000BC08AE090E00E94E5068A81812B8A83A1
:10393000789487E390E00AC081E490E00E94E50675
:103940008A81812B8A83789485E090E00E94E50645
:10395000DF91CF911F9108950F931F93CF93DF9322
:10396000FC011081C181D281F8948981812B8983E6
:103970008A81012F009580238A8383E090E00E9452
:10398000E5068981802389838AE090E00E94E5062C
:10399000C881789485E390E00E94E5061C2381E0CD
:1039A00009F480E0DF91CF911F910F910895CF929C
:1039B000DF92EF92FF920F931F93CF93DF930F92BB
:1039C000CDB7DEB78C01F62E28E0C22ED12CEE2426
:1039D000E3948E2D8F2161E009F460E0C8014983F2
:1039E0008EDFEE0C0894C108D1084981C114D104BE
:1039F00081F74423A9F4F894D8011196ED91FC9134
:103A0000129791818C918095892381831196ED91F4
:103A1000FC91129792818C9180958923828378946E
:103A20000F90DF91CF911F910F91FF90EF90DF905A
:103A3000CF900895EF92FF920F931F93CF93DF9350
:103A40008C01C8E0D0E0FF24EE24E394C80184DFB9
:103A50008111FE28EE0C2197C9F78F2DDF91CF91B0
:103A60001F910F91FF90EF900895CF92DF92EF9208
:103A7000FF920F931F93CF93DF930F92CDB7DEB7D3
:103A80007C01C62E65E540E0798391DF0C2D7981BC
:103A9000172FCC24DD24F80161918F01C70140E08C
:103AA00086DF0894C11CD11CF8E0CF16D10499F729
:103AB0000F90DF91CF911F910F91FF90EF90DF90CA
:103AC000CF9008956CEC40E072CFFC011386158610
:103AD0001486128611861086178216821582148229
:103AE000138208951F93CF93DF93EC01162F862F37
:103AF00060E00E942A07612F70E0FB01E458FF4F4D
:103B0000E491E883FB01E057FF4FE491F0E0EE0F12
:103B1000FF1FEC55FF4F8591949189839A83CE01C5
:103B2000D4DFDF91CF911F910895BF92CF92DF92A2
:103B3000EF92FF920F931F93CF93DF93EC016B01F2
:103B40008D85882309F052C0CE0197DE882321F4A9
:103B50001B861D861C865BC0CE0160EF40E027DF20
:103B600001E0FF24EE2411E0CE01F6DEB82ECE01F6
:103B7000F3DE91E0B91619F48130A9F42FC0B8161C
:103B8000D1F48B85181738F4FE01EF0DF11D8381F8
:103B9000802349F402C0181731F060E0193008F0B2
:103BA00040C01C873EC0FE01EF0DF11D8381802BBC
:103BB000838361E009C06B2DFE01EF0DF11D902F95
:103BC0009095838189238383CE0199DE1F5F000F47
:103BD00011F4F39401E087E08F1530F6113430F0E2
:103BE000EB86EE2001F581E08D871DC01B861D86CA
:103BF0001C8680E0D60120E030E0FE01E20FF31FDA
:103C000093819D932F5F3F4F28303105B1F7DF91AE
:103C1000CF911F910F91FF90EF90DF90CF90BF90C9
:103C20000895E12EC9CF8B81882301F381E0E2CF93
:103C3000DC0180E007C0ED91E827F0E0EB59FC4F94
:103C4000849161506623B9F70895CF93DF93CDB780
:103C5000DEB7C058D0400FB6F894DEBF0FBECDBF60
:103C6000FE01EB57FF4F41915191CE01019660E863
:103C700070E09F010E94EF2E80E493E0BE016F5F31
:103C80007F4F0E94C205C058DF4F0FB6F894DEBFC9
:103C90000FBECDBFDF91CF910895CF92DF92EF920B
:103CA000FF920F93CF93DF93CDB7DEB729970FB66F
:103CB000F894DEBF0FBECDBF7C016B010E9449149A
:103CC000AC01662757FD6095762FCE01019622E064
:103CD00009E00E94C62700D000D02CEC34E0EDB7FC
:103CE000FEB73283218394838383AFDF0F900F90DD
:103CF0000F900F900E948414AC01662757FD6095C9
:103D0000762FCE01019622E00E94C62700D000D077
:103D10002EED34E0EDB7FEB73283218394838383A5
:103D200094DF0F900F908CEE94E0EDB7FEB7928386
:103D300081838BDF0F900F90E114F10459F400D0D0
:103D400087EF94E0EDB7FEB7928381837EDF0F901B
:103D50000F900FC000D000D08DEF94E0EDB7FEB70C
:103D600092838183F482E38270DF0F900F900F9033
:103D70000F900E948914AC01662757FD6095762F3D
:103D8000CE01019622E009E00E94C62700D000D0B3
:103D900023E035E0EDB7FEB732832183948383833C
:103DA00054DF0F900F900F900F900E948D14AC0174
:103DB000662757FD6095762FCE01019622E00E947E
:103DC000C62700D000D024E135E0EDB7FEB732833E
:103DD00021839483838339DF0F900F9084E295E0F1
:103DE000EDB7FEB79283818330DF0F900F90C1143F
:103DF000D10459F400D081E395E0EDB7FEB792838A
:103E0000818323DF0F900F900FC000D000D088E394
:103E100095E0EDB7FEB792838183D482C38215DF2C
:103E20000F900F900F900F9029960FB6F894DEBF69
:103E30000FBECDBFDF91CF910F91FF90EF90DF903C
:103E4000CF90089580E090E060E070E026CFCF93BF
:103E5000DF93CDB7DEB7C058D0400FB6F894DEBFC1
:103E60000FBECDBFFE01EB57FF4F41915191CE01E7
:103E7000019660E870E09F010E94EF2ECE0101964E
:103E800060E070E00ADFC058DF4F0FB6F894DEBF85
:103E90000FBECDBFDF91CF910895CF93DF93CDB704
:103EA000DEB7C058D0400FB6F894DEBF0FBECDBF0E
:103EB000FE01EB57FF4F41915191CE01019660E811
:103EC00070E09F010E94EF2E80E090E0BE016F5FE6
:103ED0007F4FE3DEC058DF4F0FB6F894DEBF0FBE52
:103EE000CDBFDF91CF910895EF92FF920F931F9373
:103EF000CF93DF93CDB7DEB7C058D0400FB6F8945C
:103F0000DEBF0FBECDBF8E0107571F4FF801E190F6
:103F1000F1908F0100D08FE395E0EDB7FEB792836B
:103F2000818393DE0F900F90CE01019660E870E0E0
:103F3000A70198010E94EF2E80E493E0BE016F5F1D
:103F40007F4F0E94C20500D082E495E0EDB7FEB736
:103F5000928381837ADE0F900F90C058DF4F0FB6A7
:103F6000F894DEBF0FBECDBFDF91CF911F910F91AF
:103F7000FF90EF90089500D000D000D0EDB7FEB7CD
:103F800031962EE635E0ADB7BEB712963C932E9330
:103F90001197938382837583648357DE8DB79EB7B1
:103FA00006960FB6F8949EBF0FBE8DBF08950F936F
:103FB000CF93DF93CDB7DEB72C970FB6F894DEBF63
:103FC0000FBECDBF00D080E695E0ADB7BEB712966C
:103FD0009C938E93119739DE0F900F9040911A04A5
:103FE00050911B04662757FD6095762FCE010196F0
:103FF00023E00CE00E94D728BC018EE091E0BBDFFB
:1040000040911C0450911D0460911E0470911F0486
:10401000CE01019623E00E94D728BC0187E191E000
:10402000AADF4091200450912104662757FD609536
:10403000762FCE01019623E00E94D728BC0184E2AE
:1040400091E099DF4091220450912304609124046F
:1040500070912504CE01019623E0B3D6BC018EE217
:1040600091E089DF40912604509127046091280453
:1040700070912904CE01019623E0A3D6BC0180E310
:1040800091E079DF40912A0450912B0460912C0437
:1040900070912D04CE01019623E093D6BC0182E3FA
:1040A00091E069DF40912E0450912F04662757FD5F
:1040B0006095762FCE01019623E083D6BC0184E380
:1040C00091E059DF4091300450913104662757FD4B
:1040D0006095762FCE01019623E073D6BC0187E36D
:1040E00091E049DF4091320450913304662757FD37
:1040F0006095762FCE01019623E048D7BC018AE374
:1041000091E039DF4091340450913504662757FD22
:104110006095762FCE01019623E038D7BC0188E464
:1041200091E029DF4091360450913704662757FD0E
:104130006095762FCE01019623E028D7BC0187E554
:1041400091E019DF4091380450913904662757FDFA
:104150006095762FCE01019623E018D7BC0186E644
:1041600091E009DF40913A0450913B04662757FDE6
:104170006095762FCE01019623E008D700D000D0BD
:1041800000D0EDB7FEB7319624E635E0ADB7BEB747
:1041900012963C932E9311972EE631E033832283BF
:1041A0009583848352DDEDB7FEB736960FB6F8944B
:1041B000FEBF0FBEEDBF2C960FB6F894DEBF0FBE4C
:1041C000CDBFDF91CF910F91089500D000D000D0E6
:1041D000EDB7FEB7319627E735E0ADB7BEB712961B
:1041E0003C932E93119793838283648315822DDDF4
:1041F0008DB79EB706960FB6F8949EBF0FBE8DBFC3
:1042000008950F93CF93DF93CDB7DEB72C970FB6FA
:10421000F894DEBF0FBECDBF00D084E495E0ADB70B
:10422000BEB712969C938E9311970FDD0F900F904F
:1042300086E791E060913C04C8DF40913D045091D5
:104240003E04662757FD6095762FCE01019622E049
:104250000CE09CD6BC018BE791E08DDE40913F04E1
:1042600050914004662757FD6095762FCE01019648
:1042700022E08CD6BC0187E891E07DDE40914104CC
:1042800050914204662757FD6095762FCE01019626
:1042900023E097D5BC0185E991E06DDE40914304B0
:1042A00050914404662757FD6095762FCE01019604
:1042B00023E087D500D000D000D0EDB7FEB731960F
:1042C00028E435E0ADB7BEB712963C932E93119714
:1042D00023EA31E03383228395838483B6DCEDB710
:1042E000FEB736960FB6F894FEBF0FBEEDBF2C9604
:1042F0000FB6F894DEBF0FBECDBFDF91CF910F9107
:10430000089500D000D000D0EDB7FEB7319622E876
:1043100035E0ADB7BEB712963C932E9311979383B9
:1043200082837583648391DC8DB79EB706960FB642
:10433000F8949EBF0FBE8DBF089500D000D000D06E
:10434000EDB7FEB731962BE835E0ADB7BEB71296A4
:104350003C932E931197938382836483158275DC3B
:104360008DB79EB706960FB6F8949EBF0FBE8DBF51
:1043700008950F93CF93DF93CDB7DEB72C970FB689
:10438000F894DEBF0FBECDBF00D082E595E0ADB79B
:10439000BEB712969C938E93119757DC0F900F9097
:1043A00081EB91E06091450410DF4091460450910B
:1043B0004704662757FD6095762FCE01019621E0D0
:1043C0000CE0E4D5BC018CEB91E0D5DD40914804D4
:1043D00050914904662757FD6095762FCE010196CE
:1043E00021E0D4D5BC018BEC91E0C5DD40914A04BD
:1043F00050914B04662757FD6095762FCE010196AC
:1044000023E0DFD4BC018AED91E0B5DD40914C049E
:1044100050914D04662757FD6095762FCE01019689
:1044200023E0CFD4BC0181EE91E0A5DD40914E04A4
:1044300050914F04662757FD6095762FCE01019667
:1044400023E0BFD4BC0188EE91E095DD409150049B
:1044500050915104662757FD6095762FCE01019645
:1044600023E0AFD4BC018BEE91E085DD4091520496
:1044700050915304662757FD6095762FCE01019623
:1044800023E09FD4BC0182EF91E075DD4091580498
:1044900050915904662757FD6095762FCE010196FD
:1044A00023E085D6BC0189EF91E065DD409154049D
:1044B00050915504662757FD6095762FCE010196E1
:1044C00023E075D6BC0183E092E055DD40915604AF
:1044D00050915704662757FD6095762FCE010196BF
:1044E00023E065D6BC018DE092E045DD40915A04A1
:1044F00050915B04662757FD6095762FCE0101969B
:1045000023E055D6BC0187E192E035DD40915C04A3
:1045100050915D04662757FD6095762FCE01019678
:1045200023E045D6BC0185E292E025DD40915E04A2
:1045300050915F04662757FD6095762FCE01019656
:1045400023E035D6BC0182E392E015DD40916004A2
:1045500050916104662757FD6095762FCE01019634
:1045600023E025D6BC0185E492E005DD409162049C
:1045700050916304662757FD6095762FCE01019612
:1045800023E015D6BC0188E592E0F5DC4091640497
:1045900050916504662757FD6095762FCE010196F0
:1045A00023E005D6BC018BE692E0E5DC6091660471
:1045B000709167048EE792E0A4DE609168047091C8
:1045C000690485E992E09DDE8CEA92E060916A04DC
:1045D000B4DE8DEB92E060916B04AFDE8EEC92E086
:1045E00060916C04AADE80EE92E060916D04A5DE1D
:1045F0008FEE92E060916E04A0DE00D000D000D07B
:10460000EDB7FEB7319686E595E0ADB7BEB7129629
:104610009C938E9311978EEF92E093838283809187
:104620006F048483158211DBEDB7FEB736960FB6A3
:10463000F894FEBF0FBEEDBF2C960FB6F894DEBF08
:104640000FBECDBFDF91CF910F9108950F931F93B0
:10465000CF93DF93EC018B0100D000D000D0EDB7F9
:10466000FEB7319684E995E0ADB7BEB712969C933C
:104670008E931197D383C2837583648335DCEDB742
:10468000FEB736960FB6F894FEBF0FBEEDBFCE0153
:1046900066E771E00E94B02E0097D9F4D8018C91A2
:1046A0000E94331400D000D0EDB7FEB7319682EBF4
:1046B00095E0ADB7BEB712969C938E931197D80133
:1046C0008C9182831382E9DB0F900F900F900F90F3
:1046D0002AC2CE016BE771E00E94B02E0097D1F59F
:1046E000C80127D5EC0180913C048037F9F4809112
:1046F0003D0490913E04FE01E81BF90BCF01F7FF4A
:1047000003C0909581959F4F85369105F4F000D0B8
:1047100000D082ED95E0ADB7BEB712969C938E9314
:10472000119714961C930E9313970AC000D000D0D3
:104730008EEF95E0EDB7FEB79283818314830383F8
:1047400086DB0F900F900F900F90D0933E04C09394
:104750003D04E9C1CE0167E871E00E94B02E0097E8
:10476000F9F4C801E6D4EC0180913C04863699F452
:1047700000D000D084E296E0ADB7BEB712969C930D
:104780008E93119714961C930E93139786DB0F90BC
:104790000F900F900F90D0934004C0933F04C3C17B
:1047A000CE0165E971E00E94B02E009749F4C8017E
:1047B00038D4DC01CB019093420480934104B3C10F
:1047C000CE0163EA71E00E94B02E009749F4C8015F
:1047D00028D4DC01CB019093440480934304A3C10B
:1047E000CE0161EB71E00E94B02E009749F4F80110
:1047F00080818093450483E796E00E94921793C1DD
:10480000CE016CEB71E00E94B02E009739F4C80124
:1048100090D4909347048093460485C1CE016BECFD
:1048200071E00E94B02E009739F4C80182D49093B1
:1048300049048093480477C1CE016AED71E00E947B
:10484000B02E009749F4C801ECD3DC01CB01909362
:104850004B0480934A0467C1CE0161EE71E00E946F
:10486000B02E009749F4C801DCD3DC01CB01909352
:104870004D0480934C0457C1CE0168EE71E00E9454
:10488000B02E009749F4C801CCD3DC01CB01909342
:104890004F0480934E0447C1CE016BEE71E00E943D
:1048A000B02E009749F4C801BCD3DC01CB01909332
:1048B00051048093500437C1CE0162EF71E00E9431
:1048C000B02E009749F4C801ACD3DC01CB01909322
:1048D00053048093520427C1CE0169EF71E00E9416
:1048E000B02E009739F4C80196D490935904809360
:1048F000580419C1CE0163E072E00E94B02E009707
:1049000039F4C80188D490935504809354040BC1A2
:10491000CE016DE072E00E94B02E009739F4C8011C
:104920007AD49093570480935604FDC0CE0167E17A
:1049300072E00E94B02E009739F4C8016CD49093B5
:104940005B0480935A04EFC0CE0165E272E00E94DE
:10495000B02E009739F4C8015ED490935D04809323
:104960005C04E1C0CE0162E372E00E94B02E0097C9
:1049700039F4C80150D490935F0480935E04D3C08F
:10498000CE0165E472E00E94B02E009739F4C801B0
:1049900042D49093610480936004C5C0CE0168E561
:1049A00072E00E94B02E009739F4C80134D490937D
:1049B000630480936204B7C0CE016BE672E00E948C
:1049C000B02E009739F4C80126D4909365048093E3
:1049D0006404A9C0CE016EE772E00E94B02E009779
:1049E00071F4C80160E070E04AE050E00E94652D7B
:1049F000DC01CB01909367048093660494C0CE01E0
:104A000065E972E00E94B02E009771F4C80160E081
:104A100070E04AE050E00E94652DDC01CB019093EC
:104A20006904809368047FC0CE016CEA72E00E9442
:104A3000B02E009761F4C80160E070E04AE050E0F9
:104A40000E94652D60936A0480E794E038C0CE012F
:104A50006DEB72E00E94B02E009761F4C80160E037
:104A600070E04AE050E00E94652D60936B0480E79F
:104A700094E038C0CE016EEC72E00E94B02E009738
:104A800061F4C80160E070E04AE050E00E94652DEA
:104A900060936C0480E794E038C0CE0160EE72E071
:104AA0000E94B02E009769F4C80160E070E04AE00F
:104AB00050E00E94652D60936D0481E795E042D639
:104AC00032C0CE016FEE72E00E94B02E009761F40A
:104AD000C80160E070E04AE050E0F7D760936E04F0
:104AE00081E795E032D61FC0CE016EEF72E00E94E2
:104AF000B02E009761F4C80160E070E04AE050E039
:104B0000E4D760936F0481E795E023D60CC000D012
:104B10008CE496E0ADB7BEB712969C938E93119736
:104B2000E3D90F900F90DF91CF911F910F910895CE
:104B30000F931F93CF93DF93CDB7DEB7EC970FB6EC
:104B4000F894DEBF0FBECDBF61E070E080E090E082
:104B50000E94BE0610E069C061E070E080E090E075
:104B60000E94BE0680E493E00E94DB03182F8A3384
:104B7000C9F0803261F08B3751F0823241F0EFE1C1
:104B8000F0E0EC0FFD1FE00FF11D80830F5F0D3192
:104B900010F053C000E080E493E00E94AE031816CA
:104BA0001906D4F2EFE1F0E0EC0FFD1FE00FF11D6C
:104BB000108200E01DC061E070E080E090E00E94A3
:104BC000BE0680E493E00E94DB03182F8C32B9F01C
:104BD0008D37A9F0803251F0823241F0E1E0F0E00F
:104BE000EC0FFD1FE00FF11D80830F5F0D3128F5E5
:104BF00080E493E00E94AE0318161906E4F2E1E0A7
:104C0000F0E0EC0FFD1FE00FF11D1082CE014F967A
:104C1000BE016F5F7F4F1ADD1D3739F40E94EF1020
:104C20000E947613EEDAA5DB08C080E493E00E94D0
:104C3000AE03181619060CF4ADCFEC960FB6F89427
:104C4000DEBF0FBECDBFDF91CF911F910F910895B1
:104C5000EF92FF920F931F93CF93DF93CDB7DEB701
:104C600066970FB6F894DEBF0FBECDBF80E493E029
:104C70000E94AE03181619060CF096C080E493E06B
:104C80000E94DB038A3609F479C08B3640F4833501
:104C900039F1833699F1833409F072C010C083373B
:104CA00059F1843720F48C3609F06AC02BC0843760
:104CB00021F0863709F064C023C0C4D875C00E94B3
:104CC000861383E796E00E94921753DB00D085E6B7
:104CD00094E0ADB7BEB712969C938E9311970AC01D
:104CE0000E945C138EDA00D08FE794E0EDB7FEB738
:104CF00092838183F9D83FC084DA56C03ADB54C02E
:104D000056D952C000D088E994E0ADB7BEB712962C
:104D10009C938E9311970E94251E0F900F9020E078
:104D20008E010F5F1F4F3BE9E32E34E0F32E83E744
:104D300096E0622FA8012E8B0E944A0C00D000D072
:104D4000EDB7FEB7F282E182148303830E94251E31
:104D50002E892F5F0F900F900F900F90243039F70E
:104D600000D082EA94E0ADB7BEB712969C938E93C2
:104D700011970E94251E0F900F9016C0D9DE14C007
:104D800000D000D0EDB7FEB7319624EA34E0ADB7DD
:104D9000BEB712963C932E93119782831382A4D8A8
:104DA0000F900F900F900F9066960FB6F894DEBF9D
:104DB0000FBECDBFDF91CF911F910F91FF90EF906C
:104DC0000895AF92BF92CF92DF92EF92FF920F932E
:104DD000CF93DF935C0177FF0BC08DE2D5018C93FD
:104DE00070956095509541955F4F6F4F7F4F03C011
:104DF00080E2F50180836A017B01F9E0F594E79494
:104E0000D794C794FA95D1F7E6015170607070702D
:104E10002130B1F5CB01BA012AE030E040E050E0AA
:104E20009CD4DC01CB0180509F4FAF4FBF4FE9E0D6
:104E3000B595A79597958795EA95D1F7BC018A30E6
:104E4000910519F4219660E070E08DB79EB70A973E
:104E50000FB6F8949EBF0FBE8DBFEDB7FEB731966B
:104E6000C5010196ADB7BEB712969C938E9311976C
:104E7000802F90E00197938382838BE696E037C082
:104E80002230E1F5CB01BA0124E630E040E050E009
:104E900064D4DC01CB0180509F4FAF4FBF4FF9E08E
:104EA000B595A79597958795FA95D1F7BC01843666
:104EB000910519F4219660E070E08DB79EB70A97CE
:104EC0000FB6F8949EBF0FBE8DBFEDB7FEB73196FB
:104ED000C5010196ADB7BEB712969C938E931197FC
:104EE000802F90E001979383828383E796E09583F8
:104EF0008483D783C6837187608734C08DB79EB79C
:104F00000A970FB6F8949EBF0FBE8DBFCDB7DEB720
:104F10002196C5010196ADB7BEB712969C938E93AC
:104F20001197802F90E001979B838A838BE796E00F
:104F30009D838C83DF82CE82CB01BA0128EE33E0E1
:104F400040E050E00AD4DC01CB0180509F4FAF4FCE
:104F5000BF4FE9E0B595A79597958795EA95D1F765
:104F6000998788870FD7EDB7FEB73A960FB6F894B2
:104F7000FEBF0FBEEDBFC501DF91CF910F91FF9036
:104F8000EF90DF90CF90BF90AF900895CF92DF92D7
:104F9000EF92FF920F931F93CF93DF93EC016A017F
:104FA0007B01122F403080E858078FEF68078FEFA2
:104FB000780729F4CE0166E676E0A8D628C080916D
:104FC00045048634F1F4DB01CA0123E0880F991F00
:104FD000AA1FBB1F2A95D1F7840F951FA61FB71FC5
:104FE000BC01CD0125E030E040E050E00AD4690189
:104FF0007A0180E090E4A0E0B0E0C80ED91EEA1E7D
:10500000FB1ECE01B701A601212FDBDEEC01CE0194
:10501000DF91CF911F910F91FF90EF90DF90CF9094
:1050200008952F923F924F925F926F927F928F924C
:105030009F92AF92BF92CF92DF92EF92FF920F9327
:105040001F93CF93DF9300D0CDB7DEB78C01FC0167
:1050500080818D3229F40F5F1F4F77247A9402C02C
:1050600077247394C8016EE270E072D66C01C801B7
:1050700060E070E04AE050E028D51B012C01C1142B
:10508000D10469F186010F5F1F4FC801BE016F5F38
:105090007F4F4AE050E019D56B017C016980601AAE
:1050A000F9E0CC0CDD1CEE1CFF1CFA95D1F700E0FA
:1050B00010E0AAE08A2E912CA12CB12C0DC0C701C2
:1050C000B6016B5F7F4F8F4F9F4FA501940199D31E
:1050D00069017A010F5F1F4F601689F703C0CC2466
:1050E000DD247601672D70E080E090E0A20191015F
:1050F000E9E0220F331F441F551FEA95D1F72C0D0D
:105100003D1D4E1D5F1D29D30F900F90DF91CF9154
:105110001F910F91FF90EF90DF90CF90BF90AF90D5
:105120009F908F907F906F905F904F903F902F90C7
:1051300008950F931F9375DF8B019C0180914504A7
:105140008634D1F4D901C80142E0880F991FAA1F03
:10515000BB1F4A95D1F7800F911FA21FB31F80502C
:105160009044A140B040BC01CD0129E030E040E0D6
:1051700050E047D389019A01003080E818078FEF8B
:1051800028078FEF38076CF0003080E8180780E0C0
:10519000280780E038073CF00FEF1FE720E030E001
:1051A00002C000E010E8C8011F910F910895AF926E
:1051B000BF92CF92DF92EF92FF920F93CF935C0159
:1051C0006A017B01C22F809145048634B1F4DB0172
:1051D000CA0153E0880F991FAA1FBB1F5A95D1F728
:1051E0008C0D9D1DAE1DBF1DBC01CD0125E030E025
:1051F00040E050E006D369017A01C501B701A6017C
:105200002C2FDFDDCF910F91FF90EF90DF90CF90AB
:10521000BF90AF9008950F931F9303DF8B019C0104
:10522000809145048634B1F4D901C80162E0880F49
:10523000991FAA1FBB1F6A95D1F7800F911FA21F4C
:10524000B31FBC01CD0129E030E040E050E0D9D2ED
:1052500089019A01003080E818078FEF28078FEF47
:1052600038076CF0003080E8180780E0280780E0FD
:1052700038073CF00FEF1FE720E030E002C000E00D
:1052800010E8C8011F910F9108950F931F938B0190
:105290009C01809145048634D1F4D901C80173E0A2
:1052A000880F991FAA1FBB1F7A95D1F7800F911FF6
:1052B000A21FB31FBC01CD0125E030E040E050E06B
:1052C000A0D289019A010050104C2F4F3F4FC901C5
:1052D000B8012AE030E040E050E03FD260507F4F1C
:1052E0008F4F9F4F20E032E040E050E08AD2C9016A
:1052F0001F910F9108950F931F9320914504AC01C6
:10530000BA01882777FD8095982F2634B9F420E0DC
:105310003AE040E050E021D2605070488C4090402C
:1053200029E030E040E050E06CD289019A010B5F47
:105330001F4F2F4F3F4FC901B8010BC0E9E0660F67
:10534000771F881F991FEA95D1F76B5F7F4F8F4FAB
:105350009F4F2AE030E040E050E053D2C9011F9156
:105360000F910895CF92DF92EF92FF920F931F93C8
:10537000CF93DF937C01FC01EB50FF4F8081918143
:105380000E943D1C29EFC22ED12CCE0CDF1CE70160
:10539000C950DF4F88819981B60140E00E94E7142F
:1053A000882329F50E948206DC01CB01803D27E09D
:1053B000920720E0A20720E0B20708F09CC000D0CE
:1053C00000D0EDB7FEB7319683E896E0ADB7BEB733
:1053D00012969C938E931197D7018C91828313829E
:1053E0000E94741F0F900F900F900F9084C08881BF
:1053F0009981B6014CE00E94C0158881998160E0D6
:105400000E940416888199810E9407160E948206D4
:10541000DC01CB01F70182839383A483B5836EEE15
:1054200072E080E090E00E94BE0688819981B6011A
:105430000E943F168C010E948206DC01CB01F7011D
:105440004281538164817581841B950BA60BB70B38
:10545000813DF7E09F07F0E0AF07F0E0BF0728F0DD
:10546000D70111961C92119746C0BFEF01381B0758
:10547000E1F2888199810E9407166EEE72E080E069
:1054800090E00E94BE0688819981B6010E943F1675
:10549000EC0181E0F7018183FCEFC030DF0764F0AD
:1054A00024E0C030D20714F0CFEFD3E085E0CC0F7A
:1054B000DD1F8A95E1F702C0C0E0D0E8C7010B9676
:1054C000BE010E946B098701075A1F4FC801BE0128
:1054D0000E946B09C70189559F4F60E070E00E94F0
:1054E0006B09C8010E946809DC01CB01F7018783C1
:1054F0009087A187B287DF91CF911F910F91FF9085
:10550000EF90DF90CF900895FC0181810895EF9294
:10551000FF920F931F93CF93DF938C010E9482061B
:10552000DC01CB01F8014281538164817581841BC8
:10553000950BA60BB70B8938F3E19F07F0E0AF0797
:10554000F0E0BF07B0F0F801E950FF4F8081918192
:105550000E9407160E948206DC01CB01F8018283BB
:105560009383A483B5836EEE72E080E090E00E94A6
:10557000BE0659EFE52EF12CE00EF11EE801C950F0
:10558000DF4F88819981B7010E943F16D80111969B
:105590002C911197BFEF81389B07E1F42223B9F0DA
:1055A00000D000D0EDB7FEB731968FEA96E0ADB7E8
:1055B000BEB712969C938E931197D8018C918283DB
:1055C00013820E94741F0F900F900F900F90F8019C
:1055D000118290C0222321F560ED77E080E090E019
:1055E0000E94BE06C801BEDE00D000D0EDB7FEB7F7
:1055F000319689ED96E0ADB7BEB712969C938E9327
:105600001197D8018C91828313820E94741F0F908E
:105610000F900F900F9088819981B7010E943F16DB
:10562000BCEF80309B076CF0E4E080309E0714F004
:105630008FEF93E0EC0145E0CC0FDD1F4A95E1F7D9
:1056400002C0C0E0D0E8C8010B96BE010E9452091A
:1056500039E5E32EF12CE00EF11EC701BE010E94D8
:105660005209D80116968C911697815016968C93F4
:1056700016978D3051F4C7010E946809DC01CB01F7
:10568000F80187839087A187B287D80116968C91FD
:1056900016978823F9F4C7010E946809AB01BC0181
:1056A000F80187819085A185B285481B590B6A0B4B
:1056B0007B0BC80189559F4F0E942809C7010E9492
:1056C0006809DC01CB01F80187839087A187B28745
:1056D0008CE08683F801E950FF4F808191810E9420
:1056E00007160E948206DC01CB01F80182839383B6
:1056F000A483B583DF91CF911F910F91FF90EF901D
:1057000008950B960C946509875A9F4F0C94650970
:1057100089559F4F0E9468092CE231E040E050E03B
:105720001CD0AB01BC01AB01772757FD7095672FEB
:10573000CA010895875A9F4F0C948209875A9F4F38
:105740000C9485090B960C941309875A9F4F0C945F
:10575000130989559F4F0C941309629FD001739FC1
:10576000F001829FE00DF11D649FE00DF11D929FFD
:10577000F00D839FF00D749FF00D659FF00D99273C
:10578000729FB00DE11DF91F639FB00DE11DF91F60
:10579000BD01CF011124089597FB092E07260AD0D9
:1057A00077FD04D049D006D000201AF47095619599
:1057B0007F4F0895F6F7909581959F4F0895A1E248
:1057C0001A2EAA1BBB1BFD010DC0AA1FBB1FEE1F7B
:1057D000FF1FA217B307E407F50720F0A21BB30BC6
:1057E000E40BF50B661F771F881F991F1A9469F742
:1057F00060957095809590959B01AC01BD01CF019E
:10580000089597FB092E05260ED057FD04D0D7DF4B
:105810000AD0001C38F450954095309521953F4FA3
:105820004F4F5F4F0895F6F790958095709561956D
:105830007F4F8F4F9F4F0895AA1BBB1B51E107C09D
:10584000AA1FBB1FA617B70710F0A61BB70B881F10
:10585000991F5A95A9F780959095BC01CD0108959F
:10586000EE0FFF1F0590F491E02D0994CF93DF9385
:10587000AC018230910510F442E050E0E091D7068F
:10588000F091D80620E030E0A0E0B0E024C08081B4
:10589000918184179507D0F08417950771F4828160
:1058A0009381109729F013969C938E9312972CC096
:1058B0009093D8068093D70627C02115310519F09B
:1058C0008217930718F49C01BD01EF019281838137
:1058D000DF01E92FF82F3097D1F621153105F9F0C6
:1058E000C901841B950B8430910580F48A819B81CA
:1058F0006115710521F0FB019383828304C09093AD
:10590000D8068093D706FE01329642C0FE01E80F0A
:10591000F91F4193519302979983888339C08091ED
:10592000D5069091D606009741F48091100390918E
:1059300011039093D6068093D50620910E033091E3
:105940000F032115310541F42DB73EB780911203A5
:1059500090911303281B390BE091D506F091D606E0
:10596000E217F30798F42E1B3F0B2417350770F04E
:10597000CA0102962817390748F08E0F9F1F90938F
:10598000D6068093D5064193519302C0E0E0F0E043
:10599000CF01DF91CF9108950F931F93CF93DF93A2
:1059A0009C01009709F48CC0DC01129713961C929D
:1059B0001E9212976091D7067091D80661157105F5
:1059C00089F48D919C911197820F931F2091D50698
:1059D0003091D6062817390769F5B093D606A093FB
:1059E000D5066EC0FB0140E050E001C0FC01EA17A3
:1059F000FB0730F482819381AF010097B9F71FC094
:105A0000E9012297FB83EA8308811981C901800F8C
:105A1000911F8E179F0759F480819181800F911FEC
:105A2000029699838883828193819B838A8341151F
:105A3000510529F4B093D806A093D70641C0FA01C6
:105A4000B383A283C191D191EC0FFD1FAE17BF07A5
:105A500081F4F901929182918C0F9D1F0296DA01D7
:105A600011969C938E938281938113969C938E932F
:105A70001297E0E0F0E002C0FB01BC01DB011296EE
:105A80008D919C9113970097B9F7CB0102962D91B8
:105A90003C911197820F931F2091D5063091D60625
:105AA0002817390769F4309729F41092D806109214
:105AB000D70602C0138212827093D6066093D50671
:105AC000DF91CF911F910F910895A4E0B0E0EAE635
:105AD000FDE267C42B017A016115710529F0DB0134
