:100000005FC4000084C4000082C400000C94DA0ABB
:100010007EC400000C94360A7AC4000078C4000044
:1000200076C4000074C4000072C4000070C40000F4
:100030006EC400006CC400006AC4000068C4000004
:10004000FEC6000064C4000076C50000B5C500000F
:100050005EC400005CC400005AC4000058C4000024
:1000600056C4000054C40000000000070002010054
:100070000003040600000000000000000102040864
:100080001020408001020408102001020408102002
:10009000040404040404040402020202020203032E
:1000A00003030303000000002300260029000000D2
:1000B0000000250028002B0000000000240027007D
:1000C0002A0041726475696E6F2072657374617283
:1000D000746564210046726964676520646F6F729D
:1000E000206F70656E6564004672696467652064A0
:1000F0006F6F7220636C6F73656400506F73697407
:10010000697665207065616B2064657465637465EC
:10011000642E004472696674696E67207570206190
:10012000667465722068656174696E6720746F6FAC
:100130002073686F72742E005065616B3A202573CE
:1001400020457374696D617465643A2025732E20AF
:100150004E657720657374696D61746F723A2025FE
:1001600073004E65676174697665207065616B2008
:1001700064657465637465642E00447269667469AD
:100180006E6720646F776E20616674657220636F9E
:100190006F6C696E6720746F6F2073686F72742E56
:1001A000005065616B3A2025732E20457374696D8C
:1001B000617465643A2025732E204E65772065733F
:1001C00074696D61746F723A20257300202D2D2E95
:1001D0002D004D6F6465202020004265657220204F
:1001E000200046726964676520004672696467652D
:1001F00020436F6E73742E004265657220436F6EEC
:100200007374616E7400426565722050726F666926
:100210006C6520004F6666202020202020202020B2
:100220002000496E76616C6964206D6F6465200002
:1002300049646C6520666F722020202020202020D9
:1002400020202020005374617274696E67207570DD
:100250002E2E2E20202020202000436F6F6C696EF0
:100260006720666F72202020202020202020004858
:10027000656174696E6720666F72202020202020DF
:1002800020202000446F6F72206F70656E20202048
:1002900020202020202020200054656D702E206317
:1002A0006F6E74726F6C204F464620202000556E92
:1002B0006B6E6F776E2073746174757321202020CC
:1002C000202000207300202020202020004368618F
:1002D0006E67656420746F2070726F66696C65204C
:1002E0006D6F646520696E206D656E752E005465B6
:1002F0006D7020636F6E74726F6C207475726E65B2
:1003000064206F666620696E206D656E752E002014
:100310002020202020202020202020200042656551
:10032000722074656D702073657420746F2025735E
:1003300020696E204D656E752E0020202020200043
:100340004672696467652074656D702073657420FA
:10035000746F20257320696E204D656E752E002008
:100360002020202000005EBCE2613FDD83C29C7E35
:1003700020A3FD1F419DC3217FFCA2401E5F01E31E
:10038000BD3E6082DC237D9FC1421CFEA0E1BF5DBB
:100390000380DE3C62BEE0025CDF81633D7C22C004
:1003A0009E1D43A1FF4618FAA427799BC584DA381D
:1003B00066E5BB5907DB856739BAE406581947A5D6
:1003C000FB7826C49A653BD987045AB8E6A7F91B7F
:1003D00045C6987A24F8A6441A99C7257B3A6486BC
:1003E000D85B05E7B98CD2306EEDB3510F4E10F2E9
:1003F000AC2F7193CD114FADF3702ECC92D38D6F86
:1004000031B2EC0E50AFF1134DCE90722C6D33D152
:100410008F0C52B0EE326C8ED0530DEFB1F0AE4C6B
:100420001291CF2D73CA947628ABF517490856B4AC
:10043000EA6937D58B5709EBB536688AD495CB294D
:1004400077F4AA4816E9B7550B88D6346A2B759706
:10045000C94A14F6A8742AC896154BA9F7B6E80A33
:1004600054D7896B3544656661756C7420636F6E13
:100470007374616E7473206C6F616465642E0044E4
:10048000656661756C742073657474696E6773203A
:100490006C6F616465642E004E3A222553220A0077
:1004A000302E312E300025733C42523E00496E768C
:1004B000616C696420636F6D6D616E642072656349
:1004C00065697665642062792041726475696E6F32
:1004D0003A20256300543A7B224265657254656D6B
:1004E00070223A25732C002242656572536574228E
:1004F0003A25732C002242656572416E6E223A00E5
:100500006E756C6C2C00222573222C0022467269B9
:1005100064676554656D70223A25732C002246721B
:1005200069646765536574223A25732C002246720C
:1005300069646765416E6E223A006E756C6C2C00C2
:10054000222573222C00225374617465223A25758A
:100550007D0A007D0A006D6F6465006265657253F7
:10056000657474696E670066726964676553657463
:1005700074696E670068656174457374696D617450
:100580006F7200636F6F6C457374696D61746F7225
:100590000074656D70466F726D61740074656D7086
:1005A00053657474696E674D696E0074656D705340
:1005B000657474696E674D6178004B70486561744D
:1005C000004B70436F6F6C004B69004B64436F6F5F
:1005D0006C004B644865617400694D6178457272C6
:1005E0006F720069646C6552616E6765486967681F
:1005F0000069646C6552616E67654C6F7700686571
:100600006174696E67546172676574557070657264
:100610000068656174696E675461726765744C6FD8
:1006200077657200636F6F6C696E6754617267659E
:1006300074557070657200636F6F6C696E6754619A
:10064000726765744C6F776572006D61784865619B
:100650007454696D65466F72457374696D61746534
:10066000006D6178436F6F6C54696D65466F7245BC
:100670007374696D6174650066726964676546616B
:10068000737446696C746572006672696467655359
:100690006C6F7746696C7465720066726964676531
:1006A000536C6F706546696C746572006265657243
:1006B0004661737446696C74657200626565725355
:1006C0006C6F7746696C7465720062656572536C15
:1006D0006F706546696C7465720062656572446925
:1006E00066660064696666496E74656772616C006F
:1006F00062656572536C6F7065007000690064001C
:100700004B70004B6400657374696D61746564506F
:1007100065616B006E65675065616B5365747469E4
:100720006E6700706F735065616B53657474696EAA
:1007300067006E65675065616B00706F735065612F
:100740006B00222575220052656365697665642019
:100750006E65772073657474696E673A202573201F
:100760003D202573004D6F64652073657420746FA0
:1007700020256320696E2077656220696E7465723A
:100780006661636500426565722074656D702073F3
:10079000657420746F2025732062792074656D70F4
:1007A000657261747572652070726F66696C652E12
:1007B00000426565722074656D70207365742074E5
:1007C0006F20257320696E2077656220696E7465DD
:1007D00072666163652E00467269646765207465A0
:1007E0006D702073657420746F20257320696E20EE
:1007F00077656220696E746572666163652E004379
:100800006F756C64206E6F742070726F63657373A4
:100810002073657474696E67006E756C6C00256476
:100820002E253031640025642E2530326400256485
:100830002E2530336400556E61626C6520746F2024
:1008400066696E64206164647265737320666F729A
:100850002073656E736F72206F6E2070696E202535
:10086000640054656D70657261747572652073659E
:100870006E736F72206F6E2070696E202564206425
:100880006973636F6E6E65637465640054656D7043
:10089000657261747572652073656E736F72206F17
:1008A0006E2070696E202564207265636F6E6E65C0
:1008B000637465640000A3082215C7182515CA18BB
:1008C00011241FBECFEFD8E0DEBFCDBF11E0A0E006
:1008D000B1E0E6EBF3E602C005900D92A833B10754
:1008E000D9F714E0A8E3B1E001C01D92AA3DB10719
:1008F000E1F718E0CCEBD8E004C02297FE010E949B
:10090000FA2BC63BD107C9F7E3D40C94CF31E9C425
:10091000FC0124853585F901E05CFF4F80819181E0
:100920002E5B3F4FF90120813181821B930B8F7326
:1009300090700895FC0144855585FA01E05CFF4FF5
:1009400080819181FA01EE5BFF4F20813181821716
:10095000930741F00190F081E02DE40FF51F8081B5
:1009600090E008958FEF9FEF0895FC014485558531
:10097000FA01E05CFF4F20813181FA01EE5BFF4F0D
:10098000808191812817390779F0A081B181A40F66
:10099000B51F8C91208131812F5F3F4F2F733070B5
:1009A0003183208390E008958FEF9FEF0895FC013D
:1009B00081A1882329F0A489B5898C9186FFFBCF7A
:1009C00011A20895CF93DF93DC011E964D915C91A7
:1009D0001F97EA01C05CDF4F288139812F5F3F4FAD
:1009E0002F733070FA01EE5BFF4F808191812817E1
:1009F0003907D9F3E881F981E40FF51F60831E966A
:100A0000ED91FC911F97E05CFF4F31832083569658
:100A1000ED91FC915797208181E090E05F960C90DA
:100A20005F9702C0880F991F0A94E2F7282B208352
:100A300081E091968C9391975496ED91FC91559706
:100A400080818064808381E090E0DF91CF91089580
:100A5000CF92DF92EF92FF920F931F93CF93DF938A
:100A60006C017B01EA0100E010E00EC0D7016D913E
:100A70007D01D601ED91FC910190F081E02DC60140
:100A80000995080F191F2197209781F7C801DF9159
:100A9000CF911F910F91FF90EF90DF90CF9008952D
:100AA000833071F0843028F48130A1F0823021F558
:100AB00014C08630B1F08730D1F08430E9F404C03E
:100AC000809180008F7703C0809180008F7D80931C
:100AD0008000089584B58F7702C084B58F7D84BD72
:100AE00008958091B0008F778093B0000895809131
:100AF000B0008F7D8093B00008950F931F93CF9324
:100B0000DF938C01EB01209771F0CB010E94812EC5
:100B1000AC01D801ED91FC910280F381E02DC80178
:100B2000BE01099502C080E090E0DF91CF911F9156
:100B30000F91089508951F920F920FB60F921124EE
:100B40002F933F934F938F939F93EF93FF938091B6
:100B5000C00082FD1CC04091C6008091E6019091CA
:100B6000E70101968F7390702091E8013091E901BF
:100B70008217930771F0E091E601F091E701EA55E1
:100B8000FE4F40839093E7018093E60102C080917D
:100B9000C600FF91EF919F918F914F913F912F91BF
:100BA0000F900FBE0F901F90189580E491E0B0DE7B
:100BB000009709F0BFCF08951F920F920FB60F92C2
:100BC00011242F933F938F939F93EF93FF93209143
:100BD000A2013091A3018091A4019091A501281751
:100BE000390731F48091C1008F7D8093C10014C01A
:100BF000E091A401F091A501EE59FE4F2081809172
:100C0000A4019091A50101968F7390709093A50116
:100C10008093A4012093C600FF91EF919F918F9143
:100C20003F912F910F900FBE0F901F901895BF927C
:100C3000CF92DF92EF92FF920F931F93CF93DF93A8
:100C4000EC016A017B01BB24B394403081EE58076C
:100C500080E0680780E0780749F4BB24EC89FD89CF
:100C6000108260E874E88EE190E00FC0EC89FD89A5
:100C700081E090E008A002C0880F991F0A94E2F773
:100C8000808360E079E08DE390E0A70196010E9407
:100C9000A72B89019A010150104020403040369521
:100CA00027951795079580E10030180710F0BB20B5
:100CB000A1F6E889F9891083EA89FB89008319A2E2
:100CC000EE89FF89408121E030E0C9010C8C02C02F
:100CD000880F991F0A94E2F7482B4083EE89FF8919
:100CE0004081C9010D8C02C0880F991F0A94E2F758
:100CF000482B4083EE89FF894081C9010E8C02C0D8
:100D0000880F991F0A94E2F7482B4083EE89FF89E8
:100D100080810F8C02C0220F331F0A94E2F72095C6
:100D200028232083DF91CF911F910F91FF90EF90A7
:100D3000DF90CF90BF900895E0CE0895DC01ED9153
:100D4000FC910190F081E02D099508954F925F92FA
:100D50006F927F92AF92BF92CF92DF92EF92FF920B
:100D60000F931F93CF93DF93CDB7DEB7A1970FB645
:100D7000F894DEBF0FBECDBF5C01E42ECB01F22E96
:100D800019A221E02F1510F03AE0F32E21E2C22E35
:100D9000D12CCC0EDD1E4F2C55246624772403C0A5
:100DA000E02E512FC9016E2D752FA30192010E94D3
:100DB000A72B89019A01F09E802D1124E81A8E2D0F
:100DC0000894C108D1088A3010F4805D01C0895CA4
:100DD000F6018083011511052105310509F7C501CB
:100DE000B6018BDEA1960FB6F894DEBF0FBECDBF65
:100DF000DF91CF911F910F91FF90EF90DF90CF90F7
:100E0000BF90AF907F906F905F904F9008952115A5
:100E1000310549F4DC01ED91FC910190F081E02D68
:100E2000642F0995089592CF9A01AB0160E070E0BC
:100E3000EECF0C94FE2B08950C94942C08951F92E1
:100E40000F920FB60F9211242F933F938F939F937E
:100E5000AF93BF938091380190913901A0913A01ED
:100E6000B0913B013091EA01232F2D5F2D3720F403
:100E70000196A11DB11D05C0232F2A570296A11D61
:100E8000B11D2093EA018093380190933901A0931A
:100E90003A01B0933B0180913C0190913D01A091BA
:100EA0003E01B0913F010196A11DB11D80933C010F
:100EB00090933D01A0933E01B0933F01BF91AF914C
:100EC0009F918F913F912F910F900FBE0F901F9088
:100ED00018950F931F938FB7F894009138011091D4
:100EE000390120913A0130913B018FBFB801C9010E
:100EF0001F910F9108950F931F939FB7F89400913E
:100F00003C0110913D0120913E0130913F0186B599
:100F1000A89B06C08F3F21F00F5F1F4F2F4F3F4F01
:100F20009FBF322F212F102F0027080F111D211DC9
:100F3000311D52E0000F111F221F331F5A95D1F7A8
:100F4000B801C9011F910F910895CF92DF92EF92DE
:100F5000FF92CF93DF936B017C01CDDFDC01CB01EE
:100F6000EC010EC0C8DF6C1B7D0B83E0683E780788
:100F700038F00894C108D108E108F108C851DC4FE5
:100F8000C114D104E104F10469F7DF91CF91FF901E
:100F9000EF90DF90CF900895019739F0880F991F57
:100FA000880F991F02970197F1F70895789484B5F7
:100FB000826084BD84B5816084BD85B5826085BD55
:100FC00085B5816085BDEEE6F0E08081816080833B
:100FD000E1E8F0E01082808182608083808181601E
:100FE0008083E0E8F0E0808181608083E1EBF0E0E5
:100FF000808184608083E0EBF0E080818160808389
:10100000EAE7F0E080818460808380818260808371
:101010008081816080838081806880831092C1009C
:10102000089590E0FC01E458FF4F249180579F4FB2
:10103000FC018491882341F190E0880F991FFC0105
:10104000E854FF4F45915491DA0182559F4FFC01BE
:1010500085919491FC019FB7F8948C91662331F4AB
:10106000209582238C938081822308C0623049F4CA
:10107000322F309583238C938081822B80839FBF76
:101080000895822B8C939FBF08950F931F93CF9346
:10109000DF930F92CDB7DEB7282F30E0F901E85982
:1010A000FF4F8491F901E458FF4F1491F901E05783
:1010B000FF4F04910023C9F0882319F06983F0DC05
:1010C0006981E02FF0E0EE0FFF1FE255FF4F8591A1
:1010D0009491DC019FB7F8948C91662319F41095D4
:1010E000812301C0812B8C939FBF0F90DF91CF9103
:1010F0001F910F910895CF93DF93282F30E0F901CE
:10110000E859FF4F8491F901E458FF4FC491F90168
:10111000E057FF4FD491DD2389F0882309F0C0DC2C
:10112000ED2FF0E0EE0FFF1FEC55FF4F85919491EE
:10113000FC0120812C2381E090E011F480E090E01C
:10114000DF91CF910895109243011092420188EEF1
:1011500093E0A0E0B0E08093440190934501A09318
:101160004601B0934701E2E4F1E088E191E0929317
:10117000829386EA91E09587848782E691E097875B
:10118000868785EC90E0918B808B84EC90E0938B4C
:10119000828B80EC90E0958B848B81EC90E0978B38
:1011A000868B82EC90E0918F808F86EC90E0938F1D
:1011B000828F84E0848F83E0858F87E0868F85E04F
:1011C000878F81E080A30895CF93DF930E94611EF3
:1011D00086E061E05ADF85E061E057DF86E061E0AC
:1011E00020DF85E061E01DDF84E060E01ADF0E941F
:1011F0007F140E94D514A4D6F1D460ED77E080E08E
:1012000090E0A3DECFE6D4E0CE010E940A17CE0123
:101210000E94E617CE010E94501880EF91E009D29B
:1012200000D082EC90E0EDB7FEB7928381830E94FC
:10123000B71F0F900F90CFEED1E0CE0158D0CE0166
:1012400062E044EF51E063D0DF91CF91089541DE39
:10125000DC01CB014091EB015091EC016091ED017B
:101260007091EE01841B950BA60BB70B893E23E012
:10127000920720E0A20720E0B20740F12ADEDC015D
:10128000CB018093EB019093EC01A093ED01B0931F
:10129000EE0133D40E94F81153D6A0D44DD48091DE
:1012A000F801882321F01092F8010E94011C8FE6BA
:1012B00094E00E9450188FE694E00E94C9178FE6D0
:1012C00094E00E941E188FE694E02FD20C94F7252C
:1012D0006DDE7ADFC5EDD5E0BADF2097E9F365DC96
:1012E000FBCF1F920F920FB60F921124FFCF83E016
:1012F00061E097DE81E28093B0008BE08093B100E3
:101300008DE78093B3008EE38093B4000895BF927D
:10131000CF92DF92EF92FF920F931F93CF93DF93C1
:10132000B62E00E010E06A01EE24FF24C62FD0E0C4
:10133000219715C08091B00080628093B000C701F2
:10134000B60103DE8091B0008F7D8093B0000C1752
:101350001D071CF4C701B601F8DD0F5F1F4F0B1509
:1013600048F3DF91CF911F910F91FF90EF90DF90A5
:10137000CF90BF900895FC0198E0908F82E0818F1C
:1013800092AB83ABDF01A45BBF4F9C93E35BFF4F4A
:1013900080830895FC01862F880F8C5F808F618F7A
:1013A00082AB63ABDF01A45BBF4F8C93E35BFF4F6A
:1013B00060830895EF92FF920F931F93CF93DF9373
:1013C0008C01F62FE72FC0E0D0E02AE1E22EF12CCD
:1013D000CE9D9001CF9D300DDE9D300D1124C801B2
:1013E000820F931F6F2F7E2F0E94CD18AB01F82F15
:1013F000E92F2196C330D10559F7DF91CF911F9185
:101400000F91FF90EF9008959B01A901662757FD6A
:101410006095762FBA0155274427CCDFAB01BC017C
:10142000AB01772757FD7095672FCA010895FC011E
:10143000E05CFF4F608171818281938108950F93F9
:101440001F93CF93DF93EC018B010E947D19CE0196
:101450004A96B8010E947D19CE01C496B8010E9437
:101460007D19DF91CF911F910F9108951F920F92D7
:101470000FB60F9211242F933F934F935F936F9367
:101480007F938F939F93AF93BF93EF93FF934F9966
:1014900006C081E08093F8018FE694E0D2D1FF91FD
:1014A000EF91BF91AF919F918F917F916F915F91DC
:1014B0004F913F912F910F900FBE0F901F90189555
:1014C0001F93CF93DF93EC01162F15DDDC01CB01C9
:1014D0004D855E856F857889841B950BA60BB70BB0
:1014E000843F21E0920720E0A20720E0B207A0F1AC
:1014F00089858B8719879B858985981769F1FBDC1E
:10150000DC01CB018D879E87AF87B88B99858A8553
:10151000981721F48E819F81019603C08E819F814F
:1015200001979F838E83688179812E813F81CB01D2
:1015300001964A815B818217930714F45F834E837F
:101540008E819F81415050408417950714F47F830A
:101550006E838FE694E075D1DF91CF911F9108954E
:101560001F93CF93DF93EC01162FC5DCDC01CB0179
:1015700049895A896B897C89841B950BA60BB70B0B
:10158000843F21E0920720E0A20720E0B20770F03C
:101590008A858C871A879C858A85981739F0ABDCF9
:1015A000DC01CB01898B9A8BAB8BBC8BDF91CF910C
:1015B0001F9108951F920F920FB60F9211242F932F
:1015C0003F934F935F936F937F938F939F93AF93CB
:1015D000BF93CF93DF93EF93FF93C3B1C170D1E07B
:1015E000199BD0E080910502C81721F080EF91E0AF
:1015F0006C2F66DF80910602D81721F080EF91E012
:101600006D2FAEDFC0930502D0930602FF91EF91DC
:10161000DF91CF91BF91AF919F918F917F916F910A
:101620005F914F913F912F910F900FBE0F901F90A0
:101630001895CF93DF93EC018FEF9FE79983888311
:1016400080E090E89B838A831D821C821F821E8219
:10165000188681E089878A878B878C871D861E86FE
:101660001F86188A198A1A8A1B8A1C8A88E060E0F9
:10167000D8DC89E060E0D5DC87E060E0D2DCCE0138
:1016800061E01EDFCE0161E06BDFE8E6F0E0808123
:1016900085608083EBE6F0E0808183608083EDE607
:1016A000F0E0808180688083DF91CF910895FC0114
:1016B0008FB7F894660F771F77836683440F551FA3
:1016C00053834283220F331F3183208375836483C6
:1016D0008FBF0895FC012FB7F8948681978186818A
:1016E0009781817019F08481958106C086819781E8
:1016F00095958795958384832FBF0895CF93DF9326
:10170000EC01E8DF2091070230910802821793076D
:1017100041F0CE01DFDF909308028093070281E061
:1017200001C08885DF91CF910895CF93DF93EC01BD
:10173000D0DB28EE33E040E050E00E94A72B8D85FF
:101740009E85885A9D4F8217930718F48D81846077
:1017500002C08D818B7F8D83DF91CF910895DA0157
:1017600020E030E075E1679FB0011124680F791F18
:1017700090EBFB01E20FF31F87858F3D11F49C93E3
:1017800001C08C932F5F3F4F11962431310589F7AB
:10179000FA01148A08958BE061E043DC8DE061E09A
:1017A00040DC8AE061E03DDC8CB58F7D8CBD8CB582
:1017B00082608CBD8DB581608DBD8CB588608CBD1F
:1017C0008CB584608CBD8CB580618CBD8CB580641B
:1017D0008CBD0895CF93DF93EC01862F6C8361E07D
:1017E00020DC88E28E83CE01D6DFDE0124E030E209
:1017F0000FC0FD01E80FF91F37870196843191056D
:10180000C1F793961C92939721505596222319F075
:1018100080E090E0EECF1E861D86DF91CF91089587
:10182000CF93DF93EC018C8160E02FDC8D818EBD46
:101830000DB407FEFDCF8C8161E027DCDF91CF91F5
:101840000895CF93DF93EC0144DB28EE33E040E0D2
:1018500050E00E94A72B3E872D87CE0166DFCE0188
:10186000DFDFDF91CF910895CF93DF93EC018D817E
:1018700082608D83CE01D4DF81E090E08DDB8D81AD
:101880008D7F8D83CE01CCDFDF91CF910895CF93F3
:10189000DF93EC018D816295607F8F70682B6D8383
:1018A000CE01BEDFCE01E0DFDF91CF9108950F932F
:1018B0001F93CF93DF93EC01162F0FB7F8948D8110
:1018C000442311F0816001C08E7F8D83CE01A8DF9B
:1018D000212F30E044E0359527954A95E1F7CE0178
:1018E000622FD5DFCE01612FD2DF0FBFDF91CF9105
:1018F0001F910F9108951F93CF93DF93EC01162F43
:1019000041E0D5DF4B858A8590E025E130E0829F7C
:10191000F001839FF00D929FF00D1124EC0FFD1F3D
:10192000E40FF11D17874F5F4B8780EA9FE0019717
:10193000F1F781E090E0DF91CF911F91089540E0B1
:10194000B6DF80EA9FE00197F1F70895FC0160851A
:101950006E7F60876460F3CFFC016085262F226074
:1019600020876660ECCFFC016781262F24602783E7
:101970006C60E5CFCF93DF9300D000D0CDB7DEB75A
:10198000198220E42A8324E12B8324E52C83FC01A3
:101990002485421708F040E0FC0142876387FE017E
:1019A000E40FF11D2181260F2068622FC8DF0F9000
:1019B0000F900F900F90DF91CF910895CF93DF9309
:1019C000EC0162E0BCDF1A861B86DF91CF9108959F
:1019D00061E0B5CFCF93DF93EC014C871A861B866D
:1019E00080E593ECD9DACE0163E051DF80E593EC3A
:1019F000D3DACE0163E04BDF88EE93E0CDDACE019F
:101A000063E045DF80E593ECC7DACE0162E03FDFBB
:101A100080E593ECC1DACE0168E291DFCE01D8DF38
:101A2000CE019ADFCE0192DFCE01C8DFCE019BDF6F
:101A3000DF91CF910895EF92FF920F931F93CF9371
:101A4000DF93EC0168830B9696DCCE01875A9F4F9B
:101A500092DCCE0189559F4F8EDC1A821B821C823C
:101A60001D8219828FEF8E838EE090E0E2D98C0187
:101A700068810E94AE1D25EFE22EF12CEC0EFD1EBA
:101A8000F7011183008387E090E00E94B9168C0172
:101A9000F70160817181DCD7C950DF4F198308835A
:101AA000DF91CF911F910F91FF90EF900895CF9309
:101AB000DF93EC01FC01EB50FF4F80819181BCD999
:101AC000C950DF4F888199810E94CC16DF91CF9158
:101AD00008958130910541F48DE693E063E1ABDF39
:101AE0008CE692E062E1A7CF009731F48CE692E0B9
:101AF000DEDF8DE693E0DBCF08958DE693E00E9474
:101B00005B2A80916E03882351F480913C028236D7
:101B100011F0863621F48DE693E00E948E298CE642
:101B200092E00E945B2A80916D02882321F48CE66A
:101B300092E00C948E29089580911902833049F027
:101B4000843068F0843029F0853049F486E060E024
:101B500008C086E061E099DA85E060E005C086E0D3
:101B600061E093DA85E061E090CAB3D928EE33E012
:101B700040E050E00E94A72BC9014091090250911A
:101B80000A0260910B0270910C02841B950B089560
:101B9000A0D928EE33E040E050E00E94A72BC90115
:101BA00040910D0250910E0260910F02709110024F
:101BB000841B950B08958DD928EE33E040E050E06A
:101BC0000E94A72BC901409111025091120260910D
:101BD000130270911402841B950B0895CF93DF9329
:101BE00084E089DA009789F480911902833059F0F2
:101BF00000D085ED90E0EDB7FEB7928381830E941F
:101C0000B71F0F900F9083E005C020913C022F3644
:101C100021F482E08093190290C180913F0290915B
:101C20004002F0E880309F0709F464C180916D02A2
:101C3000882309F45FC180916E03882309F070C185
:101C4000223609F457C1203709F06AC153C141D97E
:101C500028EE33E040E050E00E94A72BC901A0E04D
:101C6000B0E08093110290931202A0931302B093FC
:101C7000140280911702882309F05FC18091180235
:101C8000882309F05AC18CE692E00E94552B2091DE
:101C90003F02309140024091560250915702240F6A
:101CA000351F2817390764F580913C02863659F4B0
:101CB0005CDF23E085389207E0F06ADF32E08935A7
:101CC0009307E0F416C08DE693E00E94552B209117
:101CD0003D0230913E02821793070CF42EC145DF7E
:101CE000E1E08D329E0728F053DFF2E089359F074F
:101CF00028F480911902813009F01FC185E08ACF54
:101D00008CE692E00E94552B20913F0230914002D8
:101D10004091580250915902240F351F82179307A2
:101D20000CF00BC18DE693E00E94552B20913D02F3
:101D300030913E02281739070CF4FFC016DF22E06D
:101D40008935920728F024DF31E08D32930728F49B
:101D500080911902813009F0F0C084E05BCF81E00E
:101D600080931702B6D828EE33E040E050E00E949E
:101D7000A72BC901A0E0B0E08093090290930A026A
:101D8000A0930B02B0930C02C0916402D091650243
:101D900012DFC817D90728F4209164023091650238
:101DA00002C009DF9C0160914302709144028827C0
:101DB00077FD8095982F442737FD4095542F0E943A
:101DC000752B20E13EE040E050E00E94C92BE90184
:101DD0008CE692E00E94552BFC01EC1BFD0BF0936E
:101DE0003302E0933202C0913F02D09140028091D1
:101DF0005E0290915F022091600230916102820F39
:101E0000931F62E070E00E94942B6C0F7D1F6E1791
:101E10007F070CF492C0D0933502C0933402CBDE1E
:101E2000E1E08D329E0708F488C064C081E08093B1
:101E300018024FD828EE33E040E050E00E94A72B74
:101E4000C901A0E0B0E080930D0290930E02A09330
:101E50000F02B0931002C0916202D0916302ABDE18
:101E6000C817D90728F4209162023091630202C09A
:101E7000A2DE9C016091410270914202882777FDA9
:101E80008095982F442737FD4095542F0E94752B3D
:101E900020E13EE040E050E00E94C92BE9018CE6E1
:101EA00092E00E94552BFC01EC0FFD1FF0933302D2
:101EB000E0933202C0913F02D091400280915A02D9
:101EC00090915B0220915C0230915D02820F931F22
:101ED00062E070E00E94942B6C0F7D1FE617F707FD
:101EE00064F1D0933702C093360265DEF1E08D32A3
:101EF0009F0718F11092190220C084E0FCD88130AD
:101F00009105D9F400D088EE90E0EDB7FEB792834A
:101F100081830E94B71F109219020F900F900DC07D
:101F200080911902833049F3833008F490CE8430D5
:101F300009F47CCF853009F412CFDF91CF91089559
:101F40008F929F92AF92BF92CF92DF92EF92FF92C9
:101F5000CF93DF9380913C02823619F0803709F0ED
:101F6000B4C120913D0230913E0280E82030380714
:101F700009F4A6C18091060490910704A091080479
:101F8000B09109042A1B3B0B30931B0220931A02C9
:101F90008DE693E00E94632B9093210280932002B0
:101FA00080916E04982F9F5F90936E048C3309F09C
:101FB00073C010926E0480911A0290911B0297FFD9
:101FC00003C0909581959F4F209154023091550206
:101FD000821793070CF043C0EEDD27E089309207AB
:101FE00008F05AC080911A0290911B0297FF0EC010
:101FF000C0913F02D0914002C050DC4F8CE692E08D
:102000000E94552BC817D9070CF446C080911A02BC
:1020100090911B02181619066CF4C0913F02D091E2
:102020004002C050D4408CE692E00E94552B8C17A1
:102030009D0794F140911A0250911B02662757FDAB
:102040006095762F80911C0290911D02A0911E0236
:10205000B0911F02840F951FA61FB71F15C0809156
:102060001C0290911D02A0911E02B0911F02AC01B2
:10207000BD01D3E07595679557954795DA95D1F7EA
:10208000841B950BA60BB70B80931C0290931D022B
:10209000A0931E02B0931F0220911A0230911B02DE
:1020A00080912E0290912F02AA2797FDA095BA2F1A
:1020B0004427582F692F7A2F481B590B6A0B7B0B2B
:1020C00037FF2BC080914C0290914D02AA2797FDBB
:1020D000A095BA2F480F591F6A1F7B1F452F562FF7
:1020E000672F772767FD7A9550932F0240932E0232
:1020F0008091300290913102AA2797FDA095BA2FC6
:102100004427582F692F7A2F481B590B6A0B7B0BDA
:1021100080915002909151022AC080914A02909180
:102120004B02AA2797FDA095BA2F480F591F6A1F87
:102130007B1F452F562F672F772767FD7A95509382
:102140002F0240932E028091300290913102AA27F3
:1021500097FDA095BA2F4427582F692F7A2F481B37
:10216000590B6A0B7B0B8091520290915302AA2764
:1021700097FDA095BA2F480F591F6A1F7B1F452F47
:10218000562F672F772767FD7A955093310240933A
:10219000300260912E0270912F02882777FD809582
:1021A000982F442737FD4095542F0E94752B4B01E3
:1021B0005C01F9E0B594A79497948794FA95D1F7C8
:1021C0008092220290922302A0922402B0922502D1
:1021D00060914E0270914F02882777FD8095982F6D
:1021E00020911C0230911D0240911E0250911F024D
:1021F0000E94752B6B017C01A9E0F594E794D794BC
:10220000C794AA95D1F7C0922602D0922702E092F5
:102210002802F092290260913002709131028827E1
:1022200077FD8095982F209120023091210244273C
:1022300037FD4095542F0E94752BAB01BC01B9E0CE
:102240007595679557954795BA95D1F740932A02AA
:1022500050932B0260932C0270932D0280913D02CB
:1022600090913E02AA2797FDA095BA2F880D991D3F
:10227000AA1DBB1D8C0D9D1DAE1DBF1D840F951F7E
:10228000A61FB71F2091460230914702A901662779
:1022900057FD6095762F84179507A607B70784F03A
:1022A0004091480250914902662757FD6095762F6C
:1022B000481759076A077B0714F4DB01CA019C0120
:1022C0003093400220933F0206C080E090E8909354
:1022D0003E0280933D02DF91CF91FF90EF90DF901F
:1022E000CF90BF90AF909F908F9008958CE392E035
:1022F00061E070E049E050E00E94C63080913D020C
:1023000090913E0290931602809315020895CF9308
:10231000DF93EC01F5E075956795FA95E1F78FEF9E
:102320006B3A78076CF01616170614F460E070E04C
:1023300066557E4F9B01442737FD4095542F04C0BE
:1023400025E531E040E050E068817981882777FD1C
:102350008095982F0E94752BDC01CB01E9E0B595A3
:10236000A79597958795EA95D1F799838883BEDFDE
:10237000DF91CF910895CF93DF93EC0135E0759510
:1023800067953A95E1F777FD0DC06B39710514F04B
:102390006AE970E06A597D4F9B01442737FD4095FB
:1023A000542F04C026E632E040E050E06881798195
:1023B000882777FD8095982F0E94752BDC01CB0133
:1023C00080302EEF92072FEFA20720E0B20744F4EF
:1023D00029E0B595A795979587952A95D1F702C0DD
:1023E0008FEF9FE79983888381DFDF91CF910895F5
:1023F000AF92BF92CF92DF92EF92FF920F93CF9363
:10240000DF93CDB7DEB76B970FB6F894DEBF0FBE84
:10241000CDBF80911802882309F4CEC080911902A3
:10242000843009F4C9C089EF92E089D77C0120E8A3
:102430008030920781F1809136029091370220918D
:102440005A0230915B02820F931F8E159F0534F460
:10245000B701681B790B81E492E08DDF8091360231
:102460009091370220915C0230915D02820F931FA0
:10247000E816F90634F4B701681B790B81E492E0A1
:1024800046DF00D08BEF90E0ADB7BEB712969C93BD
:102490008E93119735C07CDB0A96B3E085389B0795
:1024A00008F483C08CE692E00E94552B20913602FE
:1024B0003091370240915C0250915D02240F351F2C
:1024C000821793070CF071C08CE692E00E94552BA6
:1024D0007C01809136029091370220915C0230910C
:1024E0005D02820F931FB701681B790B81E492E0B4
:1024F0000EDF00D083E191E0EDB7FEB792838183D8
:102500000E94FB1F0F900F90A701662757FD609553
:10251000762FCE01439623E009E00E949D275C01BF
:102520004091360250913702662757FD6095762F0D
:10253000CE010A9623E00E949D276C014091410242
:1025400050914202662757FD6095762FCE01019685
:1025500023E00E94B8262DB73EB7285030400FB672
:10256000F8943EBF0FBE2DBFEDB7FEB7319628E3FE
:1025700031E0ADB7BEB712963C932E931197B3825C
:10258000A282D582C482978386830E94FB1F109209
:102590001802F0923B02E0923A02EDB7FEB738968D
:1025A0000FB6F894FEBF0FBEEDBFF2DAF3E0853848
:1025B0009F0710F01092180280911702882309F4E7
:1025C000CBC080911902853009F4C6C089EF92E032
:1025D000D5D67C0120E880309207B1F18091340299
:1025E000909135022091600230916102820F931F19
:1025F000E816F90634F4B701681B790B83E492E01E
:10260000BADE809134029091350220915E023091C1
:102610005F02280F391F2E153F0564F420916002D8
:1026200030916102280F391FB701621B730B83E4DD
:1026300092E06DDE00D082E691E0ADB7BEB71296B3
:102640009C938E9311972CC090DA0A96B7E089304C
:102650009B0708F47AC08CE692E00E94552B2091EB
:1026600034023091350240915E0250915F02420F78
:10267000531F481759070CF068C080916002909171
:102680006102820F931FB701681B790B83E492E00C
:102690003EDE00D08AE791E0EDB7FEB792838183FA
:1026A0000E94FB1F0F900F90A701662757FD6095B2
:1026B000762FCE01019623E009E00E949D275C0160
:1026C0004091340250913502662757FD6095762F70
:1026D000CE010A9623E00E949D276C01409143029F
:1026E00050914402662757FD6095762FCE014396A0
:1026F00023E00E94B8262DB73EB7285030400FB6D1
:10270000F8943EBF0FBE2DBFEDB7FEB7319621EA5C
:1027100031E0ADB7BEB712963C932E931197B382BA
:10272000A282D582C482978386830E94FB1F109267
:102730001702F0923902E0923802EDB7FEB73896F0
:102740000FB6F894FEBF0FBEEDBF0FDAF7E0893089
:102750009F0710F0109217026B960FB6F894DEBF29
:102760000FBECDBFDF91CF910F91FF90EF90DF9023
:10277000CF90BF90AF9008958CE392E061E070E05D
:1027800049E050E00C94AE3082E680933C0280E059
:1027900098E290933E0280933D0290934002809392
:1027A0003F0280E190E0909342028093410280E0FA
:1027B0009AE0909344028093430298CD85E492E09E
:1027C0006AE070E047E250E00C94C63085E492E0A5
:1027D0006AE070E047E250E00C94AE30CF93DF93B4
:1027E00083E48093450288E592E0909363028093AE
:1027F000620280EB94E0909365028093640280E033
:102800009CE3909349028093480280E092E0909389
:1028100047028093460220E038E230934B02209337
:102820004A0230934D0220934C0223E331E030936F
:102830004F0220934E0220E03AEF30935102209352
:102840005002309353022093520220E031E0309343
:10285000550220935402909357028093560280E0D1
:102860009EEF90935902809358028AE990E09093EA
:102870005B0280935A028AE99FEF90935D028093F6
:102880005C0286E690E090935F0280935E0286E6AB
:102890009FEF909361028093600281E080936602D3
:1028A00087E792E061E00E94CA09C4E0C093670232
:1028B00085EC92E064E00E94CA09D3E0D0936802FC
:1028C00083E193E063E00E94CA09D093690288E73C
:1028D00093E063E00E94CA0985E080936A0286EC77
:1028E00093E065E00E94CA09C0936B0284E194E022
:1028F00064E00E94CA0962DFDF91CF91089580E011
:1029000090E00E94BE30813049F03EDF67DF80E01A
:1029100090E061E00E94E730E9DC50CF2DDF56CF38
:1029200090913C02891791F01092190280933C0219
:102930008F56823050F480E090E890933E0280936E
:102940003D029093400280933F02D0CC08958DE6E3
:1029500093E00C94552BFBDF20913D0230913E0219
:10296000281739076CF480914C0290914D02909396
:102970002F0280932E0280915002909151020CC040
:1029800080914A0290914B0290932F0280932E02E5
:1029900080915202909153029093310280933002C1
:1029A0001092180210921702089581E08093190284
:1029B0008DE693E00E948E298CE692E00E948E299B
:1029C0009CD8C9CF80913D0290913E0208958CE63B
:1029D00092E00C94552B80913F0290914002089513
:1029E000CF93DF93EC0180913D0290913E02D09312
:1029F0003E02C0933D028C1B9D0B97FF03C0909538
:102A000081959F4F813891050CF0A5DF99DAE6D8C2
:102A100080911502909116028C1B9D0B97FF03C0AD
:102A2000909581959F4F813891050CF05FDCDF9187
:102A3000CF9108959093400280933F028CDF80DA1B
:102A4000CDD854CC81E090E044C880E090E041C80B
:102A5000FC01768365831482108289E090E0928382
:102A6000818381E083830895CF93DF93EB01CB01D2
:102A700067E00E94541E91E02F81821390E0892F1D
:102A8000DF91CF910895EF92FF920F931F93CF9311
:102A9000DF93EC018B01E42E8D819E810E94A11DAC
:102AA000FF2406C0CE01B801DFDF882359F414C02B
:102AB0008D819E81B8010E94D11D882329F0FE14CA
:102AC00059F4F0CF81E001C080E0DF91CF911F91F8
:102AD0000F91FF90EF900895F394EF14A8F3E8CFCF
:102AE000EF92FF920F931F93CF93DF93EC017B0143
:102AF0008A018D819E81FDD68D819E81B701F1D79E
:102B00008D819E816EEB40E08ED78D819E81CED7E8
:102B1000F80180838D819E81C9D7F80181838D81E1
:102B20009E81C4D7F80182838D819E81BFD7F80131
:102B300083838D819E81BAD7F80184838D819E81A4
:102B4000B5D7F80185838D819E81B0D7F801868342
:102B50008D819E81ABD7F80187838D819E81A6D719
:102B6000F80180878D819E81C4D6DF91CF911F911E
:102B70000F91FF90EF900895CF93DF93EA01B0DFBC
:102B8000CE0168E00E94541E91E02885821390E0F7
:102B9000892FDF91CF910895EF92FF920F931F93AA
:102BA000CF93DF938C01EB017A01FC018581968143
:102BB000A0D6F80185819681BE0193D7F801858161
:102BC00096816EE440E02FD7F80185819681F70168
:102BD000628140E028D7F80185819681F701638101
:102BE00040E021D78881803139F0F80185819681D4
:102BF000F701648140E017D7F8018581968179D685
:102C0000F8018581968168E440810DD7F8018081C3
:102C1000882331F06AE070E080E090E00E94A50730
:102C2000F8018581968165D6DF91CF911F910F9133
:102C3000FF90EF900895EF92FF920F931F93CF9321
:102C4000DF93CDB7DEB72A970FB6F894DEBF0FBE7D
:102C5000CDBF7C018B01242FAE014F5F5F4F2A87D0
:102C60008BDF2A858823D9F0F80180818031C9F073
:102C70002A3051F02A3050F02B3021F02C3031F432
:102C80008FE705C08FE503C08FE301C08FE18D831F
:102C9000C701B801AE014F5F5F4F7EDF02C080E029
:102CA00001C081E02A960FB6F894DEBF0FBECDBFFB
:102CB000DF91CF911F910F91FF90EF900895CF93E7
:102CC000DF93EC018D819E8114D68D819E8136D754
:102CD0008D819E8164E44881A6D68B81882321F171
:102CE00089819A818930910551F089309105B4F03C
:102CF0008A30910549F08B30910581F40AC06EE568
:102D000070E080E090E00EC06CEB70E080E090E05E
:102D100009C067E771E080E090E004C06EEE72E009
:102D200080E090E00E94A507DF91CF910895CF93B6
:102D3000DF93CDB7DEB729970FB6F894DEBF0FBE8D
:102D4000CDBFAE014F5F5F4F17DF882339F03A8167
:102D500020E0898190E0822B932B02C081E89FEFD5
:102D600029960FB6F894DEBF0FBECDBFDF91CF918D
:102D700008950F931F93CF93DF93EC010E94FE2BD6
:102D80008C0160E070E0AE010E94722EC801DF91FC
:102D9000CF911F910F9108950C94942C0895813038
:102DA000910559F4109272041092710488E291E036
:102DB0009093700480936F040895009731F488E233
:102DC00091E09093700480936F0408950F931F9384
:102DD000CF93DF93CDB7DEB765970FB6F894DEBF1C
:102DE0000FBECDBF8C01CE01019644E150E00E94A0
:102DF0005E2EC801BE016F5F7F4F0E949C066596E4
:102E00000FB6F894DEBF0FBECDBFDF91CF911F91FB
:102E10000F910895CF93DF93EC01FC01ED59FF4F23
:102E20008FEF8083CE016AE00E94EA0BCE0164E15D
:102E300044E00E94EA0CCE010E94E80CDF91CF91A1
:102E400008958F929F92AF92BF92CF92DF92FF929E
:102E50000F931F93CF93DF93CDB7DEB729970FB6AC
:102E6000F894DEBF0FBECDBF4C01CB01AC0166278D
:102E700057FD6095762F6E010894C11CD11CC601C8
:102E800021E009E00E949D2700E010E0FC2CCD2C01
:102E900085E0A82EB12C05C060E20E947B0C0F5F7C
:102EA0001F4F8F2D9C2D0E94812E9501281B390BC1
:102EB000C4010217130780F36F2D7C2D0E949C061E
:102EC00029960FB6F894DEBF0FBECDBFDF91CF912C
:102ED0001F910F91FF90DF90CF90BF90AF909F9088
:102EE0008F9008956CEC71E071CFCF93DF93EC017C
:102EF0006CE042E00E94BA0C6EDDBC0180E86030FC
:102F0000780719F4CE01EEDF02C0CE019ADFDF911F
:102F1000CF910895CF93DF93EC0166E042E00E94E9
:102F2000BA0C80916D02882329F051DDBC01CE01DD
:102F300088DF02C0CE01D6DFDF91CF910895CF9315
:102F4000DF93EC016CE041E00E94BA0C3BDDBC0178
:102F500080E86030780719F4CE01C4DF02C0CE01EA
:102F600070DFDF91CF910895CF93DF93EC0166E09E
:102F700041E00E94BA0C80916E03882329F0E7DCBF
:102F8000BC01CE015EDF02C0CE01ACDFDF91CF918C
:102F90000895CF93DF93EC01E7DFCE01D0DFCE01C0
:102FA000B9DFCE01A2DFDF91CF910895CF93DF93F8
:102FB000D82FC92F6FED0E947B0C8D2F9C2F609115
:102FC00045020E947B0CDF91CF910895CF93DF9350
:102FD000D82FC92F60E040E00E94BA0C8D2F9C2FA3
:102FE00062ED71E0F3DE8D2F9C2F60E041E00E94E6
:102FF000BA0C8D2F9C2F6AED71E0E8DE8D2F9C2F8F
:1030000060E042E00E94BA0C8D2F9C2F62EE71E0CE
:10301000DDDE8D2F9C2F62E141E00E94BA0C8D2FE6
:103020009C2FC4DF8D2F9C2F62E142E00E94BA0CDE
:103030008D2F9C2FBBDFDF91CF910895CF93DF932E
:10304000D82FC92F67E040E00E94BA0C80913C0263
:10305000863651F0873618F48236D1F40AC08F369E
:1030600091F08037A9F40AC08D2F9C2F6AEE71E091
:1030700013C08D2F9C2F68EF71E00EC08D2F9C2FF9
:1030800066E072E009C08D2F9C2F64E172E004C0FD
:103090008D2F9C2F62E272E099DEDF91CF9108952F
:1030A000FF920F931F93CF93DF938C01C09119026E
:1030B000FC01ED59FF4F8081C817D1F1F02ED12FBF
:1030C000C80160E043E00E94BA0C8091190282308E
:1030D00011F1833028F4882351F0813001F50BC0C1
:1030E000843089F0843098F08530C9F408C0C80174
:1030F00060E372E018C0C80165E472E014C0C80162
:103100006AE572E010C0C8016FE672E00CC0C80149
:1031100064E872E008C0C80169E972E004C08F2D5C
:103120009D2F6EEA72E052DEF801ED59FF4FC08329
:10313000CC2399F4C80169E043E00E94BA0C0E94D4
:10314000B50DEC010E94C80DC817D90718F40E94EC
:10315000B50D0DC00E94C80D0AC0C450C23088F41D
:10316000C8016CE043E00E94BA0C0E94DB0DBC0178
:10317000C8014AE050E00E941407C80163EC72E005
:1031800025DEDF91CF911F910F91FF90089581E08F
:1031900090E005CE80E090E002CE2F923F924F92D9
:1031A0005F926F927F928F929F92AF92BF92CF92D7
:1031B000DF92EF92FF920F931F93CF93DF93FC0167
:1031C000448055806680778040865186628673860B
:1031D00080809180A280B38084829582A682B7820B
:1031E0004083518362837383C088D188E288F388E7
:1031F000C48AD58AE68AF78A84859585A685B785A7
:10320000808B918BA28BB38BD18DC08D2C2E3324D0
:103210008C019D010C191D092E093F09080F191F6A
:103220002A1F3B1F0D2E04C0B595A795979587952E
:103230000A94D2F7081B190B2A0B3B0BD701C601C6
:1032400004C0B595A79597958795DA95D2F7080F9D
:10325000191F2A1F3B1FDB01CA010C2E04C0B595A4
:10326000A795979587950A94D2F7080F191F2A1FDB
:103270003B1FC1010197B501A40104C07595679575
:10328000579547958A95D2F7040F151F261F371FAC
:10329000D301C20104C0B595A79597958795CA95A6
:1032A000D2F7080F191F2A1F3B1FC1010297B70150
:1032B000A60104C075956795579547958A95D2F7ED
:1032C000041B150B260B370B0487158726873787BA
:1032D000B801C901DF91CF911F910F91FF90EF903D
:1032E000DF90CF90BF90AF909F908F907F906F9026
:1032F0005F904F903F902F900895FC01CB01AA273B
:1033000097FDA095BA2FDC019927882780839183A8
:10331000A283B38384839583A683B78380879187B1
:10332000A287B38784879587A687B787808B918B81
:10333000A28BB38B848B958BA68BB78B0895FC01E6
:10334000408951896289738984859585A685B78569
:1033500084179507A607B7075CF484899589A68921
:10336000B789481759076A077B072CF0CB010895E6
:1033700080E090E8089580E090E80895FC0140899D
:1033800051896289738984859585A685B785481793
:1033900059076A077B075CF484899589A689B789F0
:1033A00084179507A607B7072CF0CB01089580E096
:1033B00090E8089580E090E80895AF92BF92CF9290
:1033C000DF92EF92FF920F931F93CF93DF93CDB7CE
:1033D000DEB729970FB6F894DEBF0FBECDBF8FE6DC
:1033E00094E0F4DDEFDA5C0120E88030920719F414
:1033F00060E078E201C0BC01882777FD8095982FB6
:103400000E9421298C016091460270914702882711
:1034100077FD8095982F0E9421296C0160914802C8
:1034200070914902882777FD8095982F0E94212965
:103430009C0180EF91E0B801A6010E94570B0E9409
:1034400069076B017C0151C080EF91E00E947E0B07
:10345000882381F10E9469076B017C0180EF91E074
:103460000E946A0B0E945729BBDA8FE694E067DD61
:103470008091F8018823C9F11092F801A3DAAC0118
:10348000662757FD6095762FCE01019621E009E071
:103490000E949D2700D000D02DE133E0EDB7FEB7AC
:1034A00032832183948383833CD50F900F900F90B8
:1034B0000F902FC0112321F48FE694E040DD0DC062
:1034C000103859F48FE694E06CE041E00E94BA0CA9
:1034D0008FE694E06AE373E079DC1F5F63E070E0FD
:1034E00080E090E00E94A50701C010E00E946907FB
:1034F000DC01CB018C199D09AE09BF098031F7E2CF
:103500009F07F0E0AF07F0E0BF0708F49DCFC501CB
:1035100067DA29960FB6F894DEBF0FBECDBFDF91F4
:10352000CF911F910F91FF90EF90DF90CF90BF90C0
:10353000AF900895AF92BF92CF92DF92EF92FF9239
:103540000F931F93CF93DF93CDB7DEB729970FB6B5
:10355000F894DEBF0FBECDBF8FE694E037DD3BDAD7
:103560005C0120E88030920719F460E078E201C045
:10357000BC01882777FD8095982F0E9421298C0116
:103580006091460270914702882777FD8095982FB9
:103590000E9421296C01609148027091490288279C
:1035A00077FD8095982F0E9421299C0180EF91E062
:1035B000B801A6010E94570B0E9469076B017C01AC
:1035C00051C080EF91E00E947E0B882381F10E9420
:1035D00069076B017C0180EF91E00E946A0B0E94F9
:1035E000572928DA8FE694E080DC8091F80188235F
:1035F000C9F11092F801EFD9AC01662757FD60952B
:10360000762FCE01019621E009E00E949D2700D08F
:1036100000D020E433E0EDB7FEB7328321839483FA
:103620008383A5D40F900F900F900F902FC011237C
:1036300021F48FE694E059DC0DC0103859F48FE680
:1036400094E06CE042E00E94BA0C8FE694E06FE5F3
:1036500073E0BCDB1F5F63E070E080E090E00E94FD
:10366000A50701C010E00E946907DC01CB018C199D
:103670009D09AE09BF098031F7E29F07F0E0AF076F
:10368000F0E0BF0708F49DCFC501D4D929960FB645
:10369000F894DEBF0FBECDBFDF91CF911F910F9188
:1036A000FF90EF90DF90CF90BF90AF900895CF92B2
:1036B000DF92EF92FF920F931F93CF93DF9300D08F
:1036C00000D0CDB7DEB78FE694E080DC10913C02ED
:1036D000E12FE656EB3028F4F0E0E45DFE4F608128
:1036E00001C060E080EF91E070E040E050E023E056
:1036F00030E00E94570B82E6898386E68A8380E762
:103700008B838FE68C830E9469076B017C0158C014
:1037100080EF91E00E947E0B8823B9F10E94690737
:103720006B017C0180EF91E00E946A0BE1E0F0E028
:10373000EC0FFD1FE80FF91F8081F2D88FE694E0AF
:103740007DDC8091F801882309F43AC01092F801D9
:1037500080913C02823611F430DE46C0863611F488
:10376000E9DE42C0803721F400D08DEC92E005C044
:103770008F36D1F500D08EEE92E0EDB7FEB7928392
:103780008183CFD30F900F902FC0002321F48FE6B9
:1037900094E054DC0DC0003859F48FE694E067E003
:1037A00040E00E94BA0C8FE694E06FE073E00EDB1D
:1037B0000F5F63E070E080E090E00E94A50701C029
:1037C00000E00E946907DC01CB018C199D09AE095C
:1037D000BF098031F7E29F07F0E0AF07F0E0BF07D5
:1037E00008F496CF812F9CD80F900F900F900F90D8
:1037F000DF91CF911F910F91FF90EF90DF90CF90CD
:103800000895CF92DF92EF92FF92CF9380EF91E0F5
:1038100060E070E040E050E022E030E00E94570BB2
:103820000E9469076B017C01C0E04CC080EF91E011
:103830000E947E0B882329F00E9469076B017C019E
:1038400002C0CC2329F48FE694E0C0DBC0E011C0B5
:10385000C03879F480EF91E00E946A0B482F8FE620
:1038600094E060E00E94BA0C8FE694E066EC72E0AF
:10387000ADDA8091F8018823F1F01092F80180EF21
:1038800091E00E946A0B8130910539F082309105F8
:1038900059F0009781F40BDF26C082E641D88FE60D
:1038A00094E0CCDB8ADD1FC086E63AD88FE694E050
:1038B000C5DB40DE18C0CF5F63E070E080E090E0E1
:1038C0000E94A5070E946907DC01CB018C199D09A4
:1038D000AE09BF09803127E2920720E0A20720E06D
:1038E000B20708F4A3CFCF91FF90EF90DF90CF9075
:1038F0000895FF920F931F93CF93DF93FC011081E4
:10390000C181D281F8948981012F00958023898318
:1039100078948DE7F82EFA9431F182E090E00E94DD
:10392000CC0788818123B9F3F8948A8180238A8324
:103930008981812B8983789484EF91E00E94CC0760
:10394000F89489818023898380E590E00E94CC07E8
:1039500088818123C1E009F0C0E0789484EA91E095
:103960000E94CC0701C0C0E08C2FDF91CF911F9146
:103970000F91FF9008951F93CF93DF93FC01108167
:10398000C181D281912F9095F8948A8189238A836D
:103990008981812B898360FF0BC08AE090E00E94BF
:1039A000CC078A81812B8A83789487E390E00AC0D0
:1039B00081E490E00E94CC078A81812B8A837894ED
:1039C00085E090E00E94CC07DF91CF911F91089590
:1039D0000F931F93CF93DF93FC011081C181D2819C
:1039E000F8948981812B89838A81012F0095802316
:1039F0008A8383E090E00E94CC07898180238983B9
:103A00008AE090E00E94CC07C881789485E390E03A
:103A10000E94CC071C2381E009F480E0DF91CF9164
:103A20001F910F910895CF92DF92EF92FF920F9323
:103A30001F93CF93DF930F92CDB7DEB78C01F62E95
:103A400028E0C22ED12CEE24E3948E2D8F2161E04C
:103A500009F460E0C80149838EDFEE0C0894C108C8
:103A6000D1084981C114D10481F74423A9F4F89401
:103A7000D8011196ED91FC91129791818C918095CE
:103A8000892381831196ED91FC91129792818C91FB
:103A900080958923828378940F90DF91CF911F9135
:103AA0000F91FF90EF90DF90CF900895EF92FF92EB
:103AB0000F931F93CF93DF938C01C8E0D0E0FF24D6
:103AC000EE24E394C80184DF8111FE28EE0C2197D7
:103AD000C9F78F2DDF91CF911F910F91FF90EF903C
:103AE0000895CF92DF92EF92FF920F931F93CF939F
:103AF000DF930F92CDB7DEB77C01C62E65E540E0BF
:103B0000798391DF0C2D7981172FCC24DD24F801E6
:103B100061918F01C70140E086DF0894C11CD11C70
:103B2000F8E0CF16D10499F70F90DF91CF911F9154
:103B30000F91FF90EF90DF90CF9008956CEC40E0F4
:103B400072CFFC01138615861486128611861086A4
:103B50001782168215821482138208951F93CF93C1
:103B6000DF93EC01162F862F60E00E941108612F71
:103B700070E0FB01E458FF4FE491E883FB01E0575C
:103B8000FF4FE491F0E0EE0FFF1FEC55FF4F8591E2
:103B9000949189839A83CE01D4DFDF91CF911F91D5
:103BA0000895BF92CF92DF92EF92FF920F931F93EF
:103BB000CF93DF93EC016B018D85882309F052C010
:103BC000CE0197DE882321F41B861D861C865BC0F0
:103BD000CE0160EF40E027DF01E0FF24EE2411E09A
:103BE000CE01F6DEB82ECE01F3DE91E0B91619F45F
:103BF0008130A9F42FC0B816D1F48B85181738F48A
:103C0000FE01EF0DF11D8381802349F402C01817D6
:103C100031F060E0193008F040C01C873EC0FE0162
:103C2000EF0DF11D8381802B838361E009C06B2D33
:103C3000FE01EF0DF11D902F9095838189238383E1
:103C4000CE0199DE1F5F000F11F4F39401E087E0CD
:103C50008F1530F6113430F0EB86EE2001F581E05F
:103C60008D871DC01B861D861C8680E0D60120E046
:103C700030E0FE01E20FF31F93819D932F5F3F4FD2
:103C800028303105B1F7DF91CF911F910F91FF904F
:103C9000EF90DF90CF90BF900895E12EC9CF8B8138
:103CA000882301F381E0E2CFDC0180E007C0ED91E1
:103CB000E827F0E0EB59FC4F849161506623B9F797
:103CC000089580E491E040E051EE60E070E00C94F3
:103CD0001706CF93DF93CDB7DEB7C058D0400FB6ED
:103CE000F894DEBF0FBECDBFFE01EB57FF4F4191F1
:103CF0005191CE01019660E870E09F010E94B72EBD
:103D000080E491E0BE016F5F7F4F0E949C06C05827
:103D1000DF4F0FB6F894DEBF0FBECDBFDF91CF915E
:103D20000895CF92DF92EF92FF920F93CF93DF939C
:103D3000CDB7DEB729970FB6F894DEBF0FBECDBF63
:103D40007C016B010E94A714AC01662757FD6095AA
:103D5000762FCE01019622E009E00E949D2700D037
:103D600000D025ED34E0ADB7BEB712963C932E934C
:103D7000119714969C938E931397ABDF0F900F902F
:103D80000F900F900E94E214AC01662757FD6095DA
:103D9000762FCE01019622E00E949D2700D000D010
:103DA00027EE34E0EDB7FEB732832183948383831B
:103DB00090DF0F900F9085EF94E0ADB7BEB71296ED
:103DC0009C938E93119785DF0F900F90E114F1046F
:103DD00059F400D080E095E0EDB7FEB7928381837F
:103DE00078DF0F900F9013C000D000D086E095E0F0
:103DF000ADB7BEB712969C938E9311971496FC9212
:103E0000EE92139766DF0F900F900F900F900E9425
:103E1000E714AC01662757FD6095762FCE01019619
:103E200022E009E00E949D2700D000D02CE035E080
:103E3000EDB7FEB732832183948383834ADF0F90EB
:103E40000F900F900F900E94EB14AC01662757FD66
:103E50006095762FCE01019622E00E949D2700D02A
:103E600000D02DE135E0ADB7BEB712963C932E934E
:103E7000119714969C938E9313972BDF0F900F90AE
:103E80008DE295E0EDB7FEB79283818322DF0F903C
:103E90000F90C114D10469F400D08AE395E0ADB766
:103EA000BEB712969C938E93119713DF0F900F90CD
:103EB0000FC000D000D080E495E0EDB7FEB792834C
:103EC0008183D482C38205DF0F900F900F900F90F3
:103ED00000D000D0EDB7FEB7319686E495E0ADB7DF
:103EE000BEB712969C938E9311978091190282838C
:103EF0001382EFDE0F900F900F900F9029960FB660
:103F0000F894DEBF0FBECDBFDF91CF910F91FF9030
:103F1000EF90DF90CF90089580E090E060E070E057
:103F200000CFCF93DF93CDB7DEB7C058D0400FB6E8
:103F3000F894DEBF0FBECDBFFE01EB57FF4F41919E
:103F40005191CE01019660E870E09F010E94B72E6A
:103F5000CE01019660E070E0E4DEC058DF4F0FB69E
:103F6000F894DEBF0FBECDBFDF91CF910895CF9300
:103F7000DF93CDB7DEB7C058D0400FB6F894DEBFA0
:103F80000FBECDBFFE01EB57FF4F41915191CE01C6
:103F9000019660E870E09F010E94B72E80E090E0FB
:103FA000BE016F5F7F4FBDDEC058DF4F0FB6F89484
:103FB000DEBF0FBECDBFDF91CF91089500D083E566
:103FC00095E0EDB7FEB79283818383DE0F900F906B
:103FD0000895CF93DF93682FC0E4D1E0CE010E9413
:103FE0009E06CE016AE30E949E0681E08093D30480
:103FF000DF91CF910895EF92FF920F931F93CF938C
:10400000DF93CDB7DEB7C058D0400FB6F894DEBF0F
:104010000FBECDBF8E0107571F4FF801E190F19001
:104020008F0184E4D6DFCE01019660E870E0A7013D
:1040300098010E94B72E00E411E0C801BE016F5F35
:104040007F4F0E949C06C8016AE00E949E06C058ED
:10405000DF4F0FB6F894DEBF0FBECDBFDF91CF911B
:104060001F910F91FF90EF900895CF93DF93EC0194
:104070008091D304882311F06BE701C06CE280E4E7
:1040800091E00E949E061092D30480E491E062E2E7
:104090000E949E0600D0EDB7FEB7D283C18319DE21
:1040A0000F900F9080E491E062E20E949E0680E40F
:1040B00091E06AE30E949E06DF91CF910895CF932D
:1040C000DF93EB01D2DF80E491E0BE010E949C0609
:1040D000DF91CF9108950F93CF93DF93CDB7DEB7E4
:1040E0002C970FB6F894DEBF0FBECDBF86E571DF0B
:1040F00040911A0250911B02662757FD6095762F5A
:10410000CE01019623E00CE00E94B328BC018AEDA9
:1041100096E0D5DF40911C0250911D0260911E0275
:1041200070911F02CE01019623E00E94B328BC01CA
:1041300083EE96E0C4DF4091200250912102662771
:1041400057FD6095762FCE01019623E00E94B3289B
:10415000BC0180EF96E0B3DF409122025091230230
:104160006091240270912502CE01019623E000D6D1
:10417000BC018AEF96E0A3DF40912602509127020E
:104180006091280270912902CE01019623E0F0D5BA
:10419000BC018CEF96E093DF40912A0250912B02F4
:1041A00060912C0270912D02CE01019623E0E0D5A2
:1041B000BC018EEF96E083DF40912E0250912F02DA
:1041C000662757FD6095762FCE01019623E0D0D566
:1041D000BC0180E097E073DF4091300250913102E2
:1041E000662757FD6095762FCE01019623E0C0D556
:1041F000BC0183E097E063DF4091320250913302CB
:10420000662757FD6095762FCE01019623E095D65F
:10421000BC0186E097E053DF4091340250913502B3
:10422000662757FD6095762FCE01019623E085D64F
:10423000BC0184E197E043DF4091360250913702A0
:10424000662757FD6095762FCE01019623E075D63F
:10425000BC0183E297E033DF40913802509139028C
:10426000662757FD6095762FCE01019623E065D62F
:10427000BC0182E397E023DF40913A0250913B0278
:10428000662757FD6095762FCE01019623E055D61F
:10429000BC018AE397E013DF91DE2C960FB6F89409
:1042A000DEBF0FBECDBFDF91CF910F9108951F9359
:1042B000CF93DF93162FD9DEC0E4D1E0CE0162E2C6
:1042C0000E949E06CE01612F0E949E06CE0162E2F0
:1042D0000E949E06DF91CF911F9108950F93CF9377
:1042E000DF93CDB7DEB72C970FB6F894DEBF0FBEC5
:1042F000CDBF83E56EDE86E595E060913C02D7DFB9
:1043000040913D0250913E02662757FD6095762F01
:10431000CE01019622E00CE010D6BC018BE595E0C1
:10432000CEDE40913F0250914002662757FD6095D6
:10433000762FCE01019622E000D6BC0187E695E0FB
:10434000BEDE4091410250914202662757FD6095C2
:10435000762FCE01019623E00BD5BC0185E795E0D1
:10436000AEDE4091430250914402662757FD6095AE
:10437000762FCE01019623E0FBD4BC0183E895E0C3
:104380009EDE1CDE2C960FB6F894DEBF0FBECDBFAE
:10439000DF91CF910F910895CF93DF93EB0165DE0D
:1043A00000D000D082E497E0EDB7FEB7928381831E
:1043B000D483C3838EDC0F900F900F900F90DF910A
:1043C000CF9108950F93CF93DF93CDB7DEB72C979E
:1043D0000FB6F894DEBF0FBECDBF83E4FADD81E9EE
:1043E00095E06091450263DF40914602509147029B
:1043F000662757FD6095762FCE01019621E00CE0EF
:104400009CD5BC018CE995E05ADE40914802509160
:104410004902662757FD6095762FCE01019621E06F
:104420008CD5BC018BEA95E04ADE40914A0250915E
:104430004B02662757FD6095762FCE01019623E04B
:1044400097D4BC018AEB95E03ADE40914C02509142
:104450004D02662757FD6095762FCE01019623E029
:1044600087D4BC0181EC95E02ADE40914E02509148
:104470004F02662757FD6095762FCE01019623E007
:1044800077D4BC0188EC95E01ADE4091500250913F
:104490005102662757FD6095762FCE01019623E0E5
:1044A00067D4BC018BEC95E00ADE4091520250913A
:1044B0005302662757FD6095762FCE01019623E0C3
:1044C00057D4BC0182ED95E0FADD40915402509141
:1044D0005502662757FD6095762FCE01019623E0A1
:1044E00042D6BC0189ED95E0EADD4091560250913B
:1044F0005702662757FD6095762FCE01019623E07F
:1045000032D6BC0183EE95E0DADD4091580250913D
:104510005902662757FD6095762FCE01019623E05C
:1045200022D6BC0181EF95E0CADD40915A0250913C
:104530005B02662757FD6095762FCE01019623E03A
:1045400012D6BC018EEF95E0BADD40915C0250912D
:104550005D02662757FD6095762FCE01019623E018
:1045600002D6BC0181E196E0AADD40915E02509145
:104570005F02662757FD6095762FCE01019623E0F6
:10458000F2D5BC0184E296E09ADD40916002509140
:104590006102662757FD6095762FCE01019623E0D4
:1045A000E2D5BC0187E396E08ADD609162027091FA
:1045B00063028AE496E0F0DE609164027091650225
:1045C00081E696E0E9DE6091660288E796E070E0B9
:1045D000E3DE6091670289E896E070E0DDDE6091DD
:1045E00068028AE996E070E0D7DE609169028CEAA1
:1045F00096E070E0D1DE60916A028BEB96E070E0AD
:10460000CBDE60916B028AEC96E070E0C5DED6DC12
:104610002C960FB6F894DEBF0FBECDBFDF91CF91C1
:104620000F9108950F931F93CF93DF93EC018B01AC
:1046300000D000D000D0EDB7FEB7319687E497E008
:10464000ADB7BEB712969C938E931197D383C28356
:1046500075836483D0DCEDB7FEB736960FB6F89459
:10466000FEBF0FBEEDBFCE0166E575E00E944E2E87
:104670000097D9F4D8018C910E94901400D000D0FA
:10468000EDB7FEB7319685E697E0ADB7BEB71296A7
:104690009C938E931197D8018C918283138267DC4F
:1046A0000F900F900F900F900DC2CE016BE575E04B
:1046B0000E944E2E0097D1F5C80117D5EC018091CC
:1046C0003C028037F9F480913D0290913E02FE0158
:1046D000E81BF90BCF01F7FF03C0909581959F4F21
:1046E00085369105F4F000D000D085E897E0ADB7AD
:1046F000BEB712969C938E93119714961C930E93AB
:1047000013970AC000D000D081EB97E0EDB7FEB759
:10471000928381831483038304DC0F900F900F90A6
:104720000F90D0933E02C0933D02CCC1CE0167E60C
:1047300075E00E944E2E0097F9F4C801D6D4EC0122
:1047400080913C02863699F400D000D087ED97E046
:10475000ADB7BEB712969C938E93119714961C9387
:104760000E93139704DC0F900F900F900F90D0933F
:104770004002C0933F02A6C1CE0165E775E00E94EA
:104780004E2E009749F4C80123D4DC01CB0190934D
:1047900042028093410296C1CE0163E875E00E9417
:1047A0004E2E009749F4C80113D4DC01CB0190933D
:1047B00044028093430286C1CE0161E975E00E9404
:1047C0004E2E009749F4F8018081809345028FE6D0
:1047D00094E00E94E61776C1CE016CE975E00E9474
:1047E0004E2E009739F4C80180D4909347028093ED
:1047F000460268C1CE016BEA75E00E944E2E00971A
:1048000039F4C80172D490934902809348025AC186
:10481000CE016AEB75E00E944E2E009749F4C80164
:10482000D7D3DC01CB0190934B0280934A024AC15B
:10483000CE0161EC75E00E944E2E009749F4C8014C
:10484000C7D3DC01CB0190934D0280934C023AC157
:10485000CE0168EC75E00E944E2E009749F4C80125
:10486000B7D3DC01CB0190934F0280934E022AC153
:10487000CE016BEC75E00E944E2E009749F4C80102
:10488000A7D3DC01CB0190935102809350021AC14F
:10489000CE0162ED75E00E944E2E009749F4C801EA
:1048A00097D3DC01CB0190935302809352020AC14B
:1048B000CE0169ED75E00E944E2E009739F4C801D3
:1048C00086D49093550280935402FCC0CE0163EECF
:1048D00075E00E944E2E009739F4C80178D4909369
:1048E000570280935602EEC0CE0161EF75E00E9440
:1048F0004E2E009739F4C8016AD4909359028093E0
:104900005802E0C0CE016EEF75E00E944E2E009777
:1049100039F4C8015CD490935B0280935A02D2C0F0
:10492000CE0161E176E00E944E2E009739F4C80175
:104930004ED490935D0280935C02C4C0CE0164E2C9
:1049400076E00E944E2E009739F4C80140D490932F
:104950005F0280935E02B6C0CE0167E376E00E94FC
:104960004E2E009739F4C80132D49093610280939F
:104970006002A8C0CE016AE476E00E944E2E009745
:1049800071F4C80160E070E04AE050E00E942D2D13
:10499000DC01CB01909363028093620293C0CE014D
:1049A00061E676E00E944E2E009771F4C80160E047
:1049B00070E04AE050E00E942D2DDC01CB01909385
:1049C0006502809364027EC0CE0168E776E00E94B3
:1049D0004E2E009761F4C80160E070E04AE050E0BC
:1049E0000E942D2D6093660287E792E05CC0CE01A5
:1049F00069E876E00E944E2E009761F4C80160E0FD
:104A000070E04AE050E00E942D2D6093670285EC33
:104A100092E049C0CE016AE976E00E944E2E0097EE
:104A200061F4C80160E070E04AE050E00E942D2D82
:104A30006093680283E193E036C0CE016CEA76E0D1
:104A40000E944E2E009761F4C80160E070E04AE0D9
:104A500050E00E942D2D6093690288E793E023C007
:104A6000CE016BEB76E00E944E2E009759F4C80100
:104A700060E070E04AE050E0F0D760936A0286ECB4
:104A800093E011C0CE016AEC76E00E944E2E0097B2
:104A900069F4C80160E070E04AE050E0DED760935E
:104AA0006B0284E194E00E94CA090CC000D08FEF31
:104AB00097E0ADB7BEB712969C938E9311979BDA91
:104AC0000F900F90DF91CF911F910F9108950F9349
:104AD0001F93CF93DF93CDB7DEB7EC970FB6F89463
:104AE000DEBF0FBECDBF61E070E080E090E00E94CD
:104AF000A50710E069C061E070E080E090E00E94EE
:104B0000A50780E491E00E94B504182F8A33C9F00C
:104B1000803261F08B3751F0823241F0EFE1F0E00A
:104B2000EC0FFD1FE00FF11D80830F5F0D3110F0C2
:104B300053C000E080E491E00E9488041816190632
:104B4000D4F2EFE1F0E0EC0FFD1FE00FF11D108259
:104B500000E01DC061E070E080E090E00E94A507E9
:104B600080E491E00E94B504182F8C32B9F08D37A3
:104B7000A9F0803251F0823241F0E1E0F0E0EC0F38
:104B8000FD1FE00FF11D80830F5F0D3128F580E4DC
:104B900091E00E94880418161906E4F2E1E0F0E0C2
:104BA000EC0FFD1FE00FF11D1082CE014F96BE01EC
:104BB0006F5F7F4F37DD1D3739F40E9476110E94F9
:104BC000DE138CDBFFDB08C080E491E00E948804E8
:104BD000181619060CF4ADCFEC960FB6F894DEBF9C
:104BE0000FBECDBFDF91CF911F910F910895EF922E
:104BF000FF920F931F93CF93DF93CDB7DEB76697E6
:104C00000FB6F894DEBF0FBECDBF80E491E00E94E6
:104C10008804181619060CF09EC080E491E00E94EA
:104C2000B5048C3609F458C08D3670F4833569F1BB
:104C3000843520F4833409F07AC016C08336A9F194
:104C40008A3609F074C071C0833769F1843720F463
:104C50008E3609F06CC02DC0843721F0863709F0FC
:104C600066C025C059D977C00E94EE138FE694E044
:104C70000E94E617A7DB00D085E694E0ADB7BEB78B
:104C800012969C938E9311970AC00E94C41326DB40
:104C900000D08FE794E0EDB7FEB792838183ABD964
:104CA0000F900F9058C01ADB56C08CDB54C013DA3B
:104CB00052C000D000D088E994E0ADB7BEB71296DC
:104CC0009C938E93119780EA94E014969C938E9314
:104CD00013970E94691E3BC08CE47BD920E08E01B3
:104CE0000F5F1F4F86EAE82E84E0F82E8FE694E0EF
:104CF000622FA8012E8B0E94AF0B00D000D0EDB721
:104D0000FEB7F282E182148303830E94691E2E891A
:104D10002F5F0F900F900F900F90243039F780E4A1
:104D200091E06AE00E949E0616C0D1DE14C000D059
:104D300000D0EDB7FEB731962DEA34E0ADB7BEB77F
:104D400012963C932E9311978283138254D90F901D
:104D50000F900F900F9066960FB6F894DEBF0FBEBF
:104D6000CDBFDF91CF911F910F91FF90EF900895EC
:104D7000AF92BF92CF92DF92EF92FF920F93CF93B9
:104D8000DF935C0177FF0BC08DE2D5018C937095AA
:104D90006095509541955F4F6F4F7F4F03C080E204
:104DA000F50180836A017B01F9E0F594E794D794DB
:104DB000C794FA95D1F7E601517060707070213098
:104DC000B1F5CB01BA012AE030E040E050E08DD4EB
:104DD000DC01CB0180509F4FAF4FBF4FE9E0B5954D
:104DE000A79597958795EA95D1F7BC018A309105EB
:104DF00019F4219660E070E08DB79EB70A970FB660
:104E0000F8949EBF0FBE8DBFEDB7FEB73196C501BA
:104E10000196ADB7BEB712969C938E931197802FD3
:104E200090E00197938382838EE198E037C022302F
:104E3000E1F5CB01BA0124E630E040E050E055D482
:104E4000DC01CB0180509F4FAF4FBF4FF9E0B595CC
:104E5000A79597958795FA95D1F7BC01843691056A
:104E600019F4219660E070E08DB79EB70A970FB6EF
:104E7000F8949EBF0FBE8DBFEDB7FEB73196C5014A
:104E80000196ADB7BEB712969C938E931197802F63
:104E900090E001979383828386E298E095838483F0
:104EA000D783C6837187608734C08DB79EB70A9752
:104EB0000FB6F8949EBF0FBE8DBFCDB7DEB721965B
:104EC000C5010196ADB7BEB712969C938E9311970C
:104ED000802F90E001979B838A838EE298E09D83E8
:104EE0008C83DF82CE82CB01BA0128EE33E040E032
:104EF00050E0FBD3DC01CB0180509F4FAF4FBF4F41
:104F0000E9E0B595A79597958795EA95D1F79987A3
:104F1000888700D7EDB7FEB73A960FB6F894FEBF74
:104F20000FBEEDBFC501DF91CF910F91FF90EF90C4
:104F3000DF90CF90BF90AF900895CF92DF92EF9225
:104F4000FF920F931F93CF93DF93EC016A017B01D4
:104F5000122F403080E858078FEF68078FEF7807EF
:104F600029F4CE0169E178E0A2D628C080914502FB
:104F70008634F1F4DB01CA0123E0880F991FAA1FD0
:104F8000BB1F2A95D1F7840F951FA61FB71FBC0121
:104F9000CD0125E030E040E050E0FBD369017A012B
:104FA00080E090E4A0E0B0E0C80ED91EEA1EFB1E2F
:104FB000CE01B701A601212FDBDEEC01CE01DF918E
:104FC000CF911F910F91FF90EF90DF90CF900895B8
:104FD0002F923F924F925F926F927F928F929F9209
:104FE000AF92BF92CF92DF92EF92FF920F931F93F7
:104FF000CF93DF9300D0CDB7DEB78C01FC01808169
:105000008D3229F40F5F1F4F7724739401C07724EA
:10501000C8016EE270E06DD66C01C80160E070E01E
:105020004AE050E01AD51B012C01C114D10469F1EA
:1050300086010F5F1F4FC801BE016F5F7F4F4AE0BF
:1050400050E00BD56B017C016980601A69E0CC0CE3
:10505000DD1CEE1CFF1C6A95D1F700E010E07AE041
:10506000872E912CA12CB12C0DC0C701B6016B5F0E
:105070007F4F8F4F9F4FA50194018BD369017A0118
:105080000F5F1F4F601689F703C0CC24DD24760123
:105090009201810149E0000F111F221F331F4A9521
:1050A000D1F70C0D1D1D2E1D3F1D772039F03095B9
:1050B0002095109501951F4F2F4F3F4FB801C90103
:1050C0000F900F90DF91CF911F910F91FF90EF9074
:1050D000DF90CF90BF90AF909F908F907F906F9018
:1050E0005F904F903F902F9008950F931F9370DF24
:1050F0008B019C01809145028634D1F4D901C8010D
:10510000E2E0880F991FAA1FBB1FEA95D1F7800F15
:10511000911FA21FB31F80509044A140B040BC011A
:10512000CD0129E030E040E050E033D389019A011D
:10513000003080E818078FEF28078FEF38076CF0F2
:10514000003080E8180780E0280780E038073CF04E
:105150000FEF1FE720E030E002C000E010E8C801D8
:105160001F910F910895AF92BF92CF92DF92EF926D
:10517000FF920F93CF935C016A017B01C22F809154
:1051800045028634B1F4DB01CA01F3E0880F991FB0
:10519000AA1FBB1FFA95D1F7840F951FA61FB71F33
:1051A000BC01CD0125E030E040E050E0F2D26901E1
:1051B0007A01C501B701A6012C2FDADDCF910F913D
:1051C000FF90EF90DF90CF90BF90AF9008950F9336
:1051D0001F93FEDE8B019C01809145028634B1F461
:1051E000D901C80142E0880F991FAA1FBB1F4A9529
:1051F000D1F7800F911FA21FB31FBC01CD0129E081
:1052000030E040E050E0C5D289019A01003080E8EA
:1052100018078FEF28078FEF38076CF0003080E811
:10522000180780E0280780E038073CF00FEF1FE701
:1052300020E030E002C000E010E8C8011F910F91AB
:1052400008950F931F938B019C0180914502863432
:10525000D1F4D901C80153E0880F991FAA1FBB1FC1
:105260005A95D1F7800F911FA21FB31FBC01CD012A
:1052700025E030E040E050E08CD289019A010050F6
:10528000104C2F4F3F4FC901B8012AE030E040E0F9
:1052900050E02BD260507F4F8F4F9F4F20E032E085
:1052A00040E050E076D2C9011F910F9108950F930D
:1052B0001F9320914502AC01BA01882777FD8095A4
:1052C000982F2634B9F420E03AE040E050E00DD2C7
:1052D000605070488C40904029E030E040E050E061
:1052E00058D289019A010B5F1F4F2F4F3F4FC901C1
:1052F000B8010BC0E9E0660F771F881F991FEA9578
:10530000D1F76B5F7F4F8F4F9F4F2AE030E040E037
:1053100050E03FD2C9011F910F910895CF92DF92C3
:10532000EF92FF920F931F93CF93DF937C01FC01C9
:10533000EB50FF4F808191810E94791C29EFC22E92
:10534000D12CCE0CDF1CE701C950DF4F8881998139
:10535000B60140E00E944315882319F50E946907B1
:1053600028EE33E040E050E0F2D12430310508F07F
:1053700099C000D000D0EDB7FEB7319686E398E033
:10538000ADB7BEB712969C938E931197D7018C91AF
:10539000828313820E94FB1F0F900F900F900F903B
:1053A00081C088819981B6014CE00E941B168881DA
:1053B0009981FC0113820E945F160E946907DC013B
:1053C000CB01F70182839383A483B5836EEE72E0F1
:1053D00080E090E00E94A50788819981B6010E9433
:1053E00097168C010E946907DC01CB01F70142810D
:1053F000538164817581841B950BA60BB70B813D8E
:10540000F7E09F07F0E0AF07F0E0BF0728F0D70113
:1054100011961C92119746C0BFEF01381B07E1F2AD
:10542000888199810E945F166EEE72E080E090E0C4
:105430000E94A50788819981B6010E949716EC0108
:1054400081E0F7018183FCEFC030DF0764F024E0E6
:10545000C030D20714F0CFEFD3E085E0CC0FDD1FD2
:105460008A95E1F702C0C0E0D0E8C7010B96BE0103
:105470000E941F0A8701075A1F4FC801BE010E94E0
:105480001F0AC70189559F4F60E070E00E941F0A04
:10549000C8010E94170ADC01CB01F70187839087BE
:1054A000A187B287DF91CF911F910F91FF90EF906D
:1054B000DF90CF900895EF92FF920F931F93CF93B9
:1054C000DF938C010E946907DC01CB01F801428166
:1054D000538164817581841B950BA60BB70B8938AA
:1054E000F3E19F07F0E0AF07F0E0BF07B0F0F8018D
:1054F000E950FF4F808191810E945F160E946907E9
:10550000DC01CB01F80182839383A483B5836EEE23
:1055100072E080E090E00E94A50759EFE52EF12CA3
:10552000E00EF11EE801C950DF4F88819981B70173
:105530000E949716D80111962C911197BFEF8138D0
:105540009B07E1F42223B9F000D000D0EDB7FEB7FD
:10555000319682E698E0ADB7BEB712969C938E93D3
:105560001197D8018C91828313820E94FB1F0F90A8
:105570000F900F900F90F801118290C0222321F517
:1055800060ED77E080E090E00E94A507C801C6DEEC
:1055900000D000D0EDB7FEB731968CE898E0ADB7FB
:1055A000BEB712969C938E931197D8018C918283EB
:1055B00013820E94FB1F0F900F900F900F90888115
:1055C0009981B7010E949716BCEF80309B076CF061
:1055D000E4E080309E0714F08FEF93E0EC0145E0AB
:1055E000CC0FDD1F4A95E1F702C0C0E0D0E8C8014A
:1055F0000B96BE010E94040A39E5E32EF12CE00E61
:10560000F11EC701BE010E94040AD80116968C91B2
:105610001697815016968C9316978D3051F4C701CA
:105620000E94170ADC01CB01F80187839087A187CC
:10563000B287D80116968C9116978823F9F4C70182
:105640000E94170AAB01BC01F80187819085A185F2
:10565000B285481B590B6A0B7B0BC80189559F4FBC
:105660000E94DA09C7010E94170ADC01CB01F80188
:1056700087839087A187B2878CE08683F801E95001
:10568000FF4F808191810E945F160E946907DC01B3
:10569000CB01F80182839383A483B583DF91CF91FB
:1056A0001F910F91FF90EF900895FC01E55BFF4F74
:1056B0004081518162817381AB01772757FD7095DD
:1056C000672FCA01089589559F4F0E94170A2CE23F
:1056D00031E040E050E009D0AB01BC01AB017727DD
:1056E00057FD7095672FCA010895629FD001739F7F
:1056F000F001829FE00DF11D649FE00DF11D929F6E
:10570000F00D839FF00D749FF00D659FF00D9927AC
:10571000729FB00DE11DF91F639FB00DE11DF91FD0
:10572000BD01CF011124089597FB092E07260AD049
:1057300077FD04D049D006D000201AF47095619509
:105740007F4F0895F6F7909581959F4F0895A1E2B8
:105750001A2EAA1BBB1BFD010DC0AA1FBB1FEE1FEB
:10576000FF1FA217B307E407F50720F0A21BB30B36
:10577000E40BF50B661F771F881F991F1A9469F7B2
:1057800060957095809590959B01AC01BD01CF010E
:10579000089597FB092E05260ED057FD04D0D7DFBC
:1057A0000AD0001C38F450954095309521953F4F14
:1057B0004F4F5F4F0895F6F79095809570956195DE
:1057C0007F4F8F4F9F4F0895AA1BBB1B51E107C00E
:1057D000AA1FBB1FA617B70710F0A61BB70B881F81
:1057E000991F5A95A9F780959095BC01CD01089510
:1057F000EE0FFF1F0590F491E02D0994CF93DF93F6
:10580000AC018230910510F442E050E0E091D60402
:10581000F091D70420E030E0A0E0B0E024C0808127
:10582000918184179507D0F08417950771F48281D0
:105830009381109729F013969C938E9312972CC006
:105840009093D7048093D60427C02115310519F011
:105850008217930718F49C01BD01EF0192818381A7
:10586000DF01E92FF82F3097D1F621153105F9F036
:10587000C901841B950B8430910580F48A819B813A
:105880006115710521F0FB019383828304C090931D
:10589000D7048093D604FE01329642C0FE01E80F81
:1058A000F91F4193519302979983888339C080915E
:1058B000D4049091D504009741F480911001909107
:1058C00011019093D5048093D40420910E0130915E
:1058D0000F012115310541F42DB73EB7809112011A
:1058E00090911301281B390BE091D404F091D50459
:1058F000E217F30798F42E1B3F0B2417350770F0BF
:10590000CA0102962817390748F08E0F9F1F9093FF
:10591000D5048093D4044193519302C0E0E0F0E0B9
:10592000CF01DF91CF9108950F931F93CF93DF9312
:105930009C01009709F48CC0DC01129713961C920D
:105940001E9212976091D6047091D704611571056B
:1059500089F48D919C911197820F931F2091D4040B
:105960003091D5042817390769F5B093D504A09371
:10597000D4046EC0FB0140E050E001C0FC01EA1716
:10598000FB0730F482819381AF010097B9F71FC004
:10599000E9012297FB83EA8308811981C901800FFD
:1059A000911F8E179F0759F480819181800F911F5D
:1059B000029699838883828193819B838A83411590
:1059C000510529F4B093D704A093D60441C0FA013D
:1059D000B383A283C191D191EC0FFD1FAE17BF0716
:1059E00081F4F901929182918C0F9D1F0296DA0148
:1059F00011969C938E938281938113969C938E93A0
:105A00001297E0E0F0E002C0FB01BC01DB0112965E
:105A10008D919C9113970097B9F7CB0102962D9128
:105A20003C911197820F931F2091D4043091D5049B
:105A30002817390769F4309729F41092D704109287
:105A4000D60402C0138212827093D5046093D404EA
:105A5000DF91CF911F910F910895A4E0B0E0E2E3B0
:105A6000FDE267C42B017A016115710529F0DB01A4
:105A70008C9311969C931197E114F10439F09701DE
:105A8000225030402332310508F0F8C06C01860105
:105A90000894C11CD11CF80130803601832D90E0A0
:105AA000F5D00097A1F7FDE23F1661F4D8011196F9
:105AB0003C90119792E0692E712C600E711ECC24DF
:105AC000C3940BC0BBE23B1639F4F801318082E08D
:105AD000682E712C600E711ECC24E114F10421F0AB
