:1000000070C4000096C4000094C4000092C40000B4
:1000100090C400008EC400008CC400000C94F10D4C
:1000200088C400000C94770EEEC6000087C700005D
:1000300080C400007EC400007CC400007AC40000BC
:1000400078C4000076C4000074C4000072C40000CC
:1000500070C400006EC400006CC400000C9437092A
:1000600068C4000066C4000064C4000062C40000EC
:1000700060C400005EC400005CC400005AC40000FC
:1000800058C4000056C4000054C4000052C400000C
:1000900050C400004EC400004CC400004AC400001C
:1000A00048C4000046C4000044C400000000000032
:1000B000000000002A2B28000000000000000000C3
:1000C0000000000000000000000000002C9EB4A012
:1000D000A1A2A434A6A7A5AE362D3738271E1F200F
:1000E000212223242526B333B62EB7B89F848586D4
:1000F0008788898A8B8C8D8E8F9091929394959618
:100100009798999A9B9C9D2F3130A3AD3504050695
:100110000708090A0B0C0D0E0F10111213141516F7
:100120001718191A1B1C1DAFB1B0B5000904020045
:1001300001030000000921010100012265000705FB
:10014000840340000105010902A1010901A1008504
:100150000105091901290315002501950375018180
:10016000029501750581030501093009310938152A
:1001700081257F750895038106C0C005010906A188
:10018000018502050719E029E7150025017501958C
:1001900008810295017508810395067508150025EB
:1001A000650507190029658100C000C18081C11261
:1001B00001000202000040412336800001010200DC
:1001C00001120100020000004041233680000101BD
:1001D0000200011803410072006400750069006E9E
:1001E000006F0020004C004C0043002203410072CD
:1001F000006400750069006E006F0020004C00650F
:10020000006F006E006100720064006F000403095B
:1002100004080B00020202010009040000010202AE
:100220000000052400100105240101010424020638
:1002300005240600010705810310004009040100A0
:10024000020A0000000705020240000007058302C1
:10025000400000070605040100080A0B0C0D090008
:1002600000000200080E0000030401000B00000063
:100270000000000000000000000000000004080270
:10028000011040804010204080408008020401801E
:100290004020100201108010204040040404040497
:1002A0000304050202020204030202020206060619
:1002B00006060604040202020400000000230026D1
:1002C0000029002C002F0000000000250028002B32
:1002D000002E00310000000000240027002A002D1D
:1002E00000300041726475696E6F207265737461CD
:1002F00072746564210046726964676520646F6F7B
:1003000072206F70656E656400467269646765206F
:10031000646F6F7220636C6F73656400506F7369F4
:1003200074697665207065616B20646574656374BB
:1003300065642E005065616B3A2025732045737407
:10034000696D617465643A2025732E204E657720AF
:10035000657374696D61746F723A202573004E6520
:10036000676174697665207065616B20646574658A
:10037000637465642E005065616B3A2025732E20EE
:10038000457374696D617465643A2025732E204E3F
:10039000657720657374696D61746F723A20257397
:1003A00000202D2D2E2D004D6F6465202020004251
:1003B00065657220202000467269646765200046EA
:1003C000726964676520436F6E73742E00426565C1
:1003D0007220436F6E7374616E74004265657220A3
:1003E00050726F66696C6520004F66662020202081
:1003F00020202020202000496E76616C6964206DE9
:100400006F6465200049646C6520666F722020204F
:100410002020202020202020200053746172746945
:100420006E672075702E2E2E202020202020004365
:100430006F6F6C696E6720666F722020202020200D
:100440002020200048656174696E6720666F722005
:10045000202020202020202000446F6F72206F7009
:10046000656E2020202020202020202020005465A0
:100470006D702E20636F6E74726F6C204F46462035
:10048000202000556E6B6E6F776E207374617475EB
:1004900073212020202020002073002020202020F5
:1004A00020004368616E67656420746F2070726F0E
:1004B00066696C65206D6F646520696E206D656E80
:1004C000752E0054656D7020636F6E74726F6C20B2
:1004D0007475726E6564206F666620696E206D6546
:1004E0006E752E002020202020202020202020207B
:1004F0002000426565722074656D702073657420FC
:10050000746F20257320696E204D656E752E002056
:1005100020202020004672696467652074656D7034
:100520002073657420746F20257320696E204D65DB
:100530006E752E00202020202000005EBCE2613F6E
:10054000DD83C29C7E20A3FD1F419DC3217FFCA2B1
:10055000401E5F01E3BD3E6082DC237D9FC1421CE3
:10056000FEA0E1BF5D0380DE3C62BEE0025CDF8195
:10057000633D7C22C09E1D43A1FF4618FAA4277943
:100580009BC584DA3866E5BB5907DB856739BAE471
:1005900006581947A5FB7826C49A653BD987045AA3
:1005A000B8E6A7F91B45C6987A24F8A6441A99C755
:1005B000257B3A6486D85B05E7B98CD2306EEDB303
:1005C000510F4E10F2AC2F7193CD114FADF3702E31
:1005D000CC92D38D6F31B2EC0E50AFF1134DCE9063
:1005E000722C6D33D18F0C52B0EE326C8ED0530D15
:1005F000EFB1F0AE4C1291CF2D73CA947628ABF5C3
:1006000017490856B4EA6937D58B5709EBB53668F0
:100610008AD495CB2977F4AA4816E9B7550B88D622
:10062000346A2B7597C94A14F6A8742AC896154BD4
:10063000A9F7B6E80A54D7896B3544656661756CCD
:100640007420636F6E7374616E7473206C6F616479
:1006500065642E0044656661756C742073657474FE
:10066000696E6773206C6F616465642E004C3A009C
:1006700025733C42523E000A00496E76616C696403
:1006800020636F6D6D616E64207265636569766568
:10069000642062792041726475696E6F3A20256327
:1006A00000543A7B224265657254656D70223A258A
:1006B000732C002242656572536574223A25732CAF
:1006C000002242656572416E6E223A006E756C6C56
:1006D0002C00222573222C0022467269646765541F
:1006E000656D70223A25732C002246726964676535
:1006F000536574223A25732C00224672696467653B
:10070000416E6E223A006E756C6C7D0A0022257374
:10071000227D0A00443A000A00533A7B00222573E6
:10072000223A25737D0A00433A7B00222573223A40
:1007300025757D0A00563A7B00222573223A2573DF
:100740007D0A00222573223A25732C00222573226C
:100750003A222563222C00222573223A25752C008B
:10076000222573223A25752C0052656365697665EA
:1007700064206E65772073657474696E673A20250E
:1007800073203D202573004D6F64652073657420D0
:10079000746F20256320696E2077656220696E740E
:1007A00065726661636500426565722074656D708F
:1007B0002073657420746F2025732062792074651E
:1007C0006D70657261747572652070726F66696CA8
:1007D000652E00426565722074656D7020736574C6
:1007E00020746F20257320696E2077656220696E02
:1007F000746572666163652E004672696467652080
:1008000074656D702073657420746F202573206982
:100810006E2077656220696E746572666163652E0D
:1008200000436F756C64206E6F742070726F636527
:1008300073732073657474696E67006E756C6C00F9
:1008400025642E253031640025642E253032640065
:1008500025642E2530336400556E61626C6520740A
:100860006F2066696E6420616464726573732066CC
:100870006F722073656E736F72206F6E2070696E79
:100880002025640054656D70657261747572652011
:1008900073656E736F72206F6E2070696E202564B1
:1008A00020646973636F6E6E65637465640054657C
:1008B0006D70657261747572652073656E736F72A9
:1008C000206F6E2070696E202564207265636F6EE4
:1008D0006E65637465640000890C1018B41B1318EE
:1008E000B71B11241FBECFEFDAE0DEBFCDBF13E090
:1008F000A0E0B1E0ECE4FAE602C005900D92A2356A
:10090000B107D9F716E0A2E5B3E001C01D92A43B00
:10091000B107E1F718E0CEEDD8E004C02297FE0160
:100920000E94452FC83DD107C9F70E94300D0C9495
:100930001A350C943D0D8091BE039091BF03209118
:10094000C0033091C103821B930B8F739070089585
:100950002091BE033091BF038091C0039091C103E9
:100960002817390749F0E091C003F091C103E2581C
:10097000FC4F808190E008958FEF9FEF08952091C4
:10098000BE033091BF038091C0039091C10328172B
:100990003907A9F0E091C003F091C103E258FC4F80
:1009A00080812091C0033091C1032F5F3F4F2F738F
:1009B00030703093C1032093C00390E008958FEF0F
:1009C0009FEF08950F931F93CF93DF93EC01162FA2
:1009D000E881F9810480F581E02D0995082FE881EF
:1009E000F9810680F781E02DCE01612F0995802FD6
:1009F00090E0DF91CF911F910F910895CF92DF92F8
:100A0000EF92FF920F931F93CF93DF936C017B01C3
:100A1000EA0100E010E00EC0D7016D917D01D60122
:100A2000ED91FC910190F081E02DC6010995080F30
:100A3000191F2197209781F7C801DF91CF911F914E
:100A40000F91FF90EF90DF90CF900895883071F173
:100A5000893068F4823031F1833020F4813009F03C
:100A600042C01DC0833089F08430E9F512C08B305C
:100A700059F18C3028F48930E9F08A30A1F51EC094
:100A80008C3031F18E3079F529C0809180008F77DC
:100A900003C0809180008F7D80938000089584B58D
:100AA0008F7702C084B58F7D84BD089580919000BA
:100AB0008F7707C0809190008F7D03C08091900058
:100AC000877F8093900008958091C0008F7703C046
:100AD0008091C0008F7D8093C00008958091C200F6
:100AE000877F8093C20008950F931F93CF93DF9366
:100AF0008C01EB01209771F0CB010E94CC31AC014D
:100B0000D801ED91FC910280F381E02DC801BE0176
:100B1000099502C080E090E0DF91CF911F910F9185
:100B200008950895FC0104C08091F1008193615003
:100B30006623D1F7289884E680936E0308959FB7C3
:100B4000F89487708093E9008091F2009FBF089528
:100B500090916D039923B1F057FF1AC016C02898E1
:100B600020936E033091F10031936E17C1F7009717
:100B700039F02091F200222319F42BE62093E800AB
:100B8000AFBF08958FEF9FEF08958FEF9FEF089508
:100B9000AFB7F89487708093E9002091F20030E0BD
:100BA000CA01241735070CF4C901FB01680F24E6BC
:100BB000DCCFCF93DF930F92CDB7DEB7BE016F5F6F
:100BC0007F4F41E050E0C4DF8130910519F4898105
:100BD00090E002C08FEF9FEF0F90DF91CF910895CB
:100BE000CF93DF9311C082E0E4DF2FEF8F3F9207B6
:100BF000C9F0E091BE03F091BF03E258FC4F80833F
:100C0000D093BF03C093BE03C091BE03D091BF0376
:100C10002196CF73D0708091C0039091C103C81703
:100C2000D90709F7DF91CF9108959FB7F89487709E
:100C30008093E9008091E80085FF05C02091F200D3
:100C400080E4821B01C080E09FBF08951092E900FC
:100C500010926C0310926B0390936A038093690364
:100C600008950F931F93CF93C82F8A01DB016EEF76
:100C700035C0CD010196C7FF04C0FD01DC01E49140
:100C800002C0EC91DC0120916B0330916C038091E8
:100C9000690390916A0328173907ACF48091E80042
:100CA0008570E1F38091E80082FD1DC0E093F100C2
:100CB00080916B0390916C0301968F7390700097F5
:100CC00011F46093E80080916B0390916C0301969E
:100CD00090936C0380936B03015010400115110534
:100CE00041F6CA0102C08FEF9FEFCF911F910F9184
:100CF0000895FC0180818E5F808380E861E172E06D
:100D000042E450E0AECF1F93CF93DF930F92CDB765
:100D1000DEB79C01162F8091E80082FFFCCFC9014D
:100D2000612F7983FFDE8BEF8093E800812F79813B
:100D3000972F0F90DF91CF911F910895FC01818132
:100D40009081913A51F4813209F04DC080E066E122
:100D500073E047E050E085DF44C0913209F043C0C2
:100D6000803231F486E193E067E070E0CCDF39C097
:100D7000823209F038C0828180931D03809116036E
:100D800090911703A0911803B0911903803B24E0C0
:100D9000920720E0A20720E0B20739F580911D03F9
:100DA00080FD12C087E797E79093010880930008C1
:100DB0002BE088E190E00FB6F894A895809360004E
:100DC0000FBE209360000DC088E10FB6F8948093A9
:100DD0006000109260000FBEA8951092010810925A
:100DE000000881E0089580E0089581E008958093EF
:100DF000E9008091F200882319F08AE38093E800EB
:100E0000089583E0F4CF1F920F920FB60F92112432
:100E10002F933F934F935F936F937F938F939F9302
:100E2000AF93BF93EF93FF938091E1001092E100A5
:100E300083FF0FC01092E90091E09093EB001092B5
:100E4000EC0092E39093ED0010926D0398E0909384
:100E5000F00082FF21C083E0CADF82E070DE8823D9
:100E600019F080E793E0BCDE80916F03882341F0A6
:100E700080916F03815080936F03882309F45D9AFA
:100E800080916E03882341F080916E03815080939E
:100E90006E03882309F4289AFF91EF91BF91AF91D7
:100EA0009F918F917F916F915F914F913F912F9182
:100EB0000F900FBE0F901F901895FC0180818F5FDF
:100EC000808380E86CE271E049E150E0CACECF93C4
:100ED000DF930F92CDB7DEB71982CE01019609DFFD
:100EE000CE010196EADF898190E00F90DF91CF91EA
:100EF000089580E865E471E045E650E0B2CEFC017B
:100F000091818081813A31F481E0913091F0933088
:100F100089F413C0813271F49B3021F48281809373
:100F2000150305C09A3041F482818093140381E057
:100F30000895089580E0089580E008951F920F922B
:100F40000FB60F921124EF92FF920F931F932F93DE
:100F50003F934F935F936F937F938F939F93AF9341
:100F6000BF93EF93FF93CF93DF93CDB7DEB7629735
:100F7000DEBFCDBF1092E9008091E80083FFE2C0A0
:100F8000CE01019668E0CEDD82EF8093E800898192
:100F900087FF05C09091E80090FFFCCF03C09EEF53
:100FA0009093E80090E09C01207630702115310587
:100FB00009F0B0C02A81222329F41092F100109286
:100FC000F100B9C0213009F4B6C0233009F4B3C030
:100FD000253049F48091E80080FFFCCF8B81806848
:100FE0008093E300A8C0263009F068C02C81EF8010
:100FF000F884223049F580E090E02A8B27DE67DF15
:1010000099E08E01075F1F4FF801392F11923A9531
:10101000E9F799872A892A8791E09E8790E8988B3B
:101020009AEF998B20916B0330916C03275F3F4FB0
:101030003C872B878D87C70109DE80E0B80149E036
:1010400050E00FDE44DF77C0C7012A8BFFDD2A891D
:10105000223239F482E290E04CDF009709F06BC055
:101060006EC0213079F48F8198858830910519F40C
:1010700081E08093680380916803882389F06FEA98
:1010800071E016C0233009F05AC08B81882359F0D3
:10109000823061F0813009F052C063ED71E008C028
:1010A00061EC71E005C06DE072E002C06BEE71E0D2
:1010B000FB01449180E850E0D4DD3DC0273009F4C5
:1010C0003EC0283021F481E08093F10034C0293003
:1010D00091F583709070009791F581E090E031E098
:1010E00026E38093E9003093EB00FC01E655FE4FC8
:1010F000E491E093EC002093ED000196853091059A
:1011000081F78EE78093EA001092EA008B8180934A
:101110006D0311C08F81988599DD8D81882321F41D
:10112000CE0101960BDE05C0823049F4CE01019656
:10113000E6DE882321F08EEF8093E80003C081E291
:101140008093EB006296DEBFCDBFDF91CF91FF9120
:10115000EF91BF91AF919F918F917F916F915F912F
:101160004F913F912F911F910F91FF90EF900F9012
:101170000FBE0F901F901895B7CC08954F925F92B5
:101180006F927F92AF92BF92CF92DF92EF92FF92D7
:101190000F931F93CF93DF93CDB7DEB7A1970FB611
:1011A000F894DEBF0FBECDBF5C01E42ECB01F22E62
:1011B00019A221E02F1510F03AE0F32E21E2C22E01
:1011C000D12CCC0EDD1E4F2C55246624772403C071
:1011D000E02E512FC9016E2D752FA30192010E949F
:1011E000F22E89019A01F09E802D1124E81A8E2D8D
:1011F0000894C108D1088A3010F4805D01C0895C70
:10120000F6018083011511052105310509F7C50196
:10121000B6016ADCA1960FB6F894DEBF0FBECDBF53
:10122000DF91CF911F910F91FF90EF90DF90CF90C2
:10123000BF90AF907F906F905F904F900895211571
:10124000310549F4DC01ED91FC910190F081E02D34
:10125000642F0995089592CF9A01AB0160E070E088
:10126000EECF0C94492F08950C94DF2F08951F9210
:101270000F920FB60F9211242F933F938F939F934A
:10128000AF93BF938091520390915303A091540365
:10129000B09155033091C203232F2D5F2D3720F4D9
:1012A0000196A11DB11D05C0232F2A570296A11D2D
:1012B000B11D2093C2038093520390935303A093D4
:1012C0005403B09355038091560390915703A09116
:1012D0005803B09159030196A11DB11D8093560387
:1012E00090935703A0935803B0935903BF91AF91C4
:1012F0009F918F913F912F910F900FBE0F901F9054
:1013000018950F931F938FB7F89400915203109183
:10131000530320915403309155038FBFB801C90185
:101320001F910F9108950F931F939FB7F894009109
:10133000560310915703209158033091590386B5F5
:10134000A89B06C08F3F21F00F5F1F4F2F4F3F4FCD
:101350009FBF322F212F102F0027080F111D211D95
:10136000311D52E0000F111F221F331F5A95D1F774
:10137000B801C9011F910F910895CF92DF92EF92AA
:10138000FF92CF93DF936B017C01CDDFDC01CB01BA
:10139000EC010EC0C8DF6C1B7D0B83E0683E780754
:1013A00038F00894C108D108E108F108C851DC4FB1
:1013B000C114D104E104F10469F7DF91CF91FF90EA
:1013C000EF90DF90CF90089510926D0381E08093AD
:1013D000D70080EA8093D80082E189BD89B580FF7B
:1013E000FDCF61E070E080E090E0C7DF80E98093AE
:1013F000D8008CE08093E2001092E000559A209A89
:1014000008956F927F928F929F92AF92BF92CF92E8
:10141000DF92EF92FF920F931F93CF93DF93F82EFB
:101420006A0180916D03882309F46AC0EB018A0187
:101430006AEFE62E77E0B72EBF208F2D90E0E0E236
:101440006E2E712C68227922FAE3AF2EA0E48A2E48
:10145000912C882299224AC08F2DE7DB882349F4FA
:10146000EA9409F44DC061E070E080E090E085DF2F
:101470003DC0282F30E0021713070CF4802F081B03
:1014800011099FB7F894B092E9006114710439F022
:1014900003C01092F10081508823D9F71AC0F7FCDD
:1014A00003C0282FFE0111C0482F9E0107C0F9017B
:1014B0002F5F3F4FE491E093F10041504423B9F78F
:1014C00006C031913093F10021502223D1F7C80F8B
:1014D000D11D8091E80085FF06C00115110529F492
:1014E0008114910411F0A092E8009FBF011511052D
:1014F00009F0B2CF5D9884E680936F03C60102C005
:101500008FEF9FEFDF91CF911F910F91FF90EF90A1
:10151000DF90CF90BF90AF909F908F907F906F9013
:101520000895EF92FF920F931F93CF93DF930F9243
:10153000CDB7DEB789838B017A0184E0BE016F5F8E
:101540007F4F41E050E05DDF84E4B801A70159DF3F
:101550000F90DF91CF911F910F91FF90EF90089521
:1015600082E048E050E0DDCFFC0116821782108651
:101570001186128613861482BC016C5F7F4FF0CFF8
:10158000CF93DF93DC01E62F683810F0E85825C0D0
:10159000F0E067FF13C0E058F04081E090E002C047
:1015A000880F991FEA95E2F7809514969C911497FD
:1015B000982314969C931497E0E00FC0E455FF4FD6
:1015C000E491EE23F1F0E7FF08C014968C91149794
:1015D0008D7F14968C931497EF77ED0186E0EE23C0
:1015E00021F09E819E1709F41E8281502196882346
:1015F000B1F7BD016C5F7F4FCD01B2DF81E090E0BC
:1016000002C080E090E0DF91CF910895CF93DF9307
:10161000DC01E62F683810F0E85825C0F0E067FFDD
:1016200012C0E058F04081E090E002C0880F991F9E
:10163000EA95E2F714969C911497982B14969C9334
:101640001497E0E010C0E455FF4FE491EE2309F455
:1016500041C0E7FF08C014968C91149782601496DD
:101660008C931497EF7716968C9116978E1741F1FD
:1016700017968C9117978E1719F118968C911897C9
:101680008E17F1F019968C9119978E17C9F01A964A
:101690008C911A978E17A1F01B968C911B978E1721
:1016A00079F080E090E0ED01C80FD91F2E81222350
:1016B00011F4EE8305C0019686309105A1F70AC0AA
:1016C000BD016C5F7F4FCD014BDF81E090E0DF918A
:1016D000CF91089581E090E013969C938E9312979A
:1016E00080E090E0F4CF0F931F93CF93DF930F929E
:1016F000CDB7DEB78C01698380911D03882351F03B
:1017000083E0BE016F5F7F4F41E050E07ADE181644
:1017100019063CF081E090E0F8019383828380E039
:1017200090E00F90DF91CF911F910F910895019755
:1017300039F0880F991F880F991F02970197F1F7C9
:101740000895789484B5826084BD84B5816084BD39
:1017500085B5826085BD85B5816085BDEEE6F0E02A
:10176000808181608083E1E8F0E010828081826086
:101770008083808181608083E0E8F0E08081816007
:101780008083E1E9F0E080818260808380818160F4
:101790008083E0E9F0E0808181608083E1ECF0E02B
:1017A0008081846080838081826080838081816089
:1017B0008083E3ECF0E0808181608083E0ECF0E006
:1017C000808182608083E2ECF0E0808181608083B0
:1017D000EAE7F0E08081846080838081826080839A
:1017E000808181608083808180688083089590E01B
:1017F000FC01E358FD4F249185569D4FFC018491D7
:10180000882341F190E0880F991FFC01EB52FD4FB6
:1018100045915491DA0189539D4FFC018591949132
:10182000FC019FB7F8948C91662331F420958223B4
:101830008C938081822308C0623049F4322F309526
:1018400083238C938081822B80839FBF0895822B7A
:101850008C939FBF08950F931F93CF93DF930F92A5
:10186000CDB7DEB7282F30E0F901E15AFD4F849162
:10187000F901E358FD4F1491F901E556FD4F04912C
:101880000023C9F0882319F06983E0D86981E02F2B
:10189000F0E0EE0FFF1FE953FD4F85919491DC01BD
:1018A0009FB7F8948C91662319F41095812301C099
:1018B000812B8C939FBF0F90DF91CF911F910F9140
:1018C0000895CF93DF93282F30E0F901E15AFD4FBF
:1018D0008491F901E358FD4FC491F901E556FD4F9C
:1018E000D491DD2389F0882309F0B0D8ED2FF0E002
:1018F000EE0FFF1FE754FD4F85919491FC0120816D
:101900002C2381E090E011F480E090E0DF91CF9112
:101910000895109273031092720388EE93E0A0E092
:10192000B0E08093740390937503A0937603B09313
:10193000770382E293E09093710380937003109297
:10194000660310925D0310925C0384E393E090932E
:101950005B0380935A030895CF93DF9380E793E06E
:1019600060E071EEDED886E061E075DF85E061E081
:1019700072DF86E061E03BDF85E061E038DF84E034
:1019800060E035DF0E9474170E94C3174CD458D60C
:1019900060ED77E080E090E0F0DCCBE4D6E0CE01D3
:1019A0000E94F819CE010E94D41ACE010E943E1B5B
:1019B00088EC93E0DCD100D083EE92E0EDB7FEB787
:1019C000928381830E9476220F900F90C7ECD3E020
:1019D000CE0159D0CE0162E044EF51E057D0DF9103
:1019E000CF9108958EDCDC01CB014091C30350916F
:1019F000C4036091C5037091C603841B950BA60BAD
:101A0000B70B893E23E0920720E0A20720E0B2074F
:101A100028F177DCDC01CB018093C3039093C403EE
:101A2000A093C503B093C603DFD30E945515FBD323
:101A300007D6ADD58091D003882321F01092D00332
:101A40000E94EE1E8BE496E00E943E1B8BE496E023
:101A50000E94B71A8BE496E00E940C1B0C944F294D
:101A600070DE87E693E0B0DC77DFC0E0D0E0BADF7D
:101A70002097E9F30E940000FACF1F920F920FB651
:101A80000F921124FFCF83E061E0B1CEBF92CF92DD
:101A9000DF92EF92FF920F931F93CF93DF93B62EB7
:101AA00000E010E06A01EE24FF24C62FD0E0219769
:101AB00011C084B5806284BDC701B6015EDC84B507
:101AC0008F7D84BD0C171D071CF4C701B60155DCC2
:101AD0000F5F1F4F0B1568F3DF91CF911F910F918F
:101AE000FF90EF90DF90CF90BF900895FC0198E0B9
:101AF000908F82E0818F92AB83ABDF01A45BBF4FFD
:101B00009C93E35BFF4F80830895FC01862F880F31
:101B10008C5F808F618F82AB63ABDF01A45BBF4FB3
:101B20008C93E35BFF4F60830895EF92FF920F93D6
:101B30001F93CF93DF938C01F62FE72FC0E0D0E007
:101B40002AE1E22EF12CCE9D9001CF9D300DDE9D3D
:101B5000300D1124C801820F931F6F2F7E2F0E941A
:101B6000BA1BAB01F82FE92F2196C330D10559F7E5
:101B7000DF91CF911F910F91FF90EF9008959B01FE
:101B8000A901662757FD6095762FBA01552744278E
:101B9000CCDFAB01BC01AB01772757FD7095672FF8
:101BA000CA010895FC01E05CFF4F60817181828170
:101BB000938108950F931F93CF93DF93EC018B01D3
:101BC0000E946A1CCE014A96B8010E946A1CCE018E
:101BD000C496B8010E946A1CDF91CF911F910F91AA
:101BE00008951F920F920FB60F9211248F9381E0E8
:101BF0008093D0038F910F900FBE0F901F90189578
:101C00001F93CF93DF93EC01162F8DDBDC01CB010B
:101C10004D855E856F857889841B950BA60BB70B68
:101C200080322EE4920720E0A20720E0B20788F17C
:101C300089858B8719879B858985981751F173DB77
:101C4000DC01CB018D879E87AF87B88B99858A850C
:101C5000981721F48E819F81019603C08E819F8108
:101C600001979F838E83688179812E813F81CB018B
:101C700001964A815B818217930714F45F834E8338
:101C80008E819F81415050408417950714F47F83C3
:101C90006E83DF91CF911F9108951F93CF93DF93B0
:101CA000EC01162F40DBDC01CB0149895A896B8995
:101CB0007C89841B950BA60BB70B80322EE4920710
:101CC00020E0A20720E0B20770F08A858C871A878F
:101CD0009C858A85981739F026DBDC01CB01898B3E
:101CE0009A8BAB8BBC8BDF91CF911F9108951F9284
:101CF0000F920FB60F9211242F933F934F935F9340
:101D00006F937F938F939F93AF93BF93CF93DF9303
:101D1000EF93FF93D1E01C9BD0E0C1E01D9BC0E09E
:101D20008091DD03D81721F088EC93E06D2F68DFF8
:101D30008091DE03C81721F088EC93E06C2FADDFB3
:101D4000D093DD03C093DE03FF91EF91DF91CF913C
:101D5000BF91AF919F918F917F916F915F914F91C3
:101D60003F912F910F900FBE0F901F901895CF931A
:101D7000DF93EC018FEF9FE79983888380E090E801
:101D80009B838A831D821C821F821E82188681E0AB
:101D900089878A878B878C871D861E861F86188A6F
:101DA000198A1A8A1B8A1C8A88E060E020DD89E093
:101DB00060E01DDD87E060E01ADDCE0161E020DF3C
:101DC000CE0161E06ADFEAE6F0E080818062808334
:101DD000EE9AE8E6F0E0808181608083EBE6F0E057
:101DE000808180638083DF91CF910895FC018FB75C
:101DF000F894660F771F77836683440F551F5383CC
:101E00004283220F331F31832083758364838FBF06
:101E10000895FC012FB7F894868197818681978178
:101E2000817019F08481958106C08681978195958E
:101E30008795958384832FBF0895CF93DF93EC011B
:101E4000E8DF2091DF033091E0038217930741F030
:101E5000CE01DFDF9093E0038093DF0381E001C0D8
:101E60008885DF91CF91089580E161E0C0DC8FE04B
:101E700061E0BDDC81E161E0BADC8CB58F7D8CBDB9
:101E80008CB582608CBD8DB581608DBD8CB5886050
:101E90008CBD8CB584608CBD8CB580618CBD8CB5DF
:101EA00080648CBD0895CF93DF93EC01862F1D864F
:101EB0006C8361E09CDC88E28E83CE01D5DF24E078
:101EC00030E20DC0FE01E80FF91F3687019684311C
:101ED0009105C1F71AA221506596222319F080E0DE
:101EE00090E0F0CFDF91CF910895CF93DF93EC0195
:101EF0008C8160E0B0DC8D818EBD0DB407FEFDCF1E
:101F00008C8161E0A8DCDF91CF910895CF93DF93BE
:101F1000EC018D8182608D83CE01E7DF81E090E06E
:101F200006DC8D818D7F8D83CE01DFDFDF91CF9148
:101F30000895CF93DF93EC018D816295607F8F7060
:101F4000682B6D83CE01D1DFCE01E0DFDF91CF9131
:101F500008951F93CF93DF93EC01162F8D814423B7
:101F600011F0816001C08E7F8D83CE01BEDF212FF5
:101F700030E044E0359527954A95E1F7CE01622F90
:101F8000D8DFCE01612FD5DFDF91CF911F9108956A
:101F90001F93CF93DF93EC01162F41E0DADF4B85DF
:101FA0008A8590E025E130E0829FF001839FF00D6B
:101FB000929FF00D1124EC0FFD1FE40FF11D168709
:101FC0004F5F4B8780EA9FE00197F1F781E090E057
:101FD000DF91CF911F91089540E0BBDF80EA9FE041
:101FE0000197F1F70895FC0160856E7F608764605A
:101FF000F3CFFC016085262F226020876660ECCF3E
:10200000FC016781262F246027836C60E5CFCF9386
:10201000DF9300D000D0CDB7DEB7198220E42A8349
:1020200024E12B8324E52C83FC012485421708F04E
:1020300040E0FC0142876387FE01E40FF11D21812E
:10204000260F2068622FC8DF0F900F900F900F901F
:10205000DF91CF910895CF93DF93EC0162E0BCDF75
:102060001A861B86DF91CF91089561E0B5CFCF939B
:10207000DF93EC014C871A861B868D85813011F029
:1020800081E08D878D85882311F080E001C084E098
:102090008D83CE012ADF80E593EC49DBCE0163E03E
:1020A00048DF80E593EC43DBCE0163E042DF88EE5E
:1020B00093E03DDBCE0163E03CDF80E593EC37DB72
:1020C000CE0162E036DF80E593EC31DBCE0168E2E1
:1020D00083DFCE01CADFCE018CDFCE0184DFCE01EB
:1020E000BADFCE018DDFDF91CF910895DA0120E0D4
:1020F00030E075E1679FB0011124680F791F90EB04
:10210000FB01E20FF31F86858F3D11F49C9301C004
:102110008C932F5F3F4F11962431310589F7FA01D7
:10212000148A0895EF92FF920F931F93CF93DF933A
:10213000EC0168830B96DADCCE01875A9F4FD6DC20
:10214000CE0189559F4FD2DC1A821B821C821D82D0
:1021500019828FEF8E838EE090E083D88C016881A6
:102160000E949B2025EFE22EF12CEC0EFD1EF701C4
:102170001183008387E090E00E94A7198C01F7018A
:102180006081718153D7C950DF4F19830883DF9174
:10219000CF911F910F91FF90EF900895CF93DF9310
:1021A000EC01FC01EB50FF4F808191815DD8C9505B
:1021B000DF4F888199810E94BA19DF91CF910895EC
:1021C0008130910541F489E495E067E1ABDF88E473
:1021D00094E066E1A7CF009731F488E494E0DEDF75
:1021E00089E495E0DBCF089589E495E00E94A62D6F
:1021F00080914A05882351F480911404823611F0AD
:10220000863621F489E495E00E94D92C88E494E094
:102210000E94A62D80914904882321F488E494E04B
:102220000C94D92C08958F929F92AF92BF92CF9227
:10223000DF92EF92FF9280911404823619F080377A
:1022400009F096C1209115043091160480E82030E1
:10225000380709F488C18091E2059091E305A091C7
:10226000E405B091E5052A1B3B0B3093F303209363
:10227000F20389E495E00E94AE2EFC019093F903ED
:102280008093F80380914A06982F9F5F90934A06A7
:102290008C3309F054C010924A062091F203309119
:1022A000F303D90137FF04C0AA27BB27A21BB30B36
:1022B00080913004909131044091F4035091F503E2
:1022C0006091F6037091F703A817B9071CF5809188
:1022D0002C0490912D048E179F07E4F080912E041A
:1022E00090912F04E817F907ACF0AB31B1053CF140
:1022F000C901AA2797FDA095BA2F840F951FA61F85
:10230000B71F8093F4039093F503A093F603B09363
:10231000F70315C0DB01CA01E3E0B595A7959795D2
:102320008795EA95D1F7481B590B6A0B7B0B4093B5
:10233000F4035093F5036093F6037093F703209131
:10234000F2033091F3038091060490910704AA27C9
:1023500097FDA095BA2F4427582F692F7A2F481B35
:10236000590B6A0B7B0B37FF2BC080912404909193
:102370002504AA2797FDA095BA2F480F591F6A1F59
:102380007B1F452F562F672F772767FD7A95509330
:102390000704409306048091080490910904AA2739
:1023A00097FDA095BA2F4427582F692F7A2F481BE5
:1023B000590B6A0B7B0B80912804909129042AC049
:1023C0008091220490912304AA2797FDA095BA2F0B
:1023D000480F591F6A1F7B1F452F562F672F7727DE
:1023E00067FD7A9550930704409306048091080492
:1023F00090910904AA2797FDA095BA2F4427582F3A
:10240000692F7A2F481B590B6A0B7B0B80912A048A
:1024100090912B04AA2797FDA095BA2F480F591F1A
:102420006A1F7B1F452F562F672F772767FD7A95E9
:1024300050930904409308046091060470910704C6
:10244000882777FD8095982F442737FD4095542F96
:102450000E94C02E4B015C01F9E0B594A7949794BB
:102460008794FA95D1F78092FA039092FB03A09299
:10247000FC03B092FD036091260470912704882725
:1024800077FD8095982F2091F4033091F5034091CA
:10249000F6035091F7030E94C02E6B017C01A9E066
:1024A000F594E794D794C794AA95D1F7C092FE0308
:1024B000D092FF03E0920004F092010460910804BE
:1024C00070910904882777FD8095982F2091F80353
:1024D0003091F903442737FD4095542F0E94C02EB8
:1024E000AB01BC01B9E07595679557954795BA95CD
:1024F000D1F7409302045093030460930404709353
:1025000005048091150490911604AA2797FDA095C3
:10251000BA2F880D991DAA1DBB1D8C0D9D1DAE1DCA
:10252000BF1D840F951FA61FB71F20911E04309159
:102530001F04A901662757FD6095762F841795071C
:10254000A607B70784F04091200450912104662724
:1025500057FD6095762F481759076A077B0714F4D3
:10256000DB01CA019C01309318042093170406C0B4
:1025700080E090E89093160480931504FF90EF900C
:10258000DF90CF90BF90AF909F908F9008958091F3
:10259000F103843038F4823088F4882331F08130BC
:1025A00069F406C0843051F403C086E060E008C0DE
:1025B00086E061E050D985E060E005C086E061E03A
:1025C0004AD985E061E047C90E94810928EE33E0DD
:1025D00040E050E00E94F22EC9014091E103509189
:1025E000E2036091E3037091E403841B950B08956B
:1025F0000E94810928EE33E040E050E00E94F22E74
:10260000C9014091E5035091E6036091E7037091A1
:10261000E803841B950B08950E94810928EE33E09E
:1026200040E050E00E94F22EC9014091E903509130
:10263000EA036091EB037091EC03841B950B089502
:10264000CF93DF9384E03DD9009789F48091F10323
:10265000843059F000D086EF92E0EDB7FEB7928358
:1026600081830E9476220F900F9084E005C0209114
:1026700014042F3621F485E08093F1037AC1809110
:10268000170490911804F0E880309F0709F448C1BE
:1026900080914904882309F443C180914A05882325
:1026A00009F055C1223609F43BC1203709F04FC16A
:1026B00037C10E94810928EE33E040E050E00E94DB
:1026C000F22EC901A0E0B0E08093E9039093EA0301
:1026D000A093EB03B093EC0377DF23E085389207F8
:1026E00068F08091EF03882349F482DF32E0893576
:1026F000930720F08091F003882329F08091F10363
:10270000833009F049C088E494E00E94A02E209113
:102710001704309118044091320450913304240F6F
:10272000351F28173907A4F480911404863669F000
:1027300089E495E00E94A02E2091150430911604A2
:10274000265E3F4F281739073CF51092F10311C15F
:1027500088E494E00E94A02E209117043091180480
:102760004091340450913504240F351F821793078C
:102770009CF480911404863669F089E495E00E9407
:10278000A02E20911504309116042A513040821752
:10279000930714F481E070CF17DF2ADFEAC081E0ED
:1027A0008093EF030E94810928EE33E040E050E07F
:1027B0000E94F22EC901A0E0B0E08093E103909363
:1027C000E203A093E303B093E403C0914004D091EB
:1027D000410422DFC817D90728F420914004309122
:1027E000410402C019DF9C0160911B0470911C041C
:1027F000882777FD8095982F442737FD4095542FE3
:102800000E94C02E20E13EE040E050E00E94142FE4
:10281000E90188E494E00E94A02EFC01EC1BFD0B72
:10282000F0930B04E0930A04C0911704D0911804AC
:1028300080913A0490913B0420913C0430913D04F6
:10284000820F931F62E070E00E94DF2E6C0F7D1FED
:102850006E177F070CF48DC0D0930D04C0930C0449
:102860005FC08093F0030E94810928EE33E040E0CE
:1028700050E00E94F22EC901A0E0B0E08093E50391
:102880009093E603A093E703B093E803C0913E045E
:10289000D0913F04C1DEC817D90728F420913E0427
:1028A00030913F0402C0B8DE9C0160911904709120
:1028B0001A04882777FD8095982F442737FD409587
:1028C000542F0E94C02E20E13EE040E050E00E94E4
:1028D000142FE90188E494E00E94A02EFC01EC0F83
:1028E000FD1FF0930B04E0930A04C0911704D091EC
:1028F0001804809136049091370420913804309167
:102900003904820F931F62E070E00E94DF2E6C0F8B
:102910007D1FE617F7076CF1D0930F04C0930E04E8
:1029200082E0AACE84E00E94610C8130910509F515
:1029300000D089E093E0EDB7FEB7928381830E94D7
:10294000762282E08093F1030F900F9012C0809165
:10295000F103843048F4823008F0ABCE882309F4C8
:102960001ECF813031F47DCF8430E1F2853009F41F
:10297000A0CEDF91CF91089584E194E061E070E012
:1029800049E050E00E9411348091150490911604A2
:102990009093EE038093ED0308950F931F93CF93CD
:1029A000DF93EC01A5E075956795AA95E1F766566A
:1029B0007E4F8B01222717FD2095322F0F3F1105E7
:1029C0002105310571F06CF00B3981E0180780E0CA
:1029D000280780E038074CF00AE911E020E030E0F9
:1029E00004C000E011E020E030E0688179818827B0
:1029F00077FD8095982FA90198010E94C02EDC01D7
:102A0000CB01F9E0B595A79597958795FA95D1F7FC
:102A100099838883B1DFDF91CF911F910F91089542
:102A20000F931F93CF93DF93EC01F5E075956795B6
:102A3000FA95E1F76A597D4F8B01222717FD209502
:102A4000322F063682E0180780E0280780E038073A
:102A50006CF0013083E0180780E0280780E0380739
:102A60004CF000E013E020E030E004C006E612E0A5
:102A700020E030E068817981882777FD8095982F64
:102A8000A90198010E94C02EDC01CB01E9E0B595B7
:102A9000A79597958795EA95D1F7998388836CDFF9
:102AA000DF91CF911F910F910895AF92BF92CF9276
:102AB000DF92EF92FF920F93CF93DF93CDB7DEB704
:102AC0006B970FB6F894DEBF0FBECDBF8091F003B9
:102AD000882309F491C08091F103813009F48CC0FE
:102AE00085ED94E019D77C0120E88030920709F445
:102AF00082C080910E0490910F0420913604309191
:102B00003704820F931F8E159F0534F4B701681B9D
:102B1000790B89E194E084DF80910E0490910F0499
:102B20002091380430913904820F931FE816F9067A
:102B300034F4B701681B790B89E194E02EDF00D0F3
:102B40008CE193E0ADB7BEB712969C938E9311972C
:102B50000E949D220F900F90A701662757FD609558
:102B6000762FCE01439623E009E00E94ED2A5C0116
:102B700040910E0450910F04662757FD6095762F03
:102B8000CE010A9623E00E94ED2A6C0140911904BF
:102B900050911A04662757FD6095762FCE01019655
:102BA00023E00E94082AEDB7FEB738970FB6F894D5
:102BB000FEBF0FBEEDBF319624E333E0ADB7BEB725
:102BC00012963C932E931197B382A282D582C4822F
:102BD000978386830E949D221092F003F092130443
:102BE000E0921204EDB7FEB738960FB6F894FEBF28
:102BF0000FBEEDBF01C0FCDC8091EF03882309F418
:102C000097C08091F103882309F492C085ED94E088
:102C1000A2D67C01F0E880309F0709F488C080913B
:102C20000C0490910D0420913C0430913D04820FDE
:102C3000931FE816F90634F4B701681B790B8BE192
:102C400094E0EEDE80910C0490910D0420913A0402
:102C500030913B04280F391F2E153F0564F4209155
:102C60003C0430913D04280F391FB701621B730BE0
:102C70008BE194E092DE00D08EE593E0ADB7BEB775
:102C800012969C938E9311970E949D220F900F9005
:102C9000A701662757FD6095762FCE01019623E0A8
:102CA00009E00E94ED2A5C0140910C0450910D0452
:102CB000662757FD6095762FCE010A9623E00E9485
:102CC000ED2A6C0140911B0450911C04662757FDAE
:102CD0006095762FCE01439623E00E94082AEDB737
:102CE000FEB738970FB6F894FEBF0FBEEDBF319612
:102CF00026E733E0ADB7BEB712963C932E931197FB
:102D0000B382A282D582C482978386830E949D2249
:102D10001092EF03F0921104E0921004EDB7FEB7A9
:102D200038960FB6F894FEBF0FBEEDBF01C060DC51
:102D30006B960FB6F894DEBF0FBECDBFDF91CF917B
:102D40000F91FF90EF90DF90CF90BF90AF900895DC
:102D500084E194E061E070E049E050E00C94F933E4
:102D600082E68093140480E098E2909316048093A6
:102D70001504909318048093170480E190E09093D9
:102D80001A048093190480E09AE090931C048093C5
:102D90001B04F2CD8DE194E06AE070E04BE250E07C
:102DA0000C9411348DE194E06AE070E04BE250E065
:102DB0000C94F933CF9383E480931D0488E592E06B
:102DC00090933F0480933E0480EB94E09093410401
:102DD0008093400480E09CE390932104809320043E
:102DE00080E098E090931F0480931E0480E09EE1B1
:102DF00090932304809322049093250480932404C9
:102E00008AE990E0909327048093260480E09AEF6B
:102E1000909329048093280490932B0480932A0490
:102E20008AE190E090932D0480932C048DEC9FEF29
:102E300090932F0480932E0420E031E030933104EE
:102E400020933004309333042093320420E03FEF8A
:102E5000309335042093340426E630E03093370471
:102E600020933604909339048093380483E390E0F0
:102E700090933B0480933A048AE99FEF90933D043A
:102E800080933C0481E08093420483E594E061E018
:102E90000E94850D84E08093430481EA94E064E01D
:102EA0000E94850DC3E0C09344048FEE94E063E07C
:102EB0000E94850D82E08093450484E595E062E000
:102EC0000E94850D85E08093460482EA95E065E0E6
:102ED0000E94850DC093470480EF95E063E00E9457
:102EE000850D58DFCF91089580E090E00E9409346D
:102EF000813049F035DF5EDF80E090E061E00E94E4
:102F000032343ADD47CF24DF4DCF809314048F56FF
:102F1000823050F480E090E890931604809315047A
:102F2000909318048093170427CD89E495E00C94BE
:102F3000A02EFBDF209115043091160428173907C5
:102F40006CF480912404909125049093070480935D
:102F5000060480912804909129040CC080912204D9
:102F600090912304909307048093060480912A048F
:102F700090912B0490930904809308041092F0031D
:102F80001092EF03089583E08093F10389E495E0C4
:102F90000E94D92C88E494E00E94D92C25D9C9CF6D
:102FA0008091150490911604089588E494E00C949F
:102FB000A02E80911704909118040895CF93DF9369
:102FC000EC018091150490911604D0931604C093DF
:102FD00015048C1B9D0B97FF03C0909581959F4F07
:102FE000813891050CF0A5DF1ED92ADB8091ED0315
:102FF0009091EE038C1B9D0B97FF03C090958195DC
:103000009F4F813891050CF0B7DCDF91CF91089587
:1030100090931804809317048CDF05D911DBACCC96
:1030200081E090E0CDC880E090E0CAC8FC017683E2
:1030300065831482108289E090E09283818381E02D
:1030400083830895CF93DF93EB01CB0167E00E9468
:10305000412191E02F81821390E0892FDF91CF9160
:103060000895EF92FF920F931F93CF93DF93EC019C
:103070008B01E42E8D819E810E948E20FF2406C04C
:10308000CE01B801DFDF882359F414C08D819E8101
:10309000B8010E94BE20882329F0FE1459F4F0CF15
:1030A00081E001C080E0DF91CF911F910F91FF90EF
:1030B000EF900895F394EF14A8F3E8CFEF92FF9206
:1030C0000F931F93CF93DF93EC017B018A018D81D6
:1030D0009E81FCD68D819E81B701F0D78D819E8126
:1030E0006EEB40E08DD78D819E81CDD7F801808336
:1030F0008D819E81C8D7F80181838D819E81C3D740
:10310000F80182838D819E81BED7F80183838D81F2
:103110009E81B9D7F80184838D819E81B4D7F8014F
:1031200085838D819E81AFD7F80186838D819E81B5
:10313000AAD7F80187838D819E81A5D7F801808762
:103140008D819E81C3D6DF91CF911F910F91FF900A
:10315000EF900895CF93DF93EA01B0DFCE0168E0EE
:103160000E94412191E02885821390E0892FDF9110
:10317000CF910895EF92FF920F931F93CF93DF9318
:103180008C01EB017A01FC01858196819FD6F801C3
:1031900085819681BE0192D7F801858196816EE482
:1031A00040E02ED7F80185819681F701628140E0E9
:1031B00027D7F80185819681F701638140E020D708
:1031C0008881803139F0F80185819681F701648129
:1031D00040E016D7F8018581968178D6F80185817F
:1031E000968168E440810CD7F8018081882331F012
:1031F0006AE070E080E090E00E94BD09F8018581FE
:10320000968164D6DF91CF911F910F91FF90EF903F
:103210000895EF92FF920F931F93CF93DF93CDB753
:10322000DEB72A970FB6F894DEBF0FBECDBF7C0184
:103230008B01242FAE014F5F5F4F2A878BDF2A85DA
:103240008823D9F0F80180818031C9F02A3051F00B
:103250002A3050F02B3021F02C3031F48FE705C0AC
:103260008FE503C08FE301C08FE18D83C701B801F3
:10327000AE014F5F5F4F7EDF02C080E001C081E0A2
:103280002A960FB6F894DEBF0FBECDBFDF91CF9167
:103290001F910F91FF90EF900895CF93DF93EC0172
:1032A0008D819E8113D68D819E8135D78D819E81A2
:1032B00064E44881A5D68B81882321F189819A8194
:1032C0008930910551F089309105B4F08A3091052B
:1032D00049F08B30910581F40AC06EE570E080E022
:1032E00090E00EC06CEB70E080E090E009C067E712
:1032F00071E080E090E004C06EEE72E080E090E06B
:103300000E94BD09DF91CF910895CF93DF93CDB790
:10331000DEB729970FB6F894DEBF0FBECDBFAE0162
:103320004F5F5F4F17DF882339F03A8120E08981B2
:1033300090E0822B932B02C081E89FEF29960FB675
:10334000F894DEBF0FBECDBFDF91CF9108950F93EC
:103350001F93CF93DF93EC010E94492F8C0160E013
:1033600070E0AE010E94B431C801DF91CF911F918E
:103370000F9108950C94DF2F08958130910559F431
:1033800010924E0610924D0682E493E090934C0604
:1033900080934B060895009731F482E493E0909374
:1033A0004C0680934B0608950F931F93CF93DF93A2
:1033B000CDB7DEB765970FB6F894DEBF0FBECDBFB1
:1033C0008C01CE01019644E150E00E94A031C80179
:1033D000BE016F5F7F4F0E94BC0865960FB6F894E0
:1033E000DEBF0FBECDBFDF91CF911F910F9108952A
:1033F000CF93DF93EC01FC01EE59FF4F8FEF8083F9
:10340000CE016AE00E94530FCE0164E144E00E94C5
:103410003710CE010E943510DF91CF9108958F9221
:103420009F92AF92BF92CF92DF92FF920F931F9322
:10343000CF93DF93CDB7DEB729970FB6F894DEBFF1
:103440000FBECDBF4C01CB01AC01662757FD609587
:10345000762F6E010894C11CD11CC60121E009E041
:103460000E94ED2A00E010E0FC2CCD2C85E0A82E77
:10347000B12C05C060E20E94C80F0F5F1F4F8F2D57
:103480009C2D0E94CC319501281B390BC4010217D9
:10349000130780F36F2D7C2D0E94BC0829960FB670
:1034A000F894DEBF0FBECDBFDF91CF911F910F917A
:1034B000FF90DF90CF90BF90AF909F908F90089536
:1034C00061EA73E071CFCF93DF93EC016CE042E0EF
:1034D0000E9407106EDDBC0180E86030780719F4A7
:1034E000CE01EEDF02C0CE019ADFDF91CF910895C9
:1034F000CF93DF93EC0166E042E00E9407108091D9
:103500004904882329F051DDBC01CE0188DF02C0C7
:10351000CE01D6DFDF91CF910895CF93DF93EC01F9
:103520006CE041E00E9407103BDDBC0180E86030A8
:10353000780719F4CE01C4DF02C0CE0170DFDF913D
:10354000CF910895CF93DF93EC0166E041E00E94B4
:10355000071080914A05882329F0E7DCBC01CE01E1
:103560005EDF02C0CE01ACDFDF91CF910895CF9333
:10357000DF93EC01E7DFCE01D0DFCE01B9DFCE0172
:10358000A2DFDF91CF910895CF93DF93D82FC92F7A
:103590006FED0E94C80F8D2F9C2F60911D040E941B
:1035A000C80FDF91CF910895CF93DF93D82FC92F04
:1035B00060E040E00E9407108D2F9C2F67EA73E0C7
:1035C000F3DE8D2F9C2F60E041E00E9407108D2FCD
:1035D0009C2F6FEA73E0E8DE8D2F9C2F60E042E0C5
:1035E0000E9407108D2F9C2F67EB73E0DDDE8D2F7F
:1035F0009C2F62E141E00E9407108D2F9C2FC4DFB9
:103600008D2F9C2F62E142E00E9407108D2F9C2F8E
:10361000BBDFDF91CF910895CF93DF93D82FC92FD0
:1036200067E040E00E94071080911404863651F054
:10363000873618F48236D1F40AC08F3691F080377D
:10364000A9F40AC08D2F9C2F6FEB73E013C08D2F50
:103650009C2F6DEC73E00EC08D2F9C2F6BED73E0F3
:1036600009C08D2F9C2F69EE73E004C08D2F9C2F15
:1036700067EF73E099DEDF91CF910895FF920F938A
:103680001F93CF93DF938C01C091F103FC01EE599E
:10369000FF4F8081C817D1F1F02ED12FC80160E013
:1036A00043E00E9407108091F103823071F0833073
:1036B00028F4882391F0813001F513C08430A9F0FB
:1036C000843038F08530C9F414C0C80165E074E076
:1036D00018C0C8016AE174E014C0C8016FE274E068
:1036E00010C0C80164E474E00CC0C80169E574E06E
:1036F00008C0C8016EE674E004C08F2D9D2F63E8FA
:1037000074E052DEF801EE59FF4FC083C23099F4E5
:10371000C80169E043E00E9407100E94E412EC0136
:103720000E94F812C817D90718F40E94E4120CC0BE
:103730000E94F81209C0C23088F4C8016CE043E06E
:103740000E9407100E940C13BC01C8014AE050E01F
:103750000E942C09C80168E974E026DEDF91CF9150
:103760001F910F91FF90089581E090E006CE80E0D8
:1037700090E003CE2F923F924F925F926F927F9292
:103780008F929F92AF92BF92CF92DF92EF92FF9271
:103790000F931F93CF93DF93FC0144805580668085
:1037A0007780408651866286738680809180A28071
:1037B000B38084829582A682B782408351836283DC
:1037C0007383C088D188E288F388C48AD58AE68A60
:1037D000F78A84859585A685B785808B918BA28B8A
:1037E000B38BD18DC08D2C2E33248C019D010C19EF
:1037F0001D092E093F09080F191F2A1F3B1F0D2EF7
:1038000004C0B595A795979587950A94D2F7081B9C
:10381000190B2A0B3B0BD701C60104C0B595A79520
:1038200097958795DA95D2F7080F191F2A1F3B1F26
:10383000DB01CA010C2E04C0B595A7959795879515
:103840000A94D2F7080F191F2A1F3B1FC1010197C5
:10385000B501A40104C075956795579547958A955C
:10386000D2F7040F151F261F371FD301C20104C052
:10387000B595A79597958795CA95D2F7080F191F03
:103880002A1F3B1FC1010297B701A60104C075950D
:103890006795579547958A95D2F7041B150B260B0C
:1038A000370B0487158726873787B801C901DF9151
:1038B000CF911F910F91FF90EF90DF90CF90BF902D
:1038C000AF909F908F907F906F905F904F903F90C0
:1038D0002F900895FC01CB01AA2797FDA095BA2F40
:1038E000DC019927882780839183A283B383848313
:1038F0009583A683B78380879187A287B3878487C0
:103900009587A687B787808B918BA28BB38B848B8F
:10391000958BA68BB78B0895FC01408951896289EC
:10392000738984859585A685B78584179507A6072D
:10393000B7075CF484899589A689B7894817590720
:103940006A077B072CF0CB01089580E090E808958A
:1039500080E090E80895FC0140895189628973896B
:1039600084859585A685B785481759076A077B071B
:103970005CF484899589A689B78984179507A60779
:10398000B7072CF0CB01089580E090E8089580E01F
:1039900090E80895AF92BF92CF92DF92EF92FF929C
:1039A0000F931F93CF93DF93CDB7DEB729970FB651
:1039B000F894DEBF0FBECDBF8BE496E0F5DDF0DA04
:1039C0005C0120E88030920719F460E078E201C0E1
:1039D000BC01882777FD8095982F0E946C2C8C0164
:1039E00060911E0470911F04882777FD8095982FA1
:1039F0000E946C2C6C016091200470912104882736
:103A000077FD8095982F0E946C2C9C0188EC93E0A8
:103A1000B801A6010E94F60E0E9481096B017C018B
:103A200051C088EC93E00E941D0F882381F10E9411
:103A300081096B017C0188EC93E00E94090F0E94D0
:103A4000A22CBCDA8BE496E068DD8091D003882359
:103A5000C9F11092D003A4DAAC01662757FD609536
:103A6000762FCE01019621E009E00E94ED2A00D0D8
:103A700000D022EF34E0EDB7FEB732832183948388
:103A800083830ED50F900F900F900F902FC01123AE
:103A900021F48BE496E041DD0DC0103859F48BE43D
:103AA00096E06CE041E00E9407108BE496E06FE046
:103AB00075E07ADC1F5F63E070E080E090E00E94D8
:103AC000BD0901C010E00E948109DC01CB018C1905
:103AD0009D09AE09BF098031F7E29F07F0E0AF070B
:103AE000F0E0BF0708F49DCFC50168DA29960FB64C
:103AF000F894DEBF0FBECDBFDF91CF911F910F9124
:103B0000FF90EF90DF90CF90BF90AF900895AF926D
:103B1000BF92CF92DF92EF92FF920F931F93CF93BA
:103B2000DF93CDB7DEB729970FB6F894DEBF0FBE8F
:103B3000CDBF8BE496E038DD3CDA5C0120E88030D4
:103B4000920719F460E078E201C0BC01882777FD94
:103B50008095982F0E946C2C8C0160911E047091AE
:103B60001F04882777FD8095982F0E946C2C6C018C
:103B70006091200470912104882777FD8095982F0B
:103B80000E946C2C9C0188EC93E0B801A6010E9475
:103B9000F60E0E9481096B017C0151C088EC93E014
:103BA0000E941D0F882381F10E9481096B017C0115
:103BB00088EC93E00E94090F0E94A22C29DA8BE482
:103BC00096E081DC8091D0038823C9F11092D00364
:103BD000F0D9AC01662757FD6095762FCE0101968E
:103BE00021E009E00E94ED2A00D000D025E135E077
:103BF000EDB7FEB7328321839483838377D40F900C
:103C00000F900F900F902FC0112321F48BE496E0BA
:103C10005ADC0DC0103859F48BE496E06CE042E0B9
:103C20000E9407108BE496E064E375E0BDDB1F5F44
:103C300063E070E080E090E00E94BD0901C010E008
:103C40000E948109DC01CB018C199D09AE09BF09D5
:103C50008031F7E29F07F0E0AF07F0E0BF0708F41C
:103C60009DCFC501D5D929960FB6F894DEBF0FBEFA
:103C7000CDBFDF91CF911F910F91FF90EF90DF901B
:103C8000CF90BF90AF900895CF92DF92EF92FF92C6
:103C90000F931F93CF93DF9300D000D0CDB7DEB743
:103CA0008BE496E081DC10911404E12FE656EB30B2
:103CB00028F4F0E0EA5BFC4F608101C060E088EC32
:103CC00093E070E040E050E023E030E00E94F60E28
:103CD00082E6898386E68A8380E78B838FE68C83FE
:103CE0000E9481096B017C0158C088EC93E00E941E
:103CF0001D0F8823B9F10E9481096B017C0188ECBA
:103D000093E00E94090FE1E0F0E0EC0FFD1FE80FE7
:103D1000F91F8081FAD88BE496E07EDC8091D00395
:103D2000882309F43AC01092D0038091140482369B
:103D300011F430DE46C0863611F4E9DE42C0803729
:103D400021F400D082EA94E005C08F36D1F500D08E
:103D500083EC94E0EDB7FEB792838183A1D30F90FB
:103D60000F902FC0002321F48BE496E055DC0DC0AA
:103D7000003859F48BE496E067E040E00E940710B9
:103D80008BE496E064EE74E00FDB0F5F63E070E0BD
:103D900080E090E00E94BD0901C000E00E9481091E
:103DA000DC01CB018C199D09AE09BF098031F7E216
:103DB0009F07F0E0AF07F0E0BF0708F496CF812F30
:103DC000A4D80F900F900F900F90DF91CF911F917B
:103DD0000F91FF90EF90DF90CF900895CF92DF92F8
:103DE000EF92FF92CF9388EC93E060E070E040E0C8
:103DF00050E022E030E00E94F60E0E9481096B0143
:103E00007C01C0E04CC088EC93E00E941D0F882329
:103E100029F00E9481096B017C0102C0CC2329F4A6
:103E20008BE496E0C1DBC0E011C0C03879F488ECC7
:103E300093E00E94090F482F8BE496E060E00E9417
:103E400007108BE496E06BE974E0AEDA8091D00362
:103E50008823F1F01092D00388EC93E00E94090FC0
:103E60008130910539F08230910559F0009781F445
:103E70000BDF26C082E649D88BE496E0CDDB8ADDF5
:103E80001FC086E642D88BE496E0C6DB40DE18C051
:103E9000CF5F63E070E080E090E00E94BD090E9487
:103EA0008109DC01CB018C199D09AE09BF09803164
:103EB00027E2920720E0A20720E0B20708F4A3CF90
:103EC000CF91FF90EF90DF90CF900895FF920F93E6
:103ED0001F93CF93DF93FC011081C181D281F894AD
:103EE0008981012F00958023898378948DE7F82EAE
:103EF000FA9431F182E090E00E94970B888181234F
:103F0000B9F3F8948A8180238A838981812B8983FC
:103F1000789484EF91E00E94970BF8948981802334
:103F2000898380E590E00E94970B88818123C1E01E
:103F300009F0C0E0789484EA91E00E94970B01C0F8
:103F4000C0E08C2FDF91CF911F910F91FF900895CA
:103F50001F93CF93DF93FC011081C181D281912FF8
:103F60009095F8948A8189238A838981812B89831A
:103F700060FF0BC08AE090E00E94970B8A81812B42
:103F80008A83789487E390E00AC081E490E00E94FD
:103F9000970B8A81812B8A83789485E090E00E9438
:103FA000970BDF91CF911F9108950F931F93CF939C
:103FB000DF93FC011081C181D281F8948981812B2A
:103FC00089838A81012F009580238A8383E090E092
:103FD0000E94970B8981802389838AE090E00E9468
:103FE000970BC881789485E390E00E94970B1C237F
:103FF00081E009F480E0DF91CF911F910F91089546
:10400000CF92DF92EF92FF920F931F93CF93DF93A4
:104010000F92CDB7DEB78C01F62E28E0C22ED12C40
:10402000EE24E3948E2D8F2161E009F460E0C80155
:1040300049838EDFEE0C0894C108D1084981C11470
:10404000D10481F74423A9F4F894D8011196ED9195
:10405000FC91129791818C9180958923818311968F
:10406000ED91FC91129792818C91809589238283A6
:1040700078940F90DF91CF911F910F91FF90EF9067
:10408000DF90CF900895EF92FF920F931F93CF93FD
:10409000DF938C01C8E0D0E0FF24EE24E394C80154
:1040A00084DF8111FE28EE0C2197C9F78F2DDF9157
:1040B000CF911F910F91FF90EF900895CF92DF92D3
:1040C000EF92FF920F931F93CF93DF930F92CDB791
:1040D000DEB77C01C62E65E540E0798391DF0C2DCB
:1040E0007981172FCC24DD24F80161918F01C7015C
:1040F00040E086DF0894C11CD11CF8E0CF16D10443
:1041000099F70F90DF91CF911F910F91FF90EF9052
:10411000DF90CF9008956CEC40E072CFFC011386E5
:1041200015861486128611861086178216821582CD
:104130001482138208951F93CF93DF93EC01162FFF
:10414000862F60E00E94F70B612F70E0FB01E358BF
:10415000FD4FE491E883FB01E556FD4FE491F0E06B
:10416000EE0FFF1FE754FD4F8591949189839A8349
:10417000CE01D4DFDF91CF911F910895BF92CF92EE
:10418000DF92EF92FF920F931F93CF93DF93EC0197
:104190006B018D85882309F052C0CE0197DE8823FC
:1041A00021F41B861D861C865BC0CE0160EF40E0BB
:1041B00027DF01E0FF24EE2411E0CE01F6DEB82E69
:1041C000CE01F3DE91E0B91619F48130A9F42FC0C5
:1041D000B816D1F48B85181738F4FE01EF0DF11DD8
:1041E0008381802349F402C0181731F060E0193050
:1041F00008F040C01C873EC0FE01EF0DF11D838119
:10420000802B838361E009C06B2DFE01EF0DF11D52
:10421000902F9095838189238383CE0199DE1F5F40
:10422000000F11F4F39401E087E08F1530F611349C
:1042300030F0EB86EE2001F581E08D871DC01B86F6
:104240001D861C8680E0D60120E030E0FE01E20FF2
:10425000F31F93819D932F5F3F4F28303105B1F7B6
:10426000DF91CF911F910F91FF90EF90DF90CF9052
:10427000BF900895E12EC9CF8B81882301F381E09F
:10428000E2CFDC0180E007C0ED91E827F0E0E65CDA
:10429000FA4F849161506623B9F70895CF93DF9365
:1042A000CDB7DEB7C058D0400FB6F894DEBF0FBE12
:1042B000CDBFFE01EB57FF4F41915191CE010196C9
:1042C00060E870E09F010E94023280E793E0BE0147
:1042D0006F5F7F4F0E94BC08C058DF4F0FB6F89445
:1042E000DEBF0FBECDBFDF91CF910895CF92DF9299
:1042F000EF92FF920F93CF93DF93CDB7DEB729975D
:104300000FB6F894DEBF0FBECDBF7C016B010E94DB
:104310009517AC01662757FD6095762FCE01019663
:1043200022E009E00E94ED2A00D000D021EA36E028
:10433000EDB7FEB73283218394838383AFDF0F9081
:104340000F900F900F900E94D017AC01662757FD79
:104350006095762FCE01019622E00E94ED2A00D0D2
:1043600000D023EB36E0EDB7FEB732832183948390
:10437000838394DF0F900F9081EC96E0EDB7FEB74A
:10438000928381838BDF0F900F90E114F10459F435
:1043900000D08CEC96E0EDB7FEB7928381837EDF90
:1043A0000F900F900FC000D000D082ED96E0EDB7D7
:1043B000FEB792838183F482E38270DF0F900F90C7
:1043C0000F900F900E94D517AC01662757FD60959E
:1043D000762FCE01019622E009E00E94ED2A00D05E
:1043E00000D028ED36E0EDB7FEB732832183948309
:1043F000838354DF0F900F900F900F900E94D91776
:10440000AC01662757FD6095762FCE01019622E01C
:104410000E94ED2A00D000D029EE36E0EDB7FEB7BD
:10442000328321839483838339DF0F900F9089EF48
:1044300096E0EDB7FEB79283818330DF0F900F9047
:10444000C114D10459F400D086E097E0EDB7FEB76F
:104450009283818323DF0F900F900FC000D000D094
:104460008DE097E0EDB7FEB792838183D482C3825B
:1044700015DF0F900F900F900F9029960FB6F894BC
:10448000DEBF0FBECDBFDF91CF910F91FF90EF90B8
:10449000DF90CF90089580E090E060E070E026CF5C
:1044A000CF93DF93CDB7DEB7C058D0400FB6F894A6
:1044B000DEBF0FBECDBFFE01EB57FF4F41915191C3
:1044C000CE01019660E870E09F010E940232CE01A9
:1044D000019660E070E00ADFC058DF4F0FB6F89435
:1044E000DEBF0FBECDBFDF91CF910895CF93DF9395
:1044F000CDB7DEB7C058D0400FB6F894DEBF0FBEC0
:10450000CDBFFE01EB57FF4F41915191CE01019676
:1045100060E870E09F010E94023280E090E0BE01FE
:104520006F5F7F4FE3DEC058DF4F0FB6F894DEBFFA
:104530000FBECDBFDF91CF910895EF92FF920F9301
:104540001F93CF93DF93CDB7DEB7C058D0400FB6DF
:10455000F894DEBF0FBECDBF8E0107571F4FF80185
:10456000E190F1908F0100D084E197E0EDB7FEB7C4
:104570009283818393DE0F900F90CE01019660E8C5
:1045800070E0A70198010E94023280E793E0BE012B
:104590006F5F7F4F0E94BC0800D087E197E0EDB7C6
:1045A000FEB7928381837ADE0F900F90C058DF4F61
:1045B0000FB6F894DEBF0FBECDBFDF91CF911F9134
:1045C0000F91FF90EF90089500D000D000D0EDB78C
:1045D000FEB7319623E437E0ADB7BEB712963C93F1
:1045E0002E931197938382837583648357DE8DB7EF
:1045F0009EB706960FB6F8949EBF0FBE8DBF089566
:104600000F93CF93DF93CDB7DEB72C970FB6F89407
:10461000DEBF0FBECDBF00D085E397E0ADB7BEB71C
:1046200012969C938E93119739DE0F900F904091C4
:10463000F2035091F303662757FD6095762FCE0164
:10464000019623E00CE00E94FE2BBC018EE091E07D
:10465000BBDF4091F4035091F5036091F603709134
:10466000F703CE01019623E00E94FE2BBC0187E1F7
:1046700091E0AADF4091F8035091F903662757FDB6
:104680006095762FCE01019623E00E94FE2BBC019F
:1046900084E291E099DF4091FA035091FB0360912D
:1046A000FC037091FD03CE01019623E0B1D6BC015D
:1046B0008EE291E089DF4091FE035091FF0360910B
:1046C000000470910104CE01019623E0A1D6BC0143
:1046D00080E391E079DF40910204509103046091FE
:1046E000040470910504CE01019623E091D6BC012B
:1046F00082E391E069DF4091060450910704662748
:1047000057FD6095762FCE01019623E081D6BC013E
:1047100084E391E059DF4091080450910904662731
:1047200057FD6095762FCE01019623E071D6BC012E
:1047300087E391E049DF40910A0450910B0466271A
:1047400057FD6095762FCE01019623E046D7BC0138
:104750008AE391E039DF40910C0450910D04662703
:1047600057FD6095762FCE01019623E036D7BC0128
:1047700088E491E029DF40910E0450910F046627F0
:1047800057FD6095762FCE01019623E026D7BC0118
:1047900087E591E019DF40911004509111046627DC
:1047A00057FD6095762FCE01019623E016D7BC0108
:1047B00086E691E009DF40911204509113046627C8
:1047C00057FD6095762FCE01019623E006D700D0E5
:1047D00000D000D0EDB7FEB7319629E337E0ADB792
:1047E000BEB712963C932E9311972EE631E0338399
:1047F00022839583848352DDEDB7FEB736960FB6DC
:10480000F894FEBF0FBEEDBF2C960FB6F894DEBF36
:104810000FBECDBFDF91CF910F91089500D000D092
:1048200000D0EDB7FEB731962CE437E0ADB7BEB798
:1048300012963C932E9311979383828364831582FF
:104840002DDD8DB79EB706960FB6F8949EBF0FBEAE
:104850008DBF08950F93CF93DF93CDB7DEB72C971D
:104860000FB6F894DEBF0FBECDBF00D089E197E050
:10487000ADB7BEB712969C938E9311970FDD0F9034
:104880000F9086E791E060911404C8DF4091150411
:1048900050911604662757FD6095762FCE0101963C
:1048A00022E00CE09AD6BC018BE791E08DDE4091CE
:1048B000170450911804662757FD6095762FCE0196
:1048C000019622E08AD6BC0187E891E07DDE409126
:1048D000190450911A04662757FD6095762FCE0172
:1048E000019623E095D5BC0185E991E06DDE40910C
:1048F0001B0450911C04662757FD6095762FCE014E
:10490000019623E085D500D000D000D0EDB7FEB7EA
:1049100031962DE137E0ADB7BEB712963C932E939A
:10492000119723EA31E03383228395838483B6DCB5
:10493000EDB7FEB736960FB6F894FEBF0FBEEDBFCB
:104940002C960FB6F894DEBF0FBECDBFDF91CF918E
:104950000F91089500D000D000D0EDB7FEB731968A
:1049600027E537E0ADB7BEB712963C932E9311976B
:10497000938382837583648391DC8DB79EB706969B
:104980000FB6F8949EBF0FBE8DBF089500D000D023
:1049900000D0EDB7FEB7319620E637E0ADB7BEB731
:1049A00012963C932E93119793838283648315828E
:1049B00075DC8DB79EB706960FB6F8949EBF0FBEF6
:1049C0008DBF08950F93CF93DF93CDB7DEB72C97AC
:1049D0000FB6F894DEBF0FBECDBF00D087E297E0E0
:1049E000ADB7BEB712969C938E93119757DC0F907C
:1049F0000F9081EB91E060911D0410DF40911E0447
:104A000050911F04662757FD6095762FCE010196C1
:104A100021E00CE0E2D5BC018CEB91E0D5DD4091CA
:104A2000200450912104662757FD6095762FCE0112
:104A3000019621E0D2D5BC018BEC91E0C5DD40911F
:104A4000220450912304662757FD6095762FCE01EE
:104A5000019623E0DDD4BC018AED91E0B5DD409103
:104A6000240450912504662757FD6095762FCE01CA
:104A7000019623E0CDD4BC0181EE91E0A5DD40910B
:104A8000260450912704662757FD6095762FCE01A6
:104A9000019623E0BDD4BC0188EE91E095DD409104
:104AA000280450912904662757FD6095762FCE0182
:104AB000019623E0ADD4BC018BEE91E085DD409101
:104AC0002A0450912B04662757FD6095762FCE015E
:104AD000019623E09DD4BC0182EF91E075DD409109
:104AE000300450913104662757FD6095762FCE0132
:104AF000019623E083D6BC0189EF91E065DD40910A
:104B00002C0450912D04662757FD6095762FCE0119
:104B1000019623E073D6BC0183E092E055DD40911D
:104B20002E0450912F04662757FD6095762FCE01F5
:104B3000019623E063D6BC018DE092E045DD409113
:104B4000320450913304662757FD6095762FCE01CD
:104B5000019623E053D6BC0187E192E035DD409118
:104B6000340450913504662757FD6095762FCE01A9
:104B7000019623E043D6BC0185E292E025DD409119
:104B8000360450913704662757FD6095762FCE0185
:104B9000019623E033D6BC0182E392E015DD40911B
:104BA000380450913904662757FD6095762FCE0161
:104BB000019623E023D6BC0185E492E005DD409117
:104BC0003A0450913B04662757FD6095762FCE013D
:104BD000019623E013D6BC0188E592E0F5DC409114
:104BE0003C0450913D04662757FD6095762FCE0119
:104BF000019623E003D6BC018BE692E0E5DC6091F0
:104C00003E0470913F048EE792E0A4DE6091400480
:104C10007091410485E992E09DDE8CEA92E060911A
:104C20004204B4DE8DEB92E060914304AFDE8EEC83
:104C300092E060914404AADE80EE92E06091450427
:104C4000A5DE8FEE92E060914604A0DE00D000D099
:104C500000D0EDB7FEB731968BE297E0ADB7BEB7A7
:104C600012969C938E9311978EEF92E0938382839A
:104C7000809147048483158211DBEDB7FEB7369629
:104C80000FB6F894FEBF0FBEEDBF2C960FB6F8948A
:104C9000DEBF0FBECDBFDF91CF910F9108950F936F
:104CA0001F93CF93DF93EC018B0100D000D000D095
:104CB000EDB7FEB7319689E697E0ADB7BEB712966D
:104CC0009C938E931197D383C2837583648335DC61
:104CD000EDB7FEB736960FB6F894FEBF0FBEEDBF28
:104CE000CE0166E771E00E94C3310097D9F4D80184
:104CF0008C910E94851700D000D0EDB7FEB7319699
:104D000087E897E0ADB7BEB712969C938E93119744
:104D1000D8018C9182831382E9DB0F900F900F9062
:104D20000F9028C2CE016BE771E00E94C33100975B
:104D3000D1F5C80125D5EC01809114048037F9F430
:104D40008091150490911604FE01E81BF90BCF0128
:104D5000F7FF03C0909581959F4F85369105F4F03C
:104D600000D000D087EA97E0ADB7BEB712969C930B
:104D70008E93119714961C930E9313970AC000D02C
:104D800000D083ED97E0EDB7FEB792838183148363
:104D9000038386DB0F900F900F900F90D093160433
:104DA000C0931504E7C1CE0167E871E00E94C331EA
:104DB0000097F9F4C801E4D4EC018091140486361C
:104DC00099F400D000D089EF97E0ADB7BEB7129646
:104DD0009C938E93119714961C930E93139786DBD6
:104DE0000F900F900F900F90D0931804C09317045A
:104DF000C1C1CE0165E971E00E94C331009749F459
:104E0000C80136D4DC01CB0190931A0480931904B5
:104E1000B1C1CE0163EA71E00E94C331009749F449
:104E2000C80126D4DC01CB0190931C0480931B04A1
:104E3000A1C1CE0161EB71E00E94C331009749F43A
:104E4000F801808180931D048BE496E00E94D41ABF
:104E500091C1CE016CEB71E00E94C331009739F42F
:104E6000C8018ED490931F0480931E0483C1CE0189
:104E70006BEC71E00E94C331009739F4C80180D413
:104E8000909321048093200475C1CE016AED71E0F6
:104E90000E94C331009749F4C801EAD3DC01CB0179
:104EA000909323048093220465C1CE0161EE71E0EA
:104EB0000E94C331009749F4C801DAD3DC01CB0169
:104EC000909325048093240455C1CE0168EE71E0CF
:104ED0000E94C331009749F4C801CAD3DC01CB0159
:104EE000909327048093260445C1CE016BEE71E0B8
:104EF0000E94C331009749F4C801BAD3DC01CB0149
:104F0000909329048093280435C1CE0162EF71E0AB
:104F10000E94C331009749F4C801AAD3DC01CB0138
:104F200090932B0480932A0425C1CE0169EF71E090
:104F30000E94C331009739F4C80194D4909331048E
:104F40008093300417C1CE0163E072E00E94C33148
:104F5000009739F4C80186D490932D0480932C04D3
:104F600009C1CE016DE072E00E94C331009739F4AF
:104F7000C80178D490932F0480932E04FBC0CE01F7
:104F800067E172E00E94C331009739F4C8016AD426
:104F90009093330480933204EDC0CE0165E272E059
:104FA0000E94C331009739F4C8015CD49093350452
:104FB00080933404DFC0CE0162E372E00E94C3310B
:104FC000009739F4C8014ED4909337048093360487
:104FD000D1C0CE0165E472E00E94C331009739F47C
:104FE000C80140D49093390480933804C3C0CE01E3
:104FF00068E572E00E94C331009739F4C80132D4E9
:1050000090933B0480933A04B5C0CE016BE672E006
:105010000E94C331009739F4C80124D490933D0411
:1050200080933C04A7C0CE016EE772E00E94C331BA
:10503000009771F4C80160E070E04AE050E00E941F
:105040007830DC01CB0190933F0480933E0492C002
:10505000CE0165E972E00E94C331009771F4C80186
:1050600060E070E04AE050E00E947830DC01CB0163
:1050700090934104809340047DC0CE016CEA72E0BD
:105080000E94C331009761F4C80160E070E04AE01B
:1050900050E00E9478306093420483E594E05BC066
:1050A000CE016DEB72E00E94C331009761F4C8013C
:1050B00060E070E04AE050E00E9478306093430482
:1050C00081EA94E048C0CE016EEC72E00E94C331E8
:1050D000009761F4C80160E070E04AE050E00E948F
:1050E0007830609344048FEE94E035C0CE0160EEDA
:1050F00072E00E94C331009759F4C80160E070E08B
:105100004AE050E0F5D76093450484E595E023C07C
:10511000CE016FEE72E00E94C331009759F4C801CE
:1051200060E070E04AE050E0E3D76093460482EA32
:1051300095E011C0CE016EEF72E00E94C33100977E
:1051400069F4C80160E070E04AE050E0D1D76093B4
:10515000470480EF95E00E94850D0CC000D081E2ED
:1051600098E0ADB7BEB712969C938E931197E5D990
:105170000F900F90DF91CF911F910F9108950F9392
:105180001F93CF93DF93CDB7DEB7EC970FB6F894AC
:10519000DEBF0FBECDBF61E070E080E090E00E9416
:1051A000BD0910E069C061E070E080E090E00E941D
:1051B000BD0980E793E00E94BF04182F8A33C9F02D
:1051C000803261F08B3751F0823241F0EFE1F0E054
:1051D000EC0FFD1FE00FF11D80830F5F0D3110F00C
:1051E00053C000E080E793E00E949B041816190664
:1051F000D4F2EFE1F0E0EC0FFD1FE00FF11D1082A3
:1052000000E01DC061E070E080E090E00E94BD0918
:1052100080E793E00E94BF04182F8C32B9F08D37DD
:10522000A9F0803251F0823241F0E1E0F0E0EC0F81
:10523000FD1FE00FF11D80830F5F0D3128F580E722
:1052400093E00E949B0418161906E4F2E1E0F0E0F6
:10525000EC0FFD1FE00FF11D1082CE014F96BE0135
:105260006F5F7F4F1CDD1D3739F40E94BC140E9414
:10527000CA16F0DAA7DB08C080E793E00E949B041F
:10528000181619060CF4ADCFEC960FB6F894DEBFE5
:105290000FBECDBFDF91CF911F910F910895EF9277
:1052A000FF920F931F93CF93DF93CDB7DEB766972F
:1052B0000FB6F894DEBF0FBECDBF80E793E00E942B
:1052C0009B04181619060CF096C080E793E00E9424
:1052D000BF048A3609F479C08B3640F4833539F13E
:1052E000833699F1833409F072C010C0833759F1C5
:1052F000843720F48C3609F06AC02BC0843721F043
:10530000863709F064C023C0C6D875C00E94DA167B
:105310008BE496E00E94D41A55DB00D08AE396E035
:10532000ADB7BEB712969C938E9311970AC00E9498
:10533000B01690DA00D084E596E0EDB7FEB7928320
:105340008183FBD83FC086DA56C03CDB54C058D9B5
:1053500052C000D08DE696E0ADB7BEB712969C93D2
:105360008E9311970E944E210F900F9020E08E0196
:105370000F5F1F4F30E7E32E36E0F32E8BE496E00D
:10538000622FA8012E8B0E94761000D000D0EDB7BE
:10539000FEB7F282E182148303830E944E212E899C
:1053A0002F5F0F900F900F900F90243039F700D09F
:1053B00087E796E0ADB7BEB712969C938E93119790
:1053C0000E944E210F900F9016C0D9DE14C000D05D
:1053D00000D0EDB7FEB7319629E736E0ADB7BEB7DE
:1053E00012963C932E93119782831382A6D80F9026
:1053F0000F900F900F9066960FB6F894DEBF0FBE19
:10540000CDBFDF91CF911F910F91FF90EF90089545
:10541000AF92BF92CF92DF92EF92FF920F93CF9312
:10542000DF935C0177FF0BC08DE2D5018C93709503
:105430006095509541955F4F6F4F7F4F03C080E25D
:10544000F50180836A017B01F9E0F594E794D79434
:10545000C794FA95D1F7E6015170607070702130F1
:10546000B1F5CB01BA012AE030E040E050E088D449
:10547000DC01CB0180509F4FAF4FBF4FE9E0B595A6
:10548000A79597958795EA95D1F7BC018A30910544
:1054900019F4219660E070E08DB79EB70A970FB6B9
:1054A000F8949EBF0FBE8DBFEDB7FEB73196C50114
:1054B0000196ADB7BEB712969C938E931197802F2D
:1054C00090E001979383828380E498E037C0223094
:1054D000E1F5CB01BA0124E630E040E050E050D4E1
:1054E000DC01CB0180509F4FAF4FBF4FF9E0B59526
:1054F000A79597958795FA95D1F7BC0184369105C4
:1055000019F4219660E070E08DB79EB70A970FB648
:10551000F8949EBF0FBE8DBFEDB7FEB73196C501A3
:105520000196ADB7BEB712969C938E931197802FBC
:1055300090E001979383828388E498E09583848345
:10554000D783C6837187608734C08DB79EB70A97AB
:105550000FB6F8949EBF0FBE8DBFCDB7DEB72196B4
:10556000C5010196ADB7BEB712969C938E93119765
:10557000802F90E001979B838A8380E598E09D834C
:105580008C83DF82CE82CB01BA0128EE33E040E08B
:1055900050E0F6D3DC01CB0180509F4FAF4FBF4F9F
:1055A000E9E0B595A79597958795EA95D1F79987FD
:1055B0008887FBD6EDB7FEB73A960FB6F894FEBFD4
:1055C0000FBEEDBFC501DF91CF910F91FF90EF901E
:1055D000DF90CF90BF90AF900895CF92DF92EF927F
:1055E000FF920F931F93CF93DF93EC016A017B012E
:1055F000122F403080E858078FEF68078FEF780749
:1056000029F4CE016BE378E094D628C080911D0484
:105610008634F1F4DB01CA0123E0880F991FAA1F29
:10562000BB1F2A95D1F7840F951FA61FB71FBC017A
:10563000CD0125E030E040E050E0F6D369017A0189
:1056400080E090E4A0E0B0E0C80ED91EEA1EFB1E88
:10565000CE01B701A601212FDBDEEC01CE01DF91E7
:10566000CF911F910F91FF90EF90DF90CF90089511
:105670002F923F924F925F926F927F928F929F9262
:10568000AF92BF92CF92DF92EF92FF920F931F9350
:10569000CF93DF9300D0CDB7DEB78C01FC018081C2
:1056A0008D3229F40F5F1F4F77247A9402C077243C
:1056B0007394C8016EE270E05ED66C01C80160E0D0
:1056C00070E04AE050E014D51B012C01C114D10454
:1056D00069F186010F5F1F4FC801BE016F5F7F4FE9
:1056E0004AE050E005D56B017C016980601AF9E061
:1056F000CC0CDD1CEE1CFF1CFA95D1F700E010E08D
:10570000AAE08A2E912CA12CB12C0DC0C701B601A4
:105710006B5F7F4F8F4F9F4FA501940185D3690128
:105720007A010F5F1F4F601689F703C0CC24DD2478
:105730007601672D70E080E090E0A2019101E9E040
:10574000220F331F441F551FEA95D1F72C0D3D1D25
:105750004E1D5F1D15D30F900F90DF91CF911F91BC
:105760000F91FF90EF90DF90CF90BF90AF909F9000
:105770008F907F906F905F904F903F902F90089503
:105780000F931F9375DF8B019C0180911D0486345C
:10579000D1F4D901C80142E0880F991FAA1FBB1F8D
:1057A0004A95D1F7800F911FA21FB31F80509044DC
:1057B000A140B040BC01CD0129E030E040E050E024
:1057C00033D389019A01003080E818078FEF28074A
:1057D0008FEF38076CF0003080E8180780E028076A
:1057E00080E038073CF00FEF1FE720E030E002C018
:1057F00000E010E8C8011F910F910895AF92BF9289
:10580000CF92DF92EF92FF920F93CF935C016A01E8
:105810007B01C22F80911D048634B1F4DB01CA01E3
:1058200053E0880F991FAA1FBB1F5A95D1F78C0D03
:105830009D1DAE1DBF1DBC01CD0125E030E040E047
:1058400050E0F2D269017A01C501B701A6012C2FFF
:10585000DFDDCF910F91FF90EF90DF90CF90BF9061
:10586000AF9008950F931F9303DF8B019C018091EC
:105870001D048634B1F4D901C80162E0880F991F74
:10588000AA1FBB1F6A95D1F7800F911FA21FB31FDC
:10589000BC01CD0129E030E040E050E0C5D28901F3
:1058A0009A01003080E818078FEF28078FEF38073C
:1058B0006CF0003080E8180780E0280780E03807A7
:1058C0003CF00FEF1FE720E030E002C000E010E8FE
:1058D000C8011F910F9108950F931F938B019C0195
:1058E00080911D048634D1F4D901C80173E0880F7A
:1058F000991FAA1FBB1F7A95D1F7800F911FA21F76
:10590000B31FBC01CD0125E030E040E050E08CD277
:1059100089019A010050104C2F4F3F4FC901B80127
:105920002AE030E040E050E02BD260507F4F8F4FB4
:105930009F4F20E032E040E050E076D2C9011F9155
:105940000F9108950F931F9320911D04AC01BA018C
:10595000882777FD8095982F2634B9F420E03AE027
:1059600040E050E00DD2605070488C40904029E0FB
:1059700030E040E050E058D289019A010B5F1F4FA0
:105980002F4F3F4FC901B8010BC0E9E0660F771FE9
:10599000881F991FEA95D1F76B5F7F4F8F4F9F4FFD
:1059A0002AE030E040E050E03FD2C9011F910F9162
:1059B0000895CF92DF92EF92FF920F931F93CF93B0
:1059C000DF937C01FC01EB50FF4F808191810E94AD
:1059D000661F29EFC22ED12CCE0CDF1CE701C95067
:1059E000DF4F88819981B60140E00E9431188823F9
:1059F00019F50E94810928EE33E040E050E0F2D131
:105A00002430310508F099C000D000D0EDB7FEB7C2
:105A1000319688E598E0ADB7BEB712969C938E9309
:105A20001197D7018C91828313820E949D220F903F
:105A30000F900F900F9081C088819981B6014CE042
:105A40000E94091988819981FC0113820E944D19D5
:105A50000E948109DC01CB01F70182839383A48337
:105A6000B5836EEE72E080E090E00E94BD0988810F
:105A70009981B6010E9485198C010E948109DC017F
:105A8000CB01F7014281538164817581841B950BA1
:105A9000A60BB70B813DF7E09F07F0E0AF07F0E002
:105AA000BF0728F0D70111961C92119746C0BFEF8F
:105AB00001381B07E1F2888199810E944D196EEE31
:105AC00072E080E090E00E94BD0988819981B60172
:105AD0000E948519EC0181E0F7018183FCEFC03061
