:10000000C5C30000EAC30000E8C300000C94C9099E
:10001000E4C300000C941209E0C30000DEC300003A
:10002000DCC30000DAC30000D8C30000D6C3000060
:10003000D4C30000D2C30000D0C30000CEC3000070
:1000400057C60000CAC30000DCC400001BC5000086
:10005000C4C30000C2C30000C0C30000BEC3000090
:10006000BCC30000BAC3000000000007000201008A
:100070000003040600000000000000000102040864
:100080001020408001020408102001020408102002
:10009000040404040404040402020202020203032E
:1000A00003030303000000002300260029000000D2
:1000B0000000250028002B0000000000240027007D
:1000C0002A0041726475696E6F2072657374617283
:1000D000746564210046726964676520646F6F729D
:1000E000206F70656E6564004672696467652064A0
:1000F0006F6F7220636C6F73656400506F73697407
:10010000697665207065616B2064657465637465EC
:10011000642E004472696674696E67207570206190
:10012000667465722068656174696E6720746F6FAC
:100130002073686F72742E005065616B3A202573CE
:1001400020457374696D617465643A2025732E20AF
:100150004E657720657374696D61746F723A2025FE
:1001600073004E65676174697665207065616B2008
:1001700064657465637465642E00447269667469AD
:100180006E6720646F776E20616674657220636F9E
:100190006F6C696E6720746F6F2073686F72742E56
:1001A000005065616B3A2025732E20457374696D8C
:1001B000617465643A2025732E204E65772065733F
:1001C00074696D61746F723A20257300202D2D2E95
:1001D0002D00202D2D2E2D00202D2D2E2D00202DFB
:1001E0002D2E2D004D6F6465202020004265657224
:1001F00020202000467269646765200046726964A9
:10020000676520436F6E73742E00426565722043EC
:100210006F6E7374616E7400426565722050726F08
:1002200066696C6520004F66662020202020202013
:1002300020202000496E76616C6964206D6F6465D2
:10024000200049646C6520666F72202020202020E9
:10025000202020202020005374617274696E672072
:1002600075702E2E2E20202020202000436F6F6CD2
:10027000696E6720666F72202020202020202020B9
:100280000048656174696E6720666F7220202020C7
:10029000202020202000446F6F72206F70656E2038
:1002A000202020202020202020200054656D702E4A
:1002B00020636F6E74726F6C204F464620202000C2
:1002C000556E6B6E6F776E20737461747573212039
:1002D00020202020002073002073002020202020D8
:1002E00020004368616E67656420746F2070726FD0
:1002F00066696C65206D6F646520696E206D656E42
:10030000752E0054656D7020636F6E74726F6C2073
:100310007475726E6564206F666620696E206D6507
:100320006E752E002020202020202020202020203C
:100330002000426565722074656D70657261747528
:1003400072652073657474696E67206368616E6797
:10035000656420746F20257320696E204D656E756D
:100360002E002020202020004672696467652074DA
:10037000656D7065726174757265207365747469FA
:100380006E67206368616E67656420746F202573F3
:1003900020696E204D656E752E00202020202000E3
:1003A000005EBCE2613FDD83C29C7E20A3FD1F4155
:1003B0009DC3217FFCA2401E5F01E3BD3E6082DC45
:1003C000237D9FC1421CFEA0E1BF5D0380DE3C6235
:1003D000BEE0025CDF81633D7C22C09E1D43A1FF25
:1003E0004618FAA427799BC584DA3866E5BB590715
:1003F000DB856739BAE406581947A5FB7826C49A05
:10040000653BD987045AB8E6A7F91B45C6987A24F4
:10041000F8A6441A99C7257B3A6486D85B05E7B9E4
:100420008CD2306EEDB3510F4E10F2AC2F7193CDD4
:10043000114FADF3702ECC92D38D6F31B2EC0E50C4
:10044000AFF1134DCE90722C6D33D18F0C52B0EEB4
:10045000326C8ED0530DEFB1F0AE4C1291CF2D73A4
:10046000CA947628ABF517490856B4EA6937D58B94
:100470005709EBB536688AD495CB2977F4AA481684
:10048000E9B7550B88D6346A2B7597C94A14F6A874
:10049000742AC896154BA9F7B6E80A54D7896B3564
:1004A00044656661756C7420636F6E7374616E74FD
:1004B00073206C6F616465642E0044656661756CC1
:1004C000742073657474696E6773206C6F61646502
:1004D000642E004C3A0025733C42523E000A00490B
:1004E0006E76616C696420636F6D6D616E6420521D
:1004F0006563656976656420627920417264756917
:100500006E6F3A20256300543A7B2242656572542F
:10051000656D70223A25732C002242656572536521
:1005200074223A25732C002242656572416E6E2258
:100530003A6E756C6C2C002242656572416E6E22BB
:100540003A222573222C002246726964676554653D
:100550006D70223A25732C002246726964676553D8
:100560006574223A25732C002246726964676541DE
:100570006E6E223A6E756C6C7D0A0022467269645A
:100580006765416E6E223A222573227D0A00443A45
:10059000000A00533A7B00222573223A25737D0A14
:1005A00000433A7B00222573223A25757D0A0056C6
:1005B0003A7B00222573223A25737D0A0022257397
:1005C000223A25732C00222573223A222563222CFD
:1005D00000222573223A25752C00526563656976E1
:1005E0006564206E65772073657474696E673A2060
:1005F0002573203D202573004D6F6465207365745D
:1006000020746F20256320696E2077656220696EF3
:100610007465726661636500426565722074656D1C
:1006200070657261747572652073657474696E6744
:10063000206368616E67656420746F202573206293
:10064000792074656D706572617475726520707261
:100650006F66696C652E00426565722074656D7009
:10066000657261747572652073657474696E672054
:100670006368616E67656420746F20257320696EFE
:100680002077656220696E746572666163652E000D
:100690004672696467652074656D70657261747512
:1006A00072652073657474696E67206368616E6734
:1006B000656420746F20257320696E207765622041
:1006C000696E746572666163652E00436F756C6454
:1006D000206E6F742070726F63657373207365741E
:1006E00074696E67006E756C6C0025642E25303160
:1006F000640025642E253032640025642E253033B5
:100700006400556E61626C6520746F2066696E646A
:10071000206164647265737320666F722073656E06
:10072000736F72206F6E2070696E202564005465AF
:100730006D70657261747572652073656E736F722A
:10074000206F6E2070696E20256420646973636F6A
:100750006E6E65637465640054656D706572617476
:100760007572652073656E736F72206F6E2070698D
:100770006E202564207265636F6E6E6563746564B8
:100780000000FC0763144E186714511811241FBE93
:10079000CFEFD8E0DEBFCDBF13E0A0E0B1E0ECECDE
:1007A000F3E602C005900D92A833B107D9F715E022
:1007B000A8E3B3E001C01D92A93AB107E1F717E041
:1007C000C8E8D7E004C02297FE010E94052CC23879
:1007D000D107C9F7D4D40C94DA31DAC4FC012485EA
:1007E0003585F901E05CFF4F808191812E5B3F4FA1
:1007F000F90120813181821B930B8F7390700895D2
:10080000FC0144855585FA01E05CFF4F80819181B0
:10081000FA01EE5BFF4F208131818217930741F08F
:100820000190F081E02DE40FF51F808190E00895A4
:100830008FEF9FEF0895FC0144855585FA01E05C38
:10084000FF4F20813181FA01EE5BFF4F8081918162
:100850002817390779F0A081B181A40FB51F8C91B9
:10086000208131812F5F3F4F2F7330703183208380
:1008700090E008958FEF9FEF0895FC0181A18823F8
:1008800029F0A489B5898C9186FFFBCF11A2089528
:10089000CF93DF93DC011E964D915C911F97EA0187
:1008A000C05CDF4F288139812F5F3F4F2F7330703D
:1008B000FA01EE5BFF4F8081918128173907D9F348
:1008C000E881F981E40FF51F60831E96ED91FC919C
:1008D0001F97E05CFF4F318320835696ED91FC918A
:1008E0005797208181E090E05F960C905F9702C05F
:1008F000880F991F0A94E2F7282B208381E09196B4
:100900008C9391975496ED91FC91559780818064DA
:10091000808381E090E0DF91CF910895CF92DF92C4
:10092000EF92FF920F931F93CF93DF936C017B01A4
:10093000EA0100E010E00EC0D7016D917D01D60103
:10094000ED91FC910190F081E02DC6010995080F11
:10095000191F2197209781F7C801DF91CF911F912F
:100960000F91FF90EF90DF90CF900895833071F05A
:10097000843028F48130A1F0823021F514C0863013
:10098000B1F08730D1F08430E9F404C08091800068
:100990008F7703C0809180008F7D809380000895C1
:1009A00084B58F7702C084B58F7D84BD0895809112
:1009B000B0008F778093B00008958091B0008F7D54
:1009C0008093B00008950F931F93CF93DF938C0112
:1009D000EB01209771F0CB010E948C2EAC01D80165
:1009E000ED91FC910280F381E02DC801BE010995D3
:1009F00002C080E090E0DF91CF911F910F910895A8
:100A000008951F920F920FB60F9211242F933F93C8
:100A10004F938F939F93EF93FF938091C00082FD3C
:100A20001CC04091C6008091E6039091E7030196B7
:100A30008F7390702091E8033091E9038217930738
:100A400071F0E091E603F091E703EA55FC4F408333
:100A50009093E7038093E60302C08091C600FF9164
:100A6000EF919F918F914F913F912F910F900FBEDA
:100A70000F901F90189580E493E0B0DE009709F086
:100A8000BFCF08951F920F920FB60F9211242F938C
:100A90003F938F939F93EF93FF932091A203309105
:100AA000A3038091A4039091A5032817390731F47B
:100AB0008091C1008F7D8093C10014C0E091A40398
:100AC000F091A503EE59FC4F20818091A4039091F1
:100AD000A50301968F7390709093A5038093A40350
:100AE0002093C600FF91EF919F918F913F912F919D
:100AF0000F900FBE0F901F901895BF92CF92DF926C
:100B0000EF92FF920F931F93CF93DF93EC016A0153
:100B10007B01BB24B394403081EE580780E0680726
:100B200080E0780749F4BB24EC89FD89108260E8F5
:100B300074E88EE190E00FC0EC89FD8981E090E0DF
:100B400008A002C0880F991F0A94E2F7808360E032
:100B500079E08DE390E0A70196010E94B22B890114
:100B60009A01015010402040304036952795179546
:100B7000079580E10030180710F0BB20A1F6E88946
:100B8000F9891083EA89FB89008319A2EE89FF891C
:100B9000408121E030E0C9010C8C02C0880F991F10
:100BA0000A94E2F7482B4083EE89FF894081C9010E
:100BB0000D8C02C0880F991F0A94E2F7482B4083DE
:100BC000EE89FF894081C9010E8C02C0880F991FF0
:100BD0000A94E2F7482B4083EE89FF8980810F8CCD
:100BE00002C0220F331F0A94E2F7209528232083A6
:100BF000DF91CF911F910F91FF90EF90DF90CF90F9
:100C0000BF900895E0CE08954F925F926F927F92C9
:100C1000AF92BF92CF92DF92EF92FF920F931F930A
:100C2000CF93DF93CDB7DEB7A1970FB6F894DEBFB1
:100C30000FBECDBF5C01E42ECB01F22E19A221E044
:100C40002F1510F03AE0F32E21E2C22ED12CCC0E5B
:100C5000DD1E4F2C55246624772403C0E02E512F2F
:100C6000C9016E2D752FA30192010E94B22B89013B
:100C70009A01F09E802D1124E81A8E2D0894C10847
:100C8000D1088A3010F4805D01C0895CF601808350
:100C9000011511052105310509F7C501B60193DEDE
:100CA000A1960FB6F894DEBF0FBECDBFDF91CF91F6
:100CB0001F910F91FF90EF90DF90CF90BF90AF907A
:100CC0007F906F905F904F9008952115310549F402
:100CD000DC01ED91FC910190F081E02D642F0995EC
:100CE000089592CF0C94092C08950C949F2C08958C
:100CF0001F920F920FB60F9211242F933F938F9351
:100D00009F93AF93BF938091380390913903A09143
:100D10003A03B0913B033091EA03232F2D5F2D3727
:100D200020F40196A11DB11D05C0232F2A5702965C
:100D3000A11DB11D2093EA038093380390933903DA
:100D4000A0933A03B0933B0380913C0390913D0301
:100D5000A0913E03B0913F030196A11DB11D809368
:100D60003C0390933D03A0933E03B0933F03BF9198
:100D7000AF919F918F913F912F910F900FBE0F9048
:100D80001F9018950F931F938FB7F8940091380315
:100D90001091390320913A0330913B038FBFB80182
:100DA000C9011F910F9108950F931F939FB7F89456
:100DB00000913C0310913D0320913E0330913F038D
:100DC00086B5A89B06C08F3F21F00F5F1F4F2F4FA6
:100DD0003F4F9FBF322F212F102F0027080F111DCB
:100DE000211D311D52E0000F111F221F331F5A9584
:100DF000D1F7B801C9011F910F910895CF92DF92E9
:100E0000EF92FF92CF93DF936B017C01CDDFDC018A
:100E1000CB01EC010EC0C8DF6C1B7D0B83E0683E8C
:100E2000780738F00894C108D108E108F108C851E2
:100E3000DC4FC114D104E104F10469F7DF91CF91D3
:100E4000FF90EF90DF90CF900895019739F0880FD1
:100E5000991F880F991F02970197F1F708957894C9
:100E600084B5826084BD84B5816084BD85B58260AF
:100E700085BD85B5816085BDEEE6F0E0808181604D
:100E80008083E1E8F0E0108280818260808380814D
:100E900081608083E0E8F0E0808181608083E1EB25
:100EA000F0E0808184608083E0EBF0E0808181600D
:100EB0008083EAE7F0E080818460808380818260C3
:100EC00080838081816080838081806880831092AC
:100ED000C100089590E0FC01E458FF4F2491805731
:100EE0009F4FFC018491882341F190E0880F991F66
:100EF000FC01E854FF4F45915491DA0182559F4F10
:100F0000FC0185919491FC019FB7F8948C91662324
:100F100031F4209582238C938081822308C0623033
:100F200049F4322F309583238C938081822B8083E8
:100F30009FBF0895822B8C939FBF08950F931F939B
:100F4000CF93DF930F92CDB7DEB7282F30E0F901B2
:100F5000E859FF4F8491F901E458FF4F1491F901CA
:100F6000E057FF4F04910023C9F0882319F06983EB
:100F7000FDDC6981E02FF0E0EE0FFF1FE255FF4F2F
:100F800085919491DC019FB7F8948C91662319F4B4
:100F90001095812301C0812B8C939FBF0F90DF910F
:100FA000CF911F910F910895CF93DF93282F30E0B9
:100FB000F901E859FF4F8491F901E458FF4FC491BA
:100FC000F901E057FF4FD491DD2389F0882309F020
:100FD000CDDCED2FF0E0EE0FFF1FEC55FF4F8591BC
:100FE0009491FC0120812C2381E090E011F480E0B9
:100FF00090E0DF91CF910895109243031092420345
:1010000088EE93E0A0E0B0E0809344039093450322
:10101000A0934603B0934703E2E4F3E088E193E052
:101020009293829386EA93E09587848782E693E0A1
:101030009787868785EC90E0918B808B84EC90E09D
:10104000938B828B80EC90E0958B848B81EC90E08D
:10105000978B868B82EC90E0918F808F86EC90E06E
:10106000938F828F84E0848F83E0858F87E0868FE3
:1010700085E0878F81E080A30895CF93DF9380E49C
:1010800093E040E051EE60E070E037DD86E061E043
:1010900055DF85E061E052DF86E061E01BDF85E03F
:1010A00061E018DF84E060E015DF0E94C1130E9458
:1010B000161427D43AD660ED77E080E090E09EDE0B
:1010C000C1E4D5E0CE010E945916CE010E944A1714
:1010D000CE010E94B31798D100D082EC90E0EDB71A
:1010E000FEB7928381830E941D1F0F900F90CFEE59
:1010F000D3E0CE0153D0CE0162E044EF51E05ED0A8
:10110000DF91CF9108953EDEDC01CB014091EB03EE
:101110005091EC036091ED037091EE03841B950BED
:10112000A60BB70B893E23E0920720E0A20720E040
:10113000B207E8F027DEDC01CB018093EB0390934C
:10114000EC03A093ED03B093EE03B8D30E940E110D
:10115000D8D3EBD58BD581E495E00E94B31781E419
:1011600095E00E942D1781E495E00E948217E1D15D
:10117000882319F0E1D10E94A91B0C9403266FDE8D
:101180007CDFCBE3D5E0BFDF2097E9F374DCFBCF56
:101190001F920F920FB60F921124FFCF83E061E0F0
:1011A00099DE81E28093B0008BE08093B1008DE7FF
:1011B0008093B3008EE38093B4000895BF92CF92E2
:1011C000DF92EF92FF920F931F93CF93DF93B62E90
:1011D00000E010E06A01EE24FF24C62FD0E0219742
:1011E00015C08091B00080628093B000C701B60145
:1011F00005DE8091B0008F7D8093B0000C171D0735
:101200001CF4C701B601FADD0F5F1F4F0B1548F341
:10121000DF91CF911F910F91FF90EF90DF90CF90D2
:10122000BF9008951F920F920FB60F9211248F93C3
:101230004F9903C081E08093FC038F910F900FBE04
:101240000F901F9018950F931F93CF93C82FACDD6D
:10125000AB01BC010091F4031091F5032091F6035A
:101260003091F703401B510B620B730B40328EE43D
:10127000580780E0680780E0780708F450C0809144
:10128000FB038093F903C093FB039091F9038091D2
:10129000FB03981709F443C087DDDC01CB01809381
:1012A000F4039093F503A093F603B093F7039091A2
:1012B000FB038091FA03981731F48091FD0390911C
:1012C000FE03019605C08091FD039091FE030197F6
:1012D0009093FE038093FD036091030470910404D6
:1012E0008091FD039091FE039B012F5F3F4F409142
:1012F0000104509102042817390724F45093FE0387
:101300004093FD038091FD039091FE0341505040B6
:101310008417950724F47093FE036093FD03CF9127
:101320001F910F9108950F931F93CF93C82F3CDD0A
:10133000AB01BC010091F0031091F1032091F20385
:101340003091F303401B510B620B730B40328EE460
:10135000580780E0680780E07807B8F08091FA03CA
:101360008093F803C093FA039091F8038091FA03F5
:10137000981759F019DDDC01CB018093F0039093AD
:10138000F103A093F203B093F303CF911F910F9158
:1013900008951F920F920FB60F9211242F933F932F
:1013A0004F935F936F937F938F939F93AF93BF936D
:1013B000CF93DF93EF93FF93C3B1C170D1E0199B3B
:1013C000D0E080910504C81711F08C2F3CDF80918C
:1013D0000604D81711F08D2FA6DFC0930504D09313
:1013E0000604FF91EF91DF91CF91BF91AF919F9153
:1013F0008F917F916F915F914F913F912F910F90BE
:101400000FBE0F901F9018958FEF9FE790930404E5
:101410008093030480E090E8909302048093010499
:10142000109200041092FF031092FE031092FD032D
:101430001092FC0381E08093FB038093FA03809376
:10144000F9038093F8031092F4031092F5031092BD
:10145000F6031092F7031092F0031092F10310922A
:10146000F2031092F30388E060E034DD89E060E08D
:1014700031DD87E060E02EDD81E0E5DE81E053DFF5
:10148000E8E6F0E0808185608083EBE6F0E0808133
:1014900083608083EDE6F0E080818068808308953A
:1014A0002FB7F894880F991F9093FE038093FD0344
:1014B000660F771F7093020460930104440F551F59
:1014C0005093040440930304909300048093FF031B
:1014D0002FBF08952FB7F8948091FD039091FE03DC
:1014E0008091FD039091FE03817029F08091FF03AC
:1014F000909100040AC08091FD039091FE039595A0
:101500008795909300048093FF032FBF0895E2DF37
:1015100020910704309108048217930739F0DADF2D
:10152000909308048093070481E008958091FC0360
:1015300008958091FC0308951092FC0308958BE0B8
:1015400061E0C8DC8DE061E0C5DC8CB58F7D8CBDD1
:101550008CB582608CBD8DB581608DBD8CB5886089
:101560008CBD8CB584608CBD8CB580618CBD8CB518
:1015700080648CBD0895CF93DF93EC01862F6C833C
:1015800061E0A8DC88E28E83CE01D9DF24E030E27E
:101590000DC0FE01E80FF91F3587019684319105D2
:1015A000C1F719A221506596222319F080E090E03E
:1015B000F0CFDF91CF910895CF93DF93EC018C8131
:1015C00060E0BCDC8D818EBD0DB407FEFDCF8C814B
:1015D00061E0B4DCDF91CF910895CF93DF93EC010C
:1015E0008D8182608D83CE01E7DF81E090E02DDC8C
:1015F0008D818D7F8D83CE01DFDFDF91CF910895C7
:10160000CF93DF93EC018D816295607F8F70682BA3
:101610006D83CE01D1DFCE01E0DFDF91CF91089560
:101620001F93CF93DF93EC01162F8D81442311F08C
:10163000816001C08E7F8D83CE01BEDF212F30E01F
:1016400044E0359527954A95E1F7CE01622FD8DF22
:10165000CE01612FD5DFDF91CF911F9108951F93A8
:10166000CF93DF93EC01162F41E0DADF4B858A85BB
:1016700090E025E130E0829FF001839FF00D929F82
:10168000F00D1124EC0FFD1FE40FF11D15874F5FC6
:101690004B8780EA9FE00197F1F781E090E0DF91CE
:1016A000CF911F91089540E0BBDF80EA9FE0019752
:1016B000F1F70895FC0160856E7F60876460F3CF69
:1016C000FC016085262F226020876660ECCFFC013C
:1016D0006781262F246027836C60E5CFCF93DF934B
:1016E00000D000D0CDB7DEB7198220E42A8324E1F0
:1016F0002B8324E52C83FC012485421708F040E06D
:10170000FC0142876387FE01E40FF11D2181260F52
:101710002068622FC8DF0F900F900F900F90DF911D
:10172000CF910895CF93DF93EC0162E0BCDF1A867E
:101730001B86DF91CF91089561E0B5CFCF93DF9302
:10174000EC014C871A861B861D8236DF80E593EC00
:101750007CDBCE0163E054DF80E593EC76DBCE01E9
:1017600063E04EDF88EE93E070DBCE0163E048DF9C
:1017700080E593EC6ADBCE0162E042DF80E593EC2A
:1017800064DBCE0168E28FDFCE01D6DFCE0198DFC9
:10179000CE0190DFCE01C6DFCE0199DFDF91CF9180
:1017A0000895DA0120E030E075E1679FB00111246F
:1017B000680F791F90EBFB01E20FF31F85858F3DCA
:1017C00011F49C9301C08C932F5F3F4F11962431ED
:1017D000310589F7FA01148A0895EF92FF920F9369
:1017E0001F93CF93DF93EC0168830B960E945418EC
:1017F000CE0185960E945418CE01CF960E945418AF
:101800001A821B821C821D8219828FEF8E838EE0CA
:1018100090E068DA8C0168810E94501D29E5E22E73
:10182000F12CEC0EFD1EF7011183008387E090E0A0
:101830000E9408168C01F701608171810E946B146F
:10184000C55ADF4F19830883DF91CF911F910F9104
:10185000FF90EF900895CF93DF93EC01FC01E75ADE
:10186000FF4F8081918141DAFE01E55AFF4F80816F
:1018700091810E941B16CE01CF960E945A18CE016C
:1018800085960E945A18CE010B960E945A18DF9135
:10189000CF9108958130910541F48BED94E063E19F
:1018A0009CDF86E794E062E198CF009731F486E709
:1018B00094E0D1DF8BED94E0CECF08958BED94E0F2
:1018C0000E94612A8BED94E00E945E2A882351F4E5
:1018D00080913C04823611F0863621F48BED94E041
:1018E0000E948D2986E794E00E94612A86E794E0B1
:1018F0000E945E2A882321F486E794E00C948D29C7
:1019000008958F929F92AF92BF92CF92DF92EF9203
:10191000FF9280913C04823619F0803709F097C11C
:10192000C0903D04D0903E0480E0C81680E8D80600
:1019300029F4D0924004C0923F048FC18BED94E013
:101940000E945D2BC81AD90AD0921B04C0921A04B7
:101950008BED94E00E94602BFC0190932104809316
:10196000200480914005982F9F5F909340058C3311
:1019700009F054C01092400520911A0430911B04C4
:10198000D90137FF04C0AA27BB27A21BB30B809144
:1019900058049091590440911C0450911D04609189
:1019A0001E0470911F04A817B9071CF580915404F8
:1019B000909155048E179F07E4F080915604909102
:1019C0005704E817F907ACF0AB31B1053CF1C90198
:1019D000AA2797FDA095BA2F840F951FA61FB71FA2
:1019E00080931C0490931D04A0931E04B0931F04C5
:1019F00015C0DB01CA01E3E0B595A79597958795DA
:101A0000EA95D1F7481B590B6A0B7B0B40931C04DA
:101A100050931D0460931E0470931F0420911A04B8
:101A200030911B0480912E0490912F04AA2797FDDA
:101A3000A095BA2F4427582F692F7A2F481B590B8E
:101A40006A0B7B0B37FF2BC080914C0490914D04A7
:101A5000AA2797FDA095BA2F480F591F6A1F7B1F11
:101A6000452F562F672F772767FD7A9550932F04C0
:101A700040932E048091300490913104AA2797FD61
:101A8000A095BA2F4427582F692F7A2F481B590B3E
:101A90006A0B7B0B80915004909151042AC0809175
:101AA0004A0490914B04AA2797FDA095BA2F480F9E
:101AB000591F6A1F7B1F452F562F672F772767FDFA
:101AC0007A9550932F0440932E0480913004909186
:101AD0003104AA2797FDA095BA2F4427582F692FC4
:101AE0007A2F481B590B6A0B7B0B80915204909103
:101AF0005304AA2797FDA095BA2F480F591F6A1FB4
:101B00007B1F452F562F672F772767FD7A955093B8
:101B100031044093300460912E0470912F04882783
:101B200077FD8095982F442737FD4095542F0E94CC
:101B3000802B4B015C01F9E0B594A79497948794AE
:101B4000FA95D1F78092220490922304A092240463
:101B5000B092250460914E0470914F04882777FD60
:101B60008095982F20911C0430911D0440911E04F3
:101B700050911F040E94802B6B017C01A9E0F59419
:101B8000E794D794C794AA95D1F7C0922604D0922F
:101B90002704E0922804F0922904609130047091A7
:101BA0003104882777FD8095982F2091200430916B
:101BB0002104442737FD4095542F0E94802BAB0110
:101BC000BC01B9E07595679557954795BA95D1F7DA
:101BD00040932A0450932B0460932C0470932D049B
:101BE00080913D0490913E04AA2797FDA095BA2FBD
:101BF000880D991DAA1DBB1D8C0D9D1DAE1DBF1D01
:101C0000840F951FA61FB71F2091460430914704EB
:101C1000A901662757FD6095762F84179507A607BB
:101C2000B70784F04091480450914904662757FD56
:101C30006095762F481759076A077B0714F4DB0174
:101C4000CA019C013093400420933F0406C080E009
:101C500090E890933E0480933D04FF90EF90DF90D6
:101C6000CF90BF90AF909F908F900895809119046E
:101C7000843038F4823088F4882331F0813069F47C
:101C800006C0843051F403C086E060E008C086E0FE
:101C900061E054D985E060E005C086E061E04ED99E
:101CA00085E061E04BC90F931F936CD88B019C01B9
:101CB0008091090490910A04A0910B04B0910C0446
:101CC000081B190B2A0B3B0BB801C9011F910F917F
:101CD00008950F931F9356D88B019C0180910D049A
:101CE00090910E04A0910F04B0911004081B190BE1
:101CF0002A0B3B0BB801C9011F910F9108950F9357
:101D00001F9340D88B019C01809111049091120483
:101D1000A0911304B0911404081B190B2A0B3B0B60
:101D2000B801C9011F910F9108958F929F92AF92B0
:101D3000BF92CF92DF92EF92FF9284E035D9009765
:101D400089F480911904843059F000D085ED90E039
:101D5000EDB7FEB7928381830E941D1F0F900F90F5
:101D600084E005C080913C048F3621F485E08093A7
:101D70001904B2C180913F0490914004F0E8803092
:101D80009F0709F480C186E794E00E945E2A8823B9
:101D900009F479C18BED94E00E945E2A882309F052
:101DA00089C180913C04823609F46DC1803709F005
:101DB00081C169C10E94C206DC01CB01809311047C
:101DC00090931204A0931304B09314046CDFDC010D
:101DD000CB01813A2BEB92072DE0A20720E0B2075E
:101DE00020F480911704882379F473DFDC01CB01A0
:101DF000813CE7E29E07E9E0AE07E0E0BE0748F479
:101E000080911804882329F080911904833009F007
:101E100049C086E794E00E945A2B20913F043091FC
:101E2000400440915A0450915B04240F351F281739
:101E30003907A4F480913C04863669F08BED94E078
:101E40000E945A2B20913D0430913E04265E3F4F64
:101E5000281739073CF5109219043EC186E794E033
:101E60000E945A2B20913F043091400440915C0421
:101E700050915D04240F351F821793079CF48091C5
:101E80003C04863669F08BED94E00E945A2B209139
:101E90003D0430913E042A5130408217930714F4D8
:101EA00081E065CF00DFDC01CB018134F7E79F07DC
:101EB000FBE1AF07F0E0BF0710F01092170409DF55
:101EC000DC01CB01813A2BEB92072DE0A20720E049
:101ED000B20708F401C110921804FEC081E080939B
:101EE00017040E94C206DC01CB0180930904909381
:101EF0000A04A0930B04B0930C04809068049090A3
:101F00006904AA24BB24FBDE28EEC22E23E0D22ED5
:101F1000E12CF12CA70196010E94B22B82169306A8
:101F2000A406B50628F4209168043091690405C020
:101F3000E6DEA70196010E94B22B609143047091E6
:101F40004404882777FD8095982F442737FD4095D6
:101F5000542F0E94802B20E13EE040E050E00E94A0
:101F6000D42B690186E794E00E945A2BFC01EC19FE
:101F7000FD09F0933304E0933204C0903F04D09005
:101F80004004809162049091630420916404309134
:101F90006504820F931F62E070E00E949F2B6C0D1E
:101FA0007D1D6E177F070CF497C0D0923504C09248
:101FB000340469C0809318040E94C206DC01CB017E
:101FC00080930D0490930E04A0930F04B09310041B
:101FD0008090660490906704AA24BB2490DEF8EEFB
:101FE000CF2EF3E0DF2EE12CF12CA70196010E9409
:101FF000B22B82169306A406B50628F42091660437
:102000003091670405C07BDEA70196010E94B22BC8
:102010006091410470914204882777FD8095982F44
:10202000442737FD4095542F0E94802B20E13EE04D
:1020300040E050E00E94D42B690186E794E00E94C2
:102040005A2BFC01EC0DFD1DF0933304E093320498
:10205000C0903F04D090400480915E0490915F0452
:102060002091600430916104820F931F62E070E060
:102070000E949F2B6C0D7D1DE617F7076CF1D09227
:102080003704C092360482E072CE84E00E94D40706
:102090008130910509F500D088EE90E0EDB7FEB7EC
:1020A000928381830E941D1F82E0809319040F9008
:1020B0000F9012C080911904843048F4823008F0E7
:1020C00079CE882309F40ACF813031F473CF84307C
:1020D000E1F2853009F46ECEFF90EF90DF90CF9063
:1020E000BF90AF909F908F9008958CE394E061E053
:1020F00070E049E050E00E94D13080913D04909121
:102100003E04909316048093150408950F931F9333
:10211000CF93DF93EC01F5E075956795FA95E1F7BC
:1021200066567E4F8B01222717FD2095322F0F3FD9
:1021300011052105310571F06CF00B3981E01807AC
:1021400080E0280780E038074CF00AE911E020E041
:1021500030E004C000E011E020E030E068817981E7
:10216000882777FD8095982FA90198010E94802BE0
:10217000DC01CB01E9E0B595A79597958795EA95A0
:10218000D1F799838883B1DFDF91CF911F910F91B0
:1021900008950F931F93CF93DF93EC01F5E07595AE
:1021A0006795FA95E1F76A597D4F8B01222717FD54
:1021B0002095322F063682E0180780E0280780E05D
:1021C00038076CF0013083E0180780E0280780E0D2
:1021D00038074CF000E013E020E030E004C006E6F1
:1021E00012E020E030E068817981882777FD8095D2
:1021F000982FA90198010E94802BDC01CB01E9E016
:10220000B595A79597958795EA95D1F79983888392
:102210006CDFDF91CF911F910F910895AF92BF9224
:10222000CF92DF92EF92FF920F93CF93DF93CDB7D0
:10223000DEB76B970FB6F894DEBF0FBECDBF8091AF
:102240001804882309F4D2C080911904813009F45C
:10225000CDC086E794E00E94712B7C0120E880309D
:10226000920751F1809136049091370420915E04D9
:1022700030915F04820F931F8E159F0534F4B701D0
:10228000681B790B81E494E084DF8091360490919F
:1022900037042091600430916104820F931FE81687
:1022A000F90634F4B701681B790B81E494E02EDF62
:1022B00000D08BEF90E042C00CDDDC01CB01813A15
:1022C000E9ED9E07E8E0AE07E0E0BE0708F48EC047
:1022D000EADCDC01CB018138FDE69F07FDE0AF07BA
:1022E000F0E0BF0708F482C086E794E00E945A2B12
:1022F000209136043091370440916004509161047C
:10230000240F351F821793070CF070C086E794E006
:102310000E945A2B7C0180913604909137042091C1
:10232000600430916104820F931FB701681B790B21
:1023300081E494E0EBDE00D083E191E0ADB7BEB77D
:1023400012969C938E9311970E94441F0F900F90AA
:10235000A701662757FD6095762FCE01439623E0AF
:1023600009E00E94A1275C01409136045091370496
:10237000662757FD6095762FCE010A9623E00E94CE
:10238000A1276C014091410450914204662757FDFA
:102390006095762FCE01019623E00E94BC26EDB712
:1023A000FEB738970FB6F894FEBF0FBEEDBF31965B
:1023B00028E331E0ADB7BEB712963C932E93119748
:1023C000B382A282D582C482978386830E94441FEF
:1023D00010921804F0923B04E0923A04EDB7FEB775
:1023E00038960FB6F894FEBF0FBEEDBF809117046C
:1023F000882309F4CFC080911904882309F4CAC046
:1024000086E794E00E94742B7C01F0E880309F07FF
:1024100081F18091340490913504209164043091CD
:102420006504820F931FE816F90634F4B701681BA0
:10243000790B83E494E0ADDE80913404909135040F
:102440002091620430916304280F391F2E153F0537
:1024500064F42091640430916504280F391FB7019A
:10246000621B730B83E494E051DE00D082E691E0BE
:1024700039C02FDCDC01CB01813AE9ED9E07E8E0B1
:10248000AE07E0E0BE0708F485C00DDCDC01CB013F
:102490008138FDE69F07FDE0AF07F0E0BF0708F4D5
:1024A00079C086E794E00E945A2B20913404309141
:1024B00035044091620450916304420F531F481742
:1024C00059070CF067C08091640490916504820FF5
:1024D000931FB701681B790B83E494E017DE00D0EB
:1024E0008AE791E0ADB7BEB712969C938E93119791
:1024F0000E94441F0F900F90A701662757FD60951B
:10250000762FCE01019623E009E00E94A1275C010D
:102510004091340450913504662757FD6095762F1D
:10252000CE010A9623E00E94A1276C01409143044A
:1025300050914404662757FD6095762FCE0143964F
:1025400023E00E94BC26EDB7FEB738970FB6F8948B
:10255000FEBF0FBEEDBF319621EA31E0ADB7BEB789
:1025600012963C932E931197B382A282D582C48295
:10257000978386830E94441F10921704F0923904B7
:10258000E0923804EDB7FEB738960FB6F894FEBF68
:102590000FBEEDBF6B960FB6F894DEBF0FBECDBF7A
:1025A000DF91CF910F91FF90EF90DF90CF90BF9090
:1025B000AF9008958CE394E061E070E049E050E072
:1025C0000C94B93082E680933C0480E098E29093CA
:1025D0003E0480933D049093400480933F0480E147
:1025E00090E0909342048093410480E09AE09093BD
:1025F00044048093430479CD85E494E06AE070E07C
:1026000041E350E00C94D13085E494E06AE070E05E
:1026100041E350E00C94B9300F931F93CF93DF93B5
:1026200083E48093450488E592E090936704809367
:10263000660480EB94E0909369048093680480E0E2
:102640009CE3909349048093480480E098E0909341
:1026500047048093460480E09EE190934B0480936E
:102660004A0490934D0480934C048AE990E090933F
:102670004F0480934E0480E09AEF9093510480932E
:10268000500490935304809352048AE190E0909315
:102690005504809354048DEC9FEF909357048093DE
:1026A000560420E031E030935904209358043093CD
:1026B0005B0420935A0420E03FEF30935D042093A5
:1026C0005C0426E630E030935F0420935E04909330
:1026D00061048093600483E390E0909363048093AB
:1026E00062048AE99FEF909365048093640481E01B
:1026F00096E090936B0480936A04C6E7D4E0CE0121
:1027000061E076E00E94772B84E09CE090936D047A
:1027100080936C04CE0164E07CE00E947A2B03E09D
:102720001AE010936F0400936E04CE0163E07AE028
:102730000E947D2B82E098E0909371048093700456
:10274000CBEDD4E0CE0162E078E00E94772B85E00B
:102750009EE09093730480937204CE0165E07EE066
:102760000E947A2B1093750400937404CE0163E0E9
:102770007AE00E947D2B40DFDF91CF911F910F9176
:10278000089580E090E00E94C930813049F01ADF5E
:1027900043DF80E090E061E00E94F230A6DC2CCFC5
:1027A00009DF32CF80933C048F56823050F480E0B2
:1027B00090E890933E0480933D049093400480936E
:1027C0003F0493CC80913C040895809119040895AE
:1027D0008BED94E00C945A2BFBDF20913D0430915B
:1027E0003E04281739076CF480914C0490914D04F5
:1027F00090932F0480932E04809150049091510463
:102800000CC080914A0490914B0490932F048093C4
:102810002E0480915204909153049093310480933C
:1028200030041092180410921704089583E08093E6
:1028300019048BED94E00E948D2986E794E00E94B4
:102840008D293CD8C9CF80913D0490913E040895D4
:1028500086E794E00C945A2B80913F0490914004B9
:102860000895CF93DF93EC0180913D0490913E0455
:10287000D0933E04C0933D048C1B9D0B97FF03C077
:10288000909581959F4F813891050CF0A5DF39D83F
:102890004CDA80911504909116048C1B9D0B97FFC8
:1028A00003C0909581959F4F813891050CF01DDCF8
:1028B000DF91CF9108959093400480933F048CDF83
:1028C00020D833DA12CC81E090E00C944A0C80E0FE
:1028D00090E00C944A0CFC0176836583148210828C
:1028E00089E090E09283818381E083830895CF9390
:1028F000DF93EB01CB0167E00E94F61D91E02F8191
:10290000821390E0892FDF91CF910895EF92FF928B
:102910000F931F93CF93DF93EC018B01E42E8D81F6
:102920009E810E94431DFF2406C0CE01B801DFDF57
:10293000882359F414C08D819E81B8010E94731DB3
:10294000882329F0FE1459F4F0CF81E001C080E023
:10295000DF91CF911F910F91FF90EF900895F39425
:10296000EF14A8F3E8CFEF92FF920F931F93CF934A
:10297000DF93EC017B018A018D819E815CD78D8183
:102980009E81B7010E94131D8D819E816EEB40E0F8
:10299000ECD78D819E810E94F81CF80180838D8187
:1029A0009E810E94F81CF80181838D819E810E9486
:1029B000F81CF80182838D819E810E94F81CF80129
:1029C00083838D819E810E94F81CF80184838D8110
:1029D0009E810E94F81CF80185838D819E810E9452
:1029E000F81CF80186838D819E810E94F81CF801F5
:1029F00087838D819E81FCD7F80180878D819E81A0
:102A00001AD7DF91CF911F910F91FF90EF9008950A
:102A1000CF93DF93EA01A7DFCE0168E00E94F61DA5
:102A200091E02885821390E0892FDF91CF9108955E
:102A3000EF92FF920F931F93CF93DF938C01EB01E3
:102A40007A01FC0185819681F6D6F801858196810F
:102A5000BE01E9D7F801858196816EE440E085D713
:102A6000F80185819681F701628140E07ED7F80107
:102A700085819681F701638140E077D78881803135
:102A800039F0F80185819681F701648140E06DD7C6
:102A9000F80185819681CFD6F8018581968168E419
:102AA000408163D7F8018081882331F06AE070E0CB
:102AB00080E090E00E94FE06F80185819681BBD6F9
:102AC000DF91CF911F910F91FF90EF900895EF92BA
:102AD000FF920F931F93CF93DF93CDB7DEB72A9763
:102AE0000FB6F894DEBF0FBECDBF7C018B01242F43
:102AF000AE014F5F5F4F2A878BDF2A858823D9F08D
:102B0000F80180818031C9F02A3051F02A3050F02C
:102B10002B3021F02C3031F48FE705C08FE503C056
:102B20008FE301C08FE18D83C701B801AE014F5F14
:102B30005F4F7EDF02C080E001C081E02A960FB6C1
:102B4000F894DEBF0FBECDBFDF91CF911F910F91E3
:102B5000FF90EF900895FC0163830895CF93DF9376
:102B6000EC018D819E8167D68D819E8189D78D8173
:102B70009E8164E44881F9D68B81882321F1898183
:102B80009A818930910551F089309105B4F08A30ED
:102B9000910549F08B30910581F40AC06EE570E033
:102BA00080E090E00EC06CEB70E080E090E009C047
:102BB00067E771E080E090E004C06EEE72E080E0D4
:102BC00090E00E94FE06DF91CF910895CF93DF93AE
:102BD000CDB7DEB729970FB6F894DEBF0FBECDBFD5
:102BE000AE014F5F5F4F14DF882339F03A8120E058
:102BF000898190E0822B932B02C081E89FEF299678
:102C00000FB6F894DEBF0FBECDBFDF91CF91089510
:102C10000F931F93CF93DF93EC010E94092C8C013B
:102C200060E070E0AE010E94742EC801DF91CF9188
:102C30001F910F9108950C949F2C08958130910558
:102C400059F4109244051092430588E293E0909362
:102C50004205809341050895009731F488E293E09E
:102C6000909342058093410508950F931F93CF934E
:102C7000DF93CDB7DEB765970FB6F894DEBF0FBE12
:102C8000CDBF8C01CE01019644E150E00E94602E40
:102C9000C801BE016F5F7F4F0E94020665960FB6A6
:102CA000F894DEBF0FBECDBFDF91CF911F910F9182
:102CB0000895CF93DF93EC01FC01EF59FF4F8FEFA5
:102CC0008083CE016AE00E94BB0ACE0164E144E049
:102CD0000E949E0BCE010E949C0BDF91CF91089524
:102CE0008F929F92AF92BF92CF92DF92FF920F93FB
:102CF0001F93CF93DF93CDB7DEB729970FB6F89424
:102D0000DEBF0FBECDBF4C01CB01AC01662757FD26
:102D10006095762F6E010894C11CD11CC60121E07C
:102D200009E00E94A12700E010E0FC2CCD2C85E0FA
:102D3000A82EB12C05C060E20E942F0B0F5F1F4F21
:102D40008F2D9C2D0E948C2E9501281B390BC401C0
:102D50000217130780F36F2D7C2D0E94020629961F
:102D60000FB6F894DEBF0FBECDBFDF91CF911F919C
:102D70000F91FF90DF90CF90BF90AF909F908F907A
:102D80000895CF93DF93D82FC92F6CE042E00E94C3
:102D90006E0B62DDBC0180E86030780731F48D2F66
:102DA0009C2F6EED71E061DF03C08D2F9C2F98DFAB
:102DB000DF91CF910895CF93DF93D82FC92F66E08D
:102DC00042E00E946E0B86E794E00E945E2A882310
:102DD00031F03EDDBC018D2F9C2F82DF05C08D2F91
:102DE0009C2F68ED71E041DFDF91CF910895CF9383
:102DF000DF93D82FC92F6CE041E00E946E0B23DDDA
:102E0000BC0180E86030780731F48D2F9C2F62ED93
:102E100071E02BDF03C08D2F9C2F62DFDF91CF91FC
:102E20000895CF93DF93D82FC92F66E041E00E9429
:102E30006E0B8BED94E00E945E2A882331F0C8DC93
:102E4000BC018D2F9C2F4CDF05C08D2F9C2F6CEC6F
:102E500071E00BDFDF91CF910895CF93DF93EC0109
:102E6000E0DFCE01C4DFCE01A6DFCE018ADFDF9135
:102E7000CF910895CF93DF93D82FC92F6FED0E9484
:102E80002F0B8D2F9C2F609145040E942F0BDF91FB
:102E9000CF910895CF93DF93D82FC92F60E040E002
:102EA0000E946E0B8D2F9C2F64EE71E0DEDE8D2F65
:102EB0009C2F60E041E00E946E0B8D2F9C2F6CEEEA
:102EC00071E0D3DE8D2F9C2F60E042E00E946E0BFC
:102ED0008D2F9C2F64EF71E0C8DE8D2F9C2F62E157
:102EE00041E00E946E0B8D2F9C2FC4DF8D2F9C2FF5
:102EF00062E142E00E946E0B8D2F9C2FBBDFDF91C1
:102F0000CF910895CF93DF93D82FC92F67E040E08A
:102F10000E946E0B57DC863651F0873618F48236E5
:102F2000D1F40AC08F3691F08037A9F40AC08D2FF2
:102F30009C2F6CEF71E013C08D2F9C2F6AE072E024
:102F40000EC08D2F9C2F68E172E009C08D2F9C2F41
:102F500066E272E004C08D2F9C2F64E372E085DE90
:102F6000DF91CF910895CF92DF92EF92FF920F936E
:102F70001F93CF93DF93EC0128DC182FFE01EF594C
:102F8000FF4F80811817C9F1CC2E0D2FCE0160E0C4
:102F900043E00E946E0B19DC823071F0833028F41C
:102FA000882391F0813001F513C08430A9F084307A
:102FB00038F08530C9F414C0CE0162E472E018C064
:102FC000CE0167E572E014C0CE016CE672E010C07D
:102FD000CE0161E872E00CC0CE0166E972E008C083
:102FE000CE016BEA72E004C08C2D902F60EC72E091
:102FF0003CDEFE01EF59FF4F1083123070F11230AA
:1030000009F043C01C2F0D2FCE0169E043E00E9460
:103010006E0B0E94530E6B017C010E94690EDC0155
:10302000CB01C816D906EA06FB0618F40E94530E17
:1030300002C00E94690E28EE33E040E050E00E949A
:10304000B22BBA01CE01A9012AE030E00E94650648
:10305000812F902F65ED72E017C0CE016CE043E048
:103060000E946E0B0E947F0E28EE33E040E050E09D
:103070000E94B22BCE01BA01A9012AE030E00E94E1
:103080006506CE0168ED72E0F0DDDF91CF911F9112
:103090000F91FF90EF90DF90CF90089581E090E046
:1030A000CDCD80E090E0CACDFC0188E0808F82E049
:1030B000818F08950895FC01708F618F08952F927C
:1030C0003F924F925F926F927F928F929F92AF92B8
:1030D000BF92CF92DF92EF92FF920F931F93CF9305
:1030E000DF93FC014480558066807780408651865E
:1030F0006286738680809180A280B380848295826C
:10310000A682B7824083518362837383C088D1884B
:10311000E288F388C48AD58AE68AF78A8485958509
:10312000A685B785808B918BA28BB38BD18DC08DFB
:103130002C2E33248C019D010C191D092E093F09E9
:10314000080F191F2A1F3B1F0D2E04C0B595A79508
:10315000979587950A94D2F7081B190B2A0B3B0BFE
:10316000D701C60104C0B595A79597958795DA95BF
:10317000D2F7080F191F2A1F3B1FDB01CA010C2EB3
:1031800004C0B595A795979587950A94D2F7080F2F
:10319000191F2A1F3B1FC1010197B501A40104C0DB
:1031A00075956795579547958A95D2F7040F151F22
:1031B000261F371FD301C20104C0B595A795979567
:1031C0008795CA95D2F7080F191F2A1F3B1FC10107
:1031D0000297B701A60104C0759567955795479565
:1031E0008A95D2F7041B150B260B370B048715871E
:1031F00026873787B801C901DF91CF911F910F91C1
:10320000FF90EF90DF90CF90BF90AF909F908F9006
:103210007F906F905F904F903F902F9008959B010B
:10322000A901662757FD6095762FBA0155274427D7
:1032300046DFAB01BC01AB01772757FD7095672FC7
:10324000CA010895FC014485558566857785AB01E3
:10325000772757FD7095672FCA010895FC01648593
:103260007585868597850895FC01CB01AA2797FD72
:10327000A095BA2FDC019927882780839183A283A8
:10328000B38384839583A683B78380879187A2873E
:10329000B38784879587A687B787808B918BA28B0E
:1032A000B38B848B958BA68BB78B0895FC014089DB
:1032B00051896289738984859585A685B785841728
:1032C0009507A607B7075CF484899589A689B7890D
:1032D000481759076A077B072CF0CB01089580E057
:1032E00090E8089580E090E80895FC0140895189B4
:1032F0006289738984859585A685B785481759079E
:103300006A077B075CF484899589A689B789841745
:103310009507A607B7072CF0CB01089580E090E849
:10332000089580E090E80895AF92BF92CF92DF9227
:10333000EF92FF920F931F93CF93DF93CDB7DEB73A
:1033400029970FB6F894DEBF0FBECDBF81E495E09C
:10335000A1DD79DA5C0120E88030920719F460E0A1
:1033600078E201C0BC01882777FD8095982F0E94E4
:1033700020298C016091460470914704882777FDCD
:103380008095982F0E9420296C01609148047091CB
:103390004904882777FD8095982F0E942029AC0149
:1033A000C801B6010E94500A0E94C2066B017C014E
:1033B0004DC00E94870A882371F10E94C2066B01EA
:1033C0007C010E946A0A0E9456294BDA81E495E04A
:1033D0000EDD0E94990A8823C9F10E949C0A33DA03
:1033E000AC01662757FD6095762FCE01019621E04E
:1033F00009E00E94A12700D000D022E333E0EDB71E
:10340000FEB73283218394838383F1D40F900F908E
:103410000F900F902FC0112321F481E495E0E7DC99
:103420000DC0103859F481E495E06CE041E00E9451
:103430006E0B81E495E062E673E017DC1F5F63E0EA
:1034400070E080E090E00E94FE0601C010E00E9463
:10345000C206DC01CB018C199D09AE09BF09803180
:10346000F7E29F07F0E0AF07F0E0BF0708F4A1CF55
:10347000C501F7D929960FB6F894DEBF0FBECDBFB0
:10348000DF91CF911F910F91FF90EF90DF90CF9040
:10349000BF90AF900895AF92BF92CF92DF92EF921C
:1034A000FF920F931F93CF93DF93CDB7DEB729978A
:1034B0000FB6F894DEBF0FBECDBF81E495E0EADC25
:1034C000CBD95C0120E88030920719F460E078E203
:1034D00001C0BC01882777FD8095982F0E94202984
:1034E0008C016091460470914704882777FD809590
:1034F000982F0E9420296C01609148047091490422
:10350000882777FD8095982F0E942029AC01C8015B
:10351000B6010E94500A0E94C2066B017C014DC098
:103520000E94870A882371F10E94C2066B017C0108
:103530000E946A0A0E945629BED981E495E021DCE6
:103540000E94990A8823C9F10E949C0A85D9AC017E
:10355000662757FD6095762FCE01019621E009E0A0
:103560000E94A12700D000D028E633E0EDB7FEB7D7
:10357000328321839483838360D40F900F900F90C4
:103580000F902FC0112321F481E495E0FADB0DC0E8
:10359000103859F481E495E06CE042E00E946E0B33
:1035A00081E495E06AE973E060DB1F5F63E070E04F
:1035B00080E090E00E94FE0601C010E00E94C2067A
:1035C000DC01CB018C199D09AE09BF098031F7E2FE
:1035D0009F07F0E0AF07F0E0BF0708F4A1CFC501F7
:1035E0006AD929960FB6F894DEBF0FBECDBFDF9122
:1035F000CF911F910F91FF90EF90DF90CF90BF90F0
:10360000AF900895CF92DF92EF92FF920F931F93A6
:10361000CF93DF9300D000D0CDB7DEB781E495E043
:1036200039DCD0D8182FE82FE656EB3028F4F0E03C
:10363000E45DFC4F808101C080E090E060E070E0DC
:1036400043E050E00E94500A82E6898386E68A833E
:1036500080E78B838FE68C830E94C2066B017C011E
:1036600057C00E94870A882309F437C00E94C20607
:103670006B017C010E946A0AE1E0F0E0EC0FFD1FA3
:10368000E80FF91F80818ED881E495E03BDC0E9431
:10369000990A882309F43CC00E949C0A93D8823678
:1036A00011F442DE49C08ED8863611F4F4DE44C0EF
:1036B00089D8803721F400D082EE92E006C082D80B
:1036C0008F36D1F500D083E093E0EDB7FEB792835B
:1036D00081838DD30F900F902FC0002321F481E4BC
:1036E00095E010DC0DC0003859F481E495E067E006
:1036F00040E00E946E0B81E495E064E273E0B5DA8D
:103700000F5F63E070E080E090E00E94FE0601C081
:1037100000E00E94C206DC01CB018C199D09AE09B4
:10372000BF098031F7E29F07F0E0AF07F0E0BF0785
:1037300008F497CF812F36D80F900F900F900F90ED
:10374000DF91CF911F910F91FF90EF90DF90CF907D
:103750000895CF92DF92EF92FF92CF9380E090E0B6
:1037600060E070E042E050E00E94500A0E94C20611
:103770006B017C01C0E048C00E94870A882329F0C1
:103780000E94C2066B017C0102C0CC2329F481E4B3
:1037900095E080DBC0E00FC0C03869F40E946A0A7F
:1037A000482F81E495E060E00E946E0B81E495E093
:1037B0006BED72E05ADA0E94990A8823F1F00E94B8
:1037C0009C0A0E946A0A8130910539F08230910585
:1037D00061F0009791F416DF28C082E60E94D213B0
:1037E00081E495E08FDBA0DD20C086E60E94D21345
:1037F00081E495E087DB4FDE18C0CF5F63E070E0C7
:1038000080E090E00E94FE060E94C206DC01CB012F
:103810008C199D09AE09BF09803127E2920720E08B
:10382000A20720E0B20708F4A7CFCF91FF90EF9056
:10383000DF90CF900895FF920F931F93CF93DF9364
:10384000FC011081C181D281F8948981012F0095FA
:103850008023898378948DE7F82EFA9431F182E001
:1038600090E00E94250788818123B9F3F8948A812A
:1038700080238A838981812B8983789484EF91E0E6
:103880000E942507F89489818023898380E590E050
:103890000E94250788818123C1E009F0C0E0789467
:1038A00084EA91E00E94250701C0C0E08C2FDF91DF
:1038B000CF911F910F91FF9008951F93CF93DF93A6
:1038C000FC011081C181D281912F9095F8948A8159
:1038D00089238A838981812B898360FF0BC08AE0D9
:1038E00090E00E9425078A81812B8A83789487E360
:1038F00090E00AC081E490E00E9425078A81812B34
:103900008A83789485E090E00E942507DF91CF912B
:103910001F9108950F931F93CF93DF93FC011081A4
:10392000C181D281F8948981812B89838A81012F79
:10393000009580238A8383E090E00E942507898197
:10394000802389838AE090E00E942507C8817894CB
:1039500085E390E00E9425071C2381E009F480E0C4
:10396000DF91CF911F910F910895CF92DF92EF9247
:10397000FF920F931F93CF93DF930F92CDB7DEB7D4
:103980008C01F62E28E0C22ED12CEE24E3948E2D4D
:103990008F2161E009F460E0C80149838EDFEE0CFD
:1039A0000894C108D1084981C114D10481F7442386
:1039B000A9F4F894D8011196ED91FC911297918198
:1039C0008C918095892381831196ED91FC911297BA
:1039D00092818C9180958923828378940F90DF91D6
:1039E000CF911F910F91FF90EF90DF90CF900895AE
:1039F000EF92FF920F931F93CF93DF938C01C8E058
:103A0000D0E0FF24EE24E394C80184DF8111FE2876
:103A1000EE0C2197C9F78F2DDF91CF911F910F9158
:103A2000FF90EF900895CF92DF92EF92FF920F9365
:103A30001F93CF93DF930F92CDB7DEB77C01C62ED5
:103A400065E540E0798391DF0C2D7981172FCC2437
:103A5000DD24F80161918F01C70140E086DF089401
:103A6000C11CD11CF8E0CF16D10499F70F90DF915B
:103A7000CF911F910F91FF90EF90DF90CF9008951D
:103A80006CEC40E072CFFC0113861586148612861A
:103A90001186108617821682158214821382089569
:103AA0001F93CF93DF93EC01162F862F60E00E94C7
:103AB0006A07612F70E0FB01E458FF4FE491E8834F
:103AC000FB01E057FF4FE491F0E0EE0FFF1FEC55D4
:103AD000FF4F8591949189839A83CE01D4DFDF9142
:103AE000CF911F910895BF92CF92DF92EF92FF92F4
:103AF0000F931F93CF93DF93EC016B018D85882388
:103B000009F052C0CE0197DE882321F41B861D8662
:103B10001C865BC0CE0160EF40E027DF01E0FF24A0
:103B2000EE2411E0CE01F6DEB82ECE01F3DE91E0F8
:103B3000B91619F48130A9F42FC0B816D1F48B85C9
:103B4000181738F4FE01EF0DF11D8381802349F42D
:103B500002C0181731F060E0193008F040C01C872F
:103B60003EC0FE01EF0DF11D8381802B838361E058
:103B700009C06B2DFE01EF0DF11D902F90958381F3
:103B800089238383CE0199DE1F5F000F11F4F39424
:103B900001E087E08F1530F6113430F0EB86EE202F
:103BA00001F581E08D871DC01B861D861C8680E087
:103BB000D60120E030E0FE01E20FF31F93819D93D8
:103BC0002F5F3F4F28303105B1F7DF91CF911F9123
:103BD0000F91FF90EF90DF90CF90BF900895E12E6E
:103BE000C9CF8B81882301F381E0E2CFDC0180E043
:103BF00007C0ED91E827F0E0E056FC4F849161505A
:103C00006623B9F70895CF93DF93CDB7DEB7C058D9
:103C1000D0400FB6F894DEBF0FBECDBFFE01EB570C
:103C2000FF4F41915191CE01019660E870E09F01F4
:103C30000E94C22E80E493E0BE016F5F7F4F0E941E
:103C40000206C058DF4F0FB6F894DEBF0FBECDBFDF
:103C5000DF91CF910895CF92DF92EF92FF920F9371
:103C6000CF93DF93CDB7DEB729970FB6F894DEBFB9
:103C70000FBECDBF7C016B010E94E813AC0166272B
:103C800057FD6095762FCE01019622E009E00E9453
:103C9000A12700D000D027E035E0EDB7FEB7328392
:103CA000218394838383AFDF0F900F900F900F9049
:103CB0000E942314AC01662757FD6095762FCE0134
:103CC000019622E00E94A12700D000D029E135E032
:103CD000EDB7FEB7328321839483838394DF0F9003
:103CE0000F900F900F90E114F10459F400D087E287
:103CF00095E0EDB7FEB79283818385DF0F900F903B
:103D00000FC000D000D087E395E0EDB7FEB79283F7
:103D10008183F482E38277DF0F900F900F900F90F2
:103D20000E942814AC01662757FD6095762FCE01BE
:103D3000019622E009E00E94A12700D000D027E4EC
:103D400035E0EDB7FEB732832183948383835BDF55
:103D50000F900F900F900F900E942C14AC016627CB
:103D600057FD6095762FCE01019622E00E94A12793
:103D700000D000D028E535E0EDB7FEB732832183CF
:103D80009483838340DF0F900F900F900F90C114A6
:103D9000D10459F400D088E695E0EDB7FEB79283E0
:103DA000818331DF0F900F900FC000D000D08BE7E0
:103DB00095E0EDB7FEB792838183D482C38223DF7F
:103DC0000F900F900F900F9029960FB6F894DEBFCA
:103DD0000FBECDBFDF91CF910F91FF90EF90DF909D
:103DE000CF90089580E090E060E070E034CFCF9312
:103DF000DF93CDB7DEB7C058D0400FB6F894DEBF22
:103E00000FBECDBFFE01EB57FF4F41915191CE0147
:103E1000019660E870E09F010E94C22ECE010196DB
:103E200060E070E018DFC058DF4F0FB6F894DEBFD7
:103E30000FBECDBFDF91CF910895CF93DF93CDB764
:103E4000DEB7C058D0400FB6F894DEBF0FBECDBF6E
:103E5000FE01EB57FF4F41915191CE01019660E871
:103E600070E09F010E94C22E80E090E0BE016F5F73
:103E70007F4FF1DEC058DF4F0FB6F894DEBF0FBEA4
:103E8000CDBFDF91CF910895EF92FF920F931F93D3
:103E9000CF93DF93CDB7DEB7C058D0400FB6F894BC
:103EA000DEBF0FBECDBF8E0107571F4FF801E19057
:103EB000F1908F0100D08EE895E0EDB7FEB79283C8
:103EC0008183A1DE0F900F90CE01019660E870E033
:103ED000A70198010E94C22E80E493E0BE016F5FAB
:103EE0007F4F0E94020600D081E995E0EDB7FEB752
:103EF0009283818388DE0F900F90C058DF4F0FB6FA
:103F0000F894DEBF0FBECDBFDF91CF911F910F910F
:103F1000FF90EF90089500D000D000D0EDB7FEB72D
:103F200031962DEB35E0ADB7BEB712963C932E938C
:103F30001197938382837583648365DE8DB79EB703
:103F400006960FB6F8949EBF0FBE8DBF08950F93CF
:103F5000CF93DF93CDB7DEB72C970FB6F894DEBFC3
:103F60000FBECDBF00D08FEA95E0ADB7BEB71296B9
:103F70009C938E93119747DE0F900F9040911A04F7
:103F800050911B04662757FD6095762FCE01019650
:103F900023E00CE00E94B228BC018EE091E0BBDF80
:103FA00040911C0450911D0460911E0470911F04E7
:103FB000CE01019623E00E94B228BC0187E191E086
:103FC000AADF4091200450912104662757FD609597
:103FD000762FCE01019623E00E94B228BC0184E234
:103FE00091E099DF409122045091230460912404D0
:103FF00070912504CE01019623E0BED6BC018EE26D
:1040000091E089DF409126045091270460912804B3
:1040100070912904CE01019623E0AED6BC0180E365
:1040200091E079DF40912A0450912B0460912C0497
:1040300070912D04CE01019623E09ED6BC0182E34F
:1040400091E069DF40912E0450912F04662757FDBF
:104050006095762FCE01019623E08ED6BC0184E3D5
:1040600091E059DF4091300450913104662757FDAB
:104070006095762FCE01019623E07ED6BC0187E3C2
:1040800091E049DF4091320450913304662757FD97
:104090006095762FCE01019623E053D7BC018AE3C9
:1040A00091E039DF4091340450913504662757FD83
:1040B0006095762FCE01019623E043D7BC0188E4BA
:1040C00091E029DF4091360450913704662757FD6F
:1040D0006095762FCE01019623E033D7BC0187E5AA
:1040E00091E019DF4091380450913904662757FD5B
:1040F0006095762FCE01019623E023D7BC0186E69A
:1041000091E009DF40913A0450913B04662757FD46
:104110006095762FCE01019623E013D700D000D012
:1041200000D0EDB7FEB7319623EB35E0ADB7BEB7A3
:1041300012963C932E9311972EE631E0338322831F
:104140009583848360DDEDB7FEB736960FB6F8949D
:10415000FEBF0FBEEDBF2C960FB6F894DEBF0FBEAC
:10416000CDBFDF91CF910F91089500D000D000D046
:10417000EDB7FEB7319626EC35E0ADB7BEB7129677
:104180003C932E93119793838283648315823BDD46
:104190008DB79EB706960FB6F8949EBF0FBE8DBF23
:1041A00008950F93CF93DF93CDB7DEB72C970FB65B
:1041B000F894DEBF0FBECDBF00D083E995E0ADB768
:1041C000BEB712969C938E9311971DDD0F900F90A2
:1041D00086E791E060913C04C8DF40913D04509136
:1041E0003E04662757FD6095762FCE01019622E0AA
:1041F0000CE0A7D6BC018BE791E08DDE40913F0437
:1042000050914004662757FD6095762FCE010196A8
:1042100022E097D6BC0187E891E07DDE4091410421
:1042200050914204662757FD6095762FCE01019686
:1042300023E0A2D5BC0185E991E06DDE4091430405
:1042400050914404662757FD6095762FCE01019664
:1042500023E092D500D000D000D0EDB7FEB7319664
:1042600027E935E0ADB7BEB712963C932E93119770
:1042700023EA31E03383228395838483C4DCEDB762
:10428000FEB736960FB6F894FEBF0FBEEDBF2C9664
:104290000FB6F894DEBF0FBECDBFDF91CF910F9167
:1042A000089500D000D000D0EDB7FEB7319621EDD3
:1042B00035E0ADB7BEB712963C932E93119793831A
:1042C0008283758364839FDC8DB79EB706960FB695
:1042D000F8949EBF0FBE8DBF08950F93CF93DF93C9
:1042E000CDB7DEB72C970FB6F894DEBF0FBECDBFAB
:1042F00000D081EA95E0ADB7BEB712969C938E933D
:10430000119781DC0F900F9081EB91E06091450453
:104310002CDF4091460450914704662757FD609575
:10432000762FCE01019621E00CE00BD6BC018CEB80
:1043300091E0F1DD4091480450914904662757FD12
:104340006095762FCE01019621E0FBD5BC018BEC68
:1043500091E0E1DD40914A0450914B04662757FDFE
:104360006095762FCE01019623E006D5BC018AED3B
:1043700091E0D1DD40914C0450914D04662757FDEA
:104380006095762FCE01019623E0F6D4BC0181EE34
:1043900091E0C1DD40914E0450914F04662757FDD6
:1043A0006095762FCE01019623E0E6D4BC0188EE1D
:1043B00091E0B1DD4091500450915104662757FDC2
:1043C0006095762FCE01019623E0D6D4BC018BEE0A
:1043D00091E0A1DD4091520450915304662757FDAE
:1043E0006095762FCE01019623E0C6D4BC0182EF02
:1043F00091E091DD4091580450915904662757FD92
:104400006095762FCE01019623E0ACD6BC0189EFF2
:1044100091E081DD4091540450915504662757FD89
:104420006095762FCE01019623E09CD6BC0183E0F7
:1044300092E071DD4091560450915704662757FD74
:104440006095762FCE01019623E08CD6BC018DE0DD
:1044500092E061DD40915A0450915B04662757FD5C
:104460006095762FCE01019623E07CD6BC0187E1D2
:1044700092E051DD40915C0450915D04662757FD48
:104480006095762FCE01019623E06CD6BC0185E2C3
:1044900092E041DD40915E0450915F04662757FD34
:1044A0006095762FCE01019623E05CD6BC0182E3B5
:1044B00092E031DD4091600450916104662757FD20
:1044C0006095762FCE01019623E04CD6BC0185E4A1
:1044D00092E021DD4091620450916304662757FD0C
:1044E0006095762FCE01019623E03CD6BC0188E58D
:1044F00092E011DD4091640450916504662757FDF8
:104500006095762FCE01019623E02CD6BC018BE678
:1045100092E001DD60916604709167048EE792E09D
:10452000C0DE609168047091690485E992E0B9DEAB
:1045300060916A0470916B048CEA92E0B2DE609143
:104540006C0470916D048DEB92E0ABDE60916E04B3
:1045500070916F048EEC92E0A4DE60917004709113
:10456000710480EE92E09DDE60917204709173049C
:104570008FEE92E096DE00D000D000D0EDB7FEB70F
:10458000319685EA95E0ADB7BEB712969C938E93AF
:1045900011978EEF92E093838283809174049091BF
:1045A0007504958384832FDBEDB7FEB736960FB67F
:1045B000F894FEBF0FBEEDBF2C960FB6F894DEBF89
:1045C0000FBECDBFDF91CF910F9108950F931F9331
:1045D000CF93DF93EC018B0100D000D000D0EDB77A
:1045E000FEB731968AED95E0ADB7BEB712969C93B3
:1045F0008E931197D383C2837583648345DCEDB7B3
:10460000FEB736960FB6F894FEBF0FBEEDBFCE01D3
:1046100066E771E00E94832E0097D9F4D8018C914F
:104620000E94D21300D000D0EDB7FEB7319688EFCC
:1046300095E0ADB7BEB712969C938E931197D801B3
:104640008C9182831382F9DB0F900F900F900F9063
:1046500045C2CE016BE771E00E94832E0097D1F531
:10466000C80142D5EC0180913C048037F9F4809177
:104670003D0490913E04FE01E81BF90BCF01F7FFCA
:1046800003C0909581959F4F85369105F4F000D039
:1046900000D088E196E0ADB7BEB712969C938E939A
:1046A000119714961C930E9313970AC000D000D054
:1046B00087E596E0EDB7FEB7928381831483038389
:1046C00096DB0F900F900F900F90D0933E04C09305
:1046D0003D0404C2CE0167E871E00E94832E00977A
:1046E000F9F4C80101D5EC0180913C04863699F4B7
:1046F00000D000D080E996E0ADB7BEB712969C938B
:104700008E93119714961C930E93139796DB0F902C
:104710000F900F900F90D0934004C0933F04DEC1E0
:10472000CE0165E971E00E94832E009749F4C8012B
:1047300053D4DC01CB019093420480934104CEC159
:10474000CE0163EA71E00E94832E009749F4C8010C
:1047500043D4DC01CB019093440480934304BEC155
:10476000CE0161EB71E00E94832E009749F4F801BD
:1047700080818093450481E495E00E944A17AEC190
:10478000CE016CEB71E00E94832E009739F4C801D2
:10479000ABD49093470480934604A0C1CE016BEC48
:1047A00071E00E94832E009739F4C8019DD4909344
:1047B00049048093480492C1CE016AED71E00E94E1
:1047C000832E009749F4C80107D4DC01CB019093F4
:1047D0004B0480934A0482C1CE0161EE71E00E94D5
:1047E000832E009749F4C801F7D3DC01CB019093E5
:1047F0004D0480934C0472C1CE0168EE71E00E94BA
:10480000832E009749F4C801E7D3DC01CB019093D4
:104810004F0480934E0462C1CE016BEE71E00E94A2
:10482000832E009749F4C801D7D3DC01CB019093C4
:1048300051048093500452C1CE0162EF71E00E9496
:10484000832E009749F4C801C7D3DC01CB019093B4
:1048500053048093520442C1CE0169EF71E00E947B
:10486000832E009739F4C801B1D4909359048093F2
:10487000580434C1CE0163E072E00E94832E009799
:1048800039F4C801A3D4909355048093540426C1ED
:10489000CE016DE072E00E94832E009739F4C801CA
:1048A00095D4909357048093560418C1CE0167E1C4
:1048B00072E00E94832E009739F4C80187D4909348
:1048C0005B0480935A040AC1CE0165E272E00E9443
:1048D000832E009739F4C80179D490935D048093B6
:1048E0005C04FCC0CE0162E372E00E94832E00975C
:1048F00039F4C8016BD490935F0480935E04EEC0DA
:10490000CE0165E472E00E94832E009739F4C8015D
:104910005DD49093610480936004E0C0CE0168E5AB
:1049200072E00E94832E009739F4C8014FD490930F
:10493000630480936204D2C0CE016BE672E00E94F1
:10494000832E009739F4C80141D490936504809375
:104950006404C4C0CE016EE772E00E94832E00970B
:1049600071F4C80160E070E04AE050E00E94382D28
:10497000DC01CB019093670480936604AFC0CE0145
:1049800065E972E00E94832E009771F4C80160E02F
:1049900070E04AE050E00E94382DDC01CB0190939A
:1049A0006904809368049AC0CE016CEA72E00E94A8
:1049B000832E009781F4C80160E070E04AE050E087
:1049C0000E94382DAB01BC0150936B0440936A04E4
:1049D00086E794E044C0CE016DEB72E00E94832E26
:1049E000009781F4C80160E070E04AE050E00E9466
:1049F000382DAB01BC0150936D0440936C0486E7E5
:104A000094E045C0CE016EEC72E00E94832E0097C8
:104A100081F4C80160E070E04AE050E00E94382D67
:104A2000AB01BC0150936F0440936E0486E794E0A1
:104A300046C0CE0160EE72E00E94832E009791F492
:104A4000C80160E070E04AE050E00E94382DAB0100
:104A5000BC0150937104409370048BED94E0BA0153
:104A600046D63CC0CE016FEE72E00E94832E0097C6
:104A700089F4C80160E070E04AE050E0F9D7AB018A
:104A8000BC0150937304409372048BED94E0BA011F
:104A900031D624C0CE016EEF72E00E94832E0097C3
:104AA00089F4C80160E070E04AE050E0E1D7AB0172
:104AB000BC0150937504409374048BED94E0BA01EB
:104AC0001CD60CC000D08BEC96E0ADB7BEB71296EA
:104AD0009C938E931197D8D90F900F90DF91CF911F
:104AE0001F910F9108950F931F93CF93DF93CDB72D
:104AF000DEB7EC970FB6F894DEBF0FBECDBF61E016
:104B000070E080E090E00E94FE0610E069C061E085
:104B100070E080E090E00E94FE0680E493E00E9456
:104B20001B04182F8A33C9F0803261F08B3751F0A3
:104B3000823241F0EFE1F0E0EC0FFD1FE00FF11DDC
:104B400080830F5F0D3110F053C000E080E493E0EC
:104B50000E94EE0318161906D4F2EFE1F0E0EC0F14
:104B6000FD1FE00FF11D108200E01DC061E070E04C
:104B700080E090E00E94FE0680E493E00E941B0427
:104B8000182F8C32B9F08D37A9F0803251F0823273
:104B900041F0E1E0F0E0EC0FFD1FE00FF11D80833C
:104BA0000F5F0D3128F580E493E00E94EE031816A4
:104BB0001906E4F2E1E0F0E0EC0FFD1FE00FF11D5B
:104BC0001082CE014F96BE016F5F7F4FFFDC1D3715
:104BD00039F40E9475100E94FC12E3DA7EDB08C0F3
:104BE00080E493E00E94EE03181619060CF4ADCF92
:104BF000EC960FB6F894DEBF0FBECDBFDF91CF911C
:104C00001F910F910895EF92FF920F931F93CF93EF
:104C1000DF93CDB7DEB766970FB6F894DEBF0FBE51
:104C2000CDBF80E493E00E94EE03181619060CF045
:104C300096C080E493E00E941B048A3609F479C090
:104C40008B3640F4833539F1833699F1833409F09A
:104C500072C010C0833759F1843720F48C3609F0C4
:104C60006AC02BC0843721F0863709F064C023C0A6
:104C7000B9D875C00E940C1381E495E00E944A17D0
:104C80002CDB00D080EA94E0ADB7BEB712969C93BF
:104C90008E9311970AC00E94E21283DA00D08AEB49
:104CA00094E0EDB7FEB792838183EED83FC079DA06
:104CB00056C013DB54C04BD952C000D083ED94E0F2
:104CC000ADB7BEB712969C938E9311970E94031EA8
:104CD0000F900F9020E08E010F5F1F4F36EDE32EF7
:104CE00034E0F32E81E495E0622FA8012E8B0E9420
:104CF000D10B00D000D0EDB7FEB7F282E182148371
:104D000003830E94031E2E892F5F0F900F900F9038
:104D10000F90243039F700D08DED94E0ADB7BEB7D9
:104D200012969C938E9311970E94031E0F900F90E2
:104D300016C0D9DE14C000D000D0EDB7FEB7319652
:104D40002FED34E0ADB7BEB712963C932E9311977A
:104D50008283138299D80F900F900F900F906696D0
:104D60000FB6F894DEBF0FBECDBFDF91CF911F917C
:104D70000F91FF90EF900895AF92BF92CF92DF9284
:104D8000EF92FF920F93CF93DF935C0177FF0BC0FD
:104D90008DE2D5018C9370956095509541955F4F4C
:104DA0006F4F7F4F03C080E2F50180836A017B0172
:104DB000F9E0F594E794D794C794FA95D1F7E60112
:104DC0005170607070702130B1F5CB01BA012AE0EA
:104DD00030E040E050E094D4DC01CB0180509F4FA4
:104DE000AF4FBF4FE9E0B595A79597958795EA95A1
:104DF000D1F7BC018A30910519F4219660E070E08A
:104E00008DB79EB70A970FB6F8949EBF0FBE8DBFA1
:104E1000EDB7FEB73196C5010196ADB7BEB7129694
:104E20009C938E931197802F90E0019793838283B8
:104E30008AEE96E037C02230E1F5CB01BA0124E6D4
:104E400030E040E050E05CD4DC01CB0180509F4F6B
:104E5000AF4FBF4FF9E0B595A79597958795FA9510
:104E6000D1F7BC018436910519F4219660E070E019
:104E70008DB79EB70A970FB6F8949EBF0FBE8DBF31
:104E8000EDB7FEB73196C5010196ADB7BEB7129624
:104E90009C938E931197802F90E001979383828348
:104EA00082EF96E095838483D783C683718760877A
:104EB00034C08DB79EB70A970FB6F8949EBF0FBE49
:104EC0008DBFCDB7DEB72196C5010196ADB7BEB790
:104ED00012969C938E931197802F90E001979B835D
:104EE0008A838AEF96E09D838C83DF82CE82CB011A
:104EF000BA0128EE33E040E050E002D4DC01CB01FF
:104F000080509F4FAF4FBF4FE9E0B595A79597955C
:104F10008795EA95D1F79987888707D7EDB7FEB7C8
:104F20003A960FB6F894FEBF0FBEEDBFC501DF91F4
:104F3000CF910F91FF90EF90DF90CF90BF90AF9007
:104F40000895CF92DF92EF92FF920F931F93CF932A
:104F5000DF93EC016A017B01122F403080E8580793
:104F60008FEF68078FEF780729F4CE0165EE76E0C2
:104F7000A0D628C0809145048634F1F4DB01CA0133
:104F800023E0880F991FAA1FBB1F2A95D1F7840F12
:104F9000951FA61FB71FBC01CD0125E030E040E002
:104FA00050E002D469017A0180E090E4A0E0B0E032
:104FB000C80ED91EEA1EFB1ECE01B701A601212F85
:104FC000DBDEEC01CE01DF91CF911F910F91FF90BD
:104FD000EF90DF90CF9008952F923F924F925F9283
:104FE0006F927F928F929F92AF92BF92CF92DF92F9
:104FF000EF92FF920F931F93CF93DF9300D0CDB723
:10500000DEB78C01FC0180818D3229F40F5F1F4FC8
:1050100077247A9402C077247394C8016EE270E01A
:105020006AD66C01C80160E070E04AE050E020D52B
:105030001B012C01C114D10469F186010F5F1F4FC0
:10504000C801BE016F5F7F4F4AE050E011D56B0190
:105050007C016980601AF9E0CC0CDD1CEE1CFF1CA1
:10506000FA95D1F700E010E0AAE08A2E912CA12C4D
:10507000B12C0DC0C701B6016B5F7F4F8F4F9F4FA3
:10508000A501940191D369017A010F5F1F4F60164A
:1050900089F703C0CC24DD247601672D70E080E021
:1050A00090E0A2019101E9E0220F331F441F551F38
:1050B000EA95D1F72C0D3D1D4E1D5F1D21D30F909C
:1050C0000F90DF91CF911F910F91FF90EF90DF90A4
:1050D000CF90BF90AF909F908F907F906F905F9098
:1050E0004F903F902F9008950F931F9375DF8B0182
:1050F0009C01809145048634D1F4D901C80142E075
:10510000880F991FAA1FBB1F4A95D1F7800F911FC7
:10511000A21FB31F80509044A140B040BC01CD01FC
:1051200029E030E040E050E03FD389019A010030AF
:1051300080E818078FEF28078FEF38076CF00030F2
:1051400080E8180780E0280780E038073CF00FEF80
:105150001FE720E030E002C000E010E8C8011F9126
:105160000F910895AF92BF92CF92DF92EF92FF928C
:105170000F93CF935C016A017B01C22F809145049C
:105180008634B1F4DB01CA0153E0880F991FAA1FCE
:10519000BB1F5A95D1F78C0D9D1DAE1DBF1DBC01C7
:1051A000CD0125E030E040E050E0FED269017A0117
:1051B000C501B701A6012C2FDFDDCF910F91FF9024
:1051C000EF90DF90CF90BF90AF9008950F931F9313
:1051D00003DF8B019C01809145048634B1F4D90131
:1051E000C80162E0880F991FAA1FBB1F6A95D1F7FB
:1051F000800F911FA21FB31FBC01CD0129E030E039
:1052000040E050E0D1D289019A01003080E81807CF
:105210008FEF28078FEF38076CF0003080E8180711
:1052200080E0280780E038073CF00FEF1FE720E020
:1052300030E002C000E010E8C8011F910F9108950E
:105240000F931F938B019C01809145048634D1F408
:10525000D901C80173E0880F991FAA1FBB1F7A9557
:10526000D1F7800F911FA21FB31FBC01CD0125E014
:1052700030E040E050E098D289019A010050104C93
:105280002F4F3F4FC901B8012AE030E040E050E025
:1052900037D260507F4F8F4F9F4F20E032E040E089
:1052A00050E082D2C9011F910F9108950F931F936F
:1052B00020914504AC01BA01882777FD8095982F8D
:1052C0002634B9F420E03AE040E050E019D26050D2
:1052D00070488C40904029E030E040E050E064D2DB
:1052E00089019A010B5F1F4F2F4F3F4FC901B80132
:1052F0000BC0E9E0660F771F881F991FEA95D1F769
:105300006B5F7F4F8F4F9F4F2AE030E040E050E0CF
:105310004BD2C9011F910F910895CF92DF92EF9266
:10532000FF920F931F93CF93DF937C01FC01E75A09
:10533000FF4F808191810E941B1C2DE5C22ED12C34
:10534000CE0CDF1CE701C55ADF4F88819981B60179
:1053500040E00E948614882329F50E94C206DC01E1
:10536000CB01803D27E0920720E0A20720E0B207B2
:1053700008F09BC000D000D0EDB7FEB7319682E0B8
:1053800097E0ADB7BEB712969C938E931197D70155
:105390008C91828313820E94441F0F900F900F9074
:1053A0000F9083C088819981B6014CE00E946715F7
:1053B0008881998160E00E94AB15888199810E9463
:1053C000AE150E94C206DC01CB01F70182839383F4
:1053D000A483B5836EEE72E080E090E00E94FE064A
:1053E00088819981B6010E94E6158C010E94C2064F
:1053F000DC01CB01F7014281538164817581841BFB
:10540000950BA60BB70B813DF7E09F07F0E0AF07C8
:10541000F0E0BF0728F0D70111961C92119745C004
:10542000BFEF01381B07E1F2888199810E94AE1518
:105430006EEE72E080E090E00E94FE068881998125
:10544000B6010E94E615EC0181E0F7018183FCEFD3
:10545000C030DF0764F024E0C030D20714F0CFEF93
:10546000D3E085E0CC0FDD1F8A95E1F702C0C0E0F4
:10547000D0E8C7010B96BE010E94341987010B5D6D
:105480001F4FC801BE010E943419C701CF9660E0CA
:1054900070E00E943419C8010E942E19DC01CB0172
:1054A000F70187839087A187B287DF91CF911F9102
:1054B0000F91FF90EF90DF90CF900895FC018181D4
:1054C0000895EF92FF920F931F93CF93DF938C0178
:1054D0000E94C206DC01CB01F80142815381648144
:1054E0007581841B950BA60BB70B8938F3E19F07D9
:1054F000F0E0AF07F0E0BF07B0F0F801E55AFF4F6A
:10550000808191810E94AE150E94C206DC01CB0110
:10551000F80182839383A483B5836EEE72E080E00A
:1055200090E00E94FE065DE5E52EF12CE00EF11EF6
:10553000E801C55ADF4F88819981B7010E94E615BD
:10554000D80111962C911197BFEF81389B07E1F498
:105550002223B9F000D000D0EDB7FEB731968EE22D
:1055600097E0ADB7BEB712969C938E931197D80172
:105570008C91828313820E94441F0F900F900F9092
:105580000F90F80111828FC0222321F560ED77E0A2
:1055900080E090E00E94FE06C801BFDE00D000D08F
:1055A000EDB7FEB7319688E597E0ADB7BEB7129676
:1055B0009C938E931197D8018C91828313820E94C1
:1055C000441F0F900F900F900F9088819981B70121
:1055D0000E94E615BCEF80309B076CF0E4E0803061
:1055E0009E0714F08FEF93E0EC0145E0CC0FDD1F38
:1055F0004A95E1F702C0C0E0D0E8C8010B96BE01B1
:105600000E940F1935E2E32EF12CE00EF11EC701C6
:10561000BE010E940F19D80116968C9116978150E1
:1056200016968C9316978D3051F4C7010E942E194F
:10563000DC01CB01F80187839087A187B287D8016D
:1056400016968C9116978823F1F4C7010E942E19A3
:10565000AB01BC01F80187819085A185B285481B0B
:10566000590B6A0B7B0BC801CF960E945F18C701CC
:105670000E942E19DC01CB01F80187839087A18756
:10568000B2878CE08683F801E55AFF4F80819181D3
:105690000E94AE150E94C206DC01CB01F801828394
:1056A0009383A483B583DF91CF911F910F91FF90D6
:1056B000EF9008950B960C94221985960C9422195C
:1056C000CF960E942E192CE231E040E050E018D035
:1056D000AB01BC01AB01772757FD7095672FCA015D
:1056E000089585960C94561985960C9475190B9609
:1056F0000C945B1885960C945B18CF960C945B18F1
:10570000629FD001739FF001829FE00DF11D649FA5
:10571000E00DF11D929FF00D839FF00D749FF00D31
:10572000659FF00D9927729FB00DE11DF91F639FD2
:10573000B00DE11DF91FBD01CF011124089597FBA4
:10574000092E07260AD077FD04D049D006D00020C4
:105750001AF4709561957F4F0895F6F790958195AD
:105760009F4F0895A1E21A2EAA1BBB1BFD010DC07D
:10577000AA1FBB1FEE1FFF1FA217B307E407F50701
:1057800020F0A21BB30BE40BF50B661F771F881FDD
:10579000991F1A9469F760957095809590959B0173
:1057A000AC01BD01CF01089597FB092E05260ED04F
:1057B00057FD04D0D7DF0AD0001C38F4509540952F
:1057C000309521953F4F4F4F5F4F0895F6F79095D5
:1057D0008095709561957F4F8F4F9F4F0895AA1BBD
:1057E000BB1B51E107C0AA1FBB1FA617B70710F0CC
:1057F000A61BB70B881F991F5A95A9F780959095FE
:10580000BC01CD010895EE0FFF1F0590F491E02D2E
:105810000994CF93DF93AC018230910510F442E0FC
:1058200050E0E091A505F091A60520E030E0A0E071
:10583000B0E024C08081918184179507D0F084174F
:10584000950771F482819381109729F013969C93A8
:105850008E9312972CC09093A6058093A50527C020
:105860002115310519F08217930718F49C01BD0129
:10587000EF0192818381DF01E92FF82F3097D1F674
:1058800021153105F9F0C901841B950B8430910570
:1058900080F48A819B816115710521F0FB0193835E
:1058A000828304C09093A6058093A505FE013296DD
:1058B00042C0FE01E80FF91F41935193029799836B
:1058C000888339C08091A3059091A405009741F485
:1058D00080911003909111039093A4058093A305E8
:1058E00020910E0330910F032115310541F42DB79E
:1058F0003EB78091120390911303281B390BE0915E
:10590000A305F091A405E217F30798F42E1B3F0BB3
:105910002417350770F0CA0102962817390748F096
:105920008E0F9F1F9093A4058093A30541935193DD
:1059300002C0E0E0F0E0CF01DF91CF9108950F9336
:105940001F93CF93DF939C01009709F48CC0DC0177
:10595000129713961C921E9212976091A505709152
:10596000A6056115710589F48D919C911197820F9F
:10597000931F2091A3053091A4052817390769F5D5
:10598000B093A405A093A3056EC0FB0140E050E0D6
:1059900001C0FC01EA17FB0730F482819381AF015B
:1059A0000097B9F71FC0E9012297FB83EA830881BA
:1059B0001981C901800F911F8E179F0759F48081AB
:1059C0009181800F911F02969983888382819381B0
:1059D0009B838A834115510529F4B093A605A093B2
:1059E000A50541C0FA01B383A283C191D191EC0F07
:1059F000FD1FAE17BF0781F4F901929182918C0FC0
:105A00009D1F0296DA0111969C938E938281938159
:105A100013969C938E931297E0E0F0E002C0FB0196
:105A2000BC01DB0112968D919C9113970097B9F7F9
:105A3000CB0102962D913C911197820F931F2091DB
:105A4000A3053091A4052817390769F4309729F484
:105A50001092A6051092A50502C0138212827093BF
:105A6000A4056093A305DF91CF911F910F91089535
:105A7000A4E0B0E0EDE3FDE267C42B017A0161151B
:105A8000710529F0DB018C9311969C931197E11419
:105A9000F10439F09701225030402332310508F0EB
:105AA000F8C06C0186010894C11CD11CF80130803B
:105AB0003601832D90E0F5D00097A1F7FDE23F1667
:105AC00061F4D80111963C90119792E0692E712CE7
:105AD000600E711ECC24C3940BC0BBE23B1639F49C
