:1000000093C40000B9C40000B7C40000B5C4000028
:10001000B3C40000B1C40000AFC400000C94460E8D
:10002000ABC400000C94FB0E11C70000AAC700006F
:10003000A3C40000A1C400009FC400009DC4000030
:100040009BC4000099C4000097C4000095C4000040
:1000500093C4000091C400008FC400000C945509A3
:100060008BC4000089C4000087C4000085C4000060
:1000700083C4000081C400007FC400007DC4000070
:100080007BC4000079C4000077C4000075C4000080
:1000900073C4000071C400006FC400006DC4000090
:1000A0006BC4000069C4000067C4000000000000C9
:1000B000000000002A2B28000000000000000000C3
:1000C0000000000000000000000000002C9EB4A012
:1000D000A1A2A434A6A7A5AE362D3738271E1F200F
:1000E000212223242526B333B62EB7B89F848586D4
:1000F0008788898A8B8C8D8E8F9091929394959618
:100100009798999A9B9C9D2F3130A3AD3504050695
:100110000708090A0B0C0D0E0F10111213141516F7
:100120001718191A1B1C1DAFB1B0B5000904020045
:1001300001030000000921010100012265000705FB
:10014000840340000105010902A1010901A1008504
:100150000105091901290315002501950375018180
:10016000029501750581030501093009310938152A
:1001700081257F750895038106C0C005010906A188
:10018000018502050719E029E7150025017501958C
:1001900008810295017508810395067508150025EB
:1001A000650507190029658100C000C18081C11261
:1001B00001000202000040412336800001010200DC
:1001C00001120100020000004041233680000101BD
:1001D0000200011803410072006400750069006E9E
:1001E000006F0020004C004C0043002203410072CD
:1001F000006400750069006E006F0020004C00650F
:10020000006F006E006100720064006F000403095B
:1002100004080B00020202010009040000010202AE
:100220000000052400100105240101010424020638
:1002300005240600010705810310004009040100A0
:10024000020A0000000705020240000007058302C1
:10025000400000070605040100080A0B0C0D090008
:1002600000000200080E0000030401000B00000063
:100270000000000000000000000000000004080270
:10028000011040804010204080408008020401801E
:100290004020100201108010204040040404040497
:1002A0000304050202020204030202020206060619
:1002B00006060604040202020400000000230026D1
:1002C0000029002C002F0000000000250028002B32
:1002D000002E00310000000000240027002A002D1D
:1002E00000300041726475696E6F207265737461CD
:1002F00072746564210046726964676520646F6F7B
:1003000072206F70656E656400467269646765206F
:10031000646F6F7220636C6F73656400506F7369F4
:1003200074697665207065616B20646574656374BB
:1003300065642E004472696674696E67207570206A
:1003400061667465722068656174696E6720746F98
:100350006F2073686F72742E005065616B3A2025B0
:100360007320457374696D617465643A2025732E3A
:10037000204E657720657374696D61746F723A20E1
:100380002573004E65676174697665207065616BE1
:100390002064657465637465642E004472696674D4
:1003A000696E6720646F776E206166746572206382
:1003B0006F6F6C696E6720746F6F2073686F7274F3
:1003C0002E005065616B3A2025732E2045737469A9
:1003D0006D617465643A2025732E204E6577206523
:1003E0007374696D61746F723A202573004D6F6488
:1003F0006520202000426565722020200046726939
:10040000646765200046726964676520436F6E7398
:10041000742E004265657220436F6E7374616E7452
:1004200000426565722050726F66696C6520004FEE
:1004300066662020202020202020202000496E7683
:10044000616C6964206D6F6465200049646C65208F
:10045000666F7220202020202020202020202000D5
:100460005374617274696E672075702E2E2E202071
:100470002020202000436F6F6C696E6720666F72CA
:100480002020202020202020200048656174696EF3
:100490006720666F7220202020202020202000442A
:1004A0006F6F72206F70656E20202020202020202A
:1004B0002020200054656D702E20636F6E74726F63
:1004C0006C204F464620202000556E6B6E6F776E75
:1004D0002073746174757321202020202000207304
:1004E00000202020202020004368616E6765642082
:1004F000746F2070726F66696C65206D6F64652023
:10050000696E206D656E752E0054656D7020636F89
:100510006E74726F6C207475726E6564206F66669F
:1005200020696E206D656E752E0020202020202011
:100530002020202020202000426565722074656DF7
:10054000702073657420746F20257320696E204DB0
:10055000656E752E00202020202000467269646799
:10056000652074656D702073657420746F20257329
:1005700020696E204D656E752E0020202020200001
:10058000005EBCE2613FDD83C29C7E20A3FD1F4173
:100590009DC3217FFCA2401E5F01E3BD3E6082DC63
:1005A000237D9FC1421CFEA0E1BF5D0380DE3C6253
:1005B000BEE0025CDF81633D7C22C09E1D43A1FF43
:1005C0004618FAA427799BC584DA3866E5BB590733
:1005D000DB856739BAE406581947A5FB7826C49A23
:1005E000653BD987045AB8E6A7F91B45C6987A2413
:1005F000F8A6441A99C7257B3A6486D85B05E7B903
:100600008CD2306EEDB3510F4E10F2AC2F7193CDF2
:10061000114FADF3702ECC92D38D6F31B2EC0E50E2
:10062000AFF1134DCE90722C6D33D18F0C52B0EED2
:10063000326C8ED0530DEFB1F0AE4C1291CF2D73C2
:10064000CA947628ABF517490856B4EA6937D58BB2
:100650005709EBB536688AD495CB2977F4AA4816A2
:10066000E9B7550B88D6346A2B7597C94A14F6A892
:10067000742AC896154BA9F7B6E80A54D7896B3582
:1006800044656661756C7420636F6E7374616E741B
:1006900073206C6F616465642E0044656661756CDF
:1006A000742073657474696E6773206C6F61646520
:1006B000642E004C3A0025733C42523E000A004929
:1006C0006E76616C696420636F6D6D616E6420721B
:1006D0006563656976656420627920417264756935
:1006E0006E6F3A20256300543A7B2242656572544E
:1006F000656D70223A25732C002242656572536540
:1007000074223A25732C002242656572416E6E2276
:100710003A006E756C6C2C00222573222C00224648
:10072000726964676554656D70223A25732C0022E6
:10073000467269646765536574223A25732C0022FA
:10074000467269646765416E6E223A006E756C6C24
:100750007D0A00222573227D0A00443A000A0053D4
:100760003A7B00222573223A25737D0A00433A7BA7
:1007700000222573223A25757D0A00563A7B002215
:100780002573223A25737D0A00222573223A2573A8
:100790002C00222573223A222563222C0022257365
:1007A000223A25752C00222573223A25752C0052F9
:1007B00065636569766564206E657720736574741A
:1007C000696E673A202573203D202573004D6F64C4
:1007D000652073657420746F20256320696E20770F
:1007E000656220696E746572666163650042656565
:1007F000722074656D702073657420746F2025738A
:100800002062792074656D706572617475726520FF
:1008100070726F66696C652E004265657220746542
:100820006D702073657420746F20257320696E20AD
:1008300077656220696E746572666163652E004635
:1008400072696467652074656D70207365742074C7
:100850006F20257320696E2077656220696E74654C
:1008600072666163652E00436F756C64206E6F74F1
:100870002070726F636573732073657474696E673B
:10088000006E756C6C0025642E2530316400256483
:100890002E253032640025642E2530336400556ED9
:1008A00061626C6520746F2066696E6420616464A7
:1008B0007265737320666F722073656E736F72203A
:1008C0006F6E2070696E2025640054656D706572CE
:1008D00061747572652073656E736F72206F6E2020
:1008E00070696E20256420646973636F6E6E656342
:1008F0007465640054656D7065726174757265200D
:1009000073656E736F72206F6E2070696E20256440
:10091000207265636F6E6E65637465640000A70C7A
:100920008319361D8719391D11241FBECFEFDAE058
:10093000DEBFCDBF13E0A0E0B1E0EEE8FDE602C00F
:1009400005900D92A235B107D9F716E0A2E5B3E004
:1009500001C01D92A33BB107E1F719E0C4E2D9E061
:1009600004C02297FE010E94E630CE31D107C9F7BC
:100970000E944A0D0C94BB360C94570D8091BE0317
:100980009091BF032091C0033091C103821B930B50
:100990008F73907008952091BE033091BF038091B2
:1009A000C0039091C1032817390749F0E091C003B3
:1009B000F091C103E258FC4F808190E008958FEFE1
:1009C0009FEF08952091BE033091BF038091C00333
:1009D0009091C10328173907A9F0E091C003F09165
:1009E000C103E258FC4F80812091C0033091C103C4
:1009F0002F5F3F4F2F7330703093C1032093C0039C
:100A000090E008958FEF9FEF08950F931F93CF937A
:100A1000DF93EC01162FE881F9810480F581E02D48
:100A20000995082FE881F9810680F781E02DCE0134
:100A3000612F0995802F90E0DF91CF911F910F9149
:100A40000895CF92DF92EF92FF920F931F93CF936F
:100A5000DF936C017B01EA0100E010E00EC0D701DA
:100A60006D917D01D601ED91FC910190F081E02D19
:100A7000C6010995080F191F2197209781F7C80112
:100A8000DF91CF911F910F91FF90EF90DF90CF906A
:100A90000895883071F1893068F4823031F1833003
:100AA00020F4813009F042C01DC0833089F08430C9
:100AB000E9F512C08B3059F18C3028F48930E9F017
:100AC0008A30A1F51EC08C3031F18E3079F529C005
:100AD000809180008F7703C0809180008F7D80930C
:100AE0008000089584B58F7702C084B58F7D84BD62
:100AF0000895809190008F7707C0809190008F7D3E
:100B000003C080919000877F80939000089580912A
:100B1000C0008F7703C08091C0008F7D8093C0009C
:100B200008958091C200877F8093C20008950F933B
:100B30001F93CF93DF938C01EB01209771F0CB01D2
:100B40000E946D33AC01D801ED91FC910280F381DC
:100B5000E02DC801BE01099502C080E090E0DF9160
:100B6000CF911F910F9108950895FC0104C08091C9
:100B7000F100819361506623D1F7289884E6809331
:100B80006E0308959FB7F89487708093E900809171
:100B9000F2009FBF089590916D039923B1F057FF24
:100BA0001AC016C0289820936E033091F10031933B
:100BB0006E17C1F7009739F02091F200222319F443
:100BC0002BE62093E800AFBF08958FEF9FEF0895C5
:100BD0008FEF9FEF0895AFB7F89487708093E90087
:100BE0002091F20030E0CA01241735070CF4C90146
:100BF000FB01680F24E6DCCFCF93DF930F92CDB7D4
:100C0000DEB7BE016F5F7F4F41E050E0C4DF81304F
:100C1000910519F4898190E002C08FEF9FEF0F904A
:100C2000DF91CF910895CF93DF9311C082E0E4DF8D
:100C30002FEF8F3F9207C9F0E091BE03F091BF0301
:100C4000E258FC4F8083D093BF03C093BE03C09192
:100C5000BE03D091BF032196CF73D0708091C003A3
:100C60009091C103C817D90709F7DF91CF91089573
:100C70009FB7F89487708093E9008091E80085FF22
:100C800005C02091F20080E4821B01C080E09FBF7C
:100C900008951092E90010926C0310926B039093E8
:100CA0006A038093690308950F931F93CF93C82F0E
:100CB0008A01DB016EEF35C0CD010196C7FF04C08C
:100CC000FD01DC01E49102C0EC91DC0120916B0399
:100CD00030916C038091690390916A03281739075A
:100CE000ACF48091E8008570E1F38091E80082FD2A
:100CF0001DC0E093F10080916B0390916C0301960D
:100D00008F739070009711F46093E80080916B03EB
:100D100090916C03019690936C0380936B03015048
:100D200010400115110541F6CA0102C08FEF9FEF77
:100D3000CF911F910F910895FC0180818E5F808378
:100D400080E861E172E042E450E0AECF1F93CF93C0
:100D5000DF930F92CDB7DEB79C01162F8091E8008C
:100D600082FFFCCFC901612F7983FFDE8BEF809377
:100D7000E800812F7981972F0F90DF91CF911F91FC
:100D80000895FC0181819081913A51F4813209F0FA
:100D90004DC080E066E173E047E050E085DF44C08D
:100DA000913209F043C0803231F486E193E067E08C
:100DB00070E0CCDF39C0823209F038C08281809384
:100DC0001D038091160390911703A0911803B09111
:100DD0001903803B24E0920720E0A20720E0B2073D
:100DE00039F580911D0380FD12C087E797E7909346
:100DF0000108809300082BE088E190E00FB6F8949A
:100E0000A895809360000FBE209360000DC088E11C
:100E10000FB6F89480936000109260000FBEA89502
:100E2000109201081092000881E0089580E0089572
:100E300081E008958093E9008091F200882319F001
:100E40008AE38093E800089583E0F4CF1F920F9225
:100E50000FB60F9211242F933F934F935F936F938D
:100E60007F938F939F93AF93BF93EF93FF93809163
:100E7000E1001092E10083FF0FC01092E90091E0C1
:100E80009093EB001092EC0092E39093ED0010929F
:100E90006D0398E09093F00082FF21C083E0CADFE9
:100EA00082E070DE882319F080E793E0BCDE809159
:100EB0006F03882341F080916F03815080936F030B
:100EC000882309F45D9A80916E03882341F0809114
:100ED0006E03815080936E03882309F4289AFF9152
:100EE000EF91BF91AF919F918F917F916F915F91A2
:100EF0004F913F912F910F900FBE0F901F9018951B
:100F0000FC0180818F5F808380E86CE271E049E1C1
:100F100050E0CACECF93DF930F92CDB7DEB71982E0
:100F2000CE01019609DFCE010196EADF898190E0CA
:100F30000F90DF91CF91089580E865E471E045E678
:100F400050E0B2CEFC0191818081813A31F481E0A0
:100F5000913091F0933089F413C0813271F49B3059
:100F600021F482818093150305C09A3041F4828177
:100F70008093140381E00895089580E0089580E04F
:100F800008951F920F920FB60F921124EF92FF92C5
:100F90000F931F932F933F934F935F936F937F9381
:100FA0008F939F93AF93BF93EF93FF93CF93DF9371
:100FB000CDB7DEB76297DEBFCDBF1092E90080915A
:100FC000E80083FFE2C0CE01019668E0CEDD82EF4B
:100FD0008093E800898187FF05C09091E80090FF29
:100FE000FCCF03C09EEF9093E80090E09C01207638
:100FF00030702115310509F0B0C02A81222329F46F
:101000001092F1001092F100B9C0213009F4B6C07D
:10101000233009F4B3C0253049F48091E80080FF03
:10102000FCCF8B8180688093E300A8C0263009F054
:1010300068C02C81EF80F884223049F580E090E090
:101040002A8B27DE67DF99E08E01075F1F4FF801CB
:10105000392F11923A95E9F799872A892A8791E0E1
:101060009E8790E8988B9AEF998B20916B03309133
:101070006C03275F3F4F3C872B878D87C70109DEB5
:1010800080E0B80149E050E00FDE44DF77C0C701DF
:101090002A8BFFDD2A89223239F482E290E04CDF8C
:1010A000009709F06BC06EC0213079F48F8198856C
:1010B0008830910519F481E080936803809168037A
:1010C000882389F06FEA71E016C0233009F05AC016
:1010D0008B81882359F0823061F0813009F052C051
:1010E00063ED71E008C061EC71E005C06DE072E095
:1010F00002C06BEE71E0FB01449180E850E0D4DD6A
:101100003DC0273009F43EC0283021F481E08093AF
:10111000F10034C0293091F583709070009791F5FB
:1011200081E090E031E026E38093E9003093EB002A
:10113000FC01E655FE4FE491E093EC002093ED00B6
:1011400001968530910581F78EE78093EA00109231
:10115000EA008B8180936D0311C08F81988599DDA2
:101160008D81882321F4CE0101960BDE05C08230EB
:1011700049F4CE010196E6DE882321F08EEF8093BC
:10118000E80003C081E28093EB006296DEBFCDBF32
:10119000DF91CF91FF91EF91BF91AF919F918F918F
:1011A0007F916F915F914F913F912F911F910F917F
:1011B000FF90EF900F900FBE0F901F901895B7CC37
:1011C00008954F925F926F927F92AF92BF92CF92AB
:1011D000DF92EF92FF920F931F93CF93DF93CDB7E0
:1011E000DEB7A1970FB6F894DEBF0FBECDBF5C018E
:1011F000E42ECB01F22E19A221E02F1510F03AE0D7
:10120000F32E21E2C22ED12CCC0EDD1E4F2C552404
:101210006624772403C0E02E512FC9016E2D752F4F
:10122000A30192010E94933089019A01F09E802DC2
:101230001124E81A8E2D0894C108D1088A3010F4C0
:10124000805D01C0895CF6018083011511052105CF
:10125000310509F7C501B6016ADCA1960FB6F8940D
:10126000DEBF0FBECDBFDF91CF911F910F91FF90D9
:10127000EF90DF90CF90BF90AF907F906F905F9096
:101280004F9008952115310549F4DC01ED91FC9151
:101290000190F081E02D642F0995089592CF0C9470
:1012A000EA3008950C94803108951F920F920FB682
:1012B0000F9211242F933F938F939F93AF93BF93DC
:1012C0008091520390915303A0915403B091550320
:1012D0003091C203232F2D5F2D3720F40196A11DDD
:1012E000B11D05C0232F2A570296A11DB11D2093C1
:1012F000C2038093520390935303A0935403B0937B
:1013000055038091560390915703A0915803B091D3
:1013100059030196A11DB11D809356039093570365
:10132000A0935803B0935903BF91AF919F918F91B0
:101330003F912F910F900FBE0F901F9018950F9314
:101340001F938FB7F894009152031091530320918B
:101350005403309155038FBFB801C9011F910F91FC
:1013600008950F931F939FB7F8940091560310911F
:101370005703209158033091590386B5A89B06C0A6
:101380008F3F21F00F5F1F4F2F4F3F4F9FBF322FD7
:10139000212F102F0027080F111D211D311D52E094
:1013A000000F111F221F331F5A95D1F7B801C90131
:1013B0001F910F910895CF92DF92EF92FF92CF93FA
:1013C000DF936B017C01CDDFDC01CB01EC010EC0B2
:1013D000C8DF6C1B7D0B83E0683E780738F008940B
:1013E000C108D108E108F108C851DC4FC114D1048B
:1013F000E104F10469F7DF91CF91FF90EF90DF9066
:10140000CF90089510926D0381E08093D70080EA19
:101410008093D80082E189BD89B580FFFDCF61E06E
:1014200070E080E090E0C7DF80E98093D8008CE036
:101430008093E2001092E000559A209A08956F92EE
:101440007F928F929F92AF92BF92CF92DF92EF9254
:10145000FF920F931F93CF93DF93F82E6A01809131
:101460006D03882309F46AC0EB018A016AEFE62E56
:1014700077E0B72EBF208F2D90E0E0E26E2E712C2A
:1014800068227922FAE3AF2EA0E48A2E912C8822DA
:1014900099224AC08F2DECDB882349F4EA9409F4A1
:1014A0004DC061E070E080E090E085DF3DC0282F16
:1014B00030E0021713070CF4802F081B11099FB7A7
:1014C000F894B092E9006114710439F003C01092ED
:1014D000F10081508823D9F71AC0F7FC03C0282FE8
:1014E000FE0111C0482F9E0107C0F9012F5F3F4F39
:1014F000E491E093F10041504423B9F706C03191E3
:101500003093F10021502223D1F7C80FD11D8091D3
:10151000E80085FF06C00115110529F48114910426
:1015200011F0A092E8009FBF0115110509F0B2CF9C
:101530005D9884E680936F03C60102C08FEF9FEF32
:10154000DF91CF911F910F91FF90EF90DF90CF909F
:10155000BF90AF909F908F907F906F900895EF9283
:10156000FF920F931F93CF93DF930F92CDB7DEB708
:1015700089838B017A0184E0BE016F5F7F4F41E078
:1015800050E05DDF84E4B801A70159DF0F90DF91DF
:10159000CF911F910F91FF90EF90089582E048E066
:1015A00050E0DDCFFC01168217821086118612866C
:1015B00013861482BC016C5F7F4FF0CFCF93DF9313
:1015C000DC01E62F683810F0E85825C0F0E067FF2E
:1015D00013C0E058F04081E090E002C0880F991FEE
:1015E000EA95E2F7809514969C91149798231496A7
:1015F0009C931497E0E00FC0E455FF4FE491EE2375
:10160000F1F0E7FF08C014968C9114978D7F149623
:101610008C931497EF77ED0186E0EE2321F09E8105
:101620009E1709F41E82815021968823B1F7BD01CF
:101630006C5F7F4FCD01B2DF81E090E002C080E0BF
:1016400090E0DF91CF910895CF93DF93DC01E62FF7
:10165000683810F0E85825C0F0E067FF12C0E05885
:10166000F04081E090E002C0880F991FEA95E2F710
:1016700014969C911497982B14969C931497E0E0E1
:1016800010C0E455FF4FE491EE2309F441C0E7FF99
:1016900008C014968C911497826014968C931497BA
:1016A000EF7716968C9116978E1741F117968C91BD
:1016B00017978E1719F118968C9118978E17F1F0CD
:1016C00019968C9119978E17C9F01A968C911A97C2
:1016D0008E17A1F01B968C911B978E1779F080E0E6
:1016E00090E0ED01C80FD91F2E81222311F4EE8363
:1016F00005C0019686309105A1F70AC0BD016C5F57
:101700007F4FCD014BDF81E090E0DF91CF910895D5
:1017100081E090E013969C938E93129780E090E086
:10172000F4CF0F931F93CF93DF930F92CDB7DEB714
:101730008C01698380911D03882351F083E0BE01F1
:101740006F5F7F4F41E050E07ADE181619063CF0DB
:1017500081E090E0F8019383828380E090E00F9035
:10176000DF91CF911F910F910895019739F0880F64
:10177000991F880F991F02970197F1F708957894A0
:1017800084B5826084BD84B5816084BD85B5826086
:1017900085BD85B5816085BDEEE6F0E08081816024
:1017A0008083E1E8F0E01082808182608083808124
:1017B00081608083E0E8F0E0808181608083E1E9FE
:1017C000F0E0808182608083808181608083E0E9B5
:1017D000F0E0808181608083E1ECF0E080818460D2
:1017E0008083808182608083808181608083E3EC5C
:1017F000F0E0808181608083E0ECF0E080818260B5
:101800008083E2ECF0E0808181608083EAE7F0E0B1
:101810008081846080838081826080838081816018
:101820008083808180688083089590E0FC01E35884
:10183000FD4F249185569D4FFC018491882341F1F1
:1018400090E0880F991FFC01EB52FD4F4591549198
:10185000DA0189539D4FFC0185919491FC019FB75A
:10186000F8948C91662331F4209582238C938081A7
:10187000822308C0623049F4322F309583238C9341
:101880008081822B80839FBF0895822B8C939FBF82
:1018900008950F931F93CF93DF930F92CDB7DEB7C9
:1018A000282F30E0F901E15AFD4F8491F901E35806
:1018B000FD4F1491F901E556FD4F04910023C9F045
:1018C000882319F06983E5D86981E02FF0E0EE0FF5
:1018D000FF1FE953FD4F85919491DC019FB7F89468
:1018E0008C91662319F41095812301C0812B8C9370
:1018F0009FBF0F90DF91CF911F910F910895CF93CC
:10190000DF93282F30E0F901E15AFD4F8491F9016E
:10191000E358FD4FC491F901E556FD4FD491DD2305
:1019200089F0882309F0B5D8ED2FF0E0EE0FFF1F06
:10193000E754FD4F85919491FC0120812C2381E097
:1019400090E011F480E090E0DF91CF910895109243
:1019500073031092720388EE93E0A0E0B0E08093EE
:10196000740390937503A0937603B093770382E298
:1019700093E090937103809370031092660310922A
:101980005D0310925C0384E393E090935B03809388
:101990005A030895CF93DF9380E793E060E071EE00
:1019A000E3D886E061E075DF85E061E072DF86E024
:1019B00061E03BDF85E061E038DF84E060E035DF57
:1019C0000E94E1180E943619D2D4E8D660ED77E083
:1019D00080E090E0F0DCCBE4D6E0CE010E94711B09
:1019E000CE010E94461CCE010E94AF1C40D200D006
:1019F00083EE92E0EDB7FEB7928381830E940124CB
:101A00000F900F90C7ECD3E0CE0157D0CE0162E02B
:101A100044EF51E055D0DF91CF91089590DCDC0187
:101A2000CB014091C3035091C4036091C5037091F1
:101A3000C603841B950BA60BB70B893E23E09207C8
:101A400020E0A20720E0B207E8F079DCDC01CB015E
:101A50008093C3039093C403A093C503B093C603BC
:101A600063D40E94471683D499D636D68BE496E089
:101A70000E94AF1C8BE496E00E94291C8BE496E048
:101A80000E947E1C8AD2882319F08AD20E9481206B
:101A90000C94DC2A74DE87E693E0B4DC7BDFC0E0E4
:101AA000D0E0BCDF2097E9F30E940000FACF1F923C
:101AB0000F920FB60F921124FFCF83E061E0B5CEF5
:101AC000BF92CF92DF92EF92FF920F931F93CF932B
:101AD000DF93B62E00E010E06A01EE24FF24C62F4B
:101AE000D0E0219711C084B5806284BDC701B601E2
:101AF00062DC84B58F7D84BD0C171D071CF4C70103
:101B0000B60159DC0F5F1F4F0B1568F3DF91CF91C2
:101B10001F910F91FF90EF90DF90CF90BF900895AD
:101B2000EF92FF920F931F93CF93DF93EC010E94EC
:101B30003C1D8E01065E1F4FC8010E943C1D24E320
:101B4000E22EF12CEC0EFD1EC7010E943C1DCE01C1
:101B500062E00E94431DC80162E00E94431DC7016C
:101B600062E00E94431DDF91CF911F910F91FF9082
:101B7000EF9008950F931F93CF93DF938C010097FD
:101B800059F0EC01C25BDF4FC017D10729F06A970B
:101B9000CE010E94421DF8CFDF91CF911F910F918E
:101BA00008951F93CF93DF93EC01162F0E94431DDE
:101BB000CE014A96612F0E94431DCE01C496612F2B
:101BC0000E94431DDF91CF911F910895EF92FF92E4
:101BD0000F931F93CF93DF938C01F62FE72FC0E075
:101BE000D0E03AE1E32EF12CCE9D9001CF9D300D57
:101BF000DE9D300D1124C801820F931F6F2F7E2FA1
:101C00000E944A1DAB01F82FE92F2196C330D10560
:101C100059F7DF91CF911F910F91FF90EF900895A9
:101C20009B01A901662757FD6095762FBA015527BC
:101C30004427CCDFAB01BC01AB01772757FD709582
:101C4000672FCA010895C4960C94FA1DC4960C948B
:101C5000061E0F931F93CF93DF93EC018B010E941D
:101C60000C1ECE014A96B8010E940C1ECE01C496ED
:101C7000B8010E940C1EDF91CF911F910F91089522
:101C8000C4960C942E1EC4960C944D1E1F920F9257
:101C90000FB60F9211248F9381E08093D4038F911C
:101CA0000F900FBE0F901F9018950F931F93CF9317
:101CB000C82F57DBAB01BC010091CC031091CD03C1
:101CC0002091CE033091CF03401B510B620B730B5D
:101CD00040328EE4580780E0680780E0780708F417
:101CE00050C08091D3038093D103C093D3039091CC
:101CF000D1038091D303981709F443C032DBDC0190
:101D0000CB018093CC039093CD03A093CE03B093EB
:101D1000CF039091D3038091D203981731F480912F
:101D2000D5039091D603019605C08091D50390917B
:101D3000D60301979093D6038093D5036091DB037C
:101D40007091DC038091D5039091D6039B012F5FA6
:101D50003F4F4091D9035091DA032817390724F4F3
:101D60005093D6034093D5038091D5039091D60329
:101D7000415050408417950724F47093D603609324
:101D8000D503CF911F910F9108950F931F93CF9378
:101D9000C82FE7DAAB01BC010091C8031091C90359
:101DA0002091CA033091CB03401B510B620B730B84
:101DB00040328EE4580780E0680780E07807B8F08A
:101DC0008091D2038093D003C093D2039091D0032B
:101DD0008091D203981759F0C4DADC01CB018093CB
:101DE000C8039093C903A093CA03B093CB03CF91C8
:101DF0001F910F9108951F920F920FB60F92112409
:101E00002F933F934F935F936F937F938F939F9302
:101E1000AF93BF93CF93DF93EF93FF93D1E01C9BDE
:101E2000D0E0C1E01D9BC0E08091DD03D81711F028
:101E30008D2F3BDF8091DE03C81711F08C2FA5DFBB
:101E4000D093DD03C093DE03FF91EF91DF91CF913B
:101E5000BF91AF919F918F917F916F915F914F91C2
:101E60003F912F910F900FBE0F901F9018958FEFFD
:101E70009FE79093DC038093DB0380E090E89093EE
:101E8000DA038093D9031092D8031092D7031092EB
:101E9000D6031092D5031092D40381E08093D3032C
:101EA0008093D2038093D1038093D0031092CC030C
:101EB0001092CD031092CE031092CF031092C8035C
:101EC0001092C9031092CA031092CB0388E060E01D
:101ED000ACDC89E060E0A9DC87E060E0A6DC81E0C2
:101EE000E4DE81E052DFEAE6F0E080818062808318
:101EF000EE9AE8E6F0E0808181608083EBE6F0E036
:101F000080818063808308952FB7F894880F991F8C
:101F10009093D6038093D503660F771F7093DA03EF
:101F20006093D903440F551F5093DC034093DB03A8
:101F30009093D8038093D7032FBF08952FB7F894B9
:101F40008091D5039091D6038091D5039091D603CB
:101F5000817029F08091D7039091D8030AC08091B5
:101F6000D5039091D603959587959093D803809348
:101F7000D7032FBF0895E2DF2091DF033091E00304
:101F80008217930739F0DADF9093E0038093DF0341
:101F900081E008958091D40308958091D403089539
:101FA0001092D403089580E161E03FDC8FE061E0AE
:101FB0003CDC81E161E039DC8CB58F7D8CBD8CB57A
:101FC00082608CBD8DB581608DBD8CB588608CBD07
:101FD0008CB584608CBD8CB580618CBD8CB5806403
:101FE0008CBD0895CF93DF93EC01862F6C8361E065
:101FF0001CDC88E28E83CE01D6DF24E030E20DC007
:10200000FE01E80FF91F3587019684319105C1F76C
:1020100019A221506596222319F080E090E0F0CFBC
:10202000DF91CF910895CF93DF93EC018C8160E035
:1020300030DC8D818EBD0DB407FEFDCF8C8161E05B
:1020400028DCDF91CF910895CF93DF93EC018D8150
:1020500082608D83CE01E7DF81E090E086DB8D81B9
:102060008D7F8D83CE01DFDFDF91CF910895CF93F8
:10207000DF93EC018D816295607F8F70682B6D839B
:10208000CE01D1DFCE01E0DFDF91CF9108951F9324
:10209000CF93DF93EC01162F8D81442311F08160E3
:1020A00001C08E7F8D83CE01BEDF212F30E044E062
:1020B000359527954A95E1F7CE01622FD8DFCE01FD
:1020C000612FD5DFDF91CF911F9108951F93CF939B
:1020D000DF93EC01162F41E0DADF4B858A8590E033
:1020E00025E130E0829FF001839FF00D929FF00D7B
:1020F0001124EC0FFD1FE40FF11D15874F5F4B8777
:1021000080EA9FE00197F1F781E090E0DF91CF91C5
:102110001F91089540E0BBDF80EA9FE00197F1F74F
:102120000895FC0160856E7F60876460F3CFFC01D9
:102130006085262F226020876660ECCFFC016781D6
:10214000262F246027836C60E5CFCF93DF9300D0E8
:1021500000D0CDB7DEB7198220E42A8324E12B8397
:1021600024E52C83FC012485421708F040E0FC01A3
:1021700042876387FE01E40FF11D2181260F20684D
:10218000622FC8DF0F900F900F900F90DF91CF91CB
:102190000895CF93DF93EC0162E0BCDF1A861B86C3
:1021A000DF91CF91089561E0B5CFCF93DF93EC013C
:1021B0004C871A861B861D8236DF80E593ECD5DAC4
:1021C000CE0163E054DF80E593ECCFDACE0163E02B
:1021D0004EDF88EE93E0C9DACE0163E048DF80E5A8
:1021E00093ECC3DACE0162E042DF80E593ECBDDA26
:1021F000CE0168E28FDFCE01D6DFCE0198DFCE01BF
:1022000090DFCE01C6DFCE0199DFDF91CF91089537
:10221000DA0120E030E075E1679FB0011124680F1A
:10222000791F90EBFB01E20FF31F85858F3D11F4C1
:102230009C9301C08C932F5F3F4F11962431310541
:1022400089F7FA01148A0895EF92FF920F931F9372
:10225000CF93DF93EC0168830B9662DCCE01875A43
:102260009F4F5EDCCE0189559F4F5ADC1A821B823C
:102270001C821D8219828FEF8E838EE090E00FD832
:102280008C0168810E94262225EFE22EF12CEC0EB3
:10229000FD1EF7011183008387E090E00E94201B60
:1022A0008C01F701608171810E948B19C950DF4F49
:1022B00019830883DF91CF911F910F91FF90EF90C9
:1022C0000895CF93DF93EC01FC01EB50FF4F808129
:1022D00091810E945209FE01E950FF4F8081918156
:1022E0000E94331BCE0189559F4F44DCCE01875A93
:1022F0009F4F40DCCE010B963DDCDF91CF910895DE
:102300008130910541F489E495E067E19DDF88E43F
:1023100094E066E199CF009731F488E494E0D1DF4E
:1023200089E495E0CECF089589E495E00E943B2FA3
:1023300089E495E00E94382F882351F48091140499
:10234000823611F0863621F489E495E00E94662EEB
:1023500088E494E00E943B2F88E494E00E94382FA8
:10236000882321F488E494E00C94662E08958F92DB
:102370009F92AF92BF92CF92DF92EF92FF928091A5
:102380001404823619F0803709F097C1C090150403
:10239000D090160480E0C81680E8D80629F4D092C0
:1023A0001804C09217048FC189E495E00E94383068
:1023B000C81AD90AD092F303C092F20389E495E0D7
:1023C0000E943C30FC019093F9038093F8038091C4
:1023D0004A06982F9F5F90934A068C3309F054C0A9
:1023E00010924A062091F2033091F303D90137FF8E
:1023F00004C0AA27BB27A21BB30B80913004909185
:1024000031044091F4035091F5036091F60370910B
:10241000F703A817B9071CF580912C0490912D049F
:102420008E179F07E4F080912E0490912F04E817F7
:10243000F907ACF0AB31B1053CF1C901AA2797FD12
:10244000A095BA2F840F951FA61FB71F8093F40382
:102450009093F503A093F603B093F70315C0DB0147
:10246000CA01E3E0B595A79597958795EA95D1F7C9
:10247000481B590B6A0B7B0B4093F4035093F503F5
:102480006093F6037093F7032091F2033091F30306
:102490008091060490910704AA2797FDA095BA2F72
:1024A0004427582F692F7A2F481B590B6A0B7B0B37
:1024B00037FF2BC08091240490912504AA2797FD13
:1024C000A095BA2F480F591F6A1F7B1F452F562F03
:1024D000672F772767FD7A9550930704409306048A
:1024E0008091080490910904AA2797FDA095BA2F1E
:1024F0004427582F692F7A2F481B590B6A0B7B0BE7
:1025000080912804909129042AC0809122049091FE
:102510002304AA2797FDA095BA2F480F591F6A1FB9
:102520007B1F452F562F672F772767FD7A9550938E
:102530000704409306048091080490910904AA2797
:1025400097FDA095BA2F4427582F692F7A2F481B43
:10255000590B6A0B7B0B80912A0490912B04AA27BC
:1025600097FDA095BA2F480F591F6A1F7B1F452F53
:10257000562F672F772767FD7A955093090440936C
:1025800008046091060470910704882777FD809500
:10259000982F442737FD4095542F0E9461304B01FE
:1025A0005C01F9E0B594A79497948794FA95D1F7D4
:1025B0008092FA039092FB03A092FC03B092FD0379
:1025C0006091260470912704882777FD8095982FC5
:1025D0002091F4033091F5034091F6035091F703F5
:1025E0000E9461306B017C01A9E0F594E794D794D7
:1025F000C794AA95D1F7C092FE03D092FF03E09250
:102600000004F09201046091080470910904882785
:1026100077FD8095982F2091F8033091F903442796
:1026200037FD4095542F0E946130AB01BC01B9E0E9
:102630007595679557954795BA95D1F740930204DC
:10264000509303046093040470930504809115046F
:1026500090911604AA2797FDA095BA2F880D991D71
:10266000AA1DBB1D8C0D9D1DAE1DBF1D840F951F8A
:10267000A61FB71F20911E0430911F04A9016627D1
:1026800057FD6095762F84179507A607B70784F046
:102690004091200450912104662757FD6095762FC4
:1026A000481759076A077B0714F4DB01CA019C012C
:1026B000309318042093170406C080E090E89093AC
:1026C000160480931504FF90EF90DF90CF90BF9099
:1026D000AF909F908F9008958091F103843038F4EB
:1026E000823088F4882331F0813069F406C0843068
:1026F00051F403C086E060E008C086E061E0C9D81C
:1027000085E060E005C086E061E0C3D885E061E077
:10271000C0C80F931F930E949F098B019C01809159
:10272000E1039091E203A091E303B091E403081B5D
:10273000190B2A0B3B0BB801C9011F910F9108958A
:102740000F931F930E949F098B019C018091E503C9
:102750009091E603A091E703B091E803081B190BE1
:102760002A0B3B0BB801C9011F910F9108950F93DC
:102770001F930E949F098B019C018091E903909116
:10278000EA03A091EB03B091EC03081B190B2A0B91
:102790003B0BB801C9011F910F9108958F929F9231
:1027A000AF92BF92CF92DF92EF92FF9284E0A7D8D0
:1027B000009789F48091F103843059F000D086EFBE
:1027C00092E0EDB7FEB7928381830E9401240F90BF
:1027D0000F9084E005C0809114048F3621F485E0C9
:1027E0008093F103B2C18091170490911804F0E82E
:1027F00080309F0709F480C188E494E00E94382F5C
:10280000882309F479C189E495E00E94382F882350
:1028100009F089C180911404823609F46DC18037B2
:1028200009F081C169C10E949F09DC01CB0180933D
:10283000E9039093EA03A093EB03B093EC0369DF01
:10284000DC01CB01813A2BEB92072DE0A20720E0BF
:10285000B20798F08091EF03882379F471DFDC01EF
:10286000CB01813CE7E29E07E9E0AE07E0E0BE076E
:1028700020F08091F003882329F08091F1038330C8
:1028800009F049C088E494E00E9435302091170493
:10289000309118044091320450913304240F351FB5
:1028A00028173907A4F480911404863669F089E466
:1028B00095E00E9435302091150430911604265E73
:1028C0003F4F281739073CF51092F1033EC188E4C9
:1028D00094E00E9435302091170430911804409103
:1028E000340450913504240F351F821793079CF44C
:1028F00080911404863669F089E495E00E943530B1
:1029000020911504309116042A5130408217930704
:1029100014F481E065CFFDDEDC01CB018134F7E703
:102920009F07FBE1AF07F0E0BF0710F01092EF0345
:1029300007DFDC01CB01813A2BEB92072DE0A207E8
:1029400020E0B20708F401C11092F003FEC081E05C
:102950008093EF030E949F09DC01CB018093E10388
:102960009093E203A093E303B093E40380904004C8
:1029700090904104AA24BB24FADE28EEC22E23E064
:10298000D22EE12CF12CA70196010E9493308216E1
:102990009306A406B50628F4209140043091410422
:1029A00005C0E5DEA70196010E94933060911B04EB
:1029B00070911C04882777FD8095982F442737FD58
:1029C0004095542F0E94613020E13EE040E050E00D
:1029D0000E94B530690188E494E00E943530FC0122
:1029E000EC19FD09F0930B04E0930A04C09017045E
:1029F000D090180480913A0490913B0420913C04BB
:102A000030913D04820F931F62E070E00E9480309D
:102A10006C0D7D1D6E177F070CF497C0D0920D04CE
:102A2000C0920C0469C08093F0030E949F09DC01EE
:102A3000CB018093E5039093E603A093E703B09363
:102A4000E80380903E0490903F04AA24BB248FDECC
:102A5000F8EECF2EF3E0DF2EE12CF12CA70196014A
:102A60000E94933082169306A406B50628F420919E
:102A70003E0430913F0405C07ADEA70196010E9412
:102A800093306091190470911A04882777FD80951E
:102A9000982F442737FD4095542F0E94613020E144
:102AA0003EE040E050E00E94B530690188E494E0E7
:102AB0000E943530FC01EC0DFD1DF0930B04E093FA
:102AC0000A04C0901704D0901804809136049091A5
:102AD00037042091380430913904820F931F62E04B
:102AE00070E00E9480306C0D7D1DE617F7076CF1D9
:102AF000D0920F04C0920E0482E072CE84E00E9455
:102B00007F0C8130910509F500D089E093E0EDB7A5
:102B1000FEB7928381830E94012482E08093F103B7
:102B20000F900F9012C08091F103843048F48230EE
:102B300008F079CE882309F40ACF813031F473CFBD
:102B40008430E1F2853009F46ECEFF90EF90DF9093
:102B5000CF90BF90AF909F908F90089584E194E0C4
:102B600061E070E049E050E00E94B23580911504C8
:102B7000909116049093EE038093ED0308950F93C4
:102B80001F93CF93DF93EC01F5E075956795FA9568
:102B9000E1F766567E4F8B01222717FD2095322FD5
:102BA0000F3F11052105310571F06CF00B3981E003
:102BB000180780E0280780E038074CF00AE911E0A8
:102BC00020E030E004C000E011E020E030E0688167
:102BD0007981882777FD8095982FA90198010E9417
:102BE0006130DC01CB01E9E0B595A7959795879514
:102BF000EA95D1F799838883B1DFDF91CF911F9157
:102C00000F9108950F931F93CF93DF93EC01F5E09D
:102C100075956795FA95E1F76A597D4F8B012227E3
:102C200017FD2095322F063682E0180780E028072E
:102C300080E038076CF0013083E0180780E0280757
:102C400080E038074CF000E013E020E030E004C002
:102C500006E612E020E030E068817981882777FD80
:102C60008095982FA90198010E946130DC01CB0169
:102C7000E9E0B595A79597958795EA95D1F799835A
:102C800088836CDFDF91CF911F910F910895AF92F0
:102C9000BF92CF92DF92EF92FF920F93CF93DF9389
:102CA000CDB7DEB76B970FB6F894DEBF0FBECDBFC2
:102CB0008091F003882309F4D2C08091F103813020
:102CC00009F4CDC088E494E00E944E307C0120E8F5
:102CD0008030920751F180910E0490910F04209161
:102CE000360430913704820F931F8E159F0534F4FC
:102CF000B701681B790B89E194E084DF80910E04B1
:102D000090910F042091380430913904820F931F61
:102D1000E816F90634F4B701681B790B89E194E0F1
:102D20002EDF00D08CE193E042C00ADDDC01CB0154
:102D3000813AE9ED9E07E8E0AE07E0E0BE0708F45F
:102D40008EC0E7DCDC01CB018138FDE69F07FDE0AA
:102D5000AF07F0E0BF0708F482C088E494E00E9467
:102D6000353020910E0430910F0440913804509179
:102D70003904240F351F821793070CF070C088E4C4
:102D800094E00E9435307C0180910E0490910F04F4
:102D90002091380430913904820F931FB701681BCA
:102DA000790B89E194E0EBDE00D084E393E0ADB7EA
:102DB000BEB712969C938E9311970E9428240F9071
:102DC0000F90A701662757FD6095762FCE01439699
:102DD00023E009E00E947A2C5C0140910E0450919E
:102DE0000F04662757FD6095762FCE010A9623E0E3
:102DF0000E947A2C6C014091190450911A046627A4
:102E000057FD6095762FCE01019623E00E94952B09
:102E1000EDB7FEB738970FB6F894FEBF0FBEEDBF03
:102E2000319629E533E0ADB7BEB712963C932E93A9
:102E30001197B382A282D582C482978386830E942F
:102E400028241092F003F0921304E0921204EDB7DC
:102E5000FEB738960FB6F894FEBF0FBEEDBF809157
:102E6000EF03882309F4CFC08091F103882309F48C
:102E7000CAC088E494E00E9452307C01F0E88030BF
:102E80009F0781F180910C0490910D0420913C04E6
:102E900030913D04820F931FE816F90634F4B70110
:102EA000681B790B8BE194E0ADDE80910C0490916E
:102EB0000D0420913A0430913B04280F391F2E1540
:102EC0003F0564F420913C0430913D04280F391FE4
:102ED000B701621B730B8BE194E051DE00D083E8F5
:102EE00093E039C02DDCDC01CB01813AE9ED9E078E
:102EF000E8E0AE07E0E0BE0708F485C00ADCDC01CC
:102F0000CB018138FDE69F07FDE0AF07F0E0BF078A
:102F100008F479C088E494E00E94353020910C04D4
:102F200030910D0440913A0450913B04420F531FDD
:102F3000481759070CF067C080913C0490913D04FC
:102F4000820F931FB701681B790B8BE194E017DEAA
:102F500000D08BE993E0ADB7BEB712969C938E93E9
:102F600011970E9428240F900F90A701662757FD04
:102F70006095762FCE01019623E009E00E947A2C1D
:102F80005C0140910C0450910D04662757FD60953B
:102F9000762FCE010A9623E00E947A2C6C01409194
:102FA0001B0450911C04662757FD6095762FCE01B7
:102FB000439623E00E94952BEDB7FEB738970FB6E6
:102FC000F894FEBF0FBEEDBF319622EC33E0ADB7F3
:102FD000BEB712963C932E931197B382A282D582EC
:102FE000C482978386830E9428241092EF03F09274
:102FF0001104E0921004EDB7FEB738960FB6F894BE
:10300000FEBF0FBEEDBF6B960FB6F894DEBF0FBECE
:10301000CDBFDF91CF910F91FF90EF90DF90CF90D8
:10302000BF90AF90089584E194E061E070E049E0E2
:1030300050E00C949A3582E68093140480E098E284
:1030400090931604809315049093180480931704AA
:1030500080E190E090931A048093190480E09AE054
:1030600090931C0480931B0479CD8DE194E06AE079
:1030700070E04BE250E00C94B2358DE194E06AE0F0
:1030800070E04BE250E00C949A351F93CF93DF939E
:1030900083E480931D0488E592E090933F0480933D
:1030A0003E0480EB94E0909341048093400480E0E0
:1030B0009CE3909321048093200480E098E0909317
:1030C0001F0480931E0480E09EE19093230480936C
:1030D000220490932504809324048AE990E090933D
:1030E00027048093260480E09AEF9093290480932C
:1030F000280490932B0480932A048AE190E0909313
:103100002D0480932C048DEC9FEF90932F048093DB
:103110002E0420E031E030933104209330043093CA
:1031200033042093320420E03FEF309335042093A2
:10313000340426E630E0309337042093360490932D
:1031400039048093380483E390E090933B048093A8
:103150003A048AE99FEF90933D0480933C0481E018
:1031600080934204C8E4D4E0CE0161E00E9456306E
:1031700084E080934304CE0164E00E94593013E060
:1031800010934404CE0163E00E945D3082E080939E
:103190004504C9E4D5E0CE0162E00E94563085E0E6
:1031A00080934604CE0165E00E9459301093470495
:1031B000CE0163E00E945D3058DFDF91CF911F9117
:1031C000089580E090E00E94AA35813049F033DF15
:1031D0005CDF80E090E061E00E94D335BFDC45CF4A
:1031E00022DF4BCF809314048F56823050F480E05E
:1031F00090E890931604809315049093180480939C
:103200001704ACCC8091140408958091F1030895C3
:1032100089E495E00C943530FBDF20911504309162
:103220001604281739076CF4809124049091250422
:1032300090930704809306048091280490912904B8
:103240000CC08091220490912304909307048093F2
:10325000060480912A0490912B0490930904809392
:1032600008041092F0031092EF03089583E0809316
:10327000F10389E495E00E94662E88E494E00E94C0
:10328000662E52D8C9CF80911504909116040895E6
:1032900088E494E00C9435308091170490911804E0
:1032A0000895CF93DF93EC0180911504909116045B
:1032B000D0931604C09315048C1B9D0B97FF03C07D
:1032C000909581959F4F813891050CF0A5DF4FD8DF
:1032D00065DA8091ED039091EE038C1B9D0B97FFB7
:1032E00003C0909581959F4F813891050CF036DC95
:1032F000DF91CF91089590931804809317048CDF89
:1033000036D84CDA2BCC81E090E00C94801180E030
:1033100090E00C948011FC01768365831482108206
:1033200089E090E09283818381E083830895CF9345
:10333000DF93EB01CB0167E00E94CC2291E02F816B
:10334000821390E0892FDF91CF910895EF92FF9241
:103350000F931F93CF93DF93EC018B01E42E8D81AC
:103360009E810E941922FF2406C0CE01B801DFDF32
:10337000882359F414C08D819E81B8010E9449228E
:10338000882329F0FE1459F4F0CF81E001C080E0D9
:10339000DF91CF911F910F91FF90EF900895F394DB
:1033A000EF14A8F3E8CFEF92FF920F931F93CF9300
:1033B000DF93EC017B018A018D819E8112D78D8183
:1033C0009E81B7010E94E9218D819E816EEB40E0D4
:1033D000A2D78D819E81E2D7F80180838D819E8165
:1033E000DDD7F80181838D819E81D8D7F801828352
:1033F0008D819E81D3D7F80183838D819E81CED725
:10340000F80184838D819E81C9D7F80185838D81E0
:103410009E81C4D7F80186838D819E81BFD7F80134
:1034200087838D819E81BAD7F80180878D819E81A7
:10343000D8D6DF91CF911F910F91FF90EF90089513
:10344000CF93DF93EA01AFDFCE0168E00E94CC2288
:1034500091E02885821390E0892FDF91CF91089524
:10346000EF92FF920F931F93CF93DF938C01EB01A9
:103470007A01FC0185819681B4D6F8018581968117
:10348000BE01A7D7F801858196816EE440E043D75D
:10349000F80185819681F701628140E03CD7F8010F
:1034A00085819681F701638140E035D7888180313D
:1034B00039F0F80185819681F701648140E02BD7CE
:1034C000F801858196818DD6F8018581968168E421
:1034D000408121D7F8018081882331F06AE070E0D3
:1034E00080E090E00E94DB09F8018581968179D621
:1034F000DF91CF911F910F91FF90EF900895EF9280
:10350000FF920F931F93CF93DF93CDB7DEB72A9728
:103510000FB6F894DEBF0FBECDBF7C018B01242F08
:10352000AE014F5F5F4F2A878BDF2A858823D9F052
:10353000F80180818031C9F02A3051F02A3050F0F2
:103540002B3021F02C3031F48FE705C08FE503C01C
:103550008FE301C08FE18D83C701B801AE014F5FDA
:103560005F4F7EDF02C080E001C081E02A960FB687
:10357000F894DEBF0FBECDBFDF91CF911F910F91A9
:10358000FF90EF900895FC0163830895CF93DF933C
:10359000EC018D819E8125D68D819E8147D78D81BD
:1035A0009E8164E44881B7D68B81882321F189818B
:1035B0009A818930910551F089309105B4F08A30B3
:1035C000910549F08B30910581F40AC06EE570E0F9
:1035D00080E090E00EC06CEB70E080E090E009C00D
:1035E00067E771E080E090E004C06EEE72E080E09A
:1035F00090E00E94DB09DF91CF910895CF93DF9394
:10360000CDB7DEB729970FB6F894DEBF0FBECDBF9A
:10361000AE014F5F5F4F14DF882339F03A8120E01D
:10362000898190E0822B932B02C081E89FEF29963D
:103630000FB6F894DEBF0FBECDBFDF91CF910895D6
:103640000F931F93CF93DF93EC010E94EA308C011C
:1036500060E070E0AE010E945533C801DF91CF9168
:103660001F910F9108950C94803108958130910538
:1036700059F410924E0610924D0682E493E0909316
:103680004C0680934B060895009731F482E493E052
:1036900090934C0680934B0608950F931F93CF93FE
:1036A000DF93CDB7DEB765970FB6F894DEBF0FBED8
:1036B000CDBF8C01CE01019644E150E00E94413320
:1036C000C801BE016F5F7F4F0E94DF0865960FB68D
:1036D000F894DEBF0FBECDBFDF91CF911F910F9148
:1036E0000895CF93DF93EC01FC01EF59FF4F8FEF6B
:1036F0008083CE016AE00E94F20FCE0164E144E0D3
:103700000E94D510CE010E94D310DF91CF91089571
:103710008F929F92AF92BF92CF92DF92FF920F93C0
:103720001F93CF93DF93CDB7DEB729970FB6F894E9
:10373000DEBF0FBECDBF4C01CB01AC01662757FDEC
:103740006095762F6E010894C11CD11CC60121E042
:1037500009E00E947A2C00E010E0FC2CCD2C85E0E2
:10376000A82EB12C05C060E20E9466100F5F1F4FAB
:103770008F2D9C2D0E946D339501281B390BC401A0
:103780000217130780F36F2D7C2D0E94DF08299606
:103790000FB6F894DEBF0FBECDBFDF91CF911F9162
:1037A0000F91FF90DF90CF90BF90AF909F908F9040
:1037B0000895CF93DF93EC016CE042E00E94A510E6
:1037C0006BDDBC0180E86030780709F4FFCFCE01E3
:1037D0009FDFDF91CF910895CF93DF93EC0166E0F7
:1037E00042E00E94A51088E494E00E94382F8823CC
:1037F00039F04EDDBC01CE018BDFDF91CF91089512
:10380000FFCFCF93DF93EC016CE041E00E94A51065
:103810003ADDBC0180E86030780709F4FFCFCE01C3
:1038200077DFDF91CF910895CF93DF93EC0166E0CE
:1038300041E00E94A51089E495E00E94382F88237A
:1038400039F0E6DCBC01CE0163DFDF91CF91089552
:10385000FFCFCF93DF93EC01E7DFCE01D2DFCE01C4
:10386000BBDFCE01A6DFDF91CF910895CF93DF9329
:10387000D82FC92F6FED0E9466108D2F9C2F60915D
:103880001D040E946610DF91CF910895CF93DF93BE
:10389000D82FC92F60E040E00E94A5108D2F9C2FEB
:1038A0006DEE73E0FADE8D2F9C2F60E041E00E9408
:1038B000A5108D2F9C2F65EF73E0EFDE8D2F9C2FD1
:1038C00060E042E00E94A5108D2F9C2F6DEF73E009
:1038D000E4DE8D2F9C2F62E141E00E94A5108D2F28
:1038E0009C2FC4DF8D2F9C2F62E142E00E94A51027
:1038F0008D2F9C2FBBDFDF91CF910895CF93DF9366
:10390000D82FC92F67E040E00E94A5107BDC8636E7
:1039100051F0873618F48236D1F40AC08F3691F010
:103920008037A9F40AC08D2F9C2F65E074E013C086
:103930008D2F9C2F63E174E00EC08D2F9C2F61E2D0
:1039400074E009C08D2F9C2F6FE274E004C08D2FAE
:103950009C2F6DE374E0A1DEDF91CF910895CF92AB
:10396000DF92EF92FF920F931F93CF93DF93EC01BF
:103970004CDC182FFE01EF59FF4F80811817C9F159
:103980000C2FCD2ECE0160E043E00E94A5103DDC5F
:10399000823071F0833028F4882391F0813001F572
:1039A00013C08430A9F0843038F08530C9F414C0D5
:1039B000CE016BE474E018C0CE0160E674E014C080
:1039C000CE0165E774E010C0CE016AE874E00CC077
:1039D000CE016FE974E008C0CE0164EB74E004C06E
:1039E000802F9C2D69EC74E058DEFE01EF59FF4FEB
:1039F00010831230C1F4CE0169E043E00E94A510AB
:103A00000E9489136B017C010E94A013DC01CB0191
:103A1000C816D906EA06FB0618F40E9489130CC0E2
:103A20000E94A01309C01230C0F4CE016CE043E044
:103A30000E94A5100E94B71328EE33E040E050E04A
:103A40000E949330CE01BA01A9012AE030E00E9421
:103A50004209CE016EED74E020DEDF91CF911F911F
:103A60000F91FF90EF90DF90CF90089581E090E06C
:103A7000FDCD80E090E0FACDFC0188E0808F82E00F
:103A8000818F08950895FC01862F880F8C5F808FA9
:103A9000618F08952F923F924F925F926F927F9223
:103AA0008F929F92AF92BF92CF92DF92EF92FF924E
:103AB0000F931F93CF93DF93FC0144805580668062
:103AC0007780408651866286738680809180A2804E
:103AD000B38084829582A682B782408351836283B9
:103AE0007383C088D188E288F388C48AD58AE68A3D
:103AF000F78A84859585A685B785808B918BA28B67
:103B0000B38BD18DC08D2C2E33248C019D010C19CB
:103B10001D092E093F09080F191F2A1F3B1F0D2ED3
:103B200004C0B595A795979587950A94D2F7081B79
:103B3000190B2A0B3B0BD701C60104C0B595A795FD
:103B400097958795DA95D2F7080F191F2A1F3B1F03
:103B5000DB01CA010C2E04C0B595A79597958795F2
:103B60000A94D2F7080F191F2A1F3B1FC1010197A2
:103B7000B501A40104C075956795579547958A9539
:103B8000D2F7040F151F261F371FD301C20104C02F
:103B9000B595A79597958795CA95D2F7080F191FE0
:103BA0002A1F3B1FC1010297B701A60104C07595EA
:103BB0006795579547958A95D2F7041B150B260BE9
:103BC000370B0487158726873787B801C901DF912E
:103BD000CF911F910F91FF90EF90DF90CF90BF900A
:103BE000AF909F908F907F906F905F904F903F909D
:103BF0002F900895FC014485558566857785AB0136
:103C0000772757FD7095672FCA010895FC016485D9
:103C10007585868597850895FC01CB01AA2797FDB8
:103C2000A095BA2FDC019927882780839183A283EE
:103C3000B38384839583A683B78380879187A28784
:103C4000B38784879587A687B787808B918BA28B54
:103C5000B38B848B958BA68BB78B0895FC01408921
:103C600051896289738984859585A685B78584176E
:103C70009507A607B7075CF484899589A689B78953
:103C8000481759076A077B072CF0CB01089580E09D
:103C900090E8089580E090E80895FC0140895189FA
:103CA0006289738984859585A685B78548175907E4
:103CB0006A077B075CF484899589A689B78984178C
:103CC0009507A607B7072CF0CB01089580E090E890
:103CD000089580E090E80895AF92BF92CF92DF926E
:103CE000EF92FF920F931F93CF93DF93CDB7DEB781
:103CF00029970FB6F894DEBF0FBECDBF8BE496E0D8
:103D0000C5DDC1DA5C0120E88030920719F460E07B
:103D100078E201C0BC01882777FD8095982F0E942A
:103D2000F92D8C0160911E0470911F04882777FD86
:103D30008095982F0E94F92D6C016091200470915C
:103D40002104882777FD8095982F0E94F92DAC01DA
:103D5000C801B6010E94840F0E949F096B017C017B
:103D60004DC00E94BB0F882371F10E949F096B0117
:103D70007C010E949E0F0E942F2E93DA8BE496E026
:103D800040DD0E94CD0F8823C9F10E94D00F7BDA5D
:103D9000AC01662757FD6095762FCE01019621E094
:103DA00009E00E947A2C00D000D028E335E0EDB77E
:103DB000FEB73283218394838383FDD40F900F90C9
:103DC0000F900F902FC0112321F48BE496E019DDA2
:103DD0000DC0103859F48BE496E06CE041E00E948D
:103DE000A5108BE496E065E575E057DC1F5F63E0A6
:103DF00070E080E090E00E94DB0901C010E00E94CA
:103E00009F09DC01CB018C199D09AE09BF098031E6
:103E1000F7E29F07F0E0AF07F0E0BF0708F4A1CF9B
:103E2000C5013FDA29960FB6F894DEBF0FBECDBFAD
:103E3000DF91CF911F910F91FF90EF90DF90CF9086
:103E4000BF90AF900895AF92BF92CF92DF92EF9262
:103E5000FF920F931F93CF93DF93CDB7DEB72997D0
:103E60000FB6F894DEBF0FBECDBF8BE496E00EDD3B
:103E700013DA5C0120E88030920719F460E078E200
:103E800001C0BC01882777FD8095982F0E94F92DED
:103E90008C0160911E0470911F04882777FD809526
:103EA000982F0E94F92D6C016091200470912104DB
:103EB000882777FD8095982F0E94F92DAC01C801C5
:103EC000B6010E94840F0E949F096B017C014DC0C6
:103ED0000E94BB0F882371F10E949F096B017C0136
:103EE0000E949E0F0E942F2E06DA8BE496E061DC82
:103EF0000E94CD0F8823C9F10E94D00FCDD9AC010B
:103F0000662757FD6095762FCE01019621E009E0E6
:103F10000E947A2C00D000D02BE535E0EDB7FEB73B
:103F200032832183948383836CD40F900F900F90FE
:103F30000F902FC0112321F48BE496E03ADC0DC0E2
:103F4000103859F48BE496E06CE042E00E94A51032
:103F50008BE496E06AE775E0A0DB1F5F63E070E04A
:103F600080E090E00E94DB0901C010E00E949F0900
:103F7000DC01CB018C199D09AE09BF098031F7E244
:103F80009F07F0E0AF07F0E0BF0708F4A1CFC5013D
:103F9000B2D929960FB6F894DEBF0FBECDBFDF9120
:103FA000CF911F910F91FF90EF90DF90CF90BF9036
:103FB000AF900895CF92DF92EF92FF920F931F93ED
:103FC000CF93DF9300D000D0CDB7DEB78BE496E07F
:103FD0005DDC18D9182FE82FE656EB3028F4F0E016
:103FE000EA5BFC4F808101C080E090E060E070E01F
:103FF00043E050E00E94840F82E6898386E68A834C
:1040000080E78B838FE68C830E949F096B017C0184
:1040100057C00E94BB0F882309F437C00E949F0934
:104020006B017C010E949E0FE1E0F0E0EC0FFD1FB0
:10403000E80FF91F8081D6D88BE496E05FDC0E9400
:10404000CD0F882309F43CC00E94D00FDBD8823604
:1040500011F442DE49C0D6D8863611F4F4DE44C0ED
:10406000D1D8803721F400D088EE94E006C0CAD8B9
:104070008F36D1F500D089E095E0EDB7FEB7928399
:10408000818399D30F900F902FC0002321F48BE4EC
:1040900096E034DC0DC0003859F48BE496E067E01C
:1040A00040E00E94A5108BE496E06AE275E0F5DA44
:1040B0000F5F63E070E080E090E00E94DB0901C0E8
:1040C00000E00E949F09DC01CB018C199D09AE091B
:1040D000BF098031F7E29F07F0E0AF07F0E0BF07CC
:1040E00008F497CF812F7ED80F900F900F900F90EC
:1040F000DF91CF911F910F91FF90EF90DF90CF90C4
:104100000895CF92DF92EF92FF92CF9380E090E0FC
:1041100060E070E042E050E00E94840F0E949F093E
:104120006B017C01C0E046C00E94BB0F882329F0D0
:104130000E949F096B017C0102C0CC2329F48BE40F
:1041400096E0A4DBC0E00FC0C03869F40E949E0F67
:10415000482F8BE496E060E00E94A5108BE496E087
:1041600061EE74E09ADA0E94CD0F8823E1F00E949C
:10417000D00F0E949E0F8130910539F08230910559
:1041800059F0009781F416DF26C082E62BD88BE425
:1041900096E0B4DBA1DD1FC086E624D88BE496E070
:1041A000ADDB51DE18C0CF5F63E070E080E090E0EF
:1041B0000E94DB090E949F09DC01CB018C199D093B
:1041C000AE09BF09803127E2920720E0A20720E074
:1041D000B20708F4A9CFCF91FF90EF90DF90CF9076
:1041E0000895FF920F931F93CF93DF93FC011081EB
:1041F000C181D281F8948981012F00958023898320
:1042000078948DE7F82EFA9431F182E090E00E94E4
:10421000B50B88818123B9F3F8948A8180238A833E
:104220008981812B8983789484EF91E00E94B50B7A
:10423000F89489818023898380E590E00E94B50B02
:1042400088818123C1E009F0C0E0789484EA91E09C
:104250000E94B50B01C0C0E08C2FDF91CF911F9160
:104260000F91FF9008951F93CF93DF93FC0110816E
:10427000C181D281912F9095F8948A8189238A8374
:104280008981812B898360FF0BC08AE090E00E94C6
:10429000B50B8A81812B8A83789487E390E00AC0EA
:1042A00081E490E00E94B50B8A81812B8A83789407
:1042B00085E090E00E94B50BDF91CF911F910895AA
:1042C0000F931F93CF93DF93FC011081C181D281A3
:1042D000F8948981812B89838A81012F009580231D
:1042E0008A8383E090E00E94B50B898180238983D3
:1042F0008AE090E00E94B50BC881789485E390E055
:104300000E94B50B1C2381E009F480E0DF91CF917E
:104310001F910F910895CF92DF92EF92FF920F932A
:104320001F93CF93DF930F92CDB7DEB78C01F62E9C
:1043300028E0C22ED12CEE24E3948E2D8F2161E053
:1043400009F460E0C80149838EDFEE0C0894C108CF
:10435000D1084981C114D10481F74423A9F4F89408
:10436000D8011196ED91FC91129791818C918095D5
:10437000892381831196ED91FC91129792818C9102
:1043800080958923828378940F90DF91CF911F913C
:104390000F91FF90EF90DF90CF900895EF92FF92F2
:1043A0000F931F93CF93DF938C01C8E0D0E0FF24DD
:1043B000EE24E394C80184DF8111FE28EE0C2197DE
:1043C000C9F78F2DDF91CF911F910F91FF90EF9043
:1043D0000895CF92DF92EF92FF920F931F93CF93A6
:1043E000DF930F92CDB7DEB77C01C62E65E540E0C6
:1043F000798391DF0C2D7981172FCC24DD24F801EE
:1044000061918F01C70140E086DF0894C11CD11C77
:10441000F8E0CF16D10499F70F90DF91CF911F915B
:104420000F91FF90EF90DF90CF9008956CEC40E0FB
:1044300072CFFC01138615861486128611861086AB
:104440001782168215821482138208951F93CF93C8
:10445000DF93EC01162F862F60E00E94150C612F70
:1044600070E0FB01E358FD4FE491E883FB01E55662
:10447000FD4FE491F0E0EE0FFF1FE754FD4F8591F3
:10448000949189839A83CE01D4DFDF91CF911F91DC
:104490000895BF92CF92DF92EF92FF920F931F93F6
:1044A000CF93DF93EC016B018D85882309F052C017
:1044B000CE0197DE882321F41B861D861C865BC0F7
:1044C000CE0160EF40E027DF01E0FF24EE2411E0A1
:1044D000CE01F6DEB82ECE01F3DE91E0B91619F466
:1044E0008130A9F42FC0B816D1F48B85181738F491
:1044F000FE01EF0DF11D8381802349F402C01817DE
:1045000031F060E0193008F040C01C873EC0FE0169
:10451000EF0DF11D8381802B838361E009C06B2D3A
:10452000FE01EF0DF11D902F9095838189238383E8
:10453000CE0199DE1F5F000F11F4F39401E087E0D4
:104540008F1530F6113430F0EB86EE2001F581E066
:104550008D871DC01B861D861C8680E0D60120E04D
:1045600030E0FE01E20FF31F93819D932F5F3F4FD9
:1045700028303105B1F7DF91CF911F910F91FF9056
:10458000EF90DF90CF90BF900895E12EC9CF8B813F
:10459000882301F381E0E2CFDC0180E007C0ED91E8
:1045A000E827F0E0E058FA4F849161506623B9F7AC
:1045B0000895CF93DF93CDB7DEB7C058D0400FB684
:1045C000F894DEBF0FBECDBFFE01EB57FF4F419108
:1045D0005191CE01019660E870E09F010E94A333E3
:1045E00080E793E0BE016F5F7F4F0E94DF08C058F5
:1045F000DF4F0FB6F894DEBF0FBECDBFDF91CF9176
:104600000895CF92DF92EF92FF920F93CF93DF93B3
:10461000CDB7DEB729970FB6F894DEBF0FBECDBF7A
:104620007C016B010E940819AC01662757FD60955B
:10463000762FCE01019622E009E00E947A2C00D06C
:1046400000D027EE36E0EDB7FEB7328321839483A6
:104650008383AFDF0F900F900F900F900E9443194C
:10466000AC01662757FD6095762FCE01019622E0BA
:104670000E947A2C00D000D029EF36E0EDB7FEB7CB
:10468000328321839483838394DF0F900F9087E09C
:1046900097E0EDB7FEB7928381838BDF0F900F9089
:1046A000E114F10459F400D082E197E0EDB7FEB7D0
:1046B000928381837EDF0F900F900FC000D000D0D7
:1046C00088E197E0EDB7FEB792838183F482E382BD
:1046D00070DF0F900F900F900F900E944819AC015F
:1046E000662757FD6095762FCE01019622E009E0FE
:1046F0000E947A2C00D000D02EE137E0EDB7FEB753
:10470000328321839483838354DF0F900F900F9023
:104710000F900E944C19AC01662757FD6095762FCB
:10472000CE01019622E00E947A2C00D000D02FE228
:1047300037E0EDB7FEB7328321839483838339DF7B
:104740000F900F908FE397E0EDB7FEB792838183D0
:1047500030DF0F900F90C114D10459F400D08CE4D5
:1047600097E0EDB7FEB79283818323DF0F900F9020
:104770000FC000D000D083E597E0EDB7FEB792837D
:104780008183D482C38215DF0F900F900F900F901A
:1047900029960FB6F894DEBF0FBECDBFDF91CF9143
:1047A0000F91FF90EF90DF90CF90089580E090E020
:1047B00060E070E026CFCF93DF93CDB7DEB7C0586F
:1047C000D0400FB6F894DEBF0FBECDBFFE01EB5751
:1047D000FF4F41915191CE01019660E870E09F0139
:1047E0000E94A333CE01019660E070E00ADFC0585A
:1047F000DF4F0FB6F894DEBF0FBECDBFDF91CF9174
:104800000895CF93DF93CDB7DEB7C058D0400FB631
:10481000F894DEBF0FBECDBFFE01EB57FF4F4191B5
:104820005191CE01019660E870E09F010E94A33390
:1048300080E090E0BE016F5F7F4FE3DEC058DF4F46
:104840000FB6F894DEBF0FBECDBFDF91CF910895B4
:10485000EF92FF920F931F93CF93DF93CDB7DEB705
:10486000C058D0400FB6F894DEBF0FBECDBF8E014A
:1048700007571F4FF801E190F1908F0100D08AE5B2
:1048800097E0EDB7FEB79283818393DE0F900F9090
:10489000CE01019660E870E0A70198010E94A33361
:1048A00080E793E0BE016F5F7F4F0E94DF0800D07A
:1048B0008DE597E0EDB7FEB7928381837ADE0F90A6
:1048C0000F90C058DF4F0FB6F894DEBF0FBECDBFBC
:1048D000DF91CF911F910F91FF90EF90089500D03D
:1048E00000D000D0EDB7FEB7319629E837E0ADB77C
:1048F000BEB712963C932E93119793838283758350
:10490000648357DE8DB79EB706960FB6F8949EBFA8
:104910000FBE8DBF08950F93CF93DF93CDB7DEB752
:104920002C970FB6F894DEBF0FBECDBF00D08BE73B
:1049300097E0ADB7BEB712969C938E93119739DE70
:104940000F900F904091F2035091F303662757FDAB
:104950006095762FCE01019623E00CE00E948B2D0E
:10496000BC018EE091E0BBDF4091F4035091F50370
:104970006091F6037091F703CE01019623E00E9447
:104980008B2DBC0187E191E0AADF4091F8035091A3
:10499000F903662757FD6095762FCE01019623E037
:1049A0000E948B2DBC0184E291E099DF4091FA03D3
:1049B0005091FB036091FC037091FD03CE010196C1
:1049C00023E0B3D6BC018EE291E089DF4091FE0383
:1049D0005091FF036091000470910104CE01019693
:1049E00023E0A3D6BC0180E391E079DF409102048B
:1049F000509103046091040470910504CE01019666
:104A000023E093D6BC0182E391E069DF4091060484
:104A100050910704662757FD6095762FCE010196C9
:104A200023E083D6BC0184E391E059DF4091080480
:104A300050910904662757FD6095762FCE010196A7
:104A400023E073D6BC0187E391E049DF40910A047B
:104A500050910B04662757FD6095762FCE01019685
:104A600023E048D7BC018AE391E039DF40910C0490
:104A700050910D04662757FD6095762FCE01019663
:104A800023E038D7BC0188E491E029DF40910E048F
:104A900050910F04662757FD6095762FCE01019641
:104AA00023E028D7BC0187E591E019DF409110048D
:104AB00050911104662757FD6095762FCE0101961F
:104AC00023E018D7BC0186E691E009DF409112048B
:104AD00050911304662757FD6095762FCE010196FD
:104AE00023E008D700D000D000D0EDB7FEB7319654
:104AF0002FE737E0ADB7BEB712963C932E931197D0
:104B00002EE631E0338322839583848352DDEDB733
:104B1000FEB736960FB6F894FEBF0FBEEDBF2C96CB
:104B20000FB6F894DEBF0FBECDBFDF91CF910F91CE
:104B3000089500D000D000D0EDB7FEB7319622E93D
:104B400037E0ADB7BEB712963C932E93119793837F
:104B50008283648315822DDD8DB79EB706960FB6CE
:104B6000F8949EBF0FBE8DBF08950F93CF93DF9330
:104B7000CDB7DEB72C970FB6F894DEBF0FBECDBF12
:104B800000D08FE597E0ADB7BEB712969C938E9399
:104B900011970FDD0F900F9086E791E0609114045C
:104BA000C8DF4091150450911604662757FD6095A3
:104BB000762FCE01019622E00CE09CD6BC018BE75B
:104BC00091E08DDE4091170450911804662757FD3F
:104BD0006095762FCE01019622E08CD6BC0187E845
:104BE00091E07DDE4091190450911A04662757FD2B
:104BF0006095762FCE01019623E097D5BC0185E91B
:104C000091E06DDE40911B0450911C04662757FD16
:104C10006095762FCE01019623E087D500D000D095
:104C200000D0EDB7FEB7319623E637E0ADB7BEB79B
:104C300012963C932E93119723EA31E0338322831B
:104C400095838483B6DCEDB7FEB736960FB6F8943D
:104C5000FEBF0FBEEDBF2C960FB6F894DEBF0FBEA1
:104C6000CDBFDF91CF910F91089500D000D000D03B
:104C7000EDB7FEB731962DE937E0ADB7BEB7129666
:104C80003C932E931197938382837583648391DC85
:104C90008DB79EB706960FB6F8949EBF0FBE8DBF18
:104CA000089500D000D000D0EDB7FEB7319626EAC7
:104CB00037E0ADB7BEB712963C932E93119793830E
:104CC00082836483158275DC8DB79EB706960FB616
:104CD000F8949EBF0FBE8DBF08950F93CF93DF93BF
:104CE000CDB7DEB72C970FB6F894DEBF0FBECDBFA1
:104CF00000D08DE697E0ADB7BEB712969C938E9329
:104D0000119757DC0F900F9081EB91E060911D049B
:104D100010DF40911E0450911F04662757FD6095D7
:104D2000762FCE01019621E00CE0E4D5BC018CEB9E
:104D300091E0D5DD4091200450912104662757FD74
:104D40006095762FCE01019621E0D4D5BC018BEC85
:104D500091E0C5DD4091220450912304662757FD60
:104D60006095762FCE01019623E0DFD4BC018AED59
:104D700091E0B5DD4091240450912504662757FD4C
:104D80006095762FCE01019623E0CFD4BC0181EE51
:104D900091E0A5DD4091260450912704662757FD38
:104DA0006095762FCE01019623E0BFD4BC0188EE3A
:104DB00091E095DD4091280450912904662757FD24
:104DC0006095762FCE01019623E0AFD4BC018BEE27
:104DD00091E085DD40912A0450912B04662757FD10
:104DE0006095762FCE01019623E09FD4BC0182EF1F
:104DF00091E075DD4091300450913104662757FDF4
:104E00006095762FCE01019623E085D6BC0189EF0F
:104E100091E065DD40912C0450912D04662757FDEB
:104E20006095762FCE01019623E075D6BC0183E014
:104E300092E055DD40912E0450912F04662757FDD6
:104E40006095762FCE01019623E065D6BC018DE0FA
:104E500092E045DD4091320450913304662757FDBE
:104E60006095762FCE01019623E055D6BC0187E1EF
:104E700092E035DD4091340450913504662757FDAA
:104E80006095762FCE01019623E045D6BC0185E2E0
:104E900092E025DD4091360450913704662757FD96
:104EA0006095762FCE01019623E035D6BC0182E3D2
:104EB00092E015DD4091380450913904662757FD82
:104EC0006095762FCE01019623E025D6BC0185E4BE
:104ED00092E005DD40913A0450913B04662757FD6E
:104EE0006095762FCE01019623E015D6BC0188E5AA
:104EF00092E0F5DC40913C0450913D04662757FD5B
:104F00006095762FCE01019623E005D6BC018BE695
:104F100092E0E5DC60913E0470913F048EE792E000
:104F2000A4DE609140047091410485E992E09DDE29
:104F30008CEA92E060914204B4DE8DEB92E06091E5
:104F40004304AFDE8EEC92E060914404AADE80EE72
:104F500092E060914504A5DE8FEE92E060914604F8
:104F6000A0DE00D000D000D0EDB7FEB7319681E7CB
:104F700097E0ADB7BEB712969C938E9311978EEFC4
:104F800092E093838283809147048483158211DBAE
:104F9000EDB7FEB736960FB6F894FEBF0FBEEDBF65
:104FA0002C960FB6F894DEBF0FBECDBFDF91CF9128
:104FB0000F9108950F931F93CF93DF93EC018B0113
:104FC00000D000D000D0EDB7FEB731968FEA97E061
:104FD000ADB7BEB712969C938E931197D383C283BD
:104FE0007583648335DCEDB7FEB736960FB6F8945B
:104FF000FEBF0FBEEDBFCE0166E771E00E946433D5
:105000000097D9F4D8018C910E94F21800D000D0FA
:10501000EDB7FEB731968DEC97E0ADB7BEB71296FF
:105020009C938E931197D8018C9182831382E9DB34
:105030000F900F900F900F902AC2CE016BE771E096
:105040000E9464330097D1F5C80127D5EC01809107
:1050500014048037F9F48091150490911604FE0130
:10506000E81BF90BCF01F7FF03C0909581959F4F87
:1050700085369105F4F000D000D08DEE97E0ADB705
:10508000BEB712969C938E93119714961C930E9311
:1050900013970AC000D000D089E198E0EDB7FEB7C1
:1050A000928381831483038386DB0F900F900F908C
:1050B0000F90D0931604C0931504E9C1CE0167E8A0
:1050C00071E00E9464330097F9F4C801E6D4EC0162
:1050D00080911404863699F400D000D08FE398E0D4
:1050E000ADB7BEB712969C938E93119714961C93EE
:1050F0000E93139786DB0F900F900F900F90D09325
:105100001804C0931704C3C1CE0165E971E00E9481
:105110006433009749F4C80138D4DC01CB01909383
:105120001A0480931904B3C1CE0163EA71E00E94AE
:105130006433009749F4C80128D4DC01CB01909373
:105140001C0480931B04A3C1CE0161EB71E00E949B
:105150006433009749F4F801808180931D048BE447
:1051600096E00E94461C93C1CE016CEB71E00E9458
:105170006433009739F4C80190D490931F0480934E
:105180001E0485C1CE016BEC71E00E946433009770
:1051900039F4C80182D4909321048093200477C10C
:1051A000CE016AED71E00E946433009749F4C801B2
:1051B000ECD3DC01CB01909323048093220467C1DC
:1051C000CE0161EE71E00E946433009749F4C8019A
:1051D000DCD3DC01CB01909325048093240457C1D8
:1051E000CE0168EE71E00E946433009749F4C80173
:1051F000CCD3DC01CB01909327048093260447C1D4
:10520000CE016BEE71E00E946433009749F4C8014F
:10521000BCD3DC01CB01909329048093280437C1CF
:10522000CE0162EF71E00E946433009749F4C80137
:10523000ACD3DC01CB0190932B0480932A0427C1CB
:10524000CE0169EF71E00E946433009739F4C80120
:1052500096D4909331048093300419C1CE0163E059
:1052600072E00E946433009739F4C80188D49093A7
:105270002D0480932C040BC1CE016DE072E00E94DE
:105280006433009739F4C8017AD490932F04809343
:105290002E04FDC0CE0167E172E00E9464330097E6
:1052A00039F4C8016CD49093330480933204EFC076
:1052B000CE0165E272E00E946433009739F4C801C0
:1052C0005ED49093350480933404E1C0CE0162E350
:1052D00072E00E946433009739F4C80150D490936F
:1052E000370480933604D3C0CE0165E472E00E9497
:1052F0006433009739F4C80142D490933904809301
:105300003804C5C0CE0168E572E00E94643300979E
:1053100039F4C80134D490933B0480933A04B7C065
:10532000CE016BE672E00E946433009739F4C80145
:1053300026D490933D0480933C04A9C0CE016EE72F
:1053400072E00E946433009771F4C80160E070E07D
:105350004AE050E00E941932DC01CB0190933F04F7
:1053600080933E0494C0CE0165E972E00E946433EC
:10537000009771F4C80160E070E04AE050E00E94DC
:105380001932DC01CB0190934104809340047FC02B
:10539000CE016CEA72E00E946433009761F4C801A8
:1053A00060E070E04AE050E00E94193260934204ED
:1053B00088E494E038C0CE016DEB72E00E94643363
:1053C000009761F4C80160E070E04AE050E00E949C
:1053D00019326093430488E494E038C0CE016EEC47
:1053E00072E00E946433009761F4C80160E070E0ED
:1053F0004AE050E00E9419326093440488E494E04B
:1054000038C0CE0160EE72E00E946433009769F408
:10541000C80160E070E04AE050E00E9419326093F9
:10542000450489E495E042D632C0CE016FEE72E0C9
:105430000E946433009761F4C80160E070E04AE0C4
:1054400050E0F7D76093460489E495E032D61FC058
:10545000CE016EEF72E00E946433009761F4C801E0
:1054600060E070E04AE050E0E4D76093470489E4EC
:1054700095E023D60CC000D087E698E0ADB7BEB764
:1054800012969C938E931197E3D90F900F90DF9112
:10549000CF911F910F9108950F931F93CF93DF9397
:1054A000CDB7DEB7EC970FB6F894DEBF0FBECDBF19
:1054B00061E070E080E090E00E94DB0910E069C0EC
:1054C00061E070E080E090E00E94DB0980E793E01B
:1054D0000E94E204182F8A33C9F0803261F08B37C2
:1054E00051F0823241F0EFE1F0E0EC0FFD1FE00FF0
:1054F000F11D80830F5F0D3110F053C000E080E795
:1055000093E00E94BE0418161906D4F2EFE1F0E011
:10551000EC0FFD1FE00FF11D108200E01DC061E0E7
:1055200070E080E090E00E94DB0980E793E00E9459
:10553000E204182F8C32B9F08D37A9F0803251F087
:10554000823241F0E1E0F0E0EC0FFD1FE00FF11DD1
:1055500080830F5F0D3128F580E793E00E94BE0441
:1055600018161906E4F2E1E0F0E0EC0FFD1FE00F81
:10557000F11D1082CE014F96BE016F5F7F4F1ADD85
:105580001D3739F40E94AE150E943518EEDAA5DBFE
:1055900008C080E793E00E94BE04181619060CF4B8
:1055A000ADCFEC960FB6F894DEBF0FBECDBFDF9146
:1055B000CF911F910F910895EF92FF920F931F9338
:1055C000CF93DF93CDB7DEB766970FB6F894DEBF03
:1055D0000FBECDBF80E793E00E94BE0418161906E7
:1055E0000CF096C080E793E00E94E2048A3609F44A
:1055F00079C08B3640F4833539F1833699F18334A1
:1056000009F072C010C0833759F1843720F48C360A
:1056100009F06AC02BC0843721F0863709F064C0D6
:1056200023C0C4D875C00E9445188BE496E00E9440
:10563000461C53DB00D080E896E0ADB7BEB71296AB
:105640009C938E9311970AC00E941B188EDA00D08B
:105650008AE996E0EDB7FEB792838183F9D83FC01F
:1056600084DA56C03ADB54C056D952C000D083EB1E
:1056700096E0ADB7BEB712969C938E9311970E9499
:10568000D9220F900F9020E08E010F5F1F4F36EB55
:10569000E32E36E0F32E8BE496E0622FA8012E8BEA
:1056A0000E94081100D000D0EDB7FEB7F282E1826F
:1056B000148303830E94D9222E892F5F0F900F90AD
:1056C0000F900F90243039F700D08DEB96E0ADB7F6
:1056D000BEB712969C938E9311970E94D9220F9079
:1056E0000F9016C0D9DE14C000D000D0EDB7FEB7C1
:1056F00031962FEB36E0ADB7BEB712963C932E93A2
:10570000119782831382A4D80F900F900F900F905F
:1057100066960FB6F894DEBF0FBECDBFDF91CF9176
:105720001F910F91FF90EF900895AF92BF92CF928B
:10573000DF92EF92FF920F93CF93DF935C0177FF9D
:105740000BC08DE2D5018C93709560955095419575
:105750005F4F6F4F7F4F03C080E2F50180836A0186
:105760007B01F9E0F594E794D794C794FA95D1F7C3
:10577000E6015170607070702130B1F5CB01BA0153
:105780002AE030E040E050E09CD4DC01CB018050C6
:105790009F4FAF4FBF4FE9E0B595A7959795879578
:1057A000EA95D1F7BC018A30910519F4219660E0A1
:1057B00070E08DB79EB70A970FB6F8949EBF0FBEE4
:1057C0008DBFEDB7FEB73196C5010196ADB7BEB737
:1057D00012969C938E931197802F90E0019793835C
:1057E000828386E898E037C02230E1F5CB01BA0128
:1057F00024E630E040E050E064D4DC01CB0180508E
:105800009F4FAF4FBF4FF9E0B595A79597958795F7
:10581000FA95D1F7BC018436910519F4219660E020
:1058200070E08DB79EB70A970FB6F8949EBF0FBE73
:105830008DBFEDB7FEB73196C5010196ADB7BEB7C6
:1058400012969C938E931197802F90E001979383EB
:1058500082838EE898E095838483D783C68371879B
:10586000608734C08DB79EB70A970FB6F8949EBF75
:105870000FBE8DBFCDB7DEB72196C5010196ADB77E
:10588000BEB712969C938E931197802F90E001974C
:105890009B838A8386E998E09D838C83DF82CE8216
:1058A000CB01BA0128EE33E040E050E00AD4DC013D
:1058B000CB0180509F4FAF4FBF4FE9E0B595A79503
:1058C00097958795EA95D1F7998788870FD7EDB790
:1058D000FEB73A960FB6F894FEBF0FBEEDBFC501F6
:1058E000DF91CF910F91FF90EF90DF90CF90BF901D
:1058F000AF900895CF92DF92EF92FF920F931F9394
:10590000CF93DF93EC016A017B01122F403080E8D6
:1059100058078FEF68078FEF780729F4CE0161E809
:1059200078E0A8D628C080911D048634F1F4DB010C
:10593000CA0123E0880F991FAA1FBB1F2A95D1F720
:10594000840F951FA61FB71FBC01CD0125E030E0D5
:1059500040E050E00AD469017A0180E090E4A0E0E0
:10596000B0E0C80ED91EEA1EFB1ECE01B701A6018B
:10597000212FDBDEEC01CE01DF91CF911F910F9142
:10598000FF90EF90DF90CF9008952F923F924F922B
:105990005F926F927F928F929F92AF92BF92CF92BF
:1059A000DF92EF92FF920F931F93CF93DF9300D07C
:1059B000CDB7DEB78C01FC0180818D3229F40F5FF9
:1059C0001F4F77247A9402C077247394C8016EE243
:1059D00070E072D66C01C80160E070E04AE050E00F
:1059E00028D51B012C01C114D10469F186010F5F78
:1059F0001F4FC801BE016F5F7F4F4AE050E019D5CD
:105A00006B017C016980601AF9E0CC0CDD1CEE1C96
:105A1000FF1CFA95D1F700E010E0AAE08A2E912C45
:105A2000A12CB12C0DC0C701B6016B5F7F4F8F4F0A
:105A30009F4FA501940199D369017A010F5F1F4F10
:105A4000601689F703C0CC24DD247601672D70E051
:105A500080E090E0A2019101E9E0220F331F441F92
:105A6000551FEA95D1F72C0D3D1D4E1D5F1D29D305
:105A70000F900F90DF91CF911F910F91FF90EF90BA
:105A8000DF90CF90BF90AF909F908F907F906F905E
:105A90005F904F903F902F9008950F931F9375DF65
:105AA0008B019C0180911D048634D1F4D901C80179
:105AB00042E0880F991FAA1FBB1F4A95D1F7800F9C
:105AC000911FA21FB31F80509044A140B040BC0161
:105AD000CD0129E030E040E050E047D389019A0150
