:10000000CDC40000F3C400000C940B0E0C94960DAC
:100010000C945D0EEBC40000E9C40000E7C40000CE
:10002000E5C40000E3C4000035C70000CFC70000EE
:10003000DDC40000DBC40000D9C40000D7C4000048
:10004000D5C40000D3C40000D1C40000CFC4000058
:10005000CDC40000CBC40000C9C400000C949A09B0
:10006000C5C40000C3C40000C1C40000BFC4000078
:10007000BDC40000BBC40000B9C40000B7C4000088
:10008000B5C40000B3C40000B1C40000AFC4000098
:10009000ADC40000ABC40000A9C40000A7C40000A8
:1000A000A5C40000A3C40000A1C40000000000001B
:1000B000000000002A2B28000000000000000000C3
:1000C0000000000000000000000000002C9EB4A012
:1000D000A1A2A434A6A7A5AE362D3738271E1F200F
:1000E000212223242526B333B62EB7B89F848586D4
:1000F0008788898A8B8C8D8E8F9091929394959618
:100100009798999A9B9C9D2F3130A3AD3504050695
:100110000708090A0B0C0D0E0F10111213141516F7
:100120001718191A1B1C1DAFB1B0B5000904020045
:1001300001030000000921010100012265000705FB
:10014000840340000105010902A1010901A1008504
:100150000105091901290315002501950375018180
:10016000029501750581030501093009310938152A
:1001700081257F750895038106C0C005010906A188
:10018000018502050719E029E7150025017501958C
:1001900008810295017508810395067508150025EB
:1001A000650507190029658100C000C18081C11261
:1001B00001000202000040412336800001010200DC
:1001C00001120100020000004041233680000101BD
:1001D0000200011803410072006400750069006E9E
:1001E000006F0020004C004C0043002203410072CD
:1001F000006400750069006E006F0020004C00650F
:10020000006F006E006100720064006F000403095B
:1002100004080B00020202010009040000010202AE
:100220000000052400100105240101010424020638
:1002300005240600010705810310004009040100A0
:10024000020A0000000705020240000007058302C1
:10025000400000070605040100080A0B0C0D090008
:1002600000000200080E0000030401000B0000045F
:1002700008020110408040102040804080080204A5
:10028000018040201002011080102040400404042E
:10029000040403040502020202040302020202062D
:1002A00006060606060404020202040000000023FB
:1002B00000260029002C002F000000000025002847
:1002C000002B002E00310000000000240027002A2F
:1002D000002D00300041726475696E6F2072657385
:1002E0007461727465642100467269646765206494
:1002F0006F6F72206F70656E656400467269646727
:100300006520646F6F7220636C6F73656400506F5B
:10031000736974697665207065616B2064657465C6
:10032000637465642E004472696674696E67207533
:10033000702061667465722068656174696E6720FB
:10034000746F6F2073686F72742E005065616B3A22
:1003500020257320457374696D617465643A2025A6
:10036000732E204E657720657374696D61746F72AA
:100370003A202573004E6567617469766520706563
:10038000616B2064657465637465642E00447269F2
:100390006674696E6720646F776E2061667465723B
:1003A00020636F6F6C696E6720746F6F2073686F66
:1003B00072742E005065616B3A2025732E204573B0
:1003C00074696D617465643A2025732E204E6577DB
:1003D00020657374696D61746F723A202573002013
:1003E0002D2D2E2D00202D2D2E2D00202D2D2E2DAE
:1003F00000202D2D2E2D004D6F6465202020004201
:100400006565722020200046726964676520004699
:10041000726964676520436F6E73742E0042656570
:100420007220436F6E7374616E7400426565722052
:1004300050726F66696C6520004F66662020202030
:1004400020202020202000496E76616C6964206D98
:100450006F6465200049646C6520666F72202020FF
:1004600020202020202020202000537461727469F5
:100470006E672075702E2E2E202020202020004315
:100480006F6F6C696E6720666F72202020202020BD
:100490002020200048656174696E6720666F7220B5
:1004A000202020202020202000446F6F72206F70B9
:1004B000656E202020202020202020202000546550
:1004C0006D702E20636F6E74726F6C204F464620E5
:1004D000202000556E6B6E6F776E2073746174759B
:1004E0007321202020202000207300207300202072
:1004F00020202020004368616E67656420746F20AF
:1005000070726F66696C65206D6F646520696E201E
:100510006D656E752E0054656D7020636F6E74721C
:100520006F6C207475726E6564206F666620696EEC
:10053000206D656E752E0020202020202020202098
:100540002020202000426565722074656D70657200
:1005500061747572652073657474696E6720636871
:10056000616E67656420746F20257320696E204D6D
:10057000656E752E00202020202000467269646779
:10058000652074656D706572617475726520736540
:100590007474696E67206368616E67656420746F48
:1005A00020257320696E204D656E752E0020202059
:1005B000202000005EBCE2613FDD83C29C7E20A360
:1005C000FD1F419DC3217FFCA2401E5F01E3BD3E94
:1005D0006082DC237D9FC1421CFEA0E1BF5D0380E1
:1005E000DE3C62BEE0025CDF81633D7C22C09E1D7A
:1005F00043A1FF4618FAA427799BC584DA3866E53B
:10060000BB5907DB856739BAE406581947A5FB785B
:1006100026C49A653BD987045AB8E6A7F91B45C694
:10062000987A24F8A6441A99C7257B3A6486D85B41
:1006300005E7B98CD2306EEDB3510F4E10F2AC2FEE
:100640007193CD114FADF3702ECC92D38D6F31B22B
:10065000EC0E50AFF1134DCE90722C6D33D18F0C48
:1006600052B0EE326C8ED0530DEFB1F0AE4C129111
:10067000CF2D73CA947628ABF517490856B4EA69AA
:1006800037D58B5709EBB536688AD495CB2977F4E3
:10069000AA4816E9B7550B88D6346A2B7597C94A0C
:1006A00014F6A8742AC896154BA9F7B6E80A54D7C9
:1006B000896B3544656661756C7420636F6E737405
:1006C000616E7473206C6F616465642E00446566AE
:1006D00061756C742073657474696E6773206C6FD8
:1006E000616465642E004C3A0025733C42523E0022
:1006F0000A00496E76616C696420636F6D6D616E8E
:100700006420526563656976656420627920417270
:100710006475696E6F3A20256300543A7B22426506
:10072000657254656D70223A25732C00224265650E
:1007300072536574223A25732C002242656572411A
:100740006E6E223A6E756C6C2C00224265657241A9
:100750006E6E223A222573222C002246726964674B
:100760006554656D70223A25732C002246726964C7
:100770006765536574223A25732C002246726964BA
:100780006765416E6E223A6E756C6C7D0A0022467A
:100790007269646765416E6E223A222573227D0A72
:1007A00000443A000A00533A7B00222573223A257E
:1007B000737D0A00433A7B00222573223A25757D1A
:1007C0000A00563A7B00222573223A25737D0A00DF
:1007D000222573223A25732C00222573223A2225E2
:1007E00063222C00222573223A25752C0052656362
:1007F0006569766564206E65772073657474696ECB
:10080000673A202573203D202573004D6F646520D5
:1008100073657420746F20256320696E207765628C
:1008200020696E7465726661636500426565722059
:1008300074656D706572617475726520736574742A
:10084000696E67206368616E67656420746F202538
:10085000732062792074656D70657261747572655C
:100860002070726F66696C652E0042656572207437
:10087000656D7065726174757265207365747469F5
:100880006E67206368616E67656420746F202573EE
:1008900020696E2077656220696E74657266616397
:1008A000652E004672696467652074656D706572B7
:1008B00061747572652073657474696E672063680E
:1008C000616E67656420746F20257320696E2077E0
:1008D000656220696E746572666163652E00436FA0
:1008E000756C64206E6F742070726F636573732013
:1008F00073657474696E67006E756C6C0025642E88
:10090000253031640025642E253032640025642EA4
:100910002530336400556E61626C6520746F20660B
:10092000696E64206164647265737320666F7220FF
:1009300073656E736F72206F6E2070696E20256410
:100940000054656D70657261747572652073656EB3
:10095000736F72206F6E2070696E20256420646949
:1009600073636F6E6E65637465640054656D706566
:100970007261747572652073656E736F72206F6E2D
:100980002070696E202564207265636F6E6E6563EA
:1009900074656400F60C5C173B1B601711241FBEC6
:1009A000CFEFDAE0DEBFCDBF13E0A0E0B1E0EEE5CF
:1009B000FDE602C005900D92AA34B107D9F715E003
:1009C000AAE4B3E001C01D92A637B107E1F719E030
:1009D000CAE9D9E004C02297FE010E94CE30C43992
:1009E000D107C9F70E94890D0C94A33609CB8091D9
:1009F000B6039091B7032091B8033091B903821BDD
:100A0000930B8F73907008952091B6033091B703C4
:100A10008091B8039091B9032817390749F0E09104
:100A2000B803F091B903EA58FC4F808190E0089533
:100A30008FEF9FEF08952091B6033091B703809117
:100A4000B8039091B90328173907A9F0E091B803CA
:100A5000F091B903EA58FC4F80812091B80330919E
:100A6000B9032F5F3F4F2F7330703093B90320933A
:100A7000B80390E008958FEF9FEF08950F931F93B1
:100A8000CF93DF93EC01162FE881F9810480F58183
:100A9000E02D0995082FE881F9810680F781E02D86
:100AA000CE01612F0995802F90E0DF91CF911F91AA
:100AB0000F910895CF92DF92EF92FF920F931F93C1
:100AC000CF93DF936C017B01EA0100E010E00EC0E0
:100AD000D7016D917D01D601ED91FC910190F081DE
:100AE000E02DC6010995080F191F2197209781F75E
:100AF000C801DF91CF911F910F91FF90EF90DF9090
:100B0000CF9008958730C1F1883080F48330F9F0B8
:100B1000843030F4813029F1823009F050C024C093
:100B20008430C9F0863009F04AC022C08A3091F181
:100B30008B3030F4883031F1893009F040C026C064
:100B40008C3091F18C3060F18E30C9F533C08091DA
:100B500080008F7703C0809180008F7D809380001C
:100B6000089584B58F7702C084B58F7D84BD0895C4
:100B70008091B0008F7703C08091B0008F7D80930B
:100B8000B0000895809190008F7707C08091900009
:100B90008F7D03C080919000877F8093900008959F
:100BA0008091C0008F7703C08091C0008F7D8093BB
:100BB000C00008958091C200877F8093C20008958D
:100BC0000895FC0104C08091F10081936150662377
:100BD000D1F7289884E68093660308959FB7F89428
:100BE00087708093E9008091F2009FBF08959091F3
:100BF00065039923B1F057FF1AC016C028982093B7
:100C000066033091F10031936E17C1F7009739F008
:100C10002091F200222319F42BE62093E800AFBFC5
:100C200008958FEF9FEF08958FEF9FEF0895AFB76F
:100C3000F89487708093E9002091F20030E0CA01B7
:100C4000241735070CF4C901FB01680F24E6DCCF3B
:100C5000CF93DF930F92CDB7DEB7BE016F5F7F4FAB
:100C600041E050E0C4DF8130910519F4898190E0C2
:100C700002C08FEF9FEF0F90DF91CF91089582E038
:100C8000E7DF2091B6033091B7032F5F3F4F2F73FB
:100C900030704091B8035091B9032417350759F0CB
:100CA000E091B603F091B703EA58FC4F808330938C
:100CB000B7032093B60308959FB7F8948770809385
:100CC000E9008091E80085FF05C02091F20080E4F2
:100CD000821B01C080E09FBF08951092E90010922E
:100CE00064031092630390936203809361030895F9
:100CF0000F931F93CF93C82F8A01DB016EEF35C08E
:100D0000CD010196C7FF04C0FD01DC01E49102C0E2
:100D1000EC91DC01209163033091640380916103C5
:100D20009091620328173907ACF48091E800857030
:100D3000E1F38091E80082FD1DC0E093F100809115
:100D400063039091640301968F739070009711F480
:100D50006093E800809163039091640301969093FF
:100D6000640380936303015010400115110541F69F
:100D7000CA0102C08FEF9FEFCF911F910F9108958D
:100D8000FC0180818E5F808380E861E172E042E453
:100D900050E0AECF1F93CF93DF930F92CDB7DEB766
:100DA0009C01162F8091E80082FFFCCFC901612FC2
:100DB000798307DF8BEF8093E800812F7981972F6C
:100DC0000F90DF91CF911F910895FC018181908157
:100DD000913A51F4813209F04DC080E06AE073E04D
:100DE00047E050E085DF44C0913209F043C08032D3
:100DF00031F48AE093E067E070E0CCDF39C0823202
:100E000009F038C082818093110380910A03909188
:100E10000B03A0910C03B0910D03803B24E09207DB
:100E200020E0A20720E0B20739F58091110380FD90
:100E300012C087E797E790930108809300082BE0A2
:100E400088E190E00FB6F894A895809360000FBEFB
:100E5000209360000DC088E10FB6F8948093600085
:100E6000109260000FBEA895109201081092000821
:100E700081E0089580E0089581E008958093E9007D
:100E80008091F200882319F08AE38093E8000895A6
:100E900083E0F4CF1F920F920FB60F9211242F937D
:100EA0003F934F935F936F937F938F939F93AF93F2
:100EB000BF93EF93FF938091E1001092E10083FFD5
:100EC0000FC01092E90091E09093EB001092EC00BB
:100ED00092E39093ED001092650398E09093F000F8
:100EE00082FF22C083E0CADF03C088E693E0C7DE4A
:100EF00082E074DE8823C9F780916703882341F07C
:100F000080916703815080936703882309F45D9A79
:100F100080916603882341F080916603815080931D
:100F20006603882309F4289AFF91EF91BF91AF914E
:100F30009F918F917F916F915F914F913F912F91F1
:100F40000F900FBE0F901F901895FC0180818F5F4E
:100F5000808380E86CE271E049E150E0C9CECF9334
:100F6000DF930F92CDB7DEB71982CE01019608DF6D
:100F7000CE010196EADF898190E00F90DF91CF9159
:100F8000089580E865E471E045E650E0B1CEFC01EB
:100F900091818081813A31F481E0913091F09330F8
:100FA00089F413C0813271F49B3021F482818093E3
:100FB000090305C09A3041F482818093080381E0DF
:100FC0000895089580E0089580E008951F920F929B
:100FD0000FB60F921124EF92FF920F931F932F934E
:100FE0003F934F935F936F937F938F939F93AF93B1
:100FF000BF93EF93FF93CF93DF93CDB7DEB76297A5
:10100000DEBFCDBF1092E9008091E80083FFE2C00F
:10101000CE01019668E0D5DD82EF8093E8008981FA
:1010200087FF05C09091E80090FFFCCF03C09EEFC2
:101030009093E80090E09C012076307021153105F6
:1010400009F0B0C02A81222329F41092F1001092F5
:10105000F100B9C0213009F4B6C0233009F4B3C09F
:10106000253049F48091E80080FFFCCF8B818068B7
:101070008093E300A8C0263009F068C02C81EF807F
:10108000F884223049F580E090E02A8B26DE67DF85
:1010900099E08E01075F1F4FF801392F11923A95A1
:1010A000E9F799872A892A8791E09E8790E8988BAB
:1010B0009AEF998B2091630330916403275F3F4F30
:1010C0003C872B878D87C70108DE80E0B80149E0A7
:1010D00050E00EDE44DF77C0C7012A8BFEDD2A898F
:1010E000223239F482E290E04CDF009709F06BC0C5
:1010F0006EC0213079F48F8198858830910519F47C
:1011000081E08093600380916003882389F06FEA17
:1011100071E016C0233009F05AC08B81882359F042
:10112000823061F0813009F052C063ED71E008C097
:1011300061EC71E005C06DE072E002C06BEE71E041
:10114000FB01449180E850E0D3DD3DC0273009F435
:101150003EC0283021F481E08093F10034C0293072
:1011600091F583709070009791F581E090E031E007
:1011700026E38093E9003093EB00FC01E655FE4F37
:10118000E491E093EC002093ED0001968530910509
:1011900081F78EE78093EA001092EA008B818093BA
:1011A000650311C08F81988598DD8D81882321F496
:1011B000CE0101960ADE05C0823049F4CE010196C7
:1011C000E6DE882321F08EEF8093E80003C081E201
:1011D0008093EB006296DEBFCDBFDF91CF91FF9190
:1011E000EF91BF91AF919F918F917F916F915F919F
:1011F0004F913F912F911F910F91FF90EF900F9082
:101200000FBE0F901F9018950F931F93CF93DF93EE
:101210008C01EB01CB010E945533AC01D801ED915B
:10122000FC910280F381E02DC801BE010995DF9198
:10123000CF911F910F9108956F927F928F929F92FD
:10124000AF92BF92CF92DF92EF92FF920F931F93D4
:10125000CF93DF93CDB7DEB7A1970FB6F894DEBF7B
:101260000FBECDBF3C01E42ECB01F22E19A221E02E
:101270002F1510F03AE0F32E21E2C22ED12CCC0E25
:10128000DD1E8F2C9924AA24BB2403C0E02E512FED
:10129000C9016E2D752FA50194010E947B30890133
:1012A0009A01F09E802D1124E81A8E2D0894C10811
:1012B000D1088A3010F4805D01C0895CD6018C931E
:1012C000011511052105310509F7C6010E945533A5
:1012D000AC01D301ED91FC910280F381E02DC301BB
:1012E000B6010995A1960FB6F894DEBF0FBECDBF2B
:1012F000DF91CF911F910F91FF90EF90DF90CF90F2
:10130000BF90AF909F908F907F906F900895211520
:10131000310549F4DC01ED91FC910190F081E02D63
:10132000642F0995089588CF0C94D23008950C94B9
:10133000683108951F920F920FB60F9211242F93C8
:101340003F938F939F93AF93BF9380914A03909164
:101350004B03A0914C03B0914D033091BA03232F5E
:101360002D5F2D3720F40196A11DB11D05C0232F3F
:101370002A570296A11DB11D2093BA0380934A03F8
:1013800090934B03A0934C03B0934D0380914E0375
:1013900090914F03A0915003B09151030196A11D6C
:1013A000B11D80934E0390934F03A0935003B093CD
:1013B0005103BF91AF919F918F913F912F910F90CA
:1013C0000FBE0F901F9018950F931F938FB7F8942F
:1013D00000914A0310914B0320914C0330914D032F
:1013E0008FBFB801C9011F910F9108950F931F93EB
:1013F0009FB7F89400914E0310914F032091500332
:101400003091510386B5A89B06C08F3F21F00F5F36
:101410001F4F2F4F3F4F9FBF322F212F102F0027DD
:10142000080F111D211D311D52E0000F111F221F39
:10143000331F5A95D1F7B801C9011F910F91089533
:10144000CF92DF92EF92FF92CF93DF936B017C01FB
:10145000CDDFDC01CB01EC010EC0C8DF6C1B7D0BC6
:1014600083E0683E780738F00894C108D108E108A5
:10147000F108C851DC4FC114D104E104F10469F74B
:10148000DF91CF91FF90EF90DF90CF900895109271
:10149000650381E08093D70080EA8093D80082E1E1
:1014A00089BD89B580FFFDCF61E070E080E090E00C
:1014B000C7DF80E98093D8008CE08093E20010922F
:1014C000E000559A209A08956F927F928F929F9292
:1014D000AF92BF92CF92DF92EF92FF920F931F9342
:1014E000CF93DF93F82E6A0180916503882309F476
:1014F0006AC0EB018A016AEFE62E77E0B72EBF20C3
:101500008F2D90E0E0E26E2E712C68227922FAE3B2
:10151000AF2EA0E48A2E912C882299224AC08F2DCA
:10152000CBDB882349F4EA9409F44DC061E070E014
:1015300080E090E085DF3DC0282F30E002171307E0
:101540000CF4802F081B11099FB7F894B092E900A2
:101550006114710439F003C01092F10081508823A6
:10156000D9F71AC0F7FC03C0282FFE0111C0482F7D
:101570009E0107C0F9012F5F3F4FE491E093F10016
:1015800041504423B9F706C031913093F100215006
:101590002223D1F7C80FD11D8091E80085FF06C036
:1015A0000115110529F48114910411F0A092E800AD
:1015B0009FBF0115110509F0B2CF5D9884E68093B5
:1015C0006703C60102C08FEF9FEFDF91CF911F919C
:1015D0000F91FF90EF90DF90CF90BF90AF909F90D2
:1015E0008F907F906F900895EF92FF920F931F93CB
:1015F000CF93DF930F92CDB7DEB789838B017A014A
:1016000084E0BE016F5F7F4F41E050E05DDF84E426
:10161000B801A70159DF0F90DF91CF911F910F9172
:10162000FF90EF90089582E048E050E0DDCFFC01AC
:101630001682178210861186128613861482BC01C8
:101640006C5F7F4FF0CFCF93DF93DC01E62F6838DC
:1016500010F0E85825C0F0E067FF13C0E058F040F4
:1016600081E090E002C0880F991FEA95E2F780952B
:1016700014969C911497982314969C931497E0E0E9
:101680000FC0E455FF4FE491EE23F1F0E7FF08C0EF
:1016900014968C9114978D7F14968C931497EF77F2
:1016A000ED0186E0EE2321F09E819E1709F41E8253
:1016B000815021968823B1F7BD016C5F7F4FCD012A
:1016C000B2DF81E090E002C080E090E0DF91CF9156
:1016D0000895CF93DF93DC01E62F683810F0E858C7
:1016E00025C0F0E067FF12C0E058F04081E090E0D4
:1016F00002C0880F991FEA95E2F714969C911497FF
:10170000982B14969C931497E0E010C0E455FF4F7B
:10171000E491EE2309F441C0E7FF08C014968C91D0
:101720001497826014968C931497EF7716968C9189
:1017300016978E1741F117968C9117978E1719F1FE
:1017400018968C9118978E17F1F019968C9119971D
:101750008E17C9F01A968C911A978E17A1F01B96C6
:101760008C911B978E1779F080E090E0ED01C80F07
:10177000D91F2E81222311F4EE8305C001968630F5
:101780009105A1F70AC0BD016C5F7F4FCD014BDF12
:1017900081E090E0DF91CF91089581E090E0139691
:1017A0009C938E93129780E090E0F4CF0F931F9359
:1017B000CF93DF930F92CDB7DEB78C016983809111
:1017C0001103882351F083E0BE016F5F7F4F41E03A
:1017D00050E07ADE181619063CF081E090E0F8013E
:1017E0009383828380E090E00F90DF91CF911F91EF
:1017F0000F910895019739F0880F991F880F991F4D
:1018000002970197F1F70895789484B5826084BDBA
:1018100084B5816084BD85B5826085BD85B58160F4
:1018200085BDEEE6F0E0808181608083E1E8F0E054
:101830001082808182608083808181608083E0E883
:10184000F0E0808181608083E1EBF0E08081846062
:101850008083E0EBF0E0808181608083E1E9F0E06B
:10186000808182608083808181608083E0E9F0E014
:10187000808181608083E1ECF0E0808184608083FE
:10188000808182608083808181608083E3ECF0E0EE
:10189000808181608083E0ECF0E0808182608083E1
:1018A000E2ECF0E0808181608083EAE7F0E0808113
:1018B0008460808380818260808380818160808376
:1018C000808180688083089590E0FC01E159FD4F9C
:1018D000249183579D4FFC018491882341F190E02E
:1018E000880F991FFC01E953FD4F45915491DA018E
:1018F00087549D4FFC0185919491FC019FB7F8940A
:101900008C91662331F4209582238C9380818223ED
:1019100008C0623049F4322F309583238C93808144
:10192000822B80839FBF0895822B8C939FBF089545
:101930000F931F93CF93DF930F92CDB7DEB7282F6E
:1019400030E0F901E15AFD4F8491F901E159FD4F71
:101950001491F901E357FD4F04910023C9F0882346
:1019600019F06983CFD86981E02FF0E0EE0FFF1FF7
:10197000E754FD4F85919491DC019FB7F8948C91C9
:10198000662319F41095812301C0812B8C939FBF8E
:101990000F90DF91CF911F910F910895CF93DF9317
:1019A000282F30E0F901E15AFD4F8491F901E15906
:1019B000FD4FC491F901E357FD4FD491DD2389F028
:1019C000882309F09FD8ED2FF0E0EE0FFF1FE555BB
:1019D000FD4F85919491FC0120812C2381E090E0C2
:1019E00011F480E090E0DF91CF91089510926B03A5
:1019F00010926A0388EE93E0A0E0B0E080936C035D
:101A000090936D03A0936E03B0936F038AE193E00C
:101A1000909369038093680310925E0310925503BC
:101A2000109254038CE293E09093530380935203FB
:101A30000895CF93DF9388E693E060E071EEC0D81D
:101A40008CE061E041DF8DE061E03EDF87E160E056
:101A50003BDF0E94BA160E940F174ED261D460ED90
:101A600077E080E090E0ECDCC8E0D5E0CE010E94B9
:101A70004819CE010E94401ACE010E94A31A40D1FB
:101A800000D085ED92E0EDB7FEB7928381830E948E
:101A900000240F900F90DF91CF91089595DCDC0129
:101AA000CB014091BB035091BC036091BD03709189
:101AB000BE03841B950BA60BB70B893E23E0920750
:101AC00020E0A20720E0B207E0F07EDCDC01CB01E1
:101AD0008093BB039093BC03A093BD03B093BE035C
:101AE000E8D195D609D21CD4BCD388E095E00E94F9
:101AF000A31A88E095E00E94251A88E095E00E94EC
:101B0000731A5BD1882319F05BD10E94981E0C9444
:101B1000DD2A7ADE8FE593E0BADC8BDFC0E0D0E02F
:101B2000BDDF2097E9F30E940000FACF1F920F92C9
:101B30000FB60F9211248F9381E08093C1038F9190
:101B40000F900FBE0F901F90189550DCDC01CB0159
:101B50004091C6035091C70360E070E0841B950B71
:101B6000A60BB70B80322EE4920720E0A20720E0FC
:101B7000B20708F44FC02091C0032093C80389B175
:101B800090E09595879581708093C0038091C00304
:101B9000281709F43FC02ADCDC01CB019093C7036E
:101BA0008093C6039091C0038091BF03981731F4CE
:101BB0008091C2039091C303019705C08091C20335
:101BC0009091C30301969093C3038093C2036091E5
:101BD0001403709115038091C2039091C3039B017C
:101BE0002F5F3F4F4091120350911303281739077D
:101BF00024F45093C3034093C2038091C203909195
:101C0000C303415050408417950724F47093C303D5
:101C10006093C20308951F920F920FB60F92112482
:101C20002F933F934F935F936F937F938F939F93E4
:101C3000AF93BF93EF93FF9388DFFF91EF91BF9135
:101C4000AF919F918F917F916F915F914F913F9154
:101C50002F910F900FBE0F901F901895C7DBDC01DE
:101C6000CB014091C9035091CA0360E070E0841B2E
:101C7000950BA60BB70B80322EE4920720E0A2074B
:101C800020E0B207C8F02091BF032093CB0389B1B5
:101C900090E043E0959587954A95E1F781708093B0
:101CA000BF038091BF03281739F0A0DBDC01CB0113
:101CB0009093CA038093C90308951F920F920FB6A1
:101CC0000F9211242F933F934F935F936F937F93C2
:101CD0008F939F93AF93BF93EF93FF93BFDFFF91DA
:101CE000EF91BF91AF919F918F917F916F915F9194
:101CF0004F913F912F910F900FBE0F901F9018950D
:101D000082E060E0E1DD81E060E0DEDD80E060E077
:101D1000DBDD1BDFA3DFE9E6F0E080818466808302
:101D20008DB38E608DBB08952FB7F894880F991FDF
:101D30009093C3038093C203660F771F70931303BE
:101D400060931203440F551F5093150340931403DF
:101D50009093C5038093C4032FBF08952FB7F894C1
:101D60008091C2039091C3038091C2039091C303F9
:101D7000817029F08091C4039091C5030AC08091BD
:101D8000C2039091C303959587959093C503809363
:101D9000C4032FBF0895E2DF2091CC033091CD031F
:101DA0008217930739F0DADF9093CD038093CC0349
:101DB00081E008958091C10308958091C103089541
:101DC0001092C1030895EF92FF920F931F93CF9348
:101DD000DF93EC01798368830C960E94461BCE0149
:101DE00086960E94461BCE01805C9F4F0E94461B38
:101DF0001B821C821D821E821A828FEF8F838EE0CF
:101E000090E092DA8C0168810E9433222AE5E22E6A
:101E1000F12CEC0EFD1EF7011183008387E090E0AA
:101E20000E940E198C01F701608171810E94641774
:101E3000C45ADF4F19830883DF91CF911F910F910F
:101E4000FF90EF900895CF93DF93EC01FC01E65AE9
:101E5000FF4F808191816BDAFE01E45AFF4F808150
:101E600091810E942119CE01805C9F4F0E944C1BE2
:101E7000CE0186960E944C1BCE010C960E944C1BF4
:101E8000DF91CF9108958130910551F481EA94E07A
:101E90006AE070E098DF8BE394E06BE070E093CF52
:101EA000009731F48BE394E0CEDF81EA94E0CBCF6E
:101EB000089581EA94E00E94332F81EA94E00E9421
:101EC000302F882351F480910104823611F0863638
:101ED00021F481EA94E00E94672E8BE394E00E9453
:101EE000332F8BE394E00E94302F882321F48BE37F
:101EF00094E00C94672E08958F929F92AF92BF92B8
:101F0000CF92DF92EF92FF9280910104823619F016
:101F1000803709F097C1C0900204D090030480E09C
:101F2000C81680E8D80629F4D0920504C0920404AB
:101F30008FC181EA94E00E942430C81AD90AD09255
:101F4000E003C092DF0381EA94E00E942730FC01A5
:101F50009093E6038093E50380910705982F9F5F98
:101F6000909307058C3309F054C010920705209117
:101F7000DF033091E003D90137FF04C0AA27BB2754
:101F8000A21BB30B80911D0490911E044091E103AC
:101F90005091E2036091E3037091E403A817B9073D
:101FA0001CF58091190490911A048E179F07E4F094
:101FB00080911B0490911C04E817F907ACF0AB3139
:101FC000B1053CF1C901AA2797FDA095BA2F840F4E
:101FD000951FA61FB71F8093E1039093E203A09380
:101FE000E303B093E40315C0DB01CA01E3E0B59558
:101FF000A79597958795EA95D1F7481B590B6A0BDA
:102000007B0B4093E1035093E2036093E3037093EF
:10201000E4032091DF033091E0038091F30390917A
:10202000F403AA2797FDA095BA2F4427582F692FAC
:102030007A2F481B590B6A0B7B0B37FF2BC0809103
:10204000110490911204AA2797FDA095BA2F480F6A
:10205000591F6A1F7B1F452F562F672F772767FD54
:102060007A955093F4034093F3038091F503909194
:10207000F603AA2797FDA095BA2F4427582F692F5A
:102080007A2F481B590B6A0B7B0B8091150490919A
:1020900016042AC080910F0490911004AA2797FD7E
:1020A000A095BA2F480F591F6A1F7B1F452F562F27
:1020B000672F772767FD7A955093F4034093F303D6
:1020C0008091F5039091F603AA2797FDA095BA2F6A
:1020D0004427582F692F7A2F481B590B6A0B7B0B0B
:1020E0008091170490911804AA2797FDA095BA2F04
:1020F000480F591F6A1F7B1F452F562F672F7727C1
:1021000067FD7A955093F6034093F5036091F303CE
:102110007091F403882777FD8095982F442737FD29
:102120004095542F0E9449304B015C01F9E0B59471
:10213000A79497948794FA95D1F78092E7039092A9
:10214000E803A092E903B092EA036091130470914E
:102150001404882777FD8095982F2091E103309112
:10216000E2034091E3035091E4030E9449306B0184
:102170007C01A9E0F594E794D794C794AA95D1F788
:10218000C092EB03D092EC03E092ED03F092EE03E9
:102190006091F5037091F603882777FD8095982F5D
:1021A0002091E5033091E603442737FD4095542FF5
:1021B0000E944930AB01BC01B9E075956795579510
:1021C0004795BA95D1F74093EF035093F00360938E
:1021D000F1037093F2038091020490910304AA2703
:1021E00097FDA095BA2F880D991DAA1DBB1D8C0DBA
:1021F0009D1DAE1DBF1D840F951FA61FB71F2091EB
:102200000B0430910C04A901662757FD6095762FC9
:1022100084179507A607B70784F040910D045091E5
:102220000E04662757FD6095762F481759076A07F1
:102230007B0714F4DB01CA019C0130930504209351
:10224000040406C080E090E89093030480930204A5
:10225000FF90EF90DF90CF90BF90AF909F908F90C6
:1022600008958091DE03843038F4823088F4882326
:1022700031F0813069F406C0843051F403C08CE041
:1022800061E008C08CE060E053DB8DE061E005C0F8
:102290008CE060E04DDB8DE060E04ACB0F931F9354
:1022A00093D88B019C018091CE039091CF03A09194
:1022B000D003B091D103081B190B2A0B3B0BB801BB
:1022C000C9011F910F9108950F931F937DD88B0122
:1022D0009C018091D2039091D303A091D403B0913B
:1022E000D503081B190B2A0B3B0BB801C9011F9121
:1022F0000F9108950F931F9367D88B019C018091D4
:10230000D6039091D703A091D803B091D903081BAD
:10231000190B2A0B3B0BB801C9011F910F910895AE
:102320008F929F92AF92BF92CF92DF92EF92FF92E5
:1023300087E134DB009789F48091DE03843059F023
:1023400000D088EE92E0EDB7FEB7928381830E94C1
:1023500000240F900F9084E005C0809101048F3617
:1023600021F485E08093DE03B0C180910404909154
:102370000504F0E880309F0709F47FC18BE394E007
:102380000E94302F882309F478C181EA94E00E94EA
:10239000302F882309F087C180910104823609F427
:1023A0006CC1803709F07FC168C10ED8DC01CB0158
:1023B0008093D6039093D703A093D803B093D90307
:1023C0006DDFDC01CB01813A2BEB92072DE0A207F8
:1023D00020E0B20720F48091DC03882379F474DFD5
:1023E000DC01CB01813CE7E29E07E9E0AE07E0E0DB
:1023F000BE0748F48091DD03882329F08091DE0335
:10240000833009F049C08BE394E00E942130209191
:1024100004043091050440911F0450912004240FBE
:10242000351F28173907A4F480910104863669F016
:1024300081EA94E00E94213020910204309103044B
:10244000265E3F4F281739073CF51092DE033DC149
:102450008BE394E00E942130209104043091050424
:102460004091210450912204240F351F82179307B5
:102470009CF480910104863669F081EA94E00E9420
:10248000213020910204309103042A5130408217F8
:10249000930714F481E066CF01DFDC01CB018134C6
:1024A000F7E79F07FBE1AF07F0E0BF0710F01092DE
:1024B000DC030ADFDC01CB01813A2BEB92072DE034
:1024C000A20720E0B20708F400C11092DD03FDC0AE
:1024D00081E08093DC030E94E409DC01CB0180935E
:1024E000CE039093CF03A093D003B093D1038090F9
:1024F0002D0490902E04AA24BB24FCDE28EEC22ECC
:1025000023E0D22EE12CF12CA70196010E947B3012
:1025100082169306A406B50628F420912D04309166
:102520002E0405C0E7DEA70196010E947B30609172
:10253000080470910904882777FD8095982F442717
:1025400037FD4095542F0E94493020E13EE040E0A5
:1025500050E00E949D3069018BE394E00E9421309D
:10256000FC01EC19FD09F093F803E093F703C09028
:102570000404D090050480912704909128042091B0
:10258000290430912A04820F931F62E070E00E94B8
:1025900068306C0D7D1D6E177F070CF496C0D092CD
:1025A000FA03C092F90369C08093DD030E94E40935
:1025B000DC01CB018093D2039093D303A093D40387
:1025C000B093D50380902B0490902C04AA24BB24B4
:1025D00091DEF8EECF2EF3E0DF2EE12CF12CA701F7
:1025E00096010E947B3082169306A406B50628F455
:1025F00020912B0430912C0405C07CDEA7019601AC
:102600000E947B306091060470910704882777FD53
:102610008095982F442737FD4095542F0E944930CC
:1026200020E13EE040E050E00E949D3069018BE3F4
:1026300094E00E942130FC01EC0DFD1DF093F803A5
:10264000E093F703C0900404D09005048091230424
:10265000909124042091250430912604820F931F29
:1026600062E070E00E9468306C0D7D1DE617F70790
:1026700064F1D092FC03C092FB0382E073CE87E149
:102680008DD98130910509F500D08BEF92E0EDB73F
:10269000FEB7928381830E94002482E08093DE0350
:1026A0000F900F9012C08091DE03843048F4823086
:1026B00008F07BCE882309F40BCF813031F474CF3E
:1026C0008430E9F2853009F470CEFF90EF90DF900E
:1026D000CF90BF90AF909F908F90089581E094E04D
:1026E00061E070E049E050E00E949A358091020478
:1026F000909103049093DB038093DA0308950F9382
:102700001F93CF93DF93EC01F5E075956795FA95EC
:10271000E1F766567E4F8B01222717FD2095322F59
:102720000F3F11052105310571F06CF00B3981E087
:10273000180780E0280780E038074CF00AE911E02C
:1027400020E030E004C000E011E020E030E06881EB
:102750007981882777FD8095982FA90198010E949B
:102760004930DC01CB01E9E0B595A79597958795B0
:10277000EA95D1F799838883B1DFDF91CF911F91DB
:102780000F9108950F931F93CF93DF93EC01F5E022
:1027900075956795FA95E1F76A597D4F8B01222768
:1027A00017FD2095322F063682E0180780E02807B3
:1027B00080E038076CF0013083E0180780E02807DC
:1027C00080E038074CF000E013E020E030E004C087
:1027D00006E612E020E030E068817981882777FD05
:1027E0008095982FA90198010E944930DC01CB0106
:1027F000E9E0B595A79597958795EA95D1F79983DF
:1028000088836CDFDF91CF911F910F910895AF9274
:10281000BF92CF92DF92EF92FF920F93CF93DF930D
:10282000CDB7DEB76B970FB6F894DEBF0FBECDBF46
:102830008091DD03882309F4D2C08091DE038130CA
:1028400009F4CDC08BE394E00E9439307C0120E88C
:102850008030920751F18091FB039091FC0320910D
:10286000230430912404820F931F8E159F0534F4A6
:10287000B701681B790B86E094E084DF8091FB034D
:102880009091FC032091250430912604820F931F20
:10289000E816F90634F4B701681B790B86E094E07A
:1028A0002EDF00D08EE093E042C00EDDDC01CB01D4
:1028B000813AE9ED9E07E8E0AE07E0E0BE0708F4E4
:1028C0008EC0ECDCDC01CB018138FDE69F07FDE02A
:1028D000AF07F0E0BF0708F482C08BE394E00E94EA
:1028E00021302091FB033091FC034091250450914D
:1028F0002604240F351F821793070CF070C08BE35A
:1029000094E00E9421307C018091FB039091FC03B4
:102910002091250430912604820F931FB701681B74
:10292000790B86E094E0EBDE00D086E293E0ADB771
:10293000BEB712969C938E9311970E9427240F90F6
:102940000F90A701662757FD6095762FCE0143961D
:1029500023E009E00E947B2C5C014091FB03509135
:10296000FC03662757FD6095762FCE010A9623E07B
:102970000E947B2C6C01409106045091070466274D
:1029800057FD6095762FCE01019623E00E94962B8D
:10299000EDB7FEB738970FB6F894FEBF0FBEEDBF88
:1029A00031962BE433E0ADB7BEB712963C932E932D
:1029B0001197B382A282D582C482978386830E94B4
:1029C00027241092DD03F0920004E092FF03EDB79C
:1029D000FEB738960FB6F894FEBF0FBEEDBF8091DC
:1029E000DC03882309F4CFC08091DE03882309F437
:1029F000CAC08BE394E00E943C307C01F0E8803058
:102A00009F0781F18091F9039091FA0320912904A5
:102A100030912A04820F931FE816F90634F4B701A7
:102A2000681B790B88E094E0ADDE8091F90390910A
:102A3000FA032091270430912804280F391F2E15FE
:102A40003F0564F42091290430912A04280F391F8E
:102A5000B701621B730B88E094E051DE00D085E77C
:102A600093E039C031DCDC01CB01813AE9ED9E070E
:102A7000E8E0AE07E0E0BE0708F485C00FDCDC014B
:102A8000CB018138FDE69F07FDE0AF07F0E0BF070F
:102A900008F479C08BE394E00E9421302091F9037F
:102AA0003091FA034091270450912804420F531F9C
:102AB000481759070CF067C08091290490912A04A7
:102AC000820F931FB701681B790B88E094E017DE33
:102AD00000D08DE893E0ADB7BEB712969C938E936D
:102AE00011970E9427240F900F90A701662757FD8A
:102AF0006095762FCE01019623E009E00E947B2CA1
:102B00005C014091F9035091FA03662757FD6095E7
:102B1000762FCE010A9623E00E947B2C6C01409117
:102B2000080450910904662757FD6095762FCE0161
:102B3000439623E00E94962BEDB7FEB738970FB669
:102B4000F894FEBF0FBEEDBF319624EB33E0ADB776
:102B5000BEB712963C932E931197B382A282D58270
:102B6000C482978386830E9427241092DC03F0920C
:102B7000FE03E092FD03EDB7FEB738960FB6F8946A
:102B8000FEBF0FBEEDBF6B960FB6F894DEBF0FBE53
:102B9000CDBFDF91CF910F91FF90EF90DF90CF905D
:102BA000BF90AF90089581E094E061E070E049E06B
:102BB00050E00C94823582E68093010480E098E234
:102BC000909303048093020490930504809304047B
:102BD00080E190E0909307048093060480E09AE0FF
:102BE000909309048093080479CD8AE094E06AE028
:102BF00070E041E350E00C949A358AE094E06AE09A
:102C000070E041E350E00C9482350F931F93CF9313
:102C1000DF9383E480930A0488E592E090932C0488
:102C200080932B0480EB94E090932E0480932D04EA
:102C300080E09CE390930E0480930D0480E098E084
:102C400090930C0480930B0480E09EE19093100419
:102C500080930F0490931204809311048AE990E00A
:102C6000909314048093130480E09AEF90931604D9
:102C70008093150490931804809317048AE190E0E0
:102C800090931A04809319048DEC9FEF90931C0489
:102C900080931B0420E031E030931E0420931D0438
:102CA0003093200420931F0420E03FEF3093220450
:102CB0002093210426E630E030932404209323045B
:102CC000909326048093250483E390E09093280456
:102CD000809327048AE99FEF90932A048093290424
:102CE00081E096E09093300480932F04CBE3D4E00E
:102CF000CE0161E076E00E943F3084E09CE090935A
:102D0000320480933104CE0164E07CE00E944230C2
:102D100083E09AE09093340480933304CE0163E01F
:102D20007AE00E94453002E018E0109336040093E8
:102D30003504C1EAD4E0CE0162E078E00E943F3081
:102D400085E09EE09093380480933704CE0165E0DF
:102D50007EE00E94423010933A0400933904CE0181
:102D600062E078E00E94453040DFDF91CF911F9113
:102D70000F91089580E090E00E949235813049F0F3
:102D80001ADF43DF80E090E061E00E94BB35A6DC03
:102D90002CCF09DF32CF809301048F56823050F45C
:102DA00080E090E8909303048093020490930504DC
:102DB0008093040493CC8091010408958091DE03F4
:102DC000089581EA94E00C942130FBDF2091020405
:102DD00030910304281739076CF480911104909105
:102DE00012049093F4038093F3038091150490915F
:102DF00016040CC080910F04909110049093F4037A
:102E00008093F30380911704909118049093F60334
:102E10008093F5031092DD031092DC03089583E0A4
:102E20008093DE0381EA94E00E94672E8BE394E0B6
:102E30000E94672E3ED8C9CF80910204909103046E
:102E400008958BE394E00C942130809104049091D8
:102E500005040895CF93DF93EC01809102049091D3
:102E60000304D0930304C09302048C1B9D0B97FFB3
:102E700003C0909581959F4F813891050CF0A5DF97
:102E80003BD84EDA8091DA039091DB038C1B9D0BCB
:102E900097FF03C0909581959F4F813891050CF065
:102EA0001DDCDF91CF910895909305048093040475
:102EB0008CDF22D835DA12CC81E090E00C94430FFD
:102EC00080E090E00C94430FFC01768365831482CC
:102ED000108289E090E09283818381E0838308956A
:102EE000CF93DF93EB01CB0167E00E94D92291E001
:102EF0002F81821390E0892FDF91CF910895EF9277
:102F0000FF920F931F93CF93DF93EC018B01E42E7D
:102F10008D819E810E942622FF2406C0CE01B80129
:102F2000DFDF882359F414C08D819E81B8010E948F
:102F30005622882329F0FE1459F4F0CF81E001C015
:102F400080E0DF91CF911F910F91FF90EF90089556
:102F5000F394EF14A8F3E8CFEF92FF920F931F932F
:102F6000CF93DF93EC017B018A018D819E810E94CA
:102F7000FE208D819E81B7010E94F6218D819E8168
:102F80006EEB40E00E9498218D819E810E94DB21A2
:102F9000F80180838D819E810E94DB21F80181836D
:102FA0008D819E810E94DB21F80182838D819E812B
:102FB0000E94DB21F80183838D819E810E94DB21A9
:102FC000F80184838D819E810E94DB21F801858335
:102FD0008D819E810E94DB21F80186838D819E81F7
:102FE0000E94DB21F80187838D819E810E94DB2175
:102FF000F80180878D819E810E94FE20DF91CF9114
:103000001F910F91FF90EF900895CF93DF93EA0106
:10301000A3DFCE0168E00E94D92291E028858213C7
:1030200090E0892FDF91CF910895EF92FF920F9357
:103030001F93CF93DF938C01EB017A01FC01858113
:1030400096810E94FE20F80185819681BE010E9432
:10305000F621F801858196816EE440E00E94982176
:10306000F80185819681F701628140E00E949821F4
:10307000F80185819681F701638140E00E949821E3
:103080008881803141F0F80185819681F701648162
:1030900040E00E949821F801858196810E94FE20DF
:1030A000F8018581968168E440810E949821F801A9
:1030B0008081882331F06AE070E080E090E00E9437
:1030C000200AF801858196810E94FE20DF91CF9130
:1030D0001F910F91FF90EF900895EF92FF920F9341
:1030E0001F93CF93DF93CDB7DEB72A970FB6F8942F
:1030F000DEBF0FBECDBF7C018B01242FAE014F5F21
:103100005F4F2A8782DF2A858823D9F0F8018081E2
:103110008031C9F02A3051F02A3050F02B3021F0A4
:103120002C3031F48FE705C08FE503C08FE301C079
:103130008FE18D83C701B801AE014F5F5F4F75DF2F
:1031400002C080E001C081E02A960FB6F894DEBF8D
:103150000FBECDBFDF91CF911F910F91FF90EF90E8
:103160000895CF93DF93EC018D819E810E94FE2014
:103170008D819E810E9423228D819E8164E44881FD
:103180000E9498218B81882321F189819A8189303D
:10319000910551F089309105B4F08A30910549F0DC
:1031A0008B30910581F40AC06EE570E080E090E01C
:1031B0000EC06CEB70E080E090E009C067E771E062
:1031C00080E090E004C06EEE72E080E090E00E944B
:1031D000200ADF91CF910895CF93DF93CDB7DEB76B
:1031E00029970FB6F894DEBF0FBECDBFAE014F5F7B
:1031F0005F4F0BDF882339F03A8120E0898190E02E
:10320000822B932B02C081E89FEF29960FB6F8948A
:10321000DEBF0FBECDBFDF91CF9108950F931F93F7
:10322000CF93DF93EC010E94D2308C0160E070E01C
:10323000AE010E943D33C801DF91CF911F910F91E4
:1032400008950C94683108950F931F93CF93DF93E3
:10325000CDB7DEB765970FB6F894DEBF0FBECDBF12
:103260008C01CE01019644E150E00E942933C8014F
:10327000BE016F5F7F4F0E94040965960FB6F894F8
:10328000DEBF0FBECDBFDF91CF911F910F9108958B
:10329000AF92CF92EF920F93CF93DF93EC01FC01AB
:1032A000E959FF4F8FEF8083CE0169E048E027E0C6
:1032B00006E035E0E32E54E0C52E73E0A72E47D795
:1032C000CE0164E144E0C2D6CE01BED6DF91CF91FB
:1032D0000F91EF90CF90AF9008958F929F92AF9201
:1032E000BF92CF92DF92FF920F931F93CF93DF9302
:1032F000CDB7DEB729970FB6F894DEBF0FBECDBFAE
:103300004C01CB01AC01662757FD6095762F6E010D
:103310000894C11CD11CC60121E009E00E947B2C4D
:1033200000E010E0FC2CCD2CE5E0AE2EB12C04C06A
:1033300060E210D60F5F1F4F8F2D9C2D0E945533DA
:103340009501281B390BC4010217130788F36F2D51
:103350007C2D0E94040929960FB6F894DEBF0FBE9B
:10336000CDBFDF91CF911F910F91FF90DF90CF9054
:10337000BF90AF909F908F900895CF93DF93D82FF9
:10338000C92F6CE042E032D660DDBC0180E86030DD
:10339000780731F48D2F9C2F61EF73E055DF03C068
:1033A0008D2F9C2F9ADFDF91CF910895CF93DF93DC
:1033B000D82FC92F66E042E019D68BE394E00E9433
:1033C000302F882331F03DDDBC018D2F9C2F85DF10
:1033D00005C08D2F9C2F6BEE73E036DFDF91CF9110
:1033E0000895CF93DF93D82FC92F6CE041E0FED52D
:1033F00023DDBC0180E86030780731F48D2F9C2FED
:1034000065EE73E021DF03C08D2F9C2F66DFDF9117
:10341000CF910895CF93DF93D82FC92F66E041E075
:10342000E5D581EA94E00E94302F882331F0C9DC91
:10343000BC018D2F9C2F51DF05C08D2F9C2F6FED70
:1034400073E002DFDF91CF910895CF93DF93EC011A
:10345000E1DFCE01C6DFCE01A9DFCE018EDFDF9135
:10346000CF910895CF93DF93D82FC92F6FED72D5E9
:103470008D2F9C2F60910A046DD5DF91CF91089517
:10348000CF93DF93D82FC92F60E040E0AFD58D2FC9
:103490009C2F67EF73E0D8DE8D2F9C2F60E041E01A
:1034A000A5D58D2F9C2F6FEF73E0CEDE8D2F9C2F37
:1034B00060E042E09BD58D2F9C2F67E074E0C4DE76
:1034C0008D2F9C2F62E141E091D58D2F9C2FCADF7B
:1034D0008D2F9C2F62E142E089D58D2F9C2FC2DF7A
:1034E000DF91CF910895CF93DF93D82FC92F67E055
:1034F00040E07CD560DC863651F0873618F48236A1
:10350000D1F40AC08F3691F08037A9F40AC08D2F0C
:103510009C2F6FE074E013C08D2F9C2F6DE174E041
:103520000EC08D2F9C2F6BE274E009C08D2F9C2F55
:1035300069E374E004C08D2F9C2F67E474E084DE9F
:10354000DF91CF910895CF92DF92EF92FF920F9388
:103550001F93CF93DF93EC0131DC182FFE01E95963
:10356000FF4F80811817C1F1CC2E0D2FCE0160E0E6
:1035700043E03CD523DC823071F0833028F488238B
:1035800091F0813001F513C08430A9F0843038F017
:103590008530C9F414C0CE0165E574E018C0CE01D1
:1035A0006AE674E014C0CE016FE774E010C0CE018B
:1035B00064E974E00CC0CE0169EA74E008C0CE0191
:1035C0006EEB74E004C08C2D902F63ED74E03CDE54
:1035D000FE01E959FF4F1083123068F1123009F0F3
:1035E00041C01C2F0D2FCE0169E043E0FFD40E94A3
:1035F0004E116B017C010E946411DC01CB01C816E5
:10360000D906EA06FB0618F40E944E1102C00E9479
:10361000641128EE33E040E050E00E947B30BA01B4
:10362000CE01A9012AE030E00E948709812F902F66
:1036300068EE74E016C0CE016CE043E0D7D40E947F
:103640007A1128EE33E040E050E00E947B30CE015A
:10365000BA01A9012AE030E00E948709CE016BEE91
:1036600074E0F2DDDF91CF911F910F91FF90EF9009
:10367000DF90CF90089510920B0510920A0585E413
:1036800093E090930905809308050895FC0188E074
:10369000808F82E0818F08950895FC01708F618F83
:1036A00008952F923F924F925F926F927F928F92E6
:1036B0009F92AF92BF92CF92DF92EF92FF920F93C1
:1036C0001F93CF93DF93FC01448055806680778001
:1036D000408651866286738680809180A280B38006
:1036E00084829582A682B7824083518362837383EA
:1036F000C088D188E288F388C48AD58AE68AF78AA6
:1037000084859585A685B785808B918BA28BB38B9D
:10371000D18DC08D2C2E33248C019D010C191D09D7
:103720002E093F09080F191F2A1F3B1F0D2E04C029
:10373000B595A795979587950A94D2F7081B190B0D
:103740002A0B3B0BD701C60104C0B595A7959795E9
:103750008795DA95D2F7080F191F2A1F3B1FDB0147
:10376000CA010C2E04C0B595A795979587950A9424
:10377000D2F7080F191F2A1F3B1FC1010197B5017E
:10378000A40104C075956795579547958A95D2F71A
:10379000040F151F261F371FD301C20104C0B595A2
:1037A000A79597958795CA95D2F7080F191F2A1FD5
:1037B0003B1FC1010297B701A60104C0759567952B
:1037C000579547958A95D2F7041B150B260B370B97
:1037D0000487158726873787B801C901DF91CF9104
:1037E0001F910F91FF90EF90DF90CF90BF90AF901F
:1037F0009F908F907F906F905F904F903F902F9011
:1038000008959B01A901662757FD6095762FBA019F
:103810005527442746DFAB01BC01AB01772757FD95
:103820007095672FCA010895FC014485558566850A
:103830007785AB01772757FD7095672FCA010895EB
:10384000FC0164857585868597850895FC01CB010B
:10385000AA2797FDA095BA2FDC0199278827808396
:103860009183A283B38384839583A683B783808760
:103870009187A287B38784879587A687B787808B30
:10388000918BA28BB38B848B958BA68BB78B089572
:10389000FC01408951896289738984859585A68553
:1038A000B78584179507A607B7075CF484899589BF
:1038B000A689B789481759076A077B072CF0CB01FF
:1038C000089580E090E8089580E090E80895FC0174
:1038D000408951896289738984859585A685B785D4
:1038E000481759076A077B075CF484899589A6897C
:1038F000B78984179507A607B7072CF0CB01089561
:1039000080E090E8089580E090E80895AF92BF923B
:10391000CF92DF92EF92FF920F931F93CF93DF939B
:10392000CDB7DEB729970FB6F894DEBF0FBECDBF77
:1039300088E095E0A5DD80DA5C0120E88030920720
:1039400019F460E078E201C0BC01882777FD80951A
:10395000982F0E94FA2D8C0160910B0470910C0439
:10396000882777FD8095982F0E94FA2D6C01609131
:103970000D0470910E04882777FD8095982F0E9482
:10398000FA2DAC01C801B6010E94940E0E94E40910
:103990006B017C014CC00E94CB0E882371F10E9408
:1039A000E4096B017C010E94AE0E0E94302E52DAB7
:1039B00088E095E016DD0E94DD0E8823C1F10E94AB
:1039C000E00E3ADAAC01662757FD6095762FCE01FE
:1039D000019621E009E00E947B2C00D000D025E474
:1039E00035E0EDB7FEB73283218394838383E2D63B
:1039F0000F900F900F900F902EC0112321F488E0AC
:103A000095E0EFDC0CC0103851F488E095E06CE0F4
:103A100041E0ECD288E095E065E775E015DC1F5FDA
:103A200061E070E080E090E00E94200A01C010E0B8
:103A30000E94E409DC01CB018C199D09AE09BF0984
:103A40008031F7E29F07F0E0AF07F0E0BF0708F42E
:103A5000A2CFC501FFD929960FB6F894DEBF0FBEDD
:103A6000CDBFDF91CF911F910F91FF90EF90DF902D
:103A7000CF90BF90AF900895AF92BF92CF92DF9258
:103A8000EF92FF920F931F93CF93DF93CDB7DEB7E3
:103A900029970FB6F894DEBF0FBECDBF88E095E042
:103AA000EFDCD3D95C0120E88030920719F460E0A4
:103AB00078E201C0BC01882777FD8095982F0E948D
:103AC000FA2D8C0160910B0470910C04882777FD0E
:103AD0008095982F0E94FA2D6C0160910D047091D1
:103AE0000E04882777FD8095982F0E94FA2DAC014F
:103AF000C801B6010E94940E0E94E4096B017C018A
:103B00004CC00E94CB0E882371F10E94E4096B0126
:103B10007C010E94AE0E0E94302EC6D988E095E04E
:103B20002CDC0E94DD0E8823C1F10E94E00E8DD9AD
:103B3000AC01662757FD6095762FCE01019621E0F6
:103B400009E00E947B2C00D000D02BE735E0EDB7D8
:103B5000FEB7328321839483838352D60F900F90D4
:103B60000F900F902EC0112321F488E095E005DC22
:103B70000CC0103851F488E095E06CE042E036D299
:103B800088E095E06DEA75E05FDB1F5F61E070E063
:103B900080E090E00E94200A01C010E00E94E40949
:103BA000DC01CB018C199D09AE09BF098031F7E218
:103BB0009F07F0E0AF07F0E0BF0708F4A2CFC50110
:103BC00073D929960FB6F894DEBF0FBECDBFDF9133
:103BD000CF911F910F91FF90EF90DF90CF90BF900A
:103BE000AF900895CF92DF92EF92FF920F931F93C1
:103BF000CF93DF9300D000D0CDB7DEB788E095E05B
:103C00003FDCD9D8182FE82FE656EB3028F4F0E047
:103C1000EA5CFC4F808101C080E090E060E070E0F1
:103C200043E050E00E94940E82E6898386E68A8310
:103C300080E78B838FE68C830E94E4096B017C0113
:103C400056C00E94CB0E882309F437C00E94E409B5
:103C50006B017C010E94AE0EE1E0F0E0EC0FFD1F75
:103C6000E80FF91F808197D888E095E03CDC0E943E
:103C7000DD0E882309F43BC00E94E00E9CD88236FA
:103C800011F444DE48C097D8863611F4F5DE43C0FF
:103C900092D8803721F400D085EF94E006C08BD80D
:103CA0008F36C9F500D086E195E0EDB7FEB7928377
:103CB000818380D50F900F902EC0002321F488E0DF
:103CC00095E011DC0CC0003851F488E095E067E025
:103CD00040E08CD188E095E067E375E0B5DA0F5FEE
:103CE00061E070E080E090E00E94200A01C000E006
:103CF0000E94E409DC01CB018C199D09AE09BF09C2
:103D00008031F7E29F07F0E0AF07F0E0BF0708F46B
:103D100098CF812F40D80F900F900F900F90DF9188
:103D2000CF911F910F91FF90EF90DF90CF9008956A
:103D3000CF92DF92EF92FF92CF9380E090E060E02D
:103D400070E042E050E00E94940E0E94E4096B0192
:103D50007C01C0E047C00E94CB0E882329F00E945E
:103D6000E4096B017C0102C0CC2329F488E095E0D2
:103D700087DBC0E00EC0C03861F40E94AE0E482F51
:103D800088E095E060E032D188E095E06EEE74E086
:103D90005BDA0E94DD0E8823F1F00E94E00E0E94A3
:103DA000AE0E8130910539F08230910561F00097B7
:103DB00091F418DF28C082E60E94CB1688E095E0D7
:103DC00092DBA4DD20C086E60E94CB1688E095E059
:103DD0008ADB52DE18C0CF5F61E070E080E090E0E7
:103DE0000E94200A0E94E409DC01CB018C199D0984
:103DF000AE09BF09803127E2920720E0A20720E048
:103E0000B20708F4A8CFCF91FF90EF90DF90CF904A
:103E10000895CF93DF93EC018E8161E00E94980CAE
:103E200084E690E00E94FA0B8E8160E00E94980C7C
:103E3000DF91CF910895CF92DF92EF92FF920F938F
:103E40001F93CF93DF938C01C0E0D0E0C62EDD241A
:103E50007801EC0EFD1EF701808561E00E94640C84
:103E6000B6010C2E02C0759567950A94E2F7617051
:103E7000F70180850E94980C2196C430D10541F746
:103E800084E690E00E94FA0BC801C3DFDF91CF9176
:103E90001F910F91FF90EF90DF90CF9008951F93A7
:103EA000CF93DF93EC01162F8C81642F0E94980C26
:103EB0008D8161E00E94640C8D8160E00E94980C0D
:103EC000212F30E084E0359527958A95E1F7CE01E2
:103ED000622FB1DFCE01612FAEDFDF91CF911F9155
:103EE00008950F931F93CF93DF93EC018F8160E0D0
:103EF0000E94640C8C8160E00E94980C8D8161E0CE
:103F00000E94980C19EC8E8160E00E94980C8E81C2
:103F100061E00E94980C8AE090E00E94FA0B8F8189
:103F20000E94CE0C082F8E8160E00E94980CCE017A
:103F300070DF115011F0002331F78F8161E00E9492
:103F4000640C8D8160E00E94980CDF91CF911F91ED
:103F50000F9108951F93CF93DF93EC01162F41E04B
:103F60009EDF4989888990E025E130E0829FF00159
:103F7000839FF00D929FF00D1124EC0FFD1FE40FB5
:103F8000F11D138B4F5F498BCE01ABDF81E090E0D9
:103F9000DF91CF911F910895CF93DF93EC0140E023
:103FA0007EDFCE019EDFDF91CF910895FC01668513
:103FB0006E7F66876460F0CFFC016685262F2260E5
:103FC00026876660E9CFFC0165856D7F658768603F
:103FD000E3CFFC016585262F246025876C60DCCF4C
:103FE000FC0165856B7F65876860D6CFCF93DF93D3
:103FF00000D000D0CDB7DEB7198220E42A8324E1B7
:104000002B8324E52C83FC012289421708F040E031
:10401000FC01408B618BFE01E40FF11D2181260F15
:104020002068622FB9DF0F900F900F900F90DF91F3
:10403000CF910895CF93DF93EC0162E0ADDF188A52
:10404000198ADF91CF91089561E0A6CFEF92FF9298
:104050000F931F93CF93DF938C01FC01428B108A47
:10406000118A848161E00E94640CF801858161E01D
:104070000E94640CF801868161E00E94640CF801E2
:10408000848160E00E94980CF801868160E00E94C3
:10409000980CF801858160E00E94980CEE24FF24C2
:1040A000E801CE0DDF1D888561E00E94640C8885E3
:1040B00060E00E94980C0894E11CF11CF4E0EF16FB
:1040C000F10471F780E593EC0E94FA0B80E09DE724
:1040D0000E94FA0BC80163E0AEDE80E09DE70E941B
:1040E000FA0BC80163E0A7DE80E09DE70E94FA0BAF
:1040F000C80163E0A0DE80E09DE70E94FA0BC801E2
:1041000062E099DE80E197E20E94FA0BC80162E06A
:1041100092DE80E197E20E94FA0BC80168E08BDE34
:10412000C801DFDEC8015CDFC8018EDFC80144DFE3
:10413000C8013CDFC8017EDFC80145DFC80149DF97
:10414000DF91CF911F910F91FF90EF900895AF9263
:10415000CF92EF920F93CF93DF93EC01862F6C8376
:104160004D832E83AF820887E986CA86AB8661E0DD
:104170000E94640C8D8161E00E94640C8E8161E07C
:104180000E94640C88E28C87CE0164E144E05EDF2B
:1041900024E030E20DC0FE01E80FF91F338B0196D9
:1041A00084319105C1F71FA221506596222319F091
:1041B00080E090E0F0CFDF91CF910F91EF90CF9022
:1041C000AF900895DA0120E030E075E1679FB0011B
:1041D0001124680F791F90EBFB01E20FF31F838915
:1041E0008F3D11F49C9301C08C932F5F3F4F11962C
:1041F0002431310589F7FA01148A0895FF920F934B
:104200001F93CF93DF93FC011081C181D281F89479
:104210008981012F00958023898378948DE7F82E7A
:10422000FA9431F182E090E00E94FA0B88818123B8
:10423000B9F3F8948A8180238A838981812B8983C9
:10424000789484EF91E00E94FA0BF894898180239E
:10425000898380E590E00E94FA0B88818123C1E088
:1042600009F0C0E0789484EA91E00E94FA0B01C062
:10427000C0E08C2FDF91CF911F910F91FF90089597
:104280001F93CF93DF93FC011081C181D281912FC5
:104290009095F8948A8189238A838981812B8983E7
:1042A00060FF0BC08AE090E00E94FA0B8A81812BAC
:1042B0008A83789487E390E00AC081E490E00E94CA
:1042C000FA0B8A81812B8A83789485E090E00E94A2
:1042D000FA0BDF91CF911F9108950F931F93CF9306
:1042E000DF93FC011081C181D281F8948981812BF7
:1042F00089838A81012F009580238A8383E090E05F
:104300000E94FA0B8981802389838AE090E00E94D1
:10431000FA0BC881789485E390E00E94FA0B1C2385
:1043200081E009F480E0DF91CF911F910F91089512
:10433000CF92DF92EF92FF920F931F93CF93DF9371
:104340000F92CDB7DEB78C01F62E28E0C22ED12C0D
:10435000EE24E3948E2D8F2161E009F460E0C80122
:1043600049838EDFEE0C0894C108D1084981C1143D
:10437000D10481F74423A9F4F894D8011196ED9162
:10438000FC91129791818C9180958923818311965C
:10439000ED91FC91129792818C9180958923828373
:1043A00078940F90DF91CF911F910F91FF90EF9034
:1043B000DF90CF900895EF92FF920F931F93CF93CA
:1043C000DF938C01C8E0D0E0FF24EE24E394C80121
:1043D00084DF8111FE28EE0C2197C9F78F2DDF9124
:1043E000CF911F910F91FF90EF900895CF92DF92A0
:1043F000EF92FF920F931F93CF93DF930F92CDB75E
:10440000DEB77C01C62E65E540E0798391DF0C2D97
:104410007981172FCC24DD24F80161918F01C70128
:1044200040E086DF0894C11CD11CF8E0CF16D1040F
:1044300099F70F90DF91CF911F910F91FF90EF901F
:10444000DF90CF9008956CEC40E072CFFC011386B2
:10445000158614861286118610861782168215829A
:104460001482138208951F93CF93DF93EC01162FCC
:10447000862F60E00E94640C612F70E0FB01E1591F
:10448000FD4FE491E883FB01E357FD4FE491F0E039
:10449000EE0FFF1FE555FD4F8591949189839A8317
:1044A000CE01D4DFDF91CF911F910895BF92CF92BB
:1044B000DF92EF92FF920F931F93CF93DF93EC0164
:1044C0006B018D85882309F052C0CE0197DE8823C9
:1044D00021F41B861D861C865BC0CE0160EF40E088
:1044E00027DF01E0FF24EE2411E0CE01F6DEB82E36
:1044F000CE01F3DE91E0B91619F48130A9F42FC092
:10450000B816D1F48B85181738F4FE01EF0DF11DA4
:104510008381802349F402C0181731F060E019301C
:1045200008F040C01C873EC0FE01EF0DF11D8381E5
:10453000802B838361E009C06B2DFE01EF0DF11D1F
:10454000902F9095838189238383CE0199DE1F5F0D
:10455000000F11F4F39401E087E08F1530F6113469
:1045600030F0EB86EE2001F581E08D871DC01B86C3
:104570001D861C8680E0D60120E030E0FE01E20FBF
:10458000F31F93819D932F5F3F4F28303105B1F783
:10459000DF91CF911F910F91FF90EF90DF90CF901F
:1045A000BF900895E12EC9CF8B81882301F381E06C
:1045B000E2CFDC0180E007C0ED91E827F0E0ED54A8
:1045C000FA4F849161506623B9F70895CF93DF9332
:1045D000CDB7DEB7C058D0400FB6F894DEBF0FBEDF
:1045E000CDBFFE01EB57FF4F41915191CE01019696
:1045F00060E870E09F010E948B3388E693E0BE0183
:104600006F5F7F4F0E940409C058DF4F0FB6F894C8
:10461000DEBF0FBECDBFDF91CF910895CF92DF9265
:10462000EF92FF920F93CF93DF93CDB7DEB7299729
:104630000FB6F894DEBF0FBECDBF7C016B010E94A8
:10464000E116AC01662757FD6095762FCE010196E5
:1046500022E009E00E947B2C00D000D02AE137E064
:10466000EDB7FEB73283218394838383AFDF0F904E
:104670000F900F900F900E941C17AC01662757FDFA
:104680006095762FCE01019622E00E947B2C00D00F
:1046900000D02CE237E0EDB7FEB73283218394835C
:1046A000838394DF0F900F900F900F90E114F1042B
:1046B00059F400D08AE397E0EDB7FEB79283818387
:1046C00085DF0F900F900FC000D000D08AE497E0F4
:1046D000EDB7FEB792838183F482E38277DF0F9098
:1046E0000F900F900F900E942117AC01662757FD85
:1046F0006095762FCE01019622E009E00E947B2C86
:1047000000D000D02AE537E0EDB7FEB73283218331
:10471000948383835BDF0F900F900F900F900E9424
:104720002517AC01662757FD6095762FCE010196BF
:1047300022E00E947B2C00D000D02BE637E0EDB7C2
:10474000FEB7328321839483838340DF0F900F90E1
:104750000F900F90C114D10459F400D08BE797E06B
:10476000EDB7FEB79283818331DF0F900F900FC0BA
:1047700000D000D08EE897E0EDB7FEB7928381833A
:10478000D482C38223DF0F900F900F900F90299651
:104790000FB6F894DEBF0FBECDBFDF91CF910F9162
:1047A000FF90EF90DF90CF90089580E090E060E080
:1047B00070E034CFCF93DF93CDB7DEB7C058D04091
:1047C0000FB6F894DEBF0FBECDBFFE01EB57FF4F13
:1047D00041915191CE01019660E870E09F010E94E5
:1047E0008B33CE01019660E070E018DFC058DF4FD8
:1047F0000FB6F894DEBF0FBECDBFDF91CF91089505
:10480000CF93DF93CDB7DEB7C058D0400FB6F89442
:10481000DEBF0FBECDBFFE01EB57FF4F419151915F
:10482000CE01019660E870E09F010E948B3380E02A
:1048300090E0BE016F5F7F4FF1DEC058DF4F0FB6D3
:10484000F894DEBF0FBECDBFDF91CF910895EF92F8
:10485000FF920F931F93CF93DF93CDB7DEB7C0586E
:10486000D0400FB6F894DEBF0FBECDBF8E01075704
:104870001F4FF801E190F1908F0100D081EA97E09D
:10488000EDB7FEB792838183A1DE0F900F90CE012A
:10489000019660E870E0A70198010E948B3388E6DA
:1048A00093E0BE016F5F7F4F0E94040900D084EA4D
:1048B00097E0EDB7FEB79283818388DE0F900F906B
:1048C000C058DF4F0FB6F894DEBF0FBECDBFDF91EB
:1048D000CF911F910F91FF90EF90089500D000D0DD
:1048E00000D0EDB7FEB7319620ED37E0ADB7BEB7DB
:1048F00012963C932E9311979383828375836483DE
:1049000065DE8DB79EB706960FB6F8949EBF0FBEB4
:104910008DBF08950F93CF93DF93CDB7DEB72C975C
:104920000FB6F894DEBF0FBECDBF00D082EC97E08B
:10493000ADB7BEB712969C938E93119747DE0F903A
:104940000F904091DF035091E003662757FD60957B
:10495000762FCE01019623E00CE00E948C2DBC0145
:1049600082E091E0BBDF4091E1035091E20360916E
:10497000E3037091E403CE01019623E00E948C2DA5
:10498000BC018BE091E0AADF4091E5035091E60382
:10499000662757FD6095762FCE01019623E00E9491
:1049A0008C2DBC0188E191E099DF4091E7035091A3
:1049B000E8036091E9037091EA03CE01019623E0D8
:1049C000B5D6BC0182E291E089DF4091EB035091C2
:1049D000EC036091ED037091EE03CE01019623E0AC
:1049E000A5D6BC0184E291E079DF4091EF035091BC
:1049F000F0036091F1037091F203CE01019623E080
:104A000095D6BC0186E291E069DF4091F3035091B5
:104A1000F403662757FD6095762FCE01019623E0BB
:104A200085D6BC0188E291E059DF4091F5035091B1
:104A3000F603662757FD6095762FCE01019623E099
:104A400075D6BC018BE291E049DF4091F7035091AC
:104A5000F803662757FD6095762FCE01019623E077
:104A60004AD7BC018EE291E039DF4091F9035091C1
:104A7000FA03662757FD6095762FCE01019623E055
:104A80003AD7BC018CE391E029DF4091FB035091C0
:104A9000FC03662757FD6095762FCE01019623E033
:104AA0002AD7BC018BE491E019DF4091FD035091BE
:104AB000FE03662757FD6095762FCE01019623E011
:104AC0001AD7BC018AE591E009DF4091FF035091BC
:104AD0000004662757FD6095762FCE01019623E0EE
:104AE0000AD700D000D000D0EDB7FEB7319626EC43
:104AF00037E0ADB7BEB712963C932E93119722E6DE
:104B000031E0338322839583848360DDEDB7FEB784
:104B100036960FB6F894FEBF0FBEEDBF2C960FB6BB
:104B2000F894DEBF0FBECDBFDF91CF910F910895F6
:104B300000D000D000D0EDB7FEB7319629ED37E0B8
:104B4000ADB7BEB712963C932E9311979383828391
:104B5000648315823BDD8DB79EB706960FB6F89439
:104B60009EBF0FBE8DBF08950F93CF93DF93CDB738
:104B7000DEB72C970FB6F894DEBF0FBECDBF00D0C6
:104B800086EA97E0ADB7BEB712969C938E931197C5
:104B90001DDD0F900F908AE691E060910104C8DF5F
:104BA0004091020450910304662757FD6095762FCB
:104BB000CE01019622E00CE09ED6BC018FE691E08A
:104BC0008DDE4091040450910504662757FD6095E1
:104BD000762FCE01019622E08ED6BC018BE791E0C4
:104BE0007DDE4091060450910704662757FD6095CD
:104BF000762FCE01019623E099D5BC0189E891E09A
:104C00006DDE4091080450910904662757FD6095B8
:104C1000762FCE01019623E089D500D000D000D0B8
:104C2000EDB7FEB731962AEA37E0ADB7BEB71296B8
:104C30003C932E93119727E931E0338322839583A8
:104C40008483C4DCEDB7FEB736960FB6F894FEBF8A
:104C50000FBEEDBF2C960FB6F894DEBF0FBECDBFD2
:104C6000DF91CF910F91089500D000D000D0EDB723
:104C7000FEB7319624EE37E0ADB7BEB712963C933F
:104C80002E93119793838283758364839FDC8DB702
:104C90009EB706960FB6F8949EBF0FBE8DBF0895BF
:104CA0000F93CF93DF93CDB7DEB72C970FB6F89461
:104CB000DEBF0FBECDBF00D084EB97E0ADB7BEB76F
:104CC00012969C938E93119781DC0F900F9085EA3A
:104CD00091E060910A042CDF40910B0450910C0488
:104CE000662757FD6095762FCE01019621E00CE0F6
:104CF00002D6BC0180EB91E0F1DD40910D045091B2
:104D00000E04662757FD6095762FCE01019621E0AF
:104D1000F2D5BC018FEB91E0E1DD40910F045091A1
:104D20001004662757FD6095762FCE01019623E08B
:104D3000FDD4BC018EEC91E0D1DD40911104509185
:104D40001204662757FD6095762FCE01019623E069
:104D5000EDD4BC0185ED91E0C1DD4091130450918B
:104D60001404662757FD6095762FCE01019623E047
:104D7000DDD4BC018CED91E0B1DD40911504509182
:104D80001604662757FD6095762FCE01019623E025
:104D9000CDD4BC018FED91E0A1DD4091170450917D
:104DA0001804662757FD6095762FCE01019623E003
:104DB000BDD4BC0186EE91E091DD40911D0450917F
:104DC0001E04662757FD6095762FCE01019623E0DD
:104DD000A3D6BC018DEE91E081DD40911904509184
:104DE0001A04662757FD6095762FCE01019623E0C1
:104DF00093D6BC0187EF91E071DD40911B04509187
:104E00001C04662757FD6095762FCE01019623E09E
:104E100083D6BC0181E092E061DD40911F04509196
:104E20002004662757FD6095762FCE01019623E07A
:104E300073D6BC018BE092E051DD4091210450918A
:104E40002204662757FD6095762FCE01019623E058
:104E500063D6BC0189E192E041DD40912304509189
:104E60002404662757FD6095762FCE01019623E036
:104E700053D6BC0186E292E031DD40912504509189
:104E80002604662757FD6095762FCE01019623E014
:104E900043D6BC0189E392E021DD40912704509183
:104EA0002804662757FD6095762FCE01019623E0F2
:104EB00033D6BC018CE492E011DD4091290450917D
:104EC0002A04662757FD6095762FCE01019623E0D0
:104ED00023D6BC018FE592E001DD60912B04709137
:104EE0002C0482E792E0C0DE60912D0470912E04C4
:104EF00089E892E0B9DE60912F047091300480EA75
:104F000092E0B2DE609131047091320481EB92E064
:104F1000ABDE609133047091340482EC92E0A4DE45
:104F2000609135047091360484ED92E09DDE6091CD
:104F300037047091380483EE92E096DE00D000D002
:104F400000D0EDB7FEB7319688EB97E0ADB7BEB7AE
:104F500012969C938E93119782EF92E093838283B3
:104F60008091390490913A04958384832FDBEDB7C7
:104F7000FEB736960FB6F894FEBF0FBEEDBF2C9667
:104F80000FB6F894DEBF0FBECDBFDF91CF910F916A
:104F900008950F931F93CF93DF93EC018B0100D003
:104FA00000D000D0EDB7FEB731968DEE97E0ADB7EB
:104FB000BEB712969C938E931197D383C283758349
:104FC000648345DCEDB7FEB736960FB6F894FEBFA6
:104FD0000FBEEDBFCE016AE671E00E944C33009730
:104FE000B1F4D8018C910E94CB1600D000D0EDB75F
:104FF000FEB731968BE098E0ADB7BEB712969C93A2
:105000008E931197D8018C91828313825DC0CE015B
:105010006FE671E00E944C330097D1F5C8013ED590
:10502000EC01809101048037F9F4809102049091A1
:105030000304FE01E81BF90BCF01F7FF03C09095B5
:1050400081959F4F85369105F4F000D000D08BE21A
:1050500098E0ADB7BEB712969C938E9311971496B5
:105060001C930E9313970AC000D000D08AE698E0F4
:10507000EDB7FEB792838183148303839BDB0F908C
:105080000F900F900F90D0930304C093020400C2BE
:10509000CE016BE771E00E944C330097D9F4C80150
:1050A000FDD480910104863609F0F2C100D000D011
:1050B00083EA98E0ADB7BEB712969C938E93119792
:1050C00014961C930E9313979BDB0F900F900F90E9
:1050D0000F90DEC1CE0169E871E00E944C33009769
:1050E00049F4C80153D4DC01CB01909307048093A9
:1050F0000604CEC1CE0167E971E00E944C330097EF
:1051000049F4C80143D4DC01CB0190930904809396
:105110000804BEC1CE0165EA71E00E944C330097DD
:1051200049F4F801808180930A0488E095E00E94A8
:10513000401AAEC1CE0160EB71E00E944C33009783
:1051400039F4C801ABD490930C0480930B04A0C134
:10515000CE016FEB71E00E944C33009739F4C80127
:105160009DD490930E0480930D0492C1CE016EECF9
:1051700071E00E944C33009749F4C80107D4DC0168
:10518000CB019093100480930F0482C1CE0165ED92
:1051900071E00E944C33009749F4C801F7D3DC0159
:1051A000CB01909312048093110472C1CE016CED77
:1051B00071E00E944C33009749F4C801E7D3DC0149
:1051C000CB01909314048093130462C1CE016FED60
:1051D00071E00E944C33009749F4C801D7D3DC0139
:1051E000CB01909316048093150452C1CE0166EE54
:1051F00071E00E944C33009749F4C801C7D3DC0129
:10520000CB01909318048093170442C1CE016DEE38
:1052100071E00E944C33009739F4C801B1D49093E7
:105220001E0480931D0434C1CE0167EF71E00E941B
:105230004C33009739F4C801A3D490931A04809397
:10524000190426C1CE0161E072E00E944C33009740
:1052500039F4C80195D490931C0480931B0418C1A1
:10526000CE016BE072E00E944C33009739F4C80124
:1052700087D49093200480931F040AC1CE0169E172
:1052800072E00E944C33009739F4C80179D49093AE
:10529000220480932104FCC0CE0166E272E00E94E9
:1052A0004C33009739F4C8016BD490932404809355
:1052B0002304EEC0CE0169E372E00E944C330097F4
:1052C00039F4C8015DD49093260480932504E0C08E
:1052D000CE016CE472E00E944C33009739F4C801AF
:1052E0004FD49093280480932704D2C0CE016FE559
:1052F00072E00E944C33009739F4C80141D4909376
:105300002A0480932904C4C0CE0162E772E00E949F
:105310004C33009771F4C80160E070E04AE050E05F
:105320000E940132DC01CB0190932C0480932B046A
:10533000AFC0CE0169E872E00E944C33009771F46F
:10534000C80160E070E04AE050E00E940132DC01F8
:10535000CB0190932E0480932D049AC0CE0160EA75
:1053600072E00E944C33009781F4C80160E070E065
:105370004AE050E00E940132AB01BC01509330047E
:1053800040932F048BE394E044C0CE0161EB72E0C4
:105390000E944C33009781F4C80160E070E04AE05D
:1053A00050E00E940132AB01BC01509332044093A3
:1053B00031048BE394E045C0CE0162EC72E00E94C0
:1053C0004C33009781F4C80160E070E04AE050E09F
:1053D0000E940132AB01BC0150933404409333046A
:1053E0008BE394E046C0CE0164ED72E00E944C3342
:1053F000009791F4C80160E070E04AE050E00E943C
:105400000132AB01BC01509336044093350481EA6C
:1054100094E0BA0134D63CC0CE0163EE72E00E9443
:105420004C33009789F4C80160E070E04AE050E036
:10543000E8D7AB01BC01509338044093370481EAAC
:1054400094E0BA011FD624C0CE0162EF72E00E9440
:105450004C33009789F4C80160E070E04AE050E006
:10546000D0D7AB01BC0150933A044093390481EA90
:1054700094E0BA010AD60CC000D08EED98E0ADB72A
:10548000BEB712969C938E931197E1D90F900F900F
:10549000DF91CF911F910F9108950F931F93CF9399
:1054A000DF93CDB7DEB7EC970FB6F894DEBF0FBE33
:1054B000CDBF61E070E080E090E00E94200A10E043
:1054C00069C061E070E080E090E00E94200A88E618
:1054D00093E00E941B05182F8A33C9F0803261F0D7
:1054E0008B3751F0823241F0EFE1F0E0EC0FFD1F1D
:1054F000E00FF11D80830F5F0D3110F053C000E00D
:1055000088E693E00E94F70418161906D4F2EFE13A
:10551000F0E0EC0FFD1FE00FF11D108200E01DC058
:1055200061E070E080E090E00E94200A88E693E06D
:105530000E941B05182F8C32B9F08D37A9F08032EC
:1055400051F0823241F0E1E0F0E0EC0FFD1FE00F9E
:10555000F11D80830F5F0D3128F588E693E00E94EE
:10556000F70418161906E4F2E1E0F0E0EC0FFD1F75
:10557000E00FF11D1082CE014F96BE016F5F7F4F8D
:1055800008DD1D3739F40E946E130E94F515ECDA20
:1055900087DB08C088E693E00E94F7041816190616
:1055A0000CF4ADCFEC960FB6F894DEBF0FBECDBFB6
:1055B000DF91CF911F910F910895EF92FF920F937A
:1055C0001F93CF93DF93CDB7DEB766970FB6F894EE
:1055D000DEBF0FBECDBF88E693E00E94F704181629
:1055E00019060CF096C088E693E00E941B058A36E7
:1055F00009F479C08B3640F4833539F1833699F15B
:10560000833409F072C010C0833759F1843720F415
:105610008C3609F06AC02BC0843721F0863709F038
:1056200064C023C0C2D875C00E94051688E095E00A
:105630000E94401A35DB00D083EB96E0ADB7BEB7D1
:1056400012969C938E9311970AC00E94DB158CDAF8
:1056500000D08DEC96E0EDB7FEB792838183F7D84A
:105660003FC082DA56C01CDB54C054D952C000D0AF
:1056700086EE96E0ADB7BEB712969C938E931197C7
:105680000E94E6220F900F9020E08E010F5F1F4FC7
:1056900039EEE32E36E0F32E88E095E0622FA80184
:1056A0002E8B0E94E22000D000D0EDB7FEB7F28230
:1056B000E182148303830E94E6222E892F5F0F90DC
:1056C0000F900F900F90243039F700D080EF96E0C4
:1056D000ADB7BEB712969C938E9311970E94E622A7
:1056E0000F900F9016C0D9DE14C000D000D0EDB7D7
:1056F000FEB7319622EF36E0ADB7BEB712963C93B7
:105700002E93119782831382A2D80F900F900F903F
:105710000F9066960FB6F894DEBF0FBECDBFDF9137
:10572000CF911F910F91FF90EF900895AF92BF928C
:10573000CF92DF92EF92FF920F93CF93DF935C01B2
:1057400077FF0BC08DE2D5018C93709560955095D5
:1057500041955F4F6F4F7F4F03C080E2F50180831B
:105760006A017B01F9E0F594E794D794C794FA9520
:10577000D1F7E6015170607070702130B1F5CB0146
:10578000BA012AE030E040E050E083D4DC01CB01F4
:1057900080509F4FAF4FBF4FE9E0B595A7959795C4
:1057A0008795EA95D1F7BC018A30910519F42196C5
:1057B00060E070E08DB79EB70A970FB6F8949EBF71
:1057C0000FBE8DBFEDB7FEB73196C5010196ADB7DF
:1057D000BEB712969C938E931197802F90E00197FD
:1057E000938382838DEF98E037C02230E1F5CB01BF
:1057F000BA0124E630E040E050E04BD4DC01CB01BC
:1058000080509F4FAF4FBF4FF9E0B595A795979543
:105810008795FA95D1F7BC018436910519F4219644
:1058200060E070E08DB79EB70A970FB6F8949EBF00
:105830000FBE8DBFEDB7FEB73196C5010196ADB76E
:10584000BEB712969C938E931197802F90E001978C
:105850009383828385E099E095838483D783C6838D
:105860007187608734C08DB79EB70A970FB6F894DA
:105870009EBF0FBE8DBFCDB7DEB72196C501019685
:10588000ADB7BEB712969C938E931197802F90E080
:1058900001979B838A838DE099E09D838C83DF82CF
:1058A000CE82CB01BA0128EE33E040E050E0F1D3E4
:1058B000DC01CB0180509F4FAF4FBF4FE9E0B59562
:1058C000A79597958795EA95D1F799878887F6D612
:1058D000EDB7FEB73A960FB6F894FEBF0FBEEDBF18
:1058E000C501DF91CF910F91FF90EF90DF90CF90A6
:1058F000BF90AF900895CF92DF92EF92FF920F93F7
:105900001F93CF93DF93EC016A017B01122F40308C
:1059100080E858078FEF68078FEF780729F4CE01EA
:1059200068EF78E08FD628C080910A048634F1F4BD
:10593000DB01CA0123E0880F991FAA1FBB1F2A950C
:10594000D1F7840F951FA61FB71FBC01CD0125E01D
:1059500030E040E050E0F1D369017A0180E090E46A
:10596000A0E0B0E0C80ED91EEA1EFB1ECE01B701B2
:10597000A601212FDBDEEC01CE01DF91CF911F913B
:105980000F91FF90EF90DF90CF9008952F923F926C
:105990004F925F926F927F928F929F92AF92BF923F
:1059A000CF92DF92EF92FF920F931F93CF93DF93EB
:1059B00000D0CDB7DEB78C01FC0180818D3229F497
:1059C0000F5F1F4F77247A9402C077247394C80125
:1059D0006EE270E059D66C01C80160E070E04AE008
:1059E00050E00FD51B012C01C114D10469F18601CF
:1059F0000F5F1F4FC801BE016F5F7F4F4AE050E04D
:105A000000D56B017C016980601AF9E0CC0CDD1CCB
:105A1000EE1CFF1CFA95D1F700E010E0AAE08A2EF8
:105A2000912CA12CB12C0DC0C701B6016B5F7F4F2B
:105A30008F4F9F4FA501940180D369017A010F5FB9
:105A40001F4F601689F703C0CC24DD247601672D33
:105A500070E080E090E0A2019101E9E0220F331FA5
:105A6000441F551FEA95D1F72C0D3D1D4E1D5F1D9E
:105A700010D30F900F90DF91CF911F910F91FF9056
:105A8000EF90DF90CF90BF90AF909F908F907F90DE
:105A90006F905F904F903F902F9008950F931F93BA
:105AA00075DF8B019C0180910A048634D1F4D90101
:105AB000C80142E0880F991FAA1FBB1F4A95D1F762
:105AC000800F911FA21FB31F80509044A140B0408F
:105AD000BC01CD0129E030E040E050E02ED3890147
