:100000008EC40000B3C40000B1C400000C94060B01
:10001000ADC400000C94620AA9C40000A7C400008B
:10002000A5C40000A3C40000A1C400009FC4000038
:100030009DC400009BC4000099C4000097C4000048
:1000400025C7000093C40000A5C50000E4C500005A
:100050008DC400008BC4000089C4000087C4000068
:1000600085C4000083C400000000000700020100F6
:100070000003040600000000000000000102040864
:100080001020408001020408102001020408102002
:10009000040404040404040402020202020203032E
:1000A00003030303000000002300260029000000D2
:1000B0000000250028002B0000000000240027007D
:1000C0002A0041726475696E6F2072657374617283
:1000D000746564210046726964676520646F6F729D
:1000E000206F70656E6564004672696467652064A0
:1000F0006F6F7220636C6F73656400506F73697407
:10010000697665207065616B2064657465637465EC
:10011000642E004472696674696E67207570206190
:10012000667465722068656174696E6720746F6FAC
:100130002073686F72742E005065616B3A202573CE
:1001400020457374696D617465643A2025732E20AF
:100150004E657720657374696D61746F723A2025FE
:1001600073004E65676174697665207065616B2008
:1001700064657465637465642E00447269667469AD
:100180006E6720646F776E20616674657220636F9E
:100190006F6C696E6720746F6F2073686F72742E56
:1001A000005065616B3A2025732E20457374696D8C
:1001B000617465643A2025732E204E65772065733F
:1001C00074696D61746F723A20257300202D2D2E95
:1001D0002D004D6F6465202020004265657220204F
:1001E000200046726964676520004672696467652D
:1001F00020436F6E73742E004265657220436F6EEC
:100200007374616E7400426565722050726F666926
:100210006C6520004F6666202020202020202020B2
:100220002000496E76616C6964206D6F6465200002
:1002300049646C6520666F722020202020202020D9
:1002400020202020005374617274696E67207570DD
:100250002E2E2E20202020202000436F6F6C696EF0
:100260006720666F72202020202020202020004858
:10027000656174696E6720666F72202020202020DF
:1002800020202000446F6F72206F70656E20202048
:1002900020202020202020200054656D702E206317
:1002A0006F6E74726F6C204F464620202000556E92
:1002B0006B6E6F776E2073746174757321202020CC
:1002C000202000207300202020202020004368618F
:1002D0006E67656420746F2070726F66696C65204C
:1002E0006D6F646520696E206D656E752E005465B6
:1002F0006D7020636F6E74726F6C207475726E65B2
:1003000064206F666620696E206D656E752E002014
:100310002020202020202020202020200042656551
:10032000722074656D702073657420746F2025735E
:1003300020696E204D656E752E0020202020200043
:100340004672696467652074656D702073657420FA
:10035000746F20257320696E204D656E752E002008
:100360002020202000005EBCE2613FDD83C29C7E35
:1003700020A3FD1F419DC3217FFCA2401E5F01E31E
:10038000BD3E6082DC237D9FC1421CFEA0E1BF5DBB
:100390000380DE3C62BEE0025CDF81633D7C22C004
:1003A0009E1D43A1FF4618FAA427799BC584DA381D
:1003B00066E5BB5907DB856739BAE406581947A5D6
:1003C000FB7826C49A653BD987045AB8E6A7F91B7F
:1003D00045C6987A24F8A6441A99C7257B3A6486BC
:1003E000D85B05E7B98CD2306EEDB3510F4E10F2E9
:1003F000AC2F7193CD114FADF3702ECC92D38D6F86
:1004000031B2EC0E50AFF1134DCE90722C6D33D152
:100410008F0C52B0EE326C8ED0530DEFB1F0AE4C6B
:100420001291CF2D73CA947628ABF517490856B4AC
:10043000EA6937D58B5709EBB536688AD495CB294D
:1004400077F4AA4816E9B7550B88D6346A2B759706
:10045000C94A14F6A8742AC896154BA9F7B6E80A33
:1004600054D7896B3544656661756C7420636F6E13
:100470007374616E7473206C6F616465642E0044E4
:10048000656661756C742073657474696E6773203A
:100490006C6F616465642E004E3A222553220A0077
:1004A000302E312E30004C3A0025733C42523E0033
:1004B0000A00496E76616C696420636F6D6D616ED0
:1004C0006420726563656976656420627920417293
:1004D0006475696E6F3A20256300543A7B22426549
:1004E000657254656D70223A25732C002242656551
:1004F00072536574223A25732C002242656572415D
:100500006E6E223A006E756C6C2C00222573222CC4
:10051000002246726964676554656D70223A2573DE
:100520002C0022467269646765536574223A25730C
:100530002C0022467269646765416E6E223A006E35
:10054000756C6C2C00222573222C0022537461746C
:1005500065223A25757D0A00443A000A00533A7B29
:10056000006D6F6465006265657253657474696ED1
:10057000670066726964676553657474696E6700C5
:1005800068656174457374696D61746F7200636F3F
:100590006F6C457374696D61746F7200433A7B00D0
:1005A00074656D70466F726D61740074656D705323
:1005B000657474696E674D696E0074656D7053651E
:1005C0007474696E674D6178004B704865617400A2
:1005D0004B70436F6F6C004B69004B64436F6F6CE3
:1005E000004B644865617400694D61784572726FB3
:1005F000720069646C6552616E676548696768007E
:1006000069646C6552616E67654C6F7700686561FF
:1006100074696E67546172676574557070657200B5
:1006200068656174696E675461726765744C6F7751
:10063000657200636F6F6C696E6754617267657491
:10064000557070657200636F6F6C696E675461728C
:100650006765744C6F776572006D61784865617489
:1006600054696D65466F72457374696D6174650098
:100670006D6178436F6F6C54696D65466F72457339
:1006800074696D617465006672696467654661735B
:100690007446696C74657200667269646765536C50
:1006A0006F7746696C74657200667269646765533A
:1006B0006C6F706546696C74657200626565724640
:1006C00061737446696C7465720062656572536C1F
:1006D0006F7746696C7465720062656572536C6F02
:1006E000706546696C74657200563A7B0062656598
:1006F00072446966660064696666496E746567720D
:10070000616C0062656572536C6F706500700069A2
:100710000064004B70004B6400657374696D617414
:1007200065645065616B006E65675065616B53650C
:100730007474696E6700706F735065616B53657494
:1007400074696E67006E65675065616B00706F73EA
:100750005065616B00222553223A25732C00222517
:1007600053223A25737D0A00222553223A2225631B
:10077000222C00222553223A222563227D0A0022C0
:100780002553223A25752C00222553223A25757DC2
:100790000A00222553223A25752C00222553223A9D
:1007A00025757D0A005265636569766564206E650E
:1007B000772073657474696E673A202573203D2035
:1007C0002573004D6F64652073657420746F202558
:1007D0006320696E2077656220696E746572666158
:1007E000636500426565722074656D702073657481
:1007F00020746F2025732062792074656D70657296
:1008000061747572652070726F66696C652E004246
:100810006565722074656D702073657420746F2037
:10082000257320696E2077656220696E7465726633
:100830006163652E004672696467652074656D703A
:100840002073657420746F20257320696E2077658E
:100850006220696E746572666163652E00436F7510
:100860006C64206E6F742070726F63657373207395
:10087000657474696E67006E756C6C0025642E2556
:100880003031640025642E253032640025642E2525
:1008900030336400556E61626C6520746F20666948
:1008A0006E64206164647265737320666F72207376
:1008B000656E736F72206F6E2070696E2025640004
:1008C00054656D70657261747572652073656E73C1
:1008D0006F72206F6E2070696E20256420646973CA
:1008E000636F6E6E65637465640054656D706572E8
:1008F00061747572652073656E736F72206F6E2000
:1009000070696E202564207265636F6E6E65637416
:1009100065640000CA085915FE185C1501191124F8
:100920001FBECFEFD8E0DEBFCDBF11E0A0E0B1E049
:10093000E4EBF4E602C005900D92A833B107D9F7B5
:1009400014E0A8E3B1E001C01D92A93DB107E1F7B1
:1009500019E0CAE1D9E004C02297FE010E94792C77
:10096000C431D107C9F7E0D40C944E32E6C4FC017F
:1009700024853585F901E05CFF4F808191812E5BF4
:100980003F4FF90120813181821B930B8F7390704F
:100990000895FC0144855585FA01E05CFF4F808194
:1009A0009181FA01EE5BFF4F20813181821793071D
:1009B00041F00190F081E02DE40FF51F808190E07F
:1009C00008958FEF9FEF0895FC0144855585FA0146
:1009D000E05CFF4F20813181FA01EE5BFF4F8081A7
:1009E00091812817390779F0A081B181A40FB51F33
:1009F0008C91208131812F5F3F4F2F733070318375
:100A0000208390E008958FEF9FEF0895FC0181A16E
:100A1000882329F0A489B5898C9186FFFBCF11A288
:100A20000895CF93DF93DC011E964D915C911F9743
:100A3000EA01C05CDF4F288139812F5F3F4F2F7360
:100A40003070FA01EE5BFF4F8081918128173907E2
:100A5000D9F3E881F981E40FF51F60831E96ED91CB
:100A6000FC911F97E05CFF4F318320835696ED91F8
:100A7000FC915797208181E090E05F960C905F9702
:100A800002C0880F991F0A94E2F7282B208381E087
:100A900091968C9391975496ED91FC915597808106
:100AA0008064808381E090E0DF91CF910895CF92C0
:100AB000DF92EF92FF920F931F93CF93DF936C011E
:100AC0007B01EA0100E010E00EC0D7016D917D01CD
:100AD000D601ED91FC910190F081E02DC6010995C0
:100AE000080F191F2197209781F7C801DF91CF9137
:100AF0001F910F91FF90EF90DF90CF90089583307A
:100B000071F0843028F48130A1F0823021F514C0D6
:100B10008630B1F08730D1F08430E9F404C08091A0
:100B200080008F7703C0809180008F7D809380004C
:100B3000089584B58F7702C084B58F7D84BD0895F4
:100B40008091B0008F778093B00008958091B000BD
:100B50008F7D8093B00008950F931F93CF93DF9301
:100B60008C01EB01209771F0CB010E94002FAC01AA
:100B7000D801ED91FC910280F381E02DC801BE0106
:100B8000099502C080E090E0DF91CF911F910F9115
:100B9000089508951F920F920FB60F9211242F936C
:100BA0003F934F938F939F93EF93FF938091C00058
:100BB00082FD1CC04091C6008091E6019091E70142
:100BC00001968F7390702091E8013091E9018217AE
:100BD000930771F0E091E601F091E701EA55FE4FCD
:100BE00040839093E7018093E60102C08091C600A4
:100BF000FF91EF919F918F914F913F912F910F9086
:100C00000FBE0F901F90189580E491E0B0DE009722
:100C100009F0BFCF08951F920F920FB60F921124C3
:100C20002F933F938F939F93EF93FF932091A20174
:100C30003091A3018091A4019091A5012817390753
:100C400031F48091C1008F7D8093C10014C0E09188
:100C5000A401F091A501EE59FE4F20818091A401DD
:100C60009091A50101968F7390709093A501809348
:100C7000A4012093C600FF91EF919F918F913F9126
:100C80002F910F900FBE0F901F901895BF92CF928B
:100C9000DF92EF92FF920F931F93CF93DF93EC01BC
:100CA0006A017B01BB24B394403081EE580780E099
:100CB000680780E0780749F4BB24EC89FD8910823D
:100CC00060E874E88EE190E00FC0EC89FD8981E076
:100CD00090E008A002C0880F991F0A94E2F7808371
:100CE00060E079E08DE390E0A70196010E94262C58
:100CF00089019A01015010402040304036952795D7
:100D00001795079580E10030180710F0BB20A1F679
:100D1000E889F9891083EA89FB89008319A2EE89A1
:100D2000FF89408121E030E0C9010C8C02C0880FAE
:100D3000991F0A94E2F7482B4083EE89FF8940818E
:100D4000C9010D8C02C0880F991F0A94E2F7482B45
:100D50004083EE89FF894081C9010E8C02C0880F53
:100D6000991F0A94E2F7482B4083EE89FF8980811E
:100D70000F8C02C0220F331F0A94E2F7209528231C
:100D80002083DF91CF911F910F91FF90EF90DF9023
:100D9000CF90BF900895E0CE08954F925F926F92EA
:100DA0007F92AF92BF92CF92DF92EF92FF920F931A
:100DB0001F93CF93DF93CDB7DEB7A1970FB6F8940B
:100DC000DEBF0FBECDBF5C01E42ECB01F22E19A217
:100DD00021E02F1510F03AE0F32E21E2C22ED12CA3
:100DE000CC0EDD1E4F2C55246624772403C0E02E44
:100DF000512FC9016E2D752FA30192010E94262C3F
:100E000089019A01F09E802D1124E81A8E2D0894F4
:100E1000C108D1088A3010F4805D01C0895CF601F8
:100E20008083011511052105310509F7C501B601BA
:100E300093DEA1960FB6F894DEBF0FBECDBFDF9153
:100E4000CF911F910F91FF90EF90DF90CF90BF90C7
:100E5000AF907F906F905F904F900895211531056E
:100E600049F4DC01ED91FC910190F081E02D642FBB
:100E70000995089592CF9A01AB0160E070E0EECF42
:100E80000C947D2C08950C94132D08951F920F92AD
:100E90000FB60F9211242F933F938F939F93AF938D
:100EA000BF938091380190913901A0913A01B0919E
:100EB0003B013091EA01232F2D5F2D3720F401965D
:100EC000A11DB11D05C0232F2A570296A11DB11DDA
:100ED0002093EA018093380190933901A0933A015D
:100EE000B0933B0180913C0190913D01A0913E0166
:100EF000B0913F010196A11DB11D80933C019093DB
:100F00003D01A0933E01B0933F01BF91AF919F91EE
:100F10008F913F912F910F900FBE0F901F901895BA
:100F20000F931F938FB7F8940091380110913901F6
:100F300020913A0130913B018FBFB801C9011F9147
:100F40000F9108950F931F939FB7F89400913C0160
:100F500010913D0120913E0130913F0186B5A89B43
:100F600006C08F3F21F00F5F1F4F2F4F3F4F9FBF96
:100F7000322F212F102F0027080F111D211D311D89
:100F800052E0000F111F221F331F5A95D1F7B801ED
:100F9000C9011F910F910895CF92DF92EF92FF92B6
:100FA000CF93DF936B017C01CDDFDC01CB01EC0142
:100FB0000EC0C8DF6C1B7D0B83E0683E780738F0FD
:100FC0000894C108D108E108F108C851DC4FC114E8
:100FD000D104E104F10469F7DF91CF91FF90EF9024
:100FE000DF90CF900895019739F0880F991F880FEF
:100FF000991F02970197F1F70895789484B582605C
:1010000084BD84B5816084BD85B5826085BD85B5AC
:10101000816085BDEEE6F0E0808181608083E1E85B
:10102000F0E0108280818260808380818160808393
:10103000E0E8F0E0808181608083E1EBF0E0808196
:1010400084608083E0EBF0E0808181608083EAE768
:10105000F0E08081846080838081826080838081F1
:10106000816080838081806880831092C1000895B0
:1010700090E0FC01E458FF4F249180579F4FFC0102
:101080008491882341F190E0880F991FFC01E85476
:10109000FF4F45915491DA0182559F4FFC01859194
:1010A0009491FC019FB7F8948C91662331F42095BC
:1010B00082238C938081822308C0623049F4322FCE
:1010C000309583238C938081822B80839FBF0895EA
:1010D000822B8C939FBF08950F931F93CF93DF9321
:1010E0000F92CDB7DEB7282F30E0F901E859FF4F56
:1010F0008491F901E458FF4F1491F901E057FF4F33
:1011000004910023C9F0882319F06983F8DC698110
:10111000E02FF0E0EE0FFF1FE255FF4F8591949115
:10112000DC019FB7F8948C91662319F41095812304
:1011300001C0812B8C939FBF0F90DF91CF911F91A6
:101140000F910895CF93DF93282F30E0F901E859EC
:10115000FF4F8491F901E458FF4FC491F901E05722
:10116000FF4FD491DD2389F0882309F0C8DCED2FEF
:10117000F0E0EE0FFF1FEC55FF4F85919491FC01BD
:1011800020812C2381E090E011F480E090E0DF9159
:10119000CF910895109243011092420188EE93E09E
:1011A000A0E0B0E08093440190934501A0934601F4
:1011B000B0934701E2E4F1E088E191E092938293F9
:1011C00086EA91E09587848782E691E09787868713
:1011D00085EC90E0918B808B84EC90E0938B828BFC
:1011E00080EC90E0958B848B81EC90E0978B868BE4
:1011F00082EC90E0918F808F86EC90E0938F828FCD
:1012000084E0848F83E0858F87E0868F85E0878FF9
:1012100081E080A30895CF93DF9380E491E040E0E4
:1012200051EE60E070E032DD86E061E055DF85E0A0
:1012300061E052DF86E061E01BDF85E061E018DFFE
:1012400084E060E015DF0E94B6140E940C15A6D65B
:10125000F1D460ED77E080E090E09EDECFE6D4E070
:10126000CE010E944117CE010E941D18CE010E949E
:10127000871880EF91E009D200D082EC90E0EDB7C2
:10128000FEB7928381830E94E61F0F900F90CFEEEE
:10129000D1E0CE0158D0CE0162E044EF51E063D0FE
:1012A000DF91CF9108953CDEDC01CB014091EB0151
:1012B0005091EC016091ED017091EE01841B950B52
:1012C000A60BB70B893E23E0920720E0A20720E09F
:1012D000B20740F125DEDC01CB018093EB01909356
:1012E000EC01A093ED01B093EE0133D40E943012D3
:1012F00055D6A0D44DD48091F801882321F01092C6
:10130000F8010E94381C8FE694E00E9487188FE64F
:1013100094E00E9400188FE694E00E9455188FE632
:1013200094E02FD20C946A2668DE75DFC4E0D6E024
:10133000BADF2097E9F368DCFBCF1F920F920FB65C
:101340000F921124FFCF83E061E092DE81E280936F
:10135000B0008BE08093B1008DE78093B3008EE303
:101360008093B4000895BF92CF92DF92EF92FF92E4
:101370000F931F93CF93DF93B62E00E010E06A0126
:10138000EE24FF24C62FD0E0219715C08091B00035
:1013900080628093B000C701B601FEDD8091B0008D
:1013A0008F7D8093B0000C171D071CF4C701B60198
:1013B000F3DD0F5F1F4F0B1548F3DF91CF911F91A6
:1013C0000F91FF90EF90DF90CF90BF900895FC01B8
:1013D00098E0908F82E0818F92AB83ABDF01A45BBA
:1013E000BF4F9C93E35BFF4F80830895FC01862FE2
:1013F000880F8C5F808F618F82AB63ABDF01A45B52
:10140000BF4F8C93E35BFF4F60830895EF92FF9291
:101410000F931F93CF93DF938C01F62FE72FC0E03C
:10142000D0E02AE1E22EF12CCE9D9001CF9D300D2F
:10143000DE9D300D1124C801820F931F6F2F7E2F68
:101440000E940419AB01F82FE92F2196C330D10572
:1014500059F7DF91CF911F910F91FF90EF90089571
:101460009B01A901662757FD6095762FBA01552784
:101470004427CCDFAB01BC01AB01772757FD70954A
:10148000672FCA010895FC01E05CFF4F6081718104
:101490008281938108950F931F93CF93DF93EC0183
:1014A0008B010E94B419CE014A96B8010E94B4196A
:1014B000CE01C496B8010E94B419DF91CF911F915B
:1014C0000F9108951F920F920FB60F9211242F9330
:1014D0003F934F935F936F937F938F939F93AF93BC
:1014E000BF93EF93FF934F9906C081E08093F8017B
:1014F0008FE694E0D2D1FF91EF91BF91AF919F9190
:101500008F917F916F915F914F913F912F910F90AC
:101510000FBE0F901F9018951F93CF93DF93EC0190
:10152000162F10DDDC01CB014D855E856F85788936
:10153000841B950BA60BB70B843F21E0920720E09C
:10154000A20720E0B207A0F189858B8719879B85C8
:101550008985981769F1F6DCDC01CB018D879E87C0
:10156000AF87B88B99858A85981721F48E819F81E2
:10157000019603C08E819F8101979F838E8368812E
:1015800079812E813F81CB0101964A815B8182174F
:10159000930714F45F834E838E819F8141505040A6
:1015A0008417950714F47F836E838FE694E075D1DA
:1015B000DF91CF911F9108951F93CF93DF93EC019B
:1015C000162FC0DCDC01CB0149895A896B897C89E3
:1015D000841B950BA60BB70B843F21E0920720E0FC
:1015E000A20720E0B20770F08A858C871A879C8555
:1015F0008A85981739F0A6DCDC01CB01898B9A8BA0
:10160000AB8BBC8BDF91CF911F9108951F920F92EE
:101610000FB60F9211242F933F934F935F936F93C5
:101620007F938F939F93AF93BF93CF93DF93EF936A
:10163000FF93C3B1C170D1E0199BD0E08091050246
:10164000C81721F080EF91E06C2F66DF80910602D1
:10165000D81721F080EF91E06D2FAEDFC093050227
:10166000D0930602FF91EF91DF91CF91BF91AF919F
:101670009F918F917F916F915F914F913F912F91AA
:101680000F900FBE0F901F901895CF93DF93EC0132
:101690008FEF9FE79983888380E090E89B838A831C
:1016A0001D821C821F821E82188681E089878A879C
:1016B0008B878C871D861E861F86188A198A1A8A30
:1016C0001B8A1C8A88E060E0D3DC89E060E0D0DC23
:1016D00087E060E0CDDCCE0161E01EDFCE0161E09D
:1016E0006BDFE8E6F0E0808185608083EBE6F0E088
:1016F000808183608083EDE6F0E080818068808374
:10170000DF91CF910895FC018FB7F894660F771F92
:1017100077836683440F551F53834283220F331F01
:1017200031832083758364838FBF0895FC012FB7B5
:10173000F8948681978186819781817019F08481E0
:10174000958106C086819781959587959583848339
:101750002FBF0895CF93DF93EC01E8DF20910702BC
:10176000309108028217930741F0CE01DFDF90939A
:1017700008028093070281E001C08885DF91CF9144
:101780000895CF93DF93EC01CBDB28EE33E040E00C
:1017900050E00E94262C8D859E85885A9D4F821789
:1017A000930718F48D81846002C08D818B7F8D83B7
:1017B000DF91CF910895DA0120E030E075E1679F75
:1017C000B0011124680F791F90EBFB01E20FF31FAA
:1017D00087858F3D11F49C9301C08C932F5F3F4F01
:1017E00011962431310589F7FA01148A08958BE0A6
:1017F00061E03EDC8DE061E03BDC8AE061E038DC0A
:101800008CB58F7D8CBD8CB582608CBD8DB58160B3
:101810008DBD8CB588608CBD8CB584608CBD8CB55D
:1018200080618CBD8CB580648CBD0895CF93DF93AF
:10183000EC01862F6C8361E01BDC88E28E83CE0195
:10184000D6DFDE0124E030E20FC0FD01E80FF91F12
:101850003787019684319105C1F793961C9293972F
:1018600021505596222319F080E090E0EECF1E869D
:101870001D86DF91CF910895CF93DF93EC018C818A
:1018800060E02ADC8D818EBD0DB407FEFDCF8C811A
:1018900061E022DCDF91CF910895CF93DF93EC01DB
:1018A0003FDB28EE33E040E050E00E94262C3E87EC
:1018B0002D87CE0166DFCE01DFDFDF91CF91089566
:1018C000CF93DF93EC018D8182608D83CE01D4DFD5
:1018D00081E090E088DB8D818D7F8D83CE01CCDF30
:1018E000DF91CF910895CF93DF93EC018D816295C5
:1018F000607F8F70682B6D83CE01BEDFCE01E0DF8D
:10190000DF91CF9108950F931F93CF93DF93EC0155
:10191000162F0FB7F8948D81442311F0816001C018
:101920008E7F8D83CE01A8DF212F30E044E03595F6
:1019300027954A95E1F7CE01622FD5DFCE01612FC1
:10194000D2DF0FBFDF91CF911F910F9108951F93A9
:10195000CF93DF93EC01162F41E0D5DF4B858A85CD
:1019600090E025E130E0829FF001839FF00D929F8F
:10197000F00D1124EC0FFD1FE40FF11D17874F5FD1
:101980004B8780EA9FE00197F1F781E090E0DF91DB
:10199000CF911F91089540E0B6DF80EA9FE0019764
:1019A000F1F70895FC0160856E7F60876460F3CF76
:1019B000FC016085262F226020876660ECCFFC0149
:1019C0006781262F246027836C60E5CFCF93DF9358
:1019D00000D000D0CDB7DEB7198220E42A8324E1FD
:1019E0002B8324E52C83FC012485421708F040E07A
:1019F000FC0142876387FE01E40FF11D2181260F60
:101A00002068622FC8DF0F900F900F900F90DF912A
:101A1000CF910895CF93DF93EC0162E0BCDF1A868B
:101A20001B86DF91CF91089561E0B5CFCF93DF930F
:101A3000EC014C871A861B8680E593ECD4DACE0144
:101A400063E051DF80E593ECCEDACE0163E04BDF5B
:101A500088EE93E0C8DACE0163E045DF80E593ECE1
:101A6000C2DACE0162E03FDF80E593ECBCDACE0162
:101A700068E291DFCE01D8DFCE019ADFCE0192DF9E
:101A8000CE01C8DFCE019BDFDF91CF910895EF92A9
:101A9000FF920F931F93CF93DF93EC0168830B9614
:101AA00096DCCE01875A9F4F92DCCE0189559F4F1D
:101AB0008EDC1A821B821C821D8219828FEF8E831C
:101AC0008EE090E0DDD98C0168810E94E51D25EF54
:101AD000E22EF12CEC0EFD1EF7011183008387E04E
:101AE00090E00E94F0168C01F70160817181E7D7C8
:101AF000C950DF4F19830883DF91CF911F910F9158
:101B0000FF90EF900895CF93DF93EC01FC01EB5031
:101B1000FF4F80819181B7D9C950DF4F888199816A
:101B20000E940317DF91CF9108958130910541F410
:101B30008DE693E063E1ABDF8CE692E062E1A7CF54
:101B4000009731F48CE692E0DEDF8DE693E0DBCFA8
:101B500008958DE693E00E94DA2A80916E0388232F
:101B600051F480913C02823611F0863621F48DE6E4
:101B700093E00E940D2A8CE692E00E94DA2A80917E
:101B80006D02882321F48CE692E00C940D2A0895CE
:101B900080911902833049F0843068F0843029F054
:101BA000853049F486E060E008C086E061E094DAC0
:101BB00085E060E005C086E061E08EDA85E061E006
:101BC0008BCAAED928EE33E040E050E00E94262CCC
:101BD000C9014091090250910A0260910B02709173
:101BE0000C02841B950B08959BD928EE33E040E04E
:101BF00050E00E94262CC90140910D0250910E0226
:101C000060910F0270911002841B950B089588D982
:101C100028EE33E040E050E00E94262CC9014091BC
:101C20001102509112026091130270911402841BF0
:101C3000950B0895CF93DF9384E084DA009789F4BD
:101C400080911902833059F000D085ED90E0EDB716
:101C5000FEB7928381830E94E61F0F900F9083E06E
:101C600005C020913C022F3621F482E080931902B6
:101C700092C180913F0290914002F0E880309F072E
:101C800009F466C180916D02882309F461C18091D5
:101C90006E03882309F072C1223609F459C1203736
:101CA00009F06CC155C13CD928EE33E040E050E06A
:101CB0000E94262CC901A0E0B0E08093110290930D
:101CC0001202A0931302B09314028091170288238A
:101CD00009F061C180911802882309F05CC18CE68B
:101CE00092E00E94D42B20913F023091400240911B
:101CF000560250915702240F351F281739076CF5EB
:101D000080913C02863659F45CDF23E085389207E7
:101D1000E8F06ADF32E089359307E8F417C0C09134
:101D20003D02D0913E0269968DE693E00E94D42B4D
:101D3000C817D9070CF02FC144DFE1E08D329E07B0
:101D400028F052DFF2E089359F0728F480911902CC
:101D5000813009F020C185E089CF8CE692E00E94B5
:101D6000D42B20913F023091400240915802509173
:101D70005902240F351F821793070CF00CC1C09134
:101D80003D02D0913E0269978DE693E00E94D42BEC
:101D90008C179D070CF0FFC014DF22E089359207F5
:101DA00028F022DF31E08D32930728F48091190268
:101DB000813009F0F0C084E059CF81E080931702B0
:101DC000AFD828EE33E040E050E00E94262CC90155
:101DD000A0E0B0E08093090290930A02A0930B0266
:101DE000B0930C02C0916402D091650210DFC81755
:101DF000D90728F4209164023091650202C007DF00
:101E00009C016091430270914402882777FD809580
:101E1000982F442737FD4095542F0E94F42B20E142
:101E20003EE040E050E00E94482CE9018CE692E060
:101E30000E94D42BFC01EC1BFD0BF0933302E093CA
:101E40003202C0913F02D091400280915E02909197
:101E50005F022091600230916102820F931F62E065
:101E600070E00E94132C6C0F7D1F6E177F070CF41F
:101E700092C0D0933502C0933402C9DEE1E08D32C6
:101E80009E0708F488C064C081E08093180248D897
:101E900028EE33E040E050E00E94262CC901A0E08B
:101EA000B0E080930D0290930E02A0930F02B093C6
:101EB0001002C0916202D0916302A9DEC817D9074F
:101EC00028F4209162023091630202C0A0DE9C01DE
:101ED0006091410270914202882777FD8095982F8A
:101EE000442737FD4095542F0E94F42B20E13EE01B
:101EF00040E050E00E94482CE9018CE692E00E940C
:101F0000D42BFC01EC0FFD1FF0933302E09332025F
:101F1000C0913F02D091400280915A0290915B02A1
:101F200020915C0230915D02820F931F62E070E0AD
:101F30000E94132C6C0F7D1FE617F70764F1D093F6
:101F40003702C093360263DEF1E08D329F0718F14D
:101F50001092190220C084E0F5D881309105D9F49F
:101F600000D088EE90E0EDB7FEB7928381830E94A7
:101F7000E61F109219020F900F900DC08091190268
:101F8000833049F3833008F48ECE843009F47CCF5B
:101F9000853009F412CFDF91CF9108958F929F92EF
:101FA000AF92BF92CF92DF92EF92FF92CF93DF93E7
:101FB00080913C02823619F0803709F0BEC1209131
:101FC0003D0230913E0280E82030380709F4B0C16C
:101FD0008091060490910704A0910804B09109042F
:101FE0002A1B3B0B30931B0220931A028DE693E0D1
:101FF0000E94E22B909321028093200280916E0434
:10200000982F9F5F90936E048C3309F07DC01092DF
:102010006E0480911A0290911B0297FF03C0909565
:1020200081959F4F2091540230915502821793075A
:102030000CF04DC0ECDD27E08930920708F064C059
:1020400080911A0290911B0297FF0EC0C0913F022F
:10205000D0914002C050DC4F8CE692E00E94D42B1D
:10206000C817D9070CF450C080911A0290911B0236
:10207000181619066CF4C0913F02D0914002C0506E
:10208000D4408CE692E00E94D42B8C179D07E4F19B
:1020900040911A0250911B02CA0157FF04C08827C1
:1020A0009927841B950B8B31910574F1662757FD99
:1020B0006095762F80911C0290911D02A0911E02C6
:1020C000B0911F02840F951FA61FB71F15C08091E6
:1020D0001C0290911D02A0911E02B0911F02AC0142
:1020E000BD01D3E07595679557954795DA95D1F77A
:1020F000841B950BA60BB70B80931C0290931D02BB
:10210000A0931E02B0931F0220911A0230911B026D
:1021100080912E0290912F02AA2797FDA095BA2FA9
:102120004427582F692F7A2F481B590B6A0B7B0BBA
:1021300037FF2BC080914C0290914D02AA2797FD4A
:10214000A095BA2F480F591F6A1F7B1F452F562F86
:10215000672F772767FD7A9550932F0240932E02C1
:102160008091300290913102AA2797FDA095BA2F55
:102170004427582F692F7A2F481B590B6A0B7B0B6A
:1021800080915002909151022AC080914A02909110
:102190004B02AA2797FDA095BA2F480F591F6A1F17
:1021A0007B1F452F562F672F772767FD7A95509312
:1021B0002F0240932E028091300290913102AA2783
:1021C00097FDA095BA2F4427582F692F7A2F481BC7
:1021D000590B6A0B7B0B8091520290915302AA27F4
:1021E00097FDA095BA2F480F591F6A1F7B1F452FD7
:1021F000562F672F772767FD7A95509331024093CA
:10220000300260912E0270912F02882777FD809511
:10221000982F442737FD4095542F0E94F42B4B01F3
:102220005C01F9E0B594A79497948794FA95D1F757
:102230008092220290922302A0922402B092250260
:1022400060914E0270914F02882777FD8095982FFC
:1022500020911C0230911D0240911E0250911F02DC
:102260000E94F42B6B017C01A9E0F594E794D794CC
:10227000C794AA95D1F7C0922602D0922702E09285
:102280002802F09229026091300270913102882771
:1022900077FD8095982F20912002309121024427CC
:1022A00037FD4095542F0E94F42BAB01BC01B9E0DF
:1022B0007595679557954795BA95D1F740932A023A
:1022C00050932B0260932C0270932D0280913D025B
:1022D00090913E02AA2797FDA095BA2F880D991DCF
:1022E000AA1DBB1D8C0D9D1DAE1DBF1D840F951F0E
:1022F000A61FB71F2091460230914702A901662709
:1023000057FD6095762F84179507A607B70784F0C9
:102310004091480250914902662757FD6095762FFB
:10232000481759076A077B0714F4DB01CA019C01AF
:102330003093400220933F0206C080E090E89093E3
:102340003E0280933D02DF91CF91FF90EF90DF90AE
:10235000CF90BF90AF909F908F9008958CE392E0C4
:1023600061E070E049E050E00E94453180913D021B
:1023700090913E0290931602809315020895CF9398
:10238000DF93EC01F5E075956795FA95E1F78FEF2E
:102390006B3A78076CF01616170614F460E070E0DC
:1023A00066557E4F9B01442737FD4095542F04C04E
:1023B00025E531E040E050E068817981882777FDAC
:1023C0008095982F0E94F42BDC01CB01E9E0B595B4
:1023D000A79597958795EA95D1F799838883BEDF6E
:1023E000DF91CF910895CF93DF93EC0135E07595A0
:1023F00067953A95E1F777FD0DC06B39710514F0DB
:102400006AE970E06A597D4F9B01442737FD40958A
:10241000542F04C026E632E040E050E06881798124
:10242000882777FD8095982F0E94F42BDC01CB0143
:1024300080302EEF92072FEFA20720E0B20744F47E
:1024400029E0B595A795979587952A95D1F702C06C
:102450008FEF9FE79983888381DFDF91CF91089584
:10246000AF92BF92CF92DF92EF92FF920F93CF93F2
:10247000DF93CDB7DEB76B970FB6F894DEBF0FBE14
:10248000CDBF80911802882309F4CEC08091190233
:10249000843009F4C9C089EF92E088D77C0120E834
:1024A0008030920781F1809136029091370220911D
:1024B0005A0230915B02820F931F8E159F0534F4F0
:1024C000B701681B790B81E492E08DDF80913602C1
:1024D0009091370220915C0230915D02820F931F30
:1024E000E816F90634F4B701681B790B81E492E031
:1024F00046DF00D08BEF90E0ADB7BEB712969C934D
:102500008E93119735C070DB0A96B3E085389B0730
:1025100008F483C08CE692E00E94D42B209136020E
:102520003091370240915C0250915D02240F351FBB
:10253000821793070CF071C08CE692E00E94D42BB6
:102540007C01809136029091370220915C0230919B
:102550005D02820F931FB701681B790B81E492E043
:102560000EDF00D083E191E0EDB7FEB79283818367
:102570000E940D200F900F90A701662757FD6095D0
:10258000762FCE01439623E009E00E9421285C01CA
:102590004091360250913702662757FD6095762F9D
:1025A000CE010A9623E00E9421286C01409141024D
:1025B00050914202662757FD6095762FCE01019615
:1025C00023E00E943C272DB73EB7285030400FB67D
:1025D000F8943EBF0FBE2DBFEDB7FEB7319628E38E
:1025E00031E0ADB7BEB712963C932E931197B382EC
:1025F000A282D582C482978386830E940D20109286
:102600001802F0923B02E0923A02EDB7FEB738961C
:102610000FB6F894FEBF0FBEEDBFE6DAF3E08538E3
:102620009F0710F01092180280911702882309F476
:10263000CBC080911902853009F4C6C089EF92E0C1
:10264000D4D67C0120E880309207B1F18091340229
:10265000909135022091600230916102820F931FA8
:10266000E816F90634F4B701681B790B83E492E0AD
:10267000BADE809134029091350220915E02309151
:102680005F02280F391F2E153F0564F42091600268
:1026900030916102280F391FB701621B730B83E46D
:1026A00092E06DDE00D082E691E0ADB7BEB7129643
:1026B0009C938E9311972CC084DA0A96B7E08930E8
:1026C0009B0708F47AC08CE692E00E94D42B2091FC
:1026D00034023091350240915E0250915F02420F08
:1026E000531F481759070CF068C080916002909101
:1026F0006102820F931FB701681B790B83E492E09C
:102700003EDE00D08AE791E0EDB7FEB79283818389
:102710000E940D200F900F90A701662757FD60952E
:10272000762FCE01019623E009E00E9421285C016A
:102730004091340250913502662757FD6095762FFF
:10274000CE010A9623E00E9421286C0140914302A9
:1027500050914402662757FD6095762FCE0143962F
:1027600023E00E943C272DB73EB7285030400FB6DB
:10277000F8943EBF0FBE2DBFEDB7FEB7319621EAEC
:1027800031E0ADB7BEB712963C932E931197B3824A
:10279000A282D582C482978386830E940D201092E4
:1027A0001702F0923902E0923802EDB7FEB7389680
:1027B0000FB6F894FEBF0FBEEDBF03DAF7E0893025
:1027C0009F0710F0109217026B960FB6F894DEBFB9
:1027D0000FBECDBFDF91CF910F91FF90EF90DF90B3
:1027E000CF90BF90AF9008958CE392E061E070E0ED
:1027F00049E050E00C942D3182E680933C0280E069
:1028000098E290933E0280933D0290934002809321
:102810003F0280E190E0909342028093410280E089
:102820009AE0909344028093430298CD85E492E02D
:102830006AE070E047E250E00C94453185E492E0B4
:102840006AE070E047E250E00C942D31CF9383E4CE
:102850008093450288E592E0909363028093620240
:1028600080EB94E0909365028093640280E09CE3A7
:10287000909349028093480280E092E0909347024F
:102880008093460280E098E290934B0280934A0244
:1028900090934D0280934C0283E391E090934F021A
:1028A00080934E0280E09AEF909351028093500201
:1028B000909353028093520280E091E090935502EE
:1028C00080935402909357028093560280E09FEFCA
:1028D000909359028093580286E690E090935B02B1
:1028E00080935A028DEC9FEF90935D0280935C027F
:1028F00083E390E090935F0280935E028AE99FEF0A
:10290000909361028093600281E08093660287E782
:1029100092E061E00E94F60984E08093670285EC12
:1029200092E064E00E94F609C3E0C093680283E18C
:1029300093E063E00E94F60982E08093690288E7F1
:1029400093E062E00E94F60985E080936A0286ECDB
:1029500093E065E00E94F609C0936B0284E194E085
:1029600063E00E94F60962DFCF91089580E090E075
:102970000E943D31813049F03FDF68DF80E090E028
:1029800061E00E946631EADC51CF2EDF57CF909193
:102990003C02891791F01092190280933C028F56E5
:1029A000823050F480E090E890933E0280933D02A4
:1029B0009093400280933F02D1CC08958DE693E03E
:1029C0000C94D42BFBDF20913D0230913E0228175E
:1029D00039076CF480914C0290914D0290932F0234
:1029E00080932E0280915002909151020CC08091F0
:1029F0004A0290914B0290932F0280932E02809175
:102A000052029091530290933102809330021092BF
:102A1000180210921702089581E0809319028DE642
:102A200093E00E940D2A8CE692E00E940D2A91D834
:102A3000C9CF80913D0290913E0208958CE692E0CC
:102A40000C94D42B80913F02909140020895CF9333
:102A5000DF93EC0180913D0290913E02D0933E02C3
:102A6000C0933D028C1B9D0B97FF03C090958195F1
:102A70009F4F813891050CF0A5DF90DADBD880916B
:102A80001502909116028C1B9D0B97FF03C0909529
:102A900081959F4F813891050CF060DCDF91CF91DB
:102AA00008959093400280933F028CDF77DAC2D87A
:102AB00055CC81E090E039C880E090E036C8FC0158
:102AC000768365831482108289E090E0928381830B
:102AD00081E083830895CF93DF93EB01CB0167E01F
:102AE0000E948B1E91E02F81821390E0892FDF914D
:102AF000CF910895EF92FF920F931F93CF93DF939F
:102B0000EC018B01E42E8D819E810E94D81DFF2453
:102B100006C0CE01B801DFDF882359F414C08D81CF
:102B20009E81B8010E94081E882329F0FE1459F4E2
:102B3000F0CF81E001C080E0DF91CF911F910F9134
:102B4000FF90EF900895F394EF14A8F3E8CFEF927D
:102B5000FF920F931F93CF93DF93EC017B018A01C8
:102B60008D819E81FDD68D819E81B701F1D78D81AA
:102B70009E816EEB40E08ED78D819E81CED7F8018D
:102B800080838D819E81C9D7F80181838D819E814B
:102B9000C4D7F80182838D819E81BFD7F8018383DA
:102BA0008D819E81BAD7F80184838D819E81B5D7AE
:102BB000F80185838D819E81B0D7F80186838D8150
:102BC0009E81ABD7F80187838D819E81A6D7F801BE
:102BD00080878D819E81C4D6DF91CF911F910F9107
:102BE000FF90EF900895CF93DF93EA01B0DFCE011D
:102BF00068E00E948B1E91E02885821390E0892F67
:102C0000DF91CF910895EF92FF920F931F93CF938F
:102C1000DF938C01EB017A01FC0185819681A0D6BE
:102C2000F80185819681BE0193D7F801858196814F
:102C30006EE440E02FD7F80185819681F70162812B
:102C400040E028D7F80185819681F701638140E053
:102C500021D78881803139F0F80185819681F7018B
:102C6000648140E017D7F8018581968179D6F80113
:102C70008581968168E440810DD7F80180818823A1
:102C800031F06AE070E080E090E00E94CC07F8014B
:102C90008581968165D6DF91CF911F910F91FF902D
:102CA000EF900895EF92FF920F931F93CF93DF93CE
:102CB000CDB7DEB72A970FB6F894DEBF0FBECDBFF3
:102CC0007C018B01242FAE014F5F5F4F2A878BDF82
:102CD0002A858823D9F0F80180818031C9F02A3013
:102CE00051F02A3050F02B3021F02C3031F48FE7A6
:102CF00005C08FE503C08FE301C08FE18D83C7015D
:102D0000B801AE014F5F5F4F7EDF02C080E001C0BF
:102D100081E02A960FB6F894DEBF0FBECDBFDF91DB
:102D2000CF911F910F91FF90EF900895CF93DF9374
:102D3000EC018D819E8114D68D819E8136D78D8147
:102D40009E8164E44881A6D68B81882321F1898104
:102D50009A818930910551F089309105B4F08A301B
:102D6000910549F08B30910581F40AC06EE570E061
:102D700080E090E00EC06CEB70E080E090E009C075
:102D800067E771E080E090E004C06EEE72E080E002
:102D900090E00E94CC07DF91CF910895CF93DF930D
:102DA000CDB7DEB729970FB6F894DEBF0FBECDBF03
:102DB000AE014F5F5F4F17DF882339F03A8120E083
:102DC000898190E0822B932B02C081E89FEF2996A6
:102DD0000FB6F894DEBF0FBECDBFDF91CF9108953F
:102DE0000F931F93CF93DF93EC010E947D2C8C01F6
:102DF00060E070E0AE010E94F12EC801DF91CF913A
:102E00001F910F9108950C94132D08958130910511
:102E100059F4109272041092710488E291E0909338
:102E2000700480936F040895009731F488E291E074
:102E30009093700480936F0408950F931F93CF9322
:102E4000DF93CDB7DEB765970FB6F894DEBF0FBE40
:102E5000CDBF8C01CE01019644E150E00E94DD2EF1
:102E6000C801BE016F5F7F4F0E94CB0665960FB60B
:102E7000F894DEBF0FBECDBFDF91CF911F910F91B0
:102E80000895CF93DF93EC01FC01ED59FF4F8FEFD5
:102E90008083CE016AE00E94160CCE0164E144E01A
:102EA0000E94160DCE010E94140DDF91CF9108955E
:102EB0008F929F92AF92BF92CF92DF92FF920F9329
:102EC0001F93CF93DF93CDB7DEB729970FB6F89452
:102ED000DEBF0FBECDBF4C01CB01AC01662757FD55
:102EE0006095762F6E010894C11CD11CC60121E0AB
:102EF00009E00E94212800E010E0FC2CCD2C85E0A8
:102F0000A82EB12C05C060E20E94A70C0F5F1F4FD6
:102F10008F2D9C2D0E94002F9501281B390BC40179
:102F20000217130780F36F2D7C2D0E94CB06299684
:102F30000FB6F894DEBF0FBECDBFDF91CF911F91CA
:102F40000F91FF90DF90CF90BF90AF909F908F90A8
:102F500008956CEC71E071CFCF93DF93EC016CE0DE
:102F600042E00E94E60C6EDDBC0180E8603078072C
:102F700019F4CE01EEDF02C0CE019ADFDF91CF91CE
:102F80000895CF93DF93EC0166E042E00E94E60CE7
:102F900080916D02882329F051DDBC01CE0188DFCC
:102FA00002C0CE01D6DFDF91CF910895CF93DF939A
:102FB000EC016CE041E00E94E60C3BDDBC0180E8E6
:102FC0006030780719F4CE01C4DF02C0CE0170DF93
:102FD000DF91CF910895CF93DF93EC0166E041E05C
:102FE0000E94E60C80916E03882329F0E7DCBC0187
:102FF000CE015EDF02C0CE01ACDFDF91CF9108953C
:10300000CF93DF93EC01E7DFCE01D0DFCE01B9DF54
:10301000CE01A2DFDF91CF910895CF93DF93D82F18
:10302000C92F6FED0E94A70C8D2F9C2F6091450238
:103030000E94A70CDF91CF910895CF93DF93D82FF3
:10304000C92F60E040E00E94E60C8D2F9C2F62EDBE
:1030500071E0F3DE8D2F9C2F60E041E00E94E60CD2
:103060008D2F9C2F6AED71E0E8DE8D2F9C2F60E0A4
:1030700042E00E94E60C8D2F9C2F62EE71E0DDDEB7
:103080008D2F9C2F62E141E00E94E60C8D2F9C2F3A
:10309000C4DF8D2F9C2F62E142E00E94E60C8D2F51
:1030A0009C2FBBDFDF91CF910895CF93DF93D82F73
:1030B000C92F67E040E00E94E60C80913C02863612
:1030C00051F0873618F48236D1F40AC08F3691F069
:1030D0008037A9F40AC08D2F9C2F6AEE71E013C0CF
:1030E0008D2F9C2F68EF71E00EC08D2F9C2F66E016
:1030F00072E009C08D2F9C2F64E172E004C08D2F17
:103100009C2F62E272E099DEDF91CF910895FF92E9
:103110000F931F93CF93DF938C01C0911902FC0191
:10312000ED59FF4F8081C817D1F1F02ED12FC80182
:1031300060E043E00E94E60C80911902823011F1B8
:10314000833028F4882351F0813001F50BC084309E
:1031500089F0843098F08530C9F408C0C80160E374
:1031600072E018C0C80165E472E014C0C8016AE5E5
:1031700072E010C0C8016FE672E00CC0C80164E8DC
:1031800072E008C0C80169E972E004C08F2D9D2F6C
:103190006EEA72E052DEF801ED59FF4FC083CC2396
:1031A00099F4C80169E043E00E94E60C0E94E10D39
:1031B000EC010E94F40DC817D90718F40E94E10D24
:1031C0000DC00E94F40D0AC0C450C23088F4C8017A
:1031D0006CE043E00E94E60C0E94070EBC01C801AF
:1031E0004AE050E00E943B07C80163EC72E025DE34
:1031F000DF91CF911F910F91FF90089581E090E0B2
:1032000005CE80E090E002CE2F923F924F925F92E7
:103210006F927F928F929F92AF92BF92CF92DF92E6
:10322000EF92FF920F931F93CF93DF93FC014480A3
:10323000558066807780408651866286738680805E
:103240009180A280B38084829582A682B7824083D7
:10325000518362837383C088D188E288F388C48AEB
:10326000D58AE68AF78A84859585A685B785808B79
:10327000918BA28BB38BD18DC08D2C2E33248C01DE
:103280009D010C191D092E093F09080F191F2A1F3E
:103290003B1F0D2E04C0B595A795979587950A9469
:1032A000D2F7081B190B2A0B3B0BD701C60104C030
:1032B000B595A79597958795DA95D2F7080F191FB9
:1032C0002A1F3B1FDB01CA010C2E04C0B595A79530
:1032D000979587950A94D2F7080F191F2A1F3B1F4D
:1032E000C1010197B501A40104C075956795579573
:1032F00047958A95D2F7040F151F261F371FD30154
:10330000C20104C0B595A79597958795CA95D2F740
:10331000080F191F2A1F3B1FC1010297B701A60101
:1033200004C075956795579547958A95D2F7041B04
:10333000150B260B370B0487158726873787B801AF
:10334000C901DF91CF911F910F91FF90EF90DF9016
:10335000CF90BF90AF909F908F907F906F905F9035
:103360004F903F902F900895FC01CB01AA2797FD25
:10337000A095BA2FDC019927882780839183A283A7
:10338000B38384839583A683B78380879187A2873D
:10339000B38784879587A687B787808B918BA28B0D
:1033A000B38B848B958BA68BB78B0895FC014089DA
:1033B00051896289738984859585A685B785841727
:1033C0009507A607B7075CF484899589A689B7890C
:1033D000481759076A077B072CF0CB01089580E056
:1033E00090E8089580E090E80895FC0140895189B3
:1033F0006289738984859585A685B785481759079D
:103400006A077B075CF484899589A689B789841744
:103410009507A607B7072CF0CB01089580E090E848
:10342000089580E090E80895AF92BF92CF92DF9226
:10343000EF92FF920F931F93CF93DF93CDB7DEB739
:1034400029970FB6F894DEBF0FBECDBF8FE694E08C
:10345000F4DDEFDA5C0120E88030920719F460E0D7
:1034600078E201C0BC01882777FD8095982F0E94E3
:10347000A0298C016091460270914702882777FD50
:103480008095982F0E94A0296C016091480270914C
:103490004902882777FD8095982F0E94A0299C01DA
:1034A00080EF91E0B801A6010E94830B0E94900773
:1034B0006B017C0151C080EF91E00E94AA0B882330
:1034C00081F10E9490076B017C0180EF91E00E94E6
:1034D000960B0E94D629BBDA8FE694E067DD8091D7
:1034E000F8018823C9F11092F801A3DAAC0166272C
:1034F00057FD6095762FCE01019621E009E00E94EC
:10350000212800D000D02DE133E0EDB7FEB73283A3
:1035100021839483838334D50F900F900F900F9065
:103520002FC0112321F48FE694E040DD0DC0103848
:1035300059F48FE694E06CE041E00E94E60C8FE6DF
:1035400094E06AE373E079DC1F5F63E070E080E0A1
:1035500090E00E94CC0701C010E00E949007DC01BF
:10356000CB018C199D09AE09BF098031F7E29F0795
:10357000F0E0AF07F0E0BF0708F49DCFC50167DAC0
:1035800029960FB6F894DEBF0FBECDBFDF91CF9165
:103590001F910F91FF90EF90DF90CF90BF90AF9071
:1035A0000895AF92BF92CF92DF92EF92FF920F9366
:1035B0001F93CF93DF93CDB7DEB729970FB6F8945B
:1035C000DEBF0FBECDBF8FE694E037DD3BDA5C0196
:1035D00020E88030920719F460E078E201C0BC0175
:1035E000882777FD8095982F0E94A0298C016091F3
:1035F000460270914702882777FD8095982F0E9498
:10360000A0296C016091480270914902882777FDDA
:103610008095982F0E94A0299C0180EF91E0B8012D
:10362000A6010E94830B0E9490076B017C0151C090
:1036300080EF91E00E94AA0B882381F10E949007FD
:103640006B017C0180EF91E00E94960B0E94D629CD
:1036500028DA8FE694E080DC8091F8018823C9F1B4
:103660001092F801EFD9AC01662757FD6095762FCF
:10367000CE01019621E009E00E94212800D000D06F
:1036800020E433E0EDB7FEB7328321839483838354
:103690009DD40F900F900F900F902FC0112321F405
:1036A0008FE694E059DC0DC0103859F48FE694E0B1
:1036B0006CE042E00E94E60C8FE694E06FE573E078
:1036C000BCDB1F5F63E070E080E090E00E94CC070D
:1036D00001C010E00E949007DC01CB018C199D090C
:1036E000AE09BF098031F7E29F07F0E0AF07F0E0D5
:1036F000BF0708F49DCFC501D4D929960FB6F89419
:10370000DEBF0FBECDBFDF91CF911F910F91FF9014
:10371000EF90DF90CF90BF90AF900895CF92DF925F
:10372000EF92FF920F931F93CF93DF9300D000D0BF
:10373000CDB7DEB78FE694E080DC10913C02E12F3C
:10374000E656EB3028F4F0E0E45DFE4F608101C006
:1037500060E080EF91E070E040E050E023E030E096
:103760000E94830B82E6898386E68A8380E78B83C7
:103770008FE68C830E9490076B017C0158C080EF1C
:1037800091E00E94AA0B8823B9F10E9490076B0177
:103790007C0180EF91E00E94960BE1E0F0E0EC0FFD
:1037A000FD1FE80FF91F8081F2D88FE694E07DDCE1
:1037B0008091F801882309F43AC01092F8018091B1
:1037C0003C02823611F430DE46C0863611F4E9DE62
:1037D00042C0803721F400D08DEC92E005C08F36D6
:1037E000D1F500D08EEE92E0EDB7FEB792838183E3
:1037F000C7D30F900F902FC0002321F48FE694E0E1
:1038000054DC0DC0003859F48FE694E067E040E0E6
:103810000E94E60C8FE694E06FE073E00EDB0F5F32
:1038200063E070E080E090E00E94CC0701C000E01F
:103830000E949007DC01CB018C199D09AE09BF09DC
:103840008031F7E29F07F0E0AF07F0E0BF0708F430
:1038500096CF812F9CD80F900F900F900F90DF91F3
:10386000CF911F910F91FF90EF90DF90CF9008952F
:10387000CF92DF92EF92FF92CF9380EF91E060E0E2
:1038800070E040E050E022E030E00E94830B0E94B4
:1038900090076B017C01C0E04CC080EF91E00E947A
:1038A000AA0B882329F00E9490076B017C0102C0BB
:1038B000CC2329F48FE694E0C0DBC0E011C0C0380F
:1038C00079F480EF91E00E94960B482F8FE694E008
:1038D00060E00E94E60C8FE694E066EC72E0ADDA00
:1038E0008091F8018823F1F01092F80180EF91E0C7
:1038F0000E94960B8130910539F08230910559F084
:10390000009781F40BDF26C082E641D88FE694E071
:10391000CCDB8ADD1FC086E63AD88FE694E0C5DBB3
:1039200040DE18C0CF5F63E070E080E090E00E946E
:10393000CC070E949007DC01CB018C199D09AE09D0
:10394000BF09803127E2920720E0A20720E0B207FA
:1039500008F4A3CFCF91FF90EF90DF90CF90089520
:10396000FF920F931F93CF93DF93FC011081C181CE
:10397000D281F8948981012F0095802389837894DE
:103980008DE7F82EFA9431F182E090E00E94F3077F
:1039900088818123B9F3F8948A8180238A8389817D
:1039A000812B8983789484EF91E00E94F307F89447
:1039B00089818023898380E590E00E94F3078881D4
:1039C0008123C1E009F0C0E0789484EA91E00E948C
:1039D000F30701C0C0E08C2FDF91CF911F910F91B1
:1039E000FF9008951F93CF93DF93FC011081C18155
:1039F000D281912F9095F8948A8189238A83898135
:103A0000812B898360FF0BC08AE090E00E94F3075E
:103A10008A81812B8A83789487E390E00AC081E4CD
:103A200090E00E94F3078A81812B8A83789485E055
:103A300090E00E94F307DF91CF911F9108950F93BB
:103A40001F93CF93DF93FC011081C181D281F89441
:103A50008981812B89838A81012F009580238A8324
:103A600083E090E00E94F3078981802389838AE0C4
:103A700090E00E94F307C881789485E390E00E946B
:103A8000F3071C2381E009F480E0DF91CF911F91BF
:103A90000F910895CF92DF92EF92FF920F931F93B1
:103AA000CF93DF930F92CDB7DEB78C01F62E28E0CF
:103AB000C22ED12CEE24E3948E2D8F2161E009F4E7
:103AC00060E0C80149838EDFEE0C0894C108D1087C
:103AD0004981C114D10481F74423A9F4F894D80191
:103AE0001196ED91FC91129791818C91809589238B
:103AF00081831196ED91FC91129792818C91809522
:103B00008923828378940F90DF91CF911F910F9139
:103B1000FF90EF90DF90CF900895EF92FF920F9378
:103B20001F93CF93DF938C01C8E0D0E0FF24EE24F5
:103B3000E394C80184DF8111FE28EE0C2197C9F7B8
:103B40008F2DDF91CF911F910F91FF90EF900895EE
:103B5000CF92DF92EF92FF920F931F93CF93DF9359
:103B60000F92CDB7DEB77C01C62E65E540E07983C4
:103B700091DF0C2D7981172FCC24DD24F801619180
:103B80008F01C70140E086DF0894C11CD11CF8E01A
:103B9000CF16D10499F70F90DF91CF911F910F911C
:103BA000FF90EF90DF90CF9008956CEC40E072CFE3
:103BB000FC011386158614861286118610861782DC
:103BC000168215821482138208951F93CF93DF9378
:103BD000EC01162F862F60E00E943808612F70E0FC
:103BE000FB01E458FF4FE491E883FB01E057FF4FEE
:103BF000E491F0E0EE0FFF1FEC55FF4F859194919B
:103C000089839A83CE01D4DFDF91CF911F910895EC
:103C1000BF92CF92DF92EF92FF920F931F93CF93B9
:103C2000DF93EC016B018D85882309F052C0CE0132
:103C300097DE882321F41B861D861C865BC0CE017F
:103C400060EF40E027DF01E0FF24EE2411E0CE0129
:103C5000F6DEB82ECE01F3DE91E0B91619F481300C
:103C6000A9F42FC0B816D1F48B85181738F4FE01CB
:103C7000EF0DF11D8381802349F402C0181731F044
:103C800060E0193008F040C01C873EC0FE01EF0D17
:103C9000F11D8381802B838361E009C06B2DFE01C0
:103CA000EF0DF11D902F9095838189238383CE01A1
:103CB00099DE1F5F000F11F4F39401E087E08F1588
:103CC00030F6113430F0EB86EE2001F581E08D877F
:103CD0001DC01B861D861C8680E0D60120E030E0DA
:103CE000FE01E20FF31F93819D932F5F3F4F28301A
:103CF0003105B1F7DF91CF911F910F91FF90EF90B8
:103D0000DF90CF90BF900895E12EC9CF8B8188239B
:103D100001F381E0E2CFDC0180E007C0ED91E8270C
:103D2000F0E0EB59FC4F849161506623B9F7089598
:103D3000CF93DF93CDB7DEB7C058D0400FB6F8941D
:103D4000DEBF0FBECDBFFE01EB57FF4F419151913A
:103D5000CE01019660E870E09F010E94362F80E45A
:103D600091E0BE016F5F7F4F0E94CB06C058DF4FCE
:103D70000FB6F894DEBF0FBECDBFDF91CF9108958F
:103D8000CF92DF92EF92FF920F93CF93DF93CDB755
:103D9000DEB729970FB6F894DEBF0FBECDBF7C010A
:103DA0006B010E94DE14AC01662757FD6095762FEB
:103DB000CE01019622E009E00E94212800D000D027
:103DC0002AED34E0ADB7BEB712963C932E9311970F
:103DD00014969C938E931397ABDF0F900F900F90D8
:103DE0000F900E941915AC01662757FD6095762F3C
:103DF000CE01019622E00E94212800D000D02CEEB6
:103E000034E0EDB7FEB7328321839483838390DF60
:103E10000F900F908AEF94E0ADB7BEB712969C93C7
:103E20008E93119785DF0F900F90E114F10459F4F0
:103E300000D085E095E0EDB7FEB79283818378DF0F
:103E40000F900F9013C000D000D08BE095E0ADB77D
:103E5000BEB712969C938E9311971496FC92EE9295
:103E6000139766DF0F900F900F900F900E941E1512
:103E7000AC01662757FD6095762FCE01019622E0B2
:103E800009E00E94212800D000D021E135E0EDB703
:103E9000FEB732832183948383834ADF0F900F9090
:103EA0000F900F900E942215AC01662757FD609578
:103EB000762FCE01019622E00E94212800D000D06A
:103EC00022E235E0ADB7BEB712963C932E93119720
:103ED00014969C938E9313972BDF0F900F9082E391
:103EE00095E0EDB7FEB79283818322DF0F900F90AC
:103EF000C114D10469F400D08FE395E0ADB7BEB72B
:103F000012969C938E93119713DF0F900F900FC012
:103F100000D000D085E495E0EDB7FEB792838183B1
:103F2000D482C38205DF0F900F900F900F9000D0C6
:103F300000D0EDB7FEB731968BE495E0ADB7BEB7D4
:103F400012969C938E93119780911902828313820B
:103F5000EFDE0F900F900F900F9029960FB6F89408
:103F6000DEBF0FBECDBFDF91CF910F91FF90EF90DD
:103F7000DF90CF90089580E090E060E070E000CFA7
:103F8000CF93DF93CDB7DEB7C058D0400FB6F894CB
:103F9000DEBF0FBECDBFFE01EB57FF4F41915191E8
:103FA000CE01019660E870E09F010E94362FCE019D
:103FB000019660E070E0E4DEC058DF4F0FB6F89481
:103FC000DEBF0FBECDBFDF91CF910895CF93DF93BA
:103FD000CDB7DEB7C058D0400FB6F894DEBF0FBEE5
:103FE000CDBFFE01EB57FF4F41915191CE0101969C
:103FF00060E870E09F010E94362F80E090E0BE01F3
:104000006F5F7F4FBDDEC058DF4F0FB6F894DEBF45
:104010000FBECDBFDF91CF910895EF92FF920F9326
:104020001F93CF93DF93CDB7DEB7C058D0400FB604
:10403000F894DEBF0FBECDBF8E0107571F4FF801AA
:10404000E190F1908F0100D088E595E0EDB7FEB7E3
:10405000928381836DDE0F900F90CE01019660E810
:1040600070E0A70198010E94362F80E491E0BE0124
:104070006F5F7F4F0E94CB0600D08BE595E0EDB7D8
:10408000FEB79283818354DE0F900F90C058DF4FAC
:104090000FB6F894DEBF0FBECDBFDF91CF911F9159
:1040A0000F91FF90EF90089500D000D000D0EDB7B1
:1040B000FEB7319625E537E0ADB7BEB712963C9313
:1040C0002E931197938382837583648331DE8DB73A
:1040D0009EB706960FB6F8949EBF0FBE8DBF08958B
:1040E00000D000D000D0EDB7FEB731962EE537E016
:1040F000ADB7BEB712963C932E93119793838283EC
:104100007583648315DE8DB79EB706960FB6F89457
:104110009EBF0FBE8DBF08950F93CF93DF93CDB792
:10412000DEB72C970FB6F894DEBF0FBECDBF00D020
:1041300089EE96E0EDB7FEB792838183F9DD0F90AB
:104140000F9040911A0250911B02662757FD60950F
:10415000762FCE01019623E00CE00E943229BC01AB
:104160008DEE96E0A1DF40911C0250911D026091FE
:104170001E0270911F02CE01019623E00E94322997
:10418000BC0186EF96E090DF409120025091210221
:10419000662757FD6095762FCE01019623E00E9499
:1041A0003229BC0183E097E07FDF409122025091E9
:1041B00023026091240270912502CE01019623E032
:1041C0005BD6BC018DE097E06FDF409126025091F5
:1041D00027026091280270912902CE01019623E006
:1041E0004BD6BC018FE097E05FDF40912A025091EF
:1041F0002B0260912C0270912D02CE01019623E0DA
:104200003BD6BC0181E197E04FDF40912E025091F7
:104210002F02662757FD6095762FCE01019623E089
:104220002BD6BC0183E197E03FDF409130025091F3
:104230003102662757FD6095762FCE01019623E067
:104240001BD6BC0186E197E02FDF409132025091EE
:104250003302662757FD6095762FCE01019623E045
:10426000F0D6BC0189E197E01FDF40913402509104
:104270003502662757FD6095762FCE01019623E023
:10428000E0D6BC0187E297E00FDF40913602509103
:104290003702662757FD6095762FCE01019623E001
:1042A000D0D6BC0186E397E0FFDE40913802509102
:1042B0003902662757FD6095762FCE01019623E0DF
:1042C000C0D6BC0185E497E0EFDE40913A02509100
:1042D0003B02662757FD6095762FCE01019623E0BD
:1042E000B0D6BC018DE497E0FBDE2C960FB6F894B7
:1042F000DEBF0FBECDBFDF91CF910F91089500D0EB
:1043000000D000D0EDB7FEB7319628E637E0ADB764
:10431000BEB712963C932E93119793838283648346
:10432000158206DD8DB79EB706960FB6F8949EBF30
:104330000FBE8DBF08950F93CF93DF93CDB7DEB738
:104340002C970FB6F894DEBF0FBECDBF00D08DE521
:1043500095E0EDB7FEB792838183EADC0F900F9072
:1043600081E695E060913C02CADF40913D025091A8
:104370003E02662757FD6095762FCE01019622E01A
:104380000CE05FD6BC0186E695E08EDE40913F02F0
:1043900050914002662757FD6095762FCE01019619
:1043A00022E04FD6BC0182E795E07EDE40914102DB
:1043B00050914202662757FD6095762FCE010196F7
:1043C00023E05AD5BC0180E895E06EDE40914302BF
:1043D00050914402662757FD6095762FCE010196D5
:1043E00023E04AD5BC018EE895E07ADE2C960FB624
:1043F000F894DEBF0FBECDBFDF91CF910F9108952E
:1044000000D000D000D0EDB7FEB731962FE737E0EF
:10441000ADB7BEB712963C932E93119793838283C8
:104420007583648385DC8DB79EB706960FB6F894C6
:104430009EBF0FBE8DBF089500D000D000D0EDB755
:10444000FEB7319622E937E0ADB7BEB712963C937E
:104450002E931197938382836483158269DC8DB7D1
:104460009EB706960FB6F8949EBF0FBE8DBF0895F7
:1044700000D000D000D0EDB7FEB731962BE937E081
:10448000ADB7BEB712963C932E9311979383828358
:10449000648315824DDC8DB79EB706960FB6F894EF
:1044A0009EBF0FBE8DBF08950F93CF93DF93CDB7FF
:1044B000DEB72C970FB6F894DEBF0FBECDBF00D08D
:1044C0008CE995E0EDB7FEB79283818331DC0F90E4
:1044D0000F9080EA95E06091450211DF409146021D
:1044E00050914702662757FD6095762FCE010196C1
:1044F00021E00CE0A6D5BC018BEA95E0D5DD40912A
:10450000480250914902662757FD6095762FCE01EB
:10451000019621E096D5BC018AEB95E0C5DD40917E
:104520004A0250914B02662757FD6095762FCE01C7
:10453000019623E0A1D4BC0189EC95E0B5DD409162
:104540004C0250914D02662757FD6095762FCE01A3
:10455000019623E091D4BC0180ED95E0A5DD40916A
:104560004E0250914F02662757FD6095762FCE017F
:10457000019623E081D4BC0187ED95E095DD409163
:10458000500250915102662757FD6095762FCE015B
:10459000019623E071D4BC018AED95E085DD409160
:1045A000520250915302662757FD6095762FCE0137
:1045B000019623E061D4BC0181EE95E075DD409168
:1045C000540250915502662757FD6095762FCE0113
:1045D000019623E047D6BC0188EE95E065DD409169
:1045E000560250915702662757FD6095762FCE01EF
:1045F000019623E037D6BC0182EF95E055DD40916E
:10460000580250915902662757FD6095762FCE01CA
:10461000019623E027D6BC0180E096E045DD40917D
:104620005A0250915B02662757FD6095762FCE01A6
:10463000019623E017D6BC018DE096E035DD409170
:104640005C0250915D02662757FD6095762FCE0182
:10465000019623E007D6BC0180E296E025DD40917B
:104660005E0250915F02662757FD6095762FCE015E
:10467000019623E0F7D5BC0183E396E015DD409178
:10468000600250916102662757FD6095762FCE013A
:10469000019623E0E7D5BC0186E496E005DD609154
:1046A00062027091630289E596E0AADE609164027D
:1046B0007091650280E796E0A3DE87E896E060915E
:1046C0006602BADE88E996E060916702B5DE89EAA3
:1046D00096E060916802B0DE8BEB96E06091690233
:1046E000ABDE8AEC96E060916A02A6DE89ED96E088
:1046F00060916B02BDDE2C960FB6F894DEBF0FBE44
:10470000CDBFDF91CF910F9108950F931F93CF935A
:10471000DF93EC018B0100D000D000D0EDB7FEB7E5
:10472000319685EA97E0ADB7BEB712969C938E930B
:104730001197D383C283758364836FDCEDB7FEB7B3
:1047400036960FB6F894FEBF0FBEEDBFCE0161E600
:1047500075E00E94CD2E0097D9F4D8018C910E946B
:10476000C71400D000D0EDB7FEB7319683EC97E0C8
:10477000ADB7BEB712969C938E931197D8018C91CA
:104780008283138223DC0F900F900F900F900DC245
:10479000CE0166E675E00E94CD2E0097D1F5C801E6
:1047A00023D5EC0180913C028037F9F480913D02E1
:1047B00090913E02FE01E81BF90BCF01F7FF03C009
:1047C000909581959F4F85369105F4F000D000D0EB
:1047D00083EE97E0ADB7BEB712969C938E93119778
:1047E00014961C930E9313970AC000D000D08FE04C
:1047F00098E0EDB7FEB79283818314830383C0DB17
:104800000F900F900F900F90D0933E02C0933D02F7
:10481000CCC1CE0162E775E00E94CD2E0097F9F47D
:10482000C801E2D4EC0180913C02863699F400D0B4
:1048300000D085E398E0ADB7BEB712969C938E93F7
:10484000119714961C930E931397C0DB0F900F9043
:104850000F900F90D0934002C0933F02A6C1CE01AB
:1048600060E875E00E94CD2E009749F4C80134D469
:10487000DC01CB01909342028093410296C1CE01AC
:104880006EE875E00E94CD2E009749F4C80124D44B
:10489000DC01CB01909344028093430286C1CE0198
:1048A00060EA75E00E94CD2E009749F4F8018081FE
:1048B000809345028FE694E00E941D1876C1CE01D8
:1048C0006BEA75E00E94CD2E009739F4C8018CD4B4
:1048D000909347028093460268C1CE016AEB75E06F
:1048E0000E94CD2E009739F4C8017ED490934902DE
:1048F000809348025AC1CE0169EC75E00E94CD2E2A
:10490000009749F4C801E8D3DC01CB0190934B0236
:1049100080934A024AC1CE0160ED75E00E94CD2E1F
:10492000009749F4C801D8D3DC01CB0190934D0224
:1049300080934C023AC1CE0167ED75E00E94CD2E06
:10494000009749F4C801C8D3DC01CB0190934F0212
:1049500080934E022AC1CE016AED75E00E94CD2EF1
:10496000009749F4C801B8D3DC01CB019093510200
:10497000809350021AC1CE0161EE75E00E94CD2EE7
:10498000009749F4C801A8D3DC01CB0190935302EE
:10499000809352020AC1CE0168EE75E00E94CD2ECE
:1049A000009739F4C80192D4909355028093540231
:1049B000FCC0CE0162EF75E00E94CD2E009739F465
:1049C000C80184D49093570280935602EEC0CE0162
:1049D00060E076E00E94CD2E009739F4C80176D4CD
:1049E0009093590280935802E0C0CE016DE076E0CA
:1049F0000E94CD2E009739F4C80168D490935B02D1
:104A000080935A02D2C0CE0160E276E00E94CD2EA1
:104A1000009739F4C8015AD490935D0280935C02E8
:104A2000C4C0CE0163E376E00E94CD2E009739F436
:104A3000C8014CD490935F0280935E02B6C0CE0151
:104A400066E476E00E94CD2E009739F4C8013ED48A
:104A50009093610280936002A8C0CE0169E576E080
:104A60000E94CD2E009771F4C80160E070E04AE02A
:104A700050E00E94AC2DDC01CB0190936302809347
:104A8000620293C0CE0160E776E00E94CD2E0097CF
:104A900071F4C80160E070E04AE050E00E94AC2D83
:104AA000DC01CB0190936502809364027EC0CE014D
:104AB00067E876E00E94CD2E009761F4C80160E0BF
:104AC00070E04AE050E00E94AC2D6093660287E7F8
:104AD00092E05CC0CE0168E976E00E94CD2E00979E
:104AE00061F4C80160E070E04AE050E00E94AC2D43
:104AF0006093670285EC92E049C0CE0169EA76E0F6
:104B00000E94CD2E009761F4C80160E070E04AE099
:104B100050E00E94AC2D6093680283E193E036C0C0
:104B2000CE016BEB76E00E94CD2E009761F4C801B8
:104B300060E070E04AE050E00E94AC2D60936902B2
:104B400088E793E023C0CE016AEC76E00E94CD2E88
:104B5000009759F4C80160E070E04AE050E0FCD7EB
:104B600060936A0286EC93E011C0CE0169ED76E0B5
:104B70000E94CD2E009769F4C80160E070E04AE021
:104B800050E0EAD760936B0284E194E00E94F6095A
:104B90000CC000D08DE598E0ADB7BEB712969C93DF
:104BA0008E9311973ADA0F900F90DF91CF911F916A
:104BB0000F9108950F931F93CF93DF93CDB7DEB777
:104BC000EC970FB6F894DEBF0FBECDBF61E070E08A
:104BD00080E090E00E94CC0710E069C061E070E0E6
:104BE00080E090E00E94CC0780E491E00E94E40421
:104BF000182F8A33C9F0803261F08B3751F082323E
:104C000041F0EFE1F0E0EC0FFD1FE00FF11D8083BC
:104C10000F5F0D3110F053C000E080E491E00E947E
:104C2000B70418161906D4F2EFE1F0E0EC0FFD1FFF
:104C3000E00FF11D108200E01DC061E070E080E037
:104C400090E00E94CC0780E491E00E94E404182FD9
:104C50008C32B9F08D37A9F0803251F0823241F0B8
:104C6000E1E0F0E0EC0FFD1FE00FF11D80830F5F2E
:104C70000D3128F580E491E00E94B704181619065A
:104C8000E4F2E1E0F0E0EC0FFD1FE00FF11D108217
:104C9000CE014F96BE016F5F7F4F37DD1D3739F470
:104CA0000E94AE110E94161446DBFEDB08C080E4B1
:104CB00091E00E94B704181619060CF4ADCFEC96DB
:104CC0000FB6F894DEBF0FBECDBFDF91CF911F911D
:104CD0000F910895EF92FF920F931F93CF93DF935D
:104CE000CDB7DEB766970FB6F894DEBF0FBECDBF67
:104CF00080E491E00E94B704181619060CF0AFC0CA
:104D000080E491E00E94E4048C3609F456C08D36AC
:104D100070F4833569F1843520F4833409F08BC055
:104D200016C0833699F18A3609F085C082C0833770
:104D300059F1843720F48E3609F07DC02BC08437BA
:104D400021F0863709F077C023C015D988C00E94AA
:104D500026148FE694E00E941D18A6DB00D085E69D
:104D600094E0ADB7BEB712969C938E9311970AC08C
:104D70000E94FC13E0DA00D08FE794E0EDB7FEB7B5
:104D8000928381834AD952C0D6DA69C08DDB67C06D
:104D9000C3D965C000D000D088E994E0ADB7BEB7F4
:104DA00012969C938E93119780EA94E014969C93AC
:104DB0008E9313970E94981E4EC000D086EA94E00E
:104DC000EDB7FEB7928381830E94981E0F900F90DB
:104DD00020E08E010F5F1F4F39EAE32E34E0F32EFF
:104DE0008FE694E0622FA8012E8B0E94DB0B00D08F
:104DF00000D0ADB7BEB71296FC92EE921197149602
:104E00001C930E9313970E94981E2E892F5F0F906C
:104E10000F900F900F90243019F700D080EB94E0A2
:104E2000EDB7FEB7928381830E94981E0F900F907A
:104E300016C0C0DE14C000D000D0EDB7FEB731966A
:104E400022EB34E0ADB7BEB712963C932E93119788
:104E500082831382E2D80F900F900F900F90669686
:104E60000FB6F894DEBF0FBECDBFDF91CF911F917B
:104E70000F91FF90EF900895AF92BF92CF92DF9283
:104E8000EF92FF920F93CF93DF935C0177FF0BC0FC
:104E90008DE2D5018C9370956095509541955F4F4B
:104EA0006F4F7F4F03C080E2F50180836A017B0171
:104EB000F9E0F594E794D794C794FA95D1F7E60111
:104EC0005170607070702130B1F5CB01BA012AE0E9
:104ED00030E040E050E088D4DC01CB0180509F4FAF
:104EE000AF4FBF4FE9E0B595A79597958795EA95A0
:104EF000D1F7BC018A30910519F4219660E070E089
:104F00008DB79EB70A970FB6F8949EBF0FBE8DBFA0
:104F1000EDB7FEB73196C5010196ADB7BEB7129693
:104F20009C938E931197802F90E0019793838283B7
:104F30008CE798E037C02230E1F5CB01BA0124E6D6
:104F400030E040E050E050D4DC01CB0180509F4F76
:104F5000AF4FBF4FF9E0B595A79597958795FA950F
:104F6000D1F7BC018436910519F4219660E070E018
:104F70008DB79EB70A970FB6F8949EBF0FBE8DBF30
:104F8000EDB7FEB73196C5010196ADB7BEB7129623
:104F90009C938E931197802F90E001979383828347
:104FA00084E898E095838483D783C683718760877C
:104FB00034C08DB79EB70A970FB6F8949EBF0FBE48
:104FC0008DBFCDB7DEB72196C5010196ADB7BEB78F
:104FD00012969C938E931197802F90E001979B835C
:104FE0008A838CE898E09D838C83DF82CE82CB011C
:104FF000BA0128EE33E040E050E0F6D3DC01CB010B
:1050000080509F4FAF4FBF4FE9E0B595A79597955B
:105010008795EA95D1F799878887FBD6EDB7FEB7D4
:105020003A960FB6F894FEBF0FBEEDBFC501DF91F3
:10503000CF910F91FF90EF90DF90CF90BF90AF9006
:105040000895CF92DF92EF92FF920F931F93CF9329
:10505000DF93EC016A017B01122F403080E8580792
:105060008FEF68078FEF780729F4CE0167E778E0C4
:105070009DD628C0809145028634F1F4DB01CA0137
:1050800023E0880F991FAA1FBB1F2A95D1F7840F11
:10509000951FA61FB71FBC01CD0125E030E040E001
:1050A00050E0F6D369017A0180E090E4A0E0B0E03E
:1050B000C80ED91EEA1EFB1ECE01B701A601212F84
:1050C000DBDEEC01CE01DF91CF911F910F91FF90BC
:1050D000EF90DF90CF9008952F923F924F925F9282
:1050E0006F927F928F929F92AF92BF92CF92DF92F8
:1050F000EF92FF920F931F93CF93DF9300D0CDB722
:10510000DEB78C01FC0180818D3229F40F5F1F4FC7
:1051100077247A9402C077247394C8016EE270E019
:1051200067D66C01C80160E070E04AE050E014D539
:105130001B012C01C114D10469F186010F5F1F4FBF
:10514000C801BE016F5F7F4F4AE050E005D56B019B
:105150007C016980601AF9E0CC0CDD1CEE1CFF1CA0
:10516000FA95D1F700E010E0AAE08A2E912CA12C4C
:10517000B12C0DC0C701B6016B5F7F4F8F4F9F4FA2
:10518000A501940185D369017A010F5F1F4F601655
:1051900089F703C0CC24DD247601672D70E080E020
:1051A00090E0A2019101E9E0220F331F441F551F37
:1051B000EA95D1F72C0D3D1D4E1D5F1D15D30F90A7
:1051C0000F90DF91CF911F910F91FF90EF90DF90A3
:1051D000CF90BF90AF909F908F907F906F905F9097
:1051E0004F903F902F9008950F931F9375DF8B0181
:1051F0009C01809145028634D1F4D901C80142E076
:10520000880F991FAA1FBB1F4A95D1F7800F911FC6
:10521000A21FB31F80509044A140B040BC01CD01FB
:1052200029E030E040E050E033D389019A010030BA
:1052300080E818078FEF28078FEF38076CF00030F1
:1052400080E8180780E0280780E038073CF00FEF7F
:105250001FE720E030E002C000E010E8C8011F9125
:105260000F910895AF92BF92CF92DF92EF92FF928B
:105270000F93CF935C016A017B01C22F809145029D
:105280008634B1F4DB01CA0153E0880F991FAA1FCD
:10529000BB1F5A95D1F78C0D9D1DAE1DBF1DBC01C6
:1052A000CD0125E030E040E050E0F2D269017A0122
:1052B000C501B701A6012C2FDFDDCF910F91FF9023
:1052C000EF90DF90CF90BF90AF9008950F931F9312
:1052D00003DF8B019C01809145028634B1F4D90132
:1052E000C80162E0880F991FAA1FBB1F6A95D1F7FA
:1052F000800F911FA21FB31FBC01CD0129E030E038
:1053000040E050E0C5D289019A01003080E81807DA
:105310008FEF28078FEF38076CF0003080E8180710
:1053200080E0280780E038073CF00FEF1FE720E01F
:1053300030E002C000E010E8C8011F910F9108950D
:105340000F931F938B019C01809145028634D1F409
:10535000D901C80173E0880F991FAA1FBB1F7A9556
:10536000D1F7800F911FA21FB31FBC01CD0125E013
:1053700030E040E050E08CD289019A010050104C9E
:105380002F4F3F4FC901B8012AE030E040E050E024
:105390002BD260507F4F8F4F9F4F20E032E040E094
:1053A00050E076D2C9011F910F9108950F931F937A
:1053B00020914502AC01BA01882777FD8095982F8E
:1053C0002634B9F420E03AE040E050E00DD26050DD
:1053D00070488C40904029E030E040E050E058D2E6
:1053E00089019A010B5F1F4F2F4F3F4FC901B80131
:1053F0000BC0E9E0660F771F881F991FEA95D1F768
:105400006B5F7F4F8F4F9F4F2AE030E040E050E0CE
:105410003FD2C9011F910F910895CF92DF92EF9271
:10542000FF920F931F93CF93DF937C01FC01EB500E
:10543000FF4F808191810E94B01C29EFC22ED12C98
:10544000CE0CDF1CE701C950DF4F88819981B6017E
:1054500040E00E947A15882319F50E94900728EEF3
:1054600033E040E050E0F2D12430310508F099C03B
:1054700000D000D0EDB7FEB7319684E998E0ADB723
:10548000BEB712969C938E931197D7018C9182830D
:1054900013820E940D200F900F900F900F9081C0EB
:1054A00088819981B6014CE00E94521688819981C9
:1054B000FC0113820E9496160E949007DC01CB012A
:1054C000F70182839383A483B5836EEE72E080E05C
:1054D00090E00E94CC0788819981B6010E94CE1687
:1054E0008C010E949007DC01CB01F70142815381BE
:1054F00064817581841B950BA60BB70B813DF7E08A
:105500009F07F0E0AF07F0E0BF0728F0D701119642
:105510001C92119746C0BFEF01381B07E1F288814A
:1055200099810E9496166EEE72E080E090E00E94F3
:10553000CC0788819981B6010E94CE16EC0181E0EA
:10554000F7018183FCEFC030DF0764F024E0C03056
:10555000D20714F0CFEFD3E085E0CC0FDD1F8A95A2
:10556000E1F702C0C0E0D0E8C7010B96BE010E947F
:105570004B0A8701075A1F4FC801BE010E944B0A00
:10558000C70189559F4F60E070E00E944B0AC80137
:105590000E94430ADC01CB01F70187839087A18732
:1055A000B287DF91CF911F910F91FF90EF90DF9025
:1055B000CF900895EF92FF920F931F93CF93DF93B5
:1055C0008C010E949007DC01CB01F80142815381DC
:1055D00064817581841B950BA60BB70B8938F3E1A9
:1055E0009F07F0E0AF07F0E0BF07B0F0F801E95027
:1055F000FF4F808191810E9496160E949007DC01E6
:10560000CB01F80182839383A483B5836EEE72E0AD
:1056100080E090E00E94CC0759EFE52EF12CE00EDF
:10562000F11EE801C950DF4F88819981B7010E94BE
:10563000CE16D80111962C911197BFEF81389B0798
:10564000E1F42223B9F000D000D0EDB7FEB73196D7
:1056500080EC98E0ADB7BEB712969C938E931197ED
:10566000D8018C91828313820E940D200F900F909D
:105670000F900F90F801118290C0222321F560ED68
:1056800077E080E090E00E94CC07C801C6DE00D041
:1056900000D0EDB7FEB731968AEE98E0ADB7BEB751
:1056A00012969C938E931197D8018C9182831382CA
:1056B0000E940D200F900F900F900F90888199817C
:1056C000B7010E94CE16BCEF80309B076CF0E4E07F
:1056D00080309E0714F08FEF93E0EC0145E0CC0F93
:1056E000DD1F4A95E1F702C0C0E0D0E8C8010B9683
:1056F000BE010E94300A39E5E32EF12CE00EF11EC6
:10570000C701BE010E94300AD80116968C911697E7
:10571000815016968C9316978D3051F4C7010E94D4
:10572000430ADC01CB01F80187839087A187B28708
:10573000D80116968C9116978823F9F4C7010E9418
:10574000430AAB01BC01F80187819085A185B28530
:10575000481B590B6A0B7B0BC80189559F4F0E9450
:10576000060AC7010E94430ADC01CB01F8018783C6
:105770009087A187B2878CE08683F801E950FF4FBC
:10578000808191810E9496160E949007DC01CB01D6
:10579000F80182839383A483B583DF91CF911F9116
:1057A0000F91FF90EF900895FC01E55BFF4F408162
:1057B000518162817381AB01772757FD7095672F07
:1057C000CA01089589559F4F0E94430A2CE231E097
:1057D00040E050E009D0AB01BC01AB01772757FD99
:1057E0007095672FCA010895629FD001739FF001E1
:1057F000829FE00DF11D649FE00DF11D929FF00D61
:10580000839FF00D749FF00D659FF00D9927729F97
:10581000B00DE11DF91F639FB00DE11DF91FBD0122
:10582000CF011124089597FB092E07260AD077FD92
:1058300004D049D006D000201AF4709561957F4FAE
:105840000895F6F7909581959F4F0895A1E21A2E3D
:10585000AA1BBB1BFD010DC0AA1FBB1FEE1FFF1F14
:10586000A217B307E407F50720F0A21BB30BE40B64
:10587000F50B661F771F881F991F1A9469F76095AB
:105880007095809590959B01AC01BD01CF01089565
:1058900097FB092E05260ED057FD04D0D7DF0AD07E
:1058A000001C38F450954095309521953F4F4F4F4F
:1058B0005F4F0895F6F790958095709561957F4FAD
:1058C0008F4F9F4F0895AA1BBB1B51E107C0AA1F12
:1058D000BB1FA617B70710F0A61BB70B881F991F91
:1058E0005A95A9F780959095BC01CD010895EE0FCA
:1058F000FF1F0590F491E02D0994CF93DF93AC0145
:105900008230910510F442E050E0E091D504F0912E
:10591000D60420E030E0A0E0B0E024C08081918196
:1059200084179507D0F08417950771F482819381CD
:10593000109729F013969C938E9312972CC09093F6
:10594000D6048093D50427C02115310519F082179C
:10595000930718F49C01BD01EF0192818381DF015F
:10596000E92FF82F3097D1F621153105F9F0C9014B
:10597000841B950B8430910580F48A819B8161158D
:10598000710521F0FB019383828304C09093D604B8
:105990008093D504FE01329642C0FE01E80FF91F44
:1059A0004193519302979983888339C08091D3049E
:1059B0009091D404009741F48091100190911101CD
:1059C0009093D4048093D30420910E0130910F0161
:1059D0002115310541F42DB73EB780911201909108
:1059E0001301281B390BE091D304F091D404E21782
:1059F000F30798F42E1B3F0B2417350770F0CA01EC
:105A000002962817390748F08E0F9F1F9093D404F1
:105A10008093D3044193519302C0E0E0F0E0CF01C2
:105A2000DF91CF9108950F931F93CF93DF939C0144
:105A3000009709F48CC0DC01129713961C921E92F9
:105A400012976091D5047091D6046115710589F49F
:105A50008D919C911197820F931F2091D3043091C7
:105A6000D4042817390769F5B093D404A093D3045C
:105A70006EC0FB0140E050E001C0FC01EA17FB07EB
:105A800030F482819381AF010097B9F71FC0E9011B
:105A90002297FB83EA8308811981C901800F911F36
:105AA0008E179F0759F480819181800F911F029674
:105AB00099838883828193819B838A8341155105D1
:105AC00029F4B093D604A093D50441C0FA01B3835E
:105AD000A283C191D191EC0FFD1FAE17BF0781F4D6
